{
	"ticket_booking/ticket_booking.sol": {
		"Tickets_Booking": {
			"abi": [
				{
					"inputs": [
						{
							"internalType": "uint256",
							"name": "id",
							"type": "uint256"
						},
						{
							"internalType": "uint256",
							"name": "anonomus_id",
							"type": "uint256"
						},
						{
							"internalType": "enum Tickets_Booking.Time",
							"name": "Select_Time",
							"type": "uint8"
						},
						{
							"internalType": "enum Tickets_Booking.Type",
							"name": "Select_Type",
							"type": "uint8"
						},
						{
							"internalType": "uint256",
							"name": "Select_Seat_Number",
							"type": "uint256"
						},
						{
							"internalType": "uint256",
							"name": "Select_No_Of_seats",
							"type": "uint256"
						}
					],
					"name": "Book_AirLine_Ticket",
					"outputs": [
						{
							"internalType": "string",
							"name": "",
							"type": "string"
						}
					],
					"stateMutability": "nonpayable",
					"type": "function"
				},
				{
					"inputs": [
						{
							"internalType": "uint256",
							"name": "id",
							"type": "uint256"
						},
						{
							"internalType": "uint256",
							"name": "anonomus_id",
							"type": "uint256"
						},
						{
							"internalType": "enum Tickets_Booking.Time",
							"name": "Select_Time",
							"type": "uint8"
						},
						{
							"internalType": "enum Tickets_Booking.Type",
							"name": "Select_Type",
							"type": "uint8"
						},
						{
							"internalType": "uint256",
							"name": "Select_Seat_Number",
							"type": "uint256"
						},
						{
							"internalType": "uint256",
							"name": "Select_No_Of_seats",
							"type": "uint256"
						}
					],
					"name": "Book_Bus_Ticket",
					"outputs": [
						{
							"internalType": "string",
							"name": "",
							"type": "string"
						}
					],
					"stateMutability": "nonpayable",
					"type": "function"
				},
				{
					"inputs": [
						{
							"internalType": "uint256",
							"name": "id",
							"type": "uint256"
						},
						{
							"internalType": "uint256",
							"name": "anonomus_id",
							"type": "uint256"
						},
						{
							"internalType": "enum Tickets_Booking.Time",
							"name": "Select_Time",
							"type": "uint8"
						},
						{
							"internalType": "enum Tickets_Booking.Movie",
							"name": "Select_Movie_Name",
							"type": "uint8"
						},
						{
							"internalType": "uint256",
							"name": "Select_Seat_Number",
							"type": "uint256"
						},
						{
							"internalType": "uint256",
							"name": "Select_No_Of_seats",
							"type": "uint256"
						}
					],
					"name": "Book_Cinema_Ticket",
					"outputs": [
						{
							"internalType": "string",
							"name": "",
							"type": "string"
						}
					],
					"stateMutability": "nonpayable",
					"type": "function"
				},
				{
					"inputs": [
						{
							"internalType": "uint256",
							"name": "id",
							"type": "uint256"
						},
						{
							"internalType": "uint256",
							"name": "anonomus_id",
							"type": "uint256"
						},
						{
							"internalType": "enum Tickets_Booking.Date",
							"name": "dates",
							"type": "uint8"
						},
						{
							"internalType": "enum Tickets_Booking.Type",
							"name": "Select_Type",
							"type": "uint8"
						},
						{
							"internalType": "uint256",
							"name": "Select_Seat_Number",
							"type": "uint256"
						},
						{
							"internalType": "uint256",
							"name": "Select_No_Of_seats",
							"type": "uint256"
						}
					],
					"name": "Book_Cricket_Ticket",
					"outputs": [
						{
							"internalType": "string",
							"name": "",
							"type": "string"
						}
					],
					"stateMutability": "nonpayable",
					"type": "function"
				},
				{
					"inputs": [
						{
							"internalType": "uint256",
							"name": "id",
							"type": "uint256"
						},
						{
							"internalType": "uint256",
							"name": "anonomus_id",
							"type": "uint256"
						},
						{
							"internalType": "enum Tickets_Booking.Time",
							"name": "Select_Time",
							"type": "uint8"
						},
						{
							"internalType": "enum Tickets_Booking.Type",
							"name": "Select_Type",
							"type": "uint8"
						},
						{
							"internalType": "uint256",
							"name": "Select_Seat_Number",
							"type": "uint256"
						},
						{
							"internalType": "uint256",
							"name": "Select_No_Of_seats",
							"type": "uint256"
						}
					],
					"name": "Book_Railway_Ticket",
					"outputs": [
						{
							"internalType": "string",
							"name": "",
							"type": "string"
						}
					],
					"stateMutability": "nonpayable",
					"type": "function"
				},
				{
					"inputs": [
						{
							"internalType": "uint256",
							"name": "Id_Number",
							"type": "uint256"
						},
						{
							"internalType": "uint256",
							"name": "Anonomus_id",
							"type": "uint256"
						}
					],
					"name": "Check_AnonomusID",
					"outputs": [
						{
							"internalType": "bool",
							"name": "",
							"type": "bool"
						}
					],
					"stateMutability": "view",
					"type": "function"
				},
				{
					"inputs": [
						{
							"internalType": "uint256",
							"name": "id",
							"type": "uint256"
						},
						{
							"internalType": "uint256",
							"name": "password",
							"type": "uint256"
						}
					],
					"name": "Chekck_My_Tickets",
					"outputs": [
						{
							"components": [
								{
									"internalType": "uint256",
									"name": "ID",
									"type": "uint256"
								},
								{
									"internalType": "uint256",
									"name": "Anonomus_ID",
									"type": "uint256"
								},
								{
									"internalType": "string",
									"name": "Name",
									"type": "string"
								},
								{
									"internalType": "uint256",
									"name": "Age",
									"type": "uint256"
								},
								{
									"internalType": "address",
									"name": "Address",
									"type": "address"
								},
								{
									"components": [
										{
											"internalType": "enum Tickets_Booking.Time",
											"name": "time",
											"type": "uint8"
										},
										{
											"internalType": "enum Tickets_Booking.Type",
											"name": "types",
											"type": "uint8"
										},
										{
											"internalType": "uint256",
											"name": "Seat_Number",
											"type": "uint256"
										},
										{
											"internalType": "uint256",
											"name": "Book_n_Seats",
											"type": "uint256"
										}
									],
									"internalType": "struct Tickets_Booking.Bus_Ticket",
									"name": "bus_ticket",
									"type": "tuple"
								},
								{
									"components": [
										{
											"internalType": "enum Tickets_Booking.Time",
											"name": "time",
											"type": "uint8"
										},
										{
											"internalType": "enum Tickets_Booking.Type",
											"name": "types",
											"type": "uint8"
										},
										{
											"internalType": "uint256",
											"name": "Seat_Number",
											"type": "uint256"
										},
										{
											"internalType": "uint256",
											"name": "Book_n_Seats",
											"type": "uint256"
										}
									],
									"internalType": "struct Tickets_Booking.AirLine_Ticket",
									"name": "airLine_ticket",
									"type": "tuple"
								},
								{
									"components": [
										{
											"internalType": "enum Tickets_Booking.Time",
											"name": "time",
											"type": "uint8"
										},
										{
											"internalType": "enum Tickets_Booking.Movie",
											"name": "Movie_Name",
											"type": "uint8"
										},
										{
											"internalType": "uint256",
											"name": "Seat_Number",
											"type": "uint256"
										},
										{
											"internalType": "uint256",
											"name": "Book_n_Seats",
											"type": "uint256"
										}
									],
									"internalType": "struct Tickets_Booking.Cinema_Ticket",
									"name": "cinema_ticket",
									"type": "tuple"
								},
								{
									"components": [
										{
											"internalType": "enum Tickets_Booking.Date",
											"name": "date",
											"type": "uint8"
										},
										{
											"internalType": "enum Tickets_Booking.Type",
											"name": "types",
											"type": "uint8"
										},
										{
											"internalType": "uint256",
											"name": "Seat_Number",
											"type": "uint256"
										},
										{
											"internalType": "uint256",
											"name": "Book_n_Seats",
											"type": "uint256"
										}
									],
									"internalType": "struct Tickets_Booking.Cricket_Ticket",
									"name": "cricket_ticket",
									"type": "tuple"
								},
								{
									"components": [
										{
											"internalType": "enum Tickets_Booking.Time",
											"name": "time",
											"type": "uint8"
										},
										{
											"internalType": "enum Tickets_Booking.Type",
											"name": "types",
											"type": "uint8"
										},
										{
											"internalType": "uint256",
											"name": "Seat_Number",
											"type": "uint256"
										},
										{
											"internalType": "uint256",
											"name": "Book_n_Seats",
											"type": "uint256"
										}
									],
									"internalType": "struct Tickets_Booking.Railway_Ticket",
									"name": "railway_ticket",
									"type": "tuple"
								}
							],
							"internalType": "struct Tickets_Booking.Client",
							"name": "A",
							"type": "tuple"
						}
					],
					"stateMutability": "view",
					"type": "function"
				},
				{
					"inputs": [
						{
							"internalType": "string",
							"name": "name",
							"type": "string"
						},
						{
							"internalType": "uint256",
							"name": "age",
							"type": "uint256"
						},
						{
							"internalType": "address",
							"name": "addr",
							"type": "address"
						}
					],
					"name": "Creat_Account",
					"outputs": [
						{
							"internalType": "uint256",
							"name": "",
							"type": "uint256"
						},
						{
							"internalType": "uint256",
							"name": "",
							"type": "uint256"
						}
					],
					"stateMutability": "nonpayable",
					"type": "function"
				}
			],
			"devdoc": {
				"kind": "dev",
				"methods": {},
				"version": 1
			},
			"evm": {
				"assembly": "    /* \"ticket_booking/ticket_booking.sol\":61:9491  contract Tickets_Booking{... */\n  mstore(0x40, 0x80)\n  callvalue\n  dup1\n  iszero\n  tag_1\n  jumpi\n  0x00\n  dup1\n  revert\ntag_1:\n  pop\n  dataSize(sub_0)\n  dup1\n  dataOffset(sub_0)\n  0x00\n  codecopy\n  0x00\n  return\nstop\n\nsub_0: assembly {\n        /* \"ticket_booking/ticket_booking.sol\":61:9491  contract Tickets_Booking{... */\n      mstore(0x40, 0x80)\n      callvalue\n      dup1\n      iszero\n      tag_1\n      jumpi\n      0x00\n      dup1\n      revert\n    tag_1:\n      pop\n      jumpi(tag_2, lt(calldatasize, 0x04))\n      shr(0xe0, calldataload(0x00))\n      dup1\n      0x98851f11\n      gt\n      tag_11\n      jumpi\n      dup1\n      0x98851f11\n      eq\n      tag_7\n      jumpi\n      dup1\n      0xb051e718\n      eq\n      tag_8\n      jumpi\n      dup1\n      0xca3aa589\n      eq\n      tag_9\n      jumpi\n      dup1\n      0xd851bbbc\n      eq\n      tag_10\n      jumpi\n      jump(tag_2)\n    tag_11:\n      dup1\n      0x0c52e285\n      eq\n      tag_3\n      jumpi\n      dup1\n      0x2292c804\n      eq\n      tag_4\n      jumpi\n      dup1\n      0x5522ed14\n      eq\n      tag_5\n      jumpi\n      dup1\n      0x91334732\n      eq\n      tag_6\n      jumpi\n    tag_2:\n      0x00\n      dup1\n      revert\n        /* \"ticket_booking/ticket_booking.sol\":1665:1999  function Creat_Account(string memory name, uint age, address addr) public returns (uint, uint){... */\n    tag_3:\n      tag_12\n      0x04\n      dup1\n      calldatasize\n      sub\n      dup2\n      add\n      swap1\n      tag_13\n      swap2\n      swap1\n      tag_14\n      jump\t// in\n    tag_13:\n      tag_15\n      jump\t// in\n    tag_12:\n      mload(0x40)\n      tag_16\n      swap3\n      swap2\n      swap1\n      tag_17\n      jump\t// in\n    tag_16:\n      mload(0x40)\n      dup1\n      swap2\n      sub\n      swap1\n      return\n        /* \"ticket_booking/ticket_booking.sol\":2056:2251  function Check_AnonomusID(uint Id_Number, uint Anonomus_id) public view returns (bool){... */\n    tag_4:\n      tag_18\n      0x04\n      dup1\n      calldatasize\n      sub\n      dup2\n      add\n      swap1\n      tag_19\n      swap2\n      swap1\n      tag_20\n      jump\t// in\n    tag_19:\n      tag_21\n      jump\t// in\n    tag_18:\n      mload(0x40)\n      tag_22\n      swap2\n      swap1\n      tag_23\n      jump\t// in\n    tag_22:\n      mload(0x40)\n      dup1\n      swap2\n      sub\n      swap1\n      return\n        /* \"ticket_booking/ticket_booking.sol\":9262:9488  function Chekck_My_Tickets  ( uint id , uint password) public view returns(Client memory A) {... */\n    tag_5:\n      tag_24\n      0x04\n      dup1\n      calldatasize\n      sub\n      dup2\n      add\n      swap1\n      tag_25\n      swap2\n      swap1\n      tag_20\n      jump\t// in\n    tag_25:\n      tag_26\n      jump\t// in\n    tag_24:\n      mload(0x40)\n      tag_27\n      swap2\n      swap1\n      tag_28\n      jump\t// in\n    tag_27:\n      mload(0x40)\n      dup1\n      swap2\n      sub\n      swap1\n      return\n        /* \"ticket_booking/ticket_booking.sol\":5228:5947  function Book_Cricket_Ticket(uint id, uint anonomus_id, Date dates, Type Select_Type, uint Select_Seat_Number, uint Select_No_Of_seats ) public  returns (string memory){... */\n    tag_6:\n      tag_29\n      0x04\n      dup1\n      calldatasize\n      sub\n      dup2\n      add\n      swap1\n      tag_30\n      swap2\n      swap1\n      tag_31\n      jump\t// in\n    tag_30:\n      tag_32\n      jump\t// in\n    tag_29:\n      mload(0x40)\n      tag_33\n      swap2\n      swap1\n      tag_34\n      jump\t// in\n    tag_33:\n      mload(0x40)\n      dup1\n      swap2\n      sub\n      swap1\n      return\n        /* \"ticket_booking/ticket_booking.sol\":2261:2996  function Book_AirLine_Ticket(uint id, uint anonomus_id, Time Select_Time, Type Select_Type, uint Select_Seat_Number, uint Select_No_Of_seats ) public  returns (string memory){... */\n    tag_7:\n      tag_35\n      0x04\n      dup1\n      calldatasize\n      sub\n      dup2\n      add\n      swap1\n      tag_36\n      swap2\n      swap1\n      tag_37\n      jump\t// in\n    tag_36:\n      tag_38\n      jump\t// in\n    tag_35:\n      mload(0x40)\n      tag_39\n      swap2\n      swap1\n      tag_34\n      jump\t// in\n    tag_39:\n      mload(0x40)\n      dup1\n      swap2\n      sub\n      swap1\n      return\n        /* \"ticket_booking/ticket_booking.sol\":4478:5220  function Book_Cinema_Ticket(uint id, uint anonomus_id, Time Select_Time, Movie Select_Movie_Name, uint Select_Seat_Number, uint Select_No_Of_seats ) public  returns (string memory){... */\n    tag_8:\n      tag_40\n      0x04\n      dup1\n      calldatasize\n      sub\n      dup2\n      add\n      swap1\n      tag_41\n      swap2\n      swap1\n      tag_42\n      jump\t// in\n    tag_41:\n      tag_43\n      jump\t// in\n    tag_40:\n      mload(0x40)\n      tag_44\n      swap2\n      swap1\n      tag_34\n      jump\t// in\n    tag_44:\n      mload(0x40)\n      dup1\n      swap2\n      sub\n      swap1\n      return\n        /* \"ticket_booking/ticket_booking.sol\":3004:3739  function Book_Railway_Ticket(uint id, uint anonomus_id, Time Select_Time, Type Select_Type, uint Select_Seat_Number, uint Select_No_Of_seats ) public  returns (string memory){... */\n    tag_9:\n      tag_45\n      0x04\n      dup1\n      calldatasize\n      sub\n      dup2\n      add\n      swap1\n      tag_46\n      swap2\n      swap1\n      tag_37\n      jump\t// in\n    tag_46:\n      tag_47\n      jump\t// in\n    tag_45:\n      mload(0x40)\n      tag_48\n      swap2\n      swap1\n      tag_34\n      jump\t// in\n    tag_48:\n      mload(0x40)\n      dup1\n      swap2\n      sub\n      swap1\n      return\n        /* \"ticket_booking/ticket_booking.sol\":3747:4470  function Book_Bus_Ticket(uint id, uint anonomus_id, Time Select_Time, Type Select_Type, uint Select_Seat_Number, uint Select_No_Of_seats ) public  returns (string memory){... */\n    tag_10:\n      tag_49\n      0x04\n      dup1\n      calldatasize\n      sub\n      dup2\n      add\n      swap1\n      tag_50\n      swap2\n      swap1\n      tag_37\n      jump\t// in\n    tag_50:\n      tag_51\n      jump\t// in\n    tag_49:\n      mload(0x40)\n      tag_52\n      swap2\n      swap1\n      tag_34\n      jump\t// in\n    tag_52:\n      mload(0x40)\n      dup1\n      swap2\n      sub\n      swap1\n      return\n        /* \"ticket_booking/ticket_booking.sol\":1665:1999  function Creat_Account(string memory name, uint age, address addr) public returns (uint, uint){... */\n    tag_15:\n        /* \"ticket_booking/ticket_booking.sol\":1748:1752  uint */\n      0x00\n        /* \"ticket_booking/ticket_booking.sol\":1754:1758  uint */\n      dup1\n        /* \"ticket_booking/ticket_booking.sol\":1785:1792  USER_ID */\n      sload(0x00)\n        /* \"ticket_booking/ticket_booking.sol\":1766:1772  client */\n      0x01\n        /* \"ticket_booking/ticket_booking.sol\":1773:1780  USER_ID */\n      sload(0x00)\n        /* \"ticket_booking/ticket_booking.sol\":1766:1781  client[USER_ID] */\n      dup2\n      sload\n      dup2\n      lt\n      tag_54\n      jumpi\n      tag_55\n      tag_56\n      jump\t// in\n    tag_55:\n    tag_54:\n      swap1\n      0x00\n      mstore\n      keccak256(0x00, 0x20)\n      swap1\n      0x14\n      mul\n      add\n        /* \"ticket_booking/ticket_booking.sol\":1766:1784  client[USER_ID].ID */\n      0x00\n      add\n        /* \"ticket_booking/ticket_booking.sol\":1766:1792  client[USER_ID].ID=USER_ID */\n      dup2\n      swap1\n      sstore\n      pop\n        /* \"ticket_booking/ticket_booking.sol\":1820:1824  name */\n      dup5\n        /* \"ticket_booking/ticket_booking.sol\":1799:1805  client */\n      0x01\n        /* \"ticket_booking/ticket_booking.sol\":1806:1813  USER_ID */\n      sload(0x00)\n        /* \"ticket_booking/ticket_booking.sol\":1799:1814  client[USER_ID] */\n      dup2\n      sload\n      dup2\n      lt\n      tag_58\n      jumpi\n      tag_59\n      tag_56\n      jump\t// in\n    tag_59:\n    tag_58:\n      swap1\n      0x00\n      mstore\n      keccak256(0x00, 0x20)\n      swap1\n      0x14\n      mul\n      add\n        /* \"ticket_booking/ticket_booking.sol\":1799:1819  client[USER_ID].Name */\n      0x02\n      add\n        /* \"ticket_booking/ticket_booking.sol\":1799:1824  client[USER_ID].Name=name */\n      swap1\n      dup2\n      tag_61\n      swap2\n      swap1\n      tag_62\n      jump\t// in\n    tag_61:\n      pop\n        /* \"ticket_booking/ticket_booking.sol\":1851:1854  age */\n      dup4\n        /* \"ticket_booking/ticket_booking.sol\":1831:1837  client */\n      0x01\n        /* \"ticket_booking/ticket_booking.sol\":1838:1845  USER_ID */\n      sload(0x00)\n        /* \"ticket_booking/ticket_booking.sol\":1831:1846  client[USER_ID] */\n      dup2\n      sload\n      dup2\n      lt\n      tag_63\n      jumpi\n      tag_64\n      tag_56\n      jump\t// in\n    tag_64:\n    tag_63:\n      swap1\n      0x00\n      mstore\n      keccak256(0x00, 0x20)\n      swap1\n      0x14\n      mul\n      add\n        /* \"ticket_booking/ticket_booking.sol\":1831:1850  client[USER_ID].Age */\n      0x03\n      add\n        /* \"ticket_booking/ticket_booking.sol\":1831:1854  client[USER_ID].Age=age */\n      dup2\n      swap1\n      sstore\n      pop\n        /* \"ticket_booking/ticket_booking.sol\":1885:1889  addr */\n      dup3\n        /* \"ticket_booking/ticket_booking.sol\":1861:1867  client */\n      0x01\n        /* \"ticket_booking/ticket_booking.sol\":1868:1875  USER_ID */\n      sload(0x00)\n        /* \"ticket_booking/ticket_booking.sol\":1861:1876  client[USER_ID] */\n      dup2\n      sload\n      dup2\n      lt\n      tag_66\n      jumpi\n      tag_67\n      tag_56\n      jump\t// in\n    tag_67:\n    tag_66:\n      swap1\n      0x00\n      mstore\n      keccak256(0x00, 0x20)\n      swap1\n      0x14\n      mul\n      add\n        /* \"ticket_booking/ticket_booking.sol\":1861:1884  client[USER_ID].Address */\n      0x04\n      add\n      0x00\n        /* \"ticket_booking/ticket_booking.sol\":1861:1889  client[USER_ID].Address=addr */\n      0x0100\n      exp\n      dup2\n      sload\n      dup2\n      0xffffffffffffffffffffffffffffffffffffffff\n      mul\n      not\n      and\n      swap1\n      dup4\n      0xffffffffffffffffffffffffffffffffffffffff\n      and\n      mul\n      or\n      swap1\n      sstore\n      pop\n        /* \"ticket_booking/ticket_booking.sol\":1934:1936  10 */\n      0x0a\n        /* \"ticket_booking/ticket_booking.sol\":1924:1931  USER_ID */\n      sload(0x00)\n        /* \"ticket_booking/ticket_booking.sol\":1924:1936  USER_ID * 10 */\n      tag_69\n      swap2\n      swap1\n      tag_70\n      jump\t// in\n    tag_69:\n        /* \"ticket_booking/ticket_booking.sol\":1896:1902  client */\n      0x01\n        /* \"ticket_booking/ticket_booking.sol\":1903:1910  USER_ID */\n      sload(0x00)\n        /* \"ticket_booking/ticket_booking.sol\":1896:1911  client[USER_ID] */\n      dup2\n      sload\n      dup2\n      lt\n      tag_71\n      jumpi\n      tag_72\n      tag_56\n      jump\t// in\n    tag_72:\n    tag_71:\n      swap1\n      0x00\n      mstore\n      keccak256(0x00, 0x20)\n      swap1\n      0x14\n      mul\n      add\n        /* \"ticket_booking/ticket_booking.sol\":1896:1923  client[USER_ID].Anonomus_ID */\n      0x01\n      add\n        /* \"ticket_booking/ticket_booking.sol\":1896:1936  client[USER_ID].Anonomus_ID=USER_ID * 10 */\n      dup2\n      swap1\n      sstore\n      pop\n        /* \"ticket_booking/ticket_booking.sol\":1952:1953  1 */\n      0x01\n        /* \"ticket_booking/ticket_booking.sol\":1943:1950  USER_ID */\n      0x00\n      dup1\n        /* \"ticket_booking/ticket_booking.sol\":1943:1953  USER_ID+=1 */\n      dup3\n      dup3\n      sload\n      tag_74\n      swap2\n      swap1\n      tag_75\n      jump\t// in\n    tag_74:\n      swap3\n      pop\n      pop\n      dup2\n      swap1\n      sstore\n      pop\n        /* \"ticket_booking/ticket_booking.sol\":1969:1976  USER_ID */\n      sload(0x00)\n        /* \"ticket_booking/ticket_booking.sol\":1987:1989  10 */\n      0x0a\n        /* \"ticket_booking/ticket_booking.sol\":1977:1984  USER_ID */\n      sload(0x00)\n        /* \"ticket_booking/ticket_booking.sol\":1977:1989  USER_ID * 10 */\n      tag_76\n      swap2\n      swap1\n      tag_70\n      jump\t// in\n    tag_76:\n        /* \"ticket_booking/ticket_booking.sol\":1960:1991  return ( USER_ID,USER_ID * 10 ) */\n      swap2\n      pop\n      swap2\n      pop\n        /* \"ticket_booking/ticket_booking.sol\":1665:1999  function Creat_Account(string memory name, uint age, address addr) public returns (uint, uint){... */\n      swap4\n      pop\n      swap4\n      swap2\n      pop\n      pop\n      jump\t// out\n        /* \"ticket_booking/ticket_booking.sol\":2056:2251  function Check_AnonomusID(uint Id_Number, uint Anonomus_id) public view returns (bool){... */\n    tag_21:\n        /* \"ticket_booking/ticket_booking.sol\":2137:2141  bool */\n      0x00\n        /* \"ticket_booking/ticket_booking.sol\":2171:2177  client */\n      0x01\n        /* \"ticket_booking/ticket_booking.sol\":2178:2187  Id_Number */\n      dup4\n        /* \"ticket_booking/ticket_booking.sol\":2171:2188  client[Id_Number] */\n      dup2\n      sload\n      dup2\n      lt\n      tag_78\n      jumpi\n      tag_79\n      tag_56\n      jump\t// in\n    tag_79:\n    tag_78:\n      swap1\n      0x00\n      mstore\n      keccak256(0x00, 0x20)\n      swap1\n      0x14\n      mul\n      add\n        /* \"ticket_booking/ticket_booking.sol\":2171:2200  client[Id_Number].Anonomus_ID */\n      0x01\n      add\n      sload\n        /* \"ticket_booking/ticket_booking.sol\":2156:2167  Anonomus_id */\n      dup3\n        /* \"ticket_booking/ticket_booking.sol\":2156:2200  Anonomus_id == client[Id_Number].Anonomus_ID */\n      sub\n        /* \"ticket_booking/ticket_booking.sol\":2153:2244  if(Anonomus_id == client[Id_Number].Anonomus_ID){return true;}... */\n      tag_81\n      jumpi\n        /* \"ticket_booking/ticket_booking.sol\":2209:2213  true */\n      0x01\n        /* \"ticket_booking/ticket_booking.sol\":2202:2213  return true */\n      swap1\n      pop\n      jump(tag_77)\n        /* \"ticket_booking/ticket_booking.sol\":2153:2244  if(Anonomus_id == client[Id_Number].Anonomus_ID){return true;}... */\n    tag_81:\n        /* \"ticket_booking/ticket_booking.sol\":2237:2242  false */\n      0x00\n        /* \"ticket_booking/ticket_booking.sol\":2230:2242  return false */\n      swap1\n      pop\n        /* \"ticket_booking/ticket_booking.sol\":2056:2251  function Check_AnonomusID(uint Id_Number, uint Anonomus_id) public view returns (bool){... */\n    tag_77:\n      swap3\n      swap2\n      pop\n      pop\n      jump\t// out\n        /* \"ticket_booking/ticket_booking.sol\":9262:9488  function Chekck_My_Tickets  ( uint id , uint password) public view returns(Client memory A) {... */\n    tag_26:\n        /* \"ticket_booking/ticket_booking.sol\":9337:9352  Client memory A */\n      tag_83\n      tag_84\n      jump\t// in\n    tag_83:\n        /* \"ticket_booking/ticket_booking.sol\":9403:9408  false */\n      0x00\n        /* \"ticket_booking/ticket_booking.sol\":9369:9408  Check_AnonomusID(id, password) == false */\n      iszero\n      iszero\n        /* \"ticket_booking/ticket_booking.sol\":9369:9399  Check_AnonomusID(id, password) */\n      tag_86\n        /* \"ticket_booking/ticket_booking.sol\":9386:9388  id */\n      dup5\n        /* \"ticket_booking/ticket_booking.sol\":9390:9398  password */\n      dup5\n        /* \"ticket_booking/ticket_booking.sol\":9369:9385  Check_AnonomusID */\n      tag_21\n        /* \"ticket_booking/ticket_booking.sol\":9369:9399  Check_AnonomusID(id, password) */\n      jump\t// in\n    tag_86:\n        /* \"ticket_booking/ticket_booking.sol\":9369:9408  Check_AnonomusID(id, password) == false */\n      iszero\n      iszero\n      sub\n        /* \"ticket_booking/ticket_booking.sol\":9365:9479  if (Check_AnonomusID(id, password) == false){... */\n      iszero\n      tag_88\n      jumpi\n        /* \"ticket_booking/ticket_booking.sol\":9457:9463  client */\n      0x01\n        /* \"ticket_booking/ticket_booking.sol\":9464:9466  id */\n      dup4\n        /* \"ticket_booking/ticket_booking.sol\":9457:9467  client[id] */\n      dup2\n      sload\n      dup2\n      lt\n      tag_89\n      jumpi\n      tag_90\n      tag_56\n      jump\t// in\n    tag_90:\n    tag_89:\n      swap1\n      0x00\n      mstore\n      keccak256(0x00, 0x20)\n      swap1\n      0x14\n      mul\n      add\n        /* \"ticket_booking/ticket_booking.sol\":9450:9467  return client[id] */\n      mload(0x40)\n      dup1\n      0x0140\n      add\n      0x40\n      mstore\n      swap1\n      dup2\n      0x00\n      dup3\n      add\n      sload\n      dup2\n      mstore\n      0x20\n      add\n      0x01\n      dup3\n      add\n      sload\n      dup2\n      mstore\n      0x20\n      add\n      0x02\n      dup3\n      add\n      dup1\n      sload\n      tag_92\n      swap1\n      tag_93\n      jump\t// in\n    tag_92:\n      dup1\n      0x1f\n      add\n      0x20\n      dup1\n      swap2\n      div\n      mul\n      0x20\n      add\n      mload(0x40)\n      swap1\n      dup2\n      add\n      0x40\n      mstore\n      dup1\n      swap3\n      swap2\n      swap1\n      dup2\n      dup2\n      mstore\n      0x20\n      add\n      dup3\n      dup1\n      sload\n      tag_94\n      swap1\n      tag_93\n      jump\t// in\n    tag_94:\n      dup1\n      iszero\n      tag_95\n      jumpi\n      dup1\n      0x1f\n      lt\n      tag_96\n      jumpi\n      0x0100\n      dup1\n      dup4\n      sload\n      div\n      mul\n      dup4\n      mstore\n      swap2\n      0x20\n      add\n      swap2\n      jump(tag_95)\n    tag_96:\n      dup3\n      add\n      swap2\n      swap1\n      0x00\n      mstore\n      keccak256(0x00, 0x20)\n      swap1\n    tag_97:\n      dup2\n      sload\n      dup2\n      mstore\n      swap1\n      0x01\n      add\n      swap1\n      0x20\n      add\n      dup1\n      dup4\n      gt\n      tag_97\n      jumpi\n      dup3\n      swap1\n      sub\n      0x1f\n      and\n      dup3\n      add\n      swap2\n    tag_95:\n      pop\n      pop\n      pop\n      pop\n      pop\n      dup2\n      mstore\n      0x20\n      add\n      0x03\n      dup3\n      add\n      sload\n      dup2\n      mstore\n      0x20\n      add\n      0x04\n      dup3\n      add\n      0x00\n      swap1\n      sload\n      swap1\n      0x0100\n      exp\n      swap1\n      div\n      0xffffffffffffffffffffffffffffffffffffffff\n      and\n      0xffffffffffffffffffffffffffffffffffffffff\n      and\n      0xffffffffffffffffffffffffffffffffffffffff\n      and\n      dup2\n      mstore\n      0x20\n      add\n      0x05\n      dup3\n      add\n      mload(0x40)\n      dup1\n      0x80\n      add\n      0x40\n      mstore\n      swap1\n      dup2\n      0x00\n      dup3\n      add\n      0x00\n      swap1\n      sload\n      swap1\n      0x0100\n      exp\n      swap1\n      div\n      0xff\n      and\n      0x02\n      dup2\n      gt\n      iszero\n      tag_98\n      jumpi\n      tag_99\n      tag_100\n      jump\t// in\n    tag_99:\n    tag_98:\n      0x02\n      dup2\n      gt\n      iszero\n      tag_101\n      jumpi\n      tag_102\n      tag_100\n      jump\t// in\n    tag_102:\n    tag_101:\n      dup2\n      mstore\n      0x20\n      add\n      0x00\n      dup3\n      add\n      0x01\n      swap1\n      sload\n      swap1\n      0x0100\n      exp\n      swap1\n      div\n      0xff\n      and\n      0x02\n      dup2\n      gt\n      iszero\n      tag_103\n      jumpi\n      tag_104\n      tag_100\n      jump\t// in\n    tag_104:\n    tag_103:\n      0x02\n      dup2\n      gt\n      iszero\n      tag_105\n      jumpi\n      tag_106\n      tag_100\n      jump\t// in\n    tag_106:\n    tag_105:\n      dup2\n      mstore\n      0x20\n      add\n      0x01\n      dup3\n      add\n      sload\n      dup2\n      mstore\n      0x20\n      add\n      0x02\n      dup3\n      add\n      sload\n      dup2\n      mstore\n      pop\n      pop\n      dup2\n      mstore\n      0x20\n      add\n      0x08\n      dup3\n      add\n      mload(0x40)\n      dup1\n      0x80\n      add\n      0x40\n      mstore\n      swap1\n      dup2\n      0x00\n      dup3\n      add\n      0x00\n      swap1\n      sload\n      swap1\n      0x0100\n      exp\n      swap1\n      div\n      0xff\n      and\n      0x02\n      dup2\n      gt\n      iszero\n      tag_107\n      jumpi\n      tag_108\n      tag_100\n      jump\t// in\n    tag_108:\n    tag_107:\n      0x02\n      dup2\n      gt\n      iszero\n      tag_109\n      jumpi\n      tag_110\n      tag_100\n      jump\t// in\n    tag_110:\n    tag_109:\n      dup2\n      mstore\n      0x20\n      add\n      0x00\n      dup3\n      add\n      0x01\n      swap1\n      sload\n      swap1\n      0x0100\n      exp\n      swap1\n      div\n      0xff\n      and\n      0x02\n      dup2\n      gt\n      iszero\n      tag_111\n      jumpi\n      tag_112\n      tag_100\n      jump\t// in\n    tag_112:\n    tag_111:\n      0x02\n      dup2\n      gt\n      iszero\n      tag_113\n      jumpi\n      tag_114\n      tag_100\n      jump\t// in\n    tag_114:\n    tag_113:\n      dup2\n      mstore\n      0x20\n      add\n      0x01\n      dup3\n      add\n      sload\n      dup2\n      mstore\n      0x20\n      add\n      0x02\n      dup3\n      add\n      sload\n      dup2\n      mstore\n      pop\n      pop\n      dup2\n      mstore\n      0x20\n      add\n      0x0b\n      dup3\n      add\n      mload(0x40)\n      dup1\n      0x80\n      add\n      0x40\n      mstore\n      swap1\n      dup2\n      0x00\n      dup3\n      add\n      0x00\n      swap1\n      sload\n      swap1\n      0x0100\n      exp\n      swap1\n      div\n      0xff\n      and\n      0x02\n      dup2\n      gt\n      iszero\n      tag_115\n      jumpi\n      tag_116\n      tag_100\n      jump\t// in\n    tag_116:\n    tag_115:\n      0x02\n      dup2\n      gt\n      iszero\n      tag_117\n      jumpi\n      tag_118\n      tag_100\n      jump\t// in\n    tag_118:\n    tag_117:\n      dup2\n      mstore\n      0x20\n      add\n      0x00\n      dup3\n      add\n      0x01\n      swap1\n      sload\n      swap1\n      0x0100\n      exp\n      swap1\n      div\n      0xff\n      and\n      0x02\n      dup2\n      gt\n      iszero\n      tag_119\n      jumpi\n      tag_120\n      tag_100\n      jump\t// in\n    tag_120:\n    tag_119:\n      0x02\n      dup2\n      gt\n      iszero\n      tag_121\n      jumpi\n      tag_122\n      tag_100\n      jump\t// in\n    tag_122:\n    tag_121:\n      dup2\n      mstore\n      0x20\n      add\n      0x01\n      dup3\n      add\n      sload\n      dup2\n      mstore\n      0x20\n      add\n      0x02\n      dup3\n      add\n      sload\n      dup2\n      mstore\n      pop\n      pop\n      dup2\n      mstore\n      0x20\n      add\n      0x0e\n      dup3\n      add\n      mload(0x40)\n      dup1\n      0x80\n      add\n      0x40\n      mstore\n      swap1\n      dup2\n      0x00\n      dup3\n      add\n      0x00\n      swap1\n      sload\n      swap1\n      0x0100\n      exp\n      swap1\n      div\n      0xff\n      and\n      0x02\n      dup2\n      gt\n      iszero\n      tag_123\n      jumpi\n      tag_124\n      tag_100\n      jump\t// in\n    tag_124:\n    tag_123:\n      0x02\n      dup2\n      gt\n      iszero\n      tag_125\n      jumpi\n      tag_126\n      tag_100\n      jump\t// in\n    tag_126:\n    tag_125:\n      dup2\n      mstore\n      0x20\n      add\n      0x00\n      dup3\n      add\n      0x01\n      swap1\n      sload\n      swap1\n      0x0100\n      exp\n      swap1\n      div\n      0xff\n      and\n      0x02\n      dup2\n      gt\n      iszero\n      tag_127\n      jumpi\n      tag_128\n      tag_100\n      jump\t// in\n    tag_128:\n    tag_127:\n      0x02\n      dup2\n      gt\n      iszero\n      tag_129\n      jumpi\n      tag_130\n      tag_100\n      jump\t// in\n    tag_130:\n    tag_129:\n      dup2\n      mstore\n      0x20\n      add\n      0x01\n      dup3\n      add\n      sload\n      dup2\n      mstore\n      0x20\n      add\n      0x02\n      dup3\n      add\n      sload\n      dup2\n      mstore\n      pop\n      pop\n      dup2\n      mstore\n      0x20\n      add\n      0x11\n      dup3\n      add\n      mload(0x40)\n      dup1\n      0x80\n      add\n      0x40\n      mstore\n      swap1\n      dup2\n      0x00\n      dup3\n      add\n      0x00\n      swap1\n      sload\n      swap1\n      0x0100\n      exp\n      swap1\n      div\n      0xff\n      and\n      0x02\n      dup2\n      gt\n      iszero\n      tag_131\n      jumpi\n      tag_132\n      tag_100\n      jump\t// in\n    tag_132:\n    tag_131:\n      0x02\n      dup2\n      gt\n      iszero\n      tag_133\n      jumpi\n      tag_134\n      tag_100\n      jump\t// in\n    tag_134:\n    tag_133:\n      dup2\n      mstore\n      0x20\n      add\n      0x00\n      dup3\n      add\n      0x01\n      swap1\n      sload\n      swap1\n      0x0100\n      exp\n      swap1\n      div\n      0xff\n      and\n      0x02\n      dup2\n      gt\n      iszero\n      tag_135\n      jumpi\n      tag_136\n      tag_100\n      jump\t// in\n    tag_136:\n    tag_135:\n      0x02\n      dup2\n      gt\n      iszero\n      tag_137\n      jumpi\n      tag_138\n      tag_100\n      jump\t// in\n    tag_138:\n    tag_137:\n      dup2\n      mstore\n      0x20\n      add\n      0x01\n      dup3\n      add\n      sload\n      dup2\n      mstore\n      0x20\n      add\n      0x02\n      dup3\n      add\n      sload\n      dup2\n      mstore\n      pop\n      pop\n      dup2\n      mstore\n      pop\n      pop\n      swap1\n      pop\n      jump(tag_85)\n        /* \"ticket_booking/ticket_booking.sol\":9365:9479  if (Check_AnonomusID(id, password) == false){... */\n    tag_88:\n        /* \"ticket_booking/ticket_booking.sol\":9262:9488  function Chekck_My_Tickets  ( uint id , uint password) public view returns(Client memory A) {... */\n    tag_85:\n      swap3\n      swap2\n      pop\n      pop\n      jump\t// out\n        /* \"ticket_booking/ticket_booking.sol\":5228:5947  function Book_Cricket_Ticket(uint id, uint anonomus_id, Date dates, Type Select_Type, uint Select_Seat_Number, uint Select_No_Of_seats ) public  returns (string memory){... */\n    tag_32:\n        /* \"ticket_booking/ticket_booking.sol\":5382:5395  string memory */\n      0x60\n        /* \"ticket_booking/ticket_booking.sol\":5407:5424  string memory Msg */\n      dup1\n        /* \"ticket_booking/ticket_booking.sol\":5435:5445  bool check */\n      0x00\n        /* \"ticket_booking/ticket_booking.sol\":5448:5481  Check_AnonomusID(id, anonomus_id) */\n      tag_140\n        /* \"ticket_booking/ticket_booking.sol\":5465:5467  id */\n      dup10\n        /* \"ticket_booking/ticket_booking.sol\":5469:5480  anonomus_id */\n      dup10\n        /* \"ticket_booking/ticket_booking.sol\":5448:5464  Check_AnonomusID */\n      tag_21\n        /* \"ticket_booking/ticket_booking.sol\":5448:5481  Check_AnonomusID(id, anonomus_id) */\n      jump\t// in\n    tag_140:\n        /* \"ticket_booking/ticket_booking.sol\":5435:5481  bool check = Check_AnonomusID(id, anonomus_id) */\n      swap1\n      pop\n        /* \"ticket_booking/ticket_booking.sol\":5507:5512  false */\n      0x00\n        /* \"ticket_booking/ticket_booking.sol\":5498:5512  check == false */\n      iszero\n      iszero\n        /* \"ticket_booking/ticket_booking.sol\":5498:5503  check */\n      dup2\n        /* \"ticket_booking/ticket_booking.sol\":5498:5512  check == false */\n      iszero\n      iszero\n      sub\n        /* \"ticket_booking/ticket_booking.sol\":5494:5919  if (check == false){Msg = \" You are not the real Owner\";}... */\n      tag_141\n      jumpi\n        /* \"ticket_booking/ticket_booking.sol\":5514:5549  Msg = \" You are not the real Owner\" */\n      mload(0x40)\n      dup1\n      0x40\n      add\n      0x40\n      mstore\n      dup1\n      0x1b\n      dup2\n      mstore\n      0x20\n      add\n      0x20596f7520617265206e6f7420746865207265616c204f776e65720000000000\n      dup2\n      mstore\n      pop\n      swap2\n      pop\n        /* \"ticket_booking/ticket_booking.sol\":5494:5919  if (check == false){Msg = \" You are not the real Owner\";}... */\n      jump(tag_142)\n    tag_141:\n        /* \"ticket_booking/ticket_booking.sol\":5588:5597  bool Flag */\n      0x00\n        /* \"ticket_booking/ticket_booking.sol\":5600:5683  Book_cricket_Ticket(id, dates, Select_Type, Select_Seat_Number, Select_No_Of_seats) */\n      tag_143\n        /* \"ticket_booking/ticket_booking.sol\":5620:5622  id */\n      dup11\n        /* \"ticket_booking/ticket_booking.sol\":5624:5629  dates */\n      dup10\n        /* \"ticket_booking/ticket_booking.sol\":5631:5642  Select_Type */\n      dup10\n        /* \"ticket_booking/ticket_booking.sol\":5644:5662  Select_Seat_Number */\n      dup10\n        /* \"ticket_booking/ticket_booking.sol\":5664:5682  Select_No_Of_seats */\n      dup10\n        /* \"ticket_booking/ticket_booking.sol\":5600:5619  Book_cricket_Ticket */\n      tag_144\n        /* \"ticket_booking/ticket_booking.sol\":5600:5683  Book_cricket_Ticket(id, dates, Select_Type, Select_Seat_Number, Select_No_Of_seats) */\n      jump\t// in\n    tag_143:\n        /* \"ticket_booking/ticket_booking.sol\":5588:5683  bool Flag = Book_cricket_Ticket(id, dates, Select_Type, Select_Seat_Number, Select_No_Of_seats) */\n      swap1\n      pop\n        /* \"ticket_booking/ticket_booking.sol\":5714:5718  true */\n      0x01\n        /* \"ticket_booking/ticket_booking.sol\":5706:5718  Flag == true */\n      iszero\n      iszero\n        /* \"ticket_booking/ticket_booking.sol\":5706:5710  Flag */\n      dup2\n        /* \"ticket_booking/ticket_booking.sol\":5706:5718  Flag == true */\n      iszero\n      iszero\n      sub\n        /* \"ticket_booking/ticket_booking.sol\":5702:5908  if (Flag == true){... */\n      tag_145\n      jumpi\n        /* \"ticket_booking/ticket_booking.sol\":5742:5780  Msg = \"Bus Ticket Booked Successfully\" */\n      mload(0x40)\n      dup1\n      0x40\n      add\n      0x40\n      mstore\n      dup1\n      0x1e\n      dup2\n      mstore\n      0x20\n      add\n      0x427573205469636b657420426f6f6b6564205375636365737366756c6c790000\n      dup2\n      mstore\n      pop\n      swap3\n      pop\n        /* \"ticket_booking/ticket_booking.sol\":5702:5908  if (Flag == true){... */\n      jump(tag_146)\n    tag_145:\n        /* \"ticket_booking/ticket_booking.sol\":5847:5888  Msg = \"Invalid Input ! Ticket Not Booked\" */\n      mload(0x40)\n      dup1\n      0x60\n      add\n      0x40\n      mstore\n      dup1\n      0x21\n      dup2\n      mstore\n      0x20\n      add\n      data_00adbcbc5d6e925a5f7e055e6002d9b9c3d0cb41fa5c0edb7c27e5ca70f69064\n      0x21\n      swap2\n      codecopy\n      swap3\n      pop\n        /* \"ticket_booking/ticket_booking.sol\":5702:5908  if (Flag == true){... */\n    tag_146:\n        /* \"ticket_booking/ticket_booking.sol\":5565:5919  {... */\n      pop\n        /* \"ticket_booking/ticket_booking.sol\":5494:5919  if (check == false){Msg = \" You are not the real Owner\";}... */\n    tag_142:\n        /* \"ticket_booking/ticket_booking.sol\":5936:5939  Msg */\n      dup2\n        /* \"ticket_booking/ticket_booking.sol\":5929:5939  return Msg */\n      swap3\n      pop\n      pop\n      pop\n        /* \"ticket_booking/ticket_booking.sol\":5228:5947  function Book_Cricket_Ticket(uint id, uint anonomus_id, Date dates, Type Select_Type, uint Select_Seat_Number, uint Select_No_Of_seats ) public  returns (string memory){... */\n      swap7\n      swap6\n      pop\n      pop\n      pop\n      pop\n      pop\n      pop\n      jump\t// out\n        /* \"ticket_booking/ticket_booking.sol\":2261:2996  function Book_AirLine_Ticket(uint id, uint anonomus_id, Time Select_Time, Type Select_Type, uint Select_Seat_Number, uint Select_No_Of_seats ) public  returns (string memory){... */\n    tag_38:\n        /* \"ticket_booking/ticket_booking.sol\":2421:2434  string memory */\n      0x60\n        /* \"ticket_booking/ticket_booking.sol\":2446:2463  string memory Msg */\n      dup1\n        /* \"ticket_booking/ticket_booking.sol\":2474:2484  bool check */\n      0x00\n        /* \"ticket_booking/ticket_booking.sol\":2487:2520  Check_AnonomusID(id, anonomus_id) */\n      tag_148\n        /* \"ticket_booking/ticket_booking.sol\":2504:2506  id */\n      dup10\n        /* \"ticket_booking/ticket_booking.sol\":2508:2519  anonomus_id */\n      dup10\n        /* \"ticket_booking/ticket_booking.sol\":2487:2503  Check_AnonomusID */\n      tag_21\n        /* \"ticket_booking/ticket_booking.sol\":2487:2520  Check_AnonomusID(id, anonomus_id) */\n      jump\t// in\n    tag_148:\n        /* \"ticket_booking/ticket_booking.sol\":2474:2520  bool check = Check_AnonomusID(id, anonomus_id) */\n      swap1\n      pop\n        /* \"ticket_booking/ticket_booking.sol\":2546:2551  false */\n      0x00\n        /* \"ticket_booking/ticket_booking.sol\":2537:2551  check == false */\n      iszero\n      iszero\n        /* \"ticket_booking/ticket_booking.sol\":2537:2542  check */\n      dup2\n        /* \"ticket_booking/ticket_booking.sol\":2537:2551  check == false */\n      iszero\n      iszero\n      sub\n        /* \"ticket_booking/ticket_booking.sol\":2533:2968  if (check == false){Msg = \" You are not the real Owner\";}... */\n      tag_149\n      jumpi\n        /* \"ticket_booking/ticket_booking.sol\":2553:2588  Msg = \" You are not the real Owner\" */\n      mload(0x40)\n      dup1\n      0x40\n      add\n      0x40\n      mstore\n      dup1\n      0x1b\n      dup2\n      mstore\n      0x20\n      add\n      0x20596f7520617265206e6f7420746865207265616c204f776e65720000000000\n      dup2\n      mstore\n      pop\n      swap2\n      pop\n        /* \"ticket_booking/ticket_booking.sol\":2533:2968  if (check == false){Msg = \" You are not the real Owner\";}... */\n      jump(tag_150)\n    tag_149:\n        /* \"ticket_booking/ticket_booking.sol\":2627:2636  bool Flag */\n      0x00\n        /* \"ticket_booking/ticket_booking.sol\":2639:2728  Book_airLine_Ticket(id, Select_Time, Select_Type, Select_Seat_Number, Select_No_Of_seats) */\n      tag_151\n        /* \"ticket_booking/ticket_booking.sol\":2659:2661  id */\n      dup11\n        /* \"ticket_booking/ticket_booking.sol\":2663:2674  Select_Time */\n      dup10\n        /* \"ticket_booking/ticket_booking.sol\":2676:2687  Select_Type */\n      dup10\n        /* \"ticket_booking/ticket_booking.sol\":2689:2707  Select_Seat_Number */\n      dup10\n        /* \"ticket_booking/ticket_booking.sol\":2709:2727  Select_No_Of_seats */\n      dup10\n        /* \"ticket_booking/ticket_booking.sol\":2639:2658  Book_airLine_Ticket */\n      tag_152\n        /* \"ticket_booking/ticket_booking.sol\":2639:2728  Book_airLine_Ticket(id, Select_Time, Select_Type, Select_Seat_Number, Select_No_Of_seats) */\n      jump\t// in\n    tag_151:\n        /* \"ticket_booking/ticket_booking.sol\":2627:2728  bool Flag = Book_airLine_Ticket(id, Select_Time, Select_Type, Select_Seat_Number, Select_No_Of_seats) */\n      swap1\n      pop\n        /* \"ticket_booking/ticket_booking.sol\":2759:2763  true */\n      0x01\n        /* \"ticket_booking/ticket_booking.sol\":2751:2763  Flag == true */\n      iszero\n      iszero\n        /* \"ticket_booking/ticket_booking.sol\":2751:2755  Flag */\n      dup2\n        /* \"ticket_booking/ticket_booking.sol\":2751:2763  Flag == true */\n      iszero\n      iszero\n      sub\n        /* \"ticket_booking/ticket_booking.sol\":2747:2957  if (Flag == true){... */\n      tag_153\n      jumpi\n        /* \"ticket_booking/ticket_booking.sol\":2787:2829  Msg = \"AirLine Ticket Booked Successfully\" */\n      mload(0x40)\n      dup1\n      0x60\n      add\n      0x40\n      mstore\n      dup1\n      0x22\n      dup2\n      mstore\n      0x20\n      add\n      data_0f45b0162a83e2d3d06c52488ad6c6a38bb213716124b88b02041cf961851fd6\n      0x22\n      swap2\n      codecopy\n      swap3\n      pop\n        /* \"ticket_booking/ticket_booking.sol\":2747:2957  if (Flag == true){... */\n      jump(tag_154)\n    tag_153:\n        /* \"ticket_booking/ticket_booking.sol\":2896:2937  Msg = \"Invalid Input ! Ticket Not Booked\" */\n      mload(0x40)\n      dup1\n      0x60\n      add\n      0x40\n      mstore\n      dup1\n      0x21\n      dup2\n      mstore\n      0x20\n      add\n      data_00adbcbc5d6e925a5f7e055e6002d9b9c3d0cb41fa5c0edb7c27e5ca70f69064\n      0x21\n      swap2\n      codecopy\n      swap3\n      pop\n        /* \"ticket_booking/ticket_booking.sol\":2747:2957  if (Flag == true){... */\n    tag_154:\n        /* \"ticket_booking/ticket_booking.sol\":2604:2968  {... */\n      pop\n        /* \"ticket_booking/ticket_booking.sol\":2533:2968  if (check == false){Msg = \" You are not the real Owner\";}... */\n    tag_150:\n        /* \"ticket_booking/ticket_booking.sol\":2985:2988  Msg */\n      dup2\n        /* \"ticket_booking/ticket_booking.sol\":2978:2988  return Msg */\n      swap3\n      pop\n      pop\n      pop\n        /* \"ticket_booking/ticket_booking.sol\":2261:2996  function Book_AirLine_Ticket(uint id, uint anonomus_id, Time Select_Time, Type Select_Type, uint Select_Seat_Number, uint Select_No_Of_seats ) public  returns (string memory){... */\n      swap7\n      swap6\n      pop\n      pop\n      pop\n      pop\n      pop\n      pop\n      jump\t// out\n        /* \"ticket_booking/ticket_booking.sol\":4478:5220  function Book_Cinema_Ticket(uint id, uint anonomus_id, Time Select_Time, Movie Select_Movie_Name, uint Select_Seat_Number, uint Select_No_Of_seats ) public  returns (string memory){... */\n    tag_43:\n        /* \"ticket_booking/ticket_booking.sol\":4644:4657  string memory */\n      0x60\n        /* \"ticket_booking/ticket_booking.sol\":4669:4686  string memory Msg */\n      dup1\n        /* \"ticket_booking/ticket_booking.sol\":4697:4707  bool check */\n      0x00\n        /* \"ticket_booking/ticket_booking.sol\":4710:4743  Check_AnonomusID(id, anonomus_id) */\n      tag_156\n        /* \"ticket_booking/ticket_booking.sol\":4727:4729  id */\n      dup10\n        /* \"ticket_booking/ticket_booking.sol\":4731:4742  anonomus_id */\n      dup10\n        /* \"ticket_booking/ticket_booking.sol\":4710:4726  Check_AnonomusID */\n      tag_21\n        /* \"ticket_booking/ticket_booking.sol\":4710:4743  Check_AnonomusID(id, anonomus_id) */\n      jump\t// in\n    tag_156:\n        /* \"ticket_booking/ticket_booking.sol\":4697:4743  bool check = Check_AnonomusID(id, anonomus_id) */\n      swap1\n      pop\n        /* \"ticket_booking/ticket_booking.sol\":4769:4774  false */\n      0x00\n        /* \"ticket_booking/ticket_booking.sol\":4760:4774  check == false */\n      iszero\n      iszero\n        /* \"ticket_booking/ticket_booking.sol\":4760:4765  check */\n      dup2\n        /* \"ticket_booking/ticket_booking.sol\":4760:4774  check == false */\n      iszero\n      iszero\n      sub\n        /* \"ticket_booking/ticket_booking.sol\":4756:5192  if (check == false){Msg = \" You are not the real Owner\";}... */\n      tag_157\n      jumpi\n        /* \"ticket_booking/ticket_booking.sol\":4776:4811  Msg = \" You are not the real Owner\" */\n      mload(0x40)\n      dup1\n      0x40\n      add\n      0x40\n      mstore\n      dup1\n      0x1b\n      dup2\n      mstore\n      0x20\n      add\n      0x20596f7520617265206e6f7420746865207265616c204f776e65720000000000\n      dup2\n      mstore\n      pop\n      swap2\n      pop\n        /* \"ticket_booking/ticket_booking.sol\":4756:5192  if (check == false){Msg = \" You are not the real Owner\";}... */\n      jump(tag_158)\n    tag_157:\n        /* \"ticket_booking/ticket_booking.sol\":4850:4859  bool Flag */\n      0x00\n        /* \"ticket_booking/ticket_booking.sol\":4862:4956  Book_cinema_Ticket(id, Select_Time, Select_Movie_Name, Select_Seat_Number, Select_No_Of_seats) */\n      tag_159\n        /* \"ticket_booking/ticket_booking.sol\":4881:4883  id */\n      dup11\n        /* \"ticket_booking/ticket_booking.sol\":4885:4896  Select_Time */\n      dup10\n        /* \"ticket_booking/ticket_booking.sol\":4898:4915  Select_Movie_Name */\n      dup10\n        /* \"ticket_booking/ticket_booking.sol\":4917:4935  Select_Seat_Number */\n      dup10\n        /* \"ticket_booking/ticket_booking.sol\":4937:4955  Select_No_Of_seats */\n      dup10\n        /* \"ticket_booking/ticket_booking.sol\":4862:4880  Book_cinema_Ticket */\n      tag_160\n        /* \"ticket_booking/ticket_booking.sol\":4862:4956  Book_cinema_Ticket(id, Select_Time, Select_Movie_Name, Select_Seat_Number, Select_No_Of_seats) */\n      jump\t// in\n    tag_159:\n        /* \"ticket_booking/ticket_booking.sol\":4850:4956  bool Flag = Book_cinema_Ticket(id, Select_Time, Select_Movie_Name, Select_Seat_Number, Select_No_Of_seats) */\n      swap1\n      pop\n        /* \"ticket_booking/ticket_booking.sol\":4987:4991  true */\n      0x01\n        /* \"ticket_booking/ticket_booking.sol\":4979:4991  Flag == true */\n      iszero\n      iszero\n        /* \"ticket_booking/ticket_booking.sol\":4979:4983  Flag */\n      dup2\n        /* \"ticket_booking/ticket_booking.sol\":4979:4991  Flag == true */\n      iszero\n      iszero\n      sub\n        /* \"ticket_booking/ticket_booking.sol\":4975:5181  if (Flag == true){... */\n      tag_161\n      jumpi\n        /* \"ticket_booking/ticket_booking.sol\":5015:5053  Msg = \"Bus Ticket Booked Successfully\" */\n      mload(0x40)\n      dup1\n      0x40\n      add\n      0x40\n      mstore\n      dup1\n      0x1e\n      dup2\n      mstore\n      0x20\n      add\n      0x427573205469636b657420426f6f6b6564205375636365737366756c6c790000\n      dup2\n      mstore\n      pop\n      swap3\n      pop\n        /* \"ticket_booking/ticket_booking.sol\":4975:5181  if (Flag == true){... */\n      jump(tag_162)\n    tag_161:\n        /* \"ticket_booking/ticket_booking.sol\":5120:5161  Msg = \"Invalid Input ! Ticket Not Booked\" */\n      mload(0x40)\n      dup1\n      0x60\n      add\n      0x40\n      mstore\n      dup1\n      0x21\n      dup2\n      mstore\n      0x20\n      add\n      data_00adbcbc5d6e925a5f7e055e6002d9b9c3d0cb41fa5c0edb7c27e5ca70f69064\n      0x21\n      swap2\n      codecopy\n      swap3\n      pop\n        /* \"ticket_booking/ticket_booking.sol\":4975:5181  if (Flag == true){... */\n    tag_162:\n        /* \"ticket_booking/ticket_booking.sol\":4827:5192  {... */\n      pop\n        /* \"ticket_booking/ticket_booking.sol\":4756:5192  if (check == false){Msg = \" You are not the real Owner\";}... */\n    tag_158:\n        /* \"ticket_booking/ticket_booking.sol\":5209:5212  Msg */\n      dup2\n        /* \"ticket_booking/ticket_booking.sol\":5202:5212  return Msg */\n      swap3\n      pop\n      pop\n      pop\n        /* \"ticket_booking/ticket_booking.sol\":4478:5220  function Book_Cinema_Ticket(uint id, uint anonomus_id, Time Select_Time, Movie Select_Movie_Name, uint Select_Seat_Number, uint Select_No_Of_seats ) public  returns (string memory){... */\n      swap7\n      swap6\n      pop\n      pop\n      pop\n      pop\n      pop\n      pop\n      jump\t// out\n        /* \"ticket_booking/ticket_booking.sol\":3004:3739  function Book_Railway_Ticket(uint id, uint anonomus_id, Time Select_Time, Type Select_Type, uint Select_Seat_Number, uint Select_No_Of_seats ) public  returns (string memory){... */\n    tag_47:\n        /* \"ticket_booking/ticket_booking.sol\":3164:3177  string memory */\n      0x60\n        /* \"ticket_booking/ticket_booking.sol\":3189:3206  string memory Msg */\n      dup1\n        /* \"ticket_booking/ticket_booking.sol\":3217:3227  bool check */\n      0x00\n        /* \"ticket_booking/ticket_booking.sol\":3230:3263  Check_AnonomusID(id, anonomus_id) */\n      tag_164\n        /* \"ticket_booking/ticket_booking.sol\":3247:3249  id */\n      dup10\n        /* \"ticket_booking/ticket_booking.sol\":3251:3262  anonomus_id */\n      dup10\n        /* \"ticket_booking/ticket_booking.sol\":3230:3246  Check_AnonomusID */\n      tag_21\n        /* \"ticket_booking/ticket_booking.sol\":3230:3263  Check_AnonomusID(id, anonomus_id) */\n      jump\t// in\n    tag_164:\n        /* \"ticket_booking/ticket_booking.sol\":3217:3263  bool check = Check_AnonomusID(id, anonomus_id) */\n      swap1\n      pop\n        /* \"ticket_booking/ticket_booking.sol\":3289:3294  false */\n      0x00\n        /* \"ticket_booking/ticket_booking.sol\":3280:3294  check == false */\n      iszero\n      iszero\n        /* \"ticket_booking/ticket_booking.sol\":3280:3285  check */\n      dup2\n        /* \"ticket_booking/ticket_booking.sol\":3280:3294  check == false */\n      iszero\n      iszero\n      sub\n        /* \"ticket_booking/ticket_booking.sol\":3276:3711  if (check == false){Msg = \" You are not the real Owner\";}... */\n      tag_165\n      jumpi\n        /* \"ticket_booking/ticket_booking.sol\":3296:3331  Msg = \" You are not the real Owner\" */\n      mload(0x40)\n      dup1\n      0x40\n      add\n      0x40\n      mstore\n      dup1\n      0x1b\n      dup2\n      mstore\n      0x20\n      add\n      0x20596f7520617265206e6f7420746865207265616c204f776e65720000000000\n      dup2\n      mstore\n      pop\n      swap2\n      pop\n        /* \"ticket_booking/ticket_booking.sol\":3276:3711  if (check == false){Msg = \" You are not the real Owner\";}... */\n      jump(tag_166)\n    tag_165:\n        /* \"ticket_booking/ticket_booking.sol\":3370:3379  bool Flag */\n      0x00\n        /* \"ticket_booking/ticket_booking.sol\":3382:3471  Book_railway_Ticket(id, Select_Time, Select_Type, Select_Seat_Number, Select_No_Of_seats) */\n      tag_167\n        /* \"ticket_booking/ticket_booking.sol\":3402:3404  id */\n      dup11\n        /* \"ticket_booking/ticket_booking.sol\":3406:3417  Select_Time */\n      dup10\n        /* \"ticket_booking/ticket_booking.sol\":3419:3430  Select_Type */\n      dup10\n        /* \"ticket_booking/ticket_booking.sol\":3432:3450  Select_Seat_Number */\n      dup10\n        /* \"ticket_booking/ticket_booking.sol\":3452:3470  Select_No_Of_seats */\n      dup10\n        /* \"ticket_booking/ticket_booking.sol\":3382:3401  Book_railway_Ticket */\n      tag_168\n        /* \"ticket_booking/ticket_booking.sol\":3382:3471  Book_railway_Ticket(id, Select_Time, Select_Type, Select_Seat_Number, Select_No_Of_seats) */\n      jump\t// in\n    tag_167:\n        /* \"ticket_booking/ticket_booking.sol\":3370:3471  bool Flag = Book_railway_Ticket(id, Select_Time, Select_Type, Select_Seat_Number, Select_No_Of_seats) */\n      swap1\n      pop\n        /* \"ticket_booking/ticket_booking.sol\":3502:3506  true */\n      0x01\n        /* \"ticket_booking/ticket_booking.sol\":3494:3506  Flag == true */\n      iszero\n      iszero\n        /* \"ticket_booking/ticket_booking.sol\":3494:3498  Flag */\n      dup2\n        /* \"ticket_booking/ticket_booking.sol\":3494:3506  Flag == true */\n      iszero\n      iszero\n      sub\n        /* \"ticket_booking/ticket_booking.sol\":3490:3700  if (Flag == true){... */\n      tag_169\n      jumpi\n        /* \"ticket_booking/ticket_booking.sol\":3530:3572  Msg = \"Railway Ticket Booked Successfully\" */\n      mload(0x40)\n      dup1\n      0x60\n      add\n      0x40\n      mstore\n      dup1\n      0x22\n      dup2\n      mstore\n      0x20\n      add\n      data_e79c8ad33dfd4541795cb03dd58fe1b66da077c35c3bddf13ef222b96f63fc32\n      0x22\n      swap2\n      codecopy\n      swap3\n      pop\n        /* \"ticket_booking/ticket_booking.sol\":3490:3700  if (Flag == true){... */\n      jump(tag_170)\n    tag_169:\n        /* \"ticket_booking/ticket_booking.sol\":3639:3680  Msg = \"Invalid Input ! Ticket Not Booked\" */\n      mload(0x40)\n      dup1\n      0x60\n      add\n      0x40\n      mstore\n      dup1\n      0x21\n      dup2\n      mstore\n      0x20\n      add\n      data_00adbcbc5d6e925a5f7e055e6002d9b9c3d0cb41fa5c0edb7c27e5ca70f69064\n      0x21\n      swap2\n      codecopy\n      swap3\n      pop\n        /* \"ticket_booking/ticket_booking.sol\":3490:3700  if (Flag == true){... */\n    tag_170:\n        /* \"ticket_booking/ticket_booking.sol\":3347:3711  {... */\n      pop\n        /* \"ticket_booking/ticket_booking.sol\":3276:3711  if (check == false){Msg = \" You are not the real Owner\";}... */\n    tag_166:\n        /* \"ticket_booking/ticket_booking.sol\":3728:3731  Msg */\n      dup2\n        /* \"ticket_booking/ticket_booking.sol\":3721:3731  return Msg */\n      swap3\n      pop\n      pop\n      pop\n        /* \"ticket_booking/ticket_booking.sol\":3004:3739  function Book_Railway_Ticket(uint id, uint anonomus_id, Time Select_Time, Type Select_Type, uint Select_Seat_Number, uint Select_No_Of_seats ) public  returns (string memory){... */\n      swap7\n      swap6\n      pop\n      pop\n      pop\n      pop\n      pop\n      pop\n      jump\t// out\n        /* \"ticket_booking/ticket_booking.sol\":3747:4470  function Book_Bus_Ticket(uint id, uint anonomus_id, Time Select_Time, Type Select_Type, uint Select_Seat_Number, uint Select_No_Of_seats ) public  returns (string memory){... */\n    tag_51:\n        /* \"ticket_booking/ticket_booking.sol\":3903:3916  string memory */\n      0x60\n        /* \"ticket_booking/ticket_booking.sol\":3928:3945  string memory Msg */\n      dup1\n        /* \"ticket_booking/ticket_booking.sol\":3956:3966  bool check */\n      0x00\n        /* \"ticket_booking/ticket_booking.sol\":3969:4002  Check_AnonomusID(id, anonomus_id) */\n      tag_172\n        /* \"ticket_booking/ticket_booking.sol\":3986:3988  id */\n      dup10\n        /* \"ticket_booking/ticket_booking.sol\":3990:4001  anonomus_id */\n      dup10\n        /* \"ticket_booking/ticket_booking.sol\":3969:3985  Check_AnonomusID */\n      tag_21\n        /* \"ticket_booking/ticket_booking.sol\":3969:4002  Check_AnonomusID(id, anonomus_id) */\n      jump\t// in\n    tag_172:\n        /* \"ticket_booking/ticket_booking.sol\":3956:4002  bool check = Check_AnonomusID(id, anonomus_id) */\n      swap1\n      pop\n        /* \"ticket_booking/ticket_booking.sol\":4028:4033  false */\n      0x00\n        /* \"ticket_booking/ticket_booking.sol\":4019:4033  check == false */\n      iszero\n      iszero\n        /* \"ticket_booking/ticket_booking.sol\":4019:4024  check */\n      dup2\n        /* \"ticket_booking/ticket_booking.sol\":4019:4033  check == false */\n      iszero\n      iszero\n      sub\n        /* \"ticket_booking/ticket_booking.sol\":4015:4442  if (check == false){Msg = \" You are not the real Owner\";}... */\n      tag_173\n      jumpi\n        /* \"ticket_booking/ticket_booking.sol\":4035:4070  Msg = \" You are not the real Owner\" */\n      mload(0x40)\n      dup1\n      0x40\n      add\n      0x40\n      mstore\n      dup1\n      0x1b\n      dup2\n      mstore\n      0x20\n      add\n      0x20596f7520617265206e6f7420746865207265616c204f776e65720000000000\n      dup2\n      mstore\n      pop\n      swap2\n      pop\n        /* \"ticket_booking/ticket_booking.sol\":4015:4442  if (check == false){Msg = \" You are not the real Owner\";}... */\n      jump(tag_174)\n    tag_173:\n        /* \"ticket_booking/ticket_booking.sol\":4109:4118  bool Flag */\n      0x00\n        /* \"ticket_booking/ticket_booking.sol\":4121:4206  Book_bus_Ticket(id, Select_Time, Select_Type, Select_Seat_Number, Select_No_Of_seats) */\n      tag_175\n        /* \"ticket_booking/ticket_booking.sol\":4137:4139  id */\n      dup11\n        /* \"ticket_booking/ticket_booking.sol\":4141:4152  Select_Time */\n      dup10\n        /* \"ticket_booking/ticket_booking.sol\":4154:4165  Select_Type */\n      dup10\n        /* \"ticket_booking/ticket_booking.sol\":4167:4185  Select_Seat_Number */\n      dup10\n        /* \"ticket_booking/ticket_booking.sol\":4187:4205  Select_No_Of_seats */\n      dup10\n        /* \"ticket_booking/ticket_booking.sol\":4121:4136  Book_bus_Ticket */\n      tag_176\n        /* \"ticket_booking/ticket_booking.sol\":4121:4206  Book_bus_Ticket(id, Select_Time, Select_Type, Select_Seat_Number, Select_No_Of_seats) */\n      jump\t// in\n    tag_175:\n        /* \"ticket_booking/ticket_booking.sol\":4109:4206  bool Flag = Book_bus_Ticket(id, Select_Time, Select_Type, Select_Seat_Number, Select_No_Of_seats) */\n      swap1\n      pop\n        /* \"ticket_booking/ticket_booking.sol\":4237:4241  true */\n      0x01\n        /* \"ticket_booking/ticket_booking.sol\":4229:4241  Flag == true */\n      iszero\n      iszero\n        /* \"ticket_booking/ticket_booking.sol\":4229:4233  Flag */\n      dup2\n        /* \"ticket_booking/ticket_booking.sol\":4229:4241  Flag == true */\n      iszero\n      iszero\n      sub\n        /* \"ticket_booking/ticket_booking.sol\":4225:4431  if (Flag == true){... */\n      tag_177\n      jumpi\n        /* \"ticket_booking/ticket_booking.sol\":4265:4303  Msg = \"Bus Ticket Booked Successfully\" */\n      mload(0x40)\n      dup1\n      0x40\n      add\n      0x40\n      mstore\n      dup1\n      0x1e\n      dup2\n      mstore\n      0x20\n      add\n      0x427573205469636b657420426f6f6b6564205375636365737366756c6c790000\n      dup2\n      mstore\n      pop\n      swap3\n      pop\n        /* \"ticket_booking/ticket_booking.sol\":4225:4431  if (Flag == true){... */\n      jump(tag_178)\n    tag_177:\n        /* \"ticket_booking/ticket_booking.sol\":4370:4411  Msg = \"Invalid Input ! Ticket Not Booked\" */\n      mload(0x40)\n      dup1\n      0x60\n      add\n      0x40\n      mstore\n      dup1\n      0x21\n      dup2\n      mstore\n      0x20\n      add\n      data_00adbcbc5d6e925a5f7e055e6002d9b9c3d0cb41fa5c0edb7c27e5ca70f69064\n      0x21\n      swap2\n      codecopy\n      swap3\n      pop\n        /* \"ticket_booking/ticket_booking.sol\":4225:4431  if (Flag == true){... */\n    tag_178:\n        /* \"ticket_booking/ticket_booking.sol\":4086:4442  {... */\n      pop\n        /* \"ticket_booking/ticket_booking.sol\":4015:4442  if (check == false){Msg = \" You are not the real Owner\";}... */\n    tag_174:\n        /* \"ticket_booking/ticket_booking.sol\":4459:4462  Msg */\n      dup2\n        /* \"ticket_booking/ticket_booking.sol\":4452:4462  return Msg */\n      swap3\n      pop\n      pop\n      pop\n        /* \"ticket_booking/ticket_booking.sol\":3747:4470  function Book_Bus_Ticket(uint id, uint anonomus_id, Time Select_Time, Type Select_Type, uint Select_Seat_Number, uint Select_No_Of_seats ) public  returns (string memory){... */\n      swap7\n      swap6\n      pop\n      pop\n      pop\n      pop\n      pop\n      pop\n      jump\t// out\n        /* \"ticket_booking/ticket_booking.sol\":8652:9252  function Book_cricket_Ticket(uint id, Date dates, Type typE, uint Seat_NO, uint NO_Seats) private returns (bool a ){... */\n    tag_144:\n        /* \"ticket_booking/ticket_booking.sol\":8759:8765  bool a */\n      0x00\n        /* \"ticket_booking/ticket_booking.sol\":8786:8800  Date.First_Day */\n      dup1\n        /* \"ticket_booking/ticket_booking.sol\":8777:8800  dates != Date.First_Day */\n      0x02\n      dup2\n      gt\n      iszero\n      tag_180\n      jumpi\n      tag_181\n      tag_100\n      jump\t// in\n    tag_181:\n    tag_180:\n        /* \"ticket_booking/ticket_booking.sol\":8777:8782  dates */\n      dup6\n        /* \"ticket_booking/ticket_booking.sol\":8777:8800  dates != Date.First_Day */\n      0x02\n      dup2\n      gt\n      iszero\n      tag_182\n      jumpi\n      tag_183\n      tag_100\n      jump\t// in\n    tag_183:\n    tag_182:\n      eq\n      iszero\n        /* \"ticket_booking/ticket_booking.sol\":8777:8828  dates != Date.First_Day && dates != Date.Second_Day */\n      dup1\n      iszero\n      tag_184\n      jumpi\n      pop\n        /* \"ticket_booking/ticket_booking.sol\":8813:8828  Date.Second_Day */\n      0x01\n        /* \"ticket_booking/ticket_booking.sol\":8804:8828  dates != Date.Second_Day */\n      0x02\n      dup2\n      gt\n      iszero\n      tag_185\n      jumpi\n      tag_186\n      tag_100\n      jump\t// in\n    tag_186:\n    tag_185:\n        /* \"ticket_booking/ticket_booking.sol\":8804:8809  dates */\n      dup6\n        /* \"ticket_booking/ticket_booking.sol\":8804:8828  dates != Date.Second_Day */\n      0x02\n      dup2\n      gt\n      iszero\n      tag_187\n      jumpi\n      tag_188\n      tag_100\n      jump\t// in\n    tag_188:\n    tag_187:\n      eq\n      iszero\n        /* \"ticket_booking/ticket_booking.sol\":8777:8828  dates != Date.First_Day && dates != Date.Second_Day */\n    tag_184:\n        /* \"ticket_booking/ticket_booking.sol\":8777:8854  dates != Date.First_Day && dates != Date.Second_Day && dates != Date.Last_Day */\n      dup1\n      iszero\n      tag_189\n      jumpi\n      pop\n        /* \"ticket_booking/ticket_booking.sol\":8841:8854  Date.Last_Day */\n      0x02\n        /* \"ticket_booking/ticket_booking.sol\":8832:8854  dates != Date.Last_Day */\n      dup1\n      dup2\n      gt\n      iszero\n      tag_190\n      jumpi\n      tag_191\n      tag_100\n      jump\t// in\n    tag_191:\n    tag_190:\n        /* \"ticket_booking/ticket_booking.sol\":8832:8837  dates */\n      dup6\n        /* \"ticket_booking/ticket_booking.sol\":8832:8854  dates != Date.Last_Day */\n      0x02\n      dup2\n      gt\n      iszero\n      tag_192\n      jumpi\n      tag_193\n      tag_100\n      jump\t// in\n    tag_193:\n    tag_192:\n      eq\n      iszero\n        /* \"ticket_booking/ticket_booking.sol\":8777:8854  dates != Date.First_Day && dates != Date.Second_Day && dates != Date.Last_Day */\n    tag_189:\n        /* \"ticket_booking/ticket_booking.sol\":8774:9245  if(dates != Date.First_Day && dates != Date.Second_Day && dates != Date.Last_Day){... */\n      iszero\n      tag_194\n      jumpi\n        /* \"ticket_booking/ticket_booking.sol\":8873:8878  false */\n      0x00\n        /* \"ticket_booking/ticket_booking.sol\":8866:8878  return false */\n      swap1\n      pop\n      jump(tag_179)\n        /* \"ticket_booking/ticket_booking.sol\":8774:9245  if(dates != Date.First_Day && dates != Date.Second_Day && dates != Date.Last_Day){... */\n    tag_194:\n        /* \"ticket_booking/ticket_booking.sol\":8902:8918  Type.First_Class */\n      0x00\n        /* \"ticket_booking/ticket_booking.sol\":8894:8918  typE != Type.First_Class */\n      0x02\n      dup2\n      gt\n      iszero\n      tag_196\n      jumpi\n      tag_197\n      tag_100\n      jump\t// in\n    tag_197:\n    tag_196:\n        /* \"ticket_booking/ticket_booking.sol\":8894:8898  typE */\n      dup5\n        /* \"ticket_booking/ticket_booking.sol\":8894:8918  typE != Type.First_Class */\n      0x02\n      dup2\n      gt\n      iszero\n      tag_198\n      jumpi\n      tag_199\n      tag_100\n      jump\t// in\n    tag_199:\n    tag_198:\n      eq\n      iszero\n        /* \"ticket_booking/ticket_booking.sol\":8894:8949  typE != Type.First_Class && typE != Type.Business_Class */\n      dup1\n      iszero\n      tag_200\n      jumpi\n      pop\n        /* \"ticket_booking/ticket_booking.sol\":8930:8949  Type.Business_Class */\n      0x01\n        /* \"ticket_booking/ticket_booking.sol\":8922:8949  typE != Type.Business_Class */\n      0x02\n      dup2\n      gt\n      iszero\n      tag_201\n      jumpi\n      tag_202\n      tag_100\n      jump\t// in\n    tag_202:\n    tag_201:\n        /* \"ticket_booking/ticket_booking.sol\":8922:8926  typE */\n      dup5\n        /* \"ticket_booking/ticket_booking.sol\":8922:8949  typE != Type.Business_Class */\n      0x02\n      dup2\n      gt\n      iszero\n      tag_203\n      jumpi\n      tag_204\n      tag_100\n      jump\t// in\n    tag_204:\n    tag_203:\n      eq\n      iszero\n        /* \"ticket_booking/ticket_booking.sol\":8894:8949  typE != Type.First_Class && typE != Type.Business_Class */\n    tag_200:\n        /* \"ticket_booking/ticket_booking.sol\":8894:8979  typE != Type.First_Class && typE != Type.Business_Class && typE != Type.Economy_Class */\n      dup1\n      iszero\n      tag_205\n      jumpi\n      pop\n        /* \"ticket_booking/ticket_booking.sol\":8961:8979  Type.Economy_Class */\n      0x02\n        /* \"ticket_booking/ticket_booking.sol\":8953:8979  typE != Type.Economy_Class */\n      dup1\n      dup2\n      gt\n      iszero\n      tag_206\n      jumpi\n      tag_207\n      tag_100\n      jump\t// in\n    tag_207:\n    tag_206:\n        /* \"ticket_booking/ticket_booking.sol\":8953:8957  typE */\n      dup5\n        /* \"ticket_booking/ticket_booking.sol\":8953:8979  typE != Type.Economy_Class */\n      0x02\n      dup2\n      gt\n      iszero\n      tag_208\n      jumpi\n      tag_209\n      tag_100\n      jump\t// in\n    tag_209:\n    tag_208:\n      eq\n      iszero\n        /* \"ticket_booking/ticket_booking.sol\":8894:8979  typE != Type.First_Class && typE != Type.Business_Class && typE != Type.Economy_Class */\n    tag_205:\n        /* \"ticket_booking/ticket_booking.sol\":8891:9245  if(typE != Type.First_Class && typE != Type.Business_Class && typE != Type.Economy_Class){... */\n      iszero\n      tag_210\n      jumpi\n        /* \"ticket_booking/ticket_booking.sol\":8998:9003  false */\n      0x00\n        /* \"ticket_booking/ticket_booking.sol\":8991:9003  return false */\n      swap1\n      pop\n      jump(tag_179)\n        /* \"ticket_booking/ticket_booking.sol\":8891:9245  if(typE != Type.First_Class && typE != Type.Business_Class && typE != Type.Economy_Class){... */\n    tag_210:\n        /* \"ticket_booking/ticket_booking.sol\":9058:9063  dates */\n      dup5\n        /* \"ticket_booking/ticket_booking.sol\":9025:9031  client */\n      0x01\n        /* \"ticket_booking/ticket_booking.sol\":9032:9034  id */\n      dup8\n        /* \"ticket_booking/ticket_booking.sol\":9025:9035  client[id] */\n      dup2\n      sload\n      dup2\n      lt\n      tag_212\n      jumpi\n      tag_213\n      tag_56\n      jump\t// in\n    tag_213:\n    tag_212:\n      swap1\n      0x00\n      mstore\n      keccak256(0x00, 0x20)\n      swap1\n      0x14\n      mul\n      add\n        /* \"ticket_booking/ticket_booking.sol\":9025:9050  client[id].cricket_ticket */\n      0x0e\n      add\n        /* \"ticket_booking/ticket_booking.sol\":9025:9055  client[id].cricket_ticket.date */\n      0x00\n      add\n      0x00\n        /* \"ticket_booking/ticket_booking.sol\":9025:9063  client[id].cricket_ticket.date = dates */\n      0x0100\n      exp\n      dup2\n      sload\n      dup2\n      0xff\n      mul\n      not\n      and\n      swap1\n      dup4\n      0x02\n      dup2\n      gt\n      iszero\n      tag_215\n      jumpi\n      tag_216\n      tag_100\n      jump\t// in\n    tag_216:\n    tag_215:\n      mul\n      or\n      swap1\n      sstore\n      pop\n        /* \"ticket_booking/ticket_booking.sol\":9104:9108  typE */\n      dup4\n        /* \"ticket_booking/ticket_booking.sol\":9070:9076  client */\n      0x01\n        /* \"ticket_booking/ticket_booking.sol\":9077:9079  id */\n      dup8\n        /* \"ticket_booking/ticket_booking.sol\":9070:9080  client[id] */\n      dup2\n      sload\n      dup2\n      lt\n      tag_217\n      jumpi\n      tag_218\n      tag_56\n      jump\t// in\n    tag_218:\n    tag_217:\n      swap1\n      0x00\n      mstore\n      keccak256(0x00, 0x20)\n      swap1\n      0x14\n      mul\n      add\n        /* \"ticket_booking/ticket_booking.sol\":9070:9095  client[id].cricket_ticket */\n      0x0e\n      add\n        /* \"ticket_booking/ticket_booking.sol\":9070:9101  client[id].cricket_ticket.types */\n      0x00\n      add\n      0x01\n        /* \"ticket_booking/ticket_booking.sol\":9070:9108  client[id].cricket_ticket.types = typE */\n      0x0100\n      exp\n      dup2\n      sload\n      dup2\n      0xff\n      mul\n      not\n      and\n      swap1\n      dup4\n      0x02\n      dup2\n      gt\n      iszero\n      tag_220\n      jumpi\n      tag_221\n      tag_100\n      jump\t// in\n    tag_221:\n    tag_220:\n      mul\n      or\n      swap1\n      sstore\n      pop\n        /* \"ticket_booking/ticket_booking.sol\":9155:9162  Seat_NO */\n      dup3\n        /* \"ticket_booking/ticket_booking.sol\":9115:9121  client */\n      0x01\n        /* \"ticket_booking/ticket_booking.sol\":9122:9124  id */\n      dup8\n        /* \"ticket_booking/ticket_booking.sol\":9115:9125  client[id] */\n      dup2\n      sload\n      dup2\n      lt\n      tag_222\n      jumpi\n      tag_223\n      tag_56\n      jump\t// in\n    tag_223:\n    tag_222:\n      swap1\n      0x00\n      mstore\n      keccak256(0x00, 0x20)\n      swap1\n      0x14\n      mul\n      add\n        /* \"ticket_booking/ticket_booking.sol\":9115:9140  client[id].cricket_ticket */\n      0x0e\n      add\n        /* \"ticket_booking/ticket_booking.sol\":9115:9152  client[id].cricket_ticket.Seat_Number */\n      0x01\n      add\n        /* \"ticket_booking/ticket_booking.sol\":9115:9162  client[id].cricket_ticket.Seat_Number = Seat_NO */\n      dup2\n      swap1\n      sstore\n      pop\n        /* \"ticket_booking/ticket_booking.sol\":9209:9217  NO_Seats */\n      dup2\n        /* \"ticket_booking/ticket_booking.sol\":9169:9175  client */\n      0x01\n        /* \"ticket_booking/ticket_booking.sol\":9176:9178  id */\n      dup8\n        /* \"ticket_booking/ticket_booking.sol\":9169:9179  client[id] */\n      dup2\n      sload\n      dup2\n      lt\n      tag_225\n      jumpi\n      tag_226\n      tag_56\n      jump\t// in\n    tag_226:\n    tag_225:\n      swap1\n      0x00\n      mstore\n      keccak256(0x00, 0x20)\n      swap1\n      0x14\n      mul\n      add\n        /* \"ticket_booking/ticket_booking.sol\":9169:9194  client[id].cricket_ticket */\n      0x0e\n      add\n        /* \"ticket_booking/ticket_booking.sol\":9169:9207  client[id].cricket_ticket.Book_n_Seats */\n      0x02\n      add\n        /* \"ticket_booking/ticket_booking.sol\":9169:9217  client[id].cricket_ticket.Book_n_Seats= NO_Seats */\n      dup2\n      swap1\n      sstore\n      pop\n        /* \"ticket_booking/ticket_booking.sol\":9231:9235  true */\n      0x01\n        /* \"ticket_booking/ticket_booking.sol\":9224:9235  return true */\n      swap1\n      pop\n        /* \"ticket_booking/ticket_booking.sol\":8652:9252  function Book_cricket_Ticket(uint id, Date dates, Type typE, uint Seat_NO, uint NO_Seats) private returns (bool a ){... */\n    tag_179:\n      swap6\n      swap5\n      pop\n      pop\n      pop\n      pop\n      pop\n      jump\t// out\n        /* \"ticket_booking/ticket_booking.sol\":6650:7256  function Book_airLine_Ticket(uint id, Time timE, Type typE, uint Seat_NO, uint NO_Seats) private returns (bool a ){... */\n    tag_152:\n        /* \"ticket_booking/ticket_booking.sol\":6756:6762  bool a */\n      0x00\n        /* \"ticket_booking/ticket_booking.sol\":6782:6794  Time.Morning */\n      dup1\n        /* \"ticket_booking/ticket_booking.sol\":6774:6794  timE != Time.Morning */\n      0x02\n      dup2\n      gt\n      iszero\n      tag_229\n      jumpi\n      tag_230\n      tag_100\n      jump\t// in\n    tag_230:\n    tag_229:\n        /* \"ticket_booking/ticket_booking.sol\":6774:6778  timE */\n      dup6\n        /* \"ticket_booking/ticket_booking.sol\":6774:6794  timE != Time.Morning */\n      0x02\n      dup2\n      gt\n      iszero\n      tag_231\n      jumpi\n      tag_232\n      tag_100\n      jump\t// in\n    tag_232:\n    tag_231:\n      eq\n      iszero\n        /* \"ticket_booking/ticket_booking.sol\":6774:6820  timE != Time.Morning && timE != Time.Afternoon */\n      dup1\n      iszero\n      tag_233\n      jumpi\n      pop\n        /* \"ticket_booking/ticket_booking.sol\":6806:6820  Time.Afternoon */\n      0x01\n        /* \"ticket_booking/ticket_booking.sol\":6798:6820  timE != Time.Afternoon */\n      0x02\n      dup2\n      gt\n      iszero\n      tag_234\n      jumpi\n      tag_235\n      tag_100\n      jump\t// in\n    tag_235:\n    tag_234:\n        /* \"ticket_booking/ticket_booking.sol\":6798:6802  timE */\n      dup6\n        /* \"ticket_booking/ticket_booking.sol\":6798:6820  timE != Time.Afternoon */\n      0x02\n      dup2\n      gt\n      iszero\n      tag_236\n      jumpi\n      tag_237\n      tag_100\n      jump\t// in\n    tag_237:\n    tag_236:\n      eq\n      iszero\n        /* \"ticket_booking/ticket_booking.sol\":6774:6820  timE != Time.Morning && timE != Time.Afternoon */\n    tag_233:\n        /* \"ticket_booking/ticket_booking.sol\":6774:6844  timE != Time.Morning && timE != Time.Afternoon && timE != Time.Evening */\n      dup1\n      iszero\n      tag_238\n      jumpi\n      pop\n        /* \"ticket_booking/ticket_booking.sol\":6832:6844  Time.Evening */\n      0x02\n        /* \"ticket_booking/ticket_booking.sol\":6824:6844  timE != Time.Evening */\n      dup1\n      dup2\n      gt\n      iszero\n      tag_239\n      jumpi\n      tag_240\n      tag_100\n      jump\t// in\n    tag_240:\n    tag_239:\n        /* \"ticket_booking/ticket_booking.sol\":6824:6828  timE */\n      dup6\n        /* \"ticket_booking/ticket_booking.sol\":6824:6844  timE != Time.Evening */\n      0x02\n      dup2\n      gt\n      iszero\n      tag_241\n      jumpi\n      tag_242\n      tag_100\n      jump\t// in\n    tag_242:\n    tag_241:\n      eq\n      iszero\n        /* \"ticket_booking/ticket_booking.sol\":6774:6844  timE != Time.Morning && timE != Time.Afternoon && timE != Time.Evening */\n    tag_238:\n        /* \"ticket_booking/ticket_booking.sol\":6771:7249  if(timE != Time.Morning && timE != Time.Afternoon && timE != Time.Evening){... */\n      iszero\n      tag_243\n      jumpi\n        /* \"ticket_booking/ticket_booking.sol\":6871:6876  false */\n      0x00\n        /* \"ticket_booking/ticket_booking.sol\":6864:6876  return false */\n      swap1\n      pop\n      jump(tag_228)\n        /* \"ticket_booking/ticket_booking.sol\":6771:7249  if(timE != Time.Morning && timE != Time.Afternoon && timE != Time.Evening){... */\n    tag_243:\n        /* \"ticket_booking/ticket_booking.sol\":6901:6917  Type.First_Class */\n      0x00\n        /* \"ticket_booking/ticket_booking.sol\":6893:6917  typE != Type.First_Class */\n      0x02\n      dup2\n      gt\n      iszero\n      tag_245\n      jumpi\n      tag_246\n      tag_100\n      jump\t// in\n    tag_246:\n    tag_245:\n        /* \"ticket_booking/ticket_booking.sol\":6893:6897  typE */\n      dup5\n        /* \"ticket_booking/ticket_booking.sol\":6893:6917  typE != Type.First_Class */\n      0x02\n      dup2\n      gt\n      iszero\n      tag_247\n      jumpi\n      tag_248\n      tag_100\n      jump\t// in\n    tag_248:\n    tag_247:\n      eq\n      iszero\n        /* \"ticket_booking/ticket_booking.sol\":6893:6948  typE != Type.First_Class && typE != Type.Business_Class */\n      dup1\n      iszero\n      tag_249\n      jumpi\n      pop\n        /* \"ticket_booking/ticket_booking.sol\":6929:6948  Type.Business_Class */\n      0x01\n        /* \"ticket_booking/ticket_booking.sol\":6921:6948  typE != Type.Business_Class */\n      0x02\n      dup2\n      gt\n      iszero\n      tag_250\n      jumpi\n      tag_251\n      tag_100\n      jump\t// in\n    tag_251:\n    tag_250:\n        /* \"ticket_booking/ticket_booking.sol\":6921:6925  typE */\n      dup5\n        /* \"ticket_booking/ticket_booking.sol\":6921:6948  typE != Type.Business_Class */\n      0x02\n      dup2\n      gt\n      iszero\n      tag_252\n      jumpi\n      tag_253\n      tag_100\n      jump\t// in\n    tag_253:\n    tag_252:\n      eq\n      iszero\n        /* \"ticket_booking/ticket_booking.sol\":6893:6948  typE != Type.First_Class && typE != Type.Business_Class */\n    tag_249:\n        /* \"ticket_booking/ticket_booking.sol\":6893:6978  typE != Type.First_Class && typE != Type.Business_Class && typE != Type.Economy_Class */\n      dup1\n      iszero\n      tag_254\n      jumpi\n      pop\n        /* \"ticket_booking/ticket_booking.sol\":6960:6978  Type.Economy_Class */\n      0x02\n        /* \"ticket_booking/ticket_booking.sol\":6952:6978  typE != Type.Economy_Class */\n      dup1\n      dup2\n      gt\n      iszero\n      tag_255\n      jumpi\n      tag_256\n      tag_100\n      jump\t// in\n    tag_256:\n    tag_255:\n        /* \"ticket_booking/ticket_booking.sol\":6952:6956  typE */\n      dup5\n        /* \"ticket_booking/ticket_booking.sol\":6952:6978  typE != Type.Economy_Class */\n      0x02\n      dup2\n      gt\n      iszero\n      tag_257\n      jumpi\n      tag_258\n      tag_100\n      jump\t// in\n    tag_258:\n    tag_257:\n      eq\n      iszero\n        /* \"ticket_booking/ticket_booking.sol\":6893:6978  typE != Type.First_Class && typE != Type.Business_Class && typE != Type.Economy_Class */\n    tag_254:\n        /* \"ticket_booking/ticket_booking.sol\":6889:7249  if( typE != Type.First_Class && typE != Type.Business_Class && typE != Type.Economy_Class){... */\n      iszero\n      tag_259\n      jumpi\n        /* \"ticket_booking/ticket_booking.sol\":7005:7010  false */\n      0x00\n        /* \"ticket_booking/ticket_booking.sol\":6998:7010  return false */\n      swap1\n      pop\n      jump(tag_228)\n        /* \"ticket_booking/ticket_booking.sol\":6889:7249  if( typE != Type.First_Class && typE != Type.Business_Class && typE != Type.Economy_Class){... */\n    tag_259:\n        /* \"ticket_booking/ticket_booking.sol\":7062:7066  timE */\n      dup5\n        /* \"ticket_booking/ticket_booking.sol\":7029:7035  client */\n      0x01\n        /* \"ticket_booking/ticket_booking.sol\":7036:7038  id */\n      dup8\n        /* \"ticket_booking/ticket_booking.sol\":7029:7039  client[id] */\n      dup2\n      sload\n      dup2\n      lt\n      tag_261\n      jumpi\n      tag_262\n      tag_56\n      jump\t// in\n    tag_262:\n    tag_261:\n      swap1\n      0x00\n      mstore\n      keccak256(0x00, 0x20)\n      swap1\n      0x14\n      mul\n      add\n        /* \"ticket_booking/ticket_booking.sol\":7029:7054  client[id].airLine_ticket */\n      0x08\n      add\n        /* \"ticket_booking/ticket_booking.sol\":7029:7059  client[id].airLine_ticket.time */\n      0x00\n      add\n      0x00\n        /* \"ticket_booking/ticket_booking.sol\":7029:7066  client[id].airLine_ticket.time = timE */\n      0x0100\n      exp\n      dup2\n      sload\n      dup2\n      0xff\n      mul\n      not\n      and\n      swap1\n      dup4\n      0x02\n      dup2\n      gt\n      iszero\n      tag_264\n      jumpi\n      tag_265\n      tag_100\n      jump\t// in\n    tag_265:\n    tag_264:\n      mul\n      or\n      swap1\n      sstore\n      pop\n        /* \"ticket_booking/ticket_booking.sol\":7107:7111  typE */\n      dup4\n        /* \"ticket_booking/ticket_booking.sol\":7073:7079  client */\n      0x01\n        /* \"ticket_booking/ticket_booking.sol\":7080:7082  id */\n      dup8\n        /* \"ticket_booking/ticket_booking.sol\":7073:7083  client[id] */\n      dup2\n      sload\n      dup2\n      lt\n      tag_266\n      jumpi\n      tag_267\n      tag_56\n      jump\t// in\n    tag_267:\n    tag_266:\n      swap1\n      0x00\n      mstore\n      keccak256(0x00, 0x20)\n      swap1\n      0x14\n      mul\n      add\n        /* \"ticket_booking/ticket_booking.sol\":7073:7098  client[id].airLine_ticket */\n      0x08\n      add\n        /* \"ticket_booking/ticket_booking.sol\":7073:7104  client[id].airLine_ticket.types */\n      0x00\n      add\n      0x01\n        /* \"ticket_booking/ticket_booking.sol\":7073:7111  client[id].airLine_ticket.types = typE */\n      0x0100\n      exp\n      dup2\n      sload\n      dup2\n      0xff\n      mul\n      not\n      and\n      swap1\n      dup4\n      0x02\n      dup2\n      gt\n      iszero\n      tag_269\n      jumpi\n      tag_270\n      tag_100\n      jump\t// in\n    tag_270:\n    tag_269:\n      mul\n      or\n      swap1\n      sstore\n      pop\n        /* \"ticket_booking/ticket_booking.sol\":7158:7165  Seat_NO */\n      dup3\n        /* \"ticket_booking/ticket_booking.sol\":7118:7124  client */\n      0x01\n        /* \"ticket_booking/ticket_booking.sol\":7125:7127  id */\n      dup8\n        /* \"ticket_booking/ticket_booking.sol\":7118:7128  client[id] */\n      dup2\n      sload\n      dup2\n      lt\n      tag_271\n      jumpi\n      tag_272\n      tag_56\n      jump\t// in\n    tag_272:\n    tag_271:\n      swap1\n      0x00\n      mstore\n      keccak256(0x00, 0x20)\n      swap1\n      0x14\n      mul\n      add\n        /* \"ticket_booking/ticket_booking.sol\":7118:7143  client[id].airLine_ticket */\n      0x08\n      add\n        /* \"ticket_booking/ticket_booking.sol\":7118:7155  client[id].airLine_ticket.Seat_Number */\n      0x01\n      add\n        /* \"ticket_booking/ticket_booking.sol\":7118:7165  client[id].airLine_ticket.Seat_Number = Seat_NO */\n      dup2\n      swap1\n      sstore\n      pop\n        /* \"ticket_booking/ticket_booking.sol\":7213:7221  NO_Seats */\n      dup2\n        /* \"ticket_booking/ticket_booking.sol\":7172:7178  client */\n      0x01\n        /* \"ticket_booking/ticket_booking.sol\":7179:7181  id */\n      dup8\n        /* \"ticket_booking/ticket_booking.sol\":7172:7182  client[id] */\n      dup2\n      sload\n      dup2\n      lt\n      tag_274\n      jumpi\n      tag_275\n      tag_56\n      jump\t// in\n    tag_275:\n    tag_274:\n      swap1\n      0x00\n      mstore\n      keccak256(0x00, 0x20)\n      swap1\n      0x14\n      mul\n      add\n        /* \"ticket_booking/ticket_booking.sol\":7172:7197  client[id].airLine_ticket */\n      0x08\n      add\n        /* \"ticket_booking/ticket_booking.sol\":7172:7210  client[id].airLine_ticket.Book_n_Seats */\n      0x02\n      add\n        /* \"ticket_booking/ticket_booking.sol\":7172:7221  client[id].airLine_ticket.Book_n_Seats = NO_Seats */\n      dup2\n      swap1\n      sstore\n      pop\n        /* \"ticket_booking/ticket_booking.sol\":7235:7239  true */\n      0x01\n        /* \"ticket_booking/ticket_booking.sol\":7228:7239  return true */\n      swap1\n      pop\n        /* \"ticket_booking/ticket_booking.sol\":6650:7256  function Book_airLine_Ticket(uint id, Time timE, Type typE, uint Seat_NO, uint NO_Seats) private returns (bool a ){... */\n    tag_228:\n      swap6\n      swap5\n      pop\n      pop\n      pop\n      pop\n      pop\n      jump\t// out\n        /* \"ticket_booking/ticket_booking.sol\":7978:8599  function Book_cinema_Ticket(uint id, Time timE, Movie Movie_name, uint Seat_NO, uint NO_Seats) private returns (bool a ){... */\n    tag_160:\n        /* \"ticket_booking/ticket_booking.sol\":8090:8096  bool a */\n      0x00\n        /* \"ticket_booking/ticket_booking.sol\":8116:8128  Time.Morning */\n      dup1\n        /* \"ticket_booking/ticket_booking.sol\":8108:8128  timE != Time.Morning */\n      0x02\n      dup2\n      gt\n      iszero\n      tag_278\n      jumpi\n      tag_279\n      tag_100\n      jump\t// in\n    tag_279:\n    tag_278:\n        /* \"ticket_booking/ticket_booking.sol\":8108:8112  timE */\n      dup6\n        /* \"ticket_booking/ticket_booking.sol\":8108:8128  timE != Time.Morning */\n      0x02\n      dup2\n      gt\n      iszero\n      tag_280\n      jumpi\n      tag_281\n      tag_100\n      jump\t// in\n    tag_281:\n    tag_280:\n      eq\n      iszero\n        /* \"ticket_booking/ticket_booking.sol\":8108:8154  timE != Time.Morning && timE != Time.Afternoon */\n      dup1\n      iszero\n      tag_282\n      jumpi\n      pop\n        /* \"ticket_booking/ticket_booking.sol\":8140:8154  Time.Afternoon */\n      0x01\n        /* \"ticket_booking/ticket_booking.sol\":8132:8154  timE != Time.Afternoon */\n      0x02\n      dup2\n      gt\n      iszero\n      tag_283\n      jumpi\n      tag_284\n      tag_100\n      jump\t// in\n    tag_284:\n    tag_283:\n        /* \"ticket_booking/ticket_booking.sol\":8132:8136  timE */\n      dup6\n        /* \"ticket_booking/ticket_booking.sol\":8132:8154  timE != Time.Afternoon */\n      0x02\n      dup2\n      gt\n      iszero\n      tag_285\n      jumpi\n      tag_286\n      tag_100\n      jump\t// in\n    tag_286:\n    tag_285:\n      eq\n      iszero\n        /* \"ticket_booking/ticket_booking.sol\":8108:8154  timE != Time.Morning && timE != Time.Afternoon */\n    tag_282:\n        /* \"ticket_booking/ticket_booking.sol\":8108:8178  timE != Time.Morning && timE != Time.Afternoon && timE != Time.Evening */\n      dup1\n      iszero\n      tag_287\n      jumpi\n      pop\n        /* \"ticket_booking/ticket_booking.sol\":8166:8178  Time.Evening */\n      0x02\n        /* \"ticket_booking/ticket_booking.sol\":8158:8178  timE != Time.Evening */\n      dup1\n      dup2\n      gt\n      iszero\n      tag_288\n      jumpi\n      tag_289\n      tag_100\n      jump\t// in\n    tag_289:\n    tag_288:\n        /* \"ticket_booking/ticket_booking.sol\":8158:8162  timE */\n      dup6\n        /* \"ticket_booking/ticket_booking.sol\":8158:8178  timE != Time.Evening */\n      0x02\n      dup2\n      gt\n      iszero\n      tag_290\n      jumpi\n      tag_291\n      tag_100\n      jump\t// in\n    tag_291:\n    tag_290:\n      eq\n      iszero\n        /* \"ticket_booking/ticket_booking.sol\":8108:8178  timE != Time.Morning && timE != Time.Afternoon && timE != Time.Evening */\n    tag_287:\n        /* \"ticket_booking/ticket_booking.sol\":8105:8592  if(timE != Time.Morning && timE != Time.Afternoon && timE != Time.Evening){... */\n      iszero\n      tag_292\n      jumpi\n        /* \"ticket_booking/ticket_booking.sol\":8205:8210  false */\n      0x00\n        /* \"ticket_booking/ticket_booking.sol\":8198:8210  return false */\n      swap1\n      pop\n      jump(tag_277)\n        /* \"ticket_booking/ticket_booking.sol\":8105:8592  if(timE != Time.Morning && timE != Time.Afternoon && timE != Time.Evening){... */\n    tag_292:\n        /* \"ticket_booking/ticket_booking.sol\":8241:8254  Movie.Movie_1 */\n      0x00\n        /* \"ticket_booking/ticket_booking.sol\":8227:8254  Movie_name != Movie.Movie_1 */\n      0x02\n      dup2\n      gt\n      iszero\n      tag_294\n      jumpi\n      tag_295\n      tag_100\n      jump\t// in\n    tag_295:\n    tag_294:\n        /* \"ticket_booking/ticket_booking.sol\":8227:8237  Movie_name */\n      dup5\n        /* \"ticket_booking/ticket_booking.sol\":8227:8254  Movie_name != Movie.Movie_1 */\n      0x02\n      dup2\n      gt\n      iszero\n      tag_296\n      jumpi\n      tag_297\n      tag_100\n      jump\t// in\n    tag_297:\n    tag_296:\n      eq\n      iszero\n        /* \"ticket_booking/ticket_booking.sol\":8227:8285  Movie_name != Movie.Movie_1 && Movie_name != Movie.Movie_2 */\n      dup1\n      iszero\n      tag_298\n      jumpi\n      pop\n        /* \"ticket_booking/ticket_booking.sol\":8272:8285  Movie.Movie_2 */\n      0x01\n        /* \"ticket_booking/ticket_booking.sol\":8258:8285  Movie_name != Movie.Movie_2 */\n      0x02\n      dup2\n      gt\n      iszero\n      tag_299\n      jumpi\n      tag_300\n      tag_100\n      jump\t// in\n    tag_300:\n    tag_299:\n        /* \"ticket_booking/ticket_booking.sol\":8258:8268  Movie_name */\n      dup5\n        /* \"ticket_booking/ticket_booking.sol\":8258:8285  Movie_name != Movie.Movie_2 */\n      0x02\n      dup2\n      gt\n      iszero\n      tag_301\n      jumpi\n      tag_302\n      tag_100\n      jump\t// in\n    tag_302:\n    tag_301:\n      eq\n      iszero\n        /* \"ticket_booking/ticket_booking.sol\":8227:8285  Movie_name != Movie.Movie_1 && Movie_name != Movie.Movie_2 */\n    tag_298:\n        /* \"ticket_booking/ticket_booking.sol\":8227:8316  Movie_name != Movie.Movie_1 && Movie_name != Movie.Movie_2 && Movie_name != Movie.Movie_3 */\n      dup1\n      iszero\n      tag_303\n      jumpi\n      pop\n        /* \"ticket_booking/ticket_booking.sol\":8303:8316  Movie.Movie_3 */\n      0x02\n        /* \"ticket_booking/ticket_booking.sol\":8289:8316  Movie_name != Movie.Movie_3 */\n      dup1\n      dup2\n      gt\n      iszero\n      tag_304\n      jumpi\n      tag_305\n      tag_100\n      jump\t// in\n    tag_305:\n    tag_304:\n        /* \"ticket_booking/ticket_booking.sol\":8289:8299  Movie_name */\n      dup5\n        /* \"ticket_booking/ticket_booking.sol\":8289:8316  Movie_name != Movie.Movie_3 */\n      0x02\n      dup2\n      gt\n      iszero\n      tag_306\n      jumpi\n      tag_307\n      tag_100\n      jump\t// in\n    tag_307:\n    tag_306:\n      eq\n      iszero\n        /* \"ticket_booking/ticket_booking.sol\":8227:8316  Movie_name != Movie.Movie_1 && Movie_name != Movie.Movie_2 && Movie_name != Movie.Movie_3 */\n    tag_303:\n        /* \"ticket_booking/ticket_booking.sol\":8223:8592  if( Movie_name != Movie.Movie_1 && Movie_name != Movie.Movie_2 && Movie_name != Movie.Movie_3){... */\n      iszero\n      tag_308\n      jumpi\n        /* \"ticket_booking/ticket_booking.sol\":8343:8348  false */\n      0x00\n        /* \"ticket_booking/ticket_booking.sol\":8336:8348  return false */\n      swap1\n      pop\n      jump(tag_277)\n        /* \"ticket_booking/ticket_booking.sol\":8223:8592  if( Movie_name != Movie.Movie_1 && Movie_name != Movie.Movie_2 && Movie_name != Movie.Movie_3){... */\n    tag_308:\n        /* \"ticket_booking/ticket_booking.sol\":8399:8403  timE */\n      dup5\n        /* \"ticket_booking/ticket_booking.sol\":8367:8373  client */\n      0x01\n        /* \"ticket_booking/ticket_booking.sol\":8374:8376  id */\n      dup8\n        /* \"ticket_booking/ticket_booking.sol\":8367:8377  client[id] */\n      dup2\n      sload\n      dup2\n      lt\n      tag_310\n      jumpi\n      tag_311\n      tag_56\n      jump\t// in\n    tag_311:\n    tag_310:\n      swap1\n      0x00\n      mstore\n      keccak256(0x00, 0x20)\n      swap1\n      0x14\n      mul\n      add\n        /* \"ticket_booking/ticket_booking.sol\":8367:8391  client[id].cinema_ticket */\n      0x0b\n      add\n        /* \"ticket_booking/ticket_booking.sol\":8367:8396  client[id].cinema_ticket.time */\n      0x00\n      add\n      0x00\n        /* \"ticket_booking/ticket_booking.sol\":8367:8403  client[id].cinema_ticket.time = timE */\n      0x0100\n      exp\n      dup2\n      sload\n      dup2\n      0xff\n      mul\n      not\n      and\n      swap1\n      dup4\n      0x02\n      dup2\n      gt\n      iszero\n      tag_313\n      jumpi\n      tag_314\n      tag_100\n      jump\t// in\n    tag_314:\n    tag_313:\n      mul\n      or\n      swap1\n      sstore\n      pop\n        /* \"ticket_booking/ticket_booking.sol\":8449:8459  Movie_name */\n      dup4\n        /* \"ticket_booking/ticket_booking.sol\":8410:8416  client */\n      0x01\n        /* \"ticket_booking/ticket_booking.sol\":8417:8419  id */\n      dup8\n        /* \"ticket_booking/ticket_booking.sol\":8410:8420  client[id] */\n      dup2\n      sload\n      dup2\n      lt\n      tag_315\n      jumpi\n      tag_316\n      tag_56\n      jump\t// in\n    tag_316:\n    tag_315:\n      swap1\n      0x00\n      mstore\n      keccak256(0x00, 0x20)\n      swap1\n      0x14\n      mul\n      add\n        /* \"ticket_booking/ticket_booking.sol\":8410:8434  client[id].cinema_ticket */\n      0x0b\n      add\n        /* \"ticket_booking/ticket_booking.sol\":8410:8445  client[id].cinema_ticket.Movie_Name */\n      0x00\n      add\n      0x01\n        /* \"ticket_booking/ticket_booking.sol\":8410:8459  client[id].cinema_ticket.Movie_Name =  Movie_name */\n      0x0100\n      exp\n      dup2\n      sload\n      dup2\n      0xff\n      mul\n      not\n      and\n      swap1\n      dup4\n      0x02\n      dup2\n      gt\n      iszero\n      tag_318\n      jumpi\n      tag_319\n      tag_100\n      jump\t// in\n    tag_319:\n    tag_318:\n      mul\n      or\n      swap1\n      sstore\n      pop\n        /* \"ticket_booking/ticket_booking.sol\":8505:8512  Seat_NO */\n      dup3\n        /* \"ticket_booking/ticket_booking.sol\":8466:8472  client */\n      0x01\n        /* \"ticket_booking/ticket_booking.sol\":8473:8475  id */\n      dup8\n        /* \"ticket_booking/ticket_booking.sol\":8466:8476  client[id] */\n      dup2\n      sload\n      dup2\n      lt\n      tag_320\n      jumpi\n      tag_321\n      tag_56\n      jump\t// in\n    tag_321:\n    tag_320:\n      swap1\n      0x00\n      mstore\n      keccak256(0x00, 0x20)\n      swap1\n      0x14\n      mul\n      add\n        /* \"ticket_booking/ticket_booking.sol\":8466:8490  client[id].cinema_ticket */\n      0x0b\n      add\n        /* \"ticket_booking/ticket_booking.sol\":8466:8502  client[id].cinema_ticket.Seat_Number */\n      0x01\n      add\n        /* \"ticket_booking/ticket_booking.sol\":8466:8512  client[id].cinema_ticket.Seat_Number = Seat_NO */\n      dup2\n      swap1\n      sstore\n      pop\n        /* \"ticket_booking/ticket_booking.sol\":8558:8566  NO_Seats */\n      dup2\n        /* \"ticket_booking/ticket_booking.sol\":8519:8525  client */\n      0x01\n        /* \"ticket_booking/ticket_booking.sol\":8526:8528  id */\n      dup8\n        /* \"ticket_booking/ticket_booking.sol\":8519:8529  client[id] */\n      dup2\n      sload\n      dup2\n      lt\n      tag_323\n      jumpi\n      tag_324\n      tag_56\n      jump\t// in\n    tag_324:\n    tag_323:\n      swap1\n      0x00\n      mstore\n      keccak256(0x00, 0x20)\n      swap1\n      0x14\n      mul\n      add\n        /* \"ticket_booking/ticket_booking.sol\":8519:8543  client[id].cinema_ticket */\n      0x0b\n      add\n        /* \"ticket_booking/ticket_booking.sol\":8519:8556  client[id].cinema_ticket.Book_n_Seats */\n      0x02\n      add\n        /* \"ticket_booking/ticket_booking.sol\":8519:8566  client[id].cinema_ticket.Book_n_Seats= NO_Seats */\n      dup2\n      swap1\n      sstore\n      pop\n        /* \"ticket_booking/ticket_booking.sol\":8580:8584  true */\n      0x01\n        /* \"ticket_booking/ticket_booking.sol\":8573:8584  return true */\n      swap1\n      pop\n        /* \"ticket_booking/ticket_booking.sol\":7978:8599  function Book_cinema_Ticket(uint id, Time timE, Movie Movie_name, uint Seat_NO, uint NO_Seats) private returns (bool a ){... */\n    tag_277:\n      swap6\n      swap5\n      pop\n      pop\n      pop\n      pop\n      pop\n      jump\t// out\n        /* \"ticket_booking/ticket_booking.sol\":7318:7918  function Book_railway_Ticket(uint id, Time timE, Type typE, uint Seat_NO, uint NO_Seats) private returns (bool a ){... */\n    tag_168:\n        /* \"ticket_booking/ticket_booking.sol\":7424:7430  bool a */\n      0x00\n        /* \"ticket_booking/ticket_booking.sol\":7450:7462  Time.Morning */\n      dup1\n        /* \"ticket_booking/ticket_booking.sol\":7442:7462  timE != Time.Morning */\n      0x02\n      dup2\n      gt\n      iszero\n      tag_327\n      jumpi\n      tag_328\n      tag_100\n      jump\t// in\n    tag_328:\n    tag_327:\n        /* \"ticket_booking/ticket_booking.sol\":7442:7446  timE */\n      dup6\n        /* \"ticket_booking/ticket_booking.sol\":7442:7462  timE != Time.Morning */\n      0x02\n      dup2\n      gt\n      iszero\n      tag_329\n      jumpi\n      tag_330\n      tag_100\n      jump\t// in\n    tag_330:\n    tag_329:\n      eq\n      iszero\n        /* \"ticket_booking/ticket_booking.sol\":7442:7488  timE != Time.Morning && timE != Time.Afternoon */\n      dup1\n      iszero\n      tag_331\n      jumpi\n      pop\n        /* \"ticket_booking/ticket_booking.sol\":7474:7488  Time.Afternoon */\n      0x01\n        /* \"ticket_booking/ticket_booking.sol\":7466:7488  timE != Time.Afternoon */\n      0x02\n      dup2\n      gt\n      iszero\n      tag_332\n      jumpi\n      tag_333\n      tag_100\n      jump\t// in\n    tag_333:\n    tag_332:\n        /* \"ticket_booking/ticket_booking.sol\":7466:7470  timE */\n      dup6\n        /* \"ticket_booking/ticket_booking.sol\":7466:7488  timE != Time.Afternoon */\n      0x02\n      dup2\n      gt\n      iszero\n      tag_334\n      jumpi\n      tag_335\n      tag_100\n      jump\t// in\n    tag_335:\n    tag_334:\n      eq\n      iszero\n        /* \"ticket_booking/ticket_booking.sol\":7442:7488  timE != Time.Morning && timE != Time.Afternoon */\n    tag_331:\n        /* \"ticket_booking/ticket_booking.sol\":7442:7512  timE != Time.Morning && timE != Time.Afternoon && timE != Time.Evening */\n      dup1\n      iszero\n      tag_336\n      jumpi\n      pop\n        /* \"ticket_booking/ticket_booking.sol\":7500:7512  Time.Evening */\n      0x02\n        /* \"ticket_booking/ticket_booking.sol\":7492:7512  timE != Time.Evening */\n      dup1\n      dup2\n      gt\n      iszero\n      tag_337\n      jumpi\n      tag_338\n      tag_100\n      jump\t// in\n    tag_338:\n    tag_337:\n        /* \"ticket_booking/ticket_booking.sol\":7492:7496  timE */\n      dup6\n        /* \"ticket_booking/ticket_booking.sol\":7492:7512  timE != Time.Evening */\n      0x02\n      dup2\n      gt\n      iszero\n      tag_339\n      jumpi\n      tag_340\n      tag_100\n      jump\t// in\n    tag_340:\n    tag_339:\n      eq\n      iszero\n        /* \"ticket_booking/ticket_booking.sol\":7442:7512  timE != Time.Morning && timE != Time.Afternoon && timE != Time.Evening */\n    tag_336:\n        /* \"ticket_booking/ticket_booking.sol\":7439:7911  if(timE != Time.Morning && timE != Time.Afternoon && timE != Time.Evening){... */\n      iszero\n      tag_341\n      jumpi\n        /* \"ticket_booking/ticket_booking.sol\":7535:7540  false */\n      0x00\n        /* \"ticket_booking/ticket_booking.sol\":7528:7540  return false */\n      swap1\n      pop\n      jump(tag_326)\n        /* \"ticket_booking/ticket_booking.sol\":7439:7911  if(timE != Time.Morning && timE != Time.Afternoon && timE != Time.Evening){... */\n    tag_341:\n        /* \"ticket_booking/ticket_booking.sol\":7565:7581  Type.First_Class */\n      0x00\n        /* \"ticket_booking/ticket_booking.sol\":7557:7581  typE != Type.First_Class */\n      0x02\n      dup2\n      gt\n      iszero\n      tag_343\n      jumpi\n      tag_344\n      tag_100\n      jump\t// in\n    tag_344:\n    tag_343:\n        /* \"ticket_booking/ticket_booking.sol\":7557:7561  typE */\n      dup5\n        /* \"ticket_booking/ticket_booking.sol\":7557:7581  typE != Type.First_Class */\n      0x02\n      dup2\n      gt\n      iszero\n      tag_345\n      jumpi\n      tag_346\n      tag_100\n      jump\t// in\n    tag_346:\n    tag_345:\n      eq\n      iszero\n        /* \"ticket_booking/ticket_booking.sol\":7557:7612  typE != Type.First_Class && typE != Type.Business_Class */\n      dup1\n      iszero\n      tag_347\n      jumpi\n      pop\n        /* \"ticket_booking/ticket_booking.sol\":7593:7612  Type.Business_Class */\n      0x01\n        /* \"ticket_booking/ticket_booking.sol\":7585:7612  typE != Type.Business_Class */\n      0x02\n      dup2\n      gt\n      iszero\n      tag_348\n      jumpi\n      tag_349\n      tag_100\n      jump\t// in\n    tag_349:\n    tag_348:\n        /* \"ticket_booking/ticket_booking.sol\":7585:7589  typE */\n      dup5\n        /* \"ticket_booking/ticket_booking.sol\":7585:7612  typE != Type.Business_Class */\n      0x02\n      dup2\n      gt\n      iszero\n      tag_350\n      jumpi\n      tag_351\n      tag_100\n      jump\t// in\n    tag_351:\n    tag_350:\n      eq\n      iszero\n        /* \"ticket_booking/ticket_booking.sol\":7557:7612  typE != Type.First_Class && typE != Type.Business_Class */\n    tag_347:\n        /* \"ticket_booking/ticket_booking.sol\":7557:7642  typE != Type.First_Class && typE != Type.Business_Class && typE != Type.Economy_Class */\n      dup1\n      iszero\n      tag_352\n      jumpi\n      pop\n        /* \"ticket_booking/ticket_booking.sol\":7624:7642  Type.Economy_Class */\n      0x02\n        /* \"ticket_booking/ticket_booking.sol\":7616:7642  typE != Type.Economy_Class */\n      dup1\n      dup2\n      gt\n      iszero\n      tag_353\n      jumpi\n      tag_354\n      tag_100\n      jump\t// in\n    tag_354:\n    tag_353:\n        /* \"ticket_booking/ticket_booking.sol\":7616:7620  typE */\n      dup5\n        /* \"ticket_booking/ticket_booking.sol\":7616:7642  typE != Type.Economy_Class */\n      0x02\n      dup2\n      gt\n      iszero\n      tag_355\n      jumpi\n      tag_356\n      tag_100\n      jump\t// in\n    tag_356:\n    tag_355:\n      eq\n      iszero\n        /* \"ticket_booking/ticket_booking.sol\":7557:7642  typE != Type.First_Class && typE != Type.Business_Class && typE != Type.Economy_Class */\n    tag_352:\n        /* \"ticket_booking/ticket_booking.sol\":7553:7911  if( typE != Type.First_Class && typE != Type.Business_Class && typE != Type.Economy_Class){... */\n      iszero\n      tag_357\n      jumpi\n        /* \"ticket_booking/ticket_booking.sol\":7669:7674  false */\n      0x00\n        /* \"ticket_booking/ticket_booking.sol\":7662:7674  return false */\n      swap1\n      pop\n      jump(tag_326)\n        /* \"ticket_booking/ticket_booking.sol\":7553:7911  if( typE != Type.First_Class && typE != Type.Business_Class && typE != Type.Economy_Class){... */\n    tag_357:\n        /* \"ticket_booking/ticket_booking.sol\":7726:7730  timE */\n      dup5\n        /* \"ticket_booking/ticket_booking.sol\":7693:7699  client */\n      0x01\n        /* \"ticket_booking/ticket_booking.sol\":7700:7702  id */\n      dup8\n        /* \"ticket_booking/ticket_booking.sol\":7693:7703  client[id] */\n      dup2\n      sload\n      dup2\n      lt\n      tag_359\n      jumpi\n      tag_360\n      tag_56\n      jump\t// in\n    tag_360:\n    tag_359:\n      swap1\n      0x00\n      mstore\n      keccak256(0x00, 0x20)\n      swap1\n      0x14\n      mul\n      add\n        /* \"ticket_booking/ticket_booking.sol\":7693:7718  client[id].railway_ticket */\n      0x11\n      add\n        /* \"ticket_booking/ticket_booking.sol\":7693:7723  client[id].railway_ticket.time */\n      0x00\n      add\n      0x00\n        /* \"ticket_booking/ticket_booking.sol\":7693:7730  client[id].railway_ticket.time = timE */\n      0x0100\n      exp\n      dup2\n      sload\n      dup2\n      0xff\n      mul\n      not\n      and\n      swap1\n      dup4\n      0x02\n      dup2\n      gt\n      iszero\n      tag_362\n      jumpi\n      tag_363\n      tag_100\n      jump\t// in\n    tag_363:\n    tag_362:\n      mul\n      or\n      swap1\n      sstore\n      pop\n        /* \"ticket_booking/ticket_booking.sol\":7771:7775  typE */\n      dup4\n        /* \"ticket_booking/ticket_booking.sol\":7737:7743  client */\n      0x01\n        /* \"ticket_booking/ticket_booking.sol\":7744:7746  id */\n      dup8\n        /* \"ticket_booking/ticket_booking.sol\":7737:7747  client[id] */\n      dup2\n      sload\n      dup2\n      lt\n      tag_364\n      jumpi\n      tag_365\n      tag_56\n      jump\t// in\n    tag_365:\n    tag_364:\n      swap1\n      0x00\n      mstore\n      keccak256(0x00, 0x20)\n      swap1\n      0x14\n      mul\n      add\n        /* \"ticket_booking/ticket_booking.sol\":7737:7762  client[id].railway_ticket */\n      0x11\n      add\n        /* \"ticket_booking/ticket_booking.sol\":7737:7768  client[id].railway_ticket.types */\n      0x00\n      add\n      0x01\n        /* \"ticket_booking/ticket_booking.sol\":7737:7775  client[id].railway_ticket.types = typE */\n      0x0100\n      exp\n      dup2\n      sload\n      dup2\n      0xff\n      mul\n      not\n      and\n      swap1\n      dup4\n      0x02\n      dup2\n      gt\n      iszero\n      tag_367\n      jumpi\n      tag_368\n      tag_100\n      jump\t// in\n    tag_368:\n    tag_367:\n      mul\n      or\n      swap1\n      sstore\n      pop\n        /* \"ticket_booking/ticket_booking.sol\":7822:7829  Seat_NO */\n      dup3\n        /* \"ticket_booking/ticket_booking.sol\":7782:7788  client */\n      0x01\n        /* \"ticket_booking/ticket_booking.sol\":7789:7791  id */\n      dup8\n        /* \"ticket_booking/ticket_booking.sol\":7782:7792  client[id] */\n      dup2\n      sload\n      dup2\n      lt\n      tag_369\n      jumpi\n      tag_370\n      tag_56\n      jump\t// in\n    tag_370:\n    tag_369:\n      swap1\n      0x00\n      mstore\n      keccak256(0x00, 0x20)\n      swap1\n      0x14\n      mul\n      add\n        /* \"ticket_booking/ticket_booking.sol\":7782:7807  client[id].railway_ticket */\n      0x11\n      add\n        /* \"ticket_booking/ticket_booking.sol\":7782:7819  client[id].railway_ticket.Seat_Number */\n      0x01\n      add\n        /* \"ticket_booking/ticket_booking.sol\":7782:7829  client[id].railway_ticket.Seat_Number = Seat_NO */\n      dup2\n      swap1\n      sstore\n      pop\n        /* \"ticket_booking/ticket_booking.sol\":7877:7885  NO_Seats */\n      dup2\n        /* \"ticket_booking/ticket_booking.sol\":7836:7842  client */\n      0x01\n        /* \"ticket_booking/ticket_booking.sol\":7843:7845  id */\n      dup8\n        /* \"ticket_booking/ticket_booking.sol\":7836:7846  client[id] */\n      dup2\n      sload\n      dup2\n      lt\n      tag_372\n      jumpi\n      tag_373\n      tag_56\n      jump\t// in\n    tag_373:\n    tag_372:\n      swap1\n      0x00\n      mstore\n      keccak256(0x00, 0x20)\n      swap1\n      0x14\n      mul\n      add\n        /* \"ticket_booking/ticket_booking.sol\":7836:7861  client[id].railway_ticket */\n      0x11\n      add\n        /* \"ticket_booking/ticket_booking.sol\":7836:7874  client[id].railway_ticket.Book_n_Seats */\n      0x02\n      add\n        /* \"ticket_booking/ticket_booking.sol\":7836:7885  client[id].railway_ticket.Book_n_Seats = NO_Seats */\n      dup2\n      swap1\n      sstore\n      pop\n        /* \"ticket_booking/ticket_booking.sol\":7899:7903  true */\n      0x01\n        /* \"ticket_booking/ticket_booking.sol\":7892:7903  return true */\n      swap1\n      pop\n        /* \"ticket_booking/ticket_booking.sol\":7318:7918  function Book_railway_Ticket(uint id, Time timE, Type typE, uint Seat_NO, uint NO_Seats) private returns (bool a ){... */\n    tag_326:\n      swap6\n      swap5\n      pop\n      pop\n      pop\n      pop\n      pop\n      jump\t// out\n        /* \"ticket_booking/ticket_booking.sol\":6004:6590  function Book_bus_Ticket(uint id, Time timE, Type typE, uint Seat_NO, uint NO_Seats) private returns (bool a ){... */\n    tag_176:\n        /* \"ticket_booking/ticket_booking.sol\":6106:6112  bool a */\n      0x00\n        /* \"ticket_booking/ticket_booking.sol\":6132:6144  Time.Morning */\n      dup1\n        /* \"ticket_booking/ticket_booking.sol\":6124:6144  timE != Time.Morning */\n      0x02\n      dup2\n      gt\n      iszero\n      tag_376\n      jumpi\n      tag_377\n      tag_100\n      jump\t// in\n    tag_377:\n    tag_376:\n        /* \"ticket_booking/ticket_booking.sol\":6124:6128  timE */\n      dup6\n        /* \"ticket_booking/ticket_booking.sol\":6124:6144  timE != Time.Morning */\n      0x02\n      dup2\n      gt\n      iszero\n      tag_378\n      jumpi\n      tag_379\n      tag_100\n      jump\t// in\n    tag_379:\n    tag_378:\n      eq\n      iszero\n        /* \"ticket_booking/ticket_booking.sol\":6124:6170  timE != Time.Morning && timE != Time.Afternoon */\n      dup1\n      iszero\n      tag_380\n      jumpi\n      pop\n        /* \"ticket_booking/ticket_booking.sol\":6156:6170  Time.Afternoon */\n      0x01\n        /* \"ticket_booking/ticket_booking.sol\":6148:6170  timE != Time.Afternoon */\n      0x02\n      dup2\n      gt\n      iszero\n      tag_381\n      jumpi\n      tag_382\n      tag_100\n      jump\t// in\n    tag_382:\n    tag_381:\n        /* \"ticket_booking/ticket_booking.sol\":6148:6152  timE */\n      dup6\n        /* \"ticket_booking/ticket_booking.sol\":6148:6170  timE != Time.Afternoon */\n      0x02\n      dup2\n      gt\n      iszero\n      tag_383\n      jumpi\n      tag_384\n      tag_100\n      jump\t// in\n    tag_384:\n    tag_383:\n      eq\n      iszero\n        /* \"ticket_booking/ticket_booking.sol\":6124:6170  timE != Time.Morning && timE != Time.Afternoon */\n    tag_380:\n        /* \"ticket_booking/ticket_booking.sol\":6124:6194  timE != Time.Morning && timE != Time.Afternoon && timE != Time.Evening */\n      dup1\n      iszero\n      tag_385\n      jumpi\n      pop\n        /* \"ticket_booking/ticket_booking.sol\":6182:6194  Time.Evening */\n      0x02\n        /* \"ticket_booking/ticket_booking.sol\":6174:6194  timE != Time.Evening */\n      dup1\n      dup2\n      gt\n      iszero\n      tag_386\n      jumpi\n      tag_387\n      tag_100\n      jump\t// in\n    tag_387:\n    tag_386:\n        /* \"ticket_booking/ticket_booking.sol\":6174:6178  timE */\n      dup6\n        /* \"ticket_booking/ticket_booking.sol\":6174:6194  timE != Time.Evening */\n      0x02\n      dup2\n      gt\n      iszero\n      tag_388\n      jumpi\n      tag_389\n      tag_100\n      jump\t// in\n    tag_389:\n    tag_388:\n      eq\n      iszero\n        /* \"ticket_booking/ticket_booking.sol\":6124:6194  timE != Time.Morning && timE != Time.Afternoon && timE != Time.Evening */\n    tag_385:\n        /* \"ticket_booking/ticket_booking.sol\":6121:6583  if(timE != Time.Morning && timE != Time.Afternoon && timE != Time.Evening){... */\n      iszero\n      tag_390\n      jumpi\n        /* \"ticket_booking/ticket_booking.sol\":6221:6226  false */\n      0x00\n        /* \"ticket_booking/ticket_booking.sol\":6214:6226  return false */\n      swap1\n      pop\n      jump(tag_375)\n        /* \"ticket_booking/ticket_booking.sol\":6121:6583  if(timE != Time.Morning && timE != Time.Afternoon && timE != Time.Evening){... */\n    tag_390:\n        /* \"ticket_booking/ticket_booking.sol\":6251:6267  Type.First_Class */\n      0x00\n        /* \"ticket_booking/ticket_booking.sol\":6243:6267  typE != Type.First_Class */\n      0x02\n      dup2\n      gt\n      iszero\n      tag_392\n      jumpi\n      tag_393\n      tag_100\n      jump\t// in\n    tag_393:\n    tag_392:\n        /* \"ticket_booking/ticket_booking.sol\":6243:6247  typE */\n      dup5\n        /* \"ticket_booking/ticket_booking.sol\":6243:6267  typE != Type.First_Class */\n      0x02\n      dup2\n      gt\n      iszero\n      tag_394\n      jumpi\n      tag_395\n      tag_100\n      jump\t// in\n    tag_395:\n    tag_394:\n      eq\n      iszero\n        /* \"ticket_booking/ticket_booking.sol\":6243:6298  typE != Type.First_Class && typE != Type.Business_Class */\n      dup1\n      iszero\n      tag_396\n      jumpi\n      pop\n        /* \"ticket_booking/ticket_booking.sol\":6279:6298  Type.Business_Class */\n      0x01\n        /* \"ticket_booking/ticket_booking.sol\":6271:6298  typE != Type.Business_Class */\n      0x02\n      dup2\n      gt\n      iszero\n      tag_397\n      jumpi\n      tag_398\n      tag_100\n      jump\t// in\n    tag_398:\n    tag_397:\n        /* \"ticket_booking/ticket_booking.sol\":6271:6275  typE */\n      dup5\n        /* \"ticket_booking/ticket_booking.sol\":6271:6298  typE != Type.Business_Class */\n      0x02\n      dup2\n      gt\n      iszero\n      tag_399\n      jumpi\n      tag_400\n      tag_100\n      jump\t// in\n    tag_400:\n    tag_399:\n      eq\n      iszero\n        /* \"ticket_booking/ticket_booking.sol\":6243:6298  typE != Type.First_Class && typE != Type.Business_Class */\n    tag_396:\n        /* \"ticket_booking/ticket_booking.sol\":6243:6328  typE != Type.First_Class && typE != Type.Business_Class && typE != Type.Economy_Class */\n      dup1\n      iszero\n      tag_401\n      jumpi\n      pop\n        /* \"ticket_booking/ticket_booking.sol\":6310:6328  Type.Economy_Class */\n      0x02\n        /* \"ticket_booking/ticket_booking.sol\":6302:6328  typE != Type.Economy_Class */\n      dup1\n      dup2\n      gt\n      iszero\n      tag_402\n      jumpi\n      tag_403\n      tag_100\n      jump\t// in\n    tag_403:\n    tag_402:\n        /* \"ticket_booking/ticket_booking.sol\":6302:6306  typE */\n      dup5\n        /* \"ticket_booking/ticket_booking.sol\":6302:6328  typE != Type.Economy_Class */\n      0x02\n      dup2\n      gt\n      iszero\n      tag_404\n      jumpi\n      tag_405\n      tag_100\n      jump\t// in\n    tag_405:\n    tag_404:\n      eq\n      iszero\n        /* \"ticket_booking/ticket_booking.sol\":6243:6328  typE != Type.First_Class && typE != Type.Business_Class && typE != Type.Economy_Class */\n    tag_401:\n        /* \"ticket_booking/ticket_booking.sol\":6239:6583  if( typE != Type.First_Class && typE != Type.Business_Class && typE != Type.Economy_Class){... */\n      iszero\n      tag_406\n      jumpi\n        /* \"ticket_booking/ticket_booking.sol\":6355:6360  false */\n      0x00\n        /* \"ticket_booking/ticket_booking.sol\":6348:6360  return false */\n      swap1\n      pop\n      jump(tag_375)\n        /* \"ticket_booking/ticket_booking.sol\":6239:6583  if( typE != Type.First_Class && typE != Type.Business_Class && typE != Type.Economy_Class){... */\n    tag_406:\n        /* \"ticket_booking/ticket_booking.sol\":6408:6412  timE */\n      dup5\n        /* \"ticket_booking/ticket_booking.sol\":6379:6385  client */\n      0x01\n        /* \"ticket_booking/ticket_booking.sol\":6386:6388  id */\n      dup8\n        /* \"ticket_booking/ticket_booking.sol\":6379:6389  client[id] */\n      dup2\n      sload\n      dup2\n      lt\n      tag_408\n      jumpi\n      tag_409\n      tag_56\n      jump\t// in\n    tag_409:\n    tag_408:\n      swap1\n      0x00\n      mstore\n      keccak256(0x00, 0x20)\n      swap1\n      0x14\n      mul\n      add\n        /* \"ticket_booking/ticket_booking.sol\":6379:6400  client[id].bus_ticket */\n      0x05\n      add\n        /* \"ticket_booking/ticket_booking.sol\":6379:6405  client[id].bus_ticket.time */\n      0x00\n      add\n      0x00\n        /* \"ticket_booking/ticket_booking.sol\":6379:6412  client[id].bus_ticket.time = timE */\n      0x0100\n      exp\n      dup2\n      sload\n      dup2\n      0xff\n      mul\n      not\n      and\n      swap1\n      dup4\n      0x02\n      dup2\n      gt\n      iszero\n      tag_411\n      jumpi\n      tag_412\n      tag_100\n      jump\t// in\n    tag_412:\n    tag_411:\n      mul\n      or\n      swap1\n      sstore\n      pop\n        /* \"ticket_booking/ticket_booking.sol\":6449:6453  typE */\n      dup4\n        /* \"ticket_booking/ticket_booking.sol\":6419:6425  client */\n      0x01\n        /* \"ticket_booking/ticket_booking.sol\":6426:6428  id */\n      dup8\n        /* \"ticket_booking/ticket_booking.sol\":6419:6429  client[id] */\n      dup2\n      sload\n      dup2\n      lt\n      tag_413\n      jumpi\n      tag_414\n      tag_56\n      jump\t// in\n    tag_414:\n    tag_413:\n      swap1\n      0x00\n      mstore\n      keccak256(0x00, 0x20)\n      swap1\n      0x14\n      mul\n      add\n        /* \"ticket_booking/ticket_booking.sol\":6419:6440  client[id].bus_ticket */\n      0x05\n      add\n        /* \"ticket_booking/ticket_booking.sol\":6419:6446  client[id].bus_ticket.types */\n      0x00\n      add\n      0x01\n        /* \"ticket_booking/ticket_booking.sol\":6419:6453  client[id].bus_ticket.types = typE */\n      0x0100\n      exp\n      dup2\n      sload\n      dup2\n      0xff\n      mul\n      not\n      and\n      swap1\n      dup4\n      0x02\n      dup2\n      gt\n      iszero\n      tag_416\n      jumpi\n      tag_417\n      tag_100\n      jump\t// in\n    tag_417:\n    tag_416:\n      mul\n      or\n      swap1\n      sstore\n      pop\n        /* \"ticket_booking/ticket_booking.sol\":6496:6503  Seat_NO */\n      dup3\n        /* \"ticket_booking/ticket_booking.sol\":6460:6466  client */\n      0x01\n        /* \"ticket_booking/ticket_booking.sol\":6467:6469  id */\n      dup8\n        /* \"ticket_booking/ticket_booking.sol\":6460:6470  client[id] */\n      dup2\n      sload\n      dup2\n      lt\n      tag_418\n      jumpi\n      tag_419\n      tag_56\n      jump\t// in\n    tag_419:\n    tag_418:\n      swap1\n      0x00\n      mstore\n      keccak256(0x00, 0x20)\n      swap1\n      0x14\n      mul\n      add\n        /* \"ticket_booking/ticket_booking.sol\":6460:6481  client[id].bus_ticket */\n      0x05\n      add\n        /* \"ticket_booking/ticket_booking.sol\":6460:6493  client[id].bus_ticket.Seat_Number */\n      0x01\n      add\n        /* \"ticket_booking/ticket_booking.sol\":6460:6503  client[id].bus_ticket.Seat_Number = Seat_NO */\n      dup2\n      swap1\n      sstore\n      pop\n        /* \"ticket_booking/ticket_booking.sol\":6547:6555  NO_Seats */\n      dup2\n        /* \"ticket_booking/ticket_booking.sol\":6510:6516  client */\n      0x01\n        /* \"ticket_booking/ticket_booking.sol\":6517:6519  id */\n      dup8\n        /* \"ticket_booking/ticket_booking.sol\":6510:6520  client[id] */\n      dup2\n      sload\n      dup2\n      lt\n      tag_421\n      jumpi\n      tag_422\n      tag_56\n      jump\t// in\n    tag_422:\n    tag_421:\n      swap1\n      0x00\n      mstore\n      keccak256(0x00, 0x20)\n      swap1\n      0x14\n      mul\n      add\n        /* \"ticket_booking/ticket_booking.sol\":6510:6531  client[id].bus_ticket */\n      0x05\n      add\n        /* \"ticket_booking/ticket_booking.sol\":6510:6544  client[id].bus_ticket.Book_n_Seats */\n      0x02\n      add\n        /* \"ticket_booking/ticket_booking.sol\":6510:6555  client[id].bus_ticket.Book_n_Seats = NO_Seats */\n      dup2\n      swap1\n      sstore\n      pop\n        /* \"ticket_booking/ticket_booking.sol\":6569:6573  true */\n      0x01\n        /* \"ticket_booking/ticket_booking.sol\":6562:6573  return true */\n      swap1\n      pop\n        /* \"ticket_booking/ticket_booking.sol\":6004:6590  function Book_bus_Ticket(uint id, Time timE, Type typE, uint Seat_NO, uint NO_Seats) private returns (bool a ){... */\n    tag_375:\n      swap6\n      swap5\n      pop\n      pop\n      pop\n      pop\n      pop\n      jump\t// out\n    tag_84:\n      mload(0x40)\n      dup1\n      0x0140\n      add\n      0x40\n      mstore\n      dup1\n      0x00\n      dup2\n      mstore\n      0x20\n      add\n      0x00\n      dup2\n      mstore\n      0x20\n      add\n      0x60\n      dup2\n      mstore\n      0x20\n      add\n      0x00\n      dup2\n      mstore\n      0x20\n      add\n      and(0xffffffffffffffffffffffffffffffffffffffff, 0x00)\n      dup2\n      mstore\n      0x20\n      add\n      tag_424\n      tag_425\n      jump\t// in\n    tag_424:\n      dup2\n      mstore\n      0x20\n      add\n      tag_426\n      tag_427\n      jump\t// in\n    tag_426:\n      dup2\n      mstore\n      0x20\n      add\n      tag_428\n      tag_429\n      jump\t// in\n    tag_428:\n      dup2\n      mstore\n      0x20\n      add\n      tag_430\n      tag_431\n      jump\t// in\n    tag_430:\n      dup2\n      mstore\n      0x20\n      add\n      tag_432\n      tag_433\n      jump\t// in\n    tag_432:\n      dup2\n      mstore\n      pop\n      swap1\n      jump\t// out\n    tag_425:\n      mload(0x40)\n      dup1\n      0x80\n      add\n      0x40\n      mstore\n      dup1\n      0x00\n      0x02\n      dup2\n      gt\n      iszero\n      tag_434\n      jumpi\n      tag_435\n      tag_100\n      jump\t// in\n    tag_435:\n    tag_434:\n      dup2\n      mstore\n      0x20\n      add\n      0x00\n      0x02\n      dup2\n      gt\n      iszero\n      tag_436\n      jumpi\n      tag_437\n      tag_100\n      jump\t// in\n    tag_437:\n    tag_436:\n      dup2\n      mstore\n      0x20\n      add\n      0x00\n      dup2\n      mstore\n      0x20\n      add\n      0x00\n      dup2\n      mstore\n      pop\n      swap1\n      jump\t// out\n    tag_427:\n      mload(0x40)\n      dup1\n      0x80\n      add\n      0x40\n      mstore\n      dup1\n      0x00\n      0x02\n      dup2\n      gt\n      iszero\n      tag_438\n      jumpi\n      tag_439\n      tag_100\n      jump\t// in\n    tag_439:\n    tag_438:\n      dup2\n      mstore\n      0x20\n      add\n      0x00\n      0x02\n      dup2\n      gt\n      iszero\n      tag_440\n      jumpi\n      tag_441\n      tag_100\n      jump\t// in\n    tag_441:\n    tag_440:\n      dup2\n      mstore\n      0x20\n      add\n      0x00\n      dup2\n      mstore\n      0x20\n      add\n      0x00\n      dup2\n      mstore\n      pop\n      swap1\n      jump\t// out\n    tag_429:\n      mload(0x40)\n      dup1\n      0x80\n      add\n      0x40\n      mstore\n      dup1\n      0x00\n      0x02\n      dup2\n      gt\n      iszero\n      tag_442\n      jumpi\n      tag_443\n      tag_100\n      jump\t// in\n    tag_443:\n    tag_442:\n      dup2\n      mstore\n      0x20\n      add\n      0x00\n      0x02\n      dup2\n      gt\n      iszero\n      tag_444\n      jumpi\n      tag_445\n      tag_100\n      jump\t// in\n    tag_445:\n    tag_444:\n      dup2\n      mstore\n      0x20\n      add\n      0x00\n      dup2\n      mstore\n      0x20\n      add\n      0x00\n      dup2\n      mstore\n      pop\n      swap1\n      jump\t// out\n    tag_431:\n      mload(0x40)\n      dup1\n      0x80\n      add\n      0x40\n      mstore\n      dup1\n      0x00\n      0x02\n      dup2\n      gt\n      iszero\n      tag_446\n      jumpi\n      tag_447\n      tag_100\n      jump\t// in\n    tag_447:\n    tag_446:\n      dup2\n      mstore\n      0x20\n      add\n      0x00\n      0x02\n      dup2\n      gt\n      iszero\n      tag_448\n      jumpi\n      tag_449\n      tag_100\n      jump\t// in\n    tag_449:\n    tag_448:\n      dup2\n      mstore\n      0x20\n      add\n      0x00\n      dup2\n      mstore\n      0x20\n      add\n      0x00\n      dup2\n      mstore\n      pop\n      swap1\n      jump\t// out\n    tag_433:\n      mload(0x40)\n      dup1\n      0x80\n      add\n      0x40\n      mstore\n      dup1\n      0x00\n      0x02\n      dup2\n      gt\n      iszero\n      tag_450\n      jumpi\n      tag_451\n      tag_100\n      jump\t// in\n    tag_451:\n    tag_450:\n      dup2\n      mstore\n      0x20\n      add\n      0x00\n      0x02\n      dup2\n      gt\n      iszero\n      tag_452\n      jumpi\n      tag_453\n      tag_100\n      jump\t// in\n    tag_453:\n    tag_452:\n      dup2\n      mstore\n      0x20\n      add\n      0x00\n      dup2\n      mstore\n      0x20\n      add\n      0x00\n      dup2\n      mstore\n      pop\n      swap1\n      jump\t// out\n        /* \"#utility.yul\":7:82   */\n    tag_454:\n        /* \"#utility.yul\":40:46   */\n      0x00\n        /* \"#utility.yul\":73:75   */\n      0x40\n        /* \"#utility.yul\":67:76   */\n      mload\n        /* \"#utility.yul\":57:76   */\n      swap1\n      pop\n        /* \"#utility.yul\":7:82   */\n      swap1\n      jump\t// out\n        /* \"#utility.yul\":88:205   */\n    tag_455:\n        /* \"#utility.yul\":197:198   */\n      0x00\n        /* \"#utility.yul\":194:195   */\n      dup1\n        /* \"#utility.yul\":187:199   */\n      revert\n        /* \"#utility.yul\":211:328   */\n    tag_456:\n        /* \"#utility.yul\":320:321   */\n      0x00\n        /* \"#utility.yul\":317:318   */\n      dup1\n        /* \"#utility.yul\":310:322   */\n      revert\n        /* \"#utility.yul\":334:451   */\n    tag_457:\n        /* \"#utility.yul\":443:444   */\n      0x00\n        /* \"#utility.yul\":440:441   */\n      dup1\n        /* \"#utility.yul\":433:445   */\n      revert\n        /* \"#utility.yul\":457:574   */\n    tag_458:\n        /* \"#utility.yul\":566:567   */\n      0x00\n        /* \"#utility.yul\":563:564   */\n      dup1\n        /* \"#utility.yul\":556:568   */\n      revert\n        /* \"#utility.yul\":580:682   */\n    tag_459:\n        /* \"#utility.yul\":621:627   */\n      0x00\n        /* \"#utility.yul\":672:674   */\n      0x1f\n        /* \"#utility.yul\":668:675   */\n      not\n        /* \"#utility.yul\":663:665   */\n      0x1f\n        /* \"#utility.yul\":656:661   */\n      dup4\n        /* \"#utility.yul\":652:666   */\n      add\n        /* \"#utility.yul\":648:676   */\n      and\n        /* \"#utility.yul\":638:676   */\n      swap1\n      pop\n        /* \"#utility.yul\":580:682   */\n      swap2\n      swap1\n      pop\n      jump\t// out\n        /* \"#utility.yul\":688:868   */\n    tag_460:\n        /* \"#utility.yul\":736:813   */\n      0x4e487b7100000000000000000000000000000000000000000000000000000000\n        /* \"#utility.yul\":733:734   */\n      0x00\n        /* \"#utility.yul\":726:814   */\n      mstore\n        /* \"#utility.yul\":833:837   */\n      0x41\n        /* \"#utility.yul\":830:831   */\n      0x04\n        /* \"#utility.yul\":823:838   */\n      mstore\n        /* \"#utility.yul\":857:861   */\n      0x24\n        /* \"#utility.yul\":854:855   */\n      0x00\n        /* \"#utility.yul\":847:862   */\n      revert\n        /* \"#utility.yul\":874:1155   */\n    tag_461:\n        /* \"#utility.yul\":957:984   */\n      tag_541\n        /* \"#utility.yul\":979:983   */\n      dup3\n        /* \"#utility.yul\":957:984   */\n      tag_459\n      jump\t// in\n    tag_541:\n        /* \"#utility.yul\":949:955   */\n      dup2\n        /* \"#utility.yul\":945:985   */\n      add\n        /* \"#utility.yul\":1087:1093   */\n      dup2\n        /* \"#utility.yul\":1075:1085   */\n      dup2\n        /* \"#utility.yul\":1072:1094   */\n      lt\n        /* \"#utility.yul\":1051:1069   */\n      0xffffffffffffffff\n        /* \"#utility.yul\":1039:1049   */\n      dup3\n        /* \"#utility.yul\":1036:1070   */\n      gt\n        /* \"#utility.yul\":1033:1095   */\n      or\n        /* \"#utility.yul\":1030:1118   */\n      iszero\n      tag_542\n      jumpi\n        /* \"#utility.yul\":1098:1116   */\n      tag_543\n      tag_460\n      jump\t// in\n    tag_543:\n        /* \"#utility.yul\":1030:1118   */\n    tag_542:\n        /* \"#utility.yul\":1138:1148   */\n      dup1\n        /* \"#utility.yul\":1134:1136   */\n      0x40\n        /* \"#utility.yul\":1127:1149   */\n      mstore\n        /* \"#utility.yul\":917:1155   */\n      pop\n        /* \"#utility.yul\":874:1155   */\n      pop\n      pop\n      jump\t// out\n        /* \"#utility.yul\":1161:1290   */\n    tag_462:\n        /* \"#utility.yul\":1195:1201   */\n      0x00\n        /* \"#utility.yul\":1222:1242   */\n      tag_545\n      tag_454\n      jump\t// in\n    tag_545:\n        /* \"#utility.yul\":1212:1242   */\n      swap1\n      pop\n        /* \"#utility.yul\":1251:1284   */\n      tag_546\n        /* \"#utility.yul\":1279:1283   */\n      dup3\n        /* \"#utility.yul\":1271:1277   */\n      dup3\n        /* \"#utility.yul\":1251:1284   */\n      tag_461\n      jump\t// in\n    tag_546:\n        /* \"#utility.yul\":1161:1290   */\n      swap2\n      swap1\n      pop\n      jump\t// out\n        /* \"#utility.yul\":1296:1604   */\n    tag_463:\n        /* \"#utility.yul\":1358:1362   */\n      0x00\n        /* \"#utility.yul\":1448:1466   */\n      0xffffffffffffffff\n        /* \"#utility.yul\":1440:1446   */\n      dup3\n        /* \"#utility.yul\":1437:1467   */\n      gt\n        /* \"#utility.yul\":1434:1490   */\n      iszero\n      tag_548\n      jumpi\n        /* \"#utility.yul\":1470:1488   */\n      tag_549\n      tag_460\n      jump\t// in\n    tag_549:\n        /* \"#utility.yul\":1434:1490   */\n    tag_548:\n        /* \"#utility.yul\":1508:1537   */\n      tag_550\n        /* \"#utility.yul\":1530:1536   */\n      dup3\n        /* \"#utility.yul\":1508:1537   */\n      tag_459\n      jump\t// in\n    tag_550:\n        /* \"#utility.yul\":1500:1537   */\n      swap1\n      pop\n        /* \"#utility.yul\":1592:1596   */\n      0x20\n        /* \"#utility.yul\":1586:1590   */\n      dup2\n        /* \"#utility.yul\":1582:1597   */\n      add\n        /* \"#utility.yul\":1574:1597   */\n      swap1\n      pop\n        /* \"#utility.yul\":1296:1604   */\n      swap2\n      swap1\n      pop\n      jump\t// out\n        /* \"#utility.yul\":1610:1758   */\n    tag_464:\n        /* \"#utility.yul\":1708:1714   */\n      dup3\n        /* \"#utility.yul\":1703:1706   */\n      dup2\n        /* \"#utility.yul\":1698:1701   */\n      dup4\n        /* \"#utility.yul\":1685:1715   */\n      calldatacopy\n        /* \"#utility.yul\":1749:1750   */\n      0x00\n        /* \"#utility.yul\":1740:1746   */\n      dup4\n        /* \"#utility.yul\":1735:1738   */\n      dup4\n        /* \"#utility.yul\":1731:1747   */\n      add\n        /* \"#utility.yul\":1724:1751   */\n      mstore\n        /* \"#utility.yul\":1610:1758   */\n      pop\n      pop\n      pop\n      jump\t// out\n        /* \"#utility.yul\":1764:2189   */\n    tag_465:\n        /* \"#utility.yul\":1842:1847   */\n      0x00\n        /* \"#utility.yul\":1867:1933   */\n      tag_553\n        /* \"#utility.yul\":1883:1932   */\n      tag_554\n        /* \"#utility.yul\":1925:1931   */\n      dup5\n        /* \"#utility.yul\":1883:1932   */\n      tag_463\n      jump\t// in\n    tag_554:\n        /* \"#utility.yul\":1867:1933   */\n      tag_462\n      jump\t// in\n    tag_553:\n        /* \"#utility.yul\":1858:1933   */\n      swap1\n      pop\n        /* \"#utility.yul\":1956:1962   */\n      dup3\n        /* \"#utility.yul\":1949:1954   */\n      dup2\n        /* \"#utility.yul\":1942:1963   */\n      mstore\n        /* \"#utility.yul\":1994:1998   */\n      0x20\n        /* \"#utility.yul\":1987:1992   */\n      dup2\n        /* \"#utility.yul\":1983:1999   */\n      add\n        /* \"#utility.yul\":2032:2035   */\n      dup5\n        /* \"#utility.yul\":2023:2029   */\n      dup5\n        /* \"#utility.yul\":2018:2021   */\n      dup5\n        /* \"#utility.yul\":2014:2030   */\n      add\n        /* \"#utility.yul\":2011:2036   */\n      gt\n        /* \"#utility.yul\":2008:2120   */\n      iszero\n      tag_555\n      jumpi\n        /* \"#utility.yul\":2039:2118   */\n      tag_556\n      tag_458\n      jump\t// in\n    tag_556:\n        /* \"#utility.yul\":2008:2120   */\n    tag_555:\n        /* \"#utility.yul\":2129:2183   */\n      tag_557\n        /* \"#utility.yul\":2176:2182   */\n      dup5\n        /* \"#utility.yul\":2171:2174   */\n      dup3\n        /* \"#utility.yul\":2166:2169   */\n      dup6\n        /* \"#utility.yul\":2129:2183   */\n      tag_464\n      jump\t// in\n    tag_557:\n        /* \"#utility.yul\":1848:2189   */\n      pop\n        /* \"#utility.yul\":1764:2189   */\n      swap4\n      swap3\n      pop\n      pop\n      pop\n      jump\t// out\n        /* \"#utility.yul\":2209:2549   */\n    tag_466:\n        /* \"#utility.yul\":2265:2270   */\n      0x00\n        /* \"#utility.yul\":2314:2317   */\n      dup3\n        /* \"#utility.yul\":2307:2311   */\n      0x1f\n        /* \"#utility.yul\":2299:2305   */\n      dup4\n        /* \"#utility.yul\":2295:2312   */\n      add\n        /* \"#utility.yul\":2291:2318   */\n      slt\n        /* \"#utility.yul\":2281:2403   */\n      tag_559\n      jumpi\n        /* \"#utility.yul\":2322:2401   */\n      tag_560\n      tag_457\n      jump\t// in\n    tag_560:\n        /* \"#utility.yul\":2281:2403   */\n    tag_559:\n        /* \"#utility.yul\":2439:2445   */\n      dup2\n        /* \"#utility.yul\":2426:2446   */\n      calldataload\n        /* \"#utility.yul\":2464:2543   */\n      tag_561\n        /* \"#utility.yul\":2539:2542   */\n      dup5\n        /* \"#utility.yul\":2531:2537   */\n      dup3\n        /* \"#utility.yul\":2524:2528   */\n      0x20\n        /* \"#utility.yul\":2516:2522   */\n      dup7\n        /* \"#utility.yul\":2512:2529   */\n      add\n        /* \"#utility.yul\":2464:2543   */\n      tag_465\n      jump\t// in\n    tag_561:\n        /* \"#utility.yul\":2455:2543   */\n      swap2\n      pop\n        /* \"#utility.yul\":2271:2549   */\n      pop\n        /* \"#utility.yul\":2209:2549   */\n      swap3\n      swap2\n      pop\n      pop\n      jump\t// out\n        /* \"#utility.yul\":2555:2632   */\n    tag_467:\n        /* \"#utility.yul\":2592:2599   */\n      0x00\n        /* \"#utility.yul\":2621:2626   */\n      dup2\n        /* \"#utility.yul\":2610:2626   */\n      swap1\n      pop\n        /* \"#utility.yul\":2555:2632   */\n      swap2\n      swap1\n      pop\n      jump\t// out\n        /* \"#utility.yul\":2638:2760   */\n    tag_468:\n        /* \"#utility.yul\":2711:2735   */\n      tag_564\n        /* \"#utility.yul\":2729:2734   */\n      dup2\n        /* \"#utility.yul\":2711:2735   */\n      tag_467\n      jump\t// in\n    tag_564:\n        /* \"#utility.yul\":2704:2709   */\n      dup2\n        /* \"#utility.yul\":2701:2736   */\n      eq\n        /* \"#utility.yul\":2691:2754   */\n      tag_565\n      jumpi\n        /* \"#utility.yul\":2750:2751   */\n      0x00\n        /* \"#utility.yul\":2747:2748   */\n      dup1\n        /* \"#utility.yul\":2740:2752   */\n      revert\n        /* \"#utility.yul\":2691:2754   */\n    tag_565:\n        /* \"#utility.yul\":2638:2760   */\n      pop\n      jump\t// out\n        /* \"#utility.yul\":2766:2905   */\n    tag_469:\n        /* \"#utility.yul\":2812:2817   */\n      0x00\n        /* \"#utility.yul\":2850:2856   */\n      dup2\n        /* \"#utility.yul\":2837:2857   */\n      calldataload\n        /* \"#utility.yul\":2828:2857   */\n      swap1\n      pop\n        /* \"#utility.yul\":2866:2899   */\n      tag_567\n        /* \"#utility.yul\":2893:2898   */\n      dup2\n        /* \"#utility.yul\":2866:2899   */\n      tag_468\n      jump\t// in\n    tag_567:\n        /* \"#utility.yul\":2766:2905   */\n      swap3\n      swap2\n      pop\n      pop\n      jump\t// out\n        /* \"#utility.yul\":2911:3037   */\n    tag_470:\n        /* \"#utility.yul\":2948:2955   */\n      0x00\n        /* \"#utility.yul\":2988:3030   */\n      0xffffffffffffffffffffffffffffffffffffffff\n        /* \"#utility.yul\":2981:2986   */\n      dup3\n        /* \"#utility.yul\":2977:3031   */\n      and\n        /* \"#utility.yul\":2966:3031   */\n      swap1\n      pop\n        /* \"#utility.yul\":2911:3037   */\n      swap2\n      swap1\n      pop\n      jump\t// out\n        /* \"#utility.yul\":3043:3139   */\n    tag_471:\n        /* \"#utility.yul\":3080:3087   */\n      0x00\n        /* \"#utility.yul\":3109:3133   */\n      tag_570\n        /* \"#utility.yul\":3127:3132   */\n      dup3\n        /* \"#utility.yul\":3109:3133   */\n      tag_470\n      jump\t// in\n    tag_570:\n        /* \"#utility.yul\":3098:3133   */\n      swap1\n      pop\n        /* \"#utility.yul\":3043:3139   */\n      swap2\n      swap1\n      pop\n      jump\t// out\n        /* \"#utility.yul\":3145:3267   */\n    tag_472:\n        /* \"#utility.yul\":3218:3242   */\n      tag_572\n        /* \"#utility.yul\":3236:3241   */\n      dup2\n        /* \"#utility.yul\":3218:3242   */\n      tag_471\n      jump\t// in\n    tag_572:\n        /* \"#utility.yul\":3211:3216   */\n      dup2\n        /* \"#utility.yul\":3208:3243   */\n      eq\n        /* \"#utility.yul\":3198:3261   */\n      tag_573\n      jumpi\n        /* \"#utility.yul\":3257:3258   */\n      0x00\n        /* \"#utility.yul\":3254:3255   */\n      dup1\n        /* \"#utility.yul\":3247:3259   */\n      revert\n        /* \"#utility.yul\":3198:3261   */\n    tag_573:\n        /* \"#utility.yul\":3145:3267   */\n      pop\n      jump\t// out\n        /* \"#utility.yul\":3273:3412   */\n    tag_473:\n        /* \"#utility.yul\":3319:3324   */\n      0x00\n        /* \"#utility.yul\":3357:3363   */\n      dup2\n        /* \"#utility.yul\":3344:3364   */\n      calldataload\n        /* \"#utility.yul\":3335:3364   */\n      swap1\n      pop\n        /* \"#utility.yul\":3373:3406   */\n      tag_575\n        /* \"#utility.yul\":3400:3405   */\n      dup2\n        /* \"#utility.yul\":3373:3406   */\n      tag_472\n      jump\t// in\n    tag_575:\n        /* \"#utility.yul\":3273:3412   */\n      swap3\n      swap2\n      pop\n      pop\n      jump\t// out\n        /* \"#utility.yul\":3418:4217   */\n    tag_14:\n        /* \"#utility.yul\":3505:3511   */\n      0x00\n        /* \"#utility.yul\":3513:3519   */\n      dup1\n        /* \"#utility.yul\":3521:3527   */\n      0x00\n        /* \"#utility.yul\":3570:3572   */\n      0x60\n        /* \"#utility.yul\":3558:3567   */\n      dup5\n        /* \"#utility.yul\":3549:3556   */\n      dup7\n        /* \"#utility.yul\":3545:3568   */\n      sub\n        /* \"#utility.yul\":3541:3573   */\n      slt\n        /* \"#utility.yul\":3538:3657   */\n      iszero\n      tag_577\n      jumpi\n        /* \"#utility.yul\":3576:3655   */\n      tag_578\n      tag_455\n      jump\t// in\n    tag_578:\n        /* \"#utility.yul\":3538:3657   */\n    tag_577:\n        /* \"#utility.yul\":3724:3725   */\n      0x00\n        /* \"#utility.yul\":3713:3722   */\n      dup5\n        /* \"#utility.yul\":3709:3726   */\n      add\n        /* \"#utility.yul\":3696:3727   */\n      calldataload\n        /* \"#utility.yul\":3754:3772   */\n      0xffffffffffffffff\n        /* \"#utility.yul\":3746:3752   */\n      dup2\n        /* \"#utility.yul\":3743:3773   */\n      gt\n        /* \"#utility.yul\":3740:3857   */\n      iszero\n      tag_579\n      jumpi\n        /* \"#utility.yul\":3776:3855   */\n      tag_580\n      tag_456\n      jump\t// in\n    tag_580:\n        /* \"#utility.yul\":3740:3857   */\n    tag_579:\n        /* \"#utility.yul\":3881:3944   */\n      tag_581\n        /* \"#utility.yul\":3936:3943   */\n      dup7\n        /* \"#utility.yul\":3927:3933   */\n      dup3\n        /* \"#utility.yul\":3916:3925   */\n      dup8\n        /* \"#utility.yul\":3912:3934   */\n      add\n        /* \"#utility.yul\":3881:3944   */\n      tag_466\n      jump\t// in\n    tag_581:\n        /* \"#utility.yul\":3871:3944   */\n      swap4\n      pop\n        /* \"#utility.yul\":3667:3954   */\n      pop\n        /* \"#utility.yul\":3993:3995   */\n      0x20\n        /* \"#utility.yul\":4019:4072   */\n      tag_582\n        /* \"#utility.yul\":4064:4071   */\n      dup7\n        /* \"#utility.yul\":4055:4061   */\n      dup3\n        /* \"#utility.yul\":4044:4053   */\n      dup8\n        /* \"#utility.yul\":4040:4062   */\n      add\n        /* \"#utility.yul\":4019:4072   */\n      tag_469\n      jump\t// in\n    tag_582:\n        /* \"#utility.yul\":4009:4072   */\n      swap3\n      pop\n        /* \"#utility.yul\":3964:4082   */\n      pop\n        /* \"#utility.yul\":4121:4123   */\n      0x40\n        /* \"#utility.yul\":4147:4200   */\n      tag_583\n        /* \"#utility.yul\":4192:4199   */\n      dup7\n        /* \"#utility.yul\":4183:4189   */\n      dup3\n        /* \"#utility.yul\":4172:4181   */\n      dup8\n        /* \"#utility.yul\":4168:4190   */\n      add\n        /* \"#utility.yul\":4147:4200   */\n      tag_473\n      jump\t// in\n    tag_583:\n        /* \"#utility.yul\":4137:4200   */\n      swap2\n      pop\n        /* \"#utility.yul\":4092:4210   */\n      pop\n        /* \"#utility.yul\":3418:4217   */\n      swap3\n      pop\n      swap3\n      pop\n      swap3\n      jump\t// out\n        /* \"#utility.yul\":4223:4341   */\n    tag_474:\n        /* \"#utility.yul\":4310:4334   */\n      tag_585\n        /* \"#utility.yul\":4328:4333   */\n      dup2\n        /* \"#utility.yul\":4310:4334   */\n      tag_467\n      jump\t// in\n    tag_585:\n        /* \"#utility.yul\":4305:4308   */\n      dup3\n        /* \"#utility.yul\":4298:4335   */\n      mstore\n        /* \"#utility.yul\":4223:4341   */\n      pop\n      pop\n      jump\t// out\n        /* \"#utility.yul\":4347:4679   */\n    tag_17:\n        /* \"#utility.yul\":4468:4472   */\n      0x00\n        /* \"#utility.yul\":4506:4508   */\n      0x40\n        /* \"#utility.yul\":4495:4504   */\n      dup3\n        /* \"#utility.yul\":4491:4509   */\n      add\n        /* \"#utility.yul\":4483:4509   */\n      swap1\n      pop\n        /* \"#utility.yul\":4519:4590   */\n      tag_587\n        /* \"#utility.yul\":4587:4588   */\n      0x00\n        /* \"#utility.yul\":4576:4585   */\n      dup4\n        /* \"#utility.yul\":4572:4589   */\n      add\n        /* \"#utility.yul\":4563:4569   */\n      dup6\n        /* \"#utility.yul\":4519:4590   */\n      tag_474\n      jump\t// in\n    tag_587:\n        /* \"#utility.yul\":4600:4672   */\n      tag_588\n        /* \"#utility.yul\":4668:4670   */\n      0x20\n        /* \"#utility.yul\":4657:4666   */\n      dup4\n        /* \"#utility.yul\":4653:4671   */\n      add\n        /* \"#utility.yul\":4644:4650   */\n      dup5\n        /* \"#utility.yul\":4600:4672   */\n      tag_474\n      jump\t// in\n    tag_588:\n        /* \"#utility.yul\":4347:4679   */\n      swap4\n      swap3\n      pop\n      pop\n      pop\n      jump\t// out\n        /* \"#utility.yul\":4685:5159   */\n    tag_20:\n        /* \"#utility.yul\":4753:4759   */\n      0x00\n        /* \"#utility.yul\":4761:4767   */\n      dup1\n        /* \"#utility.yul\":4810:4812   */\n      0x40\n        /* \"#utility.yul\":4798:4807   */\n      dup4\n        /* \"#utility.yul\":4789:4796   */\n      dup6\n        /* \"#utility.yul\":4785:4808   */\n      sub\n        /* \"#utility.yul\":4781:4813   */\n      slt\n        /* \"#utility.yul\":4778:4897   */\n      iszero\n      tag_590\n      jumpi\n        /* \"#utility.yul\":4816:4895   */\n      tag_591\n      tag_455\n      jump\t// in\n    tag_591:\n        /* \"#utility.yul\":4778:4897   */\n    tag_590:\n        /* \"#utility.yul\":4936:4937   */\n      0x00\n        /* \"#utility.yul\":4961:5014   */\n      tag_592\n        /* \"#utility.yul\":5006:5013   */\n      dup6\n        /* \"#utility.yul\":4997:5003   */\n      dup3\n        /* \"#utility.yul\":4986:4995   */\n      dup7\n        /* \"#utility.yul\":4982:5004   */\n      add\n        /* \"#utility.yul\":4961:5014   */\n      tag_469\n      jump\t// in\n    tag_592:\n        /* \"#utility.yul\":4951:5014   */\n      swap3\n      pop\n        /* \"#utility.yul\":4907:5024   */\n      pop\n        /* \"#utility.yul\":5063:5065   */\n      0x20\n        /* \"#utility.yul\":5089:5142   */\n      tag_593\n        /* \"#utility.yul\":5134:5141   */\n      dup6\n        /* \"#utility.yul\":5125:5131   */\n      dup3\n        /* \"#utility.yul\":5114:5123   */\n      dup7\n        /* \"#utility.yul\":5110:5132   */\n      add\n        /* \"#utility.yul\":5089:5142   */\n      tag_469\n      jump\t// in\n    tag_593:\n        /* \"#utility.yul\":5079:5142   */\n      swap2\n      pop\n        /* \"#utility.yul\":5034:5152   */\n      pop\n        /* \"#utility.yul\":4685:5159   */\n      swap3\n      pop\n      swap3\n      swap1\n      pop\n      jump\t// out\n        /* \"#utility.yul\":5165:5255   */\n    tag_475:\n        /* \"#utility.yul\":5199:5206   */\n      0x00\n        /* \"#utility.yul\":5242:5247   */\n      dup2\n        /* \"#utility.yul\":5235:5248   */\n      iszero\n        /* \"#utility.yul\":5228:5249   */\n      iszero\n        /* \"#utility.yul\":5217:5249   */\n      swap1\n      pop\n        /* \"#utility.yul\":5165:5255   */\n      swap2\n      swap1\n      pop\n      jump\t// out\n        /* \"#utility.yul\":5261:5370   */\n    tag_476:\n        /* \"#utility.yul\":5342:5363   */\n      tag_596\n        /* \"#utility.yul\":5357:5362   */\n      dup2\n        /* \"#utility.yul\":5342:5363   */\n      tag_475\n      jump\t// in\n    tag_596:\n        /* \"#utility.yul\":5337:5340   */\n      dup3\n        /* \"#utility.yul\":5330:5364   */\n      mstore\n        /* \"#utility.yul\":5261:5370   */\n      pop\n      pop\n      jump\t// out\n        /* \"#utility.yul\":5376:5586   */\n    tag_23:\n        /* \"#utility.yul\":5463:5467   */\n      0x00\n        /* \"#utility.yul\":5501:5503   */\n      0x20\n        /* \"#utility.yul\":5490:5499   */\n      dup3\n        /* \"#utility.yul\":5486:5504   */\n      add\n        /* \"#utility.yul\":5478:5504   */\n      swap1\n      pop\n        /* \"#utility.yul\":5514:5579   */\n      tag_598\n        /* \"#utility.yul\":5576:5577   */\n      0x00\n        /* \"#utility.yul\":5565:5574   */\n      dup4\n        /* \"#utility.yul\":5561:5578   */\n      add\n        /* \"#utility.yul\":5552:5558   */\n      dup5\n        /* \"#utility.yul\":5514:5579   */\n      tag_476\n      jump\t// in\n    tag_598:\n        /* \"#utility.yul\":5376:5586   */\n      swap3\n      swap2\n      pop\n      pop\n      jump\t// out\n        /* \"#utility.yul\":5592:5700   */\n    tag_477:\n        /* \"#utility.yul\":5669:5693   */\n      tag_600\n        /* \"#utility.yul\":5687:5692   */\n      dup2\n        /* \"#utility.yul\":5669:5693   */\n      tag_467\n      jump\t// in\n    tag_600:\n        /* \"#utility.yul\":5664:5667   */\n      dup3\n        /* \"#utility.yul\":5657:5694   */\n      mstore\n        /* \"#utility.yul\":5592:5700   */\n      pop\n      pop\n      jump\t// out\n        /* \"#utility.yul\":5706:5805   */\n    tag_478:\n        /* \"#utility.yul\":5758:5764   */\n      0x00\n        /* \"#utility.yul\":5792:5797   */\n      dup2\n        /* \"#utility.yul\":5786:5798   */\n      mload\n        /* \"#utility.yul\":5776:5798   */\n      swap1\n      pop\n        /* \"#utility.yul\":5706:5805   */\n      swap2\n      swap1\n      pop\n      jump\t// out\n        /* \"#utility.yul\":5811:5970   */\n    tag_479:\n        /* \"#utility.yul\":5885:5896   */\n      0x00\n        /* \"#utility.yul\":5919:5925   */\n      dup3\n        /* \"#utility.yul\":5914:5917   */\n      dup3\n        /* \"#utility.yul\":5907:5926   */\n      mstore\n        /* \"#utility.yul\":5959:5963   */\n      0x20\n        /* \"#utility.yul\":5954:5957   */\n      dup3\n        /* \"#utility.yul\":5950:5964   */\n      add\n        /* \"#utility.yul\":5935:5964   */\n      swap1\n      pop\n        /* \"#utility.yul\":5811:5970   */\n      swap3\n      swap2\n      pop\n      pop\n      jump\t// out\n        /* \"#utility.yul\":5976:6115   */\n    tag_480:\n        /* \"#utility.yul\":6065:6071   */\n      dup3\n        /* \"#utility.yul\":6060:6063   */\n      dup2\n        /* \"#utility.yul\":6055:6058   */\n      dup4\n        /* \"#utility.yul\":6049:6072   */\n      mcopy\n        /* \"#utility.yul\":6106:6107   */\n      0x00\n        /* \"#utility.yul\":6097:6103   */\n      dup4\n        /* \"#utility.yul\":6092:6095   */\n      dup4\n        /* \"#utility.yul\":6088:6104   */\n      add\n        /* \"#utility.yul\":6081:6108   */\n      mstore\n        /* \"#utility.yul\":5976:6115   */\n      pop\n      pop\n      pop\n      jump\t// out\n        /* \"#utility.yul\":6121:6478   */\n    tag_481:\n        /* \"#utility.yul\":6199:6202   */\n      0x00\n        /* \"#utility.yul\":6227:6266   */\n      tag_605\n        /* \"#utility.yul\":6260:6265   */\n      dup3\n        /* \"#utility.yul\":6227:6266   */\n      tag_478\n      jump\t// in\n    tag_605:\n        /* \"#utility.yul\":6282:6343   */\n      tag_606\n        /* \"#utility.yul\":6336:6342   */\n      dup2\n        /* \"#utility.yul\":6331:6334   */\n      dup6\n        /* \"#utility.yul\":6282:6343   */\n      tag_479\n      jump\t// in\n    tag_606:\n        /* \"#utility.yul\":6275:6343   */\n      swap4\n      pop\n        /* \"#utility.yul\":6352:6417   */\n      tag_607\n        /* \"#utility.yul\":6410:6416   */\n      dup2\n        /* \"#utility.yul\":6405:6408   */\n      dup6\n        /* \"#utility.yul\":6398:6402   */\n      0x20\n        /* \"#utility.yul\":6391:6396   */\n      dup7\n        /* \"#utility.yul\":6387:6403   */\n      add\n        /* \"#utility.yul\":6352:6417   */\n      tag_480\n      jump\t// in\n    tag_607:\n        /* \"#utility.yul\":6442:6471   */\n      tag_608\n        /* \"#utility.yul\":6464:6470   */\n      dup2\n        /* \"#utility.yul\":6442:6471   */\n      tag_459\n      jump\t// in\n    tag_608:\n        /* \"#utility.yul\":6437:6440   */\n      dup5\n        /* \"#utility.yul\":6433:6472   */\n      add\n        /* \"#utility.yul\":6426:6472   */\n      swap2\n      pop\n        /* \"#utility.yul\":6203:6478   */\n      pop\n        /* \"#utility.yul\":6121:6478   */\n      swap3\n      swap2\n      pop\n      pop\n      jump\t// out\n        /* \"#utility.yul\":6484:6592   */\n    tag_482:\n        /* \"#utility.yul\":6561:6585   */\n      tag_610\n        /* \"#utility.yul\":6579:6584   */\n      dup2\n        /* \"#utility.yul\":6561:6585   */\n      tag_471\n      jump\t// in\n    tag_610:\n        /* \"#utility.yul\":6556:6559   */\n      dup3\n        /* \"#utility.yul\":6549:6586   */\n      mstore\n        /* \"#utility.yul\":6484:6592   */\n      pop\n      pop\n      jump\t// out\n        /* \"#utility.yul\":6598:6778   */\n    tag_100:\n        /* \"#utility.yul\":6646:6723   */\n      0x4e487b7100000000000000000000000000000000000000000000000000000000\n        /* \"#utility.yul\":6643:6644   */\n      0x00\n        /* \"#utility.yul\":6636:6724   */\n      mstore\n        /* \"#utility.yul\":6743:6747   */\n      0x21\n        /* \"#utility.yul\":6740:6741   */\n      0x04\n        /* \"#utility.yul\":6733:6748   */\n      mstore\n        /* \"#utility.yul\":6767:6771   */\n      0x24\n        /* \"#utility.yul\":6764:6765   */\n      0x00\n        /* \"#utility.yul\":6757:6772   */\n      revert\n        /* \"#utility.yul\":6784:6895   */\n    tag_483:\n        /* \"#utility.yul\":6863:6864   */\n      0x03\n        /* \"#utility.yul\":6856:6861   */\n      dup2\n        /* \"#utility.yul\":6853:6865   */\n      lt\n        /* \"#utility.yul\":6843:6889   */\n      tag_613\n      jumpi\n        /* \"#utility.yul\":6869:6887   */\n      tag_614\n      tag_100\n      jump\t// in\n    tag_614:\n        /* \"#utility.yul\":6843:6889   */\n    tag_613:\n        /* \"#utility.yul\":6784:6895   */\n      pop\n      jump\t// out\n        /* \"#utility.yul\":6901:7024   */\n    tag_484:\n        /* \"#utility.yul\":6944:6951   */\n      0x00\n        /* \"#utility.yul\":6973:6978   */\n      dup2\n        /* \"#utility.yul\":6962:6978   */\n      swap1\n      pop\n        /* \"#utility.yul\":6979:7018   */\n      tag_616\n        /* \"#utility.yul\":7012:7017   */\n      dup3\n        /* \"#utility.yul\":6979:7018   */\n      tag_483\n      jump\t// in\n    tag_616:\n        /* \"#utility.yul\":6901:7024   */\n      swap2\n      swap1\n      pop\n      jump\t// out\n        /* \"#utility.yul\":7030:7153   */\n    tag_485:\n        /* \"#utility.yul\":7084:7093   */\n      0x00\n        /* \"#utility.yul\":7117:7147   */\n      tag_618\n        /* \"#utility.yul\":7141:7146   */\n      dup3\n        /* \"#utility.yul\":7117:7147   */\n      tag_484\n      jump\t// in\n    tag_618:\n        /* \"#utility.yul\":7104:7147   */\n      swap1\n      pop\n        /* \"#utility.yul\":7030:7153   */\n      swap2\n      swap1\n      pop\n      jump\t// out\n        /* \"#utility.yul\":7159:7288   */\n    tag_486:\n        /* \"#utility.yul\":7240:7281   */\n      tag_620\n        /* \"#utility.yul\":7275:7280   */\n      dup2\n        /* \"#utility.yul\":7240:7281   */\n      tag_485\n      jump\t// in\n    tag_620:\n        /* \"#utility.yul\":7235:7238   */\n      dup3\n        /* \"#utility.yul\":7228:7282   */\n      mstore\n        /* \"#utility.yul\":7159:7288   */\n      pop\n      pop\n      jump\t// out\n        /* \"#utility.yul\":7294:7406   */\n    tag_487:\n        /* \"#utility.yul\":7374:7375   */\n      0x03\n        /* \"#utility.yul\":7367:7372   */\n      dup2\n        /* \"#utility.yul\":7364:7376   */\n      lt\n        /* \"#utility.yul\":7354:7400   */\n      tag_622\n      jumpi\n        /* \"#utility.yul\":7380:7398   */\n      tag_623\n      tag_100\n      jump\t// in\n    tag_623:\n        /* \"#utility.yul\":7354:7400   */\n    tag_622:\n        /* \"#utility.yul\":7294:7406   */\n      pop\n      jump\t// out\n        /* \"#utility.yul\":7412:7537   */\n    tag_488:\n        /* \"#utility.yul\":7456:7463   */\n      0x00\n        /* \"#utility.yul\":7485:7490   */\n      dup2\n        /* \"#utility.yul\":7474:7490   */\n      swap1\n      pop\n        /* \"#utility.yul\":7491:7531   */\n      tag_625\n        /* \"#utility.yul\":7525:7530   */\n      dup3\n        /* \"#utility.yul\":7491:7531   */\n      tag_487\n      jump\t// in\n    tag_625:\n        /* \"#utility.yul\":7412:7537   */\n      swap2\n      swap1\n      pop\n      jump\t// out\n        /* \"#utility.yul\":7543:7668   */\n    tag_489:\n        /* \"#utility.yul\":7598:7607   */\n      0x00\n        /* \"#utility.yul\":7631:7662   */\n      tag_627\n        /* \"#utility.yul\":7656:7661   */\n      dup3\n        /* \"#utility.yul\":7631:7662   */\n      tag_488\n      jump\t// in\n    tag_627:\n        /* \"#utility.yul\":7618:7662   */\n      swap1\n      pop\n        /* \"#utility.yul\":7543:7668   */\n      swap2\n      swap1\n      pop\n      jump\t// out\n        /* \"#utility.yul\":7674:7805   */\n    tag_490:\n        /* \"#utility.yul\":7756:7798   */\n      tag_629\n        /* \"#utility.yul\":7792:7797   */\n      dup2\n        /* \"#utility.yul\":7756:7798   */\n      tag_489\n      jump\t// in\n    tag_629:\n        /* \"#utility.yul\":7751:7754   */\n      dup3\n        /* \"#utility.yul\":7744:7799   */\n      mstore\n        /* \"#utility.yul\":7674:7805   */\n      pop\n      pop\n      jump\t// out\n        /* \"#utility.yul\":7889:8761   */\n    tag_491:\n        /* \"#utility.yul\":8028:8032   */\n      0x80\n        /* \"#utility.yul\":8023:8026   */\n      dup3\n        /* \"#utility.yul\":8019:8033   */\n      add\n        /* \"#utility.yul\":8115:8119   */\n      0x00\n        /* \"#utility.yul\":8108:8113   */\n      dup3\n        /* \"#utility.yul\":8104:8120   */\n      add\n        /* \"#utility.yul\":8098:8121   */\n      mload\n        /* \"#utility.yul\":8134:8201   */\n      tag_631\n        /* \"#utility.yul\":8195:8199   */\n      0x00\n        /* \"#utility.yul\":8190:8193   */\n      dup6\n        /* \"#utility.yul\":8186:8200   */\n      add\n        /* \"#utility.yul\":8172:8184   */\n      dup3\n        /* \"#utility.yul\":8134:8201   */\n      tag_486\n      jump\t// in\n    tag_631:\n        /* \"#utility.yul\":8043:8211   */\n      pop\n        /* \"#utility.yul\":8294:8298   */\n      0x20\n        /* \"#utility.yul\":8287:8292   */\n      dup3\n        /* \"#utility.yul\":8283:8299   */\n      add\n        /* \"#utility.yul\":8277:8300   */\n      mload\n        /* \"#utility.yul\":8313:8381   */\n      tag_632\n        /* \"#utility.yul\":8375:8379   */\n      0x20\n        /* \"#utility.yul\":8370:8373   */\n      dup6\n        /* \"#utility.yul\":8366:8380   */\n      add\n        /* \"#utility.yul\":8352:8364   */\n      dup3\n        /* \"#utility.yul\":8313:8381   */\n      tag_490\n      jump\t// in\n    tag_632:\n        /* \"#utility.yul\":8221:8391   */\n      pop\n        /* \"#utility.yul\":8480:8484   */\n      0x40\n        /* \"#utility.yul\":8473:8478   */\n      dup3\n        /* \"#utility.yul\":8469:8485   */\n      add\n        /* \"#utility.yul\":8463:8486   */\n      mload\n        /* \"#utility.yul\":8499:8562   */\n      tag_633\n        /* \"#utility.yul\":8556:8560   */\n      0x40\n        /* \"#utility.yul\":8551:8554   */\n      dup6\n        /* \"#utility.yul\":8547:8561   */\n      add\n        /* \"#utility.yul\":8533:8545   */\n      dup3\n        /* \"#utility.yul\":8499:8562   */\n      tag_477\n      jump\t// in\n    tag_633:\n        /* \"#utility.yul\":8401:8572   */\n      pop\n        /* \"#utility.yul\":8662:8666   */\n      0x60\n        /* \"#utility.yul\":8655:8660   */\n      dup3\n        /* \"#utility.yul\":8651:8667   */\n      add\n        /* \"#utility.yul\":8645:8668   */\n      mload\n        /* \"#utility.yul\":8681:8744   */\n      tag_634\n        /* \"#utility.yul\":8738:8742   */\n      0x60\n        /* \"#utility.yul\":8733:8736   */\n      dup6\n        /* \"#utility.yul\":8729:8743   */\n      add\n        /* \"#utility.yul\":8715:8727   */\n      dup3\n        /* \"#utility.yul\":8681:8744   */\n      tag_477\n      jump\t// in\n    tag_634:\n        /* \"#utility.yul\":8582:8754   */\n      pop\n        /* \"#utility.yul\":7997:8761   */\n      pop\n        /* \"#utility.yul\":7889:8761   */\n      pop\n      pop\n      jump\t// out\n        /* \"#utility.yul\":8853:9733   */\n    tag_492:\n        /* \"#utility.yul\":9000:9004   */\n      0x80\n        /* \"#utility.yul\":8995:8998   */\n      dup3\n        /* \"#utility.yul\":8991:9005   */\n      add\n        /* \"#utility.yul\":9087:9091   */\n      0x00\n        /* \"#utility.yul\":9080:9085   */\n      dup3\n        /* \"#utility.yul\":9076:9092   */\n      add\n        /* \"#utility.yul\":9070:9093   */\n      mload\n        /* \"#utility.yul\":9106:9173   */\n      tag_636\n        /* \"#utility.yul\":9167:9171   */\n      0x00\n        /* \"#utility.yul\":9162:9165   */\n      dup6\n        /* \"#utility.yul\":9158:9172   */\n      add\n        /* \"#utility.yul\":9144:9156   */\n      dup3\n        /* \"#utility.yul\":9106:9173   */\n      tag_486\n      jump\t// in\n    tag_636:\n        /* \"#utility.yul\":9015:9183   */\n      pop\n        /* \"#utility.yul\":9266:9270   */\n      0x20\n        /* \"#utility.yul\":9259:9264   */\n      dup3\n        /* \"#utility.yul\":9255:9271   */\n      add\n        /* \"#utility.yul\":9249:9272   */\n      mload\n        /* \"#utility.yul\":9285:9353   */\n      tag_637\n        /* \"#utility.yul\":9347:9351   */\n      0x20\n        /* \"#utility.yul\":9342:9345   */\n      dup6\n        /* \"#utility.yul\":9338:9352   */\n      add\n        /* \"#utility.yul\":9324:9336   */\n      dup3\n        /* \"#utility.yul\":9285:9353   */\n      tag_490\n      jump\t// in\n    tag_637:\n        /* \"#utility.yul\":9193:9363   */\n      pop\n        /* \"#utility.yul\":9452:9456   */\n      0x40\n        /* \"#utility.yul\":9445:9450   */\n      dup3\n        /* \"#utility.yul\":9441:9457   */\n      add\n        /* \"#utility.yul\":9435:9458   */\n      mload\n        /* \"#utility.yul\":9471:9534   */\n      tag_638\n        /* \"#utility.yul\":9528:9532   */\n      0x40\n        /* \"#utility.yul\":9523:9526   */\n      dup6\n        /* \"#utility.yul\":9519:9533   */\n      add\n        /* \"#utility.yul\":9505:9517   */\n      dup3\n        /* \"#utility.yul\":9471:9534   */\n      tag_477\n      jump\t// in\n    tag_638:\n        /* \"#utility.yul\":9373:9544   */\n      pop\n        /* \"#utility.yul\":9634:9638   */\n      0x60\n        /* \"#utility.yul\":9627:9632   */\n      dup3\n        /* \"#utility.yul\":9623:9639   */\n      add\n        /* \"#utility.yul\":9617:9640   */\n      mload\n        /* \"#utility.yul\":9653:9716   */\n      tag_639\n        /* \"#utility.yul\":9710:9714   */\n      0x60\n        /* \"#utility.yul\":9705:9708   */\n      dup6\n        /* \"#utility.yul\":9701:9715   */\n      add\n        /* \"#utility.yul\":9687:9699   */\n      dup3\n        /* \"#utility.yul\":9653:9716   */\n      tag_477\n      jump\t// in\n    tag_639:\n        /* \"#utility.yul\":9554:9726   */\n      pop\n        /* \"#utility.yul\":8969:9733   */\n      pop\n        /* \"#utility.yul\":8853:9733   */\n      pop\n      pop\n      jump\t// out\n        /* \"#utility.yul\":9739:9852   */\n    tag_493:\n        /* \"#utility.yul\":9820:9821   */\n      0x03\n        /* \"#utility.yul\":9813:9818   */\n      dup2\n        /* \"#utility.yul\":9810:9822   */\n      lt\n        /* \"#utility.yul\":9800:9846   */\n      tag_641\n      jumpi\n        /* \"#utility.yul\":9826:9844   */\n      tag_642\n      tag_100\n      jump\t// in\n    tag_642:\n        /* \"#utility.yul\":9800:9846   */\n    tag_641:\n        /* \"#utility.yul\":9739:9852   */\n      pop\n      jump\t// out\n        /* \"#utility.yul\":9858:9985   */\n    tag_494:\n        /* \"#utility.yul\":9903:9910   */\n      0x00\n        /* \"#utility.yul\":9932:9937   */\n      dup2\n        /* \"#utility.yul\":9921:9937   */\n      swap1\n      pop\n        /* \"#utility.yul\":9938:9979   */\n      tag_644\n        /* \"#utility.yul\":9973:9978   */\n      dup3\n        /* \"#utility.yul\":9938:9979   */\n      tag_493\n      jump\t// in\n    tag_644:\n        /* \"#utility.yul\":9858:9985   */\n      swap2\n      swap1\n      pop\n      jump\t// out\n        /* \"#utility.yul\":9991:10118   */\n    tag_495:\n        /* \"#utility.yul\":10047:10056   */\n      0x00\n        /* \"#utility.yul\":10080:10112   */\n      tag_646\n        /* \"#utility.yul\":10106:10111   */\n      dup3\n        /* \"#utility.yul\":10080:10112   */\n      tag_494\n      jump\t// in\n    tag_646:\n        /* \"#utility.yul\":10067:10112   */\n      swap1\n      pop\n        /* \"#utility.yul\":9991:10118   */\n      swap2\n      swap1\n      pop\n      jump\t// out\n        /* \"#utility.yul\":10124:10257   */\n    tag_496:\n        /* \"#utility.yul\":10207:10250   */\n      tag_648\n        /* \"#utility.yul\":10244:10249   */\n      dup2\n        /* \"#utility.yul\":10207:10250   */\n      tag_495\n      jump\t// in\n    tag_648:\n        /* \"#utility.yul\":10202:10205   */\n      dup3\n        /* \"#utility.yul\":10195:10251   */\n      mstore\n        /* \"#utility.yul\":10124:10257   */\n      pop\n      pop\n      jump\t// out\n        /* \"#utility.yul\":10347:11231   */\n    tag_497:\n        /* \"#utility.yul\":10492:10496   */\n      0x80\n        /* \"#utility.yul\":10487:10490   */\n      dup3\n        /* \"#utility.yul\":10483:10497   */\n      add\n        /* \"#utility.yul\":10579:10583   */\n      0x00\n        /* \"#utility.yul\":10572:10577   */\n      dup3\n        /* \"#utility.yul\":10568:10584   */\n      add\n        /* \"#utility.yul\":10562:10585   */\n      mload\n        /* \"#utility.yul\":10598:10665   */\n      tag_650\n        /* \"#utility.yul\":10659:10663   */\n      0x00\n        /* \"#utility.yul\":10654:10657   */\n      dup6\n        /* \"#utility.yul\":10650:10664   */\n      add\n        /* \"#utility.yul\":10636:10648   */\n      dup3\n        /* \"#utility.yul\":10598:10665   */\n      tag_486\n      jump\t// in\n    tag_650:\n        /* \"#utility.yul\":10507:10675   */\n      pop\n        /* \"#utility.yul\":10763:10767   */\n      0x20\n        /* \"#utility.yul\":10756:10761   */\n      dup3\n        /* \"#utility.yul\":10752:10768   */\n      add\n        /* \"#utility.yul\":10746:10769   */\n      mload\n        /* \"#utility.yul\":10782:10851   */\n      tag_651\n        /* \"#utility.yul\":10845:10849   */\n      0x20\n        /* \"#utility.yul\":10840:10843   */\n      dup6\n        /* \"#utility.yul\":10836:10850   */\n      add\n        /* \"#utility.yul\":10822:10834   */\n      dup3\n        /* \"#utility.yul\":10782:10851   */\n      tag_496\n      jump\t// in\n    tag_651:\n        /* \"#utility.yul\":10685:10861   */\n      pop\n        /* \"#utility.yul\":10950:10954   */\n      0x40\n        /* \"#utility.yul\":10943:10948   */\n      dup3\n        /* \"#utility.yul\":10939:10955   */\n      add\n        /* \"#utility.yul\":10933:10956   */\n      mload\n        /* \"#utility.yul\":10969:11032   */\n      tag_652\n        /* \"#utility.yul\":11026:11030   */\n      0x40\n        /* \"#utility.yul\":11021:11024   */\n      dup6\n        /* \"#utility.yul\":11017:11031   */\n      add\n        /* \"#utility.yul\":11003:11015   */\n      dup3\n        /* \"#utility.yul\":10969:11032   */\n      tag_477\n      jump\t// in\n    tag_652:\n        /* \"#utility.yul\":10871:11042   */\n      pop\n        /* \"#utility.yul\":11132:11136   */\n      0x60\n        /* \"#utility.yul\":11125:11130   */\n      dup3\n        /* \"#utility.yul\":11121:11137   */\n      add\n        /* \"#utility.yul\":11115:11138   */\n      mload\n        /* \"#utility.yul\":11151:11214   */\n      tag_653\n        /* \"#utility.yul\":11208:11212   */\n      0x60\n        /* \"#utility.yul\":11203:11206   */\n      dup6\n        /* \"#utility.yul\":11199:11213   */\n      add\n        /* \"#utility.yul\":11185:11197   */\n      dup3\n        /* \"#utility.yul\":11151:11214   */\n      tag_477\n      jump\t// in\n    tag_653:\n        /* \"#utility.yul\":11052:11224   */\n      pop\n        /* \"#utility.yul\":10461:11231   */\n      pop\n        /* \"#utility.yul\":10347:11231   */\n      pop\n      pop\n      jump\t// out\n        /* \"#utility.yul\":11237:11349   */\n    tag_498:\n        /* \"#utility.yul\":11317:11318   */\n      0x03\n        /* \"#utility.yul\":11310:11315   */\n      dup2\n        /* \"#utility.yul\":11307:11319   */\n      lt\n        /* \"#utility.yul\":11297:11343   */\n      tag_655\n      jumpi\n        /* \"#utility.yul\":11323:11341   */\n      tag_656\n      tag_100\n      jump\t// in\n    tag_656:\n        /* \"#utility.yul\":11297:11343   */\n    tag_655:\n        /* \"#utility.yul\":11237:11349   */\n      pop\n      jump\t// out\n        /* \"#utility.yul\":11355:11480   */\n    tag_499:\n        /* \"#utility.yul\":11399:11406   */\n      0x00\n        /* \"#utility.yul\":11428:11433   */\n      dup2\n        /* \"#utility.yul\":11417:11433   */\n      swap1\n      pop\n        /* \"#utility.yul\":11434:11474   */\n      tag_658\n        /* \"#utility.yul\":11468:11473   */\n      dup3\n        /* \"#utility.yul\":11434:11474   */\n      tag_498\n      jump\t// in\n    tag_658:\n        /* \"#utility.yul\":11355:11480   */\n      swap2\n      swap1\n      pop\n      jump\t// out\n        /* \"#utility.yul\":11486:11611   */\n    tag_500:\n        /* \"#utility.yul\":11541:11550   */\n      0x00\n        /* \"#utility.yul\":11574:11605   */\n      tag_660\n        /* \"#utility.yul\":11599:11604   */\n      dup3\n        /* \"#utility.yul\":11574:11605   */\n      tag_499\n      jump\t// in\n    tag_660:\n        /* \"#utility.yul\":11561:11605   */\n      swap1\n      pop\n        /* \"#utility.yul\":11486:11611   */\n      swap2\n      swap1\n      pop\n      jump\t// out\n        /* \"#utility.yul\":11617:11748   */\n    tag_501:\n        /* \"#utility.yul\":11699:11741   */\n      tag_662\n        /* \"#utility.yul\":11735:11740   */\n      dup2\n        /* \"#utility.yul\":11699:11741   */\n      tag_500\n      jump\t// in\n    tag_662:\n        /* \"#utility.yul\":11694:11697   */\n      dup3\n        /* \"#utility.yul\":11687:11742   */\n      mstore\n        /* \"#utility.yul\":11617:11748   */\n      pop\n      pop\n      jump\t// out\n        /* \"#utility.yul\":11840:12721   */\n    tag_502:\n        /* \"#utility.yul\":11987:11991   */\n      0x80\n        /* \"#utility.yul\":11982:11985   */\n      dup3\n        /* \"#utility.yul\":11978:11992   */\n      add\n        /* \"#utility.yul\":12074:12078   */\n      0x00\n        /* \"#utility.yul\":12067:12072   */\n      dup3\n        /* \"#utility.yul\":12063:12079   */\n      add\n        /* \"#utility.yul\":12057:12080   */\n      mload\n        /* \"#utility.yul\":12093:12161   */\n      tag_664\n        /* \"#utility.yul\":12155:12159   */\n      0x00\n        /* \"#utility.yul\":12150:12153   */\n      dup6\n        /* \"#utility.yul\":12146:12160   */\n      add\n        /* \"#utility.yul\":12132:12144   */\n      dup3\n        /* \"#utility.yul\":12093:12161   */\n      tag_501\n      jump\t// in\n    tag_664:\n        /* \"#utility.yul\":12002:12171   */\n      pop\n        /* \"#utility.yul\":12254:12258   */\n      0x20\n        /* \"#utility.yul\":12247:12252   */\n      dup3\n        /* \"#utility.yul\":12243:12259   */\n      add\n        /* \"#utility.yul\":12237:12260   */\n      mload\n        /* \"#utility.yul\":12273:12341   */\n      tag_665\n        /* \"#utility.yul\":12335:12339   */\n      0x20\n        /* \"#utility.yul\":12330:12333   */\n      dup6\n        /* \"#utility.yul\":12326:12340   */\n      add\n        /* \"#utility.yul\":12312:12324   */\n      dup3\n        /* \"#utility.yul\":12273:12341   */\n      tag_490\n      jump\t// in\n    tag_665:\n        /* \"#utility.yul\":12181:12351   */\n      pop\n        /* \"#utility.yul\":12440:12444   */\n      0x40\n        /* \"#utility.yul\":12433:12438   */\n      dup3\n        /* \"#utility.yul\":12429:12445   */\n      add\n        /* \"#utility.yul\":12423:12446   */\n      mload\n        /* \"#utility.yul\":12459:12522   */\n      tag_666\n        /* \"#utility.yul\":12516:12520   */\n      0x40\n        /* \"#utility.yul\":12511:12514   */\n      dup6\n        /* \"#utility.yul\":12507:12521   */\n      add\n        /* \"#utility.yul\":12493:12505   */\n      dup3\n        /* \"#utility.yul\":12459:12522   */\n      tag_477\n      jump\t// in\n    tag_666:\n        /* \"#utility.yul\":12361:12532   */\n      pop\n        /* \"#utility.yul\":12622:12626   */\n      0x60\n        /* \"#utility.yul\":12615:12620   */\n      dup3\n        /* \"#utility.yul\":12611:12627   */\n      add\n        /* \"#utility.yul\":12605:12628   */\n      mload\n        /* \"#utility.yul\":12641:12704   */\n      tag_667\n        /* \"#utility.yul\":12698:12702   */\n      0x60\n        /* \"#utility.yul\":12693:12696   */\n      dup6\n        /* \"#utility.yul\":12689:12703   */\n      add\n        /* \"#utility.yul\":12675:12687   */\n      dup3\n        /* \"#utility.yul\":12641:12704   */\n      tag_477\n      jump\t// in\n    tag_667:\n        /* \"#utility.yul\":12542:12714   */\n      pop\n        /* \"#utility.yul\":11956:12721   */\n      pop\n        /* \"#utility.yul\":11840:12721   */\n      pop\n      pop\n      jump\t// out\n        /* \"#utility.yul\":12813:13693   */\n    tag_503:\n        /* \"#utility.yul\":12960:12964   */\n      0x80\n        /* \"#utility.yul\":12955:12958   */\n      dup3\n        /* \"#utility.yul\":12951:12965   */\n      add\n        /* \"#utility.yul\":13047:13051   */\n      0x00\n        /* \"#utility.yul\":13040:13045   */\n      dup3\n        /* \"#utility.yul\":13036:13052   */\n      add\n        /* \"#utility.yul\":13030:13053   */\n      mload\n        /* \"#utility.yul\":13066:13133   */\n      tag_669\n        /* \"#utility.yul\":13127:13131   */\n      0x00\n        /* \"#utility.yul\":13122:13125   */\n      dup6\n        /* \"#utility.yul\":13118:13132   */\n      add\n        /* \"#utility.yul\":13104:13116   */\n      dup3\n        /* \"#utility.yul\":13066:13133   */\n      tag_486\n      jump\t// in\n    tag_669:\n        /* \"#utility.yul\":12975:13143   */\n      pop\n        /* \"#utility.yul\":13226:13230   */\n      0x20\n        /* \"#utility.yul\":13219:13224   */\n      dup3\n        /* \"#utility.yul\":13215:13231   */\n      add\n        /* \"#utility.yul\":13209:13232   */\n      mload\n        /* \"#utility.yul\":13245:13313   */\n      tag_670\n        /* \"#utility.yul\":13307:13311   */\n      0x20\n        /* \"#utility.yul\":13302:13305   */\n      dup6\n        /* \"#utility.yul\":13298:13312   */\n      add\n        /* \"#utility.yul\":13284:13296   */\n      dup3\n        /* \"#utility.yul\":13245:13313   */\n      tag_490\n      jump\t// in\n    tag_670:\n        /* \"#utility.yul\":13153:13323   */\n      pop\n        /* \"#utility.yul\":13412:13416   */\n      0x40\n        /* \"#utility.yul\":13405:13410   */\n      dup3\n        /* \"#utility.yul\":13401:13417   */\n      add\n        /* \"#utility.yul\":13395:13418   */\n      mload\n        /* \"#utility.yul\":13431:13494   */\n      tag_671\n        /* \"#utility.yul\":13488:13492   */\n      0x40\n        /* \"#utility.yul\":13483:13486   */\n      dup6\n        /* \"#utility.yul\":13479:13493   */\n      add\n        /* \"#utility.yul\":13465:13477   */\n      dup3\n        /* \"#utility.yul\":13431:13494   */\n      tag_477\n      jump\t// in\n    tag_671:\n        /* \"#utility.yul\":13333:13504   */\n      pop\n        /* \"#utility.yul\":13594:13598   */\n      0x60\n        /* \"#utility.yul\":13587:13592   */\n      dup3\n        /* \"#utility.yul\":13583:13599   */\n      add\n        /* \"#utility.yul\":13577:13600   */\n      mload\n        /* \"#utility.yul\":13613:13676   */\n      tag_672\n        /* \"#utility.yul\":13670:13674   */\n      0x60\n        /* \"#utility.yul\":13665:13668   */\n      dup6\n        /* \"#utility.yul\":13661:13675   */\n      add\n        /* \"#utility.yul\":13647:13659   */\n      dup3\n        /* \"#utility.yul\":13613:13676   */\n      tag_477\n      jump\t// in\n    tag_672:\n        /* \"#utility.yul\":13514:13686   */\n      pop\n        /* \"#utility.yul\":12929:13693   */\n      pop\n        /* \"#utility.yul\":12813:13693   */\n      pop\n      pop\n      jump\t// out\n        /* \"#utility.yul\":13769:16119   */\n    tag_504:\n        /* \"#utility.yul\":13884:13887   */\n      0x00\n        /* \"#utility.yul\":13920:13926   */\n      0x0320\n        /* \"#utility.yul\":13915:13918   */\n      dup4\n        /* \"#utility.yul\":13911:13927   */\n      add\n        /* \"#utility.yul\":14007:14011   */\n      0x00\n        /* \"#utility.yul\":14000:14005   */\n      dup4\n        /* \"#utility.yul\":13996:14012   */\n      add\n        /* \"#utility.yul\":13990:14013   */\n      mload\n        /* \"#utility.yul\":14026:14089   */\n      tag_674\n        /* \"#utility.yul\":14083:14087   */\n      0x00\n        /* \"#utility.yul\":14078:14081   */\n      dup7\n        /* \"#utility.yul\":14074:14088   */\n      add\n        /* \"#utility.yul\":14060:14072   */\n      dup3\n        /* \"#utility.yul\":14026:14089   */\n      tag_477\n      jump\t// in\n    tag_674:\n        /* \"#utility.yul\":13937:14099   */\n      pop\n        /* \"#utility.yul\":14188:14192   */\n      0x20\n        /* \"#utility.yul\":14181:14186   */\n      dup4\n        /* \"#utility.yul\":14177:14193   */\n      add\n        /* \"#utility.yul\":14171:14194   */\n      mload\n        /* \"#utility.yul\":14207:14270   */\n      tag_675\n        /* \"#utility.yul\":14264:14268   */\n      0x20\n        /* \"#utility.yul\":14259:14262   */\n      dup7\n        /* \"#utility.yul\":14255:14269   */\n      add\n        /* \"#utility.yul\":14241:14253   */\n      dup3\n        /* \"#utility.yul\":14207:14270   */\n      tag_477\n      jump\t// in\n    tag_675:\n        /* \"#utility.yul\":14109:14280   */\n      pop\n        /* \"#utility.yul\":14362:14366   */\n      0x40\n        /* \"#utility.yul\":14355:14360   */\n      dup4\n        /* \"#utility.yul\":14351:14367   */\n      add\n        /* \"#utility.yul\":14345:14368   */\n      mload\n        /* \"#utility.yul\":14415:14418   */\n      dup5\n        /* \"#utility.yul\":14409:14413   */\n      dup3\n        /* \"#utility.yul\":14405:14419   */\n      sub\n        /* \"#utility.yul\":14398:14402   */\n      0x40\n        /* \"#utility.yul\":14393:14396   */\n      dup7\n        /* \"#utility.yul\":14389:14403   */\n      add\n        /* \"#utility.yul\":14382:14420   */\n      mstore\n        /* \"#utility.yul\":14441:14514   */\n      tag_676\n        /* \"#utility.yul\":14509:14513   */\n      dup3\n        /* \"#utility.yul\":14495:14507   */\n      dup3\n        /* \"#utility.yul\":14441:14514   */\n      tag_481\n      jump\t// in\n    tag_676:\n        /* \"#utility.yul\":14433:14514   */\n      swap2\n      pop\n        /* \"#utility.yul\":14290:14525   */\n      pop\n        /* \"#utility.yul\":14606:14610   */\n      0x60\n        /* \"#utility.yul\":14599:14604   */\n      dup4\n        /* \"#utility.yul\":14595:14611   */\n      add\n        /* \"#utility.yul\":14589:14612   */\n      mload\n        /* \"#utility.yul\":14625:14688   */\n      tag_677\n        /* \"#utility.yul\":14682:14686   */\n      0x60\n        /* \"#utility.yul\":14677:14680   */\n      dup7\n        /* \"#utility.yul\":14673:14687   */\n      add\n        /* \"#utility.yul\":14659:14671   */\n      dup3\n        /* \"#utility.yul\":14625:14688   */\n      tag_477\n      jump\t// in\n    tag_677:\n        /* \"#utility.yul\":14535:14698   */\n      pop\n        /* \"#utility.yul\":14783:14787   */\n      0x80\n        /* \"#utility.yul\":14776:14781   */\n      dup4\n        /* \"#utility.yul\":14772:14788   */\n      add\n        /* \"#utility.yul\":14766:14789   */\n      mload\n        /* \"#utility.yul\":14802:14865   */\n      tag_678\n        /* \"#utility.yul\":14859:14863   */\n      0x80\n        /* \"#utility.yul\":14854:14857   */\n      dup7\n        /* \"#utility.yul\":14850:14864   */\n      add\n        /* \"#utility.yul\":14836:14848   */\n      dup3\n        /* \"#utility.yul\":14802:14865   */\n      tag_482\n      jump\t// in\n    tag_678:\n        /* \"#utility.yul\":14708:14875   */\n      pop\n        /* \"#utility.yul\":14963:14967   */\n      0xa0\n        /* \"#utility.yul\":14956:14961   */\n      dup4\n        /* \"#utility.yul\":14952:14968   */\n      add\n        /* \"#utility.yul\":14946:14969   */\n      mload\n        /* \"#utility.yul\":14982:15097   */\n      tag_679\n        /* \"#utility.yul\":15091:15095   */\n      0xa0\n        /* \"#utility.yul\":15086:15089   */\n      dup7\n        /* \"#utility.yul\":15082:15096   */\n      add\n        /* \"#utility.yul\":15068:15080   */\n      dup3\n        /* \"#utility.yul\":14982:15097   */\n      tag_491\n      jump\t// in\n    tag_679:\n        /* \"#utility.yul\":14885:15107   */\n      pop\n        /* \"#utility.yul\":15199:15203   */\n      0xc0\n        /* \"#utility.yul\":15192:15197   */\n      dup4\n        /* \"#utility.yul\":15188:15204   */\n      add\n        /* \"#utility.yul\":15182:15205   */\n      mload\n        /* \"#utility.yul\":15218:15343   */\n      tag_680\n        /* \"#utility.yul\":15335:15341   */\n      0x0120\n        /* \"#utility.yul\":15330:15333   */\n      dup7\n        /* \"#utility.yul\":15326:15342   */\n      add\n        /* \"#utility.yul\":15312:15324   */\n      dup3\n        /* \"#utility.yul\":15218:15343   */\n      tag_492\n      jump\t// in\n    tag_680:\n        /* \"#utility.yul\":15117:15353   */\n      pop\n        /* \"#utility.yul\":15444:15448   */\n      0xe0\n        /* \"#utility.yul\":15437:15442   */\n      dup4\n        /* \"#utility.yul\":15433:15449   */\n      add\n        /* \"#utility.yul\":15427:15450   */\n      mload\n        /* \"#utility.yul\":15463:15586   */\n      tag_681\n        /* \"#utility.yul\":15578:15584   */\n      0x01a0\n        /* \"#utility.yul\":15573:15576   */\n      dup7\n        /* \"#utility.yul\":15569:15585   */\n      add\n        /* \"#utility.yul\":15555:15567   */\n      dup3\n        /* \"#utility.yul\":15463:15586   */\n      tag_497\n      jump\t// in\n    tag_681:\n        /* \"#utility.yul\":15363:15596   */\n      pop\n        /* \"#utility.yul\":15688:15694   */\n      0x0100\n        /* \"#utility.yul\":15681:15686   */\n      dup4\n        /* \"#utility.yul\":15677:15695   */\n      add\n        /* \"#utility.yul\":15671:15696   */\n      mload\n        /* \"#utility.yul\":15709:15834   */\n      tag_682\n        /* \"#utility.yul\":15826:15832   */\n      0x0220\n        /* \"#utility.yul\":15821:15824   */\n      dup7\n        /* \"#utility.yul\":15817:15833   */\n      add\n        /* \"#utility.yul\":15803:15815   */\n      dup3\n        /* \"#utility.yul\":15709:15834   */\n      tag_502\n      jump\t// in\n    tag_682:\n        /* \"#utility.yul\":15606:15844   */\n      pop\n        /* \"#utility.yul\":15936:15942   */\n      0x0120\n        /* \"#utility.yul\":15929:15934   */\n      dup4\n        /* \"#utility.yul\":15925:15943   */\n      add\n        /* \"#utility.yul\":15919:15944   */\n      mload\n        /* \"#utility.yul\":15957:16082   */\n      tag_683\n        /* \"#utility.yul\":16074:16080   */\n      0x02a0\n        /* \"#utility.yul\":16069:16072   */\n      dup7\n        /* \"#utility.yul\":16065:16081   */\n      add\n        /* \"#utility.yul\":16051:16063   */\n      dup3\n        /* \"#utility.yul\":15957:16082   */\n      tag_503\n      jump\t// in\n    tag_683:\n        /* \"#utility.yul\":15854:16092   */\n      pop\n        /* \"#utility.yul\":16109:16113   */\n      dup1\n        /* \"#utility.yul\":16102:16113   */\n      swap2\n      pop\n        /* \"#utility.yul\":13889:16119   */\n      pop\n        /* \"#utility.yul\":13769:16119   */\n      swap3\n      swap2\n      pop\n      pop\n      jump\t// out\n        /* \"#utility.yul\":16125:16490   */\n    tag_28:\n        /* \"#utility.yul\":16264:16268   */\n      0x00\n        /* \"#utility.yul\":16302:16304   */\n      0x20\n        /* \"#utility.yul\":16291:16300   */\n      dup3\n        /* \"#utility.yul\":16287:16305   */\n      add\n        /* \"#utility.yul\":16279:16305   */\n      swap1\n      pop\n        /* \"#utility.yul\":16351:16360   */\n      dup2\n        /* \"#utility.yul\":16345:16349   */\n      dup2\n        /* \"#utility.yul\":16341:16361   */\n      sub\n        /* \"#utility.yul\":16337:16338   */\n      0x00\n        /* \"#utility.yul\":16326:16335   */\n      dup4\n        /* \"#utility.yul\":16322:16339   */\n      add\n        /* \"#utility.yul\":16315:16362   */\n      mstore\n        /* \"#utility.yul\":16379:16483   */\n      tag_685\n        /* \"#utility.yul\":16478:16482   */\n      dup2\n        /* \"#utility.yul\":16469:16475   */\n      dup5\n        /* \"#utility.yul\":16379:16483   */\n      tag_504\n      jump\t// in\n    tag_685:\n        /* \"#utility.yul\":16371:16483   */\n      swap1\n      pop\n        /* \"#utility.yul\":16125:16490   */\n      swap3\n      swap2\n      pop\n      pop\n      jump\t// out\n        /* \"#utility.yul\":16496:16602   */\n    tag_505:\n        /* \"#utility.yul\":16576:16577   */\n      0x03\n        /* \"#utility.yul\":16569:16574   */\n      dup2\n        /* \"#utility.yul\":16566:16578   */\n      lt\n        /* \"#utility.yul\":16556:16596   */\n      tag_687\n      jumpi\n        /* \"#utility.yul\":16592:16593   */\n      0x00\n        /* \"#utility.yul\":16589:16590   */\n      dup1\n        /* \"#utility.yul\":16582:16594   */\n      revert\n        /* \"#utility.yul\":16556:16596   */\n    tag_687:\n        /* \"#utility.yul\":16496:16602   */\n      pop\n      jump\t// out\n        /* \"#utility.yul\":16608:16761   */\n    tag_506:\n        /* \"#utility.yul\":16661:16666   */\n      0x00\n        /* \"#utility.yul\":16699:16705   */\n      dup2\n        /* \"#utility.yul\":16686:16706   */\n      calldataload\n        /* \"#utility.yul\":16677:16706   */\n      swap1\n      pop\n        /* \"#utility.yul\":16715:16755   */\n      tag_689\n        /* \"#utility.yul\":16749:16754   */\n      dup2\n        /* \"#utility.yul\":16715:16755   */\n      tag_505\n      jump\t// in\n    tag_689:\n        /* \"#utility.yul\":16608:16761   */\n      swap3\n      swap2\n      pop\n      pop\n      jump\t// out\n        /* \"#utility.yul\":16767:16873   */\n    tag_507:\n        /* \"#utility.yul\":16847:16848   */\n      0x03\n        /* \"#utility.yul\":16840:16845   */\n      dup2\n        /* \"#utility.yul\":16837:16849   */\n      lt\n        /* \"#utility.yul\":16827:16867   */\n      tag_691\n      jumpi\n        /* \"#utility.yul\":16863:16864   */\n      0x00\n        /* \"#utility.yul\":16860:16861   */\n      dup1\n        /* \"#utility.yul\":16853:16865   */\n      revert\n        /* \"#utility.yul\":16827:16867   */\n    tag_691:\n        /* \"#utility.yul\":16767:16873   */\n      pop\n      jump\t// out\n        /* \"#utility.yul\":16879:17032   */\n    tag_508:\n        /* \"#utility.yul\":16932:16937   */\n      0x00\n        /* \"#utility.yul\":16970:16976   */\n      dup2\n        /* \"#utility.yul\":16957:16977   */\n      calldataload\n        /* \"#utility.yul\":16948:16977   */\n      swap1\n      pop\n        /* \"#utility.yul\":16986:17026   */\n      tag_693\n        /* \"#utility.yul\":17020:17025   */\n      dup2\n        /* \"#utility.yul\":16986:17026   */\n      tag_507\n      jump\t// in\n    tag_693:\n        /* \"#utility.yul\":16879:17032   */\n      swap3\n      swap2\n      pop\n      pop\n      jump\t// out\n        /* \"#utility.yul\":17038:18123   */\n    tag_31:\n        /* \"#utility.yul\":17156:17162   */\n      0x00\n        /* \"#utility.yul\":17164:17170   */\n      dup1\n        /* \"#utility.yul\":17172:17178   */\n      0x00\n        /* \"#utility.yul\":17180:17186   */\n      dup1\n        /* \"#utility.yul\":17188:17194   */\n      0x00\n        /* \"#utility.yul\":17196:17202   */\n      dup1\n        /* \"#utility.yul\":17245:17248   */\n      0xc0\n        /* \"#utility.yul\":17233:17242   */\n      dup8\n        /* \"#utility.yul\":17224:17231   */\n      dup10\n        /* \"#utility.yul\":17220:17243   */\n      sub\n        /* \"#utility.yul\":17216:17249   */\n      slt\n        /* \"#utility.yul\":17213:17333   */\n      iszero\n      tag_695\n      jumpi\n        /* \"#utility.yul\":17252:17331   */\n      tag_696\n      tag_455\n      jump\t// in\n    tag_696:\n        /* \"#utility.yul\":17213:17333   */\n    tag_695:\n        /* \"#utility.yul\":17372:17373   */\n      0x00\n        /* \"#utility.yul\":17397:17450   */\n      tag_697\n        /* \"#utility.yul\":17442:17449   */\n      dup10\n        /* \"#utility.yul\":17433:17439   */\n      dup3\n        /* \"#utility.yul\":17422:17431   */\n      dup11\n        /* \"#utility.yul\":17418:17440   */\n      add\n        /* \"#utility.yul\":17397:17450   */\n      tag_469\n      jump\t// in\n    tag_697:\n        /* \"#utility.yul\":17387:17450   */\n      swap7\n      pop\n        /* \"#utility.yul\":17343:17460   */\n      pop\n        /* \"#utility.yul\":17499:17501   */\n      0x20\n        /* \"#utility.yul\":17525:17578   */\n      tag_698\n        /* \"#utility.yul\":17570:17577   */\n      dup10\n        /* \"#utility.yul\":17561:17567   */\n      dup3\n        /* \"#utility.yul\":17550:17559   */\n      dup11\n        /* \"#utility.yul\":17546:17568   */\n      add\n        /* \"#utility.yul\":17525:17578   */\n      tag_469\n      jump\t// in\n    tag_698:\n        /* \"#utility.yul\":17515:17578   */\n      swap6\n      pop\n        /* \"#utility.yul\":17470:17588   */\n      pop\n        /* \"#utility.yul\":17627:17629   */\n      0x40\n        /* \"#utility.yul\":17653:17713   */\n      tag_699\n        /* \"#utility.yul\":17705:17712   */\n      dup10\n        /* \"#utility.yul\":17696:17702   */\n      dup3\n        /* \"#utility.yul\":17685:17694   */\n      dup11\n        /* \"#utility.yul\":17681:17703   */\n      add\n        /* \"#utility.yul\":17653:17713   */\n      tag_506\n      jump\t// in\n    tag_699:\n        /* \"#utility.yul\":17643:17713   */\n      swap5\n      pop\n        /* \"#utility.yul\":17598:17723   */\n      pop\n        /* \"#utility.yul\":17762:17764   */\n      0x60\n        /* \"#utility.yul\":17788:17848   */\n      tag_700\n        /* \"#utility.yul\":17840:17847   */\n      dup10\n        /* \"#utility.yul\":17831:17837   */\n      dup3\n        /* \"#utility.yul\":17820:17829   */\n      dup11\n        /* \"#utility.yul\":17816:17838   */\n      add\n        /* \"#utility.yul\":17788:17848   */\n      tag_508\n      jump\t// in\n    tag_700:\n        /* \"#utility.yul\":17778:17848   */\n      swap4\n      pop\n        /* \"#utility.yul\":17733:17858   */\n      pop\n        /* \"#utility.yul\":17897:17900   */\n      0x80\n        /* \"#utility.yul\":17924:17977   */\n      tag_701\n        /* \"#utility.yul\":17969:17976   */\n      dup10\n        /* \"#utility.yul\":17960:17966   */\n      dup3\n        /* \"#utility.yul\":17949:17958   */\n      dup11\n        /* \"#utility.yul\":17945:17967   */\n      add\n        /* \"#utility.yul\":17924:17977   */\n      tag_469\n      jump\t// in\n    tag_701:\n        /* \"#utility.yul\":17914:17977   */\n      swap3\n      pop\n        /* \"#utility.yul\":17868:17987   */\n      pop\n        /* \"#utility.yul\":18026:18029   */\n      0xa0\n        /* \"#utility.yul\":18053:18106   */\n      tag_702\n        /* \"#utility.yul\":18098:18105   */\n      dup10\n        /* \"#utility.yul\":18089:18095   */\n      dup3\n        /* \"#utility.yul\":18078:18087   */\n      dup11\n        /* \"#utility.yul\":18074:18096   */\n      add\n        /* \"#utility.yul\":18053:18106   */\n      tag_469\n      jump\t// in\n    tag_702:\n        /* \"#utility.yul\":18043:18106   */\n      swap2\n      pop\n        /* \"#utility.yul\":17997:18116   */\n      pop\n        /* \"#utility.yul\":17038:18123   */\n      swap3\n      swap6\n      pop\n      swap3\n      swap6\n      pop\n      swap3\n      swap6\n      jump\t// out\n        /* \"#utility.yul\":18129:18298   */\n    tag_509:\n        /* \"#utility.yul\":18213:18224   */\n      0x00\n        /* \"#utility.yul\":18247:18253   */\n      dup3\n        /* \"#utility.yul\":18242:18245   */\n      dup3\n        /* \"#utility.yul\":18235:18254   */\n      mstore\n        /* \"#utility.yul\":18287:18291   */\n      0x20\n        /* \"#utility.yul\":18282:18285   */\n      dup3\n        /* \"#utility.yul\":18278:18292   */\n      add\n        /* \"#utility.yul\":18263:18292   */\n      swap1\n      pop\n        /* \"#utility.yul\":18129:18298   */\n      swap3\n      swap2\n      pop\n      pop\n      jump\t// out\n        /* \"#utility.yul\":18304:18681   */\n    tag_510:\n        /* \"#utility.yul\":18392:18395   */\n      0x00\n        /* \"#utility.yul\":18420:18459   */\n      tag_705\n        /* \"#utility.yul\":18453:18458   */\n      dup3\n        /* \"#utility.yul\":18420:18459   */\n      tag_478\n      jump\t// in\n    tag_705:\n        /* \"#utility.yul\":18475:18546   */\n      tag_706\n        /* \"#utility.yul\":18539:18545   */\n      dup2\n        /* \"#utility.yul\":18534:18537   */\n      dup6\n        /* \"#utility.yul\":18475:18546   */\n      tag_509\n      jump\t// in\n    tag_706:\n        /* \"#utility.yul\":18468:18546   */\n      swap4\n      pop\n        /* \"#utility.yul\":18555:18620   */\n      tag_707\n        /* \"#utility.yul\":18613:18619   */\n      dup2\n        /* \"#utility.yul\":18608:18611   */\n      dup6\n        /* \"#utility.yul\":18601:18605   */\n      0x20\n        /* \"#utility.yul\":18594:18599   */\n      dup7\n        /* \"#utility.yul\":18590:18606   */\n      add\n        /* \"#utility.yul\":18555:18620   */\n      tag_480\n      jump\t// in\n    tag_707:\n        /* \"#utility.yul\":18645:18674   */\n      tag_708\n        /* \"#utility.yul\":18667:18673   */\n      dup2\n        /* \"#utility.yul\":18645:18674   */\n      tag_459\n      jump\t// in\n    tag_708:\n        /* \"#utility.yul\":18640:18643   */\n      dup5\n        /* \"#utility.yul\":18636:18675   */\n      add\n        /* \"#utility.yul\":18629:18675   */\n      swap2\n      pop\n        /* \"#utility.yul\":18396:18681   */\n      pop\n        /* \"#utility.yul\":18304:18681   */\n      swap3\n      swap2\n      pop\n      pop\n      jump\t// out\n        /* \"#utility.yul\":18687:19000   */\n    tag_34:\n        /* \"#utility.yul\":18800:18804   */\n      0x00\n        /* \"#utility.yul\":18838:18840   */\n      0x20\n        /* \"#utility.yul\":18827:18836   */\n      dup3\n        /* \"#utility.yul\":18823:18841   */\n      add\n        /* \"#utility.yul\":18815:18841   */\n      swap1\n      pop\n        /* \"#utility.yul\":18887:18896   */\n      dup2\n        /* \"#utility.yul\":18881:18885   */\n      dup2\n        /* \"#utility.yul\":18877:18897   */\n      sub\n        /* \"#utility.yul\":18873:18874   */\n      0x00\n        /* \"#utility.yul\":18862:18871   */\n      dup4\n        /* \"#utility.yul\":18858:18875   */\n      add\n        /* \"#utility.yul\":18851:18898   */\n      mstore\n        /* \"#utility.yul\":18915:18993   */\n      tag_710\n        /* \"#utility.yul\":18988:18992   */\n      dup2\n        /* \"#utility.yul\":18979:18985   */\n      dup5\n        /* \"#utility.yul\":18915:18993   */\n      tag_510\n      jump\t// in\n    tag_710:\n        /* \"#utility.yul\":18907:18993   */\n      swap1\n      pop\n        /* \"#utility.yul\":18687:19000   */\n      swap3\n      swap2\n      pop\n      pop\n      jump\t// out\n        /* \"#utility.yul\":19006:19111   */\n    tag_511:\n        /* \"#utility.yul\":19085:19086   */\n      0x03\n        /* \"#utility.yul\":19078:19083   */\n      dup2\n        /* \"#utility.yul\":19075:19087   */\n      lt\n        /* \"#utility.yul\":19065:19105   */\n      tag_712\n      jumpi\n        /* \"#utility.yul\":19101:19102   */\n      0x00\n        /* \"#utility.yul\":19098:19099   */\n      dup1\n        /* \"#utility.yul\":19091:19103   */\n      revert\n        /* \"#utility.yul\":19065:19105   */\n    tag_712:\n        /* \"#utility.yul\":19006:19111   */\n      pop\n      jump\t// out\n        /* \"#utility.yul\":19117:19268   */\n    tag_512:\n        /* \"#utility.yul\":19169:19174   */\n      0x00\n        /* \"#utility.yul\":19207:19213   */\n      dup2\n        /* \"#utility.yul\":19194:19214   */\n      calldataload\n        /* \"#utility.yul\":19185:19214   */\n      swap1\n      pop\n        /* \"#utility.yul\":19223:19262   */\n      tag_714\n        /* \"#utility.yul\":19256:19261   */\n      dup2\n        /* \"#utility.yul\":19223:19262   */\n      tag_511\n      jump\t// in\n    tag_714:\n        /* \"#utility.yul\":19117:19268   */\n      swap3\n      swap2\n      pop\n      pop\n      jump\t// out\n        /* \"#utility.yul\":19274:20357   */\n    tag_37:\n        /* \"#utility.yul\":19391:19397   */\n      0x00\n        /* \"#utility.yul\":19399:19405   */\n      dup1\n        /* \"#utility.yul\":19407:19413   */\n      0x00\n        /* \"#utility.yul\":19415:19421   */\n      dup1\n        /* \"#utility.yul\":19423:19429   */\n      0x00\n        /* \"#utility.yul\":19431:19437   */\n      dup1\n        /* \"#utility.yul\":19480:19483   */\n      0xc0\n        /* \"#utility.yul\":19468:19477   */\n      dup8\n        /* \"#utility.yul\":19459:19466   */\n      dup10\n        /* \"#utility.yul\":19455:19478   */\n      sub\n        /* \"#utility.yul\":19451:19484   */\n      slt\n        /* \"#utility.yul\":19448:19568   */\n      iszero\n      tag_716\n      jumpi\n        /* \"#utility.yul\":19487:19566   */\n      tag_717\n      tag_455\n      jump\t// in\n    tag_717:\n        /* \"#utility.yul\":19448:19568   */\n    tag_716:\n        /* \"#utility.yul\":19607:19608   */\n      0x00\n        /* \"#utility.yul\":19632:19685   */\n      tag_718\n        /* \"#utility.yul\":19677:19684   */\n      dup10\n        /* \"#utility.yul\":19668:19674   */\n      dup3\n        /* \"#utility.yul\":19657:19666   */\n      dup11\n        /* \"#utility.yul\":19653:19675   */\n      add\n        /* \"#utility.yul\":19632:19685   */\n      tag_469\n      jump\t// in\n    tag_718:\n        /* \"#utility.yul\":19622:19685   */\n      swap7\n      pop\n        /* \"#utility.yul\":19578:19695   */\n      pop\n        /* \"#utility.yul\":19734:19736   */\n      0x20\n        /* \"#utility.yul\":19760:19813   */\n      tag_719\n        /* \"#utility.yul\":19805:19812   */\n      dup10\n        /* \"#utility.yul\":19796:19802   */\n      dup3\n        /* \"#utility.yul\":19785:19794   */\n      dup11\n        /* \"#utility.yul\":19781:19803   */\n      add\n        /* \"#utility.yul\":19760:19813   */\n      tag_469\n      jump\t// in\n    tag_719:\n        /* \"#utility.yul\":19750:19813   */\n      swap6\n      pop\n        /* \"#utility.yul\":19705:19823   */\n      pop\n        /* \"#utility.yul\":19862:19864   */\n      0x40\n        /* \"#utility.yul\":19888:19947   */\n      tag_720\n        /* \"#utility.yul\":19939:19946   */\n      dup10\n        /* \"#utility.yul\":19930:19936   */\n      dup3\n        /* \"#utility.yul\":19919:19928   */\n      dup11\n        /* \"#utility.yul\":19915:19937   */\n      add\n        /* \"#utility.yul\":19888:19947   */\n      tag_512\n      jump\t// in\n    tag_720:\n        /* \"#utility.yul\":19878:19947   */\n      swap5\n      pop\n        /* \"#utility.yul\":19833:19957   */\n      pop\n        /* \"#utility.yul\":19996:19998   */\n      0x60\n        /* \"#utility.yul\":20022:20082   */\n      tag_721\n        /* \"#utility.yul\":20074:20081   */\n      dup10\n        /* \"#utility.yul\":20065:20071   */\n      dup3\n        /* \"#utility.yul\":20054:20063   */\n      dup11\n        /* \"#utility.yul\":20050:20072   */\n      add\n        /* \"#utility.yul\":20022:20082   */\n      tag_508\n      jump\t// in\n    tag_721:\n        /* \"#utility.yul\":20012:20082   */\n      swap4\n      pop\n        /* \"#utility.yul\":19967:20092   */\n      pop\n        /* \"#utility.yul\":20131:20134   */\n      0x80\n        /* \"#utility.yul\":20158:20211   */\n      tag_722\n        /* \"#utility.yul\":20203:20210   */\n      dup10\n        /* \"#utility.yul\":20194:20200   */\n      dup3\n        /* \"#utility.yul\":20183:20192   */\n      dup11\n        /* \"#utility.yul\":20179:20201   */\n      add\n        /* \"#utility.yul\":20158:20211   */\n      tag_469\n      jump\t// in\n    tag_722:\n        /* \"#utility.yul\":20148:20211   */\n      swap3\n      pop\n        /* \"#utility.yul\":20102:20221   */\n      pop\n        /* \"#utility.yul\":20260:20263   */\n      0xa0\n        /* \"#utility.yul\":20287:20340   */\n      tag_723\n        /* \"#utility.yul\":20332:20339   */\n      dup10\n        /* \"#utility.yul\":20323:20329   */\n      dup3\n        /* \"#utility.yul\":20312:20321   */\n      dup11\n        /* \"#utility.yul\":20308:20330   */\n      add\n        /* \"#utility.yul\":20287:20340   */\n      tag_469\n      jump\t// in\n    tag_723:\n        /* \"#utility.yul\":20277:20340   */\n      swap2\n      pop\n        /* \"#utility.yul\":20231:20350   */\n      pop\n        /* \"#utility.yul\":19274:20357   */\n      swap3\n      swap6\n      pop\n      swap3\n      swap6\n      pop\n      swap3\n      swap6\n      jump\t// out\n        /* \"#utility.yul\":20363:20470   */\n    tag_513:\n        /* \"#utility.yul\":20444:20445   */\n      0x03\n        /* \"#utility.yul\":20437:20442   */\n      dup2\n        /* \"#utility.yul\":20434:20446   */\n      lt\n        /* \"#utility.yul\":20424:20464   */\n      tag_725\n      jumpi\n        /* \"#utility.yul\":20460:20461   */\n      0x00\n        /* \"#utility.yul\":20457:20458   */\n      dup1\n        /* \"#utility.yul\":20450:20462   */\n      revert\n        /* \"#utility.yul\":20424:20464   */\n    tag_725:\n        /* \"#utility.yul\":20363:20470   */\n      pop\n      jump\t// out\n        /* \"#utility.yul\":20476:20631   */\n    tag_514:\n        /* \"#utility.yul\":20530:20535   */\n      0x00\n        /* \"#utility.yul\":20568:20574   */\n      dup2\n        /* \"#utility.yul\":20555:20575   */\n      calldataload\n        /* \"#utility.yul\":20546:20575   */\n      swap1\n      pop\n        /* \"#utility.yul\":20584:20625   */\n      tag_727\n        /* \"#utility.yul\":20619:20624   */\n      dup2\n        /* \"#utility.yul\":20584:20625   */\n      tag_513\n      jump\t// in\n    tag_727:\n        /* \"#utility.yul\":20476:20631   */\n      swap3\n      swap2\n      pop\n      pop\n      jump\t// out\n        /* \"#utility.yul\":20637:21722   */\n    tag_42:\n        /* \"#utility.yul\":20755:20761   */\n      0x00\n        /* \"#utility.yul\":20763:20769   */\n      dup1\n        /* \"#utility.yul\":20771:20777   */\n      0x00\n        /* \"#utility.yul\":20779:20785   */\n      dup1\n        /* \"#utility.yul\":20787:20793   */\n      0x00\n        /* \"#utility.yul\":20795:20801   */\n      dup1\n        /* \"#utility.yul\":20844:20847   */\n      0xc0\n        /* \"#utility.yul\":20832:20841   */\n      dup8\n        /* \"#utility.yul\":20823:20830   */\n      dup10\n        /* \"#utility.yul\":20819:20842   */\n      sub\n        /* \"#utility.yul\":20815:20848   */\n      slt\n        /* \"#utility.yul\":20812:20932   */\n      iszero\n      tag_729\n      jumpi\n        /* \"#utility.yul\":20851:20930   */\n      tag_730\n      tag_455\n      jump\t// in\n    tag_730:\n        /* \"#utility.yul\":20812:20932   */\n    tag_729:\n        /* \"#utility.yul\":20971:20972   */\n      0x00\n        /* \"#utility.yul\":20996:21049   */\n      tag_731\n        /* \"#utility.yul\":21041:21048   */\n      dup10\n        /* \"#utility.yul\":21032:21038   */\n      dup3\n        /* \"#utility.yul\":21021:21030   */\n      dup11\n        /* \"#utility.yul\":21017:21039   */\n      add\n        /* \"#utility.yul\":20996:21049   */\n      tag_469\n      jump\t// in\n    tag_731:\n        /* \"#utility.yul\":20986:21049   */\n      swap7\n      pop\n        /* \"#utility.yul\":20942:21059   */\n      pop\n        /* \"#utility.yul\":21098:21100   */\n      0x20\n        /* \"#utility.yul\":21124:21177   */\n      tag_732\n        /* \"#utility.yul\":21169:21176   */\n      dup10\n        /* \"#utility.yul\":21160:21166   */\n      dup3\n        /* \"#utility.yul\":21149:21158   */\n      dup11\n        /* \"#utility.yul\":21145:21167   */\n      add\n        /* \"#utility.yul\":21124:21177   */\n      tag_469\n      jump\t// in\n    tag_732:\n        /* \"#utility.yul\":21114:21177   */\n      swap6\n      pop\n        /* \"#utility.yul\":21069:21187   */\n      pop\n        /* \"#utility.yul\":21226:21228   */\n      0x40\n        /* \"#utility.yul\":21252:21311   */\n      tag_733\n        /* \"#utility.yul\":21303:21310   */\n      dup10\n        /* \"#utility.yul\":21294:21300   */\n      dup3\n        /* \"#utility.yul\":21283:21292   */\n      dup11\n        /* \"#utility.yul\":21279:21301   */\n      add\n        /* \"#utility.yul\":21252:21311   */\n      tag_512\n      jump\t// in\n    tag_733:\n        /* \"#utility.yul\":21242:21311   */\n      swap5\n      pop\n        /* \"#utility.yul\":21197:21321   */\n      pop\n        /* \"#utility.yul\":21360:21362   */\n      0x60\n        /* \"#utility.yul\":21386:21447   */\n      tag_734\n        /* \"#utility.yul\":21439:21446   */\n      dup10\n        /* \"#utility.yul\":21430:21436   */\n      dup3\n        /* \"#utility.yul\":21419:21428   */\n      dup11\n        /* \"#utility.yul\":21415:21437   */\n      add\n        /* \"#utility.yul\":21386:21447   */\n      tag_514\n      jump\t// in\n    tag_734:\n        /* \"#utility.yul\":21376:21447   */\n      swap4\n      pop\n        /* \"#utility.yul\":21331:21457   */\n      pop\n        /* \"#utility.yul\":21496:21499   */\n      0x80\n        /* \"#utility.yul\":21523:21576   */\n      tag_735\n        /* \"#utility.yul\":21568:21575   */\n      dup10\n        /* \"#utility.yul\":21559:21565   */\n      dup3\n        /* \"#utility.yul\":21548:21557   */\n      dup11\n        /* \"#utility.yul\":21544:21566   */\n      add\n        /* \"#utility.yul\":21523:21576   */\n      tag_469\n      jump\t// in\n    tag_735:\n        /* \"#utility.yul\":21513:21576   */\n      swap3\n      pop\n        /* \"#utility.yul\":21467:21586   */\n      pop\n        /* \"#utility.yul\":21625:21628   */\n      0xa0\n        /* \"#utility.yul\":21652:21705   */\n      tag_736\n        /* \"#utility.yul\":21697:21704   */\n      dup10\n        /* \"#utility.yul\":21688:21694   */\n      dup3\n        /* \"#utility.yul\":21677:21686   */\n      dup11\n        /* \"#utility.yul\":21673:21695   */\n      add\n        /* \"#utility.yul\":21652:21705   */\n      tag_469\n      jump\t// in\n    tag_736:\n        /* \"#utility.yul\":21642:21705   */\n      swap2\n      pop\n        /* \"#utility.yul\":21596:21715   */\n      pop\n        /* \"#utility.yul\":20637:21722   */\n      swap3\n      swap6\n      pop\n      swap3\n      swap6\n      pop\n      swap3\n      swap6\n      jump\t// out\n        /* \"#utility.yul\":21728:21908   */\n    tag_56:\n        /* \"#utility.yul\":21776:21853   */\n      0x4e487b7100000000000000000000000000000000000000000000000000000000\n        /* \"#utility.yul\":21773:21774   */\n      0x00\n        /* \"#utility.yul\":21766:21854   */\n      mstore\n        /* \"#utility.yul\":21873:21877   */\n      0x32\n        /* \"#utility.yul\":21870:21871   */\n      0x04\n        /* \"#utility.yul\":21863:21878   */\n      mstore\n        /* \"#utility.yul\":21897:21901   */\n      0x24\n        /* \"#utility.yul\":21894:21895   */\n      0x00\n        /* \"#utility.yul\":21887:21902   */\n      revert\n        /* \"#utility.yul\":21914:22094   */\n    tag_515:\n        /* \"#utility.yul\":21962:22039   */\n      0x4e487b7100000000000000000000000000000000000000000000000000000000\n        /* \"#utility.yul\":21959:21960   */\n      0x00\n        /* \"#utility.yul\":21952:22040   */\n      mstore\n        /* \"#utility.yul\":22059:22063   */\n      0x22\n        /* \"#utility.yul\":22056:22057   */\n      0x04\n        /* \"#utility.yul\":22049:22064   */\n      mstore\n        /* \"#utility.yul\":22083:22087   */\n      0x24\n        /* \"#utility.yul\":22080:22081   */\n      0x00\n        /* \"#utility.yul\":22073:22088   */\n      revert\n        /* \"#utility.yul\":22100:22420   */\n    tag_93:\n        /* \"#utility.yul\":22144:22150   */\n      0x00\n        /* \"#utility.yul\":22181:22182   */\n      0x02\n        /* \"#utility.yul\":22175:22179   */\n      dup3\n        /* \"#utility.yul\":22171:22183   */\n      div\n        /* \"#utility.yul\":22161:22183   */\n      swap1\n      pop\n        /* \"#utility.yul\":22228:22229   */\n      0x01\n        /* \"#utility.yul\":22222:22226   */\n      dup3\n        /* \"#utility.yul\":22218:22230   */\n      and\n        /* \"#utility.yul\":22249:22267   */\n      dup1\n        /* \"#utility.yul\":22239:22320   */\n      tag_740\n      jumpi\n        /* \"#utility.yul\":22305:22309   */\n      0x7f\n        /* \"#utility.yul\":22297:22303   */\n      dup3\n        /* \"#utility.yul\":22293:22310   */\n      and\n        /* \"#utility.yul\":22283:22310   */\n      swap2\n      pop\n        /* \"#utility.yul\":22239:22320   */\n    tag_740:\n        /* \"#utility.yul\":22367:22369   */\n      0x20\n        /* \"#utility.yul\":22359:22365   */\n      dup3\n        /* \"#utility.yul\":22356:22370   */\n      lt\n        /* \"#utility.yul\":22336:22354   */\n      dup2\n        /* \"#utility.yul\":22333:22371   */\n      sub\n        /* \"#utility.yul\":22330:22414   */\n      tag_741\n      jumpi\n        /* \"#utility.yul\":22386:22404   */\n      tag_742\n      tag_515\n      jump\t// in\n    tag_742:\n        /* \"#utility.yul\":22330:22414   */\n    tag_741:\n        /* \"#utility.yul\":22151:22420   */\n      pop\n        /* \"#utility.yul\":22100:22420   */\n      swap2\n      swap1\n      pop\n      jump\t// out\n        /* \"#utility.yul\":22426:22567   */\n    tag_516:\n        /* \"#utility.yul\":22475:22479   */\n      0x00\n        /* \"#utility.yul\":22498:22501   */\n      dup2\n        /* \"#utility.yul\":22490:22501   */\n      swap1\n      pop\n        /* \"#utility.yul\":22521:22524   */\n      dup2\n        /* \"#utility.yul\":22518:22519   */\n      0x00\n        /* \"#utility.yul\":22511:22525   */\n      mstore\n        /* \"#utility.yul\":22555:22559   */\n      0x20\n        /* \"#utility.yul\":22552:22553   */\n      0x00\n        /* \"#utility.yul\":22542:22560   */\n      keccak256\n        /* \"#utility.yul\":22534:22560   */\n      swap1\n      pop\n        /* \"#utility.yul\":22426:22567   */\n      swap2\n      swap1\n      pop\n      jump\t// out\n        /* \"#utility.yul\":22573:22666   */\n    tag_517:\n        /* \"#utility.yul\":22610:22616   */\n      0x00\n        /* \"#utility.yul\":22657:22659   */\n      0x20\n        /* \"#utility.yul\":22652:22654   */\n      0x1f\n        /* \"#utility.yul\":22645:22650   */\n      dup4\n        /* \"#utility.yul\":22641:22655   */\n      add\n        /* \"#utility.yul\":22637:22660   */\n      div\n        /* \"#utility.yul\":22627:22660   */\n      swap1\n      pop\n        /* \"#utility.yul\":22573:22666   */\n      swap2\n      swap1\n      pop\n      jump\t// out\n        /* \"#utility.yul\":22672:22779   */\n    tag_518:\n        /* \"#utility.yul\":22716:22724   */\n      0x00\n        /* \"#utility.yul\":22766:22771   */\n      dup3\n        /* \"#utility.yul\":22760:22764   */\n      dup3\n        /* \"#utility.yul\":22756:22772   */\n      shl\n        /* \"#utility.yul\":22735:22772   */\n      swap1\n      pop\n        /* \"#utility.yul\":22672:22779   */\n      swap3\n      swap2\n      pop\n      pop\n      jump\t// out\n        /* \"#utility.yul\":22785:23178   */\n    tag_519:\n        /* \"#utility.yul\":22854:22860   */\n      0x00\n        /* \"#utility.yul\":22904:22905   */\n      0x08\n        /* \"#utility.yul\":22892:22902   */\n      dup4\n        /* \"#utility.yul\":22888:22906   */\n      mul\n        /* \"#utility.yul\":22927:23024   */\n      tag_747\n        /* \"#utility.yul\":22957:23023   */\n      0xffffffffffffffffffffffffffffffffffffffffffffffffffffffffffffffff\n        /* \"#utility.yul\":22946:22955   */\n      dup3\n        /* \"#utility.yul\":22927:23024   */\n      tag_518\n      jump\t// in\n    tag_747:\n        /* \"#utility.yul\":23045:23084   */\n      tag_748\n        /* \"#utility.yul\":23075:23083   */\n      dup7\n        /* \"#utility.yul\":23064:23073   */\n      dup4\n        /* \"#utility.yul\":23045:23084   */\n      tag_518\n      jump\t// in\n    tag_748:\n        /* \"#utility.yul\":23033:23084   */\n      swap6\n      pop\n        /* \"#utility.yul\":23117:23121   */\n      dup1\n        /* \"#utility.yul\":23113:23122   */\n      not\n        /* \"#utility.yul\":23106:23111   */\n      dup5\n        /* \"#utility.yul\":23102:23123   */\n      and\n        /* \"#utility.yul\":23093:23123   */\n      swap4\n      pop\n        /* \"#utility.yul\":23166:23170   */\n      dup1\n        /* \"#utility.yul\":23156:23164   */\n      dup7\n        /* \"#utility.yul\":23152:23171   */\n      and\n        /* \"#utility.yul\":23145:23150   */\n      dup5\n        /* \"#utility.yul\":23142:23172   */\n      or\n        /* \"#utility.yul\":23132:23172   */\n      swap3\n      pop\n        /* \"#utility.yul\":22861:23178   */\n      pop\n      pop\n        /* \"#utility.yul\":22785:23178   */\n      swap4\n      swap3\n      pop\n      pop\n      pop\n      jump\t// out\n        /* \"#utility.yul\":23184:23244   */\n    tag_520:\n        /* \"#utility.yul\":23212:23215   */\n      0x00\n        /* \"#utility.yul\":23233:23238   */\n      dup2\n        /* \"#utility.yul\":23226:23238   */\n      swap1\n      pop\n        /* \"#utility.yul\":23184:23244   */\n      swap2\n      swap1\n      pop\n      jump\t// out\n        /* \"#utility.yul\":23250:23392   */\n    tag_521:\n        /* \"#utility.yul\":23300:23309   */\n      0x00\n        /* \"#utility.yul\":23333:23386   */\n      tag_751\n        /* \"#utility.yul\":23351:23385   */\n      tag_752\n        /* \"#utility.yul\":23360:23384   */\n      tag_753\n        /* \"#utility.yul\":23378:23383   */\n      dup5\n        /* \"#utility.yul\":23360:23384   */\n      tag_467\n      jump\t// in\n    tag_753:\n        /* \"#utility.yul\":23351:23385   */\n      tag_520\n      jump\t// in\n    tag_752:\n        /* \"#utility.yul\":23333:23386   */\n      tag_467\n      jump\t// in\n    tag_751:\n        /* \"#utility.yul\":23320:23386   */\n      swap1\n      pop\n        /* \"#utility.yul\":23250:23392   */\n      swap2\n      swap1\n      pop\n      jump\t// out\n        /* \"#utility.yul\":23398:23473   */\n    tag_522:\n        /* \"#utility.yul\":23441:23444   */\n      0x00\n        /* \"#utility.yul\":23462:23467   */\n      dup2\n        /* \"#utility.yul\":23455:23467   */\n      swap1\n      pop\n        /* \"#utility.yul\":23398:23473   */\n      swap2\n      swap1\n      pop\n      jump\t// out\n        /* \"#utility.yul\":23479:23748   */\n    tag_523:\n        /* \"#utility.yul\":23589:23628   */\n      tag_756\n        /* \"#utility.yul\":23620:23627   */\n      dup4\n        /* \"#utility.yul\":23589:23628   */\n      tag_521\n      jump\t// in\n    tag_756:\n        /* \"#utility.yul\":23650:23741   */\n      tag_757\n        /* \"#utility.yul\":23699:23740   */\n      tag_758\n        /* \"#utility.yul\":23723:23739   */\n      dup3\n        /* \"#utility.yul\":23699:23740   */\n      tag_522\n      jump\t// in\n    tag_758:\n        /* \"#utility.yul\":23691:23697   */\n      dup5\n        /* \"#utility.yul\":23684:23688   */\n      dup5\n        /* \"#utility.yul\":23678:23689   */\n      sload\n        /* \"#utility.yul\":23650:23741   */\n      tag_519\n      jump\t// in\n    tag_757:\n        /* \"#utility.yul\":23644:23648   */\n      dup3\n        /* \"#utility.yul\":23637:23742   */\n      sstore\n        /* \"#utility.yul\":23555:23748   */\n      pop\n        /* \"#utility.yul\":23479:23748   */\n      pop\n      pop\n      pop\n      jump\t// out\n        /* \"#utility.yul\":23754:23827   */\n    tag_524:\n        /* \"#utility.yul\":23799:23802   */\n      0x00\n        /* \"#utility.yul\":23754:23827   */\n      swap1\n      jump\t// out\n        /* \"#utility.yul\":23833:24022   */\n    tag_525:\n        /* \"#utility.yul\":23910:23942   */\n      tag_761\n      tag_524\n      jump\t// in\n    tag_761:\n        /* \"#utility.yul\":23951:24016   */\n      tag_762\n        /* \"#utility.yul\":24009:24015   */\n      dup2\n        /* \"#utility.yul\":24001:24007   */\n      dup5\n        /* \"#utility.yul\":23995:23999   */\n      dup5\n        /* \"#utility.yul\":23951:24016   */\n      tag_523\n      jump\t// in\n    tag_762:\n        /* \"#utility.yul\":23886:24022   */\n      pop\n        /* \"#utility.yul\":23833:24022   */\n      pop\n      pop\n      jump\t// out\n        /* \"#utility.yul\":24028:24214   */\n    tag_526:\n        /* \"#utility.yul\":24088:24208   */\n    tag_764:\n        /* \"#utility.yul\":24105:24108   */\n      dup2\n        /* \"#utility.yul\":24098:24103   */\n      dup2\n        /* \"#utility.yul\":24095:24109   */\n      lt\n        /* \"#utility.yul\":24088:24208   */\n      iszero\n      tag_766\n      jumpi\n        /* \"#utility.yul\":24159:24198   */\n      tag_767\n        /* \"#utility.yul\":24196:24197   */\n      0x00\n        /* \"#utility.yul\":24189:24194   */\n      dup3\n        /* \"#utility.yul\":24159:24198   */\n      tag_525\n      jump\t// in\n    tag_767:\n        /* \"#utility.yul\":24132:24133   */\n      0x01\n        /* \"#utility.yul\":24125:24130   */\n      dup2\n        /* \"#utility.yul\":24121:24134   */\n      add\n        /* \"#utility.yul\":24112:24134   */\n      swap1\n      pop\n        /* \"#utility.yul\":24088:24208   */\n      jump(tag_764)\n    tag_766:\n        /* \"#utility.yul\":24028:24214   */\n      pop\n      pop\n      jump\t// out\n        /* \"#utility.yul\":24220:24763   */\n    tag_527:\n        /* \"#utility.yul\":24321:24323   */\n      0x1f\n        /* \"#utility.yul\":24316:24319   */\n      dup3\n        /* \"#utility.yul\":24313:24324   */\n      gt\n        /* \"#utility.yul\":24310:24756   */\n      iszero\n      tag_769\n      jumpi\n        /* \"#utility.yul\":24355:24393   */\n      tag_770\n        /* \"#utility.yul\":24387:24392   */\n      dup2\n        /* \"#utility.yul\":24355:24393   */\n      tag_516\n      jump\t// in\n    tag_770:\n        /* \"#utility.yul\":24439:24468   */\n      tag_771\n        /* \"#utility.yul\":24457:24467   */\n      dup5\n        /* \"#utility.yul\":24439:24468   */\n      tag_517\n      jump\t// in\n    tag_771:\n        /* \"#utility.yul\":24429:24437   */\n      dup2\n        /* \"#utility.yul\":24425:24469   */\n      add\n        /* \"#utility.yul\":24622:24624   */\n      0x20\n        /* \"#utility.yul\":24610:24620   */\n      dup6\n        /* \"#utility.yul\":24607:24625   */\n      lt\n        /* \"#utility.yul\":24604:24653   */\n      iszero\n      tag_772\n      jumpi\n        /* \"#utility.yul\":24643:24651   */\n      dup2\n        /* \"#utility.yul\":24628:24651   */\n      swap1\n      pop\n        /* \"#utility.yul\":24604:24653   */\n    tag_772:\n        /* \"#utility.yul\":24666:24746   */\n      tag_773\n        /* \"#utility.yul\":24722:24744   */\n      tag_774\n        /* \"#utility.yul\":24740:24743   */\n      dup6\n        /* \"#utility.yul\":24722:24744   */\n      tag_517\n      jump\t// in\n    tag_774:\n        /* \"#utility.yul\":24712:24720   */\n      dup4\n        /* \"#utility.yul\":24708:24745   */\n      add\n        /* \"#utility.yul\":24695:24706   */\n      dup3\n        /* \"#utility.yul\":24666:24746   */\n      tag_526\n      jump\t// in\n    tag_773:\n        /* \"#utility.yul\":24325:24756   */\n      pop\n      pop\n        /* \"#utility.yul\":24310:24756   */\n    tag_769:\n        /* \"#utility.yul\":24220:24763   */\n      pop\n      pop\n      pop\n      jump\t// out\n        /* \"#utility.yul\":24769:24886   */\n    tag_528:\n        /* \"#utility.yul\":24823:24831   */\n      0x00\n        /* \"#utility.yul\":24873:24878   */\n      dup3\n        /* \"#utility.yul\":24867:24871   */\n      dup3\n        /* \"#utility.yul\":24863:24879   */\n      shr\n        /* \"#utility.yul\":24842:24879   */\n      swap1\n      pop\n        /* \"#utility.yul\":24769:24886   */\n      swap3\n      swap2\n      pop\n      pop\n      jump\t// out\n        /* \"#utility.yul\":24892:25061   */\n    tag_529:\n        /* \"#utility.yul\":24936:24942   */\n      0x00\n        /* \"#utility.yul\":24969:25020   */\n      tag_777\n        /* \"#utility.yul\":25017:25018   */\n      0x00\n        /* \"#utility.yul\":25013:25019   */\n      not\n        /* \"#utility.yul\":25005:25010   */\n      dup5\n        /* \"#utility.yul\":25002:25003   */\n      0x08\n        /* \"#utility.yul\":24998:25011   */\n      mul\n        /* \"#utility.yul\":24969:25020   */\n      tag_528\n      jump\t// in\n    tag_777:\n        /* \"#utility.yul\":24965:25021   */\n      not\n        /* \"#utility.yul\":25050:25054   */\n      dup1\n        /* \"#utility.yul\":25044:25048   */\n      dup4\n        /* \"#utility.yul\":25040:25055   */\n      and\n        /* \"#utility.yul\":25030:25055   */\n      swap2\n      pop\n        /* \"#utility.yul\":24943:25061   */\n      pop\n        /* \"#utility.yul\":24892:25061   */\n      swap3\n      swap2\n      pop\n      pop\n      jump\t// out\n        /* \"#utility.yul\":25066:25361   */\n    tag_530:\n        /* \"#utility.yul\":25142:25146   */\n      0x00\n        /* \"#utility.yul\":25288:25317   */\n      tag_779\n        /* \"#utility.yul\":25313:25316   */\n      dup4\n        /* \"#utility.yul\":25307:25311   */\n      dup4\n        /* \"#utility.yul\":25288:25317   */\n      tag_529\n      jump\t// in\n    tag_779:\n        /* \"#utility.yul\":25280:25317   */\n      swap2\n      pop\n        /* \"#utility.yul\":25350:25353   */\n      dup3\n        /* \"#utility.yul\":25347:25348   */\n      0x02\n        /* \"#utility.yul\":25343:25354   */\n      mul\n        /* \"#utility.yul\":25337:25341   */\n      dup3\n        /* \"#utility.yul\":25334:25355   */\n      or\n        /* \"#utility.yul\":25326:25355   */\n      swap1\n      pop\n        /* \"#utility.yul\":25066:25361   */\n      swap3\n      swap2\n      pop\n      pop\n      jump\t// out\n        /* \"#utility.yul\":25366:26761   */\n    tag_62:\n        /* \"#utility.yul\":25483:25520   */\n      tag_781\n        /* \"#utility.yul\":25516:25519   */\n      dup3\n        /* \"#utility.yul\":25483:25520   */\n      tag_478\n      jump\t// in\n    tag_781:\n        /* \"#utility.yul\":25585:25603   */\n      0xffffffffffffffff\n        /* \"#utility.yul\":25577:25583   */\n      dup2\n        /* \"#utility.yul\":25574:25604   */\n      gt\n        /* \"#utility.yul\":25571:25627   */\n      iszero\n      tag_782\n      jumpi\n        /* \"#utility.yul\":25607:25625   */\n      tag_783\n      tag_460\n      jump\t// in\n    tag_783:\n        /* \"#utility.yul\":25571:25627   */\n    tag_782:\n        /* \"#utility.yul\":25651:25689   */\n      tag_784\n        /* \"#utility.yul\":25683:25687   */\n      dup3\n        /* \"#utility.yul\":25677:25688   */\n      sload\n        /* \"#utility.yul\":25651:25689   */\n      tag_93\n      jump\t// in\n    tag_784:\n        /* \"#utility.yul\":25736:25803   */\n      tag_785\n        /* \"#utility.yul\":25796:25802   */\n      dup3\n        /* \"#utility.yul\":25788:25794   */\n      dup3\n        /* \"#utility.yul\":25782:25786   */\n      dup6\n        /* \"#utility.yul\":25736:25803   */\n      tag_527\n      jump\t// in\n    tag_785:\n        /* \"#utility.yul\":25830:25831   */\n      0x00\n        /* \"#utility.yul\":25854:25858   */\n      0x20\n        /* \"#utility.yul\":25841:25858   */\n      swap1\n      pop\n        /* \"#utility.yul\":25886:25888   */\n      0x1f\n        /* \"#utility.yul\":25878:25884   */\n      dup4\n        /* \"#utility.yul\":25875:25889   */\n      gt\n        /* \"#utility.yul\":25903:25904   */\n      0x01\n        /* \"#utility.yul\":25898:26516   */\n      dup2\n      eq\n      tag_787\n      jumpi\n        /* \"#utility.yul\":26560:26561   */\n      0x00\n        /* \"#utility.yul\":26577:26583   */\n      dup5\n        /* \"#utility.yul\":26574:26651   */\n      iszero\n      tag_788\n      jumpi\n        /* \"#utility.yul\":26626:26635   */\n      dup3\n        /* \"#utility.yul\":26621:26624   */\n      dup8\n        /* \"#utility.yul\":26617:26636   */\n      add\n        /* \"#utility.yul\":26611:26637   */\n      mload\n        /* \"#utility.yul\":26602:26637   */\n      swap1\n      pop\n        /* \"#utility.yul\":26574:26651   */\n    tag_788:\n        /* \"#utility.yul\":26677:26744   */\n      tag_789\n        /* \"#utility.yul\":26737:26743   */\n      dup6\n        /* \"#utility.yul\":26730:26735   */\n      dup3\n        /* \"#utility.yul\":26677:26744   */\n      tag_530\n      jump\t// in\n    tag_789:\n        /* \"#utility.yul\":26671:26675   */\n      dup7\n        /* \"#utility.yul\":26664:26745   */\n      sstore\n        /* \"#utility.yul\":26533:26755   */\n      pop\n        /* \"#utility.yul\":25868:26755   */\n      jump(tag_786)\n        /* \"#utility.yul\":25898:26516   */\n    tag_787:\n        /* \"#utility.yul\":25950:25954   */\n      0x1f\n        /* \"#utility.yul\":25946:25955   */\n      not\n        /* \"#utility.yul\":25938:25944   */\n      dup5\n        /* \"#utility.yul\":25934:25956   */\n      and\n        /* \"#utility.yul\":25984:26021   */\n      tag_790\n        /* \"#utility.yul\":26016:26020   */\n      dup7\n        /* \"#utility.yul\":25984:26021   */\n      tag_516\n      jump\t// in\n    tag_790:\n        /* \"#utility.yul\":26043:26044   */\n      0x00\n        /* \"#utility.yul\":26057:26265   */\n    tag_791:\n        /* \"#utility.yul\":26071:26078   */\n      dup3\n        /* \"#utility.yul\":26068:26069   */\n      dup2\n        /* \"#utility.yul\":26065:26079   */\n      lt\n        /* \"#utility.yul\":26057:26265   */\n      iszero\n      tag_793\n      jumpi\n        /* \"#utility.yul\":26150:26159   */\n      dup5\n        /* \"#utility.yul\":26145:26148   */\n      dup10\n        /* \"#utility.yul\":26141:26160   */\n      add\n        /* \"#utility.yul\":26135:26161   */\n      mload\n        /* \"#utility.yul\":26127:26133   */\n      dup3\n        /* \"#utility.yul\":26120:26162   */\n      sstore\n        /* \"#utility.yul\":26201:26202   */\n      0x01\n        /* \"#utility.yul\":26193:26199   */\n      dup3\n        /* \"#utility.yul\":26189:26203   */\n      add\n        /* \"#utility.yul\":26179:26203   */\n      swap2\n      pop\n        /* \"#utility.yul\":26248:26250   */\n      0x20\n        /* \"#utility.yul\":26237:26246   */\n      dup6\n        /* \"#utility.yul\":26233:26251   */\n      add\n        /* \"#utility.yul\":26220:26251   */\n      swap5\n      pop\n        /* \"#utility.yul\":26094:26098   */\n      0x20\n        /* \"#utility.yul\":26091:26092   */\n      dup2\n        /* \"#utility.yul\":26087:26099   */\n      add\n        /* \"#utility.yul\":26082:26099   */\n      swap1\n      pop\n        /* \"#utility.yul\":26057:26265   */\n      jump(tag_791)\n    tag_793:\n        /* \"#utility.yul\":26293:26299   */\n      dup7\n        /* \"#utility.yul\":26284:26291   */\n      dup4\n        /* \"#utility.yul\":26281:26300   */\n      lt\n        /* \"#utility.yul\":26278:26457   */\n      iszero\n      tag_794\n      jumpi\n        /* \"#utility.yul\":26351:26360   */\n      dup5\n        /* \"#utility.yul\":26346:26349   */\n      dup10\n        /* \"#utility.yul\":26342:26361   */\n      add\n        /* \"#utility.yul\":26336:26362   */\n      mload\n        /* \"#utility.yul\":26394:26442   */\n      tag_795\n        /* \"#utility.yul\":26436:26440   */\n      0x1f\n        /* \"#utility.yul\":26428:26434   */\n      dup10\n        /* \"#utility.yul\":26424:26441   */\n      and\n        /* \"#utility.yul\":26413:26422   */\n      dup3\n        /* \"#utility.yul\":26394:26442   */\n      tag_529\n      jump\t// in\n    tag_795:\n        /* \"#utility.yul\":26386:26392   */\n      dup4\n        /* \"#utility.yul\":26379:26443   */\n      sstore\n        /* \"#utility.yul\":26301:26457   */\n      pop\n        /* \"#utility.yul\":26278:26457   */\n    tag_794:\n        /* \"#utility.yul\":26503:26504   */\n      0x01\n        /* \"#utility.yul\":26499:26500   */\n      0x02\n        /* \"#utility.yul\":26491:26497   */\n      dup9\n        /* \"#utility.yul\":26487:26501   */\n      mul\n        /* \"#utility.yul\":26483:26505   */\n      add\n        /* \"#utility.yul\":26477:26481   */\n      dup9\n        /* \"#utility.yul\":26470:26506   */\n      sstore\n        /* \"#utility.yul\":25905:26516   */\n      pop\n      pop\n      pop\n        /* \"#utility.yul\":25868:26755   */\n    tag_786:\n      pop\n        /* \"#utility.yul\":25458:26761   */\n      pop\n      pop\n      pop\n        /* \"#utility.yul\":25366:26761   */\n      pop\n      pop\n      jump\t// out\n        /* \"#utility.yul\":26767:26947   */\n    tag_531:\n        /* \"#utility.yul\":26815:26892   */\n      0x4e487b7100000000000000000000000000000000000000000000000000000000\n        /* \"#utility.yul\":26812:26813   */\n      0x00\n        /* \"#utility.yul\":26805:26893   */\n      mstore\n        /* \"#utility.yul\":26912:26916   */\n      0x11\n        /* \"#utility.yul\":26909:26910   */\n      0x04\n        /* \"#utility.yul\":26902:26917   */\n      mstore\n        /* \"#utility.yul\":26936:26940   */\n      0x24\n        /* \"#utility.yul\":26933:26934   */\n      0x00\n        /* \"#utility.yul\":26926:26941   */\n      revert\n        /* \"#utility.yul\":26953:27363   */\n    tag_70:\n        /* \"#utility.yul\":26993:27000   */\n      0x00\n        /* \"#utility.yul\":27016:27036   */\n      tag_798\n        /* \"#utility.yul\":27034:27035   */\n      dup3\n        /* \"#utility.yul\":27016:27036   */\n      tag_467\n      jump\t// in\n    tag_798:\n        /* \"#utility.yul\":27011:27036   */\n      swap2\n      pop\n        /* \"#utility.yul\":27050:27070   */\n      tag_799\n        /* \"#utility.yul\":27068:27069   */\n      dup4\n        /* \"#utility.yul\":27050:27070   */\n      tag_467\n      jump\t// in\n    tag_799:\n        /* \"#utility.yul\":27045:27070   */\n      swap3\n      pop\n        /* \"#utility.yul\":27105:27106   */\n      dup3\n        /* \"#utility.yul\":27102:27103   */\n      dup3\n        /* \"#utility.yul\":27098:27107   */\n      mul\n        /* \"#utility.yul\":27127:27157   */\n      tag_800\n        /* \"#utility.yul\":27145:27156   */\n      dup2\n        /* \"#utility.yul\":27127:27157   */\n      tag_467\n      jump\t// in\n    tag_800:\n        /* \"#utility.yul\":27116:27157   */\n      swap2\n      pop\n        /* \"#utility.yul\":27306:27307   */\n      dup3\n        /* \"#utility.yul\":27297:27304   */\n      dup3\n        /* \"#utility.yul\":27293:27308   */\n      div\n        /* \"#utility.yul\":27290:27291   */\n      dup5\n        /* \"#utility.yul\":27287:27309   */\n      eq\n        /* \"#utility.yul\":27267:27268   */\n      dup4\n        /* \"#utility.yul\":27260:27269   */\n      iszero\n        /* \"#utility.yul\":27240:27323   */\n      or\n        /* \"#utility.yul\":27217:27356   */\n      tag_801\n      jumpi\n        /* \"#utility.yul\":27336:27354   */\n      tag_802\n      tag_531\n      jump\t// in\n    tag_802:\n        /* \"#utility.yul\":27217:27356   */\n    tag_801:\n        /* \"#utility.yul\":27001:27363   */\n      pop\n        /* \"#utility.yul\":26953:27363   */\n      swap3\n      swap2\n      pop\n      pop\n      jump\t// out\n        /* \"#utility.yul\":27369:27560   */\n    tag_75:\n        /* \"#utility.yul\":27409:27412   */\n      0x00\n        /* \"#utility.yul\":27428:27448   */\n      tag_804\n        /* \"#utility.yul\":27446:27447   */\n      dup3\n        /* \"#utility.yul\":27428:27448   */\n      tag_467\n      jump\t// in\n    tag_804:\n        /* \"#utility.yul\":27423:27448   */\n      swap2\n      pop\n        /* \"#utility.yul\":27462:27482   */\n      tag_805\n        /* \"#utility.yul\":27480:27481   */\n      dup4\n        /* \"#utility.yul\":27462:27482   */\n      tag_467\n      jump\t// in\n    tag_805:\n        /* \"#utility.yul\":27457:27482   */\n      swap3\n      pop\n        /* \"#utility.yul\":27505:27506   */\n      dup3\n        /* \"#utility.yul\":27502:27503   */\n      dup3\n        /* \"#utility.yul\":27498:27507   */\n      add\n        /* \"#utility.yul\":27491:27507   */\n      swap1\n      pop\n        /* \"#utility.yul\":27526:27529   */\n      dup1\n        /* \"#utility.yul\":27523:27524   */\n      dup3\n        /* \"#utility.yul\":27520:27530   */\n      gt\n        /* \"#utility.yul\":27517:27553   */\n      iszero\n      tag_806\n      jumpi\n        /* \"#utility.yul\":27533:27551   */\n      tag_807\n      tag_531\n      jump\t// in\n    tag_807:\n        /* \"#utility.yul\":27517:27553   */\n    tag_806:\n        /* \"#utility.yul\":27369:27560   */\n      swap3\n      swap2\n      pop\n      pop\n      jump\t// out\n    stop\n    data_00adbcbc5d6e925a5f7e055e6002d9b9c3d0cb41fa5c0edb7c27e5ca70f69064 496e76616c696420496e7075742021205469636b6574204e6f7420426f6f6b6564\n    data_0f45b0162a83e2d3d06c52488ad6c6a38bb213716124b88b02041cf961851fd6 4169724c696e65205469636b657420426f6f6b6564205375636365737366756c6c79\n    data_e79c8ad33dfd4541795cb03dd58fe1b66da077c35c3bddf13ef222b96f63fc32 5261696c776179205469636b657420426f6f6b6564205375636365737366756c6c79\n\n    auxdata: 0xa2646970667358221220a9fa0602001a818cba826f07275e42d08436238b020aeec8a8c9e3c7d7380d9b64736f6c634300081a0033\n}\n",
				"bytecode": {
					"linkReferences": {},
					"object": "6080604052348015600e575f80fd5b506126dd8061001c5f395ff3fe608060405234801561000f575f80fd5b5060043610610086575f3560e01c806398851f111161005957806398851f111461014b578063b051e7181461017b578063ca3aa589146101ab578063d851bbbc146101db57610086565b80630c52e2851461008a5780632292c804146100bb5780635522ed14146100eb578063913347321461011b575b5f80fd5b6100a4600480360381019061009f9190611aae565b61020b565b6040516100b2929190611b29565b60405180910390f35b6100d560048036038101906100d09190611b50565b61035d565b6040516100e29190611ba8565b60405180910390f35b61010560048036038101906101009190611b50565b61039b565b6040516101129190611ffc565b60405180910390f35b61013560048036038101906101309190612062565b6107fb565b6040516101429190612133565b60405180910390f35b61016560048036038101906101609190612176565b6108d9565b6040516101729190612133565b60405180910390f35b61019560048036038101906101909190612222565b61099a565b6040516101a29190612133565b60405180910390f35b6101c560048036038101906101c09190612176565b610a78565b6040516101d29190612133565b60405180910390f35b6101f560048036038101906101f09190612176565b610b39565b6040516102029190612133565b60405180910390f35b5f805f5460015f5481548110610224576102236122ab565b5b905f5260205f2090601402015f01819055508460015f548154811061024c5761024b6122ab565b5b905f5260205f209060140201600201908161026791906124d2565b508360015f548154811061027e5761027d6122ab565b5b905f5260205f209060140201600301819055508260015f54815481106102a7576102a66122ab565b5b905f5260205f2090601402016004015f6101000a81548173ffffffffffffffffffffffffffffffffffffffff021916908373ffffffffffffffffffffffffffffffffffffffff160217905550600a5f5461030191906125ce565b60015f5481548110610316576103156122ab565b5b905f5260205f2090601402016001018190555060015f8082825461033a919061260f565b925050819055505f54600a5f5461035191906125ce565b91509150935093915050565b5f60018381548110610372576103716122ab565b5b905f5260205f2090601402016001015482036103915760019050610395565b5f90505b92915050565b6103a36116e9565b5f15156103b0848461035d565b151503156107f457600183815481106103cc576103cb6122ab565b5b905f5260205f209060140201604051806101400160405290815f82015481526020016001820154815260200160028201805461040790612305565b80601f016020809104026020016040519081016040528092919081815260200182805461043390612305565b801561047e5780601f106104555761010080835404028352916020019161047e565b820191905f5260205f20905b81548152906001019060200180831161046157829003601f168201915b5050505050815260200160038201548152602001600482015f9054906101000a900473ffffffffffffffffffffffffffffffffffffffff1673ffffffffffffffffffffffffffffffffffffffff1673ffffffffffffffffffffffffffffffffffffffff168152602001600582016040518060800160405290815f82015f9054906101000a900460ff16600281111561051957610518611c3f565b5b600281111561052b5761052a611c3f565b5b81526020015f820160019054906101000a900460ff16600281111561055357610552611c3f565b5b600281111561056557610564611c3f565b5b8152602001600182015481526020016002820154815250508152602001600882016040518060800160405290815f82015f9054906101000a900460ff1660028111156105b4576105b3611c3f565b5b60028111156105c6576105c5611c3f565b5b81526020015f820160019054906101000a900460ff1660028111156105ee576105ed611c3f565b5b6002811115610600576105ff611c3f565b5b8152602001600182015481526020016002820154815250508152602001600b82016040518060800160405290815f82015f9054906101000a900460ff16600281111561064f5761064e611c3f565b5b600281111561066157610660611c3f565b5b81526020015f820160019054906101000a900460ff16600281111561068957610688611c3f565b5b600281111561069b5761069a611c3f565b5b8152602001600182015481526020016002820154815250508152602001600e82016040518060800160405290815f82015f9054906101000a900460ff1660028111156106ea576106e9611c3f565b5b60028111156106fc576106fb611c3f565b5b81526020015f820160019054906101000a900460ff16600281111561072457610723611c3f565b5b600281111561073657610735611c3f565b5b8152602001600182015481526020016002820154815250508152602001601182016040518060800160405290815f82015f9054906101000a900460ff16600281111561078557610784611c3f565b5b600281111561079757610796611c3f565b5b81526020015f820160019054906101000a900460ff1660028111156107bf576107be611c3f565b5b60028111156107d1576107d0611c3f565b5b8152602001600182015481526020016002820154815250508152505090506107f5565b5b92915050565b6060805f610809898961035d565b90505f151581151503610853576040518060400160405280601b81526020017f20596f7520617265206e6f7420746865207265616c204f776e6572000000000081525091506108ca565b5f6108618a89898989610c17565b905060011515811515036108ac576040518060400160405280601e81526020017f427573205469636b657420426f6f6b6564205375636365737366756c6c79000081525092506108c8565b6040518060600160405280602181526020016126436021913992505b505b81925050509695505050505050565b6060805f6108e7898961035d565b90505f151581151503610931576040518060400160405280601b81526020017f20596f7520617265206e6f7420746865207265616c204f776e65720000000000815250915061098b565b5f61093f8a89898989610e41565b9050600115158115150361096d57604051806060016040528060228152602001612664602291399250610989565b6040518060600160405280602181526020016126436021913992505b505b81925050509695505050505050565b6060805f6109a8898961035d565b90505f1515811515036109f2576040518060400160405280601b81526020017f20596f7520617265206e6f7420746865207265616c204f776e657200000000008152509150610a69565b5f610a008a8989898961106b565b90506001151581151503610a4b576040518060400160405280601e81526020017f427573205469636b657420426f6f6b6564205375636365737366756c6c7900008152509250610a67565b6040518060600160405280602181526020016126436021913992505b505b81925050509695505050505050565b6060805f610a86898961035d565b90505f151581151503610ad0576040518060400160405280601b81526020017f20596f7520617265206e6f7420746865207265616c204f776e657200000000008152509150610b2a565b5f610ade8a89898989611295565b90506001151581151503610b0c57604051806060016040528060228152602001612686602291399250610b28565b6040518060600160405280602181526020016126436021913992505b505b81925050509695505050505050565b6060805f610b47898961035d565b90505f151581151503610b91576040518060400160405280601b81526020017f20596f7520617265206e6f7420746865207265616c204f776e657200000000008152509150610c08565b5f610b9f8a898989896114bf565b90506001151581151503610bea576040518060400160405280601e81526020017f427573205469636b657420426f6f6b6564205375636365737366756c6c7900008152509250610c06565b6040518060600160405280602181526020016126436021913992505b505b81925050509695505050505050565b5f806002811115610c2b57610c2a611c3f565b5b856002811115610c3e57610c3d611c3f565b5b14158015610c71575060016002811115610c5b57610c5a611c3f565b5b856002811115610c6e57610c6d611c3f565b5b14155b8015610ca15750600280811115610c8b57610c8a611c3f565b5b856002811115610c9e57610c9d611c3f565b5b14155b15610cae575f9050610e38565b5f6002811115610cc157610cc0611c3f565b5b846002811115610cd457610cd3611c3f565b5b14158015610d07575060016002811115610cf157610cf0611c3f565b5b846002811115610d0457610d03611c3f565b5b14155b8015610d375750600280811115610d2157610d20611c3f565b5b846002811115610d3457610d33611c3f565b5b14155b15610d44575f9050610e38565b8460018781548110610d5957610d586122ab565b5b905f5260205f209060140201600e015f015f6101000a81548160ff02191690836002811115610d8b57610d8a611c3f565b5b02179055508360018781548110610da557610da46122ab565b5b905f5260205f209060140201600e015f0160016101000a81548160ff02191690836002811115610dd857610dd7611c3f565b5b02179055508260018781548110610df257610df16122ab565b5b905f5260205f209060140201600e01600101819055508160018781548110610e1d57610e1c6122ab565b5b905f5260205f209060140201600e0160020181905550600190505b95945050505050565b5f806002811115610e5557610e54611c3f565b5b856002811115610e6857610e67611c3f565b5b14158015610e9b575060016002811115610e8557610e84611c3f565b5b856002811115610e9857610e97611c3f565b5b14155b8015610ecb5750600280811115610eb557610eb4611c3f565b5b856002811115610ec857610ec7611c3f565b5b14155b15610ed8575f9050611062565b5f6002811115610eeb57610eea611c3f565b5b846002811115610efe57610efd611c3f565b5b14158015610f31575060016002811115610f1b57610f1a611c3f565b5b846002811115610f2e57610f2d611c3f565b5b14155b8015610f615750600280811115610f4b57610f4a611c3f565b5b846002811115610f5e57610f5d611c3f565b5b14155b15610f6e575f9050611062565b8460018781548110610f8357610f826122ab565b5b905f5260205f2090601402016008015f015f6101000a81548160ff02191690836002811115610fb557610fb4611c3f565b5b02179055508360018781548110610fcf57610fce6122ab565b5b905f5260205f2090601402016008015f0160016101000a81548160ff0219169083600281111561100257611001611c3f565b5b0217905550826001878154811061101c5761101b6122ab565b5b905f5260205f209060140201600801600101819055508160018781548110611047576110466122ab565b5b905f5260205f20906014020160080160020181905550600190505b95945050505050565b5f80600281111561107f5761107e611c3f565b5b85600281111561109257611091611c3f565b5b141580156110c55750600160028111156110af576110ae611c3f565b5b8560028111156110c2576110c1611c3f565b5b14155b80156110f557506002808111156110df576110de611c3f565b5b8560028111156110f2576110f1611c3f565b5b14155b15611102575f905061128c565b5f600281111561111557611114611c3f565b5b84600281111561112857611127611c3f565b5b1415801561115b57506001600281111561114557611144611c3f565b5b84600281111561115857611157611c3f565b5b14155b801561118b575060028081111561117557611174611c3f565b5b84600281111561118857611187611c3f565b5b14155b15611198575f905061128c565b84600187815481106111ad576111ac6122ab565b5b905f5260205f209060140201600b015f015f6101000a81548160ff021916908360028111156111df576111de611c3f565b5b021790555083600187815481106111f9576111f86122ab565b5b905f5260205f209060140201600b015f0160016101000a81548160ff0219169083600281111561122c5761122b611c3f565b5b02179055508260018781548110611246576112456122ab565b5b905f5260205f209060140201600b01600101819055508160018781548110611271576112706122ab565b5b905f5260205f209060140201600b0160020181905550600190505b95945050505050565b5f8060028111156112a9576112a8611c3f565b5b8560028111156112bc576112bb611c3f565b5b141580156112ef5750600160028111156112d9576112d8611c3f565b5b8560028111156112ec576112eb611c3f565b5b14155b801561131f575060028081111561130957611308611c3f565b5b85600281111561131c5761131b611c3f565b5b14155b1561132c575f90506114b6565b5f600281111561133f5761133e611c3f565b5b84600281111561135257611351611c3f565b5b1415801561138557506001600281111561136f5761136e611c3f565b5b84600281111561138257611381611c3f565b5b14155b80156113b5575060028081111561139f5761139e611c3f565b5b8460028111156113b2576113b1611c3f565b5b14155b156113c2575f90506114b6565b84600187815481106113d7576113d66122ab565b5b905f5260205f2090601402016011015f015f6101000a81548160ff0219169083600281111561140957611408611c3f565b5b02179055508360018781548110611423576114226122ab565b5b905f5260205f2090601402016011015f0160016101000a81548160ff0219169083600281111561145657611455611c3f565b5b021790555082600187815481106114705761146f6122ab565b5b905f5260205f20906014020160110160010181905550816001878154811061149b5761149a6122ab565b5b905f5260205f20906014020160110160020181905550600190505b95945050505050565b5f8060028111156114d3576114d2611c3f565b5b8560028111156114e6576114e5611c3f565b5b1415801561151957506001600281111561150357611502611c3f565b5b85600281111561151657611515611c3f565b5b14155b8015611549575060028081111561153357611532611c3f565b5b85600281111561154657611545611c3f565b5b14155b15611556575f90506116e0565b5f600281111561156957611568611c3f565b5b84600281111561157c5761157b611c3f565b5b141580156115af57506001600281111561159957611598611c3f565b5b8460028111156115ac576115ab611c3f565b5b14155b80156115df57506002808111156115c9576115c8611c3f565b5b8460028111156115dc576115db611c3f565b5b14155b156115ec575f90506116e0565b8460018781548110611601576116006122ab565b5b905f5260205f2090601402016005015f015f6101000a81548160ff0219169083600281111561163357611632611c3f565b5b0217905550836001878154811061164d5761164c6122ab565b5b905f5260205f2090601402016005015f0160016101000a81548160ff021916908360028111156116805761167f611c3f565b5b0217905550826001878154811061169a576116996122ab565b5b905f5260205f2090601402016005016001018190555081600187815481106116c5576116c46122ab565b5b905f5260205f20906014020160050160020181905550600190505b95945050505050565b6040518061014001604052805f81526020015f8152602001606081526020015f81526020015f73ffffffffffffffffffffffffffffffffffffffff16815260200161173261176c565b815260200161173f6117b4565b815260200161174c6117fc565b8152602001611759611844565b815260200161176661188c565b81525090565b60405180608001604052805f600281111561178a57611789611c3f565b5b81526020015f60028111156117a2576117a1611c3f565b5b81526020015f81526020015f81525090565b60405180608001604052805f60028111156117d2576117d1611c3f565b5b81526020015f60028111156117ea576117e9611c3f565b5b81526020015f81526020015f81525090565b60405180608001604052805f600281111561181a57611819611c3f565b5b81526020015f600281111561183257611831611c3f565b5b81526020015f81526020015f81525090565b60405180608001604052805f600281111561186257611861611c3f565b5b81526020015f600281111561187a57611879611c3f565b5b81526020015f81526020015f81525090565b60405180608001604052805f60028111156118aa576118a9611c3f565b5b81526020015f60028111156118c2576118c1611c3f565b5b81526020015f81526020015f81525090565b5f604051905090565b5f80fd5b5f80fd5b5f80fd5b5f80fd5b5f601f19601f8301169050919050565b7f4e487b71000000000000000000000000000000000000000000000000000000005f52604160045260245ffd5b611933826118ed565b810181811067ffffffffffffffff82111715611952576119516118fd565b5b80604052505050565b5f6119646118d4565b9050611970828261192a565b919050565b5f67ffffffffffffffff82111561198f5761198e6118fd565b5b611998826118ed565b9050602081019050919050565b828183375f83830152505050565b5f6119c56119c084611975565b61195b565b9050828152602081018484840111156119e1576119e06118e9565b5b6119ec8482856119a5565b509392505050565b5f82601f830112611a0857611a076118e5565b5b8135611a188482602086016119b3565b91505092915050565b5f819050919050565b611a3381611a21565b8114611a3d575f80fd5b50565b5f81359050611a4e81611a2a565b92915050565b5f73ffffffffffffffffffffffffffffffffffffffff82169050919050565b5f611a7d82611a54565b9050919050565b611a8d81611a73565b8114611a97575f80fd5b50565b5f81359050611aa881611a84565b92915050565b5f805f60608486031215611ac557611ac46118dd565b5b5f84013567ffffffffffffffff811115611ae257611ae16118e1565b5b611aee868287016119f4565b9350506020611aff86828701611a40565b9250506040611b1086828701611a9a565b9150509250925092565b611b2381611a21565b82525050565b5f604082019050611b3c5f830185611b1a565b611b496020830184611b1a565b9392505050565b5f8060408385031215611b6657611b656118dd565b5b5f611b7385828601611a40565b9250506020611b8485828601611a40565b9150509250929050565b5f8115159050919050565b611ba281611b8e565b82525050565b5f602082019050611bbb5f830184611b99565b92915050565b611bca81611a21565b82525050565b5f81519050919050565b5f82825260208201905092915050565b8281835e5f83830152505050565b5f611c0282611bd0565b611c0c8185611bda565b9350611c1c818560208601611bea565b611c25816118ed565b840191505092915050565b611c3981611a73565b82525050565b7f4e487b71000000000000000000000000000000000000000000000000000000005f52602160045260245ffd5b60038110611c7d57611c7c611c3f565b5b50565b5f819050611c8d82611c6c565b919050565b5f611c9c82611c80565b9050919050565b611cac81611c92565b82525050565b60038110611cc357611cc2611c3f565b5b50565b5f819050611cd382611cb2565b919050565b5f611ce282611cc6565b9050919050565b611cf281611cd8565b82525050565b608082015f820151611d0c5f850182611ca3565b506020820151611d1f6020850182611ce9565b506040820151611d326040850182611bc1565b506060820151611d456060850182611bc1565b50505050565b608082015f820151611d5f5f850182611ca3565b506020820151611d726020850182611ce9565b506040820151611d856040850182611bc1565b506060820151611d986060850182611bc1565b50505050565b60038110611daf57611dae611c3f565b5b50565b5f819050611dbf82611d9e565b919050565b5f611dce82611db2565b9050919050565b611dde81611dc4565b82525050565b608082015f820151611df85f850182611ca3565b506020820151611e0b6020850182611dd5565b506040820151611e1e6040850182611bc1565b506060820151611e316060850182611bc1565b50505050565b60038110611e4857611e47611c3f565b5b50565b5f819050611e5882611e37565b919050565b5f611e6782611e4b565b9050919050565b611e7781611e5d565b82525050565b608082015f820151611e915f850182611e6e565b506020820151611ea46020850182611ce9565b506040820151611eb76040850182611bc1565b506060820151611eca6060850182611bc1565b50505050565b608082015f820151611ee45f850182611ca3565b506020820151611ef76020850182611ce9565b506040820151611f0a6040850182611bc1565b506060820151611f1d6060850182611bc1565b50505050565b5f61032083015f830151611f395f860182611bc1565b506020830151611f4c6020860182611bc1565b5060408301518482036040860152611f648282611bf8565b9150506060830151611f796060860182611bc1565b506080830151611f8c6080860182611c30565b5060a0830151611f9f60a0860182611cf8565b5060c0830151611fb3610120860182611d4b565b5060e0830151611fc76101a0860182611de4565b50610100830151611fdc610220860182611e7d565b50610120830151611ff16102a0860182611ed0565b508091505092915050565b5f6020820190508181035f8301526120148184611f23565b905092915050565b60038110612028575f80fd5b50565b5f813590506120398161201c565b92915050565b6003811061204b575f80fd5b50565b5f8135905061205c8161203f565b92915050565b5f805f805f8060c0878903121561207c5761207b6118dd565b5b5f61208989828a01611a40565b965050602061209a89828a01611a40565b95505060406120ab89828a0161202b565b94505060606120bc89828a0161204e565b93505060806120cd89828a01611a40565b92505060a06120de89828a01611a40565b9150509295509295509295565b5f82825260208201905092915050565b5f61210582611bd0565b61210f81856120eb565b935061211f818560208601611bea565b612128816118ed565b840191505092915050565b5f6020820190508181035f83015261214b81846120fb565b905092915050565b6003811061215f575f80fd5b50565b5f8135905061217081612153565b92915050565b5f805f805f8060c087890312156121905761218f6118dd565b5b5f61219d89828a01611a40565b96505060206121ae89828a01611a40565b95505060406121bf89828a01612162565b94505060606121d089828a0161204e565b93505060806121e189828a01611a40565b92505060a06121f289828a01611a40565b9150509295509295509295565b6003811061220b575f80fd5b50565b5f8135905061221c816121ff565b92915050565b5f805f805f8060c0878903121561223c5761223b6118dd565b5b5f61224989828a01611a40565b965050602061225a89828a01611a40565b955050604061226b89828a01612162565b945050606061227c89828a0161220e565b935050608061228d89828a01611a40565b92505060a061229e89828a01611a40565b9150509295509295509295565b7f4e487b71000000000000000000000000000000000000000000000000000000005f52603260045260245ffd5b7f4e487b71000000000000000000000000000000000000000000000000000000005f52602260045260245ffd5b5f600282049050600182168061231c57607f821691505b60208210810361232f5761232e6122d8565b5b50919050565b5f819050815f5260205f209050919050565b5f6020601f8301049050919050565b5f82821b905092915050565b5f600883026123917fffffffffffffffffffffffffffffffffffffffffffffffffffffffffffffffff82612356565b61239b8683612356565b95508019841693508086168417925050509392505050565b5f819050919050565b5f6123d66123d16123cc84611a21565b6123b3565b611a21565b9050919050565b5f819050919050565b6123ef836123bc565b6124036123fb826123dd565b848454612362565b825550505050565b5f90565b61241761240b565b6124228184846123e6565b505050565b5b818110156124455761243a5f8261240f565b600181019050612428565b5050565b601f82111561248a5761245b81612335565b61246484612347565b81016020851015612473578190505b61248761247f85612347565b830182612427565b50505b505050565b5f82821c905092915050565b5f6124aa5f198460080261248f565b1980831691505092915050565b5f6124c2838361249b565b9150826002028217905092915050565b6124db82611bd0565b67ffffffffffffffff8111156124f4576124f36118fd565b5b6124fe8254612305565b612509828285612449565b5f60209050601f83116001811461253a575f8415612528578287015190505b61253285826124b7565b865550612599565b601f19841661254886612335565b5f5b8281101561256f5784890151825560018201915060208501945060208101905061254a565b8683101561258c5784890151612588601f89168261249b565b8355505b6001600288020188555050505b505050505050565b7f4e487b71000000000000000000000000000000000000000000000000000000005f52601160045260245ffd5b5f6125d882611a21565b91506125e383611a21565b92508282026125f181611a21565b91508282048414831517612608576126076125a1565b5b5092915050565b5f61261982611a21565b915061262483611a21565b925082820190508082111561263c5761263b6125a1565b5b9291505056fe496e76616c696420496e7075742021205469636b6574204e6f7420426f6f6b65644169724c696e65205469636b657420426f6f6b6564205375636365737366756c6c795261696c776179205469636b657420426f6f6b6564205375636365737366756c6c79a2646970667358221220a9fa0602001a818cba826f07275e42d08436238b020aeec8a8c9e3c7d7380d9b64736f6c634300081a0033",
					"opcodes": "PUSH1 0x80 PUSH1 0x40 MSTORE CALLVALUE DUP1 ISZERO PUSH1 0xE JUMPI PUSH0 DUP1 REVERT JUMPDEST POP PUSH2 0x26DD DUP1 PUSH2 0x1C PUSH0 CODECOPY PUSH0 RETURN INVALID PUSH1 0x80 PUSH1 0x40 MSTORE CALLVALUE DUP1 ISZERO PUSH2 0xF JUMPI PUSH0 DUP1 REVERT JUMPDEST POP PUSH1 0x4 CALLDATASIZE LT PUSH2 0x86 JUMPI PUSH0 CALLDATALOAD PUSH1 0xE0 SHR DUP1 PUSH4 0x98851F11 GT PUSH2 0x59 JUMPI DUP1 PUSH4 0x98851F11 EQ PUSH2 0x14B JUMPI DUP1 PUSH4 0xB051E718 EQ PUSH2 0x17B JUMPI DUP1 PUSH4 0xCA3AA589 EQ PUSH2 0x1AB JUMPI DUP1 PUSH4 0xD851BBBC EQ PUSH2 0x1DB JUMPI PUSH2 0x86 JUMP JUMPDEST DUP1 PUSH4 0xC52E285 EQ PUSH2 0x8A JUMPI DUP1 PUSH4 0x2292C804 EQ PUSH2 0xBB JUMPI DUP1 PUSH4 0x5522ED14 EQ PUSH2 0xEB JUMPI DUP1 PUSH4 0x91334732 EQ PUSH2 0x11B JUMPI JUMPDEST PUSH0 DUP1 REVERT JUMPDEST PUSH2 0xA4 PUSH1 0x4 DUP1 CALLDATASIZE SUB DUP2 ADD SWAP1 PUSH2 0x9F SWAP2 SWAP1 PUSH2 0x1AAE JUMP JUMPDEST PUSH2 0x20B JUMP JUMPDEST PUSH1 0x40 MLOAD PUSH2 0xB2 SWAP3 SWAP2 SWAP1 PUSH2 0x1B29 JUMP JUMPDEST PUSH1 0x40 MLOAD DUP1 SWAP2 SUB SWAP1 RETURN JUMPDEST PUSH2 0xD5 PUSH1 0x4 DUP1 CALLDATASIZE SUB DUP2 ADD SWAP1 PUSH2 0xD0 SWAP2 SWAP1 PUSH2 0x1B50 JUMP JUMPDEST PUSH2 0x35D JUMP JUMPDEST PUSH1 0x40 MLOAD PUSH2 0xE2 SWAP2 SWAP1 PUSH2 0x1BA8 JUMP JUMPDEST PUSH1 0x40 MLOAD DUP1 SWAP2 SUB SWAP1 RETURN JUMPDEST PUSH2 0x105 PUSH1 0x4 DUP1 CALLDATASIZE SUB DUP2 ADD SWAP1 PUSH2 0x100 SWAP2 SWAP1 PUSH2 0x1B50 JUMP JUMPDEST PUSH2 0x39B JUMP JUMPDEST PUSH1 0x40 MLOAD PUSH2 0x112 SWAP2 SWAP1 PUSH2 0x1FFC JUMP JUMPDEST PUSH1 0x40 MLOAD DUP1 SWAP2 SUB SWAP1 RETURN JUMPDEST PUSH2 0x135 PUSH1 0x4 DUP1 CALLDATASIZE SUB DUP2 ADD SWAP1 PUSH2 0x130 SWAP2 SWAP1 PUSH2 0x2062 JUMP JUMPDEST PUSH2 0x7FB JUMP JUMPDEST PUSH1 0x40 MLOAD PUSH2 0x142 SWAP2 SWAP1 PUSH2 0x2133 JUMP JUMPDEST PUSH1 0x40 MLOAD DUP1 SWAP2 SUB SWAP1 RETURN JUMPDEST PUSH2 0x165 PUSH1 0x4 DUP1 CALLDATASIZE SUB DUP2 ADD SWAP1 PUSH2 0x160 SWAP2 SWAP1 PUSH2 0x2176 JUMP JUMPDEST PUSH2 0x8D9 JUMP JUMPDEST PUSH1 0x40 MLOAD PUSH2 0x172 SWAP2 SWAP1 PUSH2 0x2133 JUMP JUMPDEST PUSH1 0x40 MLOAD DUP1 SWAP2 SUB SWAP1 RETURN JUMPDEST PUSH2 0x195 PUSH1 0x4 DUP1 CALLDATASIZE SUB DUP2 ADD SWAP1 PUSH2 0x190 SWAP2 SWAP1 PUSH2 0x2222 JUMP JUMPDEST PUSH2 0x99A JUMP JUMPDEST PUSH1 0x40 MLOAD PUSH2 0x1A2 SWAP2 SWAP1 PUSH2 0x2133 JUMP JUMPDEST PUSH1 0x40 MLOAD DUP1 SWAP2 SUB SWAP1 RETURN JUMPDEST PUSH2 0x1C5 PUSH1 0x4 DUP1 CALLDATASIZE SUB DUP2 ADD SWAP1 PUSH2 0x1C0 SWAP2 SWAP1 PUSH2 0x2176 JUMP JUMPDEST PUSH2 0xA78 JUMP JUMPDEST PUSH1 0x40 MLOAD PUSH2 0x1D2 SWAP2 SWAP1 PUSH2 0x2133 JUMP JUMPDEST PUSH1 0x40 MLOAD DUP1 SWAP2 SUB SWAP1 RETURN JUMPDEST PUSH2 0x1F5 PUSH1 0x4 DUP1 CALLDATASIZE SUB DUP2 ADD SWAP1 PUSH2 0x1F0 SWAP2 SWAP1 PUSH2 0x2176 JUMP JUMPDEST PUSH2 0xB39 JUMP JUMPDEST PUSH1 0x40 MLOAD PUSH2 0x202 SWAP2 SWAP1 PUSH2 0x2133 JUMP JUMPDEST PUSH1 0x40 MLOAD DUP1 SWAP2 SUB SWAP1 RETURN JUMPDEST PUSH0 DUP1 PUSH0 SLOAD PUSH1 0x1 PUSH0 SLOAD DUP2 SLOAD DUP2 LT PUSH2 0x224 JUMPI PUSH2 0x223 PUSH2 0x22AB JUMP JUMPDEST JUMPDEST SWAP1 PUSH0 MSTORE PUSH1 0x20 PUSH0 KECCAK256 SWAP1 PUSH1 0x14 MUL ADD PUSH0 ADD DUP2 SWAP1 SSTORE POP DUP5 PUSH1 0x1 PUSH0 SLOAD DUP2 SLOAD DUP2 LT PUSH2 0x24C JUMPI PUSH2 0x24B PUSH2 0x22AB JUMP JUMPDEST JUMPDEST SWAP1 PUSH0 MSTORE PUSH1 0x20 PUSH0 KECCAK256 SWAP1 PUSH1 0x14 MUL ADD PUSH1 0x2 ADD SWAP1 DUP2 PUSH2 0x267 SWAP2 SWAP1 PUSH2 0x24D2 JUMP JUMPDEST POP DUP4 PUSH1 0x1 PUSH0 SLOAD DUP2 SLOAD DUP2 LT PUSH2 0x27E JUMPI PUSH2 0x27D PUSH2 0x22AB JUMP JUMPDEST JUMPDEST SWAP1 PUSH0 MSTORE PUSH1 0x20 PUSH0 KECCAK256 SWAP1 PUSH1 0x14 MUL ADD PUSH1 0x3 ADD DUP2 SWAP1 SSTORE POP DUP3 PUSH1 0x1 PUSH0 SLOAD DUP2 SLOAD DUP2 LT PUSH2 0x2A7 JUMPI PUSH2 0x2A6 PUSH2 0x22AB JUMP JUMPDEST JUMPDEST SWAP1 PUSH0 MSTORE PUSH1 0x20 PUSH0 KECCAK256 SWAP1 PUSH1 0x14 MUL ADD PUSH1 0x4 ADD PUSH0 PUSH2 0x100 EXP DUP2 SLOAD DUP2 PUSH20 0xFFFFFFFFFFFFFFFFFFFFFFFFFFFFFFFFFFFFFFFF MUL NOT AND SWAP1 DUP4 PUSH20 0xFFFFFFFFFFFFFFFFFFFFFFFFFFFFFFFFFFFFFFFF AND MUL OR SWAP1 SSTORE POP PUSH1 0xA PUSH0 SLOAD PUSH2 0x301 SWAP2 SWAP1 PUSH2 0x25CE JUMP JUMPDEST PUSH1 0x1 PUSH0 SLOAD DUP2 SLOAD DUP2 LT PUSH2 0x316 JUMPI PUSH2 0x315 PUSH2 0x22AB JUMP JUMPDEST JUMPDEST SWAP1 PUSH0 MSTORE PUSH1 0x20 PUSH0 KECCAK256 SWAP1 PUSH1 0x14 MUL ADD PUSH1 0x1 ADD DUP2 SWAP1 SSTORE POP PUSH1 0x1 PUSH0 DUP1 DUP3 DUP3 SLOAD PUSH2 0x33A SWAP2 SWAP1 PUSH2 0x260F JUMP JUMPDEST SWAP3 POP POP DUP2 SWAP1 SSTORE POP PUSH0 SLOAD PUSH1 0xA PUSH0 SLOAD PUSH2 0x351 SWAP2 SWAP1 PUSH2 0x25CE JUMP JUMPDEST SWAP2 POP SWAP2 POP SWAP4 POP SWAP4 SWAP2 POP POP JUMP JUMPDEST PUSH0 PUSH1 0x1 DUP4 DUP2 SLOAD DUP2 LT PUSH2 0x372 JUMPI PUSH2 0x371 PUSH2 0x22AB JUMP JUMPDEST JUMPDEST SWAP1 PUSH0 MSTORE PUSH1 0x20 PUSH0 KECCAK256 SWAP1 PUSH1 0x14 MUL ADD PUSH1 0x1 ADD SLOAD DUP3 SUB PUSH2 0x391 JUMPI PUSH1 0x1 SWAP1 POP PUSH2 0x395 JUMP JUMPDEST PUSH0 SWAP1 POP JUMPDEST SWAP3 SWAP2 POP POP JUMP JUMPDEST PUSH2 0x3A3 PUSH2 0x16E9 JUMP JUMPDEST PUSH0 ISZERO ISZERO PUSH2 0x3B0 DUP5 DUP5 PUSH2 0x35D JUMP JUMPDEST ISZERO ISZERO SUB ISZERO PUSH2 0x7F4 JUMPI PUSH1 0x1 DUP4 DUP2 SLOAD DUP2 LT PUSH2 0x3CC JUMPI PUSH2 0x3CB PUSH2 0x22AB JUMP JUMPDEST JUMPDEST SWAP1 PUSH0 MSTORE PUSH1 0x20 PUSH0 KECCAK256 SWAP1 PUSH1 0x14 MUL ADD PUSH1 0x40 MLOAD DUP1 PUSH2 0x140 ADD PUSH1 0x40 MSTORE SWAP1 DUP2 PUSH0 DUP3 ADD SLOAD DUP2 MSTORE PUSH1 0x20 ADD PUSH1 0x1 DUP3 ADD SLOAD DUP2 MSTORE PUSH1 0x20 ADD PUSH1 0x2 DUP3 ADD DUP1 SLOAD PUSH2 0x407 SWAP1 PUSH2 0x2305 JUMP JUMPDEST DUP1 PUSH1 0x1F ADD PUSH1 0x20 DUP1 SWAP2 DIV MUL PUSH1 0x20 ADD PUSH1 0x40 MLOAD SWAP1 DUP2 ADD PUSH1 0x40 MSTORE DUP1 SWAP3 SWAP2 SWAP1 DUP2 DUP2 MSTORE PUSH1 0x20 ADD DUP3 DUP1 SLOAD PUSH2 0x433 SWAP1 PUSH2 0x2305 JUMP JUMPDEST DUP1 ISZERO PUSH2 0x47E JUMPI DUP1 PUSH1 0x1F LT PUSH2 0x455 JUMPI PUSH2 0x100 DUP1 DUP4 SLOAD DIV MUL DUP4 MSTORE SWAP2 PUSH1 0x20 ADD SWAP2 PUSH2 0x47E JUMP JUMPDEST DUP3 ADD SWAP2 SWAP1 PUSH0 MSTORE PUSH1 0x20 PUSH0 KECCAK256 SWAP1 JUMPDEST DUP2 SLOAD DUP2 MSTORE SWAP1 PUSH1 0x1 ADD SWAP1 PUSH1 0x20 ADD DUP1 DUP4 GT PUSH2 0x461 JUMPI DUP3 SWAP1 SUB PUSH1 0x1F AND DUP3 ADD SWAP2 JUMPDEST POP POP POP POP POP DUP2 MSTORE PUSH1 0x20 ADD PUSH1 0x3 DUP3 ADD SLOAD DUP2 MSTORE PUSH1 0x20 ADD PUSH1 0x4 DUP3 ADD PUSH0 SWAP1 SLOAD SWAP1 PUSH2 0x100 EXP SWAP1 DIV PUSH20 0xFFFFFFFFFFFFFFFFFFFFFFFFFFFFFFFFFFFFFFFF AND PUSH20 0xFFFFFFFFFFFFFFFFFFFFFFFFFFFFFFFFFFFFFFFF AND PUSH20 0xFFFFFFFFFFFFFFFFFFFFFFFFFFFFFFFFFFFFFFFF AND DUP2 MSTORE PUSH1 0x20 ADD PUSH1 0x5 DUP3 ADD PUSH1 0x40 MLOAD DUP1 PUSH1 0x80 ADD PUSH1 0x40 MSTORE SWAP1 DUP2 PUSH0 DUP3 ADD PUSH0 SWAP1 SLOAD SWAP1 PUSH2 0x100 EXP SWAP1 DIV PUSH1 0xFF AND PUSH1 0x2 DUP2 GT ISZERO PUSH2 0x519 JUMPI PUSH2 0x518 PUSH2 0x1C3F JUMP JUMPDEST JUMPDEST PUSH1 0x2 DUP2 GT ISZERO PUSH2 0x52B JUMPI PUSH2 0x52A PUSH2 0x1C3F JUMP JUMPDEST JUMPDEST DUP2 MSTORE PUSH1 0x20 ADD PUSH0 DUP3 ADD PUSH1 0x1 SWAP1 SLOAD SWAP1 PUSH2 0x100 EXP SWAP1 DIV PUSH1 0xFF AND PUSH1 0x2 DUP2 GT ISZERO PUSH2 0x553 JUMPI PUSH2 0x552 PUSH2 0x1C3F JUMP JUMPDEST JUMPDEST PUSH1 0x2 DUP2 GT ISZERO PUSH2 0x565 JUMPI PUSH2 0x564 PUSH2 0x1C3F JUMP JUMPDEST JUMPDEST DUP2 MSTORE PUSH1 0x20 ADD PUSH1 0x1 DUP3 ADD SLOAD DUP2 MSTORE PUSH1 0x20 ADD PUSH1 0x2 DUP3 ADD SLOAD DUP2 MSTORE POP POP DUP2 MSTORE PUSH1 0x20 ADD PUSH1 0x8 DUP3 ADD PUSH1 0x40 MLOAD DUP1 PUSH1 0x80 ADD PUSH1 0x40 MSTORE SWAP1 DUP2 PUSH0 DUP3 ADD PUSH0 SWAP1 SLOAD SWAP1 PUSH2 0x100 EXP SWAP1 DIV PUSH1 0xFF AND PUSH1 0x2 DUP2 GT ISZERO PUSH2 0x5B4 JUMPI PUSH2 0x5B3 PUSH2 0x1C3F JUMP JUMPDEST JUMPDEST PUSH1 0x2 DUP2 GT ISZERO PUSH2 0x5C6 JUMPI PUSH2 0x5C5 PUSH2 0x1C3F JUMP JUMPDEST JUMPDEST DUP2 MSTORE PUSH1 0x20 ADD PUSH0 DUP3 ADD PUSH1 0x1 SWAP1 SLOAD SWAP1 PUSH2 0x100 EXP SWAP1 DIV PUSH1 0xFF AND PUSH1 0x2 DUP2 GT ISZERO PUSH2 0x5EE JUMPI PUSH2 0x5ED PUSH2 0x1C3F JUMP JUMPDEST JUMPDEST PUSH1 0x2 DUP2 GT ISZERO PUSH2 0x600 JUMPI PUSH2 0x5FF PUSH2 0x1C3F JUMP JUMPDEST JUMPDEST DUP2 MSTORE PUSH1 0x20 ADD PUSH1 0x1 DUP3 ADD SLOAD DUP2 MSTORE PUSH1 0x20 ADD PUSH1 0x2 DUP3 ADD SLOAD DUP2 MSTORE POP POP DUP2 MSTORE PUSH1 0x20 ADD PUSH1 0xB DUP3 ADD PUSH1 0x40 MLOAD DUP1 PUSH1 0x80 ADD PUSH1 0x40 MSTORE SWAP1 DUP2 PUSH0 DUP3 ADD PUSH0 SWAP1 SLOAD SWAP1 PUSH2 0x100 EXP SWAP1 DIV PUSH1 0xFF AND PUSH1 0x2 DUP2 GT ISZERO PUSH2 0x64F JUMPI PUSH2 0x64E PUSH2 0x1C3F JUMP JUMPDEST JUMPDEST PUSH1 0x2 DUP2 GT ISZERO PUSH2 0x661 JUMPI PUSH2 0x660 PUSH2 0x1C3F JUMP JUMPDEST JUMPDEST DUP2 MSTORE PUSH1 0x20 ADD PUSH0 DUP3 ADD PUSH1 0x1 SWAP1 SLOAD SWAP1 PUSH2 0x100 EXP SWAP1 DIV PUSH1 0xFF AND PUSH1 0x2 DUP2 GT ISZERO PUSH2 0x689 JUMPI PUSH2 0x688 PUSH2 0x1C3F JUMP JUMPDEST JUMPDEST PUSH1 0x2 DUP2 GT ISZERO PUSH2 0x69B JUMPI PUSH2 0x69A PUSH2 0x1C3F JUMP JUMPDEST JUMPDEST DUP2 MSTORE PUSH1 0x20 ADD PUSH1 0x1 DUP3 ADD SLOAD DUP2 MSTORE PUSH1 0x20 ADD PUSH1 0x2 DUP3 ADD SLOAD DUP2 MSTORE POP POP DUP2 MSTORE PUSH1 0x20 ADD PUSH1 0xE DUP3 ADD PUSH1 0x40 MLOAD DUP1 PUSH1 0x80 ADD PUSH1 0x40 MSTORE SWAP1 DUP2 PUSH0 DUP3 ADD PUSH0 SWAP1 SLOAD SWAP1 PUSH2 0x100 EXP SWAP1 DIV PUSH1 0xFF AND PUSH1 0x2 DUP2 GT ISZERO PUSH2 0x6EA JUMPI PUSH2 0x6E9 PUSH2 0x1C3F JUMP JUMPDEST JUMPDEST PUSH1 0x2 DUP2 GT ISZERO PUSH2 0x6FC JUMPI PUSH2 0x6FB PUSH2 0x1C3F JUMP JUMPDEST JUMPDEST DUP2 MSTORE PUSH1 0x20 ADD PUSH0 DUP3 ADD PUSH1 0x1 SWAP1 SLOAD SWAP1 PUSH2 0x100 EXP SWAP1 DIV PUSH1 0xFF AND PUSH1 0x2 DUP2 GT ISZERO PUSH2 0x724 JUMPI PUSH2 0x723 PUSH2 0x1C3F JUMP JUMPDEST JUMPDEST PUSH1 0x2 DUP2 GT ISZERO PUSH2 0x736 JUMPI PUSH2 0x735 PUSH2 0x1C3F JUMP JUMPDEST JUMPDEST DUP2 MSTORE PUSH1 0x20 ADD PUSH1 0x1 DUP3 ADD SLOAD DUP2 MSTORE PUSH1 0x20 ADD PUSH1 0x2 DUP3 ADD SLOAD DUP2 MSTORE POP POP DUP2 MSTORE PUSH1 0x20 ADD PUSH1 0x11 DUP3 ADD PUSH1 0x40 MLOAD DUP1 PUSH1 0x80 ADD PUSH1 0x40 MSTORE SWAP1 DUP2 PUSH0 DUP3 ADD PUSH0 SWAP1 SLOAD SWAP1 PUSH2 0x100 EXP SWAP1 DIV PUSH1 0xFF AND PUSH1 0x2 DUP2 GT ISZERO PUSH2 0x785 JUMPI PUSH2 0x784 PUSH2 0x1C3F JUMP JUMPDEST JUMPDEST PUSH1 0x2 DUP2 GT ISZERO PUSH2 0x797 JUMPI PUSH2 0x796 PUSH2 0x1C3F JUMP JUMPDEST JUMPDEST DUP2 MSTORE PUSH1 0x20 ADD PUSH0 DUP3 ADD PUSH1 0x1 SWAP1 SLOAD SWAP1 PUSH2 0x100 EXP SWAP1 DIV PUSH1 0xFF AND PUSH1 0x2 DUP2 GT ISZERO PUSH2 0x7BF JUMPI PUSH2 0x7BE PUSH2 0x1C3F JUMP JUMPDEST JUMPDEST PUSH1 0x2 DUP2 GT ISZERO PUSH2 0x7D1 JUMPI PUSH2 0x7D0 PUSH2 0x1C3F JUMP JUMPDEST JUMPDEST DUP2 MSTORE PUSH1 0x20 ADD PUSH1 0x1 DUP3 ADD SLOAD DUP2 MSTORE PUSH1 0x20 ADD PUSH1 0x2 DUP3 ADD SLOAD DUP2 MSTORE POP POP DUP2 MSTORE POP POP SWAP1 POP PUSH2 0x7F5 JUMP JUMPDEST JUMPDEST SWAP3 SWAP2 POP POP JUMP JUMPDEST PUSH1 0x60 DUP1 PUSH0 PUSH2 0x809 DUP10 DUP10 PUSH2 0x35D JUMP JUMPDEST SWAP1 POP PUSH0 ISZERO ISZERO DUP2 ISZERO ISZERO SUB PUSH2 0x853 JUMPI PUSH1 0x40 MLOAD DUP1 PUSH1 0x40 ADD PUSH1 0x40 MSTORE DUP1 PUSH1 0x1B DUP2 MSTORE PUSH1 0x20 ADD PUSH32 0x20596F7520617265206E6F7420746865207265616C204F776E65720000000000 DUP2 MSTORE POP SWAP2 POP PUSH2 0x8CA JUMP JUMPDEST PUSH0 PUSH2 0x861 DUP11 DUP10 DUP10 DUP10 DUP10 PUSH2 0xC17 JUMP JUMPDEST SWAP1 POP PUSH1 0x1 ISZERO ISZERO DUP2 ISZERO ISZERO SUB PUSH2 0x8AC JUMPI PUSH1 0x40 MLOAD DUP1 PUSH1 0x40 ADD PUSH1 0x40 MSTORE DUP1 PUSH1 0x1E DUP2 MSTORE PUSH1 0x20 ADD PUSH32 0x427573205469636B657420426F6F6B6564205375636365737366756C6C790000 DUP2 MSTORE POP SWAP3 POP PUSH2 0x8C8 JUMP JUMPDEST PUSH1 0x40 MLOAD DUP1 PUSH1 0x60 ADD PUSH1 0x40 MSTORE DUP1 PUSH1 0x21 DUP2 MSTORE PUSH1 0x20 ADD PUSH2 0x2643 PUSH1 0x21 SWAP2 CODECOPY SWAP3 POP JUMPDEST POP JUMPDEST DUP2 SWAP3 POP POP POP SWAP7 SWAP6 POP POP POP POP POP POP JUMP JUMPDEST PUSH1 0x60 DUP1 PUSH0 PUSH2 0x8E7 DUP10 DUP10 PUSH2 0x35D JUMP JUMPDEST SWAP1 POP PUSH0 ISZERO ISZERO DUP2 ISZERO ISZERO SUB PUSH2 0x931 JUMPI PUSH1 0x40 MLOAD DUP1 PUSH1 0x40 ADD PUSH1 0x40 MSTORE DUP1 PUSH1 0x1B DUP2 MSTORE PUSH1 0x20 ADD PUSH32 0x20596F7520617265206E6F7420746865207265616C204F776E65720000000000 DUP2 MSTORE POP SWAP2 POP PUSH2 0x98B JUMP JUMPDEST PUSH0 PUSH2 0x93F DUP11 DUP10 DUP10 DUP10 DUP10 PUSH2 0xE41 JUMP JUMPDEST SWAP1 POP PUSH1 0x1 ISZERO ISZERO DUP2 ISZERO ISZERO SUB PUSH2 0x96D JUMPI PUSH1 0x40 MLOAD DUP1 PUSH1 0x60 ADD PUSH1 0x40 MSTORE DUP1 PUSH1 0x22 DUP2 MSTORE PUSH1 0x20 ADD PUSH2 0x2664 PUSH1 0x22 SWAP2 CODECOPY SWAP3 POP PUSH2 0x989 JUMP JUMPDEST PUSH1 0x40 MLOAD DUP1 PUSH1 0x60 ADD PUSH1 0x40 MSTORE DUP1 PUSH1 0x21 DUP2 MSTORE PUSH1 0x20 ADD PUSH2 0x2643 PUSH1 0x21 SWAP2 CODECOPY SWAP3 POP JUMPDEST POP JUMPDEST DUP2 SWAP3 POP POP POP SWAP7 SWAP6 POP POP POP POP POP POP JUMP JUMPDEST PUSH1 0x60 DUP1 PUSH0 PUSH2 0x9A8 DUP10 DUP10 PUSH2 0x35D JUMP JUMPDEST SWAP1 POP PUSH0 ISZERO ISZERO DUP2 ISZERO ISZERO SUB PUSH2 0x9F2 JUMPI PUSH1 0x40 MLOAD DUP1 PUSH1 0x40 ADD PUSH1 0x40 MSTORE DUP1 PUSH1 0x1B DUP2 MSTORE PUSH1 0x20 ADD PUSH32 0x20596F7520617265206E6F7420746865207265616C204F776E65720000000000 DUP2 MSTORE POP SWAP2 POP PUSH2 0xA69 JUMP JUMPDEST PUSH0 PUSH2 0xA00 DUP11 DUP10 DUP10 DUP10 DUP10 PUSH2 0x106B JUMP JUMPDEST SWAP1 POP PUSH1 0x1 ISZERO ISZERO DUP2 ISZERO ISZERO SUB PUSH2 0xA4B JUMPI PUSH1 0x40 MLOAD DUP1 PUSH1 0x40 ADD PUSH1 0x40 MSTORE DUP1 PUSH1 0x1E DUP2 MSTORE PUSH1 0x20 ADD PUSH32 0x427573205469636B657420426F6F6B6564205375636365737366756C6C790000 DUP2 MSTORE POP SWAP3 POP PUSH2 0xA67 JUMP JUMPDEST PUSH1 0x40 MLOAD DUP1 PUSH1 0x60 ADD PUSH1 0x40 MSTORE DUP1 PUSH1 0x21 DUP2 MSTORE PUSH1 0x20 ADD PUSH2 0x2643 PUSH1 0x21 SWAP2 CODECOPY SWAP3 POP JUMPDEST POP JUMPDEST DUP2 SWAP3 POP POP POP SWAP7 SWAP6 POP POP POP POP POP POP JUMP JUMPDEST PUSH1 0x60 DUP1 PUSH0 PUSH2 0xA86 DUP10 DUP10 PUSH2 0x35D JUMP JUMPDEST SWAP1 POP PUSH0 ISZERO ISZERO DUP2 ISZERO ISZERO SUB PUSH2 0xAD0 JUMPI PUSH1 0x40 MLOAD DUP1 PUSH1 0x40 ADD PUSH1 0x40 MSTORE DUP1 PUSH1 0x1B DUP2 MSTORE PUSH1 0x20 ADD PUSH32 0x20596F7520617265206E6F7420746865207265616C204F776E65720000000000 DUP2 MSTORE POP SWAP2 POP PUSH2 0xB2A JUMP JUMPDEST PUSH0 PUSH2 0xADE DUP11 DUP10 DUP10 DUP10 DUP10 PUSH2 0x1295 JUMP JUMPDEST SWAP1 POP PUSH1 0x1 ISZERO ISZERO DUP2 ISZERO ISZERO SUB PUSH2 0xB0C JUMPI PUSH1 0x40 MLOAD DUP1 PUSH1 0x60 ADD PUSH1 0x40 MSTORE DUP1 PUSH1 0x22 DUP2 MSTORE PUSH1 0x20 ADD PUSH2 0x2686 PUSH1 0x22 SWAP2 CODECOPY SWAP3 POP PUSH2 0xB28 JUMP JUMPDEST PUSH1 0x40 MLOAD DUP1 PUSH1 0x60 ADD PUSH1 0x40 MSTORE DUP1 PUSH1 0x21 DUP2 MSTORE PUSH1 0x20 ADD PUSH2 0x2643 PUSH1 0x21 SWAP2 CODECOPY SWAP3 POP JUMPDEST POP JUMPDEST DUP2 SWAP3 POP POP POP SWAP7 SWAP6 POP POP POP POP POP POP JUMP JUMPDEST PUSH1 0x60 DUP1 PUSH0 PUSH2 0xB47 DUP10 DUP10 PUSH2 0x35D JUMP JUMPDEST SWAP1 POP PUSH0 ISZERO ISZERO DUP2 ISZERO ISZERO SUB PUSH2 0xB91 JUMPI PUSH1 0x40 MLOAD DUP1 PUSH1 0x40 ADD PUSH1 0x40 MSTORE DUP1 PUSH1 0x1B DUP2 MSTORE PUSH1 0x20 ADD PUSH32 0x20596F7520617265206E6F7420746865207265616C204F776E65720000000000 DUP2 MSTORE POP SWAP2 POP PUSH2 0xC08 JUMP JUMPDEST PUSH0 PUSH2 0xB9F DUP11 DUP10 DUP10 DUP10 DUP10 PUSH2 0x14BF JUMP JUMPDEST SWAP1 POP PUSH1 0x1 ISZERO ISZERO DUP2 ISZERO ISZERO SUB PUSH2 0xBEA JUMPI PUSH1 0x40 MLOAD DUP1 PUSH1 0x40 ADD PUSH1 0x40 MSTORE DUP1 PUSH1 0x1E DUP2 MSTORE PUSH1 0x20 ADD PUSH32 0x427573205469636B657420426F6F6B6564205375636365737366756C6C790000 DUP2 MSTORE POP SWAP3 POP PUSH2 0xC06 JUMP JUMPDEST PUSH1 0x40 MLOAD DUP1 PUSH1 0x60 ADD PUSH1 0x40 MSTORE DUP1 PUSH1 0x21 DUP2 MSTORE PUSH1 0x20 ADD PUSH2 0x2643 PUSH1 0x21 SWAP2 CODECOPY SWAP3 POP JUMPDEST POP JUMPDEST DUP2 SWAP3 POP POP POP SWAP7 SWAP6 POP POP POP POP POP POP JUMP JUMPDEST PUSH0 DUP1 PUSH1 0x2 DUP2 GT ISZERO PUSH2 0xC2B JUMPI PUSH2 0xC2A PUSH2 0x1C3F JUMP JUMPDEST JUMPDEST DUP6 PUSH1 0x2 DUP2 GT ISZERO PUSH2 0xC3E JUMPI PUSH2 0xC3D PUSH2 0x1C3F JUMP JUMPDEST JUMPDEST EQ ISZERO DUP1 ISZERO PUSH2 0xC71 JUMPI POP PUSH1 0x1 PUSH1 0x2 DUP2 GT ISZERO PUSH2 0xC5B JUMPI PUSH2 0xC5A PUSH2 0x1C3F JUMP JUMPDEST JUMPDEST DUP6 PUSH1 0x2 DUP2 GT ISZERO PUSH2 0xC6E JUMPI PUSH2 0xC6D PUSH2 0x1C3F JUMP JUMPDEST JUMPDEST EQ ISZERO JUMPDEST DUP1 ISZERO PUSH2 0xCA1 JUMPI POP PUSH1 0x2 DUP1 DUP2 GT ISZERO PUSH2 0xC8B JUMPI PUSH2 0xC8A PUSH2 0x1C3F JUMP JUMPDEST JUMPDEST DUP6 PUSH1 0x2 DUP2 GT ISZERO PUSH2 0xC9E JUMPI PUSH2 0xC9D PUSH2 0x1C3F JUMP JUMPDEST JUMPDEST EQ ISZERO JUMPDEST ISZERO PUSH2 0xCAE JUMPI PUSH0 SWAP1 POP PUSH2 0xE38 JUMP JUMPDEST PUSH0 PUSH1 0x2 DUP2 GT ISZERO PUSH2 0xCC1 JUMPI PUSH2 0xCC0 PUSH2 0x1C3F JUMP JUMPDEST JUMPDEST DUP5 PUSH1 0x2 DUP2 GT ISZERO PUSH2 0xCD4 JUMPI PUSH2 0xCD3 PUSH2 0x1C3F JUMP JUMPDEST JUMPDEST EQ ISZERO DUP1 ISZERO PUSH2 0xD07 JUMPI POP PUSH1 0x1 PUSH1 0x2 DUP2 GT ISZERO PUSH2 0xCF1 JUMPI PUSH2 0xCF0 PUSH2 0x1C3F JUMP JUMPDEST JUMPDEST DUP5 PUSH1 0x2 DUP2 GT ISZERO PUSH2 0xD04 JUMPI PUSH2 0xD03 PUSH2 0x1C3F JUMP JUMPDEST JUMPDEST EQ ISZERO JUMPDEST DUP1 ISZERO PUSH2 0xD37 JUMPI POP PUSH1 0x2 DUP1 DUP2 GT ISZERO PUSH2 0xD21 JUMPI PUSH2 0xD20 PUSH2 0x1C3F JUMP JUMPDEST JUMPDEST DUP5 PUSH1 0x2 DUP2 GT ISZERO PUSH2 0xD34 JUMPI PUSH2 0xD33 PUSH2 0x1C3F JUMP JUMPDEST JUMPDEST EQ ISZERO JUMPDEST ISZERO PUSH2 0xD44 JUMPI PUSH0 SWAP1 POP PUSH2 0xE38 JUMP JUMPDEST DUP5 PUSH1 0x1 DUP8 DUP2 SLOAD DUP2 LT PUSH2 0xD59 JUMPI PUSH2 0xD58 PUSH2 0x22AB JUMP JUMPDEST JUMPDEST SWAP1 PUSH0 MSTORE PUSH1 0x20 PUSH0 KECCAK256 SWAP1 PUSH1 0x14 MUL ADD PUSH1 0xE ADD PUSH0 ADD PUSH0 PUSH2 0x100 EXP DUP2 SLOAD DUP2 PUSH1 0xFF MUL NOT AND SWAP1 DUP4 PUSH1 0x2 DUP2 GT ISZERO PUSH2 0xD8B JUMPI PUSH2 0xD8A PUSH2 0x1C3F JUMP JUMPDEST JUMPDEST MUL OR SWAP1 SSTORE POP DUP4 PUSH1 0x1 DUP8 DUP2 SLOAD DUP2 LT PUSH2 0xDA5 JUMPI PUSH2 0xDA4 PUSH2 0x22AB JUMP JUMPDEST JUMPDEST SWAP1 PUSH0 MSTORE PUSH1 0x20 PUSH0 KECCAK256 SWAP1 PUSH1 0x14 MUL ADD PUSH1 0xE ADD PUSH0 ADD PUSH1 0x1 PUSH2 0x100 EXP DUP2 SLOAD DUP2 PUSH1 0xFF MUL NOT AND SWAP1 DUP4 PUSH1 0x2 DUP2 GT ISZERO PUSH2 0xDD8 JUMPI PUSH2 0xDD7 PUSH2 0x1C3F JUMP JUMPDEST JUMPDEST MUL OR SWAP1 SSTORE POP DUP3 PUSH1 0x1 DUP8 DUP2 SLOAD DUP2 LT PUSH2 0xDF2 JUMPI PUSH2 0xDF1 PUSH2 0x22AB JUMP JUMPDEST JUMPDEST SWAP1 PUSH0 MSTORE PUSH1 0x20 PUSH0 KECCAK256 SWAP1 PUSH1 0x14 MUL ADD PUSH1 0xE ADD PUSH1 0x1 ADD DUP2 SWAP1 SSTORE POP DUP2 PUSH1 0x1 DUP8 DUP2 SLOAD DUP2 LT PUSH2 0xE1D JUMPI PUSH2 0xE1C PUSH2 0x22AB JUMP JUMPDEST JUMPDEST SWAP1 PUSH0 MSTORE PUSH1 0x20 PUSH0 KECCAK256 SWAP1 PUSH1 0x14 MUL ADD PUSH1 0xE ADD PUSH1 0x2 ADD DUP2 SWAP1 SSTORE POP PUSH1 0x1 SWAP1 POP JUMPDEST SWAP6 SWAP5 POP POP POP POP POP JUMP JUMPDEST PUSH0 DUP1 PUSH1 0x2 DUP2 GT ISZERO PUSH2 0xE55 JUMPI PUSH2 0xE54 PUSH2 0x1C3F JUMP JUMPDEST JUMPDEST DUP6 PUSH1 0x2 DUP2 GT ISZERO PUSH2 0xE68 JUMPI PUSH2 0xE67 PUSH2 0x1C3F JUMP JUMPDEST JUMPDEST EQ ISZERO DUP1 ISZERO PUSH2 0xE9B JUMPI POP PUSH1 0x1 PUSH1 0x2 DUP2 GT ISZERO PUSH2 0xE85 JUMPI PUSH2 0xE84 PUSH2 0x1C3F JUMP JUMPDEST JUMPDEST DUP6 PUSH1 0x2 DUP2 GT ISZERO PUSH2 0xE98 JUMPI PUSH2 0xE97 PUSH2 0x1C3F JUMP JUMPDEST JUMPDEST EQ ISZERO JUMPDEST DUP1 ISZERO PUSH2 0xECB JUMPI POP PUSH1 0x2 DUP1 DUP2 GT ISZERO PUSH2 0xEB5 JUMPI PUSH2 0xEB4 PUSH2 0x1C3F JUMP JUMPDEST JUMPDEST DUP6 PUSH1 0x2 DUP2 GT ISZERO PUSH2 0xEC8 JUMPI PUSH2 0xEC7 PUSH2 0x1C3F JUMP JUMPDEST JUMPDEST EQ ISZERO JUMPDEST ISZERO PUSH2 0xED8 JUMPI PUSH0 SWAP1 POP PUSH2 0x1062 JUMP JUMPDEST PUSH0 PUSH1 0x2 DUP2 GT ISZERO PUSH2 0xEEB JUMPI PUSH2 0xEEA PUSH2 0x1C3F JUMP JUMPDEST JUMPDEST DUP5 PUSH1 0x2 DUP2 GT ISZERO PUSH2 0xEFE JUMPI PUSH2 0xEFD PUSH2 0x1C3F JUMP JUMPDEST JUMPDEST EQ ISZERO DUP1 ISZERO PUSH2 0xF31 JUMPI POP PUSH1 0x1 PUSH1 0x2 DUP2 GT ISZERO PUSH2 0xF1B JUMPI PUSH2 0xF1A PUSH2 0x1C3F JUMP JUMPDEST JUMPDEST DUP5 PUSH1 0x2 DUP2 GT ISZERO PUSH2 0xF2E JUMPI PUSH2 0xF2D PUSH2 0x1C3F JUMP JUMPDEST JUMPDEST EQ ISZERO JUMPDEST DUP1 ISZERO PUSH2 0xF61 JUMPI POP PUSH1 0x2 DUP1 DUP2 GT ISZERO PUSH2 0xF4B JUMPI PUSH2 0xF4A PUSH2 0x1C3F JUMP JUMPDEST JUMPDEST DUP5 PUSH1 0x2 DUP2 GT ISZERO PUSH2 0xF5E JUMPI PUSH2 0xF5D PUSH2 0x1C3F JUMP JUMPDEST JUMPDEST EQ ISZERO JUMPDEST ISZERO PUSH2 0xF6E JUMPI PUSH0 SWAP1 POP PUSH2 0x1062 JUMP JUMPDEST DUP5 PUSH1 0x1 DUP8 DUP2 SLOAD DUP2 LT PUSH2 0xF83 JUMPI PUSH2 0xF82 PUSH2 0x22AB JUMP JUMPDEST JUMPDEST SWAP1 PUSH0 MSTORE PUSH1 0x20 PUSH0 KECCAK256 SWAP1 PUSH1 0x14 MUL ADD PUSH1 0x8 ADD PUSH0 ADD PUSH0 PUSH2 0x100 EXP DUP2 SLOAD DUP2 PUSH1 0xFF MUL NOT AND SWAP1 DUP4 PUSH1 0x2 DUP2 GT ISZERO PUSH2 0xFB5 JUMPI PUSH2 0xFB4 PUSH2 0x1C3F JUMP JUMPDEST JUMPDEST MUL OR SWAP1 SSTORE POP DUP4 PUSH1 0x1 DUP8 DUP2 SLOAD DUP2 LT PUSH2 0xFCF JUMPI PUSH2 0xFCE PUSH2 0x22AB JUMP JUMPDEST JUMPDEST SWAP1 PUSH0 MSTORE PUSH1 0x20 PUSH0 KECCAK256 SWAP1 PUSH1 0x14 MUL ADD PUSH1 0x8 ADD PUSH0 ADD PUSH1 0x1 PUSH2 0x100 EXP DUP2 SLOAD DUP2 PUSH1 0xFF MUL NOT AND SWAP1 DUP4 PUSH1 0x2 DUP2 GT ISZERO PUSH2 0x1002 JUMPI PUSH2 0x1001 PUSH2 0x1C3F JUMP JUMPDEST JUMPDEST MUL OR SWAP1 SSTORE POP DUP3 PUSH1 0x1 DUP8 DUP2 SLOAD DUP2 LT PUSH2 0x101C JUMPI PUSH2 0x101B PUSH2 0x22AB JUMP JUMPDEST JUMPDEST SWAP1 PUSH0 MSTORE PUSH1 0x20 PUSH0 KECCAK256 SWAP1 PUSH1 0x14 MUL ADD PUSH1 0x8 ADD PUSH1 0x1 ADD DUP2 SWAP1 SSTORE POP DUP2 PUSH1 0x1 DUP8 DUP2 SLOAD DUP2 LT PUSH2 0x1047 JUMPI PUSH2 0x1046 PUSH2 0x22AB JUMP JUMPDEST JUMPDEST SWAP1 PUSH0 MSTORE PUSH1 0x20 PUSH0 KECCAK256 SWAP1 PUSH1 0x14 MUL ADD PUSH1 0x8 ADD PUSH1 0x2 ADD DUP2 SWAP1 SSTORE POP PUSH1 0x1 SWAP1 POP JUMPDEST SWAP6 SWAP5 POP POP POP POP POP JUMP JUMPDEST PUSH0 DUP1 PUSH1 0x2 DUP2 GT ISZERO PUSH2 0x107F JUMPI PUSH2 0x107E PUSH2 0x1C3F JUMP JUMPDEST JUMPDEST DUP6 PUSH1 0x2 DUP2 GT ISZERO PUSH2 0x1092 JUMPI PUSH2 0x1091 PUSH2 0x1C3F JUMP JUMPDEST JUMPDEST EQ ISZERO DUP1 ISZERO PUSH2 0x10C5 JUMPI POP PUSH1 0x1 PUSH1 0x2 DUP2 GT ISZERO PUSH2 0x10AF JUMPI PUSH2 0x10AE PUSH2 0x1C3F JUMP JUMPDEST JUMPDEST DUP6 PUSH1 0x2 DUP2 GT ISZERO PUSH2 0x10C2 JUMPI PUSH2 0x10C1 PUSH2 0x1C3F JUMP JUMPDEST JUMPDEST EQ ISZERO JUMPDEST DUP1 ISZERO PUSH2 0x10F5 JUMPI POP PUSH1 0x2 DUP1 DUP2 GT ISZERO PUSH2 0x10DF JUMPI PUSH2 0x10DE PUSH2 0x1C3F JUMP JUMPDEST JUMPDEST DUP6 PUSH1 0x2 DUP2 GT ISZERO PUSH2 0x10F2 JUMPI PUSH2 0x10F1 PUSH2 0x1C3F JUMP JUMPDEST JUMPDEST EQ ISZERO JUMPDEST ISZERO PUSH2 0x1102 JUMPI PUSH0 SWAP1 POP PUSH2 0x128C JUMP JUMPDEST PUSH0 PUSH1 0x2 DUP2 GT ISZERO PUSH2 0x1115 JUMPI PUSH2 0x1114 PUSH2 0x1C3F JUMP JUMPDEST JUMPDEST DUP5 PUSH1 0x2 DUP2 GT ISZERO PUSH2 0x1128 JUMPI PUSH2 0x1127 PUSH2 0x1C3F JUMP JUMPDEST JUMPDEST EQ ISZERO DUP1 ISZERO PUSH2 0x115B JUMPI POP PUSH1 0x1 PUSH1 0x2 DUP2 GT ISZERO PUSH2 0x1145 JUMPI PUSH2 0x1144 PUSH2 0x1C3F JUMP JUMPDEST JUMPDEST DUP5 PUSH1 0x2 DUP2 GT ISZERO PUSH2 0x1158 JUMPI PUSH2 0x1157 PUSH2 0x1C3F JUMP JUMPDEST JUMPDEST EQ ISZERO JUMPDEST DUP1 ISZERO PUSH2 0x118B JUMPI POP PUSH1 0x2 DUP1 DUP2 GT ISZERO PUSH2 0x1175 JUMPI PUSH2 0x1174 PUSH2 0x1C3F JUMP JUMPDEST JUMPDEST DUP5 PUSH1 0x2 DUP2 GT ISZERO PUSH2 0x1188 JUMPI PUSH2 0x1187 PUSH2 0x1C3F JUMP JUMPDEST JUMPDEST EQ ISZERO JUMPDEST ISZERO PUSH2 0x1198 JUMPI PUSH0 SWAP1 POP PUSH2 0x128C JUMP JUMPDEST DUP5 PUSH1 0x1 DUP8 DUP2 SLOAD DUP2 LT PUSH2 0x11AD JUMPI PUSH2 0x11AC PUSH2 0x22AB JUMP JUMPDEST JUMPDEST SWAP1 PUSH0 MSTORE PUSH1 0x20 PUSH0 KECCAK256 SWAP1 PUSH1 0x14 MUL ADD PUSH1 0xB ADD PUSH0 ADD PUSH0 PUSH2 0x100 EXP DUP2 SLOAD DUP2 PUSH1 0xFF MUL NOT AND SWAP1 DUP4 PUSH1 0x2 DUP2 GT ISZERO PUSH2 0x11DF JUMPI PUSH2 0x11DE PUSH2 0x1C3F JUMP JUMPDEST JUMPDEST MUL OR SWAP1 SSTORE POP DUP4 PUSH1 0x1 DUP8 DUP2 SLOAD DUP2 LT PUSH2 0x11F9 JUMPI PUSH2 0x11F8 PUSH2 0x22AB JUMP JUMPDEST JUMPDEST SWAP1 PUSH0 MSTORE PUSH1 0x20 PUSH0 KECCAK256 SWAP1 PUSH1 0x14 MUL ADD PUSH1 0xB ADD PUSH0 ADD PUSH1 0x1 PUSH2 0x100 EXP DUP2 SLOAD DUP2 PUSH1 0xFF MUL NOT AND SWAP1 DUP4 PUSH1 0x2 DUP2 GT ISZERO PUSH2 0x122C JUMPI PUSH2 0x122B PUSH2 0x1C3F JUMP JUMPDEST JUMPDEST MUL OR SWAP1 SSTORE POP DUP3 PUSH1 0x1 DUP8 DUP2 SLOAD DUP2 LT PUSH2 0x1246 JUMPI PUSH2 0x1245 PUSH2 0x22AB JUMP JUMPDEST JUMPDEST SWAP1 PUSH0 MSTORE PUSH1 0x20 PUSH0 KECCAK256 SWAP1 PUSH1 0x14 MUL ADD PUSH1 0xB ADD PUSH1 0x1 ADD DUP2 SWAP1 SSTORE POP DUP2 PUSH1 0x1 DUP8 DUP2 SLOAD DUP2 LT PUSH2 0x1271 JUMPI PUSH2 0x1270 PUSH2 0x22AB JUMP JUMPDEST JUMPDEST SWAP1 PUSH0 MSTORE PUSH1 0x20 PUSH0 KECCAK256 SWAP1 PUSH1 0x14 MUL ADD PUSH1 0xB ADD PUSH1 0x2 ADD DUP2 SWAP1 SSTORE POP PUSH1 0x1 SWAP1 POP JUMPDEST SWAP6 SWAP5 POP POP POP POP POP JUMP JUMPDEST PUSH0 DUP1 PUSH1 0x2 DUP2 GT ISZERO PUSH2 0x12A9 JUMPI PUSH2 0x12A8 PUSH2 0x1C3F JUMP JUMPDEST JUMPDEST DUP6 PUSH1 0x2 DUP2 GT ISZERO PUSH2 0x12BC JUMPI PUSH2 0x12BB PUSH2 0x1C3F JUMP JUMPDEST JUMPDEST EQ ISZERO DUP1 ISZERO PUSH2 0x12EF JUMPI POP PUSH1 0x1 PUSH1 0x2 DUP2 GT ISZERO PUSH2 0x12D9 JUMPI PUSH2 0x12D8 PUSH2 0x1C3F JUMP JUMPDEST JUMPDEST DUP6 PUSH1 0x2 DUP2 GT ISZERO PUSH2 0x12EC JUMPI PUSH2 0x12EB PUSH2 0x1C3F JUMP JUMPDEST JUMPDEST EQ ISZERO JUMPDEST DUP1 ISZERO PUSH2 0x131F JUMPI POP PUSH1 0x2 DUP1 DUP2 GT ISZERO PUSH2 0x1309 JUMPI PUSH2 0x1308 PUSH2 0x1C3F JUMP JUMPDEST JUMPDEST DUP6 PUSH1 0x2 DUP2 GT ISZERO PUSH2 0x131C JUMPI PUSH2 0x131B PUSH2 0x1C3F JUMP JUMPDEST JUMPDEST EQ ISZERO JUMPDEST ISZERO PUSH2 0x132C JUMPI PUSH0 SWAP1 POP PUSH2 0x14B6 JUMP JUMPDEST PUSH0 PUSH1 0x2 DUP2 GT ISZERO PUSH2 0x133F JUMPI PUSH2 0x133E PUSH2 0x1C3F JUMP JUMPDEST JUMPDEST DUP5 PUSH1 0x2 DUP2 GT ISZERO PUSH2 0x1352 JUMPI PUSH2 0x1351 PUSH2 0x1C3F JUMP JUMPDEST JUMPDEST EQ ISZERO DUP1 ISZERO PUSH2 0x1385 JUMPI POP PUSH1 0x1 PUSH1 0x2 DUP2 GT ISZERO PUSH2 0x136F JUMPI PUSH2 0x136E PUSH2 0x1C3F JUMP JUMPDEST JUMPDEST DUP5 PUSH1 0x2 DUP2 GT ISZERO PUSH2 0x1382 JUMPI PUSH2 0x1381 PUSH2 0x1C3F JUMP JUMPDEST JUMPDEST EQ ISZERO JUMPDEST DUP1 ISZERO PUSH2 0x13B5 JUMPI POP PUSH1 0x2 DUP1 DUP2 GT ISZERO PUSH2 0x139F JUMPI PUSH2 0x139E PUSH2 0x1C3F JUMP JUMPDEST JUMPDEST DUP5 PUSH1 0x2 DUP2 GT ISZERO PUSH2 0x13B2 JUMPI PUSH2 0x13B1 PUSH2 0x1C3F JUMP JUMPDEST JUMPDEST EQ ISZERO JUMPDEST ISZERO PUSH2 0x13C2 JUMPI PUSH0 SWAP1 POP PUSH2 0x14B6 JUMP JUMPDEST DUP5 PUSH1 0x1 DUP8 DUP2 SLOAD DUP2 LT PUSH2 0x13D7 JUMPI PUSH2 0x13D6 PUSH2 0x22AB JUMP JUMPDEST JUMPDEST SWAP1 PUSH0 MSTORE PUSH1 0x20 PUSH0 KECCAK256 SWAP1 PUSH1 0x14 MUL ADD PUSH1 0x11 ADD PUSH0 ADD PUSH0 PUSH2 0x100 EXP DUP2 SLOAD DUP2 PUSH1 0xFF MUL NOT AND SWAP1 DUP4 PUSH1 0x2 DUP2 GT ISZERO PUSH2 0x1409 JUMPI PUSH2 0x1408 PUSH2 0x1C3F JUMP JUMPDEST JUMPDEST MUL OR SWAP1 SSTORE POP DUP4 PUSH1 0x1 DUP8 DUP2 SLOAD DUP2 LT PUSH2 0x1423 JUMPI PUSH2 0x1422 PUSH2 0x22AB JUMP JUMPDEST JUMPDEST SWAP1 PUSH0 MSTORE PUSH1 0x20 PUSH0 KECCAK256 SWAP1 PUSH1 0x14 MUL ADD PUSH1 0x11 ADD PUSH0 ADD PUSH1 0x1 PUSH2 0x100 EXP DUP2 SLOAD DUP2 PUSH1 0xFF MUL NOT AND SWAP1 DUP4 PUSH1 0x2 DUP2 GT ISZERO PUSH2 0x1456 JUMPI PUSH2 0x1455 PUSH2 0x1C3F JUMP JUMPDEST JUMPDEST MUL OR SWAP1 SSTORE POP DUP3 PUSH1 0x1 DUP8 DUP2 SLOAD DUP2 LT PUSH2 0x1470 JUMPI PUSH2 0x146F PUSH2 0x22AB JUMP JUMPDEST JUMPDEST SWAP1 PUSH0 MSTORE PUSH1 0x20 PUSH0 KECCAK256 SWAP1 PUSH1 0x14 MUL ADD PUSH1 0x11 ADD PUSH1 0x1 ADD DUP2 SWAP1 SSTORE POP DUP2 PUSH1 0x1 DUP8 DUP2 SLOAD DUP2 LT PUSH2 0x149B JUMPI PUSH2 0x149A PUSH2 0x22AB JUMP JUMPDEST JUMPDEST SWAP1 PUSH0 MSTORE PUSH1 0x20 PUSH0 KECCAK256 SWAP1 PUSH1 0x14 MUL ADD PUSH1 0x11 ADD PUSH1 0x2 ADD DUP2 SWAP1 SSTORE POP PUSH1 0x1 SWAP1 POP JUMPDEST SWAP6 SWAP5 POP POP POP POP POP JUMP JUMPDEST PUSH0 DUP1 PUSH1 0x2 DUP2 GT ISZERO PUSH2 0x14D3 JUMPI PUSH2 0x14D2 PUSH2 0x1C3F JUMP JUMPDEST JUMPDEST DUP6 PUSH1 0x2 DUP2 GT ISZERO PUSH2 0x14E6 JUMPI PUSH2 0x14E5 PUSH2 0x1C3F JUMP JUMPDEST JUMPDEST EQ ISZERO DUP1 ISZERO PUSH2 0x1519 JUMPI POP PUSH1 0x1 PUSH1 0x2 DUP2 GT ISZERO PUSH2 0x1503 JUMPI PUSH2 0x1502 PUSH2 0x1C3F JUMP JUMPDEST JUMPDEST DUP6 PUSH1 0x2 DUP2 GT ISZERO PUSH2 0x1516 JUMPI PUSH2 0x1515 PUSH2 0x1C3F JUMP JUMPDEST JUMPDEST EQ ISZERO JUMPDEST DUP1 ISZERO PUSH2 0x1549 JUMPI POP PUSH1 0x2 DUP1 DUP2 GT ISZERO PUSH2 0x1533 JUMPI PUSH2 0x1532 PUSH2 0x1C3F JUMP JUMPDEST JUMPDEST DUP6 PUSH1 0x2 DUP2 GT ISZERO PUSH2 0x1546 JUMPI PUSH2 0x1545 PUSH2 0x1C3F JUMP JUMPDEST JUMPDEST EQ ISZERO JUMPDEST ISZERO PUSH2 0x1556 JUMPI PUSH0 SWAP1 POP PUSH2 0x16E0 JUMP JUMPDEST PUSH0 PUSH1 0x2 DUP2 GT ISZERO PUSH2 0x1569 JUMPI PUSH2 0x1568 PUSH2 0x1C3F JUMP JUMPDEST JUMPDEST DUP5 PUSH1 0x2 DUP2 GT ISZERO PUSH2 0x157C JUMPI PUSH2 0x157B PUSH2 0x1C3F JUMP JUMPDEST JUMPDEST EQ ISZERO DUP1 ISZERO PUSH2 0x15AF JUMPI POP PUSH1 0x1 PUSH1 0x2 DUP2 GT ISZERO PUSH2 0x1599 JUMPI PUSH2 0x1598 PUSH2 0x1C3F JUMP JUMPDEST JUMPDEST DUP5 PUSH1 0x2 DUP2 GT ISZERO PUSH2 0x15AC JUMPI PUSH2 0x15AB PUSH2 0x1C3F JUMP JUMPDEST JUMPDEST EQ ISZERO JUMPDEST DUP1 ISZERO PUSH2 0x15DF JUMPI POP PUSH1 0x2 DUP1 DUP2 GT ISZERO PUSH2 0x15C9 JUMPI PUSH2 0x15C8 PUSH2 0x1C3F JUMP JUMPDEST JUMPDEST DUP5 PUSH1 0x2 DUP2 GT ISZERO PUSH2 0x15DC JUMPI PUSH2 0x15DB PUSH2 0x1C3F JUMP JUMPDEST JUMPDEST EQ ISZERO JUMPDEST ISZERO PUSH2 0x15EC JUMPI PUSH0 SWAP1 POP PUSH2 0x16E0 JUMP JUMPDEST DUP5 PUSH1 0x1 DUP8 DUP2 SLOAD DUP2 LT PUSH2 0x1601 JUMPI PUSH2 0x1600 PUSH2 0x22AB JUMP JUMPDEST JUMPDEST SWAP1 PUSH0 MSTORE PUSH1 0x20 PUSH0 KECCAK256 SWAP1 PUSH1 0x14 MUL ADD PUSH1 0x5 ADD PUSH0 ADD PUSH0 PUSH2 0x100 EXP DUP2 SLOAD DUP2 PUSH1 0xFF MUL NOT AND SWAP1 DUP4 PUSH1 0x2 DUP2 GT ISZERO PUSH2 0x1633 JUMPI PUSH2 0x1632 PUSH2 0x1C3F JUMP JUMPDEST JUMPDEST MUL OR SWAP1 SSTORE POP DUP4 PUSH1 0x1 DUP8 DUP2 SLOAD DUP2 LT PUSH2 0x164D JUMPI PUSH2 0x164C PUSH2 0x22AB JUMP JUMPDEST JUMPDEST SWAP1 PUSH0 MSTORE PUSH1 0x20 PUSH0 KECCAK256 SWAP1 PUSH1 0x14 MUL ADD PUSH1 0x5 ADD PUSH0 ADD PUSH1 0x1 PUSH2 0x100 EXP DUP2 SLOAD DUP2 PUSH1 0xFF MUL NOT AND SWAP1 DUP4 PUSH1 0x2 DUP2 GT ISZERO PUSH2 0x1680 JUMPI PUSH2 0x167F PUSH2 0x1C3F JUMP JUMPDEST JUMPDEST MUL OR SWAP1 SSTORE POP DUP3 PUSH1 0x1 DUP8 DUP2 SLOAD DUP2 LT PUSH2 0x169A JUMPI PUSH2 0x1699 PUSH2 0x22AB JUMP JUMPDEST JUMPDEST SWAP1 PUSH0 MSTORE PUSH1 0x20 PUSH0 KECCAK256 SWAP1 PUSH1 0x14 MUL ADD PUSH1 0x5 ADD PUSH1 0x1 ADD DUP2 SWAP1 SSTORE POP DUP2 PUSH1 0x1 DUP8 DUP2 SLOAD DUP2 LT PUSH2 0x16C5 JUMPI PUSH2 0x16C4 PUSH2 0x22AB JUMP JUMPDEST JUMPDEST SWAP1 PUSH0 MSTORE PUSH1 0x20 PUSH0 KECCAK256 SWAP1 PUSH1 0x14 MUL ADD PUSH1 0x5 ADD PUSH1 0x2 ADD DUP2 SWAP1 SSTORE POP PUSH1 0x1 SWAP1 POP JUMPDEST SWAP6 SWAP5 POP POP POP POP POP JUMP JUMPDEST PUSH1 0x40 MLOAD DUP1 PUSH2 0x140 ADD PUSH1 0x40 MSTORE DUP1 PUSH0 DUP2 MSTORE PUSH1 0x20 ADD PUSH0 DUP2 MSTORE PUSH1 0x20 ADD PUSH1 0x60 DUP2 MSTORE PUSH1 0x20 ADD PUSH0 DUP2 MSTORE PUSH1 0x20 ADD PUSH0 PUSH20 0xFFFFFFFFFFFFFFFFFFFFFFFFFFFFFFFFFFFFFFFF AND DUP2 MSTORE PUSH1 0x20 ADD PUSH2 0x1732 PUSH2 0x176C JUMP JUMPDEST DUP2 MSTORE PUSH1 0x20 ADD PUSH2 0x173F PUSH2 0x17B4 JUMP JUMPDEST DUP2 MSTORE PUSH1 0x20 ADD PUSH2 0x174C PUSH2 0x17FC JUMP JUMPDEST DUP2 MSTORE PUSH1 0x20 ADD PUSH2 0x1759 PUSH2 0x1844 JUMP JUMPDEST DUP2 MSTORE PUSH1 0x20 ADD PUSH2 0x1766 PUSH2 0x188C JUMP JUMPDEST DUP2 MSTORE POP SWAP1 JUMP JUMPDEST PUSH1 0x40 MLOAD DUP1 PUSH1 0x80 ADD PUSH1 0x40 MSTORE DUP1 PUSH0 PUSH1 0x2 DUP2 GT ISZERO PUSH2 0x178A JUMPI PUSH2 0x1789 PUSH2 0x1C3F JUMP JUMPDEST JUMPDEST DUP2 MSTORE PUSH1 0x20 ADD PUSH0 PUSH1 0x2 DUP2 GT ISZERO PUSH2 0x17A2 JUMPI PUSH2 0x17A1 PUSH2 0x1C3F JUMP JUMPDEST JUMPDEST DUP2 MSTORE PUSH1 0x20 ADD PUSH0 DUP2 MSTORE PUSH1 0x20 ADD PUSH0 DUP2 MSTORE POP SWAP1 JUMP JUMPDEST PUSH1 0x40 MLOAD DUP1 PUSH1 0x80 ADD PUSH1 0x40 MSTORE DUP1 PUSH0 PUSH1 0x2 DUP2 GT ISZERO PUSH2 0x17D2 JUMPI PUSH2 0x17D1 PUSH2 0x1C3F JUMP JUMPDEST JUMPDEST DUP2 MSTORE PUSH1 0x20 ADD PUSH0 PUSH1 0x2 DUP2 GT ISZERO PUSH2 0x17EA JUMPI PUSH2 0x17E9 PUSH2 0x1C3F JUMP JUMPDEST JUMPDEST DUP2 MSTORE PUSH1 0x20 ADD PUSH0 DUP2 MSTORE PUSH1 0x20 ADD PUSH0 DUP2 MSTORE POP SWAP1 JUMP JUMPDEST PUSH1 0x40 MLOAD DUP1 PUSH1 0x80 ADD PUSH1 0x40 MSTORE DUP1 PUSH0 PUSH1 0x2 DUP2 GT ISZERO PUSH2 0x181A JUMPI PUSH2 0x1819 PUSH2 0x1C3F JUMP JUMPDEST JUMPDEST DUP2 MSTORE PUSH1 0x20 ADD PUSH0 PUSH1 0x2 DUP2 GT ISZERO PUSH2 0x1832 JUMPI PUSH2 0x1831 PUSH2 0x1C3F JUMP JUMPDEST JUMPDEST DUP2 MSTORE PUSH1 0x20 ADD PUSH0 DUP2 MSTORE PUSH1 0x20 ADD PUSH0 DUP2 MSTORE POP SWAP1 JUMP JUMPDEST PUSH1 0x40 MLOAD DUP1 PUSH1 0x80 ADD PUSH1 0x40 MSTORE DUP1 PUSH0 PUSH1 0x2 DUP2 GT ISZERO PUSH2 0x1862 JUMPI PUSH2 0x1861 PUSH2 0x1C3F JUMP JUMPDEST JUMPDEST DUP2 MSTORE PUSH1 0x20 ADD PUSH0 PUSH1 0x2 DUP2 GT ISZERO PUSH2 0x187A JUMPI PUSH2 0x1879 PUSH2 0x1C3F JUMP JUMPDEST JUMPDEST DUP2 MSTORE PUSH1 0x20 ADD PUSH0 DUP2 MSTORE PUSH1 0x20 ADD PUSH0 DUP2 MSTORE POP SWAP1 JUMP JUMPDEST PUSH1 0x40 MLOAD DUP1 PUSH1 0x80 ADD PUSH1 0x40 MSTORE DUP1 PUSH0 PUSH1 0x2 DUP2 GT ISZERO PUSH2 0x18AA JUMPI PUSH2 0x18A9 PUSH2 0x1C3F JUMP JUMPDEST JUMPDEST DUP2 MSTORE PUSH1 0x20 ADD PUSH0 PUSH1 0x2 DUP2 GT ISZERO PUSH2 0x18C2 JUMPI PUSH2 0x18C1 PUSH2 0x1C3F JUMP JUMPDEST JUMPDEST DUP2 MSTORE PUSH1 0x20 ADD PUSH0 DUP2 MSTORE PUSH1 0x20 ADD PUSH0 DUP2 MSTORE POP SWAP1 JUMP JUMPDEST PUSH0 PUSH1 0x40 MLOAD SWAP1 POP SWAP1 JUMP JUMPDEST PUSH0 DUP1 REVERT JUMPDEST PUSH0 DUP1 REVERT JUMPDEST PUSH0 DUP1 REVERT JUMPDEST PUSH0 DUP1 REVERT JUMPDEST PUSH0 PUSH1 0x1F NOT PUSH1 0x1F DUP4 ADD AND SWAP1 POP SWAP2 SWAP1 POP JUMP JUMPDEST PUSH32 0x4E487B7100000000000000000000000000000000000000000000000000000000 PUSH0 MSTORE PUSH1 0x41 PUSH1 0x4 MSTORE PUSH1 0x24 PUSH0 REVERT JUMPDEST PUSH2 0x1933 DUP3 PUSH2 0x18ED JUMP JUMPDEST DUP2 ADD DUP2 DUP2 LT PUSH8 0xFFFFFFFFFFFFFFFF DUP3 GT OR ISZERO PUSH2 0x1952 JUMPI PUSH2 0x1951 PUSH2 0x18FD JUMP JUMPDEST JUMPDEST DUP1 PUSH1 0x40 MSTORE POP POP POP JUMP JUMPDEST PUSH0 PUSH2 0x1964 PUSH2 0x18D4 JUMP JUMPDEST SWAP1 POP PUSH2 0x1970 DUP3 DUP3 PUSH2 0x192A JUMP JUMPDEST SWAP2 SWAP1 POP JUMP JUMPDEST PUSH0 PUSH8 0xFFFFFFFFFFFFFFFF DUP3 GT ISZERO PUSH2 0x198F JUMPI PUSH2 0x198E PUSH2 0x18FD JUMP JUMPDEST JUMPDEST PUSH2 0x1998 DUP3 PUSH2 0x18ED JUMP JUMPDEST SWAP1 POP PUSH1 0x20 DUP2 ADD SWAP1 POP SWAP2 SWAP1 POP JUMP JUMPDEST DUP3 DUP2 DUP4 CALLDATACOPY PUSH0 DUP4 DUP4 ADD MSTORE POP POP POP JUMP JUMPDEST PUSH0 PUSH2 0x19C5 PUSH2 0x19C0 DUP5 PUSH2 0x1975 JUMP JUMPDEST PUSH2 0x195B JUMP JUMPDEST SWAP1 POP DUP3 DUP2 MSTORE PUSH1 0x20 DUP2 ADD DUP5 DUP5 DUP5 ADD GT ISZERO PUSH2 0x19E1 JUMPI PUSH2 0x19E0 PUSH2 0x18E9 JUMP JUMPDEST JUMPDEST PUSH2 0x19EC DUP5 DUP3 DUP6 PUSH2 0x19A5 JUMP JUMPDEST POP SWAP4 SWAP3 POP POP POP JUMP JUMPDEST PUSH0 DUP3 PUSH1 0x1F DUP4 ADD SLT PUSH2 0x1A08 JUMPI PUSH2 0x1A07 PUSH2 0x18E5 JUMP JUMPDEST JUMPDEST DUP2 CALLDATALOAD PUSH2 0x1A18 DUP5 DUP3 PUSH1 0x20 DUP7 ADD PUSH2 0x19B3 JUMP JUMPDEST SWAP2 POP POP SWAP3 SWAP2 POP POP JUMP JUMPDEST PUSH0 DUP2 SWAP1 POP SWAP2 SWAP1 POP JUMP JUMPDEST PUSH2 0x1A33 DUP2 PUSH2 0x1A21 JUMP JUMPDEST DUP2 EQ PUSH2 0x1A3D JUMPI PUSH0 DUP1 REVERT JUMPDEST POP JUMP JUMPDEST PUSH0 DUP2 CALLDATALOAD SWAP1 POP PUSH2 0x1A4E DUP2 PUSH2 0x1A2A JUMP JUMPDEST SWAP3 SWAP2 POP POP JUMP JUMPDEST PUSH0 PUSH20 0xFFFFFFFFFFFFFFFFFFFFFFFFFFFFFFFFFFFFFFFF DUP3 AND SWAP1 POP SWAP2 SWAP1 POP JUMP JUMPDEST PUSH0 PUSH2 0x1A7D DUP3 PUSH2 0x1A54 JUMP JUMPDEST SWAP1 POP SWAP2 SWAP1 POP JUMP JUMPDEST PUSH2 0x1A8D DUP2 PUSH2 0x1A73 JUMP JUMPDEST DUP2 EQ PUSH2 0x1A97 JUMPI PUSH0 DUP1 REVERT JUMPDEST POP JUMP JUMPDEST PUSH0 DUP2 CALLDATALOAD SWAP1 POP PUSH2 0x1AA8 DUP2 PUSH2 0x1A84 JUMP JUMPDEST SWAP3 SWAP2 POP POP JUMP JUMPDEST PUSH0 DUP1 PUSH0 PUSH1 0x60 DUP5 DUP7 SUB SLT ISZERO PUSH2 0x1AC5 JUMPI PUSH2 0x1AC4 PUSH2 0x18DD JUMP JUMPDEST JUMPDEST PUSH0 DUP5 ADD CALLDATALOAD PUSH8 0xFFFFFFFFFFFFFFFF DUP2 GT ISZERO PUSH2 0x1AE2 JUMPI PUSH2 0x1AE1 PUSH2 0x18E1 JUMP JUMPDEST JUMPDEST PUSH2 0x1AEE DUP7 DUP3 DUP8 ADD PUSH2 0x19F4 JUMP JUMPDEST SWAP4 POP POP PUSH1 0x20 PUSH2 0x1AFF DUP7 DUP3 DUP8 ADD PUSH2 0x1A40 JUMP JUMPDEST SWAP3 POP POP PUSH1 0x40 PUSH2 0x1B10 DUP7 DUP3 DUP8 ADD PUSH2 0x1A9A JUMP JUMPDEST SWAP2 POP POP SWAP3 POP SWAP3 POP SWAP3 JUMP JUMPDEST PUSH2 0x1B23 DUP2 PUSH2 0x1A21 JUMP JUMPDEST DUP3 MSTORE POP POP JUMP JUMPDEST PUSH0 PUSH1 0x40 DUP3 ADD SWAP1 POP PUSH2 0x1B3C PUSH0 DUP4 ADD DUP6 PUSH2 0x1B1A JUMP JUMPDEST PUSH2 0x1B49 PUSH1 0x20 DUP4 ADD DUP5 PUSH2 0x1B1A JUMP JUMPDEST SWAP4 SWAP3 POP POP POP JUMP JUMPDEST PUSH0 DUP1 PUSH1 0x40 DUP4 DUP6 SUB SLT ISZERO PUSH2 0x1B66 JUMPI PUSH2 0x1B65 PUSH2 0x18DD JUMP JUMPDEST JUMPDEST PUSH0 PUSH2 0x1B73 DUP6 DUP3 DUP7 ADD PUSH2 0x1A40 JUMP JUMPDEST SWAP3 POP POP PUSH1 0x20 PUSH2 0x1B84 DUP6 DUP3 DUP7 ADD PUSH2 0x1A40 JUMP JUMPDEST SWAP2 POP POP SWAP3 POP SWAP3 SWAP1 POP JUMP JUMPDEST PUSH0 DUP2 ISZERO ISZERO SWAP1 POP SWAP2 SWAP1 POP JUMP JUMPDEST PUSH2 0x1BA2 DUP2 PUSH2 0x1B8E JUMP JUMPDEST DUP3 MSTORE POP POP JUMP JUMPDEST PUSH0 PUSH1 0x20 DUP3 ADD SWAP1 POP PUSH2 0x1BBB PUSH0 DUP4 ADD DUP5 PUSH2 0x1B99 JUMP JUMPDEST SWAP3 SWAP2 POP POP JUMP JUMPDEST PUSH2 0x1BCA DUP2 PUSH2 0x1A21 JUMP JUMPDEST DUP3 MSTORE POP POP JUMP JUMPDEST PUSH0 DUP2 MLOAD SWAP1 POP SWAP2 SWAP1 POP JUMP JUMPDEST PUSH0 DUP3 DUP3 MSTORE PUSH1 0x20 DUP3 ADD SWAP1 POP SWAP3 SWAP2 POP POP JUMP JUMPDEST DUP3 DUP2 DUP4 MCOPY PUSH0 DUP4 DUP4 ADD MSTORE POP POP POP JUMP JUMPDEST PUSH0 PUSH2 0x1C02 DUP3 PUSH2 0x1BD0 JUMP JUMPDEST PUSH2 0x1C0C DUP2 DUP6 PUSH2 0x1BDA JUMP JUMPDEST SWAP4 POP PUSH2 0x1C1C DUP2 DUP6 PUSH1 0x20 DUP7 ADD PUSH2 0x1BEA JUMP JUMPDEST PUSH2 0x1C25 DUP2 PUSH2 0x18ED JUMP JUMPDEST DUP5 ADD SWAP2 POP POP SWAP3 SWAP2 POP POP JUMP JUMPDEST PUSH2 0x1C39 DUP2 PUSH2 0x1A73 JUMP JUMPDEST DUP3 MSTORE POP POP JUMP JUMPDEST PUSH32 0x4E487B7100000000000000000000000000000000000000000000000000000000 PUSH0 MSTORE PUSH1 0x21 PUSH1 0x4 MSTORE PUSH1 0x24 PUSH0 REVERT JUMPDEST PUSH1 0x3 DUP2 LT PUSH2 0x1C7D JUMPI PUSH2 0x1C7C PUSH2 0x1C3F JUMP JUMPDEST JUMPDEST POP JUMP JUMPDEST PUSH0 DUP2 SWAP1 POP PUSH2 0x1C8D DUP3 PUSH2 0x1C6C JUMP JUMPDEST SWAP2 SWAP1 POP JUMP JUMPDEST PUSH0 PUSH2 0x1C9C DUP3 PUSH2 0x1C80 JUMP JUMPDEST SWAP1 POP SWAP2 SWAP1 POP JUMP JUMPDEST PUSH2 0x1CAC DUP2 PUSH2 0x1C92 JUMP JUMPDEST DUP3 MSTORE POP POP JUMP JUMPDEST PUSH1 0x3 DUP2 LT PUSH2 0x1CC3 JUMPI PUSH2 0x1CC2 PUSH2 0x1C3F JUMP JUMPDEST JUMPDEST POP JUMP JUMPDEST PUSH0 DUP2 SWAP1 POP PUSH2 0x1CD3 DUP3 PUSH2 0x1CB2 JUMP JUMPDEST SWAP2 SWAP1 POP JUMP JUMPDEST PUSH0 PUSH2 0x1CE2 DUP3 PUSH2 0x1CC6 JUMP JUMPDEST SWAP1 POP SWAP2 SWAP1 POP JUMP JUMPDEST PUSH2 0x1CF2 DUP2 PUSH2 0x1CD8 JUMP JUMPDEST DUP3 MSTORE POP POP JUMP JUMPDEST PUSH1 0x80 DUP3 ADD PUSH0 DUP3 ADD MLOAD PUSH2 0x1D0C PUSH0 DUP6 ADD DUP3 PUSH2 0x1CA3 JUMP JUMPDEST POP PUSH1 0x20 DUP3 ADD MLOAD PUSH2 0x1D1F PUSH1 0x20 DUP6 ADD DUP3 PUSH2 0x1CE9 JUMP JUMPDEST POP PUSH1 0x40 DUP3 ADD MLOAD PUSH2 0x1D32 PUSH1 0x40 DUP6 ADD DUP3 PUSH2 0x1BC1 JUMP JUMPDEST POP PUSH1 0x60 DUP3 ADD MLOAD PUSH2 0x1D45 PUSH1 0x60 DUP6 ADD DUP3 PUSH2 0x1BC1 JUMP JUMPDEST POP POP POP POP JUMP JUMPDEST PUSH1 0x80 DUP3 ADD PUSH0 DUP3 ADD MLOAD PUSH2 0x1D5F PUSH0 DUP6 ADD DUP3 PUSH2 0x1CA3 JUMP JUMPDEST POP PUSH1 0x20 DUP3 ADD MLOAD PUSH2 0x1D72 PUSH1 0x20 DUP6 ADD DUP3 PUSH2 0x1CE9 JUMP JUMPDEST POP PUSH1 0x40 DUP3 ADD MLOAD PUSH2 0x1D85 PUSH1 0x40 DUP6 ADD DUP3 PUSH2 0x1BC1 JUMP JUMPDEST POP PUSH1 0x60 DUP3 ADD MLOAD PUSH2 0x1D98 PUSH1 0x60 DUP6 ADD DUP3 PUSH2 0x1BC1 JUMP JUMPDEST POP POP POP POP JUMP JUMPDEST PUSH1 0x3 DUP2 LT PUSH2 0x1DAF JUMPI PUSH2 0x1DAE PUSH2 0x1C3F JUMP JUMPDEST JUMPDEST POP JUMP JUMPDEST PUSH0 DUP2 SWAP1 POP PUSH2 0x1DBF DUP3 PUSH2 0x1D9E JUMP JUMPDEST SWAP2 SWAP1 POP JUMP JUMPDEST PUSH0 PUSH2 0x1DCE DUP3 PUSH2 0x1DB2 JUMP JUMPDEST SWAP1 POP SWAP2 SWAP1 POP JUMP JUMPDEST PUSH2 0x1DDE DUP2 PUSH2 0x1DC4 JUMP JUMPDEST DUP3 MSTORE POP POP JUMP JUMPDEST PUSH1 0x80 DUP3 ADD PUSH0 DUP3 ADD MLOAD PUSH2 0x1DF8 PUSH0 DUP6 ADD DUP3 PUSH2 0x1CA3 JUMP JUMPDEST POP PUSH1 0x20 DUP3 ADD MLOAD PUSH2 0x1E0B PUSH1 0x20 DUP6 ADD DUP3 PUSH2 0x1DD5 JUMP JUMPDEST POP PUSH1 0x40 DUP3 ADD MLOAD PUSH2 0x1E1E PUSH1 0x40 DUP6 ADD DUP3 PUSH2 0x1BC1 JUMP JUMPDEST POP PUSH1 0x60 DUP3 ADD MLOAD PUSH2 0x1E31 PUSH1 0x60 DUP6 ADD DUP3 PUSH2 0x1BC1 JUMP JUMPDEST POP POP POP POP JUMP JUMPDEST PUSH1 0x3 DUP2 LT PUSH2 0x1E48 JUMPI PUSH2 0x1E47 PUSH2 0x1C3F JUMP JUMPDEST JUMPDEST POP JUMP JUMPDEST PUSH0 DUP2 SWAP1 POP PUSH2 0x1E58 DUP3 PUSH2 0x1E37 JUMP JUMPDEST SWAP2 SWAP1 POP JUMP JUMPDEST PUSH0 PUSH2 0x1E67 DUP3 PUSH2 0x1E4B JUMP JUMPDEST SWAP1 POP SWAP2 SWAP1 POP JUMP JUMPDEST PUSH2 0x1E77 DUP2 PUSH2 0x1E5D JUMP JUMPDEST DUP3 MSTORE POP POP JUMP JUMPDEST PUSH1 0x80 DUP3 ADD PUSH0 DUP3 ADD MLOAD PUSH2 0x1E91 PUSH0 DUP6 ADD DUP3 PUSH2 0x1E6E JUMP JUMPDEST POP PUSH1 0x20 DUP3 ADD MLOAD PUSH2 0x1EA4 PUSH1 0x20 DUP6 ADD DUP3 PUSH2 0x1CE9 JUMP JUMPDEST POP PUSH1 0x40 DUP3 ADD MLOAD PUSH2 0x1EB7 PUSH1 0x40 DUP6 ADD DUP3 PUSH2 0x1BC1 JUMP JUMPDEST POP PUSH1 0x60 DUP3 ADD MLOAD PUSH2 0x1ECA PUSH1 0x60 DUP6 ADD DUP3 PUSH2 0x1BC1 JUMP JUMPDEST POP POP POP POP JUMP JUMPDEST PUSH1 0x80 DUP3 ADD PUSH0 DUP3 ADD MLOAD PUSH2 0x1EE4 PUSH0 DUP6 ADD DUP3 PUSH2 0x1CA3 JUMP JUMPDEST POP PUSH1 0x20 DUP3 ADD MLOAD PUSH2 0x1EF7 PUSH1 0x20 DUP6 ADD DUP3 PUSH2 0x1CE9 JUMP JUMPDEST POP PUSH1 0x40 DUP3 ADD MLOAD PUSH2 0x1F0A PUSH1 0x40 DUP6 ADD DUP3 PUSH2 0x1BC1 JUMP JUMPDEST POP PUSH1 0x60 DUP3 ADD MLOAD PUSH2 0x1F1D PUSH1 0x60 DUP6 ADD DUP3 PUSH2 0x1BC1 JUMP JUMPDEST POP POP POP POP JUMP JUMPDEST PUSH0 PUSH2 0x320 DUP4 ADD PUSH0 DUP4 ADD MLOAD PUSH2 0x1F39 PUSH0 DUP7 ADD DUP3 PUSH2 0x1BC1 JUMP JUMPDEST POP PUSH1 0x20 DUP4 ADD MLOAD PUSH2 0x1F4C PUSH1 0x20 DUP7 ADD DUP3 PUSH2 0x1BC1 JUMP JUMPDEST POP PUSH1 0x40 DUP4 ADD MLOAD DUP5 DUP3 SUB PUSH1 0x40 DUP7 ADD MSTORE PUSH2 0x1F64 DUP3 DUP3 PUSH2 0x1BF8 JUMP JUMPDEST SWAP2 POP POP PUSH1 0x60 DUP4 ADD MLOAD PUSH2 0x1F79 PUSH1 0x60 DUP7 ADD DUP3 PUSH2 0x1BC1 JUMP JUMPDEST POP PUSH1 0x80 DUP4 ADD MLOAD PUSH2 0x1F8C PUSH1 0x80 DUP7 ADD DUP3 PUSH2 0x1C30 JUMP JUMPDEST POP PUSH1 0xA0 DUP4 ADD MLOAD PUSH2 0x1F9F PUSH1 0xA0 DUP7 ADD DUP3 PUSH2 0x1CF8 JUMP JUMPDEST POP PUSH1 0xC0 DUP4 ADD MLOAD PUSH2 0x1FB3 PUSH2 0x120 DUP7 ADD DUP3 PUSH2 0x1D4B JUMP JUMPDEST POP PUSH1 0xE0 DUP4 ADD MLOAD PUSH2 0x1FC7 PUSH2 0x1A0 DUP7 ADD DUP3 PUSH2 0x1DE4 JUMP JUMPDEST POP PUSH2 0x100 DUP4 ADD MLOAD PUSH2 0x1FDC PUSH2 0x220 DUP7 ADD DUP3 PUSH2 0x1E7D JUMP JUMPDEST POP PUSH2 0x120 DUP4 ADD MLOAD PUSH2 0x1FF1 PUSH2 0x2A0 DUP7 ADD DUP3 PUSH2 0x1ED0 JUMP JUMPDEST POP DUP1 SWAP2 POP POP SWAP3 SWAP2 POP POP JUMP JUMPDEST PUSH0 PUSH1 0x20 DUP3 ADD SWAP1 POP DUP2 DUP2 SUB PUSH0 DUP4 ADD MSTORE PUSH2 0x2014 DUP2 DUP5 PUSH2 0x1F23 JUMP JUMPDEST SWAP1 POP SWAP3 SWAP2 POP POP JUMP JUMPDEST PUSH1 0x3 DUP2 LT PUSH2 0x2028 JUMPI PUSH0 DUP1 REVERT JUMPDEST POP JUMP JUMPDEST PUSH0 DUP2 CALLDATALOAD SWAP1 POP PUSH2 0x2039 DUP2 PUSH2 0x201C JUMP JUMPDEST SWAP3 SWAP2 POP POP JUMP JUMPDEST PUSH1 0x3 DUP2 LT PUSH2 0x204B JUMPI PUSH0 DUP1 REVERT JUMPDEST POP JUMP JUMPDEST PUSH0 DUP2 CALLDATALOAD SWAP1 POP PUSH2 0x205C DUP2 PUSH2 0x203F JUMP JUMPDEST SWAP3 SWAP2 POP POP JUMP JUMPDEST PUSH0 DUP1 PUSH0 DUP1 PUSH0 DUP1 PUSH1 0xC0 DUP8 DUP10 SUB SLT ISZERO PUSH2 0x207C JUMPI PUSH2 0x207B PUSH2 0x18DD JUMP JUMPDEST JUMPDEST PUSH0 PUSH2 0x2089 DUP10 DUP3 DUP11 ADD PUSH2 0x1A40 JUMP JUMPDEST SWAP7 POP POP PUSH1 0x20 PUSH2 0x209A DUP10 DUP3 DUP11 ADD PUSH2 0x1A40 JUMP JUMPDEST SWAP6 POP POP PUSH1 0x40 PUSH2 0x20AB DUP10 DUP3 DUP11 ADD PUSH2 0x202B JUMP JUMPDEST SWAP5 POP POP PUSH1 0x60 PUSH2 0x20BC DUP10 DUP3 DUP11 ADD PUSH2 0x204E JUMP JUMPDEST SWAP4 POP POP PUSH1 0x80 PUSH2 0x20CD DUP10 DUP3 DUP11 ADD PUSH2 0x1A40 JUMP JUMPDEST SWAP3 POP POP PUSH1 0xA0 PUSH2 0x20DE DUP10 DUP3 DUP11 ADD PUSH2 0x1A40 JUMP JUMPDEST SWAP2 POP POP SWAP3 SWAP6 POP SWAP3 SWAP6 POP SWAP3 SWAP6 JUMP JUMPDEST PUSH0 DUP3 DUP3 MSTORE PUSH1 0x20 DUP3 ADD SWAP1 POP SWAP3 SWAP2 POP POP JUMP JUMPDEST PUSH0 PUSH2 0x2105 DUP3 PUSH2 0x1BD0 JUMP JUMPDEST PUSH2 0x210F DUP2 DUP6 PUSH2 0x20EB JUMP JUMPDEST SWAP4 POP PUSH2 0x211F DUP2 DUP6 PUSH1 0x20 DUP7 ADD PUSH2 0x1BEA JUMP JUMPDEST PUSH2 0x2128 DUP2 PUSH2 0x18ED JUMP JUMPDEST DUP5 ADD SWAP2 POP POP SWAP3 SWAP2 POP POP JUMP JUMPDEST PUSH0 PUSH1 0x20 DUP3 ADD SWAP1 POP DUP2 DUP2 SUB PUSH0 DUP4 ADD MSTORE PUSH2 0x214B DUP2 DUP5 PUSH2 0x20FB JUMP JUMPDEST SWAP1 POP SWAP3 SWAP2 POP POP JUMP JUMPDEST PUSH1 0x3 DUP2 LT PUSH2 0x215F JUMPI PUSH0 DUP1 REVERT JUMPDEST POP JUMP JUMPDEST PUSH0 DUP2 CALLDATALOAD SWAP1 POP PUSH2 0x2170 DUP2 PUSH2 0x2153 JUMP JUMPDEST SWAP3 SWAP2 POP POP JUMP JUMPDEST PUSH0 DUP1 PUSH0 DUP1 PUSH0 DUP1 PUSH1 0xC0 DUP8 DUP10 SUB SLT ISZERO PUSH2 0x2190 JUMPI PUSH2 0x218F PUSH2 0x18DD JUMP JUMPDEST JUMPDEST PUSH0 PUSH2 0x219D DUP10 DUP3 DUP11 ADD PUSH2 0x1A40 JUMP JUMPDEST SWAP7 POP POP PUSH1 0x20 PUSH2 0x21AE DUP10 DUP3 DUP11 ADD PUSH2 0x1A40 JUMP JUMPDEST SWAP6 POP POP PUSH1 0x40 PUSH2 0x21BF DUP10 DUP3 DUP11 ADD PUSH2 0x2162 JUMP JUMPDEST SWAP5 POP POP PUSH1 0x60 PUSH2 0x21D0 DUP10 DUP3 DUP11 ADD PUSH2 0x204E JUMP JUMPDEST SWAP4 POP POP PUSH1 0x80 PUSH2 0x21E1 DUP10 DUP3 DUP11 ADD PUSH2 0x1A40 JUMP JUMPDEST SWAP3 POP POP PUSH1 0xA0 PUSH2 0x21F2 DUP10 DUP3 DUP11 ADD PUSH2 0x1A40 JUMP JUMPDEST SWAP2 POP POP SWAP3 SWAP6 POP SWAP3 SWAP6 POP SWAP3 SWAP6 JUMP JUMPDEST PUSH1 0x3 DUP2 LT PUSH2 0x220B JUMPI PUSH0 DUP1 REVERT JUMPDEST POP JUMP JUMPDEST PUSH0 DUP2 CALLDATALOAD SWAP1 POP PUSH2 0x221C DUP2 PUSH2 0x21FF JUMP JUMPDEST SWAP3 SWAP2 POP POP JUMP JUMPDEST PUSH0 DUP1 PUSH0 DUP1 PUSH0 DUP1 PUSH1 0xC0 DUP8 DUP10 SUB SLT ISZERO PUSH2 0x223C JUMPI PUSH2 0x223B PUSH2 0x18DD JUMP JUMPDEST JUMPDEST PUSH0 PUSH2 0x2249 DUP10 DUP3 DUP11 ADD PUSH2 0x1A40 JUMP JUMPDEST SWAP7 POP POP PUSH1 0x20 PUSH2 0x225A DUP10 DUP3 DUP11 ADD PUSH2 0x1A40 JUMP JUMPDEST SWAP6 POP POP PUSH1 0x40 PUSH2 0x226B DUP10 DUP3 DUP11 ADD PUSH2 0x2162 JUMP JUMPDEST SWAP5 POP POP PUSH1 0x60 PUSH2 0x227C DUP10 DUP3 DUP11 ADD PUSH2 0x220E JUMP JUMPDEST SWAP4 POP POP PUSH1 0x80 PUSH2 0x228D DUP10 DUP3 DUP11 ADD PUSH2 0x1A40 JUMP JUMPDEST SWAP3 POP POP PUSH1 0xA0 PUSH2 0x229E DUP10 DUP3 DUP11 ADD PUSH2 0x1A40 JUMP JUMPDEST SWAP2 POP POP SWAP3 SWAP6 POP SWAP3 SWAP6 POP SWAP3 SWAP6 JUMP JUMPDEST PUSH32 0x4E487B7100000000000000000000000000000000000000000000000000000000 PUSH0 MSTORE PUSH1 0x32 PUSH1 0x4 MSTORE PUSH1 0x24 PUSH0 REVERT JUMPDEST PUSH32 0x4E487B7100000000000000000000000000000000000000000000000000000000 PUSH0 MSTORE PUSH1 0x22 PUSH1 0x4 MSTORE PUSH1 0x24 PUSH0 REVERT JUMPDEST PUSH0 PUSH1 0x2 DUP3 DIV SWAP1 POP PUSH1 0x1 DUP3 AND DUP1 PUSH2 0x231C JUMPI PUSH1 0x7F DUP3 AND SWAP2 POP JUMPDEST PUSH1 0x20 DUP3 LT DUP2 SUB PUSH2 0x232F JUMPI PUSH2 0x232E PUSH2 0x22D8 JUMP JUMPDEST JUMPDEST POP SWAP2 SWAP1 POP JUMP JUMPDEST PUSH0 DUP2 SWAP1 POP DUP2 PUSH0 MSTORE PUSH1 0x20 PUSH0 KECCAK256 SWAP1 POP SWAP2 SWAP1 POP JUMP JUMPDEST PUSH0 PUSH1 0x20 PUSH1 0x1F DUP4 ADD DIV SWAP1 POP SWAP2 SWAP1 POP JUMP JUMPDEST PUSH0 DUP3 DUP3 SHL SWAP1 POP SWAP3 SWAP2 POP POP JUMP JUMPDEST PUSH0 PUSH1 0x8 DUP4 MUL PUSH2 0x2391 PUSH32 0xFFFFFFFFFFFFFFFFFFFFFFFFFFFFFFFFFFFFFFFFFFFFFFFFFFFFFFFFFFFFFFFF DUP3 PUSH2 0x2356 JUMP JUMPDEST PUSH2 0x239B DUP7 DUP4 PUSH2 0x2356 JUMP JUMPDEST SWAP6 POP DUP1 NOT DUP5 AND SWAP4 POP DUP1 DUP7 AND DUP5 OR SWAP3 POP POP POP SWAP4 SWAP3 POP POP POP JUMP JUMPDEST PUSH0 DUP2 SWAP1 POP SWAP2 SWAP1 POP JUMP JUMPDEST PUSH0 PUSH2 0x23D6 PUSH2 0x23D1 PUSH2 0x23CC DUP5 PUSH2 0x1A21 JUMP JUMPDEST PUSH2 0x23B3 JUMP JUMPDEST PUSH2 0x1A21 JUMP JUMPDEST SWAP1 POP SWAP2 SWAP1 POP JUMP JUMPDEST PUSH0 DUP2 SWAP1 POP SWAP2 SWAP1 POP JUMP JUMPDEST PUSH2 0x23EF DUP4 PUSH2 0x23BC JUMP JUMPDEST PUSH2 0x2403 PUSH2 0x23FB DUP3 PUSH2 0x23DD JUMP JUMPDEST DUP5 DUP5 SLOAD PUSH2 0x2362 JUMP JUMPDEST DUP3 SSTORE POP POP POP POP JUMP JUMPDEST PUSH0 SWAP1 JUMP JUMPDEST PUSH2 0x2417 PUSH2 0x240B JUMP JUMPDEST PUSH2 0x2422 DUP2 DUP5 DUP5 PUSH2 0x23E6 JUMP JUMPDEST POP POP POP JUMP JUMPDEST JUMPDEST DUP2 DUP2 LT ISZERO PUSH2 0x2445 JUMPI PUSH2 0x243A PUSH0 DUP3 PUSH2 0x240F JUMP JUMPDEST PUSH1 0x1 DUP2 ADD SWAP1 POP PUSH2 0x2428 JUMP JUMPDEST POP POP JUMP JUMPDEST PUSH1 0x1F DUP3 GT ISZERO PUSH2 0x248A JUMPI PUSH2 0x245B DUP2 PUSH2 0x2335 JUMP JUMPDEST PUSH2 0x2464 DUP5 PUSH2 0x2347 JUMP JUMPDEST DUP2 ADD PUSH1 0x20 DUP6 LT ISZERO PUSH2 0x2473 JUMPI DUP2 SWAP1 POP JUMPDEST PUSH2 0x2487 PUSH2 0x247F DUP6 PUSH2 0x2347 JUMP JUMPDEST DUP4 ADD DUP3 PUSH2 0x2427 JUMP JUMPDEST POP POP JUMPDEST POP POP POP JUMP JUMPDEST PUSH0 DUP3 DUP3 SHR SWAP1 POP SWAP3 SWAP2 POP POP JUMP JUMPDEST PUSH0 PUSH2 0x24AA PUSH0 NOT DUP5 PUSH1 0x8 MUL PUSH2 0x248F JUMP JUMPDEST NOT DUP1 DUP4 AND SWAP2 POP POP SWAP3 SWAP2 POP POP JUMP JUMPDEST PUSH0 PUSH2 0x24C2 DUP4 DUP4 PUSH2 0x249B JUMP JUMPDEST SWAP2 POP DUP3 PUSH1 0x2 MUL DUP3 OR SWAP1 POP SWAP3 SWAP2 POP POP JUMP JUMPDEST PUSH2 0x24DB DUP3 PUSH2 0x1BD0 JUMP JUMPDEST PUSH8 0xFFFFFFFFFFFFFFFF DUP2 GT ISZERO PUSH2 0x24F4 JUMPI PUSH2 0x24F3 PUSH2 0x18FD JUMP JUMPDEST JUMPDEST PUSH2 0x24FE DUP3 SLOAD PUSH2 0x2305 JUMP JUMPDEST PUSH2 0x2509 DUP3 DUP3 DUP6 PUSH2 0x2449 JUMP JUMPDEST PUSH0 PUSH1 0x20 SWAP1 POP PUSH1 0x1F DUP4 GT PUSH1 0x1 DUP2 EQ PUSH2 0x253A JUMPI PUSH0 DUP5 ISZERO PUSH2 0x2528 JUMPI DUP3 DUP8 ADD MLOAD SWAP1 POP JUMPDEST PUSH2 0x2532 DUP6 DUP3 PUSH2 0x24B7 JUMP JUMPDEST DUP7 SSTORE POP PUSH2 0x2599 JUMP JUMPDEST PUSH1 0x1F NOT DUP5 AND PUSH2 0x2548 DUP7 PUSH2 0x2335 JUMP JUMPDEST PUSH0 JUMPDEST DUP3 DUP2 LT ISZERO PUSH2 0x256F JUMPI DUP5 DUP10 ADD MLOAD DUP3 SSTORE PUSH1 0x1 DUP3 ADD SWAP2 POP PUSH1 0x20 DUP6 ADD SWAP5 POP PUSH1 0x20 DUP2 ADD SWAP1 POP PUSH2 0x254A JUMP JUMPDEST DUP7 DUP4 LT ISZERO PUSH2 0x258C JUMPI DUP5 DUP10 ADD MLOAD PUSH2 0x2588 PUSH1 0x1F DUP10 AND DUP3 PUSH2 0x249B JUMP JUMPDEST DUP4 SSTORE POP JUMPDEST PUSH1 0x1 PUSH1 0x2 DUP9 MUL ADD DUP9 SSTORE POP POP POP JUMPDEST POP POP POP POP POP POP JUMP JUMPDEST PUSH32 0x4E487B7100000000000000000000000000000000000000000000000000000000 PUSH0 MSTORE PUSH1 0x11 PUSH1 0x4 MSTORE PUSH1 0x24 PUSH0 REVERT JUMPDEST PUSH0 PUSH2 0x25D8 DUP3 PUSH2 0x1A21 JUMP JUMPDEST SWAP2 POP PUSH2 0x25E3 DUP4 PUSH2 0x1A21 JUMP JUMPDEST SWAP3 POP DUP3 DUP3 MUL PUSH2 0x25F1 DUP2 PUSH2 0x1A21 JUMP JUMPDEST SWAP2 POP DUP3 DUP3 DIV DUP5 EQ DUP4 ISZERO OR PUSH2 0x2608 JUMPI PUSH2 0x2607 PUSH2 0x25A1 JUMP JUMPDEST JUMPDEST POP SWAP3 SWAP2 POP POP JUMP JUMPDEST PUSH0 PUSH2 0x2619 DUP3 PUSH2 0x1A21 JUMP JUMPDEST SWAP2 POP PUSH2 0x2624 DUP4 PUSH2 0x1A21 JUMP JUMPDEST SWAP3 POP DUP3 DUP3 ADD SWAP1 POP DUP1 DUP3 GT ISZERO PUSH2 0x263C JUMPI PUSH2 0x263B PUSH2 0x25A1 JUMP JUMPDEST JUMPDEST SWAP3 SWAP2 POP POP JUMP INVALID BLOBHASH PUSH15 0x76616C696420496E70757420212054 PUSH10 0x636B6574204E6F742042 PUSH16 0x6F6B65644169724C696E65205469636B PUSH6 0x7420426F6F6B PUSH6 0x642053756363 PUSH6 0x737366756C6C PUSH26 0x5261696C776179205469636B657420426F6F6B65642053756363 PUSH6 0x737366756C6C PUSH26 0xA2646970667358221220A9FA0602001A818CBA826F07275E42D0 DUP5 CALLDATASIZE 0x23 DUP12 MUL EXP 0xEE 0xC8 0xA8 0xC9 0xE3 0xC7 0xD7 CODESIZE 0xD SWAP12 PUSH5 0x736F6C6343 STOP ADDMOD BYTE STOP CALLER "
				},
				"gasEstimates": {
					"creation": {
						"codeDepositCost": "1989800",
						"executionCost": "2103",
						"totalCost": "1991903"
					},
					"external": {
						"Book_AirLine_Ticket(uint256,uint256,uint8,uint8,uint256,uint256)": "infinite",
						"Book_Bus_Ticket(uint256,uint256,uint8,uint8,uint256,uint256)": "infinite",
						"Book_Cinema_Ticket(uint256,uint256,uint8,uint8,uint256,uint256)": "infinite",
						"Book_Cricket_Ticket(uint256,uint256,uint8,uint8,uint256,uint256)": "infinite",
						"Book_Railway_Ticket(uint256,uint256,uint8,uint8,uint256,uint256)": "infinite",
						"Check_AnonomusID(uint256,uint256)": "infinite",
						"Chekck_My_Tickets(uint256,uint256)": "infinite",
						"Creat_Account(string,uint256,address)": "infinite"
					},
					"internal": {
						"Book_airLine_Ticket(uint256,enum Tickets_Booking.Time,enum Tickets_Booking.Type,uint256,uint256)": "102197",
						"Book_bus_Ticket(uint256,enum Tickets_Booking.Time,enum Tickets_Booking.Type,uint256,uint256)": "102197",
						"Book_cinema_Ticket(uint256,enum Tickets_Booking.Time,enum Tickets_Booking.Movie,uint256,uint256)": "102197",
						"Book_cricket_Ticket(uint256,enum Tickets_Booking.Date,enum Tickets_Booking.Type,uint256,uint256)": "102197",
						"Book_railway_Ticket(uint256,enum Tickets_Booking.Time,enum Tickets_Booking.Type,uint256,uint256)": "102197"
					}
				},
				"methodIdentifiers": {
					"Book_AirLine_Ticket(uint256,uint256,uint8,uint8,uint256,uint256)": "98851f11",
					"Book_Bus_Ticket(uint256,uint256,uint8,uint8,uint256,uint256)": "d851bbbc",
					"Book_Cinema_Ticket(uint256,uint256,uint8,uint8,uint256,uint256)": "b051e718",
					"Book_Cricket_Ticket(uint256,uint256,uint8,uint8,uint256,uint256)": "91334732",
					"Book_Railway_Ticket(uint256,uint256,uint8,uint8,uint256,uint256)": "ca3aa589",
					"Check_AnonomusID(uint256,uint256)": "2292c804",
					"Chekck_My_Tickets(uint256,uint256)": "5522ed14",
					"Creat_Account(string,uint256,address)": "0c52e285"
				}
			},
			"storageLayout": {
				"storage": [
					{
						"astId": 3,
						"contract": "ticket_booking/ticket_booking.sol:Tickets_Booking",
						"label": "USER_ID",
						"offset": 0,
						"slot": "0",
						"type": "t_uint256"
					},
					{
						"astId": 104,
						"contract": "ticket_booking/ticket_booking.sol:Tickets_Booking",
						"label": "client",
						"offset": 0,
						"slot": "1",
						"type": "t_array(t_struct(Client)100_storage)dyn_storage"
					}
				],
				"types": {
					"t_address": {
						"encoding": "inplace",
						"label": "address",
						"numberOfBytes": "20"
					},
					"t_array(t_struct(Client)100_storage)dyn_storage": {
						"base": "t_struct(Client)100_storage",
						"encoding": "dynamic_array",
						"label": "struct Tickets_Booking.Client[]",
						"numberOfBytes": "32"
					},
					"t_enum(Date)15": {
						"encoding": "inplace",
						"label": "enum Tickets_Booking.Date",
						"numberOfBytes": "1"
					},
					"t_enum(Movie)19": {
						"encoding": "inplace",
						"label": "enum Tickets_Booking.Movie",
						"numberOfBytes": "1"
					},
					"t_enum(Time)7": {
						"encoding": "inplace",
						"label": "enum Tickets_Booking.Time",
						"numberOfBytes": "1"
					},
					"t_enum(Type)11": {
						"encoding": "inplace",
						"label": "enum Tickets_Booking.Type",
						"numberOfBytes": "1"
					},
					"t_string_storage": {
						"encoding": "bytes",
						"label": "string",
						"numberOfBytes": "32"
					},
					"t_struct(AirLine_Ticket)41_storage": {
						"encoding": "inplace",
						"label": "struct Tickets_Booking.AirLine_Ticket",
						"members": [
							{
								"astId": 33,
								"contract": "ticket_booking/ticket_booking.sol:Tickets_Booking",
								"label": "time",
								"offset": 0,
								"slot": "0",
								"type": "t_enum(Time)7"
							},
							{
								"astId": 36,
								"contract": "ticket_booking/ticket_booking.sol:Tickets_Booking",
								"label": "types",
								"offset": 1,
								"slot": "0",
								"type": "t_enum(Type)11"
							},
							{
								"astId": 38,
								"contract": "ticket_booking/ticket_booking.sol:Tickets_Booking",
								"label": "Seat_Number",
								"offset": 0,
								"slot": "1",
								"type": "t_uint256"
							},
							{
								"astId": 40,
								"contract": "ticket_booking/ticket_booking.sol:Tickets_Booking",
								"label": "Book_n_Seats",
								"offset": 0,
								"slot": "2",
								"type": "t_uint256"
							}
						],
						"numberOfBytes": "96"
					},
					"t_struct(Bus_Ticket)30_storage": {
						"encoding": "inplace",
						"label": "struct Tickets_Booking.Bus_Ticket",
						"members": [
							{
								"astId": 22,
								"contract": "ticket_booking/ticket_booking.sol:Tickets_Booking",
								"label": "time",
								"offset": 0,
								"slot": "0",
								"type": "t_enum(Time)7"
							},
							{
								"astId": 25,
								"contract": "ticket_booking/ticket_booking.sol:Tickets_Booking",
								"label": "types",
								"offset": 1,
								"slot": "0",
								"type": "t_enum(Type)11"
							},
							{
								"astId": 27,
								"contract": "ticket_booking/ticket_booking.sol:Tickets_Booking",
								"label": "Seat_Number",
								"offset": 0,
								"slot": "1",
								"type": "t_uint256"
							},
							{
								"astId": 29,
								"contract": "ticket_booking/ticket_booking.sol:Tickets_Booking",
								"label": "Book_n_Seats",
								"offset": 0,
								"slot": "2",
								"type": "t_uint256"
							}
						],
						"numberOfBytes": "96"
					},
					"t_struct(Cinema_Ticket)52_storage": {
						"encoding": "inplace",
						"label": "struct Tickets_Booking.Cinema_Ticket",
						"members": [
							{
								"astId": 44,
								"contract": "ticket_booking/ticket_booking.sol:Tickets_Booking",
								"label": "time",
								"offset": 0,
								"slot": "0",
								"type": "t_enum(Time)7"
							},
							{
								"astId": 47,
								"contract": "ticket_booking/ticket_booking.sol:Tickets_Booking",
								"label": "Movie_Name",
								"offset": 1,
								"slot": "0",
								"type": "t_enum(Movie)19"
							},
							{
								"astId": 49,
								"contract": "ticket_booking/ticket_booking.sol:Tickets_Booking",
								"label": "Seat_Number",
								"offset": 0,
								"slot": "1",
								"type": "t_uint256"
							},
							{
								"astId": 51,
								"contract": "ticket_booking/ticket_booking.sol:Tickets_Booking",
								"label": "Book_n_Seats",
								"offset": 0,
								"slot": "2",
								"type": "t_uint256"
							}
						],
						"numberOfBytes": "96"
					},
					"t_struct(Client)100_storage": {
						"encoding": "inplace",
						"label": "struct Tickets_Booking.Client",
						"members": [
							{
								"astId": 76,
								"contract": "ticket_booking/ticket_booking.sol:Tickets_Booking",
								"label": "ID",
								"offset": 0,
								"slot": "0",
								"type": "t_uint256"
							},
							{
								"astId": 78,
								"contract": "ticket_booking/ticket_booking.sol:Tickets_Booking",
								"label": "Anonomus_ID",
								"offset": 0,
								"slot": "1",
								"type": "t_uint256"
							},
							{
								"astId": 80,
								"contract": "ticket_booking/ticket_booking.sol:Tickets_Booking",
								"label": "Name",
								"offset": 0,
								"slot": "2",
								"type": "t_string_storage"
							},
							{
								"astId": 82,
								"contract": "ticket_booking/ticket_booking.sol:Tickets_Booking",
								"label": "Age",
								"offset": 0,
								"slot": "3",
								"type": "t_uint256"
							},
							{
								"astId": 84,
								"contract": "ticket_booking/ticket_booking.sol:Tickets_Booking",
								"label": "Address",
								"offset": 0,
								"slot": "4",
								"type": "t_address"
							},
							{
								"astId": 87,
								"contract": "ticket_booking/ticket_booking.sol:Tickets_Booking",
								"label": "bus_ticket",
								"offset": 0,
								"slot": "5",
								"type": "t_struct(Bus_Ticket)30_storage"
							},
							{
								"astId": 90,
								"contract": "ticket_booking/ticket_booking.sol:Tickets_Booking",
								"label": "airLine_ticket",
								"offset": 0,
								"slot": "8",
								"type": "t_struct(AirLine_Ticket)41_storage"
							},
							{
								"astId": 93,
								"contract": "ticket_booking/ticket_booking.sol:Tickets_Booking",
								"label": "cinema_ticket",
								"offset": 0,
								"slot": "11",
								"type": "t_struct(Cinema_Ticket)52_storage"
							},
							{
								"astId": 96,
								"contract": "ticket_booking/ticket_booking.sol:Tickets_Booking",
								"label": "cricket_ticket",
								"offset": 0,
								"slot": "14",
								"type": "t_struct(Cricket_Ticket)63_storage"
							},
							{
								"astId": 99,
								"contract": "ticket_booking/ticket_booking.sol:Tickets_Booking",
								"label": "railway_ticket",
								"offset": 0,
								"slot": "17",
								"type": "t_struct(Railway_Ticket)74_storage"
							}
						],
						"numberOfBytes": "640"
					},
					"t_struct(Cricket_Ticket)63_storage": {
						"encoding": "inplace",
						"label": "struct Tickets_Booking.Cricket_Ticket",
						"members": [
							{
								"astId": 55,
								"contract": "ticket_booking/ticket_booking.sol:Tickets_Booking",
								"label": "date",
								"offset": 0,
								"slot": "0",
								"type": "t_enum(Date)15"
							},
							{
								"astId": 58,
								"contract": "ticket_booking/ticket_booking.sol:Tickets_Booking",
								"label": "types",
								"offset": 1,
								"slot": "0",
								"type": "t_enum(Type)11"
							},
							{
								"astId": 60,
								"contract": "ticket_booking/ticket_booking.sol:Tickets_Booking",
								"label": "Seat_Number",
								"offset": 0,
								"slot": "1",
								"type": "t_uint256"
							},
							{
								"astId": 62,
								"contract": "ticket_booking/ticket_booking.sol:Tickets_Booking",
								"label": "Book_n_Seats",
								"offset": 0,
								"slot": "2",
								"type": "t_uint256"
							}
						],
						"numberOfBytes": "96"
					},
					"t_struct(Railway_Ticket)74_storage": {
						"encoding": "inplace",
						"label": "struct Tickets_Booking.Railway_Ticket",
						"members": [
							{
								"astId": 66,
								"contract": "ticket_booking/ticket_booking.sol:Tickets_Booking",
								"label": "time",
								"offset": 0,
								"slot": "0",
								"type": "t_enum(Time)7"
							},
							{
								"astId": 69,
								"contract": "ticket_booking/ticket_booking.sol:Tickets_Booking",
								"label": "types",
								"offset": 1,
								"slot": "0",
								"type": "t_enum(Type)11"
							},
							{
								"astId": 71,
								"contract": "ticket_booking/ticket_booking.sol:Tickets_Booking",
								"label": "Seat_Number",
								"offset": 0,
								"slot": "1",
								"type": "t_uint256"
							},
							{
								"astId": 73,
								"contract": "ticket_booking/ticket_booking.sol:Tickets_Booking",
								"label": "Book_n_Seats",
								"offset": 0,
								"slot": "2",
								"type": "t_uint256"
							}
						],
						"numberOfBytes": "96"
					},
					"t_uint256": {
						"encoding": "inplace",
						"label": "uint256",
						"numberOfBytes": "32"
					}
				}
			},
			"userdoc": {
				"kind": "user",
				"methods": {},
				"version": 1
			}
		}
	}
}