{
	"ticket_booking_contract/ticket_booking.sol": {
		"BookingSite": {
			"abi": [
				{
					"inputs": [
						{
							"internalType": "string",
							"name": "name",
							"type": "string"
						},
						{
							"internalType": "uint8",
							"name": "age",
							"type": "uint8"
						},
						{
							"internalType": "string",
							"name": "contactDetails",
							"type": "string"
						},
						{
							"internalType": "string",
							"name": "flightNumber",
							"type": "string"
						},
						{
							"internalType": "string",
							"name": "origin",
							"type": "string"
						},
						{
							"internalType": "string",
							"name": "destination",
							"type": "string"
						},
						{
							"internalType": "uint256",
							"name": "dateOfJourney",
							"type": "uint256"
						},
						{
							"internalType": "string",
							"name": "seatClass",
							"type": "string"
						}
					],
					"name": "bookAirlineTicket",
					"outputs": [],
					"stateMutability": "nonpayable",
					"type": "function"
				},
				{
					"inputs": [
						{
							"internalType": "string",
							"name": "name",
							"type": "string"
						},
						{
							"internalType": "uint8",
							"name": "age",
							"type": "uint8"
						},
						{
							"internalType": "string",
							"name": "contactDetails",
							"type": "string"
						},
						{
							"internalType": "string",
							"name": "busNumber",
							"type": "string"
						},
						{
							"internalType": "string",
							"name": "origin",
							"type": "string"
						},
						{
							"internalType": "string",
							"name": "destination",
							"type": "string"
						},
						{
							"internalType": "uint256",
							"name": "dateOfJourney",
							"type": "uint256"
						},
						{
							"internalType": "uint8",
							"name": "seatNumber",
							"type": "uint8"
						}
					],
					"name": "bookBusTicket",
					"outputs": [],
					"stateMutability": "nonpayable",
					"type": "function"
				},
				{
					"inputs": [
						{
							"internalType": "string",
							"name": "name",
							"type": "string"
						},
						{
							"internalType": "uint8",
							"name": "age",
							"type": "uint8"
						},
						{
							"internalType": "string",
							"name": "contactDetails",
							"type": "string"
						},
						{
							"internalType": "string",
							"name": "movieName",
							"type": "string"
						},
						{
							"internalType": "string",
							"name": "cinemaHall",
							"type": "string"
						},
						{
							"internalType": "uint256",
							"name": "showTime",
							"type": "uint256"
						},
						{
							"internalType": "uint8",
							"name": "seatNumber",
							"type": "uint8"
						}
					],
					"name": "bookCinemaTicket",
					"outputs": [],
					"stateMutability": "nonpayable",
					"type": "function"
				},
				{
					"inputs": [
						{
							"internalType": "string",
							"name": "name",
							"type": "string"
						},
						{
							"internalType": "uint8",
							"name": "age",
							"type": "uint8"
						},
						{
							"internalType": "string",
							"name": "contactDetails",
							"type": "string"
						},
						{
							"internalType": "string",
							"name": "matchDetails",
							"type": "string"
						},
						{
							"internalType": "string",
							"name": "stadium",
							"type": "string"
						},
						{
							"internalType": "uint256",
							"name": "matchDate",
							"type": "uint256"
						},
						{
							"internalType": "uint8",
							"name": "seatNumber",
							"type": "uint8"
						}
					],
					"name": "bookCricketTicket",
					"outputs": [],
					"stateMutability": "nonpayable",
					"type": "function"
				},
				{
					"inputs": [
						{
							"internalType": "string",
							"name": "name",
							"type": "string"
						},
						{
							"internalType": "uint8",
							"name": "age",
							"type": "uint8"
						},
						{
							"internalType": "string",
							"name": "contactDetails",
							"type": "string"
						},
						{
							"internalType": "string",
							"name": "trainNumber",
							"type": "string"
						},
						{
							"internalType": "string",
							"name": "origin",
							"type": "string"
						},
						{
							"internalType": "string",
							"name": "destination",
							"type": "string"
						},
						{
							"internalType": "uint256",
							"name": "dateOfJourney",
							"type": "uint256"
						},
						{
							"internalType": "uint8",
							"name": "seatNumber",
							"type": "uint8"
						}
					],
					"name": "bookRailwayTicket",
					"outputs": [],
					"stateMutability": "nonpayable",
					"type": "function"
				},
				{
					"inputs": [
						{
							"internalType": "uint256",
							"name": "",
							"type": "uint256"
						}
					],
					"name": "bookings",
					"outputs": [
						{
							"internalType": "uint256",
							"name": "bookingID",
							"type": "uint256"
						},
						{
							"internalType": "enum BookingSite.BookingType",
							"name": "bookingType",
							"type": "uint8"
						},
						{
							"components": [
								{
									"internalType": "uint256",
									"name": "userID",
									"type": "uint256"
								},
								{
									"internalType": "string",
									"name": "name",
									"type": "string"
								},
								{
									"internalType": "uint8",
									"name": "age",
									"type": "uint8"
								},
								{
									"internalType": "string",
									"name": "contactDetails",
									"type": "string"
								}
							],
							"internalType": "struct BookingSite.UserStruct",
							"name": "user",
							"type": "tuple"
						},
						{
							"components": [
								{
									"internalType": "string",
									"name": "busNumber",
									"type": "string"
								},
								{
									"internalType": "string",
									"name": "origin",
									"type": "string"
								},
								{
									"internalType": "string",
									"name": "destination",
									"type": "string"
								},
								{
									"internalType": "uint256",
									"name": "dateOfJourney",
									"type": "uint256"
								},
								{
									"internalType": "uint8",
									"name": "seatNumber",
									"type": "uint8"
								}
							],
							"internalType": "struct BookingSite.BusBookingStruct",
							"name": "busBooking",
							"type": "tuple"
						},
						{
							"components": [
								{
									"internalType": "string",
									"name": "movieName",
									"type": "string"
								},
								{
									"internalType": "string",
									"name": "cinemaHall",
									"type": "string"
								},
								{
									"internalType": "uint256",
									"name": "showTime",
									"type": "uint256"
								},
								{
									"internalType": "uint8",
									"name": "seatNumber",
									"type": "uint8"
								}
							],
							"internalType": "struct BookingSite.CinemaBookingStruct",
							"name": "cinemaBooking",
							"type": "tuple"
						},
						{
							"components": [
								{
									"internalType": "string",
									"name": "flightNumber",
									"type": "string"
								},
								{
									"internalType": "string",
									"name": "origin",
									"type": "string"
								},
								{
									"internalType": "string",
									"name": "destination",
									"type": "string"
								},
								{
									"internalType": "uint256",
									"name": "dateOfJourney",
									"type": "uint256"
								},
								{
									"internalType": "string",
									"name": "seatClass",
									"type": "string"
								}
							],
							"internalType": "struct BookingSite.AirlineBookingStruct",
							"name": "airlineBooking",
							"type": "tuple"
						},
						{
							"components": [
								{
									"internalType": "string",
									"name": "trainNumber",
									"type": "string"
								},
								{
									"internalType": "string",
									"name": "origin",
									"type": "string"
								},
								{
									"internalType": "string",
									"name": "destination",
									"type": "string"
								},
								{
									"internalType": "uint256",
									"name": "dateOfJourney",
									"type": "uint256"
								},
								{
									"internalType": "uint8",
									"name": "seatNumber",
									"type": "uint8"
								}
							],
							"internalType": "struct BookingSite.RailwayBookingStruct",
							"name": "railwayBooking",
							"type": "tuple"
						},
						{
							"components": [
								{
									"internalType": "string",
									"name": "matchDetails",
									"type": "string"
								},
								{
									"internalType": "string",
									"name": "stadium",
									"type": "string"
								},
								{
									"internalType": "uint256",
									"name": "matchDate",
									"type": "uint256"
								},
								{
									"internalType": "uint8",
									"name": "seatNumber",
									"type": "uint8"
								}
							],
							"internalType": "struct BookingSite.CricketBookingStruct",
							"name": "cricketBooking",
							"type": "tuple"
						}
					],
					"stateMutability": "view",
					"type": "function"
				},
				{
					"inputs": [
						{
							"internalType": "uint256",
							"name": "_bookingID",
							"type": "uint256"
						}
					],
					"name": "getBooking",
					"outputs": [
						{
							"components": [
								{
									"internalType": "uint256",
									"name": "bookingID",
									"type": "uint256"
								},
								{
									"internalType": "enum BookingSite.BookingType",
									"name": "bookingType",
									"type": "uint8"
								},
								{
									"components": [
										{
											"internalType": "uint256",
											"name": "userID",
											"type": "uint256"
										},
										{
											"internalType": "string",
											"name": "name",
											"type": "string"
										},
										{
											"internalType": "uint8",
											"name": "age",
											"type": "uint8"
										},
										{
											"internalType": "string",
											"name": "contactDetails",
											"type": "string"
										}
									],
									"internalType": "struct BookingSite.UserStruct",
									"name": "user",
									"type": "tuple"
								},
								{
									"components": [
										{
											"internalType": "string",
											"name": "busNumber",
											"type": "string"
										},
										{
											"internalType": "string",
											"name": "origin",
											"type": "string"
										},
										{
											"internalType": "string",
											"name": "destination",
											"type": "string"
										},
										{
											"internalType": "uint256",
											"name": "dateOfJourney",
											"type": "uint256"
										},
										{
											"internalType": "uint8",
											"name": "seatNumber",
											"type": "uint8"
										}
									],
									"internalType": "struct BookingSite.BusBookingStruct",
									"name": "busBooking",
									"type": "tuple"
								},
								{
									"components": [
										{
											"internalType": "string",
											"name": "movieName",
											"type": "string"
										},
										{
											"internalType": "string",
											"name": "cinemaHall",
											"type": "string"
										},
										{
											"internalType": "uint256",
											"name": "showTime",
											"type": "uint256"
										},
										{
											"internalType": "uint8",
											"name": "seatNumber",
											"type": "uint8"
										}
									],
									"internalType": "struct BookingSite.CinemaBookingStruct",
									"name": "cinemaBooking",
									"type": "tuple"
								},
								{
									"components": [
										{
											"internalType": "string",
											"name": "flightNumber",
											"type": "string"
										},
										{
											"internalType": "string",
											"name": "origin",
											"type": "string"
										},
										{
											"internalType": "string",
											"name": "destination",
											"type": "string"
										},
										{
											"internalType": "uint256",
											"name": "dateOfJourney",
											"type": "uint256"
										},
										{
											"internalType": "string",
											"name": "seatClass",
											"type": "string"
										}
									],
									"internalType": "struct BookingSite.AirlineBookingStruct",
									"name": "airlineBooking",
									"type": "tuple"
								},
								{
									"components": [
										{
											"internalType": "string",
											"name": "trainNumber",
											"type": "string"
										},
										{
											"internalType": "string",
											"name": "origin",
											"type": "string"
										},
										{
											"internalType": "string",
											"name": "destination",
											"type": "string"
										},
										{
											"internalType": "uint256",
											"name": "dateOfJourney",
											"type": "uint256"
										},
										{
											"internalType": "uint8",
											"name": "seatNumber",
											"type": "uint8"
										}
									],
									"internalType": "struct BookingSite.RailwayBookingStruct",
									"name": "railwayBooking",
									"type": "tuple"
								},
								{
									"components": [
										{
											"internalType": "string",
											"name": "matchDetails",
											"type": "string"
										},
										{
											"internalType": "string",
											"name": "stadium",
											"type": "string"
										},
										{
											"internalType": "uint256",
											"name": "matchDate",
											"type": "uint256"
										},
										{
											"internalType": "uint8",
											"name": "seatNumber",
											"type": "uint8"
										}
									],
									"internalType": "struct BookingSite.CricketBookingStruct",
									"name": "cricketBooking",
									"type": "tuple"
								}
							],
							"internalType": "struct BookingSite.BookingStruct",
							"name": "",
							"type": "tuple"
						}
					],
					"stateMutability": "view",
					"type": "function"
				},
				{
					"inputs": [],
					"name": "getTotalBookings",
					"outputs": [
						{
							"internalType": "uint256",
							"name": "",
							"type": "uint256"
						}
					],
					"stateMutability": "view",
					"type": "function"
				}
			],
			"devdoc": {
				"kind": "dev",
				"methods": {},
				"version": 1
			},
			"evm": {
				"assembly": "    /* \"ticket_booking_contract/ticket_booking.sol\":61:8499  contract BookingSite {... */\n  mstore(0x40, 0x80)\n  callvalue\n  dup1\n  iszero\n  tag_1\n  jumpi\n  0x00\n  dup1\n  revert\ntag_1:\n  pop\n  dataSize(sub_0)\n  dup1\n  dataOffset(sub_0)\n  0x00\n  codecopy\n  0x00\n  return\nstop\n\nsub_0: assembly {\n        /* \"ticket_booking_contract/ticket_booking.sol\":61:8499  contract BookingSite {... */\n      mstore(0x40, 0x80)\n      callvalue\n      dup1\n      iszero\n      tag_1\n      jumpi\n      0x00\n      dup1\n      revert\n    tag_1:\n      pop\n      jumpi(tag_2, lt(calldatasize, 0x04))\n      shr(0xe0, calldataload(0x00))\n      dup1\n      0x7d13d926\n      gt\n      tag_11\n      jumpi\n      dup1\n      0x7d13d926\n      eq\n      tag_7\n      jumpi\n      dup1\n      0xa21e0a63\n      eq\n      tag_8\n      jumpi\n      dup1\n      0xe73f50ac\n      eq\n      tag_9\n      jumpi\n      dup1\n      0xf99e7b70\n      eq\n      tag_10\n      jumpi\n      jump(tag_2)\n    tag_11:\n      dup1\n      0x1dab301e\n      eq\n      tag_3\n      jumpi\n      dup1\n      0x6a5c841a\n      eq\n      tag_4\n      jumpi\n      dup1\n      0x6f1dcff2\n      eq\n      tag_5\n      jumpi\n      dup1\n      0x7b9f8420\n      eq\n      tag_6\n      jumpi\n    tag_2:\n      0x00\n      dup1\n      revert\n        /* \"ticket_booking_contract/ticket_booking.sol\":1646:1695  mapping(uint256 => BookingStruct) public bookings */\n    tag_3:\n      tag_12\n      0x04\n      dup1\n      calldatasize\n      sub\n      dup2\n      add\n      swap1\n      tag_13\n      swap2\n      swap1\n      tag_14\n      jump\t// in\n    tag_13:\n      tag_15\n      jump\t// in\n    tag_12:\n      mload(0x40)\n      tag_16\n      swap9\n      swap8\n      swap7\n      swap6\n      swap5\n      swap4\n      swap3\n      swap2\n      swap1\n      tag_17\n      jump\t// in\n    tag_16:\n      mload(0x40)\n      dup1\n      swap2\n      sub\n      swap1\n      return\n        /* \"ticket_booking_contract/ticket_booking.sol\":8224:8353  function getBooking(uint256 _bookingID) public view returns (BookingStruct memory) {... */\n    tag_4:\n      tag_18\n      0x04\n      dup1\n      calldatasize\n      sub\n      dup2\n      add\n      swap1\n      tag_19\n      swap2\n      swap1\n      tag_14\n      jump\t// in\n    tag_19:\n      tag_20\n      jump\t// in\n    tag_18:\n      mload(0x40)\n      tag_21\n      swap2\n      swap1\n      tag_22\n      jump\t// in\n    tag_21:\n      mload(0x40)\n      dup1\n      swap2\n      sub\n      swap1\n      return\n        /* \"ticket_booking_contract/ticket_booking.sol\":1799:3040  function bookBusTicket(... */\n    tag_5:\n      tag_23\n      0x04\n      dup1\n      calldatasize\n      sub\n      dup2\n      add\n      swap1\n      tag_24\n      swap2\n      swap1\n      tag_25\n      jump\t// in\n    tag_24:\n      tag_26\n      jump\t// in\n    tag_23:\n      stop\n        /* \"ticket_booking_contract/ticket_booking.sol\":8398:8496  function getTotalBookings() public view returns (uint256) {... */\n    tag_6:\n      tag_27\n      tag_28\n      jump\t// in\n    tag_27:\n      mload(0x40)\n      tag_29\n      swap2\n      swap1\n      tag_30\n      jump\t// in\n    tag_29:\n      mload(0x40)\n      dup1\n      swap2\n      sub\n      swap1\n      return\n        /* \"ticket_booking_contract/ticket_booking.sol\":3085:4294  function bookCinemaTicket(... */\n    tag_7:\n      tag_31\n      0x04\n      dup1\n      calldatasize\n      sub\n      dup2\n      add\n      swap1\n      tag_32\n      swap2\n      swap1\n      tag_33\n      jump\t// in\n    tag_32:\n      tag_34\n      jump\t// in\n    tag_31:\n      stop\n        /* \"ticket_booking_contract/ticket_booking.sol\":5658:6923  function bookRailwayTicket(... */\n    tag_8:\n      tag_35\n      0x04\n      dup1\n      calldatasize\n      sub\n      dup2\n      add\n      swap1\n      tag_36\n      swap2\n      swap1\n      tag_25\n      jump\t// in\n    tag_36:\n      tag_37\n      jump\t// in\n    tag_35:\n      stop\n        /* \"ticket_booking_contract/ticket_booking.sol\":4340:5612  function bookAirlineTicket(... */\n    tag_9:\n      tag_38\n      0x04\n      dup1\n      calldatasize\n      sub\n      dup2\n      add\n      swap1\n      tag_39\n      swap2\n      swap1\n      tag_40\n      jump\t// in\n    tag_39:\n      tag_41\n      jump\t// in\n    tag_38:\n      stop\n        /* \"ticket_booking_contract/ticket_booking.sol\":6969:8185  function bookCricketTicket(... */\n    tag_10:\n      tag_42\n      0x04\n      dup1\n      calldatasize\n      sub\n      dup2\n      add\n      swap1\n      tag_43\n      swap2\n      swap1\n      tag_33\n      jump\t// in\n    tag_43:\n      tag_44\n      jump\t// in\n    tag_42:\n      stop\n        /* \"ticket_booking_contract/ticket_booking.sol\":1646:1695  mapping(uint256 => BookingStruct) public bookings */\n    tag_15:\n      mstore(0x20, 0x01)\n      dup1\n      0x00\n      mstore\n      keccak256(0x00, 0x40)\n      0x00\n      swap2\n      pop\n      swap1\n      pop\n      dup1\n      0x00\n      add\n      sload\n      swap1\n      dup1\n      0x01\n      add\n      0x00\n      swap1\n      sload\n      swap1\n      0x0100\n      exp\n      swap1\n      div\n      0xff\n      and\n      swap1\n      dup1\n      0x02\n      add\n      mload(0x40)\n      dup1\n      0x80\n      add\n      0x40\n      mstore\n      swap1\n      dup2\n      0x00\n      dup3\n      add\n      sload\n      dup2\n      mstore\n      0x20\n      add\n      0x01\n      dup3\n      add\n      dup1\n      sload\n      tag_45\n      swap1\n      tag_46\n      jump\t// in\n    tag_45:\n      dup1\n      0x1f\n      add\n      0x20\n      dup1\n      swap2\n      div\n      mul\n      0x20\n      add\n      mload(0x40)\n      swap1\n      dup2\n      add\n      0x40\n      mstore\n      dup1\n      swap3\n      swap2\n      swap1\n      dup2\n      dup2\n      mstore\n      0x20\n      add\n      dup3\n      dup1\n      sload\n      tag_47\n      swap1\n      tag_46\n      jump\t// in\n    tag_47:\n      dup1\n      iszero\n      tag_48\n      jumpi\n      dup1\n      0x1f\n      lt\n      tag_49\n      jumpi\n      0x0100\n      dup1\n      dup4\n      sload\n      div\n      mul\n      dup4\n      mstore\n      swap2\n      0x20\n      add\n      swap2\n      jump(tag_48)\n    tag_49:\n      dup3\n      add\n      swap2\n      swap1\n      0x00\n      mstore\n      keccak256(0x00, 0x20)\n      swap1\n    tag_50:\n      dup2\n      sload\n      dup2\n      mstore\n      swap1\n      0x01\n      add\n      swap1\n      0x20\n      add\n      dup1\n      dup4\n      gt\n      tag_50\n      jumpi\n      dup3\n      swap1\n      sub\n      0x1f\n      and\n      dup3\n      add\n      swap2\n    tag_48:\n      pop\n      pop\n      pop\n      pop\n      pop\n      dup2\n      mstore\n      0x20\n      add\n      0x02\n      dup3\n      add\n      0x00\n      swap1\n      sload\n      swap1\n      0x0100\n      exp\n      swap1\n      div\n      0xff\n      and\n      0xff\n      and\n      0xff\n      and\n      dup2\n      mstore\n      0x20\n      add\n      0x03\n      dup3\n      add\n      dup1\n      sload\n      tag_51\n      swap1\n      tag_46\n      jump\t// in\n    tag_51:\n      dup1\n      0x1f\n      add\n      0x20\n      dup1\n      swap2\n      div\n      mul\n      0x20\n      add\n      mload(0x40)\n      swap1\n      dup2\n      add\n      0x40\n      mstore\n      dup1\n      swap3\n      swap2\n      swap1\n      dup2\n      dup2\n      mstore\n      0x20\n      add\n      dup3\n      dup1\n      sload\n      tag_52\n      swap1\n      tag_46\n      jump\t// in\n    tag_52:\n      dup1\n      iszero\n      tag_53\n      jumpi\n      dup1\n      0x1f\n      lt\n      tag_54\n      jumpi\n      0x0100\n      dup1\n      dup4\n      sload\n      div\n      mul\n      dup4\n      mstore\n      swap2\n      0x20\n      add\n      swap2\n      jump(tag_53)\n    tag_54:\n      dup3\n      add\n      swap2\n      swap1\n      0x00\n      mstore\n      keccak256(0x00, 0x20)\n      swap1\n    tag_55:\n      dup2\n      sload\n      dup2\n      mstore\n      swap1\n      0x01\n      add\n      swap1\n      0x20\n      add\n      dup1\n      dup4\n      gt\n      tag_55\n      jumpi\n      dup3\n      swap1\n      sub\n      0x1f\n      and\n      dup3\n      add\n      swap2\n    tag_53:\n      pop\n      pop\n      pop\n      pop\n      pop\n      dup2\n      mstore\n      pop\n      pop\n      swap1\n      dup1\n      0x06\n      add\n      mload(0x40)\n      dup1\n      0xa0\n      add\n      0x40\n      mstore\n      swap1\n      dup2\n      0x00\n      dup3\n      add\n      dup1\n      sload\n      tag_56\n      swap1\n      tag_46\n      jump\t// in\n    tag_56:\n      dup1\n      0x1f\n      add\n      0x20\n      dup1\n      swap2\n      div\n      mul\n      0x20\n      add\n      mload(0x40)\n      swap1\n      dup2\n      add\n      0x40\n      mstore\n      dup1\n      swap3\n      swap2\n      swap1\n      dup2\n      dup2\n      mstore\n      0x20\n      add\n      dup3\n      dup1\n      sload\n      tag_57\n      swap1\n      tag_46\n      jump\t// in\n    tag_57:\n      dup1\n      iszero\n      tag_58\n      jumpi\n      dup1\n      0x1f\n      lt\n      tag_59\n      jumpi\n      0x0100\n      dup1\n      dup4\n      sload\n      div\n      mul\n      dup4\n      mstore\n      swap2\n      0x20\n      add\n      swap2\n      jump(tag_58)\n    tag_59:\n      dup3\n      add\n      swap2\n      swap1\n      0x00\n      mstore\n      keccak256(0x00, 0x20)\n      swap1\n    tag_60:\n      dup2\n      sload\n      dup2\n      mstore\n      swap1\n      0x01\n      add\n      swap1\n      0x20\n      add\n      dup1\n      dup4\n      gt\n      tag_60\n      jumpi\n      dup3\n      swap1\n      sub\n      0x1f\n      and\n      dup3\n      add\n      swap2\n    tag_58:\n      pop\n      pop\n      pop\n      pop\n      pop\n      dup2\n      mstore\n      0x20\n      add\n      0x01\n      dup3\n      add\n      dup1\n      sload\n      tag_61\n      swap1\n      tag_46\n      jump\t// in\n    tag_61:\n      dup1\n      0x1f\n      add\n      0x20\n      dup1\n      swap2\n      div\n      mul\n      0x20\n      add\n      mload(0x40)\n      swap1\n      dup2\n      add\n      0x40\n      mstore\n      dup1\n      swap3\n      swap2\n      swap1\n      dup2\n      dup2\n      mstore\n      0x20\n      add\n      dup3\n      dup1\n      sload\n      tag_62\n      swap1\n      tag_46\n      jump\t// in\n    tag_62:\n      dup1\n      iszero\n      tag_63\n      jumpi\n      dup1\n      0x1f\n      lt\n      tag_64\n      jumpi\n      0x0100\n      dup1\n      dup4\n      sload\n      div\n      mul\n      dup4\n      mstore\n      swap2\n      0x20\n      add\n      swap2\n      jump(tag_63)\n    tag_64:\n      dup3\n      add\n      swap2\n      swap1\n      0x00\n      mstore\n      keccak256(0x00, 0x20)\n      swap1\n    tag_65:\n      dup2\n      sload\n      dup2\n      mstore\n      swap1\n      0x01\n      add\n      swap1\n      0x20\n      add\n      dup1\n      dup4\n      gt\n      tag_65\n      jumpi\n      dup3\n      swap1\n      sub\n      0x1f\n      and\n      dup3\n      add\n      swap2\n    tag_63:\n      pop\n      pop\n      pop\n      pop\n      pop\n      dup2\n      mstore\n      0x20\n      add\n      0x02\n      dup3\n      add\n      dup1\n      sload\n      tag_66\n      swap1\n      tag_46\n      jump\t// in\n    tag_66:\n      dup1\n      0x1f\n      add\n      0x20\n      dup1\n      swap2\n      div\n      mul\n      0x20\n      add\n      mload(0x40)\n      swap1\n      dup2\n      add\n      0x40\n      mstore\n      dup1\n      swap3\n      swap2\n      swap1\n      dup2\n      dup2\n      mstore\n      0x20\n      add\n      dup3\n      dup1\n      sload\n      tag_67\n      swap1\n      tag_46\n      jump\t// in\n    tag_67:\n      dup1\n      iszero\n      tag_68\n      jumpi\n      dup1\n      0x1f\n      lt\n      tag_69\n      jumpi\n      0x0100\n      dup1\n      dup4\n      sload\n      div\n      mul\n      dup4\n      mstore\n      swap2\n      0x20\n      add\n      swap2\n      jump(tag_68)\n    tag_69:\n      dup3\n      add\n      swap2\n      swap1\n      0x00\n      mstore\n      keccak256(0x00, 0x20)\n      swap1\n    tag_70:\n      dup2\n      sload\n      dup2\n      mstore\n      swap1\n      0x01\n      add\n      swap1\n      0x20\n      add\n      dup1\n      dup4\n      gt\n      tag_70\n      jumpi\n      dup3\n      swap1\n      sub\n      0x1f\n      and\n      dup3\n      add\n      swap2\n    tag_68:\n      pop\n      pop\n      pop\n      pop\n      pop\n      dup2\n      mstore\n      0x20\n      add\n      0x03\n      dup3\n      add\n      sload\n      dup2\n      mstore\n      0x20\n      add\n      0x04\n      dup3\n      add\n      0x00\n      swap1\n      sload\n      swap1\n      0x0100\n      exp\n      swap1\n      div\n      0xff\n      and\n      0xff\n      and\n      0xff\n      and\n      dup2\n      mstore\n      pop\n      pop\n      swap1\n      dup1\n      0x0b\n      add\n      mload(0x40)\n      dup1\n      0x80\n      add\n      0x40\n      mstore\n      swap1\n      dup2\n      0x00\n      dup3\n      add\n      dup1\n      sload\n      tag_71\n      swap1\n      tag_46\n      jump\t// in\n    tag_71:\n      dup1\n      0x1f\n      add\n      0x20\n      dup1\n      swap2\n      div\n      mul\n      0x20\n      add\n      mload(0x40)\n      swap1\n      dup2\n      add\n      0x40\n      mstore\n      dup1\n      swap3\n      swap2\n      swap1\n      dup2\n      dup2\n      mstore\n      0x20\n      add\n      dup3\n      dup1\n      sload\n      tag_72\n      swap1\n      tag_46\n      jump\t// in\n    tag_72:\n      dup1\n      iszero\n      tag_73\n      jumpi\n      dup1\n      0x1f\n      lt\n      tag_74\n      jumpi\n      0x0100\n      dup1\n      dup4\n      sload\n      div\n      mul\n      dup4\n      mstore\n      swap2\n      0x20\n      add\n      swap2\n      jump(tag_73)\n    tag_74:\n      dup3\n      add\n      swap2\n      swap1\n      0x00\n      mstore\n      keccak256(0x00, 0x20)\n      swap1\n    tag_75:\n      dup2\n      sload\n      dup2\n      mstore\n      swap1\n      0x01\n      add\n      swap1\n      0x20\n      add\n      dup1\n      dup4\n      gt\n      tag_75\n      jumpi\n      dup3\n      swap1\n      sub\n      0x1f\n      and\n      dup3\n      add\n      swap2\n    tag_73:\n      pop\n      pop\n      pop\n      pop\n      pop\n      dup2\n      mstore\n      0x20\n      add\n      0x01\n      dup3\n      add\n      dup1\n      sload\n      tag_76\n      swap1\n      tag_46\n      jump\t// in\n    tag_76:\n      dup1\n      0x1f\n      add\n      0x20\n      dup1\n      swap2\n      div\n      mul\n      0x20\n      add\n      mload(0x40)\n      swap1\n      dup2\n      add\n      0x40\n      mstore\n      dup1\n      swap3\n      swap2\n      swap1\n      dup2\n      dup2\n      mstore\n      0x20\n      add\n      dup3\n      dup1\n      sload\n      tag_77\n      swap1\n      tag_46\n      jump\t// in\n    tag_77:\n      dup1\n      iszero\n      tag_78\n      jumpi\n      dup1\n      0x1f\n      lt\n      tag_79\n      jumpi\n      0x0100\n      dup1\n      dup4\n      sload\n      div\n      mul\n      dup4\n      mstore\n      swap2\n      0x20\n      add\n      swap2\n      jump(tag_78)\n    tag_79:\n      dup3\n      add\n      swap2\n      swap1\n      0x00\n      mstore\n      keccak256(0x00, 0x20)\n      swap1\n    tag_80:\n      dup2\n      sload\n      dup2\n      mstore\n      swap1\n      0x01\n      add\n      swap1\n      0x20\n      add\n      dup1\n      dup4\n      gt\n      tag_80\n      jumpi\n      dup3\n      swap1\n      sub\n      0x1f\n      and\n      dup3\n      add\n      swap2\n    tag_78:\n      pop\n      pop\n      pop\n      pop\n      pop\n      dup2\n      mstore\n      0x20\n      add\n      0x02\n      dup3\n      add\n      sload\n      dup2\n      mstore\n      0x20\n      add\n      0x03\n      dup3\n      add\n      0x00\n      swap1\n      sload\n      swap1\n      0x0100\n      exp\n      swap1\n      div\n      0xff\n      and\n      0xff\n      and\n      0xff\n      and\n      dup2\n      mstore\n      pop\n      pop\n      swap1\n      dup1\n      0x0f\n      add\n      mload(0x40)\n      dup1\n      0xa0\n      add\n      0x40\n      mstore\n      swap1\n      dup2\n      0x00\n      dup3\n      add\n      dup1\n      sload\n      tag_81\n      swap1\n      tag_46\n      jump\t// in\n    tag_81:\n      dup1\n      0x1f\n      add\n      0x20\n      dup1\n      swap2\n      div\n      mul\n      0x20\n      add\n      mload(0x40)\n      swap1\n      dup2\n      add\n      0x40\n      mstore\n      dup1\n      swap3\n      swap2\n      swap1\n      dup2\n      dup2\n      mstore\n      0x20\n      add\n      dup3\n      dup1\n      sload\n      tag_82\n      swap1\n      tag_46\n      jump\t// in\n    tag_82:\n      dup1\n      iszero\n      tag_83\n      jumpi\n      dup1\n      0x1f\n      lt\n      tag_84\n      jumpi\n      0x0100\n      dup1\n      dup4\n      sload\n      div\n      mul\n      dup4\n      mstore\n      swap2\n      0x20\n      add\n      swap2\n      jump(tag_83)\n    tag_84:\n      dup3\n      add\n      swap2\n      swap1\n      0x00\n      mstore\n      keccak256(0x00, 0x20)\n      swap1\n    tag_85:\n      dup2\n      sload\n      dup2\n      mstore\n      swap1\n      0x01\n      add\n      swap1\n      0x20\n      add\n      dup1\n      dup4\n      gt\n      tag_85\n      jumpi\n      dup3\n      swap1\n      sub\n      0x1f\n      and\n      dup3\n      add\n      swap2\n    tag_83:\n      pop\n      pop\n      pop\n      pop\n      pop\n      dup2\n      mstore\n      0x20\n      add\n      0x01\n      dup3\n      add\n      dup1\n      sload\n      tag_86\n      swap1\n      tag_46\n      jump\t// in\n    tag_86:\n      dup1\n      0x1f\n      add\n      0x20\n      dup1\n      swap2\n      div\n      mul\n      0x20\n      add\n      mload(0x40)\n      swap1\n      dup2\n      add\n      0x40\n      mstore\n      dup1\n      swap3\n      swap2\n      swap1\n      dup2\n      dup2\n      mstore\n      0x20\n      add\n      dup3\n      dup1\n      sload\n      tag_87\n      swap1\n      tag_46\n      jump\t// in\n    tag_87:\n      dup1\n      iszero\n      tag_88\n      jumpi\n      dup1\n      0x1f\n      lt\n      tag_89\n      jumpi\n      0x0100\n      dup1\n      dup4\n      sload\n      div\n      mul\n      dup4\n      mstore\n      swap2\n      0x20\n      add\n      swap2\n      jump(tag_88)\n    tag_89:\n      dup3\n      add\n      swap2\n      swap1\n      0x00\n      mstore\n      keccak256(0x00, 0x20)\n      swap1\n    tag_90:\n      dup2\n      sload\n      dup2\n      mstore\n      swap1\n      0x01\n      add\n      swap1\n      0x20\n      add\n      dup1\n      dup4\n      gt\n      tag_90\n      jumpi\n      dup3\n      swap1\n      sub\n      0x1f\n      and\n      dup3\n      add\n      swap2\n    tag_88:\n      pop\n      pop\n      pop\n      pop\n      pop\n      dup2\n      mstore\n      0x20\n      add\n      0x02\n      dup3\n      add\n      dup1\n      sload\n      tag_91\n      swap1\n      tag_46\n      jump\t// in\n    tag_91:\n      dup1\n      0x1f\n      add\n      0x20\n      dup1\n      swap2\n      div\n      mul\n      0x20\n      add\n      mload(0x40)\n      swap1\n      dup2\n      add\n      0x40\n      mstore\n      dup1\n      swap3\n      swap2\n      swap1\n      dup2\n      dup2\n      mstore\n      0x20\n      add\n      dup3\n      dup1\n      sload\n      tag_92\n      swap1\n      tag_46\n      jump\t// in\n    tag_92:\n      dup1\n      iszero\n      tag_93\n      jumpi\n      dup1\n      0x1f\n      lt\n      tag_94\n      jumpi\n      0x0100\n      dup1\n      dup4\n      sload\n      div\n      mul\n      dup4\n      mstore\n      swap2\n      0x20\n      add\n      swap2\n      jump(tag_93)\n    tag_94:\n      dup3\n      add\n      swap2\n      swap1\n      0x00\n      mstore\n      keccak256(0x00, 0x20)\n      swap1\n    tag_95:\n      dup2\n      sload\n      dup2\n      mstore\n      swap1\n      0x01\n      add\n      swap1\n      0x20\n      add\n      dup1\n      dup4\n      gt\n      tag_95\n      jumpi\n      dup3\n      swap1\n      sub\n      0x1f\n      and\n      dup3\n      add\n      swap2\n    tag_93:\n      pop\n      pop\n      pop\n      pop\n      pop\n      dup2\n      mstore\n      0x20\n      add\n      0x03\n      dup3\n      add\n      sload\n      dup2\n      mstore\n      0x20\n      add\n      0x04\n      dup3\n      add\n      dup1\n      sload\n      tag_96\n      swap1\n      tag_46\n      jump\t// in\n    tag_96:\n      dup1\n      0x1f\n      add\n      0x20\n      dup1\n      swap2\n      div\n      mul\n      0x20\n      add\n      mload(0x40)\n      swap1\n      dup2\n      add\n      0x40\n      mstore\n      dup1\n      swap3\n      swap2\n      swap1\n      dup2\n      dup2\n      mstore\n      0x20\n      add\n      dup3\n      dup1\n      sload\n      tag_97\n      swap1\n      tag_46\n      jump\t// in\n    tag_97:\n      dup1\n      iszero\n      tag_98\n      jumpi\n      dup1\n      0x1f\n      lt\n      tag_99\n      jumpi\n      0x0100\n      dup1\n      dup4\n      sload\n      div\n      mul\n      dup4\n      mstore\n      swap2\n      0x20\n      add\n      swap2\n      jump(tag_98)\n    tag_99:\n      dup3\n      add\n      swap2\n      swap1\n      0x00\n      mstore\n      keccak256(0x00, 0x20)\n      swap1\n    tag_100:\n      dup2\n      sload\n      dup2\n      mstore\n      swap1\n      0x01\n      add\n      swap1\n      0x20\n      add\n      dup1\n      dup4\n      gt\n      tag_100\n      jumpi\n      dup3\n      swap1\n      sub\n      0x1f\n      and\n      dup3\n      add\n      swap2\n    tag_98:\n      pop\n      pop\n      pop\n      pop\n      pop\n      dup2\n      mstore\n      pop\n      pop\n      swap1\n      dup1\n      0x14\n      add\n      mload(0x40)\n      dup1\n      0xa0\n      add\n      0x40\n      mstore\n      swap1\n      dup2\n      0x00\n      dup3\n      add\n      dup1\n      sload\n      tag_101\n      swap1\n      tag_46\n      jump\t// in\n    tag_101:\n      dup1\n      0x1f\n      add\n      0x20\n      dup1\n      swap2\n      div\n      mul\n      0x20\n      add\n      mload(0x40)\n      swap1\n      dup2\n      add\n      0x40\n      mstore\n      dup1\n      swap3\n      swap2\n      swap1\n      dup2\n      dup2\n      mstore\n      0x20\n      add\n      dup3\n      dup1\n      sload\n      tag_102\n      swap1\n      tag_46\n      jump\t// in\n    tag_102:\n      dup1\n      iszero\n      tag_103\n      jumpi\n      dup1\n      0x1f\n      lt\n      tag_104\n      jumpi\n      0x0100\n      dup1\n      dup4\n      sload\n      div\n      mul\n      dup4\n      mstore\n      swap2\n      0x20\n      add\n      swap2\n      jump(tag_103)\n    tag_104:\n      dup3\n      add\n      swap2\n      swap1\n      0x00\n      mstore\n      keccak256(0x00, 0x20)\n      swap1\n    tag_105:\n      dup2\n      sload\n      dup2\n      mstore\n      swap1\n      0x01\n      add\n      swap1\n      0x20\n      add\n      dup1\n      dup4\n      gt\n      tag_105\n      jumpi\n      dup3\n      swap1\n      sub\n      0x1f\n      and\n      dup3\n      add\n      swap2\n    tag_103:\n      pop\n      pop\n      pop\n      pop\n      pop\n      dup2\n      mstore\n      0x20\n      add\n      0x01\n      dup3\n      add\n      dup1\n      sload\n      tag_106\n      swap1\n      tag_46\n      jump\t// in\n    tag_106:\n      dup1\n      0x1f\n      add\n      0x20\n      dup1\n      swap2\n      div\n      mul\n      0x20\n      add\n      mload(0x40)\n      swap1\n      dup2\n      add\n      0x40\n      mstore\n      dup1\n      swap3\n      swap2\n      swap1\n      dup2\n      dup2\n      mstore\n      0x20\n      add\n      dup3\n      dup1\n      sload\n      tag_107\n      swap1\n      tag_46\n      jump\t// in\n    tag_107:\n      dup1\n      iszero\n      tag_108\n      jumpi\n      dup1\n      0x1f\n      lt\n      tag_109\n      jumpi\n      0x0100\n      dup1\n      dup4\n      sload\n      div\n      mul\n      dup4\n      mstore\n      swap2\n      0x20\n      add\n      swap2\n      jump(tag_108)\n    tag_109:\n      dup3\n      add\n      swap2\n      swap1\n      0x00\n      mstore\n      keccak256(0x00, 0x20)\n      swap1\n    tag_110:\n      dup2\n      sload\n      dup2\n      mstore\n      swap1\n      0x01\n      add\n      swap1\n      0x20\n      add\n      dup1\n      dup4\n      gt\n      tag_110\n      jumpi\n      dup3\n      swap1\n      sub\n      0x1f\n      and\n      dup3\n      add\n      swap2\n    tag_108:\n      pop\n      pop\n      pop\n      pop\n      pop\n      dup2\n      mstore\n      0x20\n      add\n      0x02\n      dup3\n      add\n      dup1\n      sload\n      tag_111\n      swap1\n      tag_46\n      jump\t// in\n    tag_111:\n      dup1\n      0x1f\n      add\n      0x20\n      dup1\n      swap2\n      div\n      mul\n      0x20\n      add\n      mload(0x40)\n      swap1\n      dup2\n      add\n      0x40\n      mstore\n      dup1\n      swap3\n      swap2\n      swap1\n      dup2\n      dup2\n      mstore\n      0x20\n      add\n      dup3\n      dup1\n      sload\n      tag_112\n      swap1\n      tag_46\n      jump\t// in\n    tag_112:\n      dup1\n      iszero\n      tag_113\n      jumpi\n      dup1\n      0x1f\n      lt\n      tag_114\n      jumpi\n      0x0100\n      dup1\n      dup4\n      sload\n      div\n      mul\n      dup4\n      mstore\n      swap2\n      0x20\n      add\n      swap2\n      jump(tag_113)\n    tag_114:\n      dup3\n      add\n      swap2\n      swap1\n      0x00\n      mstore\n      keccak256(0x00, 0x20)\n      swap1\n    tag_115:\n      dup2\n      sload\n      dup2\n      mstore\n      swap1\n      0x01\n      add\n      swap1\n      0x20\n      add\n      dup1\n      dup4\n      gt\n      tag_115\n      jumpi\n      dup3\n      swap1\n      sub\n      0x1f\n      and\n      dup3\n      add\n      swap2\n    tag_113:\n      pop\n      pop\n      pop\n      pop\n      pop\n      dup2\n      mstore\n      0x20\n      add\n      0x03\n      dup3\n      add\n      sload\n      dup2\n      mstore\n      0x20\n      add\n      0x04\n      dup3\n      add\n      0x00\n      swap1\n      sload\n      swap1\n      0x0100\n      exp\n      swap1\n      div\n      0xff\n      and\n      0xff\n      and\n      0xff\n      and\n      dup2\n      mstore\n      pop\n      pop\n      swap1\n      dup1\n      0x19\n      add\n      mload(0x40)\n      dup1\n      0x80\n      add\n      0x40\n      mstore\n      swap1\n      dup2\n      0x00\n      dup3\n      add\n      dup1\n      sload\n      tag_116\n      swap1\n      tag_46\n      jump\t// in\n    tag_116:\n      dup1\n      0x1f\n      add\n      0x20\n      dup1\n      swap2\n      div\n      mul\n      0x20\n      add\n      mload(0x40)\n      swap1\n      dup2\n      add\n      0x40\n      mstore\n      dup1\n      swap3\n      swap2\n      swap1\n      dup2\n      dup2\n      mstore\n      0x20\n      add\n      dup3\n      dup1\n      sload\n      tag_117\n      swap1\n      tag_46\n      jump\t// in\n    tag_117:\n      dup1\n      iszero\n      tag_118\n      jumpi\n      dup1\n      0x1f\n      lt\n      tag_119\n      jumpi\n      0x0100\n      dup1\n      dup4\n      sload\n      div\n      mul\n      dup4\n      mstore\n      swap2\n      0x20\n      add\n      swap2\n      jump(tag_118)\n    tag_119:\n      dup3\n      add\n      swap2\n      swap1\n      0x00\n      mstore\n      keccak256(0x00, 0x20)\n      swap1\n    tag_120:\n      dup2\n      sload\n      dup2\n      mstore\n      swap1\n      0x01\n      add\n      swap1\n      0x20\n      add\n      dup1\n      dup4\n      gt\n      tag_120\n      jumpi\n      dup3\n      swap1\n      sub\n      0x1f\n      and\n      dup3\n      add\n      swap2\n    tag_118:\n      pop\n      pop\n      pop\n      pop\n      pop\n      dup2\n      mstore\n      0x20\n      add\n      0x01\n      dup3\n      add\n      dup1\n      sload\n      tag_121\n      swap1\n      tag_46\n      jump\t// in\n    tag_121:\n      dup1\n      0x1f\n      add\n      0x20\n      dup1\n      swap2\n      div\n      mul\n      0x20\n      add\n      mload(0x40)\n      swap1\n      dup2\n      add\n      0x40\n      mstore\n      dup1\n      swap3\n      swap2\n      swap1\n      dup2\n      dup2\n      mstore\n      0x20\n      add\n      dup3\n      dup1\n      sload\n      tag_122\n      swap1\n      tag_46\n      jump\t// in\n    tag_122:\n      dup1\n      iszero\n      tag_123\n      jumpi\n      dup1\n      0x1f\n      lt\n      tag_124\n      jumpi\n      0x0100\n      dup1\n      dup4\n      sload\n      div\n      mul\n      dup4\n      mstore\n      swap2\n      0x20\n      add\n      swap2\n      jump(tag_123)\n    tag_124:\n      dup3\n      add\n      swap2\n      swap1\n      0x00\n      mstore\n      keccak256(0x00, 0x20)\n      swap1\n    tag_125:\n      dup2\n      sload\n      dup2\n      mstore\n      swap1\n      0x01\n      add\n      swap1\n      0x20\n      add\n      dup1\n      dup4\n      gt\n      tag_125\n      jumpi\n      dup3\n      swap1\n      sub\n      0x1f\n      and\n      dup3\n      add\n      swap2\n    tag_123:\n      pop\n      pop\n      pop\n      pop\n      pop\n      dup2\n      mstore\n      0x20\n      add\n      0x02\n      dup3\n      add\n      sload\n      dup2\n      mstore\n      0x20\n      add\n      0x03\n      dup3\n      add\n      0x00\n      swap1\n      sload\n      swap1\n      0x0100\n      exp\n      swap1\n      div\n      0xff\n      and\n      0xff\n      and\n      0xff\n      and\n      dup2\n      mstore\n      pop\n      pop\n      swap1\n      pop\n      dup9\n      jump\t// out\n        /* \"ticket_booking_contract/ticket_booking.sol\":8224:8353  function getBooking(uint256 _bookingID) public view returns (BookingStruct memory) {... */\n    tag_20:\n        /* \"ticket_booking_contract/ticket_booking.sol\":8285:8305  BookingStruct memory */\n      tag_126\n      tag_127\n      jump\t// in\n    tag_126:\n        /* \"ticket_booking_contract/ticket_booking.sol\":8325:8333  bookings */\n      0x01\n        /* \"ticket_booking_contract/ticket_booking.sol\":8325:8345  bookings[_bookingID] */\n      0x00\n        /* \"ticket_booking_contract/ticket_booking.sol\":8334:8344  _bookingID */\n      dup4\n        /* \"ticket_booking_contract/ticket_booking.sol\":8325:8345  bookings[_bookingID] */\n      dup2\n      mstore\n      0x20\n      add\n      swap1\n      dup2\n      mstore\n      0x20\n      add\n      0x00\n      keccak256\n        /* \"ticket_booking_contract/ticket_booking.sol\":8318:8345  return bookings[_bookingID] */\n      mload(0x40)\n      dup1\n      0x0100\n      add\n      0x40\n      mstore\n      swap1\n      dup2\n      0x00\n      dup3\n      add\n      sload\n      dup2\n      mstore\n      0x20\n      add\n      0x01\n      dup3\n      add\n      0x00\n      swap1\n      sload\n      swap1\n      0x0100\n      exp\n      swap1\n      div\n      0xff\n      and\n      0x04\n      dup2\n      gt\n      iszero\n      tag_129\n      jumpi\n      tag_130\n      tag_131\n      jump\t// in\n    tag_130:\n    tag_129:\n      0x04\n      dup2\n      gt\n      iszero\n      tag_132\n      jumpi\n      tag_133\n      tag_131\n      jump\t// in\n    tag_133:\n    tag_132:\n      dup2\n      mstore\n      0x20\n      add\n      0x02\n      dup3\n      add\n      mload(0x40)\n      dup1\n      0x80\n      add\n      0x40\n      mstore\n      swap1\n      dup2\n      0x00\n      dup3\n      add\n      sload\n      dup2\n      mstore\n      0x20\n      add\n      0x01\n      dup3\n      add\n      dup1\n      sload\n      tag_134\n      swap1\n      tag_46\n      jump\t// in\n    tag_134:\n      dup1\n      0x1f\n      add\n      0x20\n      dup1\n      swap2\n      div\n      mul\n      0x20\n      add\n      mload(0x40)\n      swap1\n      dup2\n      add\n      0x40\n      mstore\n      dup1\n      swap3\n      swap2\n      swap1\n      dup2\n      dup2\n      mstore\n      0x20\n      add\n      dup3\n      dup1\n      sload\n      tag_135\n      swap1\n      tag_46\n      jump\t// in\n    tag_135:\n      dup1\n      iszero\n      tag_136\n      jumpi\n      dup1\n      0x1f\n      lt\n      tag_137\n      jumpi\n      0x0100\n      dup1\n      dup4\n      sload\n      div\n      mul\n      dup4\n      mstore\n      swap2\n      0x20\n      add\n      swap2\n      jump(tag_136)\n    tag_137:\n      dup3\n      add\n      swap2\n      swap1\n      0x00\n      mstore\n      keccak256(0x00, 0x20)\n      swap1\n    tag_138:\n      dup2\n      sload\n      dup2\n      mstore\n      swap1\n      0x01\n      add\n      swap1\n      0x20\n      add\n      dup1\n      dup4\n      gt\n      tag_138\n      jumpi\n      dup3\n      swap1\n      sub\n      0x1f\n      and\n      dup3\n      add\n      swap2\n    tag_136:\n      pop\n      pop\n      pop\n      pop\n      pop\n      dup2\n      mstore\n      0x20\n      add\n      0x02\n      dup3\n      add\n      0x00\n      swap1\n      sload\n      swap1\n      0x0100\n      exp\n      swap1\n      div\n      0xff\n      and\n      0xff\n      and\n      0xff\n      and\n      dup2\n      mstore\n      0x20\n      add\n      0x03\n      dup3\n      add\n      dup1\n      sload\n      tag_139\n      swap1\n      tag_46\n      jump\t// in\n    tag_139:\n      dup1\n      0x1f\n      add\n      0x20\n      dup1\n      swap2\n      div\n      mul\n      0x20\n      add\n      mload(0x40)\n      swap1\n      dup2\n      add\n      0x40\n      mstore\n      dup1\n      swap3\n      swap2\n      swap1\n      dup2\n      dup2\n      mstore\n      0x20\n      add\n      dup3\n      dup1\n      sload\n      tag_140\n      swap1\n      tag_46\n      jump\t// in\n    tag_140:\n      dup1\n      iszero\n      tag_141\n      jumpi\n      dup1\n      0x1f\n      lt\n      tag_142\n      jumpi\n      0x0100\n      dup1\n      dup4\n      sload\n      div\n      mul\n      dup4\n      mstore\n      swap2\n      0x20\n      add\n      swap2\n      jump(tag_141)\n    tag_142:\n      dup3\n      add\n      swap2\n      swap1\n      0x00\n      mstore\n      keccak256(0x00, 0x20)\n      swap1\n    tag_143:\n      dup2\n      sload\n      dup2\n      mstore\n      swap1\n      0x01\n      add\n      swap1\n      0x20\n      add\n      dup1\n      dup4\n      gt\n      tag_143\n      jumpi\n      dup3\n      swap1\n      sub\n      0x1f\n      and\n      dup3\n      add\n      swap2\n    tag_141:\n      pop\n      pop\n      pop\n      pop\n      pop\n      dup2\n      mstore\n      pop\n      pop\n      dup2\n      mstore\n      0x20\n      add\n      0x06\n      dup3\n      add\n      mload(0x40)\n      dup1\n      0xa0\n      add\n      0x40\n      mstore\n      swap1\n      dup2\n      0x00\n      dup3\n      add\n      dup1\n      sload\n      tag_144\n      swap1\n      tag_46\n      jump\t// in\n    tag_144:\n      dup1\n      0x1f\n      add\n      0x20\n      dup1\n      swap2\n      div\n      mul\n      0x20\n      add\n      mload(0x40)\n      swap1\n      dup2\n      add\n      0x40\n      mstore\n      dup1\n      swap3\n      swap2\n      swap1\n      dup2\n      dup2\n      mstore\n      0x20\n      add\n      dup3\n      dup1\n      sload\n      tag_145\n      swap1\n      tag_46\n      jump\t// in\n    tag_145:\n      dup1\n      iszero\n      tag_146\n      jumpi\n      dup1\n      0x1f\n      lt\n      tag_147\n      jumpi\n      0x0100\n      dup1\n      dup4\n      sload\n      div\n      mul\n      dup4\n      mstore\n      swap2\n      0x20\n      add\n      swap2\n      jump(tag_146)\n    tag_147:\n      dup3\n      add\n      swap2\n      swap1\n      0x00\n      mstore\n      keccak256(0x00, 0x20)\n      swap1\n    tag_148:\n      dup2\n      sload\n      dup2\n      mstore\n      swap1\n      0x01\n      add\n      swap1\n      0x20\n      add\n      dup1\n      dup4\n      gt\n      tag_148\n      jumpi\n      dup3\n      swap1\n      sub\n      0x1f\n      and\n      dup3\n      add\n      swap2\n    tag_146:\n      pop\n      pop\n      pop\n      pop\n      pop\n      dup2\n      mstore\n      0x20\n      add\n      0x01\n      dup3\n      add\n      dup1\n      sload\n      tag_149\n      swap1\n      tag_46\n      jump\t// in\n    tag_149:\n      dup1\n      0x1f\n      add\n      0x20\n      dup1\n      swap2\n      div\n      mul\n      0x20\n      add\n      mload(0x40)\n      swap1\n      dup2\n      add\n      0x40\n      mstore\n      dup1\n      swap3\n      swap2\n      swap1\n      dup2\n      dup2\n      mstore\n      0x20\n      add\n      dup3\n      dup1\n      sload\n      tag_150\n      swap1\n      tag_46\n      jump\t// in\n    tag_150:\n      dup1\n      iszero\n      tag_151\n      jumpi\n      dup1\n      0x1f\n      lt\n      tag_152\n      jumpi\n      0x0100\n      dup1\n      dup4\n      sload\n      div\n      mul\n      dup4\n      mstore\n      swap2\n      0x20\n      add\n      swap2\n      jump(tag_151)\n    tag_152:\n      dup3\n      add\n      swap2\n      swap1\n      0x00\n      mstore\n      keccak256(0x00, 0x20)\n      swap1\n    tag_153:\n      dup2\n      sload\n      dup2\n      mstore\n      swap1\n      0x01\n      add\n      swap1\n      0x20\n      add\n      dup1\n      dup4\n      gt\n      tag_153\n      jumpi\n      dup3\n      swap1\n      sub\n      0x1f\n      and\n      dup3\n      add\n      swap2\n    tag_151:\n      pop\n      pop\n      pop\n      pop\n      pop\n      dup2\n      mstore\n      0x20\n      add\n      0x02\n      dup3\n      add\n      dup1\n      sload\n      tag_154\n      swap1\n      tag_46\n      jump\t// in\n    tag_154:\n      dup1\n      0x1f\n      add\n      0x20\n      dup1\n      swap2\n      div\n      mul\n      0x20\n      add\n      mload(0x40)\n      swap1\n      dup2\n      add\n      0x40\n      mstore\n      dup1\n      swap3\n      swap2\n      swap1\n      dup2\n      dup2\n      mstore\n      0x20\n      add\n      dup3\n      dup1\n      sload\n      tag_155\n      swap1\n      tag_46\n      jump\t// in\n    tag_155:\n      dup1\n      iszero\n      tag_156\n      jumpi\n      dup1\n      0x1f\n      lt\n      tag_157\n      jumpi\n      0x0100\n      dup1\n      dup4\n      sload\n      div\n      mul\n      dup4\n      mstore\n      swap2\n      0x20\n      add\n      swap2\n      jump(tag_156)\n    tag_157:\n      dup3\n      add\n      swap2\n      swap1\n      0x00\n      mstore\n      keccak256(0x00, 0x20)\n      swap1\n    tag_158:\n      dup2\n      sload\n      dup2\n      mstore\n      swap1\n      0x01\n      add\n      swap1\n      0x20\n      add\n      dup1\n      dup4\n      gt\n      tag_158\n      jumpi\n      dup3\n      swap1\n      sub\n      0x1f\n      and\n      dup3\n      add\n      swap2\n    tag_156:\n      pop\n      pop\n      pop\n      pop\n      pop\n      dup2\n      mstore\n      0x20\n      add\n      0x03\n      dup3\n      add\n      sload\n      dup2\n      mstore\n      0x20\n      add\n      0x04\n      dup3\n      add\n      0x00\n      swap1\n      sload\n      swap1\n      0x0100\n      exp\n      swap1\n      div\n      0xff\n      and\n      0xff\n      and\n      0xff\n      and\n      dup2\n      mstore\n      pop\n      pop\n      dup2\n      mstore\n      0x20\n      add\n      0x0b\n      dup3\n      add\n      mload(0x40)\n      dup1\n      0x80\n      add\n      0x40\n      mstore\n      swap1\n      dup2\n      0x00\n      dup3\n      add\n      dup1\n      sload\n      tag_159\n      swap1\n      tag_46\n      jump\t// in\n    tag_159:\n      dup1\n      0x1f\n      add\n      0x20\n      dup1\n      swap2\n      div\n      mul\n      0x20\n      add\n      mload(0x40)\n      swap1\n      dup2\n      add\n      0x40\n      mstore\n      dup1\n      swap3\n      swap2\n      swap1\n      dup2\n      dup2\n      mstore\n      0x20\n      add\n      dup3\n      dup1\n      sload\n      tag_160\n      swap1\n      tag_46\n      jump\t// in\n    tag_160:\n      dup1\n      iszero\n      tag_161\n      jumpi\n      dup1\n      0x1f\n      lt\n      tag_162\n      jumpi\n      0x0100\n      dup1\n      dup4\n      sload\n      div\n      mul\n      dup4\n      mstore\n      swap2\n      0x20\n      add\n      swap2\n      jump(tag_161)\n    tag_162:\n      dup3\n      add\n      swap2\n      swap1\n      0x00\n      mstore\n      keccak256(0x00, 0x20)\n      swap1\n    tag_163:\n      dup2\n      sload\n      dup2\n      mstore\n      swap1\n      0x01\n      add\n      swap1\n      0x20\n      add\n      dup1\n      dup4\n      gt\n      tag_163\n      jumpi\n      dup3\n      swap1\n      sub\n      0x1f\n      and\n      dup3\n      add\n      swap2\n    tag_161:\n      pop\n      pop\n      pop\n      pop\n      pop\n      dup2\n      mstore\n      0x20\n      add\n      0x01\n      dup3\n      add\n      dup1\n      sload\n      tag_164\n      swap1\n      tag_46\n      jump\t// in\n    tag_164:\n      dup1\n      0x1f\n      add\n      0x20\n      dup1\n      swap2\n      div\n      mul\n      0x20\n      add\n      mload(0x40)\n      swap1\n      dup2\n      add\n      0x40\n      mstore\n      dup1\n      swap3\n      swap2\n      swap1\n      dup2\n      dup2\n      mstore\n      0x20\n      add\n      dup3\n      dup1\n      sload\n      tag_165\n      swap1\n      tag_46\n      jump\t// in\n    tag_165:\n      dup1\n      iszero\n      tag_166\n      jumpi\n      dup1\n      0x1f\n      lt\n      tag_167\n      jumpi\n      0x0100\n      dup1\n      dup4\n      sload\n      div\n      mul\n      dup4\n      mstore\n      swap2\n      0x20\n      add\n      swap2\n      jump(tag_166)\n    tag_167:\n      dup3\n      add\n      swap2\n      swap1\n      0x00\n      mstore\n      keccak256(0x00, 0x20)\n      swap1\n    tag_168:\n      dup2\n      sload\n      dup2\n      mstore\n      swap1\n      0x01\n      add\n      swap1\n      0x20\n      add\n      dup1\n      dup4\n      gt\n      tag_168\n      jumpi\n      dup3\n      swap1\n      sub\n      0x1f\n      and\n      dup3\n      add\n      swap2\n    tag_166:\n      pop\n      pop\n      pop\n      pop\n      pop\n      dup2\n      mstore\n      0x20\n      add\n      0x02\n      dup3\n      add\n      sload\n      dup2\n      mstore\n      0x20\n      add\n      0x03\n      dup3\n      add\n      0x00\n      swap1\n      sload\n      swap1\n      0x0100\n      exp\n      swap1\n      div\n      0xff\n      and\n      0xff\n      and\n      0xff\n      and\n      dup2\n      mstore\n      pop\n      pop\n      dup2\n      mstore\n      0x20\n      add\n      0x0f\n      dup3\n      add\n      mload(0x40)\n      dup1\n      0xa0\n      add\n      0x40\n      mstore\n      swap1\n      dup2\n      0x00\n      dup3\n      add\n      dup1\n      sload\n      tag_169\n      swap1\n      tag_46\n      jump\t// in\n    tag_169:\n      dup1\n      0x1f\n      add\n      0x20\n      dup1\n      swap2\n      div\n      mul\n      0x20\n      add\n      mload(0x40)\n      swap1\n      dup2\n      add\n      0x40\n      mstore\n      dup1\n      swap3\n      swap2\n      swap1\n      dup2\n      dup2\n      mstore\n      0x20\n      add\n      dup3\n      dup1\n      sload\n      tag_170\n      swap1\n      tag_46\n      jump\t// in\n    tag_170:\n      dup1\n      iszero\n      tag_171\n      jumpi\n      dup1\n      0x1f\n      lt\n      tag_172\n      jumpi\n      0x0100\n      dup1\n      dup4\n      sload\n      div\n      mul\n      dup4\n      mstore\n      swap2\n      0x20\n      add\n      swap2\n      jump(tag_171)\n    tag_172:\n      dup3\n      add\n      swap2\n      swap1\n      0x00\n      mstore\n      keccak256(0x00, 0x20)\n      swap1\n    tag_173:\n      dup2\n      sload\n      dup2\n      mstore\n      swap1\n      0x01\n      add\n      swap1\n      0x20\n      add\n      dup1\n      dup4\n      gt\n      tag_173\n      jumpi\n      dup3\n      swap1\n      sub\n      0x1f\n      and\n      dup3\n      add\n      swap2\n    tag_171:\n      pop\n      pop\n      pop\n      pop\n      pop\n      dup2\n      mstore\n      0x20\n      add\n      0x01\n      dup3\n      add\n      dup1\n      sload\n      tag_174\n      swap1\n      tag_46\n      jump\t// in\n    tag_174:\n      dup1\n      0x1f\n      add\n      0x20\n      dup1\n      swap2\n      div\n      mul\n      0x20\n      add\n      mload(0x40)\n      swap1\n      dup2\n      add\n      0x40\n      mstore\n      dup1\n      swap3\n      swap2\n      swap1\n      dup2\n      dup2\n      mstore\n      0x20\n      add\n      dup3\n      dup1\n      sload\n      tag_175\n      swap1\n      tag_46\n      jump\t// in\n    tag_175:\n      dup1\n      iszero\n      tag_176\n      jumpi\n      dup1\n      0x1f\n      lt\n      tag_177\n      jumpi\n      0x0100\n      dup1\n      dup4\n      sload\n      div\n      mul\n      dup4\n      mstore\n      swap2\n      0x20\n      add\n      swap2\n      jump(tag_176)\n    tag_177:\n      dup3\n      add\n      swap2\n      swap1\n      0x00\n      mstore\n      keccak256(0x00, 0x20)\n      swap1\n    tag_178:\n      dup2\n      sload\n      dup2\n      mstore\n      swap1\n      0x01\n      add\n      swap1\n      0x20\n      add\n      dup1\n      dup4\n      gt\n      tag_178\n      jumpi\n      dup3\n      swap1\n      sub\n      0x1f\n      and\n      dup3\n      add\n      swap2\n    tag_176:\n      pop\n      pop\n      pop\n      pop\n      pop\n      dup2\n      mstore\n      0x20\n      add\n      0x02\n      dup3\n      add\n      dup1\n      sload\n      tag_179\n      swap1\n      tag_46\n      jump\t// in\n    tag_179:\n      dup1\n      0x1f\n      add\n      0x20\n      dup1\n      swap2\n      div\n      mul\n      0x20\n      add\n      mload(0x40)\n      swap1\n      dup2\n      add\n      0x40\n      mstore\n      dup1\n      swap3\n      swap2\n      swap1\n      dup2\n      dup2\n      mstore\n      0x20\n      add\n      dup3\n      dup1\n      sload\n      tag_180\n      swap1\n      tag_46\n      jump\t// in\n    tag_180:\n      dup1\n      iszero\n      tag_181\n      jumpi\n      dup1\n      0x1f\n      lt\n      tag_182\n      jumpi\n      0x0100\n      dup1\n      dup4\n      sload\n      div\n      mul\n      dup4\n      mstore\n      swap2\n      0x20\n      add\n      swap2\n      jump(tag_181)\n    tag_182:\n      dup3\n      add\n      swap2\n      swap1\n      0x00\n      mstore\n      keccak256(0x00, 0x20)\n      swap1\n    tag_183:\n      dup2\n      sload\n      dup2\n      mstore\n      swap1\n      0x01\n      add\n      swap1\n      0x20\n      add\n      dup1\n      dup4\n      gt\n      tag_183\n      jumpi\n      dup3\n      swap1\n      sub\n      0x1f\n      and\n      dup3\n      add\n      swap2\n    tag_181:\n      pop\n      pop\n      pop\n      pop\n      pop\n      dup2\n      mstore\n      0x20\n      add\n      0x03\n      dup3\n      add\n      sload\n      dup2\n      mstore\n      0x20\n      add\n      0x04\n      dup3\n      add\n      dup1\n      sload\n      tag_184\n      swap1\n      tag_46\n      jump\t// in\n    tag_184:\n      dup1\n      0x1f\n      add\n      0x20\n      dup1\n      swap2\n      div\n      mul\n      0x20\n      add\n      mload(0x40)\n      swap1\n      dup2\n      add\n      0x40\n      mstore\n      dup1\n      swap3\n      swap2\n      swap1\n      dup2\n      dup2\n      mstore\n      0x20\n      add\n      dup3\n      dup1\n      sload\n      tag_185\n      swap1\n      tag_46\n      jump\t// in\n    tag_185:\n      dup1\n      iszero\n      tag_186\n      jumpi\n      dup1\n      0x1f\n      lt\n      tag_187\n      jumpi\n      0x0100\n      dup1\n      dup4\n      sload\n      div\n      mul\n      dup4\n      mstore\n      swap2\n      0x20\n      add\n      swap2\n      jump(tag_186)\n    tag_187:\n      dup3\n      add\n      swap2\n      swap1\n      0x00\n      mstore\n      keccak256(0x00, 0x20)\n      swap1\n    tag_188:\n      dup2\n      sload\n      dup2\n      mstore\n      swap1\n      0x01\n      add\n      swap1\n      0x20\n      add\n      dup1\n      dup4\n      gt\n      tag_188\n      jumpi\n      dup3\n      swap1\n      sub\n      0x1f\n      and\n      dup3\n      add\n      swap2\n    tag_186:\n      pop\n      pop\n      pop\n      pop\n      pop\n      dup2\n      mstore\n      pop\n      pop\n      dup2\n      mstore\n      0x20\n      add\n      0x14\n      dup3\n      add\n      mload(0x40)\n      dup1\n      0xa0\n      add\n      0x40\n      mstore\n      swap1\n      dup2\n      0x00\n      dup3\n      add\n      dup1\n      sload\n      tag_189\n      swap1\n      tag_46\n      jump\t// in\n    tag_189:\n      dup1\n      0x1f\n      add\n      0x20\n      dup1\n      swap2\n      div\n      mul\n      0x20\n      add\n      mload(0x40)\n      swap1\n      dup2\n      add\n      0x40\n      mstore\n      dup1\n      swap3\n      swap2\n      swap1\n      dup2\n      dup2\n      mstore\n      0x20\n      add\n      dup3\n      dup1\n      sload\n      tag_190\n      swap1\n      tag_46\n      jump\t// in\n    tag_190:\n      dup1\n      iszero\n      tag_191\n      jumpi\n      dup1\n      0x1f\n      lt\n      tag_192\n      jumpi\n      0x0100\n      dup1\n      dup4\n      sload\n      div\n      mul\n      dup4\n      mstore\n      swap2\n      0x20\n      add\n      swap2\n      jump(tag_191)\n    tag_192:\n      dup3\n      add\n      swap2\n      swap1\n      0x00\n      mstore\n      keccak256(0x00, 0x20)\n      swap1\n    tag_193:\n      dup2\n      sload\n      dup2\n      mstore\n      swap1\n      0x01\n      add\n      swap1\n      0x20\n      add\n      dup1\n      dup4\n      gt\n      tag_193\n      jumpi\n      dup3\n      swap1\n      sub\n      0x1f\n      and\n      dup3\n      add\n      swap2\n    tag_191:\n      pop\n      pop\n      pop\n      pop\n      pop\n      dup2\n      mstore\n      0x20\n      add\n      0x01\n      dup3\n      add\n      dup1\n      sload\n      tag_194\n      swap1\n      tag_46\n      jump\t// in\n    tag_194:\n      dup1\n      0x1f\n      add\n      0x20\n      dup1\n      swap2\n      div\n      mul\n      0x20\n      add\n      mload(0x40)\n      swap1\n      dup2\n      add\n      0x40\n      mstore\n      dup1\n      swap3\n      swap2\n      swap1\n      dup2\n      dup2\n      mstore\n      0x20\n      add\n      dup3\n      dup1\n      sload\n      tag_195\n      swap1\n      tag_46\n      jump\t// in\n    tag_195:\n      dup1\n      iszero\n      tag_196\n      jumpi\n      dup1\n      0x1f\n      lt\n      tag_197\n      jumpi\n      0x0100\n      dup1\n      dup4\n      sload\n      div\n      mul\n      dup4\n      mstore\n      swap2\n      0x20\n      add\n      swap2\n      jump(tag_196)\n    tag_197:\n      dup3\n      add\n      swap2\n      swap1\n      0x00\n      mstore\n      keccak256(0x00, 0x20)\n      swap1\n    tag_198:\n      dup2\n      sload\n      dup2\n      mstore\n      swap1\n      0x01\n      add\n      swap1\n      0x20\n      add\n      dup1\n      dup4\n      gt\n      tag_198\n      jumpi\n      dup3\n      swap1\n      sub\n      0x1f\n      and\n      dup3\n      add\n      swap2\n    tag_196:\n      pop\n      pop\n      pop\n      pop\n      pop\n      dup2\n      mstore\n      0x20\n      add\n      0x02\n      dup3\n      add\n      dup1\n      sload\n      tag_199\n      swap1\n      tag_46\n      jump\t// in\n    tag_199:\n      dup1\n      0x1f\n      add\n      0x20\n      dup1\n      swap2\n      div\n      mul\n      0x20\n      add\n      mload(0x40)\n      swap1\n      dup2\n      add\n      0x40\n      mstore\n      dup1\n      swap3\n      swap2\n      swap1\n      dup2\n      dup2\n      mstore\n      0x20\n      add\n      dup3\n      dup1\n      sload\n      tag_200\n      swap1\n      tag_46\n      jump\t// in\n    tag_200:\n      dup1\n      iszero\n      tag_201\n      jumpi\n      dup1\n      0x1f\n      lt\n      tag_202\n      jumpi\n      0x0100\n      dup1\n      dup4\n      sload\n      div\n      mul\n      dup4\n      mstore\n      swap2\n      0x20\n      add\n      swap2\n      jump(tag_201)\n    tag_202:\n      dup3\n      add\n      swap2\n      swap1\n      0x00\n      mstore\n      keccak256(0x00, 0x20)\n      swap1\n    tag_203:\n      dup2\n      sload\n      dup2\n      mstore\n      swap1\n      0x01\n      add\n      swap1\n      0x20\n      add\n      dup1\n      dup4\n      gt\n      tag_203\n      jumpi\n      dup3\n      swap1\n      sub\n      0x1f\n      and\n      dup3\n      add\n      swap2\n    tag_201:\n      pop\n      pop\n      pop\n      pop\n      pop\n      dup2\n      mstore\n      0x20\n      add\n      0x03\n      dup3\n      add\n      sload\n      dup2\n      mstore\n      0x20\n      add\n      0x04\n      dup3\n      add\n      0x00\n      swap1\n      sload\n      swap1\n      0x0100\n      exp\n      swap1\n      div\n      0xff\n      and\n      0xff\n      and\n      0xff\n      and\n      dup2\n      mstore\n      pop\n      pop\n      dup2\n      mstore\n      0x20\n      add\n      0x19\n      dup3\n      add\n      mload(0x40)\n      dup1\n      0x80\n      add\n      0x40\n      mstore\n      swap1\n      dup2\n      0x00\n      dup3\n      add\n      dup1\n      sload\n      tag_204\n      swap1\n      tag_46\n      jump\t// in\n    tag_204:\n      dup1\n      0x1f\n      add\n      0x20\n      dup1\n      swap2\n      div\n      mul\n      0x20\n      add\n      mload(0x40)\n      swap1\n      dup2\n      add\n      0x40\n      mstore\n      dup1\n      swap3\n      swap2\n      swap1\n      dup2\n      dup2\n      mstore\n      0x20\n      add\n      dup3\n      dup1\n      sload\n      tag_205\n      swap1\n      tag_46\n      jump\t// in\n    tag_205:\n      dup1\n      iszero\n      tag_206\n      jumpi\n      dup1\n      0x1f\n      lt\n      tag_207\n      jumpi\n      0x0100\n      dup1\n      dup4\n      sload\n      div\n      mul\n      dup4\n      mstore\n      swap2\n      0x20\n      add\n      swap2\n      jump(tag_206)\n    tag_207:\n      dup3\n      add\n      swap2\n      swap1\n      0x00\n      mstore\n      keccak256(0x00, 0x20)\n      swap1\n    tag_208:\n      dup2\n      sload\n      dup2\n      mstore\n      swap1\n      0x01\n      add\n      swap1\n      0x20\n      add\n      dup1\n      dup4\n      gt\n      tag_208\n      jumpi\n      dup3\n      swap1\n      sub\n      0x1f\n      and\n      dup3\n      add\n      swap2\n    tag_206:\n      pop\n      pop\n      pop\n      pop\n      pop\n      dup2\n      mstore\n      0x20\n      add\n      0x01\n      dup3\n      add\n      dup1\n      sload\n      tag_209\n      swap1\n      tag_46\n      jump\t// in\n    tag_209:\n      dup1\n      0x1f\n      add\n      0x20\n      dup1\n      swap2\n      div\n      mul\n      0x20\n      add\n      mload(0x40)\n      swap1\n      dup2\n      add\n      0x40\n      mstore\n      dup1\n      swap3\n      swap2\n      swap1\n      dup2\n      dup2\n      mstore\n      0x20\n      add\n      dup3\n      dup1\n      sload\n      tag_210\n      swap1\n      tag_46\n      jump\t// in\n    tag_210:\n      dup1\n      iszero\n      tag_211\n      jumpi\n      dup1\n      0x1f\n      lt\n      tag_212\n      jumpi\n      0x0100\n      dup1\n      dup4\n      sload\n      div\n      mul\n      dup4\n      mstore\n      swap2\n      0x20\n      add\n      swap2\n      jump(tag_211)\n    tag_212:\n      dup3\n      add\n      swap2\n      swap1\n      0x00\n      mstore\n      keccak256(0x00, 0x20)\n      swap1\n    tag_213:\n      dup2\n      sload\n      dup2\n      mstore\n      swap1\n      0x01\n      add\n      swap1\n      0x20\n      add\n      dup1\n      dup4\n      gt\n      tag_213\n      jumpi\n      dup3\n      swap1\n      sub\n      0x1f\n      and\n      dup3\n      add\n      swap2\n    tag_211:\n      pop\n      pop\n      pop\n      pop\n      pop\n      dup2\n      mstore\n      0x20\n      add\n      0x02\n      dup3\n      add\n      sload\n      dup2\n      mstore\n      0x20\n      add\n      0x03\n      dup3\n      add\n      0x00\n      swap1\n      sload\n      swap1\n      0x0100\n      exp\n      swap1\n      div\n      0xff\n      and\n      0xff\n      and\n      0xff\n      and\n      dup2\n      mstore\n      pop\n      pop\n      dup2\n      mstore\n      pop\n      pop\n      swap1\n      pop\n        /* \"ticket_booking_contract/ticket_booking.sol\":8224:8353  function getBooking(uint256 _bookingID) public view returns (BookingStruct memory) {... */\n      swap2\n      swap1\n      pop\n      jump\t// out\n        /* \"ticket_booking_contract/ticket_booking.sol\":1799:3040  function bookBusTicket(... */\n    tag_26:\n        /* \"ticket_booking_contract/ticket_booking.sol\":2095:2109  bookingCounter */\n      0x00\n      dup1\n        /* \"ticket_booking_contract/ticket_booking.sol\":2095:2111  bookingCounter++ */\n      dup2\n      sload\n      dup1\n      swap3\n      swap2\n      swap1\n      tag_215\n      swap1\n      tag_216\n      jump\t// in\n    tag_215:\n      swap2\n      swap1\n      pop\n      sstore\n      pop\n        /* \"ticket_booking_contract/ticket_booking.sol\":2183:2205  UserStruct memory user */\n      0x00\n        /* \"ticket_booking_contract/ticket_booking.sol\":2208:2261  UserStruct(bookingCounter, name, age, contactDetails) */\n      mload(0x40)\n      dup1\n      0x80\n      add\n      0x40\n      mstore\n      dup1\n        /* \"ticket_booking_contract/ticket_booking.sol\":2219:2233  bookingCounter */\n      sload(0x00)\n        /* \"ticket_booking_contract/ticket_booking.sol\":2208:2261  UserStruct(bookingCounter, name, age, contactDetails) */\n      dup2\n      mstore\n      0x20\n      add\n        /* \"ticket_booking_contract/ticket_booking.sol\":2235:2239  name */\n      dup11\n        /* \"ticket_booking_contract/ticket_booking.sol\":2208:2261  UserStruct(bookingCounter, name, age, contactDetails) */\n      dup2\n      mstore\n      0x20\n      add\n        /* \"ticket_booking_contract/ticket_booking.sol\":2241:2244  age */\n      dup10\n        /* \"ticket_booking_contract/ticket_booking.sol\":2208:2261  UserStruct(bookingCounter, name, age, contactDetails) */\n      0xff\n      and\n      dup2\n      mstore\n      0x20\n      add\n        /* \"ticket_booking_contract/ticket_booking.sol\":2246:2260  contactDetails */\n      dup9\n        /* \"ticket_booking_contract/ticket_booking.sol\":2208:2261  UserStruct(bookingCounter, name, age, contactDetails) */\n      dup2\n      mstore\n      pop\n        /* \"ticket_booking_contract/ticket_booking.sol\":2183:2261  UserStruct memory user = UserStruct(bookingCounter, name, age, contactDetails) */\n      swap1\n      pop\n        /* \"ticket_booking_contract/ticket_booking.sol\":2310:2344  BusBookingStruct memory busBooking */\n      0x00\n        /* \"ticket_booking_contract/ticket_booking.sol\":2347:2422  BusBookingStruct(busNumber, origin, destination, dateOfJourney, seatNumber) */\n      mload(0x40)\n      dup1\n      0xa0\n      add\n      0x40\n      mstore\n      dup1\n        /* \"ticket_booking_contract/ticket_booking.sol\":2364:2373  busNumber */\n      dup9\n        /* \"ticket_booking_contract/ticket_booking.sol\":2347:2422  BusBookingStruct(busNumber, origin, destination, dateOfJourney, seatNumber) */\n      dup2\n      mstore\n      0x20\n      add\n        /* \"ticket_booking_contract/ticket_booking.sol\":2375:2381  origin */\n      dup8\n        /* \"ticket_booking_contract/ticket_booking.sol\":2347:2422  BusBookingStruct(busNumber, origin, destination, dateOfJourney, seatNumber) */\n      dup2\n      mstore\n      0x20\n      add\n        /* \"ticket_booking_contract/ticket_booking.sol\":2383:2394  destination */\n      dup7\n        /* \"ticket_booking_contract/ticket_booking.sol\":2347:2422  BusBookingStruct(busNumber, origin, destination, dateOfJourney, seatNumber) */\n      dup2\n      mstore\n      0x20\n      add\n        /* \"ticket_booking_contract/ticket_booking.sol\":2396:2409  dateOfJourney */\n      dup6\n        /* \"ticket_booking_contract/ticket_booking.sol\":2347:2422  BusBookingStruct(busNumber, origin, destination, dateOfJourney, seatNumber) */\n      dup2\n      mstore\n      0x20\n      add\n        /* \"ticket_booking_contract/ticket_booking.sol\":2411:2421  seatNumber */\n      dup5\n        /* \"ticket_booking_contract/ticket_booking.sol\":2347:2422  BusBookingStruct(busNumber, origin, destination, dateOfJourney, seatNumber) */\n      0xff\n      and\n      dup2\n      mstore\n      pop\n        /* \"ticket_booking_contract/ticket_booking.sol\":2310:2422  BusBookingStruct memory busBooking = BusBookingStruct(busNumber, origin, destination, dateOfJourney, seatNumber) */\n      swap1\n      pop\n        /* \"ticket_booking_contract/ticket_booking.sol\":2468:2499  BookingStruct memory newBooking */\n      0x00\n        /* \"ticket_booking_contract/ticket_booking.sol\":2502:2952  BookingStruct(... */\n      mload(0x40)\n      dup1\n      0x0100\n      add\n      0x40\n      mstore\n      dup1\n        /* \"ticket_booking_contract/ticket_booking.sol\":2530:2544  bookingCounter */\n      sload(0x00)\n        /* \"ticket_booking_contract/ticket_booking.sol\":2502:2952  BookingStruct(... */\n      dup2\n      mstore\n      0x20\n      add\n        /* \"ticket_booking_contract/ticket_booking.sol\":2559:2574  BookingType.Bus */\n      0x00\n        /* \"ticket_booking_contract/ticket_booking.sol\":2502:2952  BookingStruct(... */\n      0x04\n      dup2\n      gt\n      iszero\n      tag_217\n      jumpi\n      tag_218\n      tag_131\n      jump\t// in\n    tag_218:\n    tag_217:\n      dup2\n      mstore\n      0x20\n      add\n        /* \"ticket_booking_contract/ticket_booking.sol\":2589:2593  user */\n      dup5\n        /* \"ticket_booking_contract/ticket_booking.sol\":2502:2952  BookingStruct(... */\n      dup2\n      mstore\n      0x20\n      add\n        /* \"ticket_booking_contract/ticket_booking.sol\":2608:2618  busBooking */\n      dup4\n        /* \"ticket_booking_contract/ticket_booking.sol\":2502:2952  BookingStruct(... */\n      dup2\n      mstore\n      0x20\n      add\n        /* \"ticket_booking_contract/ticket_booking.sol\":2633:2666  CinemaBookingStruct(\"\", \"\", 0, 0) */\n      mload(0x40)\n      dup1\n      0x80\n      add\n      0x40\n      mstore\n      dup1\n      mload(0x40)\n      dup1\n      0x20\n      add\n      0x40\n      mstore\n      dup1\n      0x00\n      dup2\n      mstore\n      pop\n      dup2\n      mstore\n      0x20\n      add\n      mload(0x40)\n      dup1\n      0x20\n      add\n      0x40\n      mstore\n      dup1\n      0x00\n      dup2\n      mstore\n      pop\n      dup2\n      mstore\n      0x20\n      add\n        /* \"ticket_booking_contract/ticket_booking.sol\":2661:2662  0 */\n      0x00\n        /* \"ticket_booking_contract/ticket_booking.sol\":2633:2666  CinemaBookingStruct(\"\", \"\", 0, 0) */\n      dup2\n      mstore\n      0x20\n      add\n        /* \"ticket_booking_contract/ticket_booking.sol\":2664:2665  0 */\n      0x00\n        /* \"ticket_booking_contract/ticket_booking.sol\":2633:2666  CinemaBookingStruct(\"\", \"\", 0, 0) */\n      0xff\n      and\n      dup2\n      mstore\n      pop\n        /* \"ticket_booking_contract/ticket_booking.sol\":2502:2952  BookingStruct(... */\n      dup2\n      mstore\n      0x20\n      add\n        /* \"ticket_booking_contract/ticket_booking.sol\":2710:2749  AirlineBookingStruct(\"\", \"\", \"\", 0, \"\") */\n      mload(0x40)\n      dup1\n      0xa0\n      add\n      0x40\n      mstore\n      dup1\n      mload(0x40)\n      dup1\n      0x20\n      add\n      0x40\n      mstore\n      dup1\n      0x00\n      dup2\n      mstore\n      pop\n      dup2\n      mstore\n      0x20\n      add\n      mload(0x40)\n      dup1\n      0x20\n      add\n      0x40\n      mstore\n      dup1\n      0x00\n      dup2\n      mstore\n      pop\n      dup2\n      mstore\n      0x20\n      add\n      mload(0x40)\n      dup1\n      0x20\n      add\n      0x40\n      mstore\n      dup1\n      0x00\n      dup2\n      mstore\n      pop\n      dup2\n      mstore\n      0x20\n      add\n        /* \"ticket_booking_contract/ticket_booking.sol\":2743:2744  0 */\n      0x00\n        /* \"ticket_booking_contract/ticket_booking.sol\":2710:2749  AirlineBookingStruct(\"\", \"\", \"\", 0, \"\") */\n      dup2\n      mstore\n      0x20\n      add\n      mload(0x40)\n      dup1\n      0x20\n      add\n      0x40\n      mstore\n      dup1\n      0x00\n      dup2\n      mstore\n      pop\n      dup2\n      mstore\n      pop\n        /* \"ticket_booking_contract/ticket_booking.sol\":2502:2952  BookingStruct(... */\n      dup2\n      mstore\n      0x20\n      add\n        /* \"ticket_booking_contract/ticket_booking.sol\":2794:2832  RailwayBookingStruct(\"\", \"\", \"\", 0, 0) */\n      mload(0x40)\n      dup1\n      0xa0\n      add\n      0x40\n      mstore\n      dup1\n      mload(0x40)\n      dup1\n      0x20\n      add\n      0x40\n      mstore\n      dup1\n      0x00\n      dup2\n      mstore\n      pop\n      dup2\n      mstore\n      0x20\n      add\n      mload(0x40)\n      dup1\n      0x20\n      add\n      0x40\n      mstore\n      dup1\n      0x00\n      dup2\n      mstore\n      pop\n      dup2\n      mstore\n      0x20\n      add\n      mload(0x40)\n      dup1\n      0x20\n      add\n      0x40\n      mstore\n      dup1\n      0x00\n      dup2\n      mstore\n      pop\n      dup2\n      mstore\n      0x20\n      add\n        /* \"ticket_booking_contract/ticket_booking.sol\":2827:2828  0 */\n      0x00\n        /* \"ticket_booking_contract/ticket_booking.sol\":2794:2832  RailwayBookingStruct(\"\", \"\", \"\", 0, 0) */\n      dup2\n      mstore\n      0x20\n      add\n        /* \"ticket_booking_contract/ticket_booking.sol\":2830:2831  0 */\n      0x00\n        /* \"ticket_booking_contract/ticket_booking.sol\":2794:2832  RailwayBookingStruct(\"\", \"\", \"\", 0, 0) */\n      0xff\n      and\n      dup2\n      mstore\n      pop\n        /* \"ticket_booking_contract/ticket_booking.sol\":2502:2952  BookingStruct(... */\n      dup2\n      mstore\n      0x20\n      add\n        /* \"ticket_booking_contract/ticket_booking.sol\":2877:2911  CricketBookingStruct(\"\", \"\", 0, 0) */\n      mload(0x40)\n      dup1\n      0x80\n      add\n      0x40\n      mstore\n      dup1\n      mload(0x40)\n      dup1\n      0x20\n      add\n      0x40\n      mstore\n      dup1\n      0x00\n      dup2\n      mstore\n      pop\n      dup2\n      mstore\n      0x20\n      add\n      mload(0x40)\n      dup1\n      0x20\n      add\n      0x40\n      mstore\n      dup1\n      0x00\n      dup2\n      mstore\n      pop\n      dup2\n      mstore\n      0x20\n      add\n        /* \"ticket_booking_contract/ticket_booking.sol\":2906:2907  0 */\n      0x00\n        /* \"ticket_booking_contract/ticket_booking.sol\":2877:2911  CricketBookingStruct(\"\", \"\", 0, 0) */\n      dup2\n      mstore\n      0x20\n      add\n        /* \"ticket_booking_contract/ticket_booking.sol\":2909:2910  0 */\n      0x00\n        /* \"ticket_booking_contract/ticket_booking.sol\":2877:2911  CricketBookingStruct(\"\", \"\", 0, 0) */\n      0xff\n      and\n      dup2\n      mstore\n      pop\n        /* \"ticket_booking_contract/ticket_booking.sol\":2502:2952  BookingStruct(... */\n      dup2\n      mstore\n      pop\n        /* \"ticket_booking_contract/ticket_booking.sol\":2468:2952  BookingStruct memory newBooking = BookingStruct(... */\n      swap1\n      pop\n        /* \"ticket_booking_contract/ticket_booking.sol\":3022:3032  newBooking */\n      dup1\n        /* \"ticket_booking_contract/ticket_booking.sol\":2995:3003  bookings */\n      0x01\n        /* \"ticket_booking_contract/ticket_booking.sol\":2995:3019  bookings[bookingCounter] */\n      0x00\n        /* \"ticket_booking_contract/ticket_booking.sol\":3004:3018  bookingCounter */\n      dup1\n      sload\n        /* \"ticket_booking_contract/ticket_booking.sol\":2995:3019  bookings[bookingCounter] */\n      dup2\n      mstore\n      0x20\n      add\n      swap1\n      dup2\n      mstore\n      0x20\n      add\n      0x00\n      keccak256\n        /* \"ticket_booking_contract/ticket_booking.sol\":2995:3032  bookings[bookingCounter] = newBooking */\n      0x00\n      dup3\n      add\n      mload\n      dup2\n      0x00\n      add\n      sstore\n      0x20\n      dup3\n      add\n      mload\n      dup2\n      0x01\n      add\n      exp(0x0100, 0x00)\n      dup2\n      sload\n      dup2\n      0xff\n      mul\n      not\n      and\n      swap1\n      dup4\n      0x04\n      dup2\n      gt\n      iszero\n      tag_219\n      jumpi\n      tag_220\n      tag_131\n      jump\t// in\n    tag_220:\n    tag_219:\n      mul\n      or\n      swap1\n      sstore\n      pop\n      0x40\n      dup3\n      add\n      mload\n      dup2\n      0x02\n      add\n      0x00\n      dup3\n      add\n      mload\n      dup2\n      0x00\n      add\n      sstore\n      0x20\n      dup3\n      add\n      mload\n      dup2\n      0x01\n      add\n      swap1\n      dup2\n      tag_221\n      swap2\n      swap1\n      tag_222\n      jump\t// in\n    tag_221:\n      pop\n      0x40\n      dup3\n      add\n      mload\n      dup2\n      0x02\n      add\n      exp(0x0100, 0x00)\n      dup2\n      sload\n      dup2\n      0xff\n      mul\n      not\n      and\n      swap1\n      dup4\n      0xff\n      and\n      mul\n      or\n      swap1\n      sstore\n      pop\n      0x60\n      dup3\n      add\n      mload\n      dup2\n      0x03\n      add\n      swap1\n      dup2\n      tag_223\n      swap2\n      swap1\n      tag_222\n      jump\t// in\n    tag_223:\n      pop\n      pop\n      pop\n      0x60\n      dup3\n      add\n      mload\n      dup2\n      0x06\n      add\n      0x00\n      dup3\n      add\n      mload\n      dup2\n      0x00\n      add\n      swap1\n      dup2\n      tag_224\n      swap2\n      swap1\n      tag_222\n      jump\t// in\n    tag_224:\n      pop\n      0x20\n      dup3\n      add\n      mload\n      dup2\n      0x01\n      add\n      swap1\n      dup2\n      tag_225\n      swap2\n      swap1\n      tag_222\n      jump\t// in\n    tag_225:\n      pop\n      0x40\n      dup3\n      add\n      mload\n      dup2\n      0x02\n      add\n      swap1\n      dup2\n      tag_226\n      swap2\n      swap1\n      tag_222\n      jump\t// in\n    tag_226:\n      pop\n      0x60\n      dup3\n      add\n      mload\n      dup2\n      0x03\n      add\n      sstore\n      0x80\n      dup3\n      add\n      mload\n      dup2\n      0x04\n      add\n      exp(0x0100, 0x00)\n      dup2\n      sload\n      dup2\n      0xff\n      mul\n      not\n      and\n      swap1\n      dup4\n      0xff\n      and\n      mul\n      or\n      swap1\n      sstore\n      pop\n      pop\n      pop\n      0x80\n      dup3\n      add\n      mload\n      dup2\n      0x0b\n      add\n      0x00\n      dup3\n      add\n      mload\n      dup2\n      0x00\n      add\n      swap1\n      dup2\n      tag_227\n      swap2\n      swap1\n      tag_222\n      jump\t// in\n    tag_227:\n      pop\n      0x20\n      dup3\n      add\n      mload\n      dup2\n      0x01\n      add\n      swap1\n      dup2\n      tag_228\n      swap2\n      swap1\n      tag_222\n      jump\t// in\n    tag_228:\n      pop\n      0x40\n      dup3\n      add\n      mload\n      dup2\n      0x02\n      add\n      sstore\n      0x60\n      dup3\n      add\n      mload\n      dup2\n      0x03\n      add\n      exp(0x0100, 0x00)\n      dup2\n      sload\n      dup2\n      0xff\n      mul\n      not\n      and\n      swap1\n      dup4\n      0xff\n      and\n      mul\n      or\n      swap1\n      sstore\n      pop\n      pop\n      pop\n      0xa0\n      dup3\n      add\n      mload\n      dup2\n      0x0f\n      add\n      0x00\n      dup3\n      add\n      mload\n      dup2\n      0x00\n      add\n      swap1\n      dup2\n      tag_229\n      swap2\n      swap1\n      tag_222\n      jump\t// in\n    tag_229:\n      pop\n      0x20\n      dup3\n      add\n      mload\n      dup2\n      0x01\n      add\n      swap1\n      dup2\n      tag_230\n      swap2\n      swap1\n      tag_222\n      jump\t// in\n    tag_230:\n      pop\n      0x40\n      dup3\n      add\n      mload\n      dup2\n      0x02\n      add\n      swap1\n      dup2\n      tag_231\n      swap2\n      swap1\n      tag_222\n      jump\t// in\n    tag_231:\n      pop\n      0x60\n      dup3\n      add\n      mload\n      dup2\n      0x03\n      add\n      sstore\n      0x80\n      dup3\n      add\n      mload\n      dup2\n      0x04\n      add\n      swap1\n      dup2\n      tag_232\n      swap2\n      swap1\n      tag_222\n      jump\t// in\n    tag_232:\n      pop\n      pop\n      pop\n      0xc0\n      dup3\n      add\n      mload\n      dup2\n      0x14\n      add\n      0x00\n      dup3\n      add\n      mload\n      dup2\n      0x00\n      add\n      swap1\n      dup2\n      tag_233\n      swap2\n      swap1\n      tag_222\n      jump\t// in\n    tag_233:\n      pop\n      0x20\n      dup3\n      add\n      mload\n      dup2\n      0x01\n      add\n      swap1\n      dup2\n      tag_234\n      swap2\n      swap1\n      tag_222\n      jump\t// in\n    tag_234:\n      pop\n      0x40\n      dup3\n      add\n      mload\n      dup2\n      0x02\n      add\n      swap1\n      dup2\n      tag_235\n      swap2\n      swap1\n      tag_222\n      jump\t// in\n    tag_235:\n      pop\n      0x60\n      dup3\n      add\n      mload\n      dup2\n      0x03\n      add\n      sstore\n      0x80\n      dup3\n      add\n      mload\n      dup2\n      0x04\n      add\n      exp(0x0100, 0x00)\n      dup2\n      sload\n      dup2\n      0xff\n      mul\n      not\n      and\n      swap1\n      dup4\n      0xff\n      and\n      mul\n      or\n      swap1\n      sstore\n      pop\n      pop\n      pop\n      0xe0\n      dup3\n      add\n      mload\n      dup2\n      0x19\n      add\n      0x00\n      dup3\n      add\n      mload\n      dup2\n      0x00\n      add\n      swap1\n      dup2\n      tag_236\n      swap2\n      swap1\n      tag_222\n      jump\t// in\n    tag_236:\n      pop\n      0x20\n      dup3\n      add\n      mload\n      dup2\n      0x01\n      add\n      swap1\n      dup2\n      tag_237\n      swap2\n      swap1\n      tag_222\n      jump\t// in\n    tag_237:\n      pop\n      0x40\n      dup3\n      add\n      mload\n      dup2\n      0x02\n      add\n      sstore\n      0x60\n      dup3\n      add\n      mload\n      dup2\n      0x03\n      add\n      exp(0x0100, 0x00)\n      dup2\n      sload\n      dup2\n      0xff\n      mul\n      not\n      and\n      swap1\n      dup4\n      0xff\n      and\n      mul\n      or\n      swap1\n      sstore\n      pop\n      pop\n      pop\n      swap1\n      pop\n      pop\n        /* \"ticket_booking_contract/ticket_booking.sol\":2084:3040  {... */\n      pop\n      pop\n      pop\n        /* \"ticket_booking_contract/ticket_booking.sol\":1799:3040  function bookBusTicket(... */\n      pop\n      pop\n      pop\n      pop\n      pop\n      pop\n      pop\n      pop\n      jump\t// out\n        /* \"ticket_booking_contract/ticket_booking.sol\":8398:8496  function getTotalBookings() public view returns (uint256) {... */\n    tag_28:\n        /* \"ticket_booking_contract/ticket_booking.sol\":8447:8454  uint256 */\n      0x00\n        /* \"ticket_booking_contract/ticket_booking.sol\":8474:8488  bookingCounter */\n      dup1\n      sload\n        /* \"ticket_booking_contract/ticket_booking.sol\":8467:8488  return bookingCounter */\n      swap1\n      pop\n        /* \"ticket_booking_contract/ticket_booking.sol\":8398:8496  function getTotalBookings() public view returns (uint256) {... */\n      swap1\n      jump\t// out\n        /* \"ticket_booking_contract/ticket_booking.sol\":3085:4294  function bookCinemaTicket(... */\n    tag_34:\n        /* \"ticket_booking_contract/ticket_booking.sol\":3347:3361  bookingCounter */\n      0x00\n      dup1\n        /* \"ticket_booking_contract/ticket_booking.sol\":3347:3363  bookingCounter++ */\n      dup2\n      sload\n      dup1\n      swap3\n      swap2\n      swap1\n      tag_240\n      swap1\n      tag_216\n      jump\t// in\n    tag_240:\n      swap2\n      swap1\n      pop\n      sstore\n      pop\n        /* \"ticket_booking_contract/ticket_booking.sol\":3435:3457  UserStruct memory user */\n      0x00\n        /* \"ticket_booking_contract/ticket_booking.sol\":3460:3513  UserStruct(bookingCounter, name, age, contactDetails) */\n      mload(0x40)\n      dup1\n      0x80\n      add\n      0x40\n      mstore\n      dup1\n        /* \"ticket_booking_contract/ticket_booking.sol\":3471:3485  bookingCounter */\n      sload(0x00)\n        /* \"ticket_booking_contract/ticket_booking.sol\":3460:3513  UserStruct(bookingCounter, name, age, contactDetails) */\n      dup2\n      mstore\n      0x20\n      add\n        /* \"ticket_booking_contract/ticket_booking.sol\":3487:3491  name */\n      dup10\n        /* \"ticket_booking_contract/ticket_booking.sol\":3460:3513  UserStruct(bookingCounter, name, age, contactDetails) */\n      dup2\n      mstore\n      0x20\n      add\n        /* \"ticket_booking_contract/ticket_booking.sol\":3493:3496  age */\n      dup9\n        /* \"ticket_booking_contract/ticket_booking.sol\":3460:3513  UserStruct(bookingCounter, name, age, contactDetails) */\n      0xff\n      and\n      dup2\n      mstore\n      0x20\n      add\n        /* \"ticket_booking_contract/ticket_booking.sol\":3498:3512  contactDetails */\n      dup8\n        /* \"ticket_booking_contract/ticket_booking.sol\":3460:3513  UserStruct(bookingCounter, name, age, contactDetails) */\n      dup2\n      mstore\n      pop\n        /* \"ticket_booking_contract/ticket_booking.sol\":3435:3513  UserStruct memory user = UserStruct(bookingCounter, name, age, contactDetails) */\n      swap1\n      pop\n        /* \"ticket_booking_contract/ticket_booking.sol\":3565:3605  CinemaBookingStruct memory cinemaBooking */\n      0x00\n        /* \"ticket_booking_contract/ticket_booking.sol\":3608:3672  CinemaBookingStruct(movieName, cinemaHall, showTime, seatNumber) */\n      mload(0x40)\n      dup1\n      0x80\n      add\n      0x40\n      mstore\n      dup1\n        /* \"ticket_booking_contract/ticket_booking.sol\":3628:3637  movieName */\n      dup8\n        /* \"ticket_booking_contract/ticket_booking.sol\":3608:3672  CinemaBookingStruct(movieName, cinemaHall, showTime, seatNumber) */\n      dup2\n      mstore\n      0x20\n      add\n        /* \"ticket_booking_contract/ticket_booking.sol\":3639:3649  cinemaHall */\n      dup7\n        /* \"ticket_booking_contract/ticket_booking.sol\":3608:3672  CinemaBookingStruct(movieName, cinemaHall, showTime, seatNumber) */\n      dup2\n      mstore\n      0x20\n      add\n        /* \"ticket_booking_contract/ticket_booking.sol\":3651:3659  showTime */\n      dup6\n        /* \"ticket_booking_contract/ticket_booking.sol\":3608:3672  CinemaBookingStruct(movieName, cinemaHall, showTime, seatNumber) */\n      dup2\n      mstore\n      0x20\n      add\n        /* \"ticket_booking_contract/ticket_booking.sol\":3661:3671  seatNumber */\n      dup5\n        /* \"ticket_booking_contract/ticket_booking.sol\":3608:3672  CinemaBookingStruct(movieName, cinemaHall, showTime, seatNumber) */\n      0xff\n      and\n      dup2\n      mstore\n      pop\n        /* \"ticket_booking_contract/ticket_booking.sol\":3565:3672  CinemaBookingStruct memory cinemaBooking = CinemaBookingStruct(movieName, cinemaHall, showTime, seatNumber) */\n      swap1\n      pop\n        /* \"ticket_booking_contract/ticket_booking.sol\":3718:3749  BookingStruct memory newBooking */\n      0x00\n        /* \"ticket_booking_contract/ticket_booking.sol\":3752:4206  BookingStruct(... */\n      mload(0x40)\n      dup1\n      0x0100\n      add\n      0x40\n      mstore\n      dup1\n        /* \"ticket_booking_contract/ticket_booking.sol\":3780:3794  bookingCounter */\n      sload(0x00)\n        /* \"ticket_booking_contract/ticket_booking.sol\":3752:4206  BookingStruct(... */\n      dup2\n      mstore\n      0x20\n      add\n        /* \"ticket_booking_contract/ticket_booking.sol\":3809:3827  BookingType.Cinema */\n      0x01\n        /* \"ticket_booking_contract/ticket_booking.sol\":3752:4206  BookingStruct(... */\n      0x04\n      dup2\n      gt\n      iszero\n      tag_241\n      jumpi\n      tag_242\n      tag_131\n      jump\t// in\n    tag_242:\n    tag_241:\n      dup2\n      mstore\n      0x20\n      add\n        /* \"ticket_booking_contract/ticket_booking.sol\":3842:3846  user */\n      dup5\n        /* \"ticket_booking_contract/ticket_booking.sol\":3752:4206  BookingStruct(... */\n      dup2\n      mstore\n      0x20\n      add\n        /* \"ticket_booking_contract/ticket_booking.sol\":3861:3895  BusBookingStruct(\"\", \"\", \"\", 0, 0) */\n      mload(0x40)\n      dup1\n      0xa0\n      add\n      0x40\n      mstore\n      dup1\n      mload(0x40)\n      dup1\n      0x20\n      add\n      0x40\n      mstore\n      dup1\n      0x00\n      dup2\n      mstore\n      pop\n      dup2\n      mstore\n      0x20\n      add\n      mload(0x40)\n      dup1\n      0x20\n      add\n      0x40\n      mstore\n      dup1\n      0x00\n      dup2\n      mstore\n      pop\n      dup2\n      mstore\n      0x20\n      add\n      mload(0x40)\n      dup1\n      0x20\n      add\n      0x40\n      mstore\n      dup1\n      0x00\n      dup2\n      mstore\n      pop\n      dup2\n      mstore\n      0x20\n      add\n        /* \"ticket_booking_contract/ticket_booking.sol\":3890:3891  0 */\n      0x00\n        /* \"ticket_booking_contract/ticket_booking.sol\":3861:3895  BusBookingStruct(\"\", \"\", \"\", 0, 0) */\n      dup2\n      mstore\n      0x20\n      add\n        /* \"ticket_booking_contract/ticket_booking.sol\":3893:3894  0 */\n      0x00\n        /* \"ticket_booking_contract/ticket_booking.sol\":3861:3895  BusBookingStruct(\"\", \"\", \"\", 0, 0) */\n      0xff\n      and\n      dup2\n      mstore\n      pop\n        /* \"ticket_booking_contract/ticket_booking.sol\":3752:4206  BookingStruct(... */\n      dup2\n      mstore\n      0x20\n      add\n        /* \"ticket_booking_contract/ticket_booking.sol\":3936:3949  cinemaBooking */\n      dup4\n        /* \"ticket_booking_contract/ticket_booking.sol\":3752:4206  BookingStruct(... */\n      dup2\n      mstore\n      0x20\n      add\n        /* \"ticket_booking_contract/ticket_booking.sol\":3964:4003  AirlineBookingStruct(\"\", \"\", \"\", 0, \"\") */\n      mload(0x40)\n      dup1\n      0xa0\n      add\n      0x40\n      mstore\n      dup1\n      mload(0x40)\n      dup1\n      0x20\n      add\n      0x40\n      mstore\n      dup1\n      0x00\n      dup2\n      mstore\n      pop\n      dup2\n      mstore\n      0x20\n      add\n      mload(0x40)\n      dup1\n      0x20\n      add\n      0x40\n      mstore\n      dup1\n      0x00\n      dup2\n      mstore\n      pop\n      dup2\n      mstore\n      0x20\n      add\n      mload(0x40)\n      dup1\n      0x20\n      add\n      0x40\n      mstore\n      dup1\n      0x00\n      dup2\n      mstore\n      pop\n      dup2\n      mstore\n      0x20\n      add\n        /* \"ticket_booking_contract/ticket_booking.sol\":3997:3998  0 */\n      0x00\n        /* \"ticket_booking_contract/ticket_booking.sol\":3964:4003  AirlineBookingStruct(\"\", \"\", \"\", 0, \"\") */\n      dup2\n      mstore\n      0x20\n      add\n      mload(0x40)\n      dup1\n      0x20\n      add\n      0x40\n      mstore\n      dup1\n      0x00\n      dup2\n      mstore\n      pop\n      dup2\n      mstore\n      pop\n        /* \"ticket_booking_contract/ticket_booking.sol\":3752:4206  BookingStruct(... */\n      dup2\n      mstore\n      0x20\n      add\n        /* \"ticket_booking_contract/ticket_booking.sol\":4048:4086  RailwayBookingStruct(\"\", \"\", \"\", 0, 0) */\n      mload(0x40)\n      dup1\n      0xa0\n      add\n      0x40\n      mstore\n      dup1\n      mload(0x40)\n      dup1\n      0x20\n      add\n      0x40\n      mstore\n      dup1\n      0x00\n      dup2\n      mstore\n      pop\n      dup2\n      mstore\n      0x20\n      add\n      mload(0x40)\n      dup1\n      0x20\n      add\n      0x40\n      mstore\n      dup1\n      0x00\n      dup2\n      mstore\n      pop\n      dup2\n      mstore\n      0x20\n      add\n      mload(0x40)\n      dup1\n      0x20\n      add\n      0x40\n      mstore\n      dup1\n      0x00\n      dup2\n      mstore\n      pop\n      dup2\n      mstore\n      0x20\n      add\n        /* \"ticket_booking_contract/ticket_booking.sol\":4081:4082  0 */\n      0x00\n        /* \"ticket_booking_contract/ticket_booking.sol\":4048:4086  RailwayBookingStruct(\"\", \"\", \"\", 0, 0) */\n      dup2\n      mstore\n      0x20\n      add\n        /* \"ticket_booking_contract/ticket_booking.sol\":4084:4085  0 */\n      0x00\n        /* \"ticket_booking_contract/ticket_booking.sol\":4048:4086  RailwayBookingStruct(\"\", \"\", \"\", 0, 0) */\n      0xff\n      and\n      dup2\n      mstore\n      pop\n        /* \"ticket_booking_contract/ticket_booking.sol\":3752:4206  BookingStruct(... */\n      dup2\n      mstore\n      0x20\n      add\n        /* \"ticket_booking_contract/ticket_booking.sol\":4131:4165  CricketBookingStruct(\"\", \"\", 0, 0) */\n      mload(0x40)\n      dup1\n      0x80\n      add\n      0x40\n      mstore\n      dup1\n      mload(0x40)\n      dup1\n      0x20\n      add\n      0x40\n      mstore\n      dup1\n      0x00\n      dup2\n      mstore\n      pop\n      dup2\n      mstore\n      0x20\n      add\n      mload(0x40)\n      dup1\n      0x20\n      add\n      0x40\n      mstore\n      dup1\n      0x00\n      dup2\n      mstore\n      pop\n      dup2\n      mstore\n      0x20\n      add\n        /* \"ticket_booking_contract/ticket_booking.sol\":4160:4161  0 */\n      0x00\n        /* \"ticket_booking_contract/ticket_booking.sol\":4131:4165  CricketBookingStruct(\"\", \"\", 0, 0) */\n      dup2\n      mstore\n      0x20\n      add\n        /* \"ticket_booking_contract/ticket_booking.sol\":4163:4164  0 */\n      0x00\n        /* \"ticket_booking_contract/ticket_booking.sol\":4131:4165  CricketBookingStruct(\"\", \"\", 0, 0) */\n      0xff\n      and\n      dup2\n      mstore\n      pop\n        /* \"ticket_booking_contract/ticket_booking.sol\":3752:4206  BookingStruct(... */\n      dup2\n      mstore\n      pop\n        /* \"ticket_booking_contract/ticket_booking.sol\":3718:4206  BookingStruct memory newBooking = BookingStruct(... */\n      swap1\n      pop\n        /* \"ticket_booking_contract/ticket_booking.sol\":4276:4286  newBooking */\n      dup1\n        /* \"ticket_booking_contract/ticket_booking.sol\":4249:4257  bookings */\n      0x01\n        /* \"ticket_booking_contract/ticket_booking.sol\":4249:4273  bookings[bookingCounter] */\n      0x00\n        /* \"ticket_booking_contract/ticket_booking.sol\":4258:4272  bookingCounter */\n      dup1\n      sload\n        /* \"ticket_booking_contract/ticket_booking.sol\":4249:4273  bookings[bookingCounter] */\n      dup2\n      mstore\n      0x20\n      add\n      swap1\n      dup2\n      mstore\n      0x20\n      add\n      0x00\n      keccak256\n        /* \"ticket_booking_contract/ticket_booking.sol\":4249:4286  bookings[bookingCounter] = newBooking */\n      0x00\n      dup3\n      add\n      mload\n      dup2\n      0x00\n      add\n      sstore\n      0x20\n      dup3\n      add\n      mload\n      dup2\n      0x01\n      add\n      exp(0x0100, 0x00)\n      dup2\n      sload\n      dup2\n      0xff\n      mul\n      not\n      and\n      swap1\n      dup4\n      0x04\n      dup2\n      gt\n      iszero\n      tag_243\n      jumpi\n      tag_244\n      tag_131\n      jump\t// in\n    tag_244:\n    tag_243:\n      mul\n      or\n      swap1\n      sstore\n      pop\n      0x40\n      dup3\n      add\n      mload\n      dup2\n      0x02\n      add\n      0x00\n      dup3\n      add\n      mload\n      dup2\n      0x00\n      add\n      sstore\n      0x20\n      dup3\n      add\n      mload\n      dup2\n      0x01\n      add\n      swap1\n      dup2\n      tag_245\n      swap2\n      swap1\n      tag_222\n      jump\t// in\n    tag_245:\n      pop\n      0x40\n      dup3\n      add\n      mload\n      dup2\n      0x02\n      add\n      exp(0x0100, 0x00)\n      dup2\n      sload\n      dup2\n      0xff\n      mul\n      not\n      and\n      swap1\n      dup4\n      0xff\n      and\n      mul\n      or\n      swap1\n      sstore\n      pop\n      0x60\n      dup3\n      add\n      mload\n      dup2\n      0x03\n      add\n      swap1\n      dup2\n      tag_246\n      swap2\n      swap1\n      tag_222\n      jump\t// in\n    tag_246:\n      pop\n      pop\n      pop\n      0x60\n      dup3\n      add\n      mload\n      dup2\n      0x06\n      add\n      0x00\n      dup3\n      add\n      mload\n      dup2\n      0x00\n      add\n      swap1\n      dup2\n      tag_247\n      swap2\n      swap1\n      tag_222\n      jump\t// in\n    tag_247:\n      pop\n      0x20\n      dup3\n      add\n      mload\n      dup2\n      0x01\n      add\n      swap1\n      dup2\n      tag_248\n      swap2\n      swap1\n      tag_222\n      jump\t// in\n    tag_248:\n      pop\n      0x40\n      dup3\n      add\n      mload\n      dup2\n      0x02\n      add\n      swap1\n      dup2\n      tag_249\n      swap2\n      swap1\n      tag_222\n      jump\t// in\n    tag_249:\n      pop\n      0x60\n      dup3\n      add\n      mload\n      dup2\n      0x03\n      add\n      sstore\n      0x80\n      dup3\n      add\n      mload\n      dup2\n      0x04\n      add\n      exp(0x0100, 0x00)\n      dup2\n      sload\n      dup2\n      0xff\n      mul\n      not\n      and\n      swap1\n      dup4\n      0xff\n      and\n      mul\n      or\n      swap1\n      sstore\n      pop\n      pop\n      pop\n      0x80\n      dup3\n      add\n      mload\n      dup2\n      0x0b\n      add\n      0x00\n      dup3\n      add\n      mload\n      dup2\n      0x00\n      add\n      swap1\n      dup2\n      tag_250\n      swap2\n      swap1\n      tag_222\n      jump\t// in\n    tag_250:\n      pop\n      0x20\n      dup3\n      add\n      mload\n      dup2\n      0x01\n      add\n      swap1\n      dup2\n      tag_251\n      swap2\n      swap1\n      tag_222\n      jump\t// in\n    tag_251:\n      pop\n      0x40\n      dup3\n      add\n      mload\n      dup2\n      0x02\n      add\n      sstore\n      0x60\n      dup3\n      add\n      mload\n      dup2\n      0x03\n      add\n      exp(0x0100, 0x00)\n      dup2\n      sload\n      dup2\n      0xff\n      mul\n      not\n      and\n      swap1\n      dup4\n      0xff\n      and\n      mul\n      or\n      swap1\n      sstore\n      pop\n      pop\n      pop\n      0xa0\n      dup3\n      add\n      mload\n      dup2\n      0x0f\n      add\n      0x00\n      dup3\n      add\n      mload\n      dup2\n      0x00\n      add\n      swap1\n      dup2\n      tag_252\n      swap2\n      swap1\n      tag_222\n      jump\t// in\n    tag_252:\n      pop\n      0x20\n      dup3\n      add\n      mload\n      dup2\n      0x01\n      add\n      swap1\n      dup2\n      tag_253\n      swap2\n      swap1\n      tag_222\n      jump\t// in\n    tag_253:\n      pop\n      0x40\n      dup3\n      add\n      mload\n      dup2\n      0x02\n      add\n      swap1\n      dup2\n      tag_254\n      swap2\n      swap1\n      tag_222\n      jump\t// in\n    tag_254:\n      pop\n      0x60\n      dup3\n      add\n      mload\n      dup2\n      0x03\n      add\n      sstore\n      0x80\n      dup3\n      add\n      mload\n      dup2\n      0x04\n      add\n      swap1\n      dup2\n      tag_255\n      swap2\n      swap1\n      tag_222\n      jump\t// in\n    tag_255:\n      pop\n      pop\n      pop\n      0xc0\n      dup3\n      add\n      mload\n      dup2\n      0x14\n      add\n      0x00\n      dup3\n      add\n      mload\n      dup2\n      0x00\n      add\n      swap1\n      dup2\n      tag_256\n      swap2\n      swap1\n      tag_222\n      jump\t// in\n    tag_256:\n      pop\n      0x20\n      dup3\n      add\n      mload\n      dup2\n      0x01\n      add\n      swap1\n      dup2\n      tag_257\n      swap2\n      swap1\n      tag_222\n      jump\t// in\n    tag_257:\n      pop\n      0x40\n      dup3\n      add\n      mload\n      dup2\n      0x02\n      add\n      swap1\n      dup2\n      tag_258\n      swap2\n      swap1\n      tag_222\n      jump\t// in\n    tag_258:\n      pop\n      0x60\n      dup3\n      add\n      mload\n      dup2\n      0x03\n      add\n      sstore\n      0x80\n      dup3\n      add\n      mload\n      dup2\n      0x04\n      add\n      exp(0x0100, 0x00)\n      dup2\n      sload\n      dup2\n      0xff\n      mul\n      not\n      and\n      swap1\n      dup4\n      0xff\n      and\n      mul\n      or\n      swap1\n      sstore\n      pop\n      pop\n      pop\n      0xe0\n      dup3\n      add\n      mload\n      dup2\n      0x19\n      add\n      0x00\n      dup3\n      add\n      mload\n      dup2\n      0x00\n      add\n      swap1\n      dup2\n      tag_259\n      swap2\n      swap1\n      tag_222\n      jump\t// in\n    tag_259:\n      pop\n      0x20\n      dup3\n      add\n      mload\n      dup2\n      0x01\n      add\n      swap1\n      dup2\n      tag_260\n      swap2\n      swap1\n      tag_222\n      jump\t// in\n    tag_260:\n      pop\n      0x40\n      dup3\n      add\n      mload\n      dup2\n      0x02\n      add\n      sstore\n      0x60\n      dup3\n      add\n      mload\n      dup2\n      0x03\n      add\n      exp(0x0100, 0x00)\n      dup2\n      sload\n      dup2\n      0xff\n      mul\n      not\n      and\n      swap1\n      dup4\n      0xff\n      and\n      mul\n      or\n      swap1\n      sstore\n      pop\n      pop\n      pop\n      swap1\n      pop\n      pop\n        /* \"ticket_booking_contract/ticket_booking.sol\":3336:4294  {... */\n      pop\n      pop\n      pop\n        /* \"ticket_booking_contract/ticket_booking.sol\":3085:4294  function bookCinemaTicket(... */\n      pop\n      pop\n      pop\n      pop\n      pop\n      pop\n      pop\n      jump\t// out\n        /* \"ticket_booking_contract/ticket_booking.sol\":5658:6923  function bookRailwayTicket(... */\n    tag_37:\n        /* \"ticket_booking_contract/ticket_booking.sol\":5960:5974  bookingCounter */\n      0x00\n      dup1\n        /* \"ticket_booking_contract/ticket_booking.sol\":5960:5976  bookingCounter++ */\n      dup2\n      sload\n      dup1\n      swap3\n      swap2\n      swap1\n      tag_262\n      swap1\n      tag_216\n      jump\t// in\n    tag_262:\n      swap2\n      swap1\n      pop\n      sstore\n      pop\n        /* \"ticket_booking_contract/ticket_booking.sol\":6048:6070  UserStruct memory user */\n      0x00\n        /* \"ticket_booking_contract/ticket_booking.sol\":6073:6126  UserStruct(bookingCounter, name, age, contactDetails) */\n      mload(0x40)\n      dup1\n      0x80\n      add\n      0x40\n      mstore\n      dup1\n        /* \"ticket_booking_contract/ticket_booking.sol\":6084:6098  bookingCounter */\n      sload(0x00)\n        /* \"ticket_booking_contract/ticket_booking.sol\":6073:6126  UserStruct(bookingCounter, name, age, contactDetails) */\n      dup2\n      mstore\n      0x20\n      add\n        /* \"ticket_booking_contract/ticket_booking.sol\":6100:6104  name */\n      dup11\n        /* \"ticket_booking_contract/ticket_booking.sol\":6073:6126  UserStruct(bookingCounter, name, age, contactDetails) */\n      dup2\n      mstore\n      0x20\n      add\n        /* \"ticket_booking_contract/ticket_booking.sol\":6106:6109  age */\n      dup10\n        /* \"ticket_booking_contract/ticket_booking.sol\":6073:6126  UserStruct(bookingCounter, name, age, contactDetails) */\n      0xff\n      and\n      dup2\n      mstore\n      0x20\n      add\n        /* \"ticket_booking_contract/ticket_booking.sol\":6111:6125  contactDetails */\n      dup9\n        /* \"ticket_booking_contract/ticket_booking.sol\":6073:6126  UserStruct(bookingCounter, name, age, contactDetails) */\n      dup2\n      mstore\n      pop\n        /* \"ticket_booking_contract/ticket_booking.sol\":6048:6126  UserStruct memory user = UserStruct(bookingCounter, name, age, contactDetails) */\n      swap1\n      pop\n        /* \"ticket_booking_contract/ticket_booking.sol\":6179:6221  RailwayBookingStruct memory railwayBooking */\n      0x00\n        /* \"ticket_booking_contract/ticket_booking.sol\":6224:6305  RailwayBookingStruct(trainNumber, origin, destination, dateOfJourney, seatNumber) */\n      mload(0x40)\n      dup1\n      0xa0\n      add\n      0x40\n      mstore\n      dup1\n        /* \"ticket_booking_contract/ticket_booking.sol\":6245:6256  trainNumber */\n      dup9\n        /* \"ticket_booking_contract/ticket_booking.sol\":6224:6305  RailwayBookingStruct(trainNumber, origin, destination, dateOfJourney, seatNumber) */\n      dup2\n      mstore\n      0x20\n      add\n        /* \"ticket_booking_contract/ticket_booking.sol\":6258:6264  origin */\n      dup8\n        /* \"ticket_booking_contract/ticket_booking.sol\":6224:6305  RailwayBookingStruct(trainNumber, origin, destination, dateOfJourney, seatNumber) */\n      dup2\n      mstore\n      0x20\n      add\n        /* \"ticket_booking_contract/ticket_booking.sol\":6266:6277  destination */\n      dup7\n        /* \"ticket_booking_contract/ticket_booking.sol\":6224:6305  RailwayBookingStruct(trainNumber, origin, destination, dateOfJourney, seatNumber) */\n      dup2\n      mstore\n      0x20\n      add\n        /* \"ticket_booking_contract/ticket_booking.sol\":6279:6292  dateOfJourney */\n      dup6\n        /* \"ticket_booking_contract/ticket_booking.sol\":6224:6305  RailwayBookingStruct(trainNumber, origin, destination, dateOfJourney, seatNumber) */\n      dup2\n      mstore\n      0x20\n      add\n        /* \"ticket_booking_contract/ticket_booking.sol\":6294:6304  seatNumber */\n      dup5\n        /* \"ticket_booking_contract/ticket_booking.sol\":6224:6305  RailwayBookingStruct(trainNumber, origin, destination, dateOfJourney, seatNumber) */\n      0xff\n      and\n      dup2\n      mstore\n      pop\n        /* \"ticket_booking_contract/ticket_booking.sol\":6179:6305  RailwayBookingStruct memory railwayBooking = RailwayBookingStruct(trainNumber, origin, destination, dateOfJourney, seatNumber) */\n      swap1\n      pop\n        /* \"ticket_booking_contract/ticket_booking.sol\":6351:6382  BookingStruct memory newBooking */\n      0x00\n        /* \"ticket_booking_contract/ticket_booking.sol\":6385:6835  BookingStruct(... */\n      mload(0x40)\n      dup1\n      0x0100\n      add\n      0x40\n      mstore\n      dup1\n        /* \"ticket_booking_contract/ticket_booking.sol\":6413:6427  bookingCounter */\n      sload(0x00)\n        /* \"ticket_booking_contract/ticket_booking.sol\":6385:6835  BookingStruct(... */\n      dup2\n      mstore\n      0x20\n      add\n        /* \"ticket_booking_contract/ticket_booking.sol\":6442:6461  BookingType.Railway */\n      0x03\n        /* \"ticket_booking_contract/ticket_booking.sol\":6385:6835  BookingStruct(... */\n      0x04\n      dup2\n      gt\n      iszero\n      tag_263\n      jumpi\n      tag_264\n      tag_131\n      jump\t// in\n    tag_264:\n    tag_263:\n      dup2\n      mstore\n      0x20\n      add\n        /* \"ticket_booking_contract/ticket_booking.sol\":6476:6480  user */\n      dup5\n        /* \"ticket_booking_contract/ticket_booking.sol\":6385:6835  BookingStruct(... */\n      dup2\n      mstore\n      0x20\n      add\n        /* \"ticket_booking_contract/ticket_booking.sol\":6495:6529  BusBookingStruct(\"\", \"\", \"\", 0, 0) */\n      mload(0x40)\n      dup1\n      0xa0\n      add\n      0x40\n      mstore\n      dup1\n      mload(0x40)\n      dup1\n      0x20\n      add\n      0x40\n      mstore\n      dup1\n      0x00\n      dup2\n      mstore\n      pop\n      dup2\n      mstore\n      0x20\n      add\n      mload(0x40)\n      dup1\n      0x20\n      add\n      0x40\n      mstore\n      dup1\n      0x00\n      dup2\n      mstore\n      pop\n      dup2\n      mstore\n      0x20\n      add\n      mload(0x40)\n      dup1\n      0x20\n      add\n      0x40\n      mstore\n      dup1\n      0x00\n      dup2\n      mstore\n      pop\n      dup2\n      mstore\n      0x20\n      add\n        /* \"ticket_booking_contract/ticket_booking.sol\":6524:6525  0 */\n      0x00\n        /* \"ticket_booking_contract/ticket_booking.sol\":6495:6529  BusBookingStruct(\"\", \"\", \"\", 0, 0) */\n      dup2\n      mstore\n      0x20\n      add\n        /* \"ticket_booking_contract/ticket_booking.sol\":6527:6528  0 */\n      0x00\n        /* \"ticket_booking_contract/ticket_booking.sol\":6495:6529  BusBookingStruct(\"\", \"\", \"\", 0, 0) */\n      0xff\n      and\n      dup2\n      mstore\n      pop\n        /* \"ticket_booking_contract/ticket_booking.sol\":6385:6835  BookingStruct(... */\n      dup2\n      mstore\n      0x20\n      add\n        /* \"ticket_booking_contract/ticket_booking.sol\":6570:6603  CinemaBookingStruct(\"\", \"\", 0, 0) */\n      mload(0x40)\n      dup1\n      0x80\n      add\n      0x40\n      mstore\n      dup1\n      mload(0x40)\n      dup1\n      0x20\n      add\n      0x40\n      mstore\n      dup1\n      0x00\n      dup2\n      mstore\n      pop\n      dup2\n      mstore\n      0x20\n      add\n      mload(0x40)\n      dup1\n      0x20\n      add\n      0x40\n      mstore\n      dup1\n      0x00\n      dup2\n      mstore\n      pop\n      dup2\n      mstore\n      0x20\n      add\n        /* \"ticket_booking_contract/ticket_booking.sol\":6598:6599  0 */\n      0x00\n        /* \"ticket_booking_contract/ticket_booking.sol\":6570:6603  CinemaBookingStruct(\"\", \"\", 0, 0) */\n      dup2\n      mstore\n      0x20\n      add\n        /* \"ticket_booking_contract/ticket_booking.sol\":6601:6602  0 */\n      0x00\n        /* \"ticket_booking_contract/ticket_booking.sol\":6570:6603  CinemaBookingStruct(\"\", \"\", 0, 0) */\n      0xff\n      and\n      dup2\n      mstore\n      pop\n        /* \"ticket_booking_contract/ticket_booking.sol\":6385:6835  BookingStruct(... */\n      dup2\n      mstore\n      0x20\n      add\n        /* \"ticket_booking_contract/ticket_booking.sol\":6647:6686  AirlineBookingStruct(\"\", \"\", \"\", 0, \"\") */\n      mload(0x40)\n      dup1\n      0xa0\n      add\n      0x40\n      mstore\n      dup1\n      mload(0x40)\n      dup1\n      0x20\n      add\n      0x40\n      mstore\n      dup1\n      0x00\n      dup2\n      mstore\n      pop\n      dup2\n      mstore\n      0x20\n      add\n      mload(0x40)\n      dup1\n      0x20\n      add\n      0x40\n      mstore\n      dup1\n      0x00\n      dup2\n      mstore\n      pop\n      dup2\n      mstore\n      0x20\n      add\n      mload(0x40)\n      dup1\n      0x20\n      add\n      0x40\n      mstore\n      dup1\n      0x00\n      dup2\n      mstore\n      pop\n      dup2\n      mstore\n      0x20\n      add\n        /* \"ticket_booking_contract/ticket_booking.sol\":6680:6681  0 */\n      0x00\n        /* \"ticket_booking_contract/ticket_booking.sol\":6647:6686  AirlineBookingStruct(\"\", \"\", \"\", 0, \"\") */\n      dup2\n      mstore\n      0x20\n      add\n      mload(0x40)\n      dup1\n      0x20\n      add\n      0x40\n      mstore\n      dup1\n      0x00\n      dup2\n      mstore\n      pop\n      dup2\n      mstore\n      pop\n        /* \"ticket_booking_contract/ticket_booking.sol\":6385:6835  BookingStruct(... */\n      dup2\n      mstore\n      0x20\n      add\n        /* \"ticket_booking_contract/ticket_booking.sol\":6731:6745  railwayBooking */\n      dup4\n        /* \"ticket_booking_contract/ticket_booking.sol\":6385:6835  BookingStruct(... */\n      dup2\n      mstore\n      0x20\n      add\n        /* \"ticket_booking_contract/ticket_booking.sol\":6760:6794  CricketBookingStruct(\"\", \"\", 0, 0) */\n      mload(0x40)\n      dup1\n      0x80\n      add\n      0x40\n      mstore\n      dup1\n      mload(0x40)\n      dup1\n      0x20\n      add\n      0x40\n      mstore\n      dup1\n      0x00\n      dup2\n      mstore\n      pop\n      dup2\n      mstore\n      0x20\n      add\n      mload(0x40)\n      dup1\n      0x20\n      add\n      0x40\n      mstore\n      dup1\n      0x00\n      dup2\n      mstore\n      pop\n      dup2\n      mstore\n      0x20\n      add\n        /* \"ticket_booking_contract/ticket_booking.sol\":6789:6790  0 */\n      0x00\n        /* \"ticket_booking_contract/ticket_booking.sol\":6760:6794  CricketBookingStruct(\"\", \"\", 0, 0) */\n      dup2\n      mstore\n      0x20\n      add\n        /* \"ticket_booking_contract/ticket_booking.sol\":6792:6793  0 */\n      0x00\n        /* \"ticket_booking_contract/ticket_booking.sol\":6760:6794  CricketBookingStruct(\"\", \"\", 0, 0) */\n      0xff\n      and\n      dup2\n      mstore\n      pop\n        /* \"ticket_booking_contract/ticket_booking.sol\":6385:6835  BookingStruct(... */\n      dup2\n      mstore\n      pop\n        /* \"ticket_booking_contract/ticket_booking.sol\":6351:6835  BookingStruct memory newBooking = BookingStruct(... */\n      swap1\n      pop\n        /* \"ticket_booking_contract/ticket_booking.sol\":6905:6915  newBooking */\n      dup1\n        /* \"ticket_booking_contract/ticket_booking.sol\":6878:6886  bookings */\n      0x01\n        /* \"ticket_booking_contract/ticket_booking.sol\":6878:6902  bookings[bookingCounter] */\n      0x00\n        /* \"ticket_booking_contract/ticket_booking.sol\":6887:6901  bookingCounter */\n      dup1\n      sload\n        /* \"ticket_booking_contract/ticket_booking.sol\":6878:6902  bookings[bookingCounter] */\n      dup2\n      mstore\n      0x20\n      add\n      swap1\n      dup2\n      mstore\n      0x20\n      add\n      0x00\n      keccak256\n        /* \"ticket_booking_contract/ticket_booking.sol\":6878:6915  bookings[bookingCounter] = newBooking */\n      0x00\n      dup3\n      add\n      mload\n      dup2\n      0x00\n      add\n      sstore\n      0x20\n      dup3\n      add\n      mload\n      dup2\n      0x01\n      add\n      exp(0x0100, 0x00)\n      dup2\n      sload\n      dup2\n      0xff\n      mul\n      not\n      and\n      swap1\n      dup4\n      0x04\n      dup2\n      gt\n      iszero\n      tag_265\n      jumpi\n      tag_266\n      tag_131\n      jump\t// in\n    tag_266:\n    tag_265:\n      mul\n      or\n      swap1\n      sstore\n      pop\n      0x40\n      dup3\n      add\n      mload\n      dup2\n      0x02\n      add\n      0x00\n      dup3\n      add\n      mload\n      dup2\n      0x00\n      add\n      sstore\n      0x20\n      dup3\n      add\n      mload\n      dup2\n      0x01\n      add\n      swap1\n      dup2\n      tag_267\n      swap2\n      swap1\n      tag_222\n      jump\t// in\n    tag_267:\n      pop\n      0x40\n      dup3\n      add\n      mload\n      dup2\n      0x02\n      add\n      exp(0x0100, 0x00)\n      dup2\n      sload\n      dup2\n      0xff\n      mul\n      not\n      and\n      swap1\n      dup4\n      0xff\n      and\n      mul\n      or\n      swap1\n      sstore\n      pop\n      0x60\n      dup3\n      add\n      mload\n      dup2\n      0x03\n      add\n      swap1\n      dup2\n      tag_268\n      swap2\n      swap1\n      tag_222\n      jump\t// in\n    tag_268:\n      pop\n      pop\n      pop\n      0x60\n      dup3\n      add\n      mload\n      dup2\n      0x06\n      add\n      0x00\n      dup3\n      add\n      mload\n      dup2\n      0x00\n      add\n      swap1\n      dup2\n      tag_269\n      swap2\n      swap1\n      tag_222\n      jump\t// in\n    tag_269:\n      pop\n      0x20\n      dup3\n      add\n      mload\n      dup2\n      0x01\n      add\n      swap1\n      dup2\n      tag_270\n      swap2\n      swap1\n      tag_222\n      jump\t// in\n    tag_270:\n      pop\n      0x40\n      dup3\n      add\n      mload\n      dup2\n      0x02\n      add\n      swap1\n      dup2\n      tag_271\n      swap2\n      swap1\n      tag_222\n      jump\t// in\n    tag_271:\n      pop\n      0x60\n      dup3\n      add\n      mload\n      dup2\n      0x03\n      add\n      sstore\n      0x80\n      dup3\n      add\n      mload\n      dup2\n      0x04\n      add\n      exp(0x0100, 0x00)\n      dup2\n      sload\n      dup2\n      0xff\n      mul\n      not\n      and\n      swap1\n      dup4\n      0xff\n      and\n      mul\n      or\n      swap1\n      sstore\n      pop\n      pop\n      pop\n      0x80\n      dup3\n      add\n      mload\n      dup2\n      0x0b\n      add\n      0x00\n      dup3\n      add\n      mload\n      dup2\n      0x00\n      add\n      swap1\n      dup2\n      tag_272\n      swap2\n      swap1\n      tag_222\n      jump\t// in\n    tag_272:\n      pop\n      0x20\n      dup3\n      add\n      mload\n      dup2\n      0x01\n      add\n      swap1\n      dup2\n      tag_273\n      swap2\n      swap1\n      tag_222\n      jump\t// in\n    tag_273:\n      pop\n      0x40\n      dup3\n      add\n      mload\n      dup2\n      0x02\n      add\n      sstore\n      0x60\n      dup3\n      add\n      mload\n      dup2\n      0x03\n      add\n      exp(0x0100, 0x00)\n      dup2\n      sload\n      dup2\n      0xff\n      mul\n      not\n      and\n      swap1\n      dup4\n      0xff\n      and\n      mul\n      or\n      swap1\n      sstore\n      pop\n      pop\n      pop\n      0xa0\n      dup3\n      add\n      mload\n      dup2\n      0x0f\n      add\n      0x00\n      dup3\n      add\n      mload\n      dup2\n      0x00\n      add\n      swap1\n      dup2\n      tag_274\n      swap2\n      swap1\n      tag_222\n      jump\t// in\n    tag_274:\n      pop\n      0x20\n      dup3\n      add\n      mload\n      dup2\n      0x01\n      add\n      swap1\n      dup2\n      tag_275\n      swap2\n      swap1\n      tag_222\n      jump\t// in\n    tag_275:\n      pop\n      0x40\n      dup3\n      add\n      mload\n      dup2\n      0x02\n      add\n      swap1\n      dup2\n      tag_276\n      swap2\n      swap1\n      tag_222\n      jump\t// in\n    tag_276:\n      pop\n      0x60\n      dup3\n      add\n      mload\n      dup2\n      0x03\n      add\n      sstore\n      0x80\n      dup3\n      add\n      mload\n      dup2\n      0x04\n      add\n      swap1\n      dup2\n      tag_277\n      swap2\n      swap1\n      tag_222\n      jump\t// in\n    tag_277:\n      pop\n      pop\n      pop\n      0xc0\n      dup3\n      add\n      mload\n      dup2\n      0x14\n      add\n      0x00\n      dup3\n      add\n      mload\n      dup2\n      0x00\n      add\n      swap1\n      dup2\n      tag_278\n      swap2\n      swap1\n      tag_222\n      jump\t// in\n    tag_278:\n      pop\n      0x20\n      dup3\n      add\n      mload\n      dup2\n      0x01\n      add\n      swap1\n      dup2\n      tag_279\n      swap2\n      swap1\n      tag_222\n      jump\t// in\n    tag_279:\n      pop\n      0x40\n      dup3\n      add\n      mload\n      dup2\n      0x02\n      add\n      swap1\n      dup2\n      tag_280\n      swap2\n      swap1\n      tag_222\n      jump\t// in\n    tag_280:\n      pop\n      0x60\n      dup3\n      add\n      mload\n      dup2\n      0x03\n      add\n      sstore\n      0x80\n      dup3\n      add\n      mload\n      dup2\n      0x04\n      add\n      exp(0x0100, 0x00)\n      dup2\n      sload\n      dup2\n      0xff\n      mul\n      not\n      and\n      swap1\n      dup4\n      0xff\n      and\n      mul\n      or\n      swap1\n      sstore\n      pop\n      pop\n      pop\n      0xe0\n      dup3\n      add\n      mload\n      dup2\n      0x19\n      add\n      0x00\n      dup3\n      add\n      mload\n      dup2\n      0x00\n      add\n      swap1\n      dup2\n      tag_281\n      swap2\n      swap1\n      tag_222\n      jump\t// in\n    tag_281:\n      pop\n      0x20\n      dup3\n      add\n      mload\n      dup2\n      0x01\n      add\n      swap1\n      dup2\n      tag_282\n      swap2\n      swap1\n      tag_222\n      jump\t// in\n    tag_282:\n      pop\n      0x40\n      dup3\n      add\n      mload\n      dup2\n      0x02\n      add\n      sstore\n      0x60\n      dup3\n      add\n      mload\n      dup2\n      0x03\n      add\n      exp(0x0100, 0x00)\n      dup2\n      sload\n      dup2\n      0xff\n      mul\n      not\n      and\n      swap1\n      dup4\n      0xff\n      and\n      mul\n      or\n      swap1\n      sstore\n      pop\n      pop\n      pop\n      swap1\n      pop\n      pop\n        /* \"ticket_booking_contract/ticket_booking.sol\":5949:6923  {... */\n      pop\n      pop\n      pop\n        /* \"ticket_booking_contract/ticket_booking.sol\":5658:6923  function bookRailwayTicket(... */\n      pop\n      pop\n      pop\n      pop\n      pop\n      pop\n      pop\n      pop\n      jump\t// out\n        /* \"ticket_booking_contract/ticket_booking.sol\":4340:5612  function bookAirlineTicket(... */\n    tag_41:\n        /* \"ticket_booking_contract/ticket_booking.sol\":4650:4664  bookingCounter */\n      0x00\n      dup1\n        /* \"ticket_booking_contract/ticket_booking.sol\":4650:4666  bookingCounter++ */\n      dup2\n      sload\n      dup1\n      swap3\n      swap2\n      swap1\n      tag_284\n      swap1\n      tag_216\n      jump\t// in\n    tag_284:\n      swap2\n      swap1\n      pop\n      sstore\n      pop\n        /* \"ticket_booking_contract/ticket_booking.sol\":4738:4760  UserStruct memory user */\n      0x00\n        /* \"ticket_booking_contract/ticket_booking.sol\":4763:4816  UserStruct(bookingCounter, name, age, contactDetails) */\n      mload(0x40)\n      dup1\n      0x80\n      add\n      0x40\n      mstore\n      dup1\n        /* \"ticket_booking_contract/ticket_booking.sol\":4774:4788  bookingCounter */\n      sload(0x00)\n        /* \"ticket_booking_contract/ticket_booking.sol\":4763:4816  UserStruct(bookingCounter, name, age, contactDetails) */\n      dup2\n      mstore\n      0x20\n      add\n        /* \"ticket_booking_contract/ticket_booking.sol\":4790:4794  name */\n      dup11\n        /* \"ticket_booking_contract/ticket_booking.sol\":4763:4816  UserStruct(bookingCounter, name, age, contactDetails) */\n      dup2\n      mstore\n      0x20\n      add\n        /* \"ticket_booking_contract/ticket_booking.sol\":4796:4799  age */\n      dup10\n        /* \"ticket_booking_contract/ticket_booking.sol\":4763:4816  UserStruct(bookingCounter, name, age, contactDetails) */\n      0xff\n      and\n      dup2\n      mstore\n      0x20\n      add\n        /* \"ticket_booking_contract/ticket_booking.sol\":4801:4815  contactDetails */\n      dup9\n        /* \"ticket_booking_contract/ticket_booking.sol\":4763:4816  UserStruct(bookingCounter, name, age, contactDetails) */\n      dup2\n      mstore\n      pop\n        /* \"ticket_booking_contract/ticket_booking.sol\":4738:4816  UserStruct memory user = UserStruct(bookingCounter, name, age, contactDetails) */\n      swap1\n      pop\n        /* \"ticket_booking_contract/ticket_booking.sol\":4869:4911  AirlineBookingStruct memory airlineBooking */\n      0x00\n        /* \"ticket_booking_contract/ticket_booking.sol\":4914:4995  AirlineBookingStruct(flightNumber, origin, destination, dateOfJourney, seatClass) */\n      mload(0x40)\n      dup1\n      0xa0\n      add\n      0x40\n      mstore\n      dup1\n        /* \"ticket_booking_contract/ticket_booking.sol\":4935:4947  flightNumber */\n      dup9\n        /* \"ticket_booking_contract/ticket_booking.sol\":4914:4995  AirlineBookingStruct(flightNumber, origin, destination, dateOfJourney, seatClass) */\n      dup2\n      mstore\n      0x20\n      add\n        /* \"ticket_booking_contract/ticket_booking.sol\":4949:4955  origin */\n      dup8\n        /* \"ticket_booking_contract/ticket_booking.sol\":4914:4995  AirlineBookingStruct(flightNumber, origin, destination, dateOfJourney, seatClass) */\n      dup2\n      mstore\n      0x20\n      add\n        /* \"ticket_booking_contract/ticket_booking.sol\":4957:4968  destination */\n      dup7\n        /* \"ticket_booking_contract/ticket_booking.sol\":4914:4995  AirlineBookingStruct(flightNumber, origin, destination, dateOfJourney, seatClass) */\n      dup2\n      mstore\n      0x20\n      add\n        /* \"ticket_booking_contract/ticket_booking.sol\":4970:4983  dateOfJourney */\n      dup6\n        /* \"ticket_booking_contract/ticket_booking.sol\":4914:4995  AirlineBookingStruct(flightNumber, origin, destination, dateOfJourney, seatClass) */\n      dup2\n      mstore\n      0x20\n      add\n        /* \"ticket_booking_contract/ticket_booking.sol\":4985:4994  seatClass */\n      dup5\n        /* \"ticket_booking_contract/ticket_booking.sol\":4914:4995  AirlineBookingStruct(flightNumber, origin, destination, dateOfJourney, seatClass) */\n      dup2\n      mstore\n      pop\n        /* \"ticket_booking_contract/ticket_booking.sol\":4869:4995  AirlineBookingStruct memory airlineBooking = AirlineBookingStruct(flightNumber, origin, destination, dateOfJourney, seatClass) */\n      swap1\n      pop\n        /* \"ticket_booking_contract/ticket_booking.sol\":5041:5072  BookingStruct memory newBooking */\n      0x00\n        /* \"ticket_booking_contract/ticket_booking.sol\":5075:5524  BookingStruct(... */\n      mload(0x40)\n      dup1\n      0x0100\n      add\n      0x40\n      mstore\n      dup1\n        /* \"ticket_booking_contract/ticket_booking.sol\":5103:5117  bookingCounter */\n      sload(0x00)\n        /* \"ticket_booking_contract/ticket_booking.sol\":5075:5524  BookingStruct(... */\n      dup2\n      mstore\n      0x20\n      add\n        /* \"ticket_booking_contract/ticket_booking.sol\":5132:5151  BookingType.Airline */\n      0x02\n        /* \"ticket_booking_contract/ticket_booking.sol\":5075:5524  BookingStruct(... */\n      0x04\n      dup2\n      gt\n      iszero\n      tag_285\n      jumpi\n      tag_286\n      tag_131\n      jump\t// in\n    tag_286:\n    tag_285:\n      dup2\n      mstore\n      0x20\n      add\n        /* \"ticket_booking_contract/ticket_booking.sol\":5166:5170  user */\n      dup5\n        /* \"ticket_booking_contract/ticket_booking.sol\":5075:5524  BookingStruct(... */\n      dup2\n      mstore\n      0x20\n      add\n        /* \"ticket_booking_contract/ticket_booking.sol\":5185:5219  BusBookingStruct(\"\", \"\", \"\", 0, 0) */\n      mload(0x40)\n      dup1\n      0xa0\n      add\n      0x40\n      mstore\n      dup1\n      mload(0x40)\n      dup1\n      0x20\n      add\n      0x40\n      mstore\n      dup1\n      0x00\n      dup2\n      mstore\n      pop\n      dup2\n      mstore\n      0x20\n      add\n      mload(0x40)\n      dup1\n      0x20\n      add\n      0x40\n      mstore\n      dup1\n      0x00\n      dup2\n      mstore\n      pop\n      dup2\n      mstore\n      0x20\n      add\n      mload(0x40)\n      dup1\n      0x20\n      add\n      0x40\n      mstore\n      dup1\n      0x00\n      dup2\n      mstore\n      pop\n      dup2\n      mstore\n      0x20\n      add\n        /* \"ticket_booking_contract/ticket_booking.sol\":5214:5215  0 */\n      0x00\n        /* \"ticket_booking_contract/ticket_booking.sol\":5185:5219  BusBookingStruct(\"\", \"\", \"\", 0, 0) */\n      dup2\n      mstore\n      0x20\n      add\n        /* \"ticket_booking_contract/ticket_booking.sol\":5217:5218  0 */\n      0x00\n        /* \"ticket_booking_contract/ticket_booking.sol\":5185:5219  BusBookingStruct(\"\", \"\", \"\", 0, 0) */\n      0xff\n      and\n      dup2\n      mstore\n      pop\n        /* \"ticket_booking_contract/ticket_booking.sol\":5075:5524  BookingStruct(... */\n      dup2\n      mstore\n      0x20\n      add\n        /* \"ticket_booking_contract/ticket_booking.sol\":5260:5293  CinemaBookingStruct(\"\", \"\", 0, 0) */\n      mload(0x40)\n      dup1\n      0x80\n      add\n      0x40\n      mstore\n      dup1\n      mload(0x40)\n      dup1\n      0x20\n      add\n      0x40\n      mstore\n      dup1\n      0x00\n      dup2\n      mstore\n      pop\n      dup2\n      mstore\n      0x20\n      add\n      mload(0x40)\n      dup1\n      0x20\n      add\n      0x40\n      mstore\n      dup1\n      0x00\n      dup2\n      mstore\n      pop\n      dup2\n      mstore\n      0x20\n      add\n        /* \"ticket_booking_contract/ticket_booking.sol\":5288:5289  0 */\n      0x00\n        /* \"ticket_booking_contract/ticket_booking.sol\":5260:5293  CinemaBookingStruct(\"\", \"\", 0, 0) */\n      dup2\n      mstore\n      0x20\n      add\n        /* \"ticket_booking_contract/ticket_booking.sol\":5291:5292  0 */\n      0x00\n        /* \"ticket_booking_contract/ticket_booking.sol\":5260:5293  CinemaBookingStruct(\"\", \"\", 0, 0) */\n      0xff\n      and\n      dup2\n      mstore\n      pop\n        /* \"ticket_booking_contract/ticket_booking.sol\":5075:5524  BookingStruct(... */\n      dup2\n      mstore\n      0x20\n      add\n        /* \"ticket_booking_contract/ticket_booking.sol\":5337:5351  airlineBooking */\n      dup4\n        /* \"ticket_booking_contract/ticket_booking.sol\":5075:5524  BookingStruct(... */\n      dup2\n      mstore\n      0x20\n      add\n        /* \"ticket_booking_contract/ticket_booking.sol\":5366:5404  RailwayBookingStruct(\"\", \"\", \"\", 0, 0) */\n      mload(0x40)\n      dup1\n      0xa0\n      add\n      0x40\n      mstore\n      dup1\n      mload(0x40)\n      dup1\n      0x20\n      add\n      0x40\n      mstore\n      dup1\n      0x00\n      dup2\n      mstore\n      pop\n      dup2\n      mstore\n      0x20\n      add\n      mload(0x40)\n      dup1\n      0x20\n      add\n      0x40\n      mstore\n      dup1\n      0x00\n      dup2\n      mstore\n      pop\n      dup2\n      mstore\n      0x20\n      add\n      mload(0x40)\n      dup1\n      0x20\n      add\n      0x40\n      mstore\n      dup1\n      0x00\n      dup2\n      mstore\n      pop\n      dup2\n      mstore\n      0x20\n      add\n        /* \"ticket_booking_contract/ticket_booking.sol\":5399:5400  0 */\n      0x00\n        /* \"ticket_booking_contract/ticket_booking.sol\":5366:5404  RailwayBookingStruct(\"\", \"\", \"\", 0, 0) */\n      dup2\n      mstore\n      0x20\n      add\n        /* \"ticket_booking_contract/ticket_booking.sol\":5402:5403  0 */\n      0x00\n        /* \"ticket_booking_contract/ticket_booking.sol\":5366:5404  RailwayBookingStruct(\"\", \"\", \"\", 0, 0) */\n      0xff\n      and\n      dup2\n      mstore\n      pop\n        /* \"ticket_booking_contract/ticket_booking.sol\":5075:5524  BookingStruct(... */\n      dup2\n      mstore\n      0x20\n      add\n        /* \"ticket_booking_contract/ticket_booking.sol\":5449:5483  CricketBookingStruct(\"\", \"\", 0, 0) */\n      mload(0x40)\n      dup1\n      0x80\n      add\n      0x40\n      mstore\n      dup1\n      mload(0x40)\n      dup1\n      0x20\n      add\n      0x40\n      mstore\n      dup1\n      0x00\n      dup2\n      mstore\n      pop\n      dup2\n      mstore\n      0x20\n      add\n      mload(0x40)\n      dup1\n      0x20\n      add\n      0x40\n      mstore\n      dup1\n      0x00\n      dup2\n      mstore\n      pop\n      dup2\n      mstore\n      0x20\n      add\n        /* \"ticket_booking_contract/ticket_booking.sol\":5478:5479  0 */\n      0x00\n        /* \"ticket_booking_contract/ticket_booking.sol\":5449:5483  CricketBookingStruct(\"\", \"\", 0, 0) */\n      dup2\n      mstore\n      0x20\n      add\n        /* \"ticket_booking_contract/ticket_booking.sol\":5481:5482  0 */\n      0x00\n        /* \"ticket_booking_contract/ticket_booking.sol\":5449:5483  CricketBookingStruct(\"\", \"\", 0, 0) */\n      0xff\n      and\n      dup2\n      mstore\n      pop\n        /* \"ticket_booking_contract/ticket_booking.sol\":5075:5524  BookingStruct(... */\n      dup2\n      mstore\n      pop\n        /* \"ticket_booking_contract/ticket_booking.sol\":5041:5524  BookingStruct memory newBooking = BookingStruct(... */\n      swap1\n      pop\n        /* \"ticket_booking_contract/ticket_booking.sol\":5594:5604  newBooking */\n      dup1\n        /* \"ticket_booking_contract/ticket_booking.sol\":5567:5575  bookings */\n      0x01\n        /* \"ticket_booking_contract/ticket_booking.sol\":5567:5591  bookings[bookingCounter] */\n      0x00\n        /* \"ticket_booking_contract/ticket_booking.sol\":5576:5590  bookingCounter */\n      dup1\n      sload\n        /* \"ticket_booking_contract/ticket_booking.sol\":5567:5591  bookings[bookingCounter] */\n      dup2\n      mstore\n      0x20\n      add\n      swap1\n      dup2\n      mstore\n      0x20\n      add\n      0x00\n      keccak256\n        /* \"ticket_booking_contract/ticket_booking.sol\":5567:5604  bookings[bookingCounter] = newBooking */\n      0x00\n      dup3\n      add\n      mload\n      dup2\n      0x00\n      add\n      sstore\n      0x20\n      dup3\n      add\n      mload\n      dup2\n      0x01\n      add\n      exp(0x0100, 0x00)\n      dup2\n      sload\n      dup2\n      0xff\n      mul\n      not\n      and\n      swap1\n      dup4\n      0x04\n      dup2\n      gt\n      iszero\n      tag_287\n      jumpi\n      tag_288\n      tag_131\n      jump\t// in\n    tag_288:\n    tag_287:\n      mul\n      or\n      swap1\n      sstore\n      pop\n      0x40\n      dup3\n      add\n      mload\n      dup2\n      0x02\n      add\n      0x00\n      dup3\n      add\n      mload\n      dup2\n      0x00\n      add\n      sstore\n      0x20\n      dup3\n      add\n      mload\n      dup2\n      0x01\n      add\n      swap1\n      dup2\n      tag_289\n      swap2\n      swap1\n      tag_222\n      jump\t// in\n    tag_289:\n      pop\n      0x40\n      dup3\n      add\n      mload\n      dup2\n      0x02\n      add\n      exp(0x0100, 0x00)\n      dup2\n      sload\n      dup2\n      0xff\n      mul\n      not\n      and\n      swap1\n      dup4\n      0xff\n      and\n      mul\n      or\n      swap1\n      sstore\n      pop\n      0x60\n      dup3\n      add\n      mload\n      dup2\n      0x03\n      add\n      swap1\n      dup2\n      tag_290\n      swap2\n      swap1\n      tag_222\n      jump\t// in\n    tag_290:\n      pop\n      pop\n      pop\n      0x60\n      dup3\n      add\n      mload\n      dup2\n      0x06\n      add\n      0x00\n      dup3\n      add\n      mload\n      dup2\n      0x00\n      add\n      swap1\n      dup2\n      tag_291\n      swap2\n      swap1\n      tag_222\n      jump\t// in\n    tag_291:\n      pop\n      0x20\n      dup3\n      add\n      mload\n      dup2\n      0x01\n      add\n      swap1\n      dup2\n      tag_292\n      swap2\n      swap1\n      tag_222\n      jump\t// in\n    tag_292:\n      pop\n      0x40\n      dup3\n      add\n      mload\n      dup2\n      0x02\n      add\n      swap1\n      dup2\n      tag_293\n      swap2\n      swap1\n      tag_222\n      jump\t// in\n    tag_293:\n      pop\n      0x60\n      dup3\n      add\n      mload\n      dup2\n      0x03\n      add\n      sstore\n      0x80\n      dup3\n      add\n      mload\n      dup2\n      0x04\n      add\n      exp(0x0100, 0x00)\n      dup2\n      sload\n      dup2\n      0xff\n      mul\n      not\n      and\n      swap1\n      dup4\n      0xff\n      and\n      mul\n      or\n      swap1\n      sstore\n      pop\n      pop\n      pop\n      0x80\n      dup3\n      add\n      mload\n      dup2\n      0x0b\n      add\n      0x00\n      dup3\n      add\n      mload\n      dup2\n      0x00\n      add\n      swap1\n      dup2\n      tag_294\n      swap2\n      swap1\n      tag_222\n      jump\t// in\n    tag_294:\n      pop\n      0x20\n      dup3\n      add\n      mload\n      dup2\n      0x01\n      add\n      swap1\n      dup2\n      tag_295\n      swap2\n      swap1\n      tag_222\n      jump\t// in\n    tag_295:\n      pop\n      0x40\n      dup3\n      add\n      mload\n      dup2\n      0x02\n      add\n      sstore\n      0x60\n      dup3\n      add\n      mload\n      dup2\n      0x03\n      add\n      exp(0x0100, 0x00)\n      dup2\n      sload\n      dup2\n      0xff\n      mul\n      not\n      and\n      swap1\n      dup4\n      0xff\n      and\n      mul\n      or\n      swap1\n      sstore\n      pop\n      pop\n      pop\n      0xa0\n      dup3\n      add\n      mload\n      dup2\n      0x0f\n      add\n      0x00\n      dup3\n      add\n      mload\n      dup2\n      0x00\n      add\n      swap1\n      dup2\n      tag_296\n      swap2\n      swap1\n      tag_222\n      jump\t// in\n    tag_296:\n      pop\n      0x20\n      dup3\n      add\n      mload\n      dup2\n      0x01\n      add\n      swap1\n      dup2\n      tag_297\n      swap2\n      swap1\n      tag_222\n      jump\t// in\n    tag_297:\n      pop\n      0x40\n      dup3\n      add\n      mload\n      dup2\n      0x02\n      add\n      swap1\n      dup2\n      tag_298\n      swap2\n      swap1\n      tag_222\n      jump\t// in\n    tag_298:\n      pop\n      0x60\n      dup3\n      add\n      mload\n      dup2\n      0x03\n      add\n      sstore\n      0x80\n      dup3\n      add\n      mload\n      dup2\n      0x04\n      add\n      swap1\n      dup2\n      tag_299\n      swap2\n      swap1\n      tag_222\n      jump\t// in\n    tag_299:\n      pop\n      pop\n      pop\n      0xc0\n      dup3\n      add\n      mload\n      dup2\n      0x14\n      add\n      0x00\n      dup3\n      add\n      mload\n      dup2\n      0x00\n      add\n      swap1\n      dup2\n      tag_300\n      swap2\n      swap1\n      tag_222\n      jump\t// in\n    tag_300:\n      pop\n      0x20\n      dup3\n      add\n      mload\n      dup2\n      0x01\n      add\n      swap1\n      dup2\n      tag_301\n      swap2\n      swap1\n      tag_222\n      jump\t// in\n    tag_301:\n      pop\n      0x40\n      dup3\n      add\n      mload\n      dup2\n      0x02\n      add\n      swap1\n      dup2\n      tag_302\n      swap2\n      swap1\n      tag_222\n      jump\t// in\n    tag_302:\n      pop\n      0x60\n      dup3\n      add\n      mload\n      dup2\n      0x03\n      add\n      sstore\n      0x80\n      dup3\n      add\n      mload\n      dup2\n      0x04\n      add\n      exp(0x0100, 0x00)\n      dup2\n      sload\n      dup2\n      0xff\n      mul\n      not\n      and\n      swap1\n      dup4\n      0xff\n      and\n      mul\n      or\n      swap1\n      sstore\n      pop\n      pop\n      pop\n      0xe0\n      dup3\n      add\n      mload\n      dup2\n      0x19\n      add\n      0x00\n      dup3\n      add\n      mload\n      dup2\n      0x00\n      add\n      swap1\n      dup2\n      tag_303\n      swap2\n      swap1\n      tag_222\n      jump\t// in\n    tag_303:\n      pop\n      0x20\n      dup3\n      add\n      mload\n      dup2\n      0x01\n      add\n      swap1\n      dup2\n      tag_304\n      swap2\n      swap1\n      tag_222\n      jump\t// in\n    tag_304:\n      pop\n      0x40\n      dup3\n      add\n      mload\n      dup2\n      0x02\n      add\n      sstore\n      0x60\n      dup3\n      add\n      mload\n      dup2\n      0x03\n      add\n      exp(0x0100, 0x00)\n      dup2\n      sload\n      dup2\n      0xff\n      mul\n      not\n      and\n      swap1\n      dup4\n      0xff\n      and\n      mul\n      or\n      swap1\n      sstore\n      pop\n      pop\n      pop\n      swap1\n      pop\n      pop\n        /* \"ticket_booking_contract/ticket_booking.sol\":4639:5612  {... */\n      pop\n      pop\n      pop\n        /* \"ticket_booking_contract/ticket_booking.sol\":4340:5612  function bookAirlineTicket(... */\n      pop\n      pop\n      pop\n      pop\n      pop\n      pop\n      pop\n      pop\n      jump\t// out\n        /* \"ticket_booking_contract/ticket_booking.sol\":6969:8185  function bookCricketTicket(... */\n    tag_44:\n        /* \"ticket_booking_contract/ticket_booking.sol\":7233:7247  bookingCounter */\n      0x00\n      dup1\n        /* \"ticket_booking_contract/ticket_booking.sol\":7233:7249  bookingCounter++ */\n      dup2\n      sload\n      dup1\n      swap3\n      swap2\n      swap1\n      tag_306\n      swap1\n      tag_216\n      jump\t// in\n    tag_306:\n      swap2\n      swap1\n      pop\n      sstore\n      pop\n        /* \"ticket_booking_contract/ticket_booking.sol\":7321:7343  UserStruct memory user */\n      0x00\n        /* \"ticket_booking_contract/ticket_booking.sol\":7346:7399  UserStruct(bookingCounter, name, age, contactDetails) */\n      mload(0x40)\n      dup1\n      0x80\n      add\n      0x40\n      mstore\n      dup1\n        /* \"ticket_booking_contract/ticket_booking.sol\":7357:7371  bookingCounter */\n      sload(0x00)\n        /* \"ticket_booking_contract/ticket_booking.sol\":7346:7399  UserStruct(bookingCounter, name, age, contactDetails) */\n      dup2\n      mstore\n      0x20\n      add\n        /* \"ticket_booking_contract/ticket_booking.sol\":7373:7377  name */\n      dup10\n        /* \"ticket_booking_contract/ticket_booking.sol\":7346:7399  UserStruct(bookingCounter, name, age, contactDetails) */\n      dup2\n      mstore\n      0x20\n      add\n        /* \"ticket_booking_contract/ticket_booking.sol\":7379:7382  age */\n      dup9\n        /* \"ticket_booking_contract/ticket_booking.sol\":7346:7399  UserStruct(bookingCounter, name, age, contactDetails) */\n      0xff\n      and\n      dup2\n      mstore\n      0x20\n      add\n        /* \"ticket_booking_contract/ticket_booking.sol\":7384:7398  contactDetails */\n      dup8\n        /* \"ticket_booking_contract/ticket_booking.sol\":7346:7399  UserStruct(bookingCounter, name, age, contactDetails) */\n      dup2\n      mstore\n      pop\n        /* \"ticket_booking_contract/ticket_booking.sol\":7321:7399  UserStruct memory user = UserStruct(bookingCounter, name, age, contactDetails) */\n      swap1\n      pop\n        /* \"ticket_booking_contract/ticket_booking.sol\":7452:7494  CricketBookingStruct memory cricketBooking */\n      0x00\n        /* \"ticket_booking_contract/ticket_booking.sol\":7497:7563  CricketBookingStruct(matchDetails, stadium, matchDate, seatNumber) */\n      mload(0x40)\n      dup1\n      0x80\n      add\n      0x40\n      mstore\n      dup1\n        /* \"ticket_booking_contract/ticket_booking.sol\":7518:7530  matchDetails */\n      dup8\n        /* \"ticket_booking_contract/ticket_booking.sol\":7497:7563  CricketBookingStruct(matchDetails, stadium, matchDate, seatNumber) */\n      dup2\n      mstore\n      0x20\n      add\n        /* \"ticket_booking_contract/ticket_booking.sol\":7532:7539  stadium */\n      dup7\n        /* \"ticket_booking_contract/ticket_booking.sol\":7497:7563  CricketBookingStruct(matchDetails, stadium, matchDate, seatNumber) */\n      dup2\n      mstore\n      0x20\n      add\n        /* \"ticket_booking_contract/ticket_booking.sol\":7541:7550  matchDate */\n      dup6\n        /* \"ticket_booking_contract/ticket_booking.sol\":7497:7563  CricketBookingStruct(matchDetails, stadium, matchDate, seatNumber) */\n      dup2\n      mstore\n      0x20\n      add\n        /* \"ticket_booking_contract/ticket_booking.sol\":7552:7562  seatNumber */\n      dup5\n        /* \"ticket_booking_contract/ticket_booking.sol\":7497:7563  CricketBookingStruct(matchDetails, stadium, matchDate, seatNumber) */\n      0xff\n      and\n      dup2\n      mstore\n      pop\n        /* \"ticket_booking_contract/ticket_booking.sol\":7452:7563  CricketBookingStruct memory cricketBooking = CricketBookingStruct(matchDetails, stadium, matchDate, seatNumber) */\n      swap1\n      pop\n        /* \"ticket_booking_contract/ticket_booking.sol\":7609:7640  BookingStruct memory newBooking */\n      0x00\n        /* \"ticket_booking_contract/ticket_booking.sol\":7643:8097  BookingStruct(... */\n      mload(0x40)\n      dup1\n      0x0100\n      add\n      0x40\n      mstore\n      dup1\n        /* \"ticket_booking_contract/ticket_booking.sol\":7671:7685  bookingCounter */\n      sload(0x00)\n        /* \"ticket_booking_contract/ticket_booking.sol\":7643:8097  BookingStruct(... */\n      dup2\n      mstore\n      0x20\n      add\n        /* \"ticket_booking_contract/ticket_booking.sol\":7700:7719  BookingType.Cricket */\n      0x04\n        /* \"ticket_booking_contract/ticket_booking.sol\":7643:8097  BookingStruct(... */\n      dup1\n      dup2\n      gt\n      iszero\n      tag_307\n      jumpi\n      tag_308\n      tag_131\n      jump\t// in\n    tag_308:\n    tag_307:\n      dup2\n      mstore\n      0x20\n      add\n        /* \"ticket_booking_contract/ticket_booking.sol\":7734:7738  user */\n      dup5\n        /* \"ticket_booking_contract/ticket_booking.sol\":7643:8097  BookingStruct(... */\n      dup2\n      mstore\n      0x20\n      add\n        /* \"ticket_booking_contract/ticket_booking.sol\":7753:7787  BusBookingStruct(\"\", \"\", \"\", 0, 0) */\n      mload(0x40)\n      dup1\n      0xa0\n      add\n      0x40\n      mstore\n      dup1\n      mload(0x40)\n      dup1\n      0x20\n      add\n      0x40\n      mstore\n      dup1\n      0x00\n      dup2\n      mstore\n      pop\n      dup2\n      mstore\n      0x20\n      add\n      mload(0x40)\n      dup1\n      0x20\n      add\n      0x40\n      mstore\n      dup1\n      0x00\n      dup2\n      mstore\n      pop\n      dup2\n      mstore\n      0x20\n      add\n      mload(0x40)\n      dup1\n      0x20\n      add\n      0x40\n      mstore\n      dup1\n      0x00\n      dup2\n      mstore\n      pop\n      dup2\n      mstore\n      0x20\n      add\n        /* \"ticket_booking_contract/ticket_booking.sol\":7782:7783  0 */\n      0x00\n        /* \"ticket_booking_contract/ticket_booking.sol\":7753:7787  BusBookingStruct(\"\", \"\", \"\", 0, 0) */\n      dup2\n      mstore\n      0x20\n      add\n        /* \"ticket_booking_contract/ticket_booking.sol\":7785:7786  0 */\n      0x00\n        /* \"ticket_booking_contract/ticket_booking.sol\":7753:7787  BusBookingStruct(\"\", \"\", \"\", 0, 0) */\n      0xff\n      and\n      dup2\n      mstore\n      pop\n        /* \"ticket_booking_contract/ticket_booking.sol\":7643:8097  BookingStruct(... */\n      dup2\n      mstore\n      0x20\n      add\n        /* \"ticket_booking_contract/ticket_booking.sol\":7828:7861  CinemaBookingStruct(\"\", \"\", 0, 0) */\n      mload(0x40)\n      dup1\n      0x80\n      add\n      0x40\n      mstore\n      dup1\n      mload(0x40)\n      dup1\n      0x20\n      add\n      0x40\n      mstore\n      dup1\n      0x00\n      dup2\n      mstore\n      pop\n      dup2\n      mstore\n      0x20\n      add\n      mload(0x40)\n      dup1\n      0x20\n      add\n      0x40\n      mstore\n      dup1\n      0x00\n      dup2\n      mstore\n      pop\n      dup2\n      mstore\n      0x20\n      add\n        /* \"ticket_booking_contract/ticket_booking.sol\":7856:7857  0 */\n      0x00\n        /* \"ticket_booking_contract/ticket_booking.sol\":7828:7861  CinemaBookingStruct(\"\", \"\", 0, 0) */\n      dup2\n      mstore\n      0x20\n      add\n        /* \"ticket_booking_contract/ticket_booking.sol\":7859:7860  0 */\n      0x00\n        /* \"ticket_booking_contract/ticket_booking.sol\":7828:7861  CinemaBookingStruct(\"\", \"\", 0, 0) */\n      0xff\n      and\n      dup2\n      mstore\n      pop\n        /* \"ticket_booking_contract/ticket_booking.sol\":7643:8097  BookingStruct(... */\n      dup2\n      mstore\n      0x20\n      add\n        /* \"ticket_booking_contract/ticket_booking.sol\":7905:7944  AirlineBookingStruct(\"\", \"\", \"\", 0, \"\") */\n      mload(0x40)\n      dup1\n      0xa0\n      add\n      0x40\n      mstore\n      dup1\n      mload(0x40)\n      dup1\n      0x20\n      add\n      0x40\n      mstore\n      dup1\n      0x00\n      dup2\n      mstore\n      pop\n      dup2\n      mstore\n      0x20\n      add\n      mload(0x40)\n      dup1\n      0x20\n      add\n      0x40\n      mstore\n      dup1\n      0x00\n      dup2\n      mstore\n      pop\n      dup2\n      mstore\n      0x20\n      add\n      mload(0x40)\n      dup1\n      0x20\n      add\n      0x40\n      mstore\n      dup1\n      0x00\n      dup2\n      mstore\n      pop\n      dup2\n      mstore\n      0x20\n      add\n        /* \"ticket_booking_contract/ticket_booking.sol\":7938:7939  0 */\n      0x00\n        /* \"ticket_booking_contract/ticket_booking.sol\":7905:7944  AirlineBookingStruct(\"\", \"\", \"\", 0, \"\") */\n      dup2\n      mstore\n      0x20\n      add\n      mload(0x40)\n      dup1\n      0x20\n      add\n      0x40\n      mstore\n      dup1\n      0x00\n      dup2\n      mstore\n      pop\n      dup2\n      mstore\n      pop\n        /* \"ticket_booking_contract/ticket_booking.sol\":7643:8097  BookingStruct(... */\n      dup2\n      mstore\n      0x20\n      add\n        /* \"ticket_booking_contract/ticket_booking.sol\":7989:8027  RailwayBookingStruct(\"\", \"\", \"\", 0, 0) */\n      mload(0x40)\n      dup1\n      0xa0\n      add\n      0x40\n      mstore\n      dup1\n      mload(0x40)\n      dup1\n      0x20\n      add\n      0x40\n      mstore\n      dup1\n      0x00\n      dup2\n      mstore\n      pop\n      dup2\n      mstore\n      0x20\n      add\n      mload(0x40)\n      dup1\n      0x20\n      add\n      0x40\n      mstore\n      dup1\n      0x00\n      dup2\n      mstore\n      pop\n      dup2\n      mstore\n      0x20\n      add\n      mload(0x40)\n      dup1\n      0x20\n      add\n      0x40\n      mstore\n      dup1\n      0x00\n      dup2\n      mstore\n      pop\n      dup2\n      mstore\n      0x20\n      add\n        /* \"ticket_booking_contract/ticket_booking.sol\":8022:8023  0 */\n      0x00\n        /* \"ticket_booking_contract/ticket_booking.sol\":7989:8027  RailwayBookingStruct(\"\", \"\", \"\", 0, 0) */\n      dup2\n      mstore\n      0x20\n      add\n        /* \"ticket_booking_contract/ticket_booking.sol\":8025:8026  0 */\n      0x00\n        /* \"ticket_booking_contract/ticket_booking.sol\":7989:8027  RailwayBookingStruct(\"\", \"\", \"\", 0, 0) */\n      0xff\n      and\n      dup2\n      mstore\n      pop\n        /* \"ticket_booking_contract/ticket_booking.sol\":7643:8097  BookingStruct(... */\n      dup2\n      mstore\n      0x20\n      add\n        /* \"ticket_booking_contract/ticket_booking.sol\":8072:8086  cricketBooking */\n      dup4\n        /* \"ticket_booking_contract/ticket_booking.sol\":7643:8097  BookingStruct(... */\n      dup2\n      mstore\n      pop\n        /* \"ticket_booking_contract/ticket_booking.sol\":7609:8097  BookingStruct memory newBooking = BookingStruct(... */\n      swap1\n      pop\n        /* \"ticket_booking_contract/ticket_booking.sol\":8167:8177  newBooking */\n      dup1\n        /* \"ticket_booking_contract/ticket_booking.sol\":8140:8148  bookings */\n      0x01\n        /* \"ticket_booking_contract/ticket_booking.sol\":8140:8164  bookings[bookingCounter] */\n      0x00\n        /* \"ticket_booking_contract/ticket_booking.sol\":8149:8163  bookingCounter */\n      dup1\n      sload\n        /* \"ticket_booking_contract/ticket_booking.sol\":8140:8164  bookings[bookingCounter] */\n      dup2\n      mstore\n      0x20\n      add\n      swap1\n      dup2\n      mstore\n      0x20\n      add\n      0x00\n      keccak256\n        /* \"ticket_booking_contract/ticket_booking.sol\":8140:8177  bookings[bookingCounter] = newBooking */\n      0x00\n      dup3\n      add\n      mload\n      dup2\n      0x00\n      add\n      sstore\n      0x20\n      dup3\n      add\n      mload\n      dup2\n      0x01\n      add\n      exp(0x0100, 0x00)\n      dup2\n      sload\n      dup2\n      0xff\n      mul\n      not\n      and\n      swap1\n      dup4\n      0x04\n      dup2\n      gt\n      iszero\n      tag_309\n      jumpi\n      tag_310\n      tag_131\n      jump\t// in\n    tag_310:\n    tag_309:\n      mul\n      or\n      swap1\n      sstore\n      pop\n      0x40\n      dup3\n      add\n      mload\n      dup2\n      0x02\n      add\n      0x00\n      dup3\n      add\n      mload\n      dup2\n      0x00\n      add\n      sstore\n      0x20\n      dup3\n      add\n      mload\n      dup2\n      0x01\n      add\n      swap1\n      dup2\n      tag_311\n      swap2\n      swap1\n      tag_222\n      jump\t// in\n    tag_311:\n      pop\n      0x40\n      dup3\n      add\n      mload\n      dup2\n      0x02\n      add\n      exp(0x0100, 0x00)\n      dup2\n      sload\n      dup2\n      0xff\n      mul\n      not\n      and\n      swap1\n      dup4\n      0xff\n      and\n      mul\n      or\n      swap1\n      sstore\n      pop\n      0x60\n      dup3\n      add\n      mload\n      dup2\n      0x03\n      add\n      swap1\n      dup2\n      tag_312\n      swap2\n      swap1\n      tag_222\n      jump\t// in\n    tag_312:\n      pop\n      pop\n      pop\n      0x60\n      dup3\n      add\n      mload\n      dup2\n      0x06\n      add\n      0x00\n      dup3\n      add\n      mload\n      dup2\n      0x00\n      add\n      swap1\n      dup2\n      tag_313\n      swap2\n      swap1\n      tag_222\n      jump\t// in\n    tag_313:\n      pop\n      0x20\n      dup3\n      add\n      mload\n      dup2\n      0x01\n      add\n      swap1\n      dup2\n      tag_314\n      swap2\n      swap1\n      tag_222\n      jump\t// in\n    tag_314:\n      pop\n      0x40\n      dup3\n      add\n      mload\n      dup2\n      0x02\n      add\n      swap1\n      dup2\n      tag_315\n      swap2\n      swap1\n      tag_222\n      jump\t// in\n    tag_315:\n      pop\n      0x60\n      dup3\n      add\n      mload\n      dup2\n      0x03\n      add\n      sstore\n      0x80\n      dup3\n      add\n      mload\n      dup2\n      0x04\n      add\n      exp(0x0100, 0x00)\n      dup2\n      sload\n      dup2\n      0xff\n      mul\n      not\n      and\n      swap1\n      dup4\n      0xff\n      and\n      mul\n      or\n      swap1\n      sstore\n      pop\n      pop\n      pop\n      0x80\n      dup3\n      add\n      mload\n      dup2\n      0x0b\n      add\n      0x00\n      dup3\n      add\n      mload\n      dup2\n      0x00\n      add\n      swap1\n      dup2\n      tag_316\n      swap2\n      swap1\n      tag_222\n      jump\t// in\n    tag_316:\n      pop\n      0x20\n      dup3\n      add\n      mload\n      dup2\n      0x01\n      add\n      swap1\n      dup2\n      tag_317\n      swap2\n      swap1\n      tag_222\n      jump\t// in\n    tag_317:\n      pop\n      0x40\n      dup3\n      add\n      mload\n      dup2\n      0x02\n      add\n      sstore\n      0x60\n      dup3\n      add\n      mload\n      dup2\n      0x03\n      add\n      exp(0x0100, 0x00)\n      dup2\n      sload\n      dup2\n      0xff\n      mul\n      not\n      and\n      swap1\n      dup4\n      0xff\n      and\n      mul\n      or\n      swap1\n      sstore\n      pop\n      pop\n      pop\n      0xa0\n      dup3\n      add\n      mload\n      dup2\n      0x0f\n      add\n      0x00\n      dup3\n      add\n      mload\n      dup2\n      0x00\n      add\n      swap1\n      dup2\n      tag_318\n      swap2\n      swap1\n      tag_222\n      jump\t// in\n    tag_318:\n      pop\n      0x20\n      dup3\n      add\n      mload\n      dup2\n      0x01\n      add\n      swap1\n      dup2\n      tag_319\n      swap2\n      swap1\n      tag_222\n      jump\t// in\n    tag_319:\n      pop\n      0x40\n      dup3\n      add\n      mload\n      dup2\n      0x02\n      add\n      swap1\n      dup2\n      tag_320\n      swap2\n      swap1\n      tag_222\n      jump\t// in\n    tag_320:\n      pop\n      0x60\n      dup3\n      add\n      mload\n      dup2\n      0x03\n      add\n      sstore\n      0x80\n      dup3\n      add\n      mload\n      dup2\n      0x04\n      add\n      swap1\n      dup2\n      tag_321\n      swap2\n      swap1\n      tag_222\n      jump\t// in\n    tag_321:\n      pop\n      pop\n      pop\n      0xc0\n      dup3\n      add\n      mload\n      dup2\n      0x14\n      add\n      0x00\n      dup3\n      add\n      mload\n      dup2\n      0x00\n      add\n      swap1\n      dup2\n      tag_322\n      swap2\n      swap1\n      tag_222\n      jump\t// in\n    tag_322:\n      pop\n      0x20\n      dup3\n      add\n      mload\n      dup2\n      0x01\n      add\n      swap1\n      dup2\n      tag_323\n      swap2\n      swap1\n      tag_222\n      jump\t// in\n    tag_323:\n      pop\n      0x40\n      dup3\n      add\n      mload\n      dup2\n      0x02\n      add\n      swap1\n      dup2\n      tag_324\n      swap2\n      swap1\n      tag_222\n      jump\t// in\n    tag_324:\n      pop\n      0x60\n      dup3\n      add\n      mload\n      dup2\n      0x03\n      add\n      sstore\n      0x80\n      dup3\n      add\n      mload\n      dup2\n      0x04\n      add\n      exp(0x0100, 0x00)\n      dup2\n      sload\n      dup2\n      0xff\n      mul\n      not\n      and\n      swap1\n      dup4\n      0xff\n      and\n      mul\n      or\n      swap1\n      sstore\n      pop\n      pop\n      pop\n      0xe0\n      dup3\n      add\n      mload\n      dup2\n      0x19\n      add\n      0x00\n      dup3\n      add\n      mload\n      dup2\n      0x00\n      add\n      swap1\n      dup2\n      tag_325\n      swap2\n      swap1\n      tag_222\n      jump\t// in\n    tag_325:\n      pop\n      0x20\n      dup3\n      add\n      mload\n      dup2\n      0x01\n      add\n      swap1\n      dup2\n      tag_326\n      swap2\n      swap1\n      tag_222\n      jump\t// in\n    tag_326:\n      pop\n      0x40\n      dup3\n      add\n      mload\n      dup2\n      0x02\n      add\n      sstore\n      0x60\n      dup3\n      add\n      mload\n      dup2\n      0x03\n      add\n      exp(0x0100, 0x00)\n      dup2\n      sload\n      dup2\n      0xff\n      mul\n      not\n      and\n      swap1\n      dup4\n      0xff\n      and\n      mul\n      or\n      swap1\n      sstore\n      pop\n      pop\n      pop\n      swap1\n      pop\n      pop\n        /* \"ticket_booking_contract/ticket_booking.sol\":7222:8185  {... */\n      pop\n      pop\n      pop\n        /* \"ticket_booking_contract/ticket_booking.sol\":6969:8185  function bookCricketTicket(... */\n      pop\n      pop\n      pop\n      pop\n      pop\n      pop\n      pop\n      jump\t// out\n    tag_127:\n      mload(0x40)\n      dup1\n      0x0100\n      add\n      0x40\n      mstore\n      dup1\n      0x00\n      dup2\n      mstore\n      0x20\n      add\n      0x00\n      0x04\n      dup2\n      gt\n      iszero\n      tag_327\n      jumpi\n      tag_328\n      tag_131\n      jump\t// in\n    tag_328:\n    tag_327:\n      dup2\n      mstore\n      0x20\n      add\n      tag_329\n      tag_330\n      jump\t// in\n    tag_329:\n      dup2\n      mstore\n      0x20\n      add\n      tag_331\n      tag_332\n      jump\t// in\n    tag_331:\n      dup2\n      mstore\n      0x20\n      add\n      tag_333\n      tag_334\n      jump\t// in\n    tag_333:\n      dup2\n      mstore\n      0x20\n      add\n      tag_335\n      tag_336\n      jump\t// in\n    tag_335:\n      dup2\n      mstore\n      0x20\n      add\n      tag_337\n      tag_338\n      jump\t// in\n    tag_337:\n      dup2\n      mstore\n      0x20\n      add\n      tag_339\n      tag_340\n      jump\t// in\n    tag_339:\n      dup2\n      mstore\n      pop\n      swap1\n      jump\t// out\n    tag_330:\n      mload(0x40)\n      dup1\n      0x80\n      add\n      0x40\n      mstore\n      dup1\n      0x00\n      dup2\n      mstore\n      0x20\n      add\n      0x60\n      dup2\n      mstore\n      0x20\n      add\n      and(0xff, 0x00)\n      dup2\n      mstore\n      0x20\n      add\n      0x60\n      dup2\n      mstore\n      pop\n      swap1\n      jump\t// out\n    tag_332:\n      mload(0x40)\n      dup1\n      0xa0\n      add\n      0x40\n      mstore\n      dup1\n      0x60\n      dup2\n      mstore\n      0x20\n      add\n      0x60\n      dup2\n      mstore\n      0x20\n      add\n      0x60\n      dup2\n      mstore\n      0x20\n      add\n      0x00\n      dup2\n      mstore\n      0x20\n      add\n      and(0xff, 0x00)\n      dup2\n      mstore\n      pop\n      swap1\n      jump\t// out\n    tag_334:\n      mload(0x40)\n      dup1\n      0x80\n      add\n      0x40\n      mstore\n      dup1\n      0x60\n      dup2\n      mstore\n      0x20\n      add\n      0x60\n      dup2\n      mstore\n      0x20\n      add\n      0x00\n      dup2\n      mstore\n      0x20\n      add\n      and(0xff, 0x00)\n      dup2\n      mstore\n      pop\n      swap1\n      jump\t// out\n    tag_336:\n      mload(0x40)\n      dup1\n      0xa0\n      add\n      0x40\n      mstore\n      dup1\n      0x60\n      dup2\n      mstore\n      0x20\n      add\n      0x60\n      dup2\n      mstore\n      0x20\n      add\n      0x60\n      dup2\n      mstore\n      0x20\n      add\n      0x00\n      dup2\n      mstore\n      0x20\n      add\n      0x60\n      dup2\n      mstore\n      pop\n      swap1\n      jump\t// out\n    tag_338:\n      mload(0x40)\n      dup1\n      0xa0\n      add\n      0x40\n      mstore\n      dup1\n      0x60\n      dup2\n      mstore\n      0x20\n      add\n      0x60\n      dup2\n      mstore\n      0x20\n      add\n      0x60\n      dup2\n      mstore\n      0x20\n      add\n      0x00\n      dup2\n      mstore\n      0x20\n      add\n      and(0xff, 0x00)\n      dup2\n      mstore\n      pop\n      swap1\n      jump\t// out\n    tag_340:\n      mload(0x40)\n      dup1\n      0x80\n      add\n      0x40\n      mstore\n      dup1\n      0x60\n      dup2\n      mstore\n      0x20\n      add\n      0x60\n      dup2\n      mstore\n      0x20\n      add\n      0x00\n      dup2\n      mstore\n      0x20\n      add\n      and(0xff, 0x00)\n      dup2\n      mstore\n      pop\n      swap1\n      jump\t// out\n        /* \"#utility.yul\":7:82   */\n    tag_341:\n        /* \"#utility.yul\":40:46   */\n      0x00\n        /* \"#utility.yul\":73:75   */\n      0x40\n        /* \"#utility.yul\":67:76   */\n      mload\n        /* \"#utility.yul\":57:76   */\n      swap1\n      pop\n        /* \"#utility.yul\":7:82   */\n      swap1\n      jump\t// out\n        /* \"#utility.yul\":88:205   */\n    tag_342:\n        /* \"#utility.yul\":197:198   */\n      0x00\n        /* \"#utility.yul\":194:195   */\n      dup1\n        /* \"#utility.yul\":187:199   */\n      revert\n        /* \"#utility.yul\":211:328   */\n    tag_343:\n        /* \"#utility.yul\":320:321   */\n      0x00\n        /* \"#utility.yul\":317:318   */\n      dup1\n        /* \"#utility.yul\":310:322   */\n      revert\n        /* \"#utility.yul\":334:411   */\n    tag_344:\n        /* \"#utility.yul\":371:378   */\n      0x00\n        /* \"#utility.yul\":400:405   */\n      dup2\n        /* \"#utility.yul\":389:405   */\n      swap1\n      pop\n        /* \"#utility.yul\":334:411   */\n      swap2\n      swap1\n      pop\n      jump\t// out\n        /* \"#utility.yul\":417:539   */\n    tag_345:\n        /* \"#utility.yul\":490:514   */\n      tag_408\n        /* \"#utility.yul\":508:513   */\n      dup2\n        /* \"#utility.yul\":490:514   */\n      tag_344\n      jump\t// in\n    tag_408:\n        /* \"#utility.yul\":483:488   */\n      dup2\n        /* \"#utility.yul\":480:515   */\n      eq\n        /* \"#utility.yul\":470:533   */\n      tag_409\n      jumpi\n        /* \"#utility.yul\":529:530   */\n      0x00\n        /* \"#utility.yul\":526:527   */\n      dup1\n        /* \"#utility.yul\":519:531   */\n      revert\n        /* \"#utility.yul\":470:533   */\n    tag_409:\n        /* \"#utility.yul\":417:539   */\n      pop\n      jump\t// out\n        /* \"#utility.yul\":545:684   */\n    tag_346:\n        /* \"#utility.yul\":591:596   */\n      0x00\n        /* \"#utility.yul\":629:635   */\n      dup2\n        /* \"#utility.yul\":616:636   */\n      calldataload\n        /* \"#utility.yul\":607:636   */\n      swap1\n      pop\n        /* \"#utility.yul\":645:678   */\n      tag_411\n        /* \"#utility.yul\":672:677   */\n      dup2\n        /* \"#utility.yul\":645:678   */\n      tag_345\n      jump\t// in\n    tag_411:\n        /* \"#utility.yul\":545:684   */\n      swap3\n      swap2\n      pop\n      pop\n      jump\t// out\n        /* \"#utility.yul\":690:1019   */\n    tag_14:\n        /* \"#utility.yul\":749:755   */\n      0x00\n        /* \"#utility.yul\":798:800   */\n      0x20\n        /* \"#utility.yul\":786:795   */\n      dup3\n        /* \"#utility.yul\":777:784   */\n      dup5\n        /* \"#utility.yul\":773:796   */\n      sub\n        /* \"#utility.yul\":769:801   */\n      slt\n        /* \"#utility.yul\":766:885   */\n      iszero\n      tag_413\n      jumpi\n        /* \"#utility.yul\":804:883   */\n      tag_414\n      tag_342\n      jump\t// in\n    tag_414:\n        /* \"#utility.yul\":766:885   */\n    tag_413:\n        /* \"#utility.yul\":924:925   */\n      0x00\n        /* \"#utility.yul\":949:1002   */\n      tag_415\n        /* \"#utility.yul\":994:1001   */\n      dup5\n        /* \"#utility.yul\":985:991   */\n      dup3\n        /* \"#utility.yul\":974:983   */\n      dup6\n        /* \"#utility.yul\":970:992   */\n      add\n        /* \"#utility.yul\":949:1002   */\n      tag_346\n      jump\t// in\n    tag_415:\n        /* \"#utility.yul\":939:1002   */\n      swap2\n      pop\n        /* \"#utility.yul\":895:1012   */\n      pop\n        /* \"#utility.yul\":690:1019   */\n      swap3\n      swap2\n      pop\n      pop\n      jump\t// out\n        /* \"#utility.yul\":1025:1143   */\n    tag_347:\n        /* \"#utility.yul\":1112:1136   */\n      tag_417\n        /* \"#utility.yul\":1130:1135   */\n      dup2\n        /* \"#utility.yul\":1112:1136   */\n      tag_344\n      jump\t// in\n    tag_417:\n        /* \"#utility.yul\":1107:1110   */\n      dup3\n        /* \"#utility.yul\":1100:1137   */\n      mstore\n        /* \"#utility.yul\":1025:1143   */\n      pop\n      pop\n      jump\t// out\n        /* \"#utility.yul\":1149:1329   */\n    tag_131:\n        /* \"#utility.yul\":1197:1274   */\n      0x4e487b7100000000000000000000000000000000000000000000000000000000\n        /* \"#utility.yul\":1194:1195   */\n      0x00\n        /* \"#utility.yul\":1187:1275   */\n      mstore\n        /* \"#utility.yul\":1294:1298   */\n      0x21\n        /* \"#utility.yul\":1291:1292   */\n      0x04\n        /* \"#utility.yul\":1284:1299   */\n      mstore\n        /* \"#utility.yul\":1318:1322   */\n      0x24\n        /* \"#utility.yul\":1315:1316   */\n      0x00\n        /* \"#utility.yul\":1308:1323   */\n      revert\n        /* \"#utility.yul\":1335:1453   */\n    tag_348:\n        /* \"#utility.yul\":1421:1422   */\n      0x05\n        /* \"#utility.yul\":1414:1419   */\n      dup2\n        /* \"#utility.yul\":1411:1423   */\n      lt\n        /* \"#utility.yul\":1401:1447   */\n      tag_420\n      jumpi\n        /* \"#utility.yul\":1427:1445   */\n      tag_421\n      tag_131\n      jump\t// in\n    tag_421:\n        /* \"#utility.yul\":1401:1447   */\n    tag_420:\n        /* \"#utility.yul\":1335:1453   */\n      pop\n      jump\t// out\n        /* \"#utility.yul\":1459:1596   */\n    tag_349:\n        /* \"#utility.yul\":1509:1516   */\n      0x00\n        /* \"#utility.yul\":1538:1543   */\n      dup2\n        /* \"#utility.yul\":1527:1543   */\n      swap1\n      pop\n        /* \"#utility.yul\":1544:1590   */\n      tag_423\n        /* \"#utility.yul\":1584:1589   */\n      dup3\n        /* \"#utility.yul\":1544:1590   */\n      tag_348\n      jump\t// in\n    tag_423:\n        /* \"#utility.yul\":1459:1596   */\n      swap2\n      swap1\n      pop\n      jump\t// out\n        /* \"#utility.yul\":1602:1739   */\n    tag_350:\n        /* \"#utility.yul\":1663:1672   */\n      0x00\n        /* \"#utility.yul\":1696:1733   */\n      tag_425\n        /* \"#utility.yul\":1727:1732   */\n      dup3\n        /* \"#utility.yul\":1696:1733   */\n      tag_349\n      jump\t// in\n    tag_425:\n        /* \"#utility.yul\":1683:1733   */\n      swap1\n      pop\n        /* \"#utility.yul\":1602:1739   */\n      swap2\n      swap1\n      pop\n      jump\t// out\n        /* \"#utility.yul\":1745:1898   */\n    tag_351:\n        /* \"#utility.yul\":1843:1891   */\n      tag_427\n        /* \"#utility.yul\":1885:1890   */\n      dup2\n        /* \"#utility.yul\":1843:1891   */\n      tag_350\n      jump\t// in\n    tag_427:\n        /* \"#utility.yul\":1838:1841   */\n      dup3\n        /* \"#utility.yul\":1831:1892   */\n      mstore\n        /* \"#utility.yul\":1745:1898   */\n      pop\n      pop\n      jump\t// out\n        /* \"#utility.yul\":1904:2012   */\n    tag_352:\n        /* \"#utility.yul\":1981:2005   */\n      tag_429\n        /* \"#utility.yul\":1999:2004   */\n      dup2\n        /* \"#utility.yul\":1981:2005   */\n      tag_344\n      jump\t// in\n    tag_429:\n        /* \"#utility.yul\":1976:1979   */\n      dup3\n        /* \"#utility.yul\":1969:2006   */\n      mstore\n        /* \"#utility.yul\":1904:2012   */\n      pop\n      pop\n      jump\t// out\n        /* \"#utility.yul\":2018:2117   */\n    tag_353:\n        /* \"#utility.yul\":2070:2076   */\n      0x00\n        /* \"#utility.yul\":2104:2109   */\n      dup2\n        /* \"#utility.yul\":2098:2110   */\n      mload\n        /* \"#utility.yul\":2088:2110   */\n      swap1\n      pop\n        /* \"#utility.yul\":2018:2117   */\n      swap2\n      swap1\n      pop\n      jump\t// out\n        /* \"#utility.yul\":2123:2282   */\n    tag_354:\n        /* \"#utility.yul\":2197:2208   */\n      0x00\n        /* \"#utility.yul\":2231:2237   */\n      dup3\n        /* \"#utility.yul\":2226:2229   */\n      dup3\n        /* \"#utility.yul\":2219:2238   */\n      mstore\n        /* \"#utility.yul\":2271:2275   */\n      0x20\n        /* \"#utility.yul\":2266:2269   */\n      dup3\n        /* \"#utility.yul\":2262:2276   */\n      add\n        /* \"#utility.yul\":2247:2276   */\n      swap1\n      pop\n        /* \"#utility.yul\":2123:2282   */\n      swap3\n      swap2\n      pop\n      pop\n      jump\t// out\n        /* \"#utility.yul\":2288:2534   */\n    tag_355:\n        /* \"#utility.yul\":2369:2370   */\n      0x00\n        /* \"#utility.yul\":2379:2492   */\n    tag_433:\n        /* \"#utility.yul\":2393:2399   */\n      dup4\n        /* \"#utility.yul\":2390:2391   */\n      dup2\n        /* \"#utility.yul\":2387:2400   */\n      lt\n        /* \"#utility.yul\":2379:2492   */\n      iszero\n      tag_435\n      jumpi\n        /* \"#utility.yul\":2478:2479   */\n      dup1\n        /* \"#utility.yul\":2473:2476   */\n      dup3\n        /* \"#utility.yul\":2469:2480   */\n      add\n        /* \"#utility.yul\":2463:2481   */\n      mload\n        /* \"#utility.yul\":2459:2460   */\n      dup2\n        /* \"#utility.yul\":2454:2457   */\n      dup5\n        /* \"#utility.yul\":2450:2461   */\n      add\n        /* \"#utility.yul\":2443:2482   */\n      mstore\n        /* \"#utility.yul\":2415:2417   */\n      0x20\n        /* \"#utility.yul\":2412:2413   */\n      dup2\n        /* \"#utility.yul\":2408:2418   */\n      add\n        /* \"#utility.yul\":2403:2418   */\n      swap1\n      pop\n        /* \"#utility.yul\":2379:2492   */\n      jump(tag_433)\n    tag_435:\n        /* \"#utility.yul\":2526:2527   */\n      0x00\n        /* \"#utility.yul\":2517:2523   */\n      dup5\n        /* \"#utility.yul\":2512:2515   */\n      dup5\n        /* \"#utility.yul\":2508:2524   */\n      add\n        /* \"#utility.yul\":2501:2528   */\n      mstore\n        /* \"#utility.yul\":2350:2534   */\n      pop\n        /* \"#utility.yul\":2288:2534   */\n      pop\n      pop\n      pop\n      jump\t// out\n        /* \"#utility.yul\":2540:2642   */\n    tag_356:\n        /* \"#utility.yul\":2581:2587   */\n      0x00\n        /* \"#utility.yul\":2632:2634   */\n      0x1f\n        /* \"#utility.yul\":2628:2635   */\n      not\n        /* \"#utility.yul\":2623:2625   */\n      0x1f\n        /* \"#utility.yul\":2616:2621   */\n      dup4\n        /* \"#utility.yul\":2612:2626   */\n      add\n        /* \"#utility.yul\":2608:2636   */\n      and\n        /* \"#utility.yul\":2598:2636   */\n      swap1\n      pop\n        /* \"#utility.yul\":2540:2642   */\n      swap2\n      swap1\n      pop\n      jump\t// out\n        /* \"#utility.yul\":2648:3005   */\n    tag_357:\n        /* \"#utility.yul\":2726:2729   */\n      0x00\n        /* \"#utility.yul\":2754:2793   */\n      tag_438\n        /* \"#utility.yul\":2787:2792   */\n      dup3\n        /* \"#utility.yul\":2754:2793   */\n      tag_353\n      jump\t// in\n    tag_438:\n        /* \"#utility.yul\":2809:2870   */\n      tag_439\n        /* \"#utility.yul\":2863:2869   */\n      dup2\n        /* \"#utility.yul\":2858:2861   */\n      dup6\n        /* \"#utility.yul\":2809:2870   */\n      tag_354\n      jump\t// in\n    tag_439:\n        /* \"#utility.yul\":2802:2870   */\n      swap4\n      pop\n        /* \"#utility.yul\":2879:2944   */\n      tag_440\n        /* \"#utility.yul\":2937:2943   */\n      dup2\n        /* \"#utility.yul\":2932:2935   */\n      dup6\n        /* \"#utility.yul\":2925:2929   */\n      0x20\n        /* \"#utility.yul\":2918:2923   */\n      dup7\n        /* \"#utility.yul\":2914:2930   */\n      add\n        /* \"#utility.yul\":2879:2944   */\n      tag_355\n      jump\t// in\n    tag_440:\n        /* \"#utility.yul\":2969:2998   */\n      tag_441\n        /* \"#utility.yul\":2991:2997   */\n      dup2\n        /* \"#utility.yul\":2969:2998   */\n      tag_356\n      jump\t// in\n    tag_441:\n        /* \"#utility.yul\":2964:2967   */\n      dup5\n        /* \"#utility.yul\":2960:2999   */\n      add\n        /* \"#utility.yul\":2953:2999   */\n      swap2\n      pop\n        /* \"#utility.yul\":2730:3005   */\n      pop\n        /* \"#utility.yul\":2648:3005   */\n      swap3\n      swap2\n      pop\n      pop\n      jump\t// out\n        /* \"#utility.yul\":3011:3097   */\n    tag_358:\n        /* \"#utility.yul\":3046:3053   */\n      0x00\n        /* \"#utility.yul\":3086:3090   */\n      0xff\n        /* \"#utility.yul\":3079:3084   */\n      dup3\n        /* \"#utility.yul\":3075:3091   */\n      and\n        /* \"#utility.yul\":3064:3091   */\n      swap1\n      pop\n        /* \"#utility.yul\":3011:3097   */\n      swap2\n      swap1\n      pop\n      jump\t// out\n        /* \"#utility.yul\":3103:3205   */\n    tag_359:\n        /* \"#utility.yul\":3176:3198   */\n      tag_444\n        /* \"#utility.yul\":3192:3197   */\n      dup2\n        /* \"#utility.yul\":3176:3198   */\n      tag_358\n      jump\t// in\n    tag_444:\n        /* \"#utility.yul\":3171:3174   */\n      dup3\n        /* \"#utility.yul\":3164:3199   */\n      mstore\n        /* \"#utility.yul\":3103:3205   */\n      pop\n      pop\n      jump\t// out\n        /* \"#utility.yul\":3281:4315   */\n    tag_360:\n        /* \"#utility.yul\":3402:3405   */\n      0x00\n        /* \"#utility.yul\":3438:3442   */\n      0x80\n        /* \"#utility.yul\":3433:3436   */\n      dup4\n        /* \"#utility.yul\":3429:3443   */\n      add\n        /* \"#utility.yul\":3527:3531   */\n      0x00\n        /* \"#utility.yul\":3520:3525   */\n      dup4\n        /* \"#utility.yul\":3516:3532   */\n      add\n        /* \"#utility.yul\":3510:3533   */\n      mload\n        /* \"#utility.yul\":3546:3609   */\n      tag_446\n        /* \"#utility.yul\":3603:3607   */\n      0x00\n        /* \"#utility.yul\":3598:3601   */\n      dup7\n        /* \"#utility.yul\":3594:3608   */\n      add\n        /* \"#utility.yul\":3580:3592   */\n      dup3\n        /* \"#utility.yul\":3546:3609   */\n      tag_352\n      jump\t// in\n    tag_446:\n        /* \"#utility.yul\":3453:3619   */\n      pop\n        /* \"#utility.yul\":3701:3705   */\n      0x20\n        /* \"#utility.yul\":3694:3699   */\n      dup4\n        /* \"#utility.yul\":3690:3706   */\n      add\n        /* \"#utility.yul\":3684:3707   */\n      mload\n        /* \"#utility.yul\":3754:3757   */\n      dup5\n        /* \"#utility.yul\":3748:3752   */\n      dup3\n        /* \"#utility.yul\":3744:3758   */\n      sub\n        /* \"#utility.yul\":3737:3741   */\n      0x20\n        /* \"#utility.yul\":3732:3735   */\n      dup7\n        /* \"#utility.yul\":3728:3742   */\n      add\n        /* \"#utility.yul\":3721:3759   */\n      mstore\n        /* \"#utility.yul\":3780:3853   */\n      tag_447\n        /* \"#utility.yul\":3848:3852   */\n      dup3\n        /* \"#utility.yul\":3834:3846   */\n      dup3\n        /* \"#utility.yul\":3780:3853   */\n      tag_357\n      jump\t// in\n    tag_447:\n        /* \"#utility.yul\":3772:3853   */\n      swap2\n      pop\n        /* \"#utility.yul\":3629:3864   */\n      pop\n        /* \"#utility.yul\":3945:3949   */\n      0x40\n        /* \"#utility.yul\":3938:3943   */\n      dup4\n        /* \"#utility.yul\":3934:3950   */\n      add\n        /* \"#utility.yul\":3928:3951   */\n      mload\n        /* \"#utility.yul\":3964:4023   */\n      tag_448\n        /* \"#utility.yul\":4017:4021   */\n      0x40\n        /* \"#utility.yul\":4012:4015   */\n      dup7\n        /* \"#utility.yul\":4008:4022   */\n      add\n        /* \"#utility.yul\":3994:4006   */\n      dup3\n        /* \"#utility.yul\":3964:4023   */\n      tag_359\n      jump\t// in\n    tag_448:\n        /* \"#utility.yul\":3874:4033   */\n      pop\n        /* \"#utility.yul\":4125:4129   */\n      0x60\n        /* \"#utility.yul\":4118:4123   */\n      dup4\n        /* \"#utility.yul\":4114:4130   */\n      add\n        /* \"#utility.yul\":4108:4131   */\n      mload\n        /* \"#utility.yul\":4178:4181   */\n      dup5\n        /* \"#utility.yul\":4172:4176   */\n      dup3\n        /* \"#utility.yul\":4168:4182   */\n      sub\n        /* \"#utility.yul\":4161:4165   */\n      0x60\n        /* \"#utility.yul\":4156:4159   */\n      dup7\n        /* \"#utility.yul\":4152:4166   */\n      add\n        /* \"#utility.yul\":4145:4183   */\n      mstore\n        /* \"#utility.yul\":4204:4277   */\n      tag_449\n        /* \"#utility.yul\":4272:4276   */\n      dup3\n        /* \"#utility.yul\":4258:4270   */\n      dup3\n        /* \"#utility.yul\":4204:4277   */\n      tag_357\n      jump\t// in\n    tag_449:\n        /* \"#utility.yul\":4196:4277   */\n      swap2\n      pop\n        /* \"#utility.yul\":4043:4288   */\n      pop\n        /* \"#utility.yul\":4305:4309   */\n      dup1\n        /* \"#utility.yul\":4298:4309   */\n      swap2\n      pop\n        /* \"#utility.yul\":3407:4315   */\n      pop\n        /* \"#utility.yul\":3281:4315   */\n      swap3\n      swap2\n      pop\n      pop\n      jump\t// out\n        /* \"#utility.yul\":4403:5712   */\n    tag_361:\n        /* \"#utility.yul\":4536:4539   */\n      0x00\n        /* \"#utility.yul\":4572:4576   */\n      0xa0\n        /* \"#utility.yul\":4567:4570   */\n      dup4\n        /* \"#utility.yul\":4563:4577   */\n      add\n        /* \"#utility.yul\":4664:4668   */\n      0x00\n        /* \"#utility.yul\":4657:4662   */\n      dup4\n        /* \"#utility.yul\":4653:4669   */\n      add\n        /* \"#utility.yul\":4647:4670   */\n      mload\n        /* \"#utility.yul\":4717:4720   */\n      dup5\n        /* \"#utility.yul\":4711:4715   */\n      dup3\n        /* \"#utility.yul\":4707:4721   */\n      sub\n        /* \"#utility.yul\":4700:4704   */\n      0x00\n        /* \"#utility.yul\":4695:4698   */\n      dup7\n        /* \"#utility.yul\":4691:4705   */\n      add\n        /* \"#utility.yul\":4684:4722   */\n      mstore\n        /* \"#utility.yul\":4743:4816   */\n      tag_451\n        /* \"#utility.yul\":4811:4815   */\n      dup3\n        /* \"#utility.yul\":4797:4809   */\n      dup3\n        /* \"#utility.yul\":4743:4816   */\n      tag_357\n      jump\t// in\n    tag_451:\n        /* \"#utility.yul\":4735:4816   */\n      swap2\n      pop\n        /* \"#utility.yul\":4587:4827   */\n      pop\n        /* \"#utility.yul\":4911:4915   */\n      0x20\n        /* \"#utility.yul\":4904:4909   */\n      dup4\n        /* \"#utility.yul\":4900:4916   */\n      add\n        /* \"#utility.yul\":4894:4917   */\n      mload\n        /* \"#utility.yul\":4964:4967   */\n      dup5\n        /* \"#utility.yul\":4958:4962   */\n      dup3\n        /* \"#utility.yul\":4954:4968   */\n      sub\n        /* \"#utility.yul\":4947:4951   */\n      0x20\n        /* \"#utility.yul\":4942:4945   */\n      dup7\n        /* \"#utility.yul\":4938:4952   */\n      add\n        /* \"#utility.yul\":4931:4969   */\n      mstore\n        /* \"#utility.yul\":4990:5063   */\n      tag_452\n        /* \"#utility.yul\":5058:5062   */\n      dup3\n        /* \"#utility.yul\":5044:5056   */\n      dup3\n        /* \"#utility.yul\":4990:5063   */\n      tag_357\n      jump\t// in\n    tag_452:\n        /* \"#utility.yul\":4982:5063   */\n      swap2\n      pop\n        /* \"#utility.yul\":4837:5074   */\n      pop\n        /* \"#utility.yul\":5163:5167   */\n      0x40\n        /* \"#utility.yul\":5156:5161   */\n      dup4\n        /* \"#utility.yul\":5152:5168   */\n      add\n        /* \"#utility.yul\":5146:5169   */\n      mload\n        /* \"#utility.yul\":5216:5219   */\n      dup5\n        /* \"#utility.yul\":5210:5214   */\n      dup3\n        /* \"#utility.yul\":5206:5220   */\n      sub\n        /* \"#utility.yul\":5199:5203   */\n      0x40\n        /* \"#utility.yul\":5194:5197   */\n      dup7\n        /* \"#utility.yul\":5190:5204   */\n      add\n        /* \"#utility.yul\":5183:5221   */\n      mstore\n        /* \"#utility.yul\":5242:5315   */\n      tag_453\n        /* \"#utility.yul\":5310:5314   */\n      dup3\n        /* \"#utility.yul\":5296:5308   */\n      dup3\n        /* \"#utility.yul\":5242:5315   */\n      tag_357\n      jump\t// in\n    tag_453:\n        /* \"#utility.yul\":5234:5315   */\n      swap2\n      pop\n        /* \"#utility.yul\":5084:5326   */\n      pop\n        /* \"#utility.yul\":5417:5421   */\n      0x60\n        /* \"#utility.yul\":5410:5415   */\n      dup4\n        /* \"#utility.yul\":5406:5422   */\n      add\n        /* \"#utility.yul\":5400:5423   */\n      mload\n        /* \"#utility.yul\":5436:5499   */\n      tag_454\n        /* \"#utility.yul\":5493:5497   */\n      0x60\n        /* \"#utility.yul\":5488:5491   */\n      dup7\n        /* \"#utility.yul\":5484:5498   */\n      add\n        /* \"#utility.yul\":5470:5482   */\n      dup3\n        /* \"#utility.yul\":5436:5499   */\n      tag_352\n      jump\t// in\n    tag_454:\n        /* \"#utility.yul\":5336:5509   */\n      pop\n        /* \"#utility.yul\":5597:5601   */\n      0x80\n        /* \"#utility.yul\":5590:5595   */\n      dup4\n        /* \"#utility.yul\":5586:5602   */\n      add\n        /* \"#utility.yul\":5580:5603   */\n      mload\n        /* \"#utility.yul\":5616:5675   */\n      tag_455\n        /* \"#utility.yul\":5669:5673   */\n      0x80\n        /* \"#utility.yul\":5664:5667   */\n      dup7\n        /* \"#utility.yul\":5660:5674   */\n      add\n        /* \"#utility.yul\":5646:5658   */\n      dup3\n        /* \"#utility.yul\":5616:5675   */\n      tag_359\n      jump\t// in\n    tag_455:\n        /* \"#utility.yul\":5519:5685   */\n      pop\n        /* \"#utility.yul\":5702:5706   */\n      dup1\n        /* \"#utility.yul\":5695:5706   */\n      swap2\n      pop\n        /* \"#utility.yul\":4541:5712   */\n      pop\n        /* \"#utility.yul\":4403:5712   */\n      swap3\n      swap2\n      pop\n      pop\n      jump\t// out\n        /* \"#utility.yul\":5806:6868   */\n    tag_362:\n        /* \"#utility.yul\":5945:5948   */\n      0x00\n        /* \"#utility.yul\":5981:5985   */\n      0x80\n        /* \"#utility.yul\":5976:5979   */\n      dup4\n        /* \"#utility.yul\":5972:5986   */\n      add\n        /* \"#utility.yul\":6073:6077   */\n      0x00\n        /* \"#utility.yul\":6066:6071   */\n      dup4\n        /* \"#utility.yul\":6062:6078   */\n      add\n        /* \"#utility.yul\":6056:6079   */\n      mload\n        /* \"#utility.yul\":6126:6129   */\n      dup5\n        /* \"#utility.yul\":6120:6124   */\n      dup3\n        /* \"#utility.yul\":6116:6130   */\n      sub\n        /* \"#utility.yul\":6109:6113   */\n      0x00\n        /* \"#utility.yul\":6104:6107   */\n      dup7\n        /* \"#utility.yul\":6100:6114   */\n      add\n        /* \"#utility.yul\":6093:6131   */\n      mstore\n        /* \"#utility.yul\":6152:6225   */\n      tag_457\n        /* \"#utility.yul\":6220:6224   */\n      dup3\n        /* \"#utility.yul\":6206:6218   */\n      dup3\n        /* \"#utility.yul\":6152:6225   */\n      tag_357\n      jump\t// in\n    tag_457:\n        /* \"#utility.yul\":6144:6225   */\n      swap2\n      pop\n        /* \"#utility.yul\":5996:6236   */\n      pop\n        /* \"#utility.yul\":6324:6328   */\n      0x20\n        /* \"#utility.yul\":6317:6322   */\n      dup4\n        /* \"#utility.yul\":6313:6329   */\n      add\n        /* \"#utility.yul\":6307:6330   */\n      mload\n        /* \"#utility.yul\":6377:6380   */\n      dup5\n        /* \"#utility.yul\":6371:6375   */\n      dup3\n        /* \"#utility.yul\":6367:6381   */\n      sub\n        /* \"#utility.yul\":6360:6364   */\n      0x20\n        /* \"#utility.yul\":6355:6358   */\n      dup7\n        /* \"#utility.yul\":6351:6365   */\n      add\n        /* \"#utility.yul\":6344:6382   */\n      mstore\n        /* \"#utility.yul\":6403:6476   */\n      tag_458\n        /* \"#utility.yul\":6471:6475   */\n      dup3\n        /* \"#utility.yul\":6457:6469   */\n      dup3\n        /* \"#utility.yul\":6403:6476   */\n      tag_357\n      jump\t// in\n    tag_458:\n        /* \"#utility.yul\":6395:6476   */\n      swap2\n      pop\n        /* \"#utility.yul\":6246:6487   */\n      pop\n        /* \"#utility.yul\":6573:6577   */\n      0x40\n        /* \"#utility.yul\":6566:6571   */\n      dup4\n        /* \"#utility.yul\":6562:6578   */\n      add\n        /* \"#utility.yul\":6556:6579   */\n      mload\n        /* \"#utility.yul\":6592:6655   */\n      tag_459\n        /* \"#utility.yul\":6649:6653   */\n      0x40\n        /* \"#utility.yul\":6644:6647   */\n      dup7\n        /* \"#utility.yul\":6640:6654   */\n      add\n        /* \"#utility.yul\":6626:6638   */\n      dup3\n        /* \"#utility.yul\":6592:6655   */\n      tag_352\n      jump\t// in\n    tag_459:\n        /* \"#utility.yul\":6497:6665   */\n      pop\n        /* \"#utility.yul\":6753:6757   */\n      0x60\n        /* \"#utility.yul\":6746:6751   */\n      dup4\n        /* \"#utility.yul\":6742:6758   */\n      add\n        /* \"#utility.yul\":6736:6759   */\n      mload\n        /* \"#utility.yul\":6772:6831   */\n      tag_460\n        /* \"#utility.yul\":6825:6829   */\n      0x60\n        /* \"#utility.yul\":6820:6823   */\n      dup7\n        /* \"#utility.yul\":6816:6830   */\n      add\n        /* \"#utility.yul\":6802:6814   */\n      dup3\n        /* \"#utility.yul\":6772:6831   */\n      tag_359\n      jump\t// in\n    tag_460:\n        /* \"#utility.yul\":6675:6841   */\n      pop\n        /* \"#utility.yul\":6858:6862   */\n      dup1\n        /* \"#utility.yul\":6851:6862   */\n      swap2\n      pop\n        /* \"#utility.yul\":5950:6868   */\n      pop\n        /* \"#utility.yul\":5806:6868   */\n      swap3\n      swap2\n      pop\n      pop\n      jump\t// out\n        /* \"#utility.yul\":6964:8358   */\n    tag_363:\n        /* \"#utility.yul\":7105:7108   */\n      0x00\n        /* \"#utility.yul\":7141:7145   */\n      0xa0\n        /* \"#utility.yul\":7136:7139   */\n      dup4\n        /* \"#utility.yul\":7132:7146   */\n      add\n        /* \"#utility.yul\":7236:7240   */\n      0x00\n        /* \"#utility.yul\":7229:7234   */\n      dup4\n        /* \"#utility.yul\":7225:7241   */\n      add\n        /* \"#utility.yul\":7219:7242   */\n      mload\n        /* \"#utility.yul\":7289:7292   */\n      dup5\n        /* \"#utility.yul\":7283:7287   */\n      dup3\n        /* \"#utility.yul\":7279:7293   */\n      sub\n        /* \"#utility.yul\":7272:7276   */\n      0x00\n        /* \"#utility.yul\":7267:7270   */\n      dup7\n        /* \"#utility.yul\":7263:7277   */\n      add\n        /* \"#utility.yul\":7256:7294   */\n      mstore\n        /* \"#utility.yul\":7315:7388   */\n      tag_462\n        /* \"#utility.yul\":7383:7387   */\n      dup3\n        /* \"#utility.yul\":7369:7381   */\n      dup3\n        /* \"#utility.yul\":7315:7388   */\n      tag_357\n      jump\t// in\n    tag_462:\n        /* \"#utility.yul\":7307:7388   */\n      swap2\n      pop\n        /* \"#utility.yul\":7156:7399   */\n      pop\n        /* \"#utility.yul\":7483:7487   */\n      0x20\n        /* \"#utility.yul\":7476:7481   */\n      dup4\n        /* \"#utility.yul\":7472:7488   */\n      add\n        /* \"#utility.yul\":7466:7489   */\n      mload\n        /* \"#utility.yul\":7536:7539   */\n      dup5\n        /* \"#utility.yul\":7530:7534   */\n      dup3\n        /* \"#utility.yul\":7526:7540   */\n      sub\n        /* \"#utility.yul\":7519:7523   */\n      0x20\n        /* \"#utility.yul\":7514:7517   */\n      dup7\n        /* \"#utility.yul\":7510:7524   */\n      add\n        /* \"#utility.yul\":7503:7541   */\n      mstore\n        /* \"#utility.yul\":7562:7635   */\n      tag_463\n        /* \"#utility.yul\":7630:7634   */\n      dup3\n        /* \"#utility.yul\":7616:7628   */\n      dup3\n        /* \"#utility.yul\":7562:7635   */\n      tag_357\n      jump\t// in\n    tag_463:\n        /* \"#utility.yul\":7554:7635   */\n      swap2\n      pop\n        /* \"#utility.yul\":7409:7646   */\n      pop\n        /* \"#utility.yul\":7735:7739   */\n      0x40\n        /* \"#utility.yul\":7728:7733   */\n      dup4\n        /* \"#utility.yul\":7724:7740   */\n      add\n        /* \"#utility.yul\":7718:7741   */\n      mload\n        /* \"#utility.yul\":7788:7791   */\n      dup5\n        /* \"#utility.yul\":7782:7786   */\n      dup3\n        /* \"#utility.yul\":7778:7792   */\n      sub\n        /* \"#utility.yul\":7771:7775   */\n      0x40\n        /* \"#utility.yul\":7766:7769   */\n      dup7\n        /* \"#utility.yul\":7762:7776   */\n      add\n        /* \"#utility.yul\":7755:7793   */\n      mstore\n        /* \"#utility.yul\":7814:7887   */\n      tag_464\n        /* \"#utility.yul\":7882:7886   */\n      dup3\n        /* \"#utility.yul\":7868:7880   */\n      dup3\n        /* \"#utility.yul\":7814:7887   */\n      tag_357\n      jump\t// in\n    tag_464:\n        /* \"#utility.yul\":7806:7887   */\n      swap2\n      pop\n        /* \"#utility.yul\":7656:7898   */\n      pop\n        /* \"#utility.yul\":7989:7993   */\n      0x60\n        /* \"#utility.yul\":7982:7987   */\n      dup4\n        /* \"#utility.yul\":7978:7994   */\n      add\n        /* \"#utility.yul\":7972:7995   */\n      mload\n        /* \"#utility.yul\":8008:8071   */\n      tag_465\n        /* \"#utility.yul\":8065:8069   */\n      0x60\n        /* \"#utility.yul\":8060:8063   */\n      dup7\n        /* \"#utility.yul\":8056:8070   */\n      add\n        /* \"#utility.yul\":8042:8054   */\n      dup3\n        /* \"#utility.yul\":8008:8071   */\n      tag_352\n      jump\t// in\n    tag_465:\n        /* \"#utility.yul\":7908:8081   */\n      pop\n        /* \"#utility.yul\":8168:8172   */\n      0x80\n        /* \"#utility.yul\":8161:8166   */\n      dup4\n        /* \"#utility.yul\":8157:8173   */\n      add\n        /* \"#utility.yul\":8151:8174   */\n      mload\n        /* \"#utility.yul\":8221:8224   */\n      dup5\n        /* \"#utility.yul\":8215:8219   */\n      dup3\n        /* \"#utility.yul\":8211:8225   */\n      sub\n        /* \"#utility.yul\":8204:8208   */\n      0x80\n        /* \"#utility.yul\":8199:8202   */\n      dup7\n        /* \"#utility.yul\":8195:8209   */\n      add\n        /* \"#utility.yul\":8188:8226   */\n      mstore\n        /* \"#utility.yul\":8247:8320   */\n      tag_466\n        /* \"#utility.yul\":8315:8319   */\n      dup3\n        /* \"#utility.yul\":8301:8313   */\n      dup3\n        /* \"#utility.yul\":8247:8320   */\n      tag_357\n      jump\t// in\n    tag_466:\n        /* \"#utility.yul\":8239:8320   */\n      swap2\n      pop\n        /* \"#utility.yul\":8091:8331   */\n      pop\n        /* \"#utility.yul\":8348:8352   */\n      dup1\n        /* \"#utility.yul\":8341:8352   */\n      swap2\n      pop\n        /* \"#utility.yul\":7110:8358   */\n      pop\n        /* \"#utility.yul\":6964:8358   */\n      swap3\n      swap2\n      pop\n      pop\n      jump\t// out\n        /* \"#utility.yul\":8454:9773   */\n    tag_364:\n        /* \"#utility.yul\":8595:8598   */\n      0x00\n        /* \"#utility.yul\":8631:8635   */\n      0xa0\n        /* \"#utility.yul\":8626:8629   */\n      dup4\n        /* \"#utility.yul\":8622:8636   */\n      add\n        /* \"#utility.yul\":8725:8729   */\n      0x00\n        /* \"#utility.yul\":8718:8723   */\n      dup4\n        /* \"#utility.yul\":8714:8730   */\n      add\n        /* \"#utility.yul\":8708:8731   */\n      mload\n        /* \"#utility.yul\":8778:8781   */\n      dup5\n        /* \"#utility.yul\":8772:8776   */\n      dup3\n        /* \"#utility.yul\":8768:8782   */\n      sub\n        /* \"#utility.yul\":8761:8765   */\n      0x00\n        /* \"#utility.yul\":8756:8759   */\n      dup7\n        /* \"#utility.yul\":8752:8766   */\n      add\n        /* \"#utility.yul\":8745:8783   */\n      mstore\n        /* \"#utility.yul\":8804:8877   */\n      tag_468\n        /* \"#utility.yul\":8872:8876   */\n      dup3\n        /* \"#utility.yul\":8858:8870   */\n      dup3\n        /* \"#utility.yul\":8804:8877   */\n      tag_357\n      jump\t// in\n    tag_468:\n        /* \"#utility.yul\":8796:8877   */\n      swap2\n      pop\n        /* \"#utility.yul\":8646:8888   */\n      pop\n        /* \"#utility.yul\":8972:8976   */\n      0x20\n        /* \"#utility.yul\":8965:8970   */\n      dup4\n        /* \"#utility.yul\":8961:8977   */\n      add\n        /* \"#utility.yul\":8955:8978   */\n      mload\n        /* \"#utility.yul\":9025:9028   */\n      dup5\n        /* \"#utility.yul\":9019:9023   */\n      dup3\n        /* \"#utility.yul\":9015:9029   */\n      sub\n        /* \"#utility.yul\":9008:9012   */\n      0x20\n        /* \"#utility.yul\":9003:9006   */\n      dup7\n        /* \"#utility.yul\":8999:9013   */\n      add\n        /* \"#utility.yul\":8992:9030   */\n      mstore\n        /* \"#utility.yul\":9051:9124   */\n      tag_469\n        /* \"#utility.yul\":9119:9123   */\n      dup3\n        /* \"#utility.yul\":9105:9117   */\n      dup3\n        /* \"#utility.yul\":9051:9124   */\n      tag_357\n      jump\t// in\n    tag_469:\n        /* \"#utility.yul\":9043:9124   */\n      swap2\n      pop\n        /* \"#utility.yul\":8898:9135   */\n      pop\n        /* \"#utility.yul\":9224:9228   */\n      0x40\n        /* \"#utility.yul\":9217:9222   */\n      dup4\n        /* \"#utility.yul\":9213:9229   */\n      add\n        /* \"#utility.yul\":9207:9230   */\n      mload\n        /* \"#utility.yul\":9277:9280   */\n      dup5\n        /* \"#utility.yul\":9271:9275   */\n      dup3\n        /* \"#utility.yul\":9267:9281   */\n      sub\n        /* \"#utility.yul\":9260:9264   */\n      0x40\n        /* \"#utility.yul\":9255:9258   */\n      dup7\n        /* \"#utility.yul\":9251:9265   */\n      add\n        /* \"#utility.yul\":9244:9282   */\n      mstore\n        /* \"#utility.yul\":9303:9376   */\n      tag_470\n        /* \"#utility.yul\":9371:9375   */\n      dup3\n        /* \"#utility.yul\":9357:9369   */\n      dup3\n        /* \"#utility.yul\":9303:9376   */\n      tag_357\n      jump\t// in\n    tag_470:\n        /* \"#utility.yul\":9295:9376   */\n      swap2\n      pop\n        /* \"#utility.yul\":9145:9387   */\n      pop\n        /* \"#utility.yul\":9478:9482   */\n      0x60\n        /* \"#utility.yul\":9471:9476   */\n      dup4\n        /* \"#utility.yul\":9467:9483   */\n      add\n        /* \"#utility.yul\":9461:9484   */\n      mload\n        /* \"#utility.yul\":9497:9560   */\n      tag_471\n        /* \"#utility.yul\":9554:9558   */\n      0x60\n        /* \"#utility.yul\":9549:9552   */\n      dup7\n        /* \"#utility.yul\":9545:9559   */\n      add\n        /* \"#utility.yul\":9531:9543   */\n      dup3\n        /* \"#utility.yul\":9497:9560   */\n      tag_352\n      jump\t// in\n    tag_471:\n        /* \"#utility.yul\":9397:9570   */\n      pop\n        /* \"#utility.yul\":9658:9662   */\n      0x80\n        /* \"#utility.yul\":9651:9656   */\n      dup4\n        /* \"#utility.yul\":9647:9663   */\n      add\n        /* \"#utility.yul\":9641:9664   */\n      mload\n        /* \"#utility.yul\":9677:9736   */\n      tag_472\n        /* \"#utility.yul\":9730:9734   */\n      0x80\n        /* \"#utility.yul\":9725:9728   */\n      dup7\n        /* \"#utility.yul\":9721:9735   */\n      add\n        /* \"#utility.yul\":9707:9719   */\n      dup3\n        /* \"#utility.yul\":9677:9736   */\n      tag_359\n      jump\t// in\n    tag_472:\n        /* \"#utility.yul\":9580:9746   */\n      pop\n        /* \"#utility.yul\":9763:9767   */\n      dup1\n        /* \"#utility.yul\":9756:9767   */\n      swap2\n      pop\n        /* \"#utility.yul\":8600:9773   */\n      pop\n        /* \"#utility.yul\":8454:9773   */\n      swap3\n      swap2\n      pop\n      pop\n      jump\t// out\n        /* \"#utility.yul\":9869:10934   */\n    tag_365:\n        /* \"#utility.yul\":10010:10013   */\n      0x00\n        /* \"#utility.yul\":10046:10050   */\n      0x80\n        /* \"#utility.yul\":10041:10044   */\n      dup4\n        /* \"#utility.yul\":10037:10051   */\n      add\n        /* \"#utility.yul\":10141:10145   */\n      0x00\n        /* \"#utility.yul\":10134:10139   */\n      dup4\n        /* \"#utility.yul\":10130:10146   */\n      add\n        /* \"#utility.yul\":10124:10147   */\n      mload\n        /* \"#utility.yul\":10194:10197   */\n      dup5\n        /* \"#utility.yul\":10188:10192   */\n      dup3\n        /* \"#utility.yul\":10184:10198   */\n      sub\n        /* \"#utility.yul\":10177:10181   */\n      0x00\n        /* \"#utility.yul\":10172:10175   */\n      dup7\n        /* \"#utility.yul\":10168:10182   */\n      add\n        /* \"#utility.yul\":10161:10199   */\n      mstore\n        /* \"#utility.yul\":10220:10293   */\n      tag_474\n        /* \"#utility.yul\":10288:10292   */\n      dup3\n        /* \"#utility.yul\":10274:10286   */\n      dup3\n        /* \"#utility.yul\":10220:10293   */\n      tag_357\n      jump\t// in\n    tag_474:\n        /* \"#utility.yul\":10212:10293   */\n      swap2\n      pop\n        /* \"#utility.yul\":10061:10304   */\n      pop\n        /* \"#utility.yul\":10389:10393   */\n      0x20\n        /* \"#utility.yul\":10382:10387   */\n      dup4\n        /* \"#utility.yul\":10378:10394   */\n      add\n        /* \"#utility.yul\":10372:10395   */\n      mload\n        /* \"#utility.yul\":10442:10445   */\n      dup5\n        /* \"#utility.yul\":10436:10440   */\n      dup3\n        /* \"#utility.yul\":10432:10446   */\n      sub\n        /* \"#utility.yul\":10425:10429   */\n      0x20\n        /* \"#utility.yul\":10420:10423   */\n      dup7\n        /* \"#utility.yul\":10416:10430   */\n      add\n        /* \"#utility.yul\":10409:10447   */\n      mstore\n        /* \"#utility.yul\":10468:10541   */\n      tag_475\n        /* \"#utility.yul\":10536:10540   */\n      dup3\n        /* \"#utility.yul\":10522:10534   */\n      dup3\n        /* \"#utility.yul\":10468:10541   */\n      tag_357\n      jump\t// in\n    tag_475:\n        /* \"#utility.yul\":10460:10541   */\n      swap2\n      pop\n        /* \"#utility.yul\":10314:10552   */\n      pop\n        /* \"#utility.yul\":10639:10643   */\n      0x40\n        /* \"#utility.yul\":10632:10637   */\n      dup4\n        /* \"#utility.yul\":10628:10644   */\n      add\n        /* \"#utility.yul\":10622:10645   */\n      mload\n        /* \"#utility.yul\":10658:10721   */\n      tag_476\n        /* \"#utility.yul\":10715:10719   */\n      0x40\n        /* \"#utility.yul\":10710:10713   */\n      dup7\n        /* \"#utility.yul\":10706:10720   */\n      add\n        /* \"#utility.yul\":10692:10704   */\n      dup3\n        /* \"#utility.yul\":10658:10721   */\n      tag_352\n      jump\t// in\n    tag_476:\n        /* \"#utility.yul\":10562:10731   */\n      pop\n        /* \"#utility.yul\":10819:10823   */\n      0x60\n        /* \"#utility.yul\":10812:10817   */\n      dup4\n        /* \"#utility.yul\":10808:10824   */\n      add\n        /* \"#utility.yul\":10802:10825   */\n      mload\n        /* \"#utility.yul\":10838:10897   */\n      tag_477\n        /* \"#utility.yul\":10891:10895   */\n      0x60\n        /* \"#utility.yul\":10886:10889   */\n      dup7\n        /* \"#utility.yul\":10882:10896   */\n      add\n        /* \"#utility.yul\":10868:10880   */\n      dup3\n        /* \"#utility.yul\":10838:10897   */\n      tag_359\n      jump\t// in\n    tag_477:\n        /* \"#utility.yul\":10741:10907   */\n      pop\n        /* \"#utility.yul\":10924:10928   */\n      dup1\n        /* \"#utility.yul\":10917:10928   */\n      swap2\n      pop\n        /* \"#utility.yul\":10015:10934   */\n      pop\n        /* \"#utility.yul\":9869:10934   */\n      swap3\n      swap2\n      pop\n      pop\n      jump\t// out\n        /* \"#utility.yul\":10940:13069   */\n    tag_17:\n        /* \"#utility.yul\":11642:11646   */\n      0x00\n        /* \"#utility.yul\":11680:11683   */\n      0x0100\n        /* \"#utility.yul\":11669:11678   */\n      dup3\n        /* \"#utility.yul\":11665:11684   */\n      add\n        /* \"#utility.yul\":11657:11684   */\n      swap1\n      pop\n        /* \"#utility.yul\":11694:11765   */\n      tag_479\n        /* \"#utility.yul\":11762:11763   */\n      0x00\n        /* \"#utility.yul\":11751:11760   */\n      dup4\n        /* \"#utility.yul\":11747:11764   */\n      add\n        /* \"#utility.yul\":11738:11744   */\n      dup12\n        /* \"#utility.yul\":11694:11765   */\n      tag_347\n      jump\t// in\n    tag_479:\n        /* \"#utility.yul\":11775:11858   */\n      tag_480\n        /* \"#utility.yul\":11854:11856   */\n      0x20\n        /* \"#utility.yul\":11843:11852   */\n      dup4\n        /* \"#utility.yul\":11839:11857   */\n      add\n        /* \"#utility.yul\":11830:11836   */\n      dup11\n        /* \"#utility.yul\":11775:11858   */\n      tag_351\n      jump\t// in\n    tag_480:\n        /* \"#utility.yul\":11905:11914   */\n      dup2\n        /* \"#utility.yul\":11899:11903   */\n      dup2\n        /* \"#utility.yul\":11895:11915   */\n      sub\n        /* \"#utility.yul\":11890:11892   */\n      0x40\n        /* \"#utility.yul\":11879:11888   */\n      dup4\n        /* \"#utility.yul\":11875:11893   */\n      add\n        /* \"#utility.yul\":11868:11916   */\n      mstore\n        /* \"#utility.yul\":11933:12043   */\n      tag_481\n        /* \"#utility.yul\":12038:12042   */\n      dup2\n        /* \"#utility.yul\":12029:12035   */\n      dup10\n        /* \"#utility.yul\":11933:12043   */\n      tag_360\n      jump\t// in\n    tag_481:\n        /* \"#utility.yul\":11925:12043   */\n      swap1\n      pop\n        /* \"#utility.yul\":12090:12099   */\n      dup2\n        /* \"#utility.yul\":12084:12088   */\n      dup2\n        /* \"#utility.yul\":12080:12100   */\n      sub\n        /* \"#utility.yul\":12075:12077   */\n      0x60\n        /* \"#utility.yul\":12064:12073   */\n      dup4\n        /* \"#utility.yul\":12060:12078   */\n      add\n        /* \"#utility.yul\":12053:12101   */\n      mstore\n        /* \"#utility.yul\":12118:12240   */\n      tag_482\n        /* \"#utility.yul\":12235:12239   */\n      dup2\n        /* \"#utility.yul\":12226:12232   */\n      dup9\n        /* \"#utility.yul\":12118:12240   */\n      tag_361\n      jump\t// in\n    tag_482:\n        /* \"#utility.yul\":12110:12240   */\n      swap1\n      pop\n        /* \"#utility.yul\":12288:12297   */\n      dup2\n        /* \"#utility.yul\":12282:12286   */\n      dup2\n        /* \"#utility.yul\":12278:12298   */\n      sub\n        /* \"#utility.yul\":12272:12275   */\n      0x80\n        /* \"#utility.yul\":12261:12270   */\n      dup4\n        /* \"#utility.yul\":12257:12276   */\n      add\n        /* \"#utility.yul\":12250:12299   */\n      mstore\n        /* \"#utility.yul\":12316:12444   */\n      tag_483\n        /* \"#utility.yul\":12439:12443   */\n      dup2\n        /* \"#utility.yul\":12430:12436   */\n      dup8\n        /* \"#utility.yul\":12316:12444   */\n      tag_362\n      jump\t// in\n    tag_483:\n        /* \"#utility.yul\":12308:12444   */\n      swap1\n      pop\n        /* \"#utility.yul\":12492:12501   */\n      dup2\n        /* \"#utility.yul\":12486:12490   */\n      dup2\n        /* \"#utility.yul\":12482:12502   */\n      sub\n        /* \"#utility.yul\":12476:12479   */\n      0xa0\n        /* \"#utility.yul\":12465:12474   */\n      dup4\n        /* \"#utility.yul\":12461:12480   */\n      add\n        /* \"#utility.yul\":12454:12503   */\n      mstore\n        /* \"#utility.yul\":12520:12650   */\n      tag_484\n        /* \"#utility.yul\":12645:12649   */\n      dup2\n        /* \"#utility.yul\":12636:12642   */\n      dup7\n        /* \"#utility.yul\":12520:12650   */\n      tag_363\n      jump\t// in\n    tag_484:\n        /* \"#utility.yul\":12512:12650   */\n      swap1\n      pop\n        /* \"#utility.yul\":12698:12707   */\n      dup2\n        /* \"#utility.yul\":12692:12696   */\n      dup2\n        /* \"#utility.yul\":12688:12708   */\n      sub\n        /* \"#utility.yul\":12682:12685   */\n      0xc0\n        /* \"#utility.yul\":12671:12680   */\n      dup4\n        /* \"#utility.yul\":12667:12686   */\n      add\n        /* \"#utility.yul\":12660:12709   */\n      mstore\n        /* \"#utility.yul\":12726:12856   */\n      tag_485\n        /* \"#utility.yul\":12851:12855   */\n      dup2\n        /* \"#utility.yul\":12842:12848   */\n      dup6\n        /* \"#utility.yul\":12726:12856   */\n      tag_364\n      jump\t// in\n    tag_485:\n        /* \"#utility.yul\":12718:12856   */\n      swap1\n      pop\n        /* \"#utility.yul\":12904:12913   */\n      dup2\n        /* \"#utility.yul\":12898:12902   */\n      dup2\n        /* \"#utility.yul\":12894:12914   */\n      sub\n        /* \"#utility.yul\":12888:12891   */\n      0xe0\n        /* \"#utility.yul\":12877:12886   */\n      dup4\n        /* \"#utility.yul\":12873:12892   */\n      add\n        /* \"#utility.yul\":12866:12915   */\n      mstore\n        /* \"#utility.yul\":12932:13062   */\n      tag_486\n        /* \"#utility.yul\":13057:13061   */\n      dup2\n        /* \"#utility.yul\":13048:13054   */\n      dup5\n        /* \"#utility.yul\":12932:13062   */\n      tag_365\n      jump\t// in\n    tag_486:\n        /* \"#utility.yul\":12924:13062   */\n      swap1\n      pop\n        /* \"#utility.yul\":10940:13069   */\n      swap10\n      swap9\n      pop\n      pop\n      pop\n      pop\n      pop\n      pop\n      pop\n      pop\n      pop\n      jump\t// out\n        /* \"#utility.yul\":13075:13218   */\n    tag_366:\n        /* \"#utility.yul\":13163:13211   */\n      tag_488\n        /* \"#utility.yul\":13205:13210   */\n      dup2\n        /* \"#utility.yul\":13163:13211   */\n      tag_350\n      jump\t// in\n    tag_488:\n        /* \"#utility.yul\":13158:13161   */\n      dup3\n        /* \"#utility.yul\":13151:13212   */\n      mstore\n        /* \"#utility.yul\":13075:13218   */\n      pop\n      pop\n      jump\t// out\n        /* \"#utility.yul\":13294:14318   */\n    tag_367:\n        /* \"#utility.yul\":13405:13408   */\n      0x00\n        /* \"#utility.yul\":13441:13445   */\n      0x80\n        /* \"#utility.yul\":13436:13439   */\n      dup4\n        /* \"#utility.yul\":13432:13446   */\n      add\n        /* \"#utility.yul\":13530:13534   */\n      0x00\n        /* \"#utility.yul\":13523:13528   */\n      dup4\n        /* \"#utility.yul\":13519:13535   */\n      add\n        /* \"#utility.yul\":13513:13536   */\n      mload\n        /* \"#utility.yul\":13549:13612   */\n      tag_490\n        /* \"#utility.yul\":13606:13610   */\n      0x00\n        /* \"#utility.yul\":13601:13604   */\n      dup7\n        /* \"#utility.yul\":13597:13611   */\n      add\n        /* \"#utility.yul\":13583:13595   */\n      dup3\n        /* \"#utility.yul\":13549:13612   */\n      tag_352\n      jump\t// in\n    tag_490:\n        /* \"#utility.yul\":13456:13622   */\n      pop\n        /* \"#utility.yul\":13704:13708   */\n      0x20\n        /* \"#utility.yul\":13697:13702   */\n      dup4\n        /* \"#utility.yul\":13693:13709   */\n      add\n        /* \"#utility.yul\":13687:13710   */\n      mload\n        /* \"#utility.yul\":13757:13760   */\n      dup5\n        /* \"#utility.yul\":13751:13755   */\n      dup3\n        /* \"#utility.yul\":13747:13761   */\n      sub\n        /* \"#utility.yul\":13740:13744   */\n      0x20\n        /* \"#utility.yul\":13735:13738   */\n      dup7\n        /* \"#utility.yul\":13731:13745   */\n      add\n        /* \"#utility.yul\":13724:13762   */\n      mstore\n        /* \"#utility.yul\":13783:13856   */\n      tag_491\n        /* \"#utility.yul\":13851:13855   */\n      dup3\n        /* \"#utility.yul\":13837:13849   */\n      dup3\n        /* \"#utility.yul\":13783:13856   */\n      tag_357\n      jump\t// in\n    tag_491:\n        /* \"#utility.yul\":13775:13856   */\n      swap2\n      pop\n        /* \"#utility.yul\":13632:13867   */\n      pop\n        /* \"#utility.yul\":13948:13952   */\n      0x40\n        /* \"#utility.yul\":13941:13946   */\n      dup4\n        /* \"#utility.yul\":13937:13953   */\n      add\n        /* \"#utility.yul\":13931:13954   */\n      mload\n        /* \"#utility.yul\":13967:14026   */\n      tag_492\n        /* \"#utility.yul\":14020:14024   */\n      0x40\n        /* \"#utility.yul\":14015:14018   */\n      dup7\n        /* \"#utility.yul\":14011:14025   */\n      add\n        /* \"#utility.yul\":13997:14009   */\n      dup3\n        /* \"#utility.yul\":13967:14026   */\n      tag_359\n      jump\t// in\n    tag_492:\n        /* \"#utility.yul\":13877:14036   */\n      pop\n        /* \"#utility.yul\":14128:14132   */\n      0x60\n        /* \"#utility.yul\":14121:14126   */\n      dup4\n        /* \"#utility.yul\":14117:14133   */\n      add\n        /* \"#utility.yul\":14111:14134   */\n      mload\n        /* \"#utility.yul\":14181:14184   */\n      dup5\n        /* \"#utility.yul\":14175:14179   */\n      dup3\n        /* \"#utility.yul\":14171:14185   */\n      sub\n        /* \"#utility.yul\":14164:14168   */\n      0x60\n        /* \"#utility.yul\":14159:14162   */\n      dup7\n        /* \"#utility.yul\":14155:14169   */\n      add\n        /* \"#utility.yul\":14148:14186   */\n      mstore\n        /* \"#utility.yul\":14207:14280   */\n      tag_493\n        /* \"#utility.yul\":14275:14279   */\n      dup3\n        /* \"#utility.yul\":14261:14273   */\n      dup3\n        /* \"#utility.yul\":14207:14280   */\n      tag_357\n      jump\t// in\n    tag_493:\n        /* \"#utility.yul\":14199:14280   */\n      swap2\n      pop\n        /* \"#utility.yul\":14046:14291   */\n      pop\n        /* \"#utility.yul\":14308:14312   */\n      dup1\n        /* \"#utility.yul\":14301:14312   */\n      swap2\n      pop\n        /* \"#utility.yul\":13410:14318   */\n      pop\n        /* \"#utility.yul\":13294:14318   */\n      swap3\n      swap2\n      pop\n      pop\n      jump\t// out\n        /* \"#utility.yul\":14406:15705   */\n    tag_368:\n        /* \"#utility.yul\":14529:14532   */\n      0x00\n        /* \"#utility.yul\":14565:14569   */\n      0xa0\n        /* \"#utility.yul\":14560:14563   */\n      dup4\n        /* \"#utility.yul\":14556:14570   */\n      add\n        /* \"#utility.yul\":14657:14661   */\n      0x00\n        /* \"#utility.yul\":14650:14655   */\n      dup4\n        /* \"#utility.yul\":14646:14662   */\n      add\n        /* \"#utility.yul\":14640:14663   */\n      mload\n        /* \"#utility.yul\":14710:14713   */\n      dup5\n        /* \"#utility.yul\":14704:14708   */\n      dup3\n        /* \"#utility.yul\":14700:14714   */\n      sub\n        /* \"#utility.yul\":14693:14697   */\n      0x00\n        /* \"#utility.yul\":14688:14691   */\n      dup7\n        /* \"#utility.yul\":14684:14698   */\n      add\n        /* \"#utility.yul\":14677:14715   */\n      mstore\n        /* \"#utility.yul\":14736:14809   */\n      tag_495\n        /* \"#utility.yul\":14804:14808   */\n      dup3\n        /* \"#utility.yul\":14790:14802   */\n      dup3\n        /* \"#utility.yul\":14736:14809   */\n      tag_357\n      jump\t// in\n    tag_495:\n        /* \"#utility.yul\":14728:14809   */\n      swap2\n      pop\n        /* \"#utility.yul\":14580:14820   */\n      pop\n        /* \"#utility.yul\":14904:14908   */\n      0x20\n        /* \"#utility.yul\":14897:14902   */\n      dup4\n        /* \"#utility.yul\":14893:14909   */\n      add\n        /* \"#utility.yul\":14887:14910   */\n      mload\n        /* \"#utility.yul\":14957:14960   */\n      dup5\n        /* \"#utility.yul\":14951:14955   */\n      dup3\n        /* \"#utility.yul\":14947:14961   */\n      sub\n        /* \"#utility.yul\":14940:14944   */\n      0x20\n        /* \"#utility.yul\":14935:14938   */\n      dup7\n        /* \"#utility.yul\":14931:14945   */\n      add\n        /* \"#utility.yul\":14924:14962   */\n      mstore\n        /* \"#utility.yul\":14983:15056   */\n      tag_496\n        /* \"#utility.yul\":15051:15055   */\n      dup3\n        /* \"#utility.yul\":15037:15049   */\n      dup3\n        /* \"#utility.yul\":14983:15056   */\n      tag_357\n      jump\t// in\n    tag_496:\n        /* \"#utility.yul\":14975:15056   */\n      swap2\n      pop\n        /* \"#utility.yul\":14830:15067   */\n      pop\n        /* \"#utility.yul\":15156:15160   */\n      0x40\n        /* \"#utility.yul\":15149:15154   */\n      dup4\n        /* \"#utility.yul\":15145:15161   */\n      add\n        /* \"#utility.yul\":15139:15162   */\n      mload\n        /* \"#utility.yul\":15209:15212   */\n      dup5\n        /* \"#utility.yul\":15203:15207   */\n      dup3\n        /* \"#utility.yul\":15199:15213   */\n      sub\n        /* \"#utility.yul\":15192:15196   */\n      0x40\n        /* \"#utility.yul\":15187:15190   */\n      dup7\n        /* \"#utility.yul\":15183:15197   */\n      add\n        /* \"#utility.yul\":15176:15214   */\n      mstore\n        /* \"#utility.yul\":15235:15308   */\n      tag_497\n        /* \"#utility.yul\":15303:15307   */\n      dup3\n        /* \"#utility.yul\":15289:15301   */\n      dup3\n        /* \"#utility.yul\":15235:15308   */\n      tag_357\n      jump\t// in\n    tag_497:\n        /* \"#utility.yul\":15227:15308   */\n      swap2\n      pop\n        /* \"#utility.yul\":15077:15319   */\n      pop\n        /* \"#utility.yul\":15410:15414   */\n      0x60\n        /* \"#utility.yul\":15403:15408   */\n      dup4\n        /* \"#utility.yul\":15399:15415   */\n      add\n        /* \"#utility.yul\":15393:15416   */\n      mload\n        /* \"#utility.yul\":15429:15492   */\n      tag_498\n        /* \"#utility.yul\":15486:15490   */\n      0x60\n        /* \"#utility.yul\":15481:15484   */\n      dup7\n        /* \"#utility.yul\":15477:15491   */\n      add\n        /* \"#utility.yul\":15463:15475   */\n      dup3\n        /* \"#utility.yul\":15429:15492   */\n      tag_352\n      jump\t// in\n    tag_498:\n        /* \"#utility.yul\":15329:15502   */\n      pop\n        /* \"#utility.yul\":15590:15594   */\n      0x80\n        /* \"#utility.yul\":15583:15588   */\n      dup4\n        /* \"#utility.yul\":15579:15595   */\n      add\n        /* \"#utility.yul\":15573:15596   */\n      mload\n        /* \"#utility.yul\":15609:15668   */\n      tag_499\n        /* \"#utility.yul\":15662:15666   */\n      0x80\n        /* \"#utility.yul\":15657:15660   */\n      dup7\n        /* \"#utility.yul\":15653:15667   */\n      add\n        /* \"#utility.yul\":15639:15651   */\n      dup3\n        /* \"#utility.yul\":15609:15668   */\n      tag_359\n      jump\t// in\n    tag_499:\n        /* \"#utility.yul\":15512:15678   */\n      pop\n        /* \"#utility.yul\":15695:15699   */\n      dup1\n        /* \"#utility.yul\":15688:15699   */\n      swap2\n      pop\n        /* \"#utility.yul\":14534:15705   */\n      pop\n        /* \"#utility.yul\":14406:15705   */\n      swap3\n      swap2\n      pop\n      pop\n      jump\t// out\n        /* \"#utility.yul\":15799:16851   */\n    tag_369:\n        /* \"#utility.yul\":15928:15931   */\n      0x00\n        /* \"#utility.yul\":15964:15968   */\n      0x80\n        /* \"#utility.yul\":15959:15962   */\n      dup4\n        /* \"#utility.yul\":15955:15969   */\n      add\n        /* \"#utility.yul\":16056:16060   */\n      0x00\n        /* \"#utility.yul\":16049:16054   */\n      dup4\n        /* \"#utility.yul\":16045:16061   */\n      add\n        /* \"#utility.yul\":16039:16062   */\n      mload\n        /* \"#utility.yul\":16109:16112   */\n      dup5\n        /* \"#utility.yul\":16103:16107   */\n      dup3\n        /* \"#utility.yul\":16099:16113   */\n      sub\n        /* \"#utility.yul\":16092:16096   */\n      0x00\n        /* \"#utility.yul\":16087:16090   */\n      dup7\n        /* \"#utility.yul\":16083:16097   */\n      add\n        /* \"#utility.yul\":16076:16114   */\n      mstore\n        /* \"#utility.yul\":16135:16208   */\n      tag_501\n        /* \"#utility.yul\":16203:16207   */\n      dup3\n        /* \"#utility.yul\":16189:16201   */\n      dup3\n        /* \"#utility.yul\":16135:16208   */\n      tag_357\n      jump\t// in\n    tag_501:\n        /* \"#utility.yul\":16127:16208   */\n      swap2\n      pop\n        /* \"#utility.yul\":15979:16219   */\n      pop\n        /* \"#utility.yul\":16307:16311   */\n      0x20\n        /* \"#utility.yul\":16300:16305   */\n      dup4\n        /* \"#utility.yul\":16296:16312   */\n      add\n        /* \"#utility.yul\":16290:16313   */\n      mload\n        /* \"#utility.yul\":16360:16363   */\n      dup5\n        /* \"#utility.yul\":16354:16358   */\n      dup3\n        /* \"#utility.yul\":16350:16364   */\n      sub\n        /* \"#utility.yul\":16343:16347   */\n      0x20\n        /* \"#utility.yul\":16338:16341   */\n      dup7\n        /* \"#utility.yul\":16334:16348   */\n      add\n        /* \"#utility.yul\":16327:16365   */\n      mstore\n        /* \"#utility.yul\":16386:16459   */\n      tag_502\n        /* \"#utility.yul\":16454:16458   */\n      dup3\n        /* \"#utility.yul\":16440:16452   */\n      dup3\n        /* \"#utility.yul\":16386:16459   */\n      tag_357\n      jump\t// in\n    tag_502:\n        /* \"#utility.yul\":16378:16459   */\n      swap2\n      pop\n        /* \"#utility.yul\":16229:16470   */\n      pop\n        /* \"#utility.yul\":16556:16560   */\n      0x40\n        /* \"#utility.yul\":16549:16554   */\n      dup4\n        /* \"#utility.yul\":16545:16561   */\n      add\n        /* \"#utility.yul\":16539:16562   */\n      mload\n        /* \"#utility.yul\":16575:16638   */\n      tag_503\n        /* \"#utility.yul\":16632:16636   */\n      0x40\n        /* \"#utility.yul\":16627:16630   */\n      dup7\n        /* \"#utility.yul\":16623:16637   */\n      add\n        /* \"#utility.yul\":16609:16621   */\n      dup3\n        /* \"#utility.yul\":16575:16638   */\n      tag_352\n      jump\t// in\n    tag_503:\n        /* \"#utility.yul\":16480:16648   */\n      pop\n        /* \"#utility.yul\":16736:16740   */\n      0x60\n        /* \"#utility.yul\":16729:16734   */\n      dup4\n        /* \"#utility.yul\":16725:16741   */\n      add\n        /* \"#utility.yul\":16719:16742   */\n      mload\n        /* \"#utility.yul\":16755:16814   */\n      tag_504\n        /* \"#utility.yul\":16808:16812   */\n      0x60\n        /* \"#utility.yul\":16803:16806   */\n      dup7\n        /* \"#utility.yul\":16799:16813   */\n      add\n        /* \"#utility.yul\":16785:16797   */\n      dup3\n        /* \"#utility.yul\":16755:16814   */\n      tag_359\n      jump\t// in\n    tag_504:\n        /* \"#utility.yul\":16658:16824   */\n      pop\n        /* \"#utility.yul\":16841:16845   */\n      dup1\n        /* \"#utility.yul\":16834:16845   */\n      swap2\n      pop\n        /* \"#utility.yul\":15933:16851   */\n      pop\n        /* \"#utility.yul\":15799:16851   */\n      swap3\n      swap2\n      pop\n      pop\n      jump\t// out\n        /* \"#utility.yul\":16947:18331   */\n    tag_370:\n        /* \"#utility.yul\":17078:17081   */\n      0x00\n        /* \"#utility.yul\":17114:17118   */\n      0xa0\n        /* \"#utility.yul\":17109:17112   */\n      dup4\n        /* \"#utility.yul\":17105:17119   */\n      add\n        /* \"#utility.yul\":17209:17213   */\n      0x00\n        /* \"#utility.yul\":17202:17207   */\n      dup4\n        /* \"#utility.yul\":17198:17214   */\n      add\n        /* \"#utility.yul\":17192:17215   */\n      mload\n        /* \"#utility.yul\":17262:17265   */\n      dup5\n        /* \"#utility.yul\":17256:17260   */\n      dup3\n        /* \"#utility.yul\":17252:17266   */\n      sub\n        /* \"#utility.yul\":17245:17249   */\n      0x00\n        /* \"#utility.yul\":17240:17243   */\n      dup7\n        /* \"#utility.yul\":17236:17250   */\n      add\n        /* \"#utility.yul\":17229:17267   */\n      mstore\n        /* \"#utility.yul\":17288:17361   */\n      tag_506\n        /* \"#utility.yul\":17356:17360   */\n      dup3\n        /* \"#utility.yul\":17342:17354   */\n      dup3\n        /* \"#utility.yul\":17288:17361   */\n      tag_357\n      jump\t// in\n    tag_506:\n        /* \"#utility.yul\":17280:17361   */\n      swap2\n      pop\n        /* \"#utility.yul\":17129:17372   */\n      pop\n        /* \"#utility.yul\":17456:17460   */\n      0x20\n        /* \"#utility.yul\":17449:17454   */\n      dup4\n        /* \"#utility.yul\":17445:17461   */\n      add\n        /* \"#utility.yul\":17439:17462   */\n      mload\n        /* \"#utility.yul\":17509:17512   */\n      dup5\n        /* \"#utility.yul\":17503:17507   */\n      dup3\n        /* \"#utility.yul\":17499:17513   */\n      sub\n        /* \"#utility.yul\":17492:17496   */\n      0x20\n        /* \"#utility.yul\":17487:17490   */\n      dup7\n        /* \"#utility.yul\":17483:17497   */\n      add\n        /* \"#utility.yul\":17476:17514   */\n      mstore\n        /* \"#utility.yul\":17535:17608   */\n      tag_507\n        /* \"#utility.yul\":17603:17607   */\n      dup3\n        /* \"#utility.yul\":17589:17601   */\n      dup3\n        /* \"#utility.yul\":17535:17608   */\n      tag_357\n      jump\t// in\n    tag_507:\n        /* \"#utility.yul\":17527:17608   */\n      swap2\n      pop\n        /* \"#utility.yul\":17382:17619   */\n      pop\n        /* \"#utility.yul\":17708:17712   */\n      0x40\n        /* \"#utility.yul\":17701:17706   */\n      dup4\n        /* \"#utility.yul\":17697:17713   */\n      add\n        /* \"#utility.yul\":17691:17714   */\n      mload\n        /* \"#utility.yul\":17761:17764   */\n      dup5\n        /* \"#utility.yul\":17755:17759   */\n      dup3\n        /* \"#utility.yul\":17751:17765   */\n      sub\n        /* \"#utility.yul\":17744:17748   */\n      0x40\n        /* \"#utility.yul\":17739:17742   */\n      dup7\n        /* \"#utility.yul\":17735:17749   */\n      add\n        /* \"#utility.yul\":17728:17766   */\n      mstore\n        /* \"#utility.yul\":17787:17860   */\n      tag_508\n        /* \"#utility.yul\":17855:17859   */\n      dup3\n        /* \"#utility.yul\":17841:17853   */\n      dup3\n        /* \"#utility.yul\":17787:17860   */\n      tag_357\n      jump\t// in\n    tag_508:\n        /* \"#utility.yul\":17779:17860   */\n      swap2\n      pop\n        /* \"#utility.yul\":17629:17871   */\n      pop\n        /* \"#utility.yul\":17962:17966   */\n      0x60\n        /* \"#utility.yul\":17955:17960   */\n      dup4\n        /* \"#utility.yul\":17951:17967   */\n      add\n        /* \"#utility.yul\":17945:17968   */\n      mload\n        /* \"#utility.yul\":17981:18044   */\n      tag_509\n        /* \"#utility.yul\":18038:18042   */\n      0x60\n        /* \"#utility.yul\":18033:18036   */\n      dup7\n        /* \"#utility.yul\":18029:18043   */\n      add\n        /* \"#utility.yul\":18015:18027   */\n      dup3\n        /* \"#utility.yul\":17981:18044   */\n      tag_352\n      jump\t// in\n    tag_509:\n        /* \"#utility.yul\":17881:18054   */\n      pop\n        /* \"#utility.yul\":18141:18145   */\n      0x80\n        /* \"#utility.yul\":18134:18139   */\n      dup4\n        /* \"#utility.yul\":18130:18146   */\n      add\n        /* \"#utility.yul\":18124:18147   */\n      mload\n        /* \"#utility.yul\":18194:18197   */\n      dup5\n        /* \"#utility.yul\":18188:18192   */\n      dup3\n        /* \"#utility.yul\":18184:18198   */\n      sub\n        /* \"#utility.yul\":18177:18181   */\n      0x80\n        /* \"#utility.yul\":18172:18175   */\n      dup7\n        /* \"#utility.yul\":18168:18182   */\n      add\n        /* \"#utility.yul\":18161:18199   */\n      mstore\n        /* \"#utility.yul\":18220:18293   */\n      tag_510\n        /* \"#utility.yul\":18288:18292   */\n      dup3\n        /* \"#utility.yul\":18274:18286   */\n      dup3\n        /* \"#utility.yul\":18220:18293   */\n      tag_357\n      jump\t// in\n    tag_510:\n        /* \"#utility.yul\":18212:18293   */\n      swap2\n      pop\n        /* \"#utility.yul\":18064:18304   */\n      pop\n        /* \"#utility.yul\":18321:18325   */\n      dup1\n        /* \"#utility.yul\":18314:18325   */\n      swap2\n      pop\n        /* \"#utility.yul\":17083:18331   */\n      pop\n        /* \"#utility.yul\":16947:18331   */\n      swap3\n      swap2\n      pop\n      pop\n      jump\t// out\n        /* \"#utility.yul\":18427:19736   */\n    tag_371:\n        /* \"#utility.yul\":18558:18561   */\n      0x00\n        /* \"#utility.yul\":18594:18598   */\n      0xa0\n        /* \"#utility.yul\":18589:18592   */\n      dup4\n        /* \"#utility.yul\":18585:18599   */\n      add\n        /* \"#utility.yul\":18688:18692   */\n      0x00\n        /* \"#utility.yul\":18681:18686   */\n      dup4\n        /* \"#utility.yul\":18677:18693   */\n      add\n        /* \"#utility.yul\":18671:18694   */\n      mload\n        /* \"#utility.yul\":18741:18744   */\n      dup5\n        /* \"#utility.yul\":18735:18739   */\n      dup3\n        /* \"#utility.yul\":18731:18745   */\n      sub\n        /* \"#utility.yul\":18724:18728   */\n      0x00\n        /* \"#utility.yul\":18719:18722   */\n      dup7\n        /* \"#utility.yul\":18715:18729   */\n      add\n        /* \"#utility.yul\":18708:18746   */\n      mstore\n        /* \"#utility.yul\":18767:18840   */\n      tag_512\n        /* \"#utility.yul\":18835:18839   */\n      dup3\n        /* \"#utility.yul\":18821:18833   */\n      dup3\n        /* \"#utility.yul\":18767:18840   */\n      tag_357\n      jump\t// in\n    tag_512:\n        /* \"#utility.yul\":18759:18840   */\n      swap2\n      pop\n        /* \"#utility.yul\":18609:18851   */\n      pop\n        /* \"#utility.yul\":18935:18939   */\n      0x20\n        /* \"#utility.yul\":18928:18933   */\n      dup4\n        /* \"#utility.yul\":18924:18940   */\n      add\n        /* \"#utility.yul\":18918:18941   */\n      mload\n        /* \"#utility.yul\":18988:18991   */\n      dup5\n        /* \"#utility.yul\":18982:18986   */\n      dup3\n        /* \"#utility.yul\":18978:18992   */\n      sub\n        /* \"#utility.yul\":18971:18975   */\n      0x20\n        /* \"#utility.yul\":18966:18969   */\n      dup7\n        /* \"#utility.yul\":18962:18976   */\n      add\n        /* \"#utility.yul\":18955:18993   */\n      mstore\n        /* \"#utility.yul\":19014:19087   */\n      tag_513\n        /* \"#utility.yul\":19082:19086   */\n      dup3\n        /* \"#utility.yul\":19068:19080   */\n      dup3\n        /* \"#utility.yul\":19014:19087   */\n      tag_357\n      jump\t// in\n    tag_513:\n        /* \"#utility.yul\":19006:19087   */\n      swap2\n      pop\n        /* \"#utility.yul\":18861:19098   */\n      pop\n        /* \"#utility.yul\":19187:19191   */\n      0x40\n        /* \"#utility.yul\":19180:19185   */\n      dup4\n        /* \"#utility.yul\":19176:19192   */\n      add\n        /* \"#utility.yul\":19170:19193   */\n      mload\n        /* \"#utility.yul\":19240:19243   */\n      dup5\n        /* \"#utility.yul\":19234:19238   */\n      dup3\n        /* \"#utility.yul\":19230:19244   */\n      sub\n        /* \"#utility.yul\":19223:19227   */\n      0x40\n        /* \"#utility.yul\":19218:19221   */\n      dup7\n        /* \"#utility.yul\":19214:19228   */\n      add\n        /* \"#utility.yul\":19207:19245   */\n      mstore\n        /* \"#utility.yul\":19266:19339   */\n      tag_514\n        /* \"#utility.yul\":19334:19338   */\n      dup3\n        /* \"#utility.yul\":19320:19332   */\n      dup3\n        /* \"#utility.yul\":19266:19339   */\n      tag_357\n      jump\t// in\n    tag_514:\n        /* \"#utility.yul\":19258:19339   */\n      swap2\n      pop\n        /* \"#utility.yul\":19108:19350   */\n      pop\n        /* \"#utility.yul\":19441:19445   */\n      0x60\n        /* \"#utility.yul\":19434:19439   */\n      dup4\n        /* \"#utility.yul\":19430:19446   */\n      add\n        /* \"#utility.yul\":19424:19447   */\n      mload\n        /* \"#utility.yul\":19460:19523   */\n      tag_515\n        /* \"#utility.yul\":19517:19521   */\n      0x60\n        /* \"#utility.yul\":19512:19515   */\n      dup7\n        /* \"#utility.yul\":19508:19522   */\n      add\n        /* \"#utility.yul\":19494:19506   */\n      dup3\n        /* \"#utility.yul\":19460:19523   */\n      tag_352\n      jump\t// in\n    tag_515:\n        /* \"#utility.yul\":19360:19533   */\n      pop\n        /* \"#utility.yul\":19621:19625   */\n      0x80\n        /* \"#utility.yul\":19614:19619   */\n      dup4\n        /* \"#utility.yul\":19610:19626   */\n      add\n        /* \"#utility.yul\":19604:19627   */\n      mload\n        /* \"#utility.yul\":19640:19699   */\n      tag_516\n        /* \"#utility.yul\":19693:19697   */\n      0x80\n        /* \"#utility.yul\":19688:19691   */\n      dup7\n        /* \"#utility.yul\":19684:19698   */\n      add\n        /* \"#utility.yul\":19670:19682   */\n      dup3\n        /* \"#utility.yul\":19640:19699   */\n      tag_359\n      jump\t// in\n    tag_516:\n        /* \"#utility.yul\":19543:19709   */\n      pop\n        /* \"#utility.yul\":19726:19730   */\n      dup1\n        /* \"#utility.yul\":19719:19730   */\n      swap2\n      pop\n        /* \"#utility.yul\":18563:19736   */\n      pop\n        /* \"#utility.yul\":18427:19736   */\n      swap3\n      swap2\n      pop\n      pop\n      jump\t// out\n        /* \"#utility.yul\":19832:20887   */\n    tag_372:\n        /* \"#utility.yul\":19963:19966   */\n      0x00\n        /* \"#utility.yul\":19999:20003   */\n      0x80\n        /* \"#utility.yul\":19994:19997   */\n      dup4\n        /* \"#utility.yul\":19990:20004   */\n      add\n        /* \"#utility.yul\":20094:20098   */\n      0x00\n        /* \"#utility.yul\":20087:20092   */\n      dup4\n        /* \"#utility.yul\":20083:20099   */\n      add\n        /* \"#utility.yul\":20077:20100   */\n      mload\n        /* \"#utility.yul\":20147:20150   */\n      dup5\n        /* \"#utility.yul\":20141:20145   */\n      dup3\n        /* \"#utility.yul\":20137:20151   */\n      sub\n        /* \"#utility.yul\":20130:20134   */\n      0x00\n        /* \"#utility.yul\":20125:20128   */\n      dup7\n        /* \"#utility.yul\":20121:20135   */\n      add\n        /* \"#utility.yul\":20114:20152   */\n      mstore\n        /* \"#utility.yul\":20173:20246   */\n      tag_518\n        /* \"#utility.yul\":20241:20245   */\n      dup3\n        /* \"#utility.yul\":20227:20239   */\n      dup3\n        /* \"#utility.yul\":20173:20246   */\n      tag_357\n      jump\t// in\n    tag_518:\n        /* \"#utility.yul\":20165:20246   */\n      swap2\n      pop\n        /* \"#utility.yul\":20014:20257   */\n      pop\n        /* \"#utility.yul\":20342:20346   */\n      0x20\n        /* \"#utility.yul\":20335:20340   */\n      dup4\n        /* \"#utility.yul\":20331:20347   */\n      add\n        /* \"#utility.yul\":20325:20348   */\n      mload\n        /* \"#utility.yul\":20395:20398   */\n      dup5\n        /* \"#utility.yul\":20389:20393   */\n      dup3\n        /* \"#utility.yul\":20385:20399   */\n      sub\n        /* \"#utility.yul\":20378:20382   */\n      0x20\n        /* \"#utility.yul\":20373:20376   */\n      dup7\n        /* \"#utility.yul\":20369:20383   */\n      add\n        /* \"#utility.yul\":20362:20400   */\n      mstore\n        /* \"#utility.yul\":20421:20494   */\n      tag_519\n        /* \"#utility.yul\":20489:20493   */\n      dup3\n        /* \"#utility.yul\":20475:20487   */\n      dup3\n        /* \"#utility.yul\":20421:20494   */\n      tag_357\n      jump\t// in\n    tag_519:\n        /* \"#utility.yul\":20413:20494   */\n      swap2\n      pop\n        /* \"#utility.yul\":20267:20505   */\n      pop\n        /* \"#utility.yul\":20592:20596   */\n      0x40\n        /* \"#utility.yul\":20585:20590   */\n      dup4\n        /* \"#utility.yul\":20581:20597   */\n      add\n        /* \"#utility.yul\":20575:20598   */\n      mload\n        /* \"#utility.yul\":20611:20674   */\n      tag_520\n        /* \"#utility.yul\":20668:20672   */\n      0x40\n        /* \"#utility.yul\":20663:20666   */\n      dup7\n        /* \"#utility.yul\":20659:20673   */\n      add\n        /* \"#utility.yul\":20645:20657   */\n      dup3\n        /* \"#utility.yul\":20611:20674   */\n      tag_352\n      jump\t// in\n    tag_520:\n        /* \"#utility.yul\":20515:20684   */\n      pop\n        /* \"#utility.yul\":20772:20776   */\n      0x60\n        /* \"#utility.yul\":20765:20770   */\n      dup4\n        /* \"#utility.yul\":20761:20777   */\n      add\n        /* \"#utility.yul\":20755:20778   */\n      mload\n        /* \"#utility.yul\":20791:20850   */\n      tag_521\n        /* \"#utility.yul\":20844:20848   */\n      0x60\n        /* \"#utility.yul\":20839:20842   */\n      dup7\n        /* \"#utility.yul\":20835:20849   */\n      add\n        /* \"#utility.yul\":20821:20833   */\n      dup3\n        /* \"#utility.yul\":20791:20850   */\n      tag_359\n      jump\t// in\n    tag_521:\n        /* \"#utility.yul\":20694:20860   */\n      pop\n        /* \"#utility.yul\":20877:20881   */\n      dup1\n        /* \"#utility.yul\":20870:20881   */\n      swap2\n      pop\n        /* \"#utility.yul\":19968:20887   */\n      pop\n        /* \"#utility.yul\":19832:20887   */\n      swap3\n      swap2\n      pop\n      pop\n      jump\t// out\n        /* \"#utility.yul\":20969:23334   */\n    tag_373:\n        /* \"#utility.yul\":21096:21099   */\n      0x00\n        /* \"#utility.yul\":21132:21138   */\n      0x0100\n        /* \"#utility.yul\":21127:21130   */\n      dup4\n        /* \"#utility.yul\":21123:21139   */\n      add\n        /* \"#utility.yul\":21226:21230   */\n      0x00\n        /* \"#utility.yul\":21219:21224   */\n      dup4\n        /* \"#utility.yul\":21215:21231   */\n      add\n        /* \"#utility.yul\":21209:21232   */\n      mload\n        /* \"#utility.yul\":21245:21308   */\n      tag_523\n        /* \"#utility.yul\":21302:21306   */\n      0x00\n        /* \"#utility.yul\":21297:21300   */\n      dup7\n        /* \"#utility.yul\":21293:21307   */\n      add\n        /* \"#utility.yul\":21279:21291   */\n      dup3\n        /* \"#utility.yul\":21245:21308   */\n      tag_352\n      jump\t// in\n    tag_523:\n        /* \"#utility.yul\":21149:21318   */\n      pop\n        /* \"#utility.yul\":21407:21411   */\n      0x20\n        /* \"#utility.yul\":21400:21405   */\n      dup4\n        /* \"#utility.yul\":21396:21412   */\n      add\n        /* \"#utility.yul\":21390:21413   */\n      mload\n        /* \"#utility.yul\":21426:21500   */\n      tag_524\n        /* \"#utility.yul\":21494:21498   */\n      0x20\n        /* \"#utility.yul\":21489:21492   */\n      dup7\n        /* \"#utility.yul\":21485:21499   */\n      add\n        /* \"#utility.yul\":21471:21483   */\n      dup3\n        /* \"#utility.yul\":21426:21500   */\n      tag_366\n      jump\t// in\n    tag_524:\n        /* \"#utility.yul\":21328:21510   */\n      pop\n        /* \"#utility.yul\":21592:21596   */\n      0x40\n        /* \"#utility.yul\":21585:21590   */\n      dup4\n        /* \"#utility.yul\":21581:21597   */\n      add\n        /* \"#utility.yul\":21575:21598   */\n      mload\n        /* \"#utility.yul\":21645:21648   */\n      dup5\n        /* \"#utility.yul\":21639:21643   */\n      dup3\n        /* \"#utility.yul\":21635:21649   */\n      sub\n        /* \"#utility.yul\":21628:21632   */\n      0x40\n        /* \"#utility.yul\":21623:21626   */\n      dup7\n        /* \"#utility.yul\":21619:21633   */\n      add\n        /* \"#utility.yul\":21612:21650   */\n      mstore\n        /* \"#utility.yul\":21671:21776   */\n      tag_525\n        /* \"#utility.yul\":21771:21775   */\n      dup3\n        /* \"#utility.yul\":21757:21769   */\n      dup3\n        /* \"#utility.yul\":21671:21776   */\n      tag_367\n      jump\t// in\n    tag_525:\n        /* \"#utility.yul\":21663:21776   */\n      swap2\n      pop\n        /* \"#utility.yul\":21520:21787   */\n      pop\n        /* \"#utility.yul\":21875:21879   */\n      0x60\n        /* \"#utility.yul\":21868:21873   */\n      dup4\n        /* \"#utility.yul\":21864:21880   */\n      add\n        /* \"#utility.yul\":21858:21881   */\n      mload\n        /* \"#utility.yul\":21928:21931   */\n      dup5\n        /* \"#utility.yul\":21922:21926   */\n      dup3\n        /* \"#utility.yul\":21918:21932   */\n      sub\n        /* \"#utility.yul\":21911:21915   */\n      0x60\n        /* \"#utility.yul\":21906:21909   */\n      dup7\n        /* \"#utility.yul\":21902:21916   */\n      add\n        /* \"#utility.yul\":21895:21933   */\n      mstore\n        /* \"#utility.yul\":21954:22071   */\n      tag_526\n        /* \"#utility.yul\":22066:22070   */\n      dup3\n        /* \"#utility.yul\":22052:22064   */\n      dup3\n        /* \"#utility.yul\":21954:22071   */\n      tag_368\n      jump\t// in\n    tag_526:\n        /* \"#utility.yul\":21946:22071   */\n      swap2\n      pop\n        /* \"#utility.yul\":21797:22082   */\n      pop\n        /* \"#utility.yul\":22173:22177   */\n      0x80\n        /* \"#utility.yul\":22166:22171   */\n      dup4\n        /* \"#utility.yul\":22162:22178   */\n      add\n        /* \"#utility.yul\":22156:22179   */\n      mload\n        /* \"#utility.yul\":22226:22229   */\n      dup5\n        /* \"#utility.yul\":22220:22224   */\n      dup3\n        /* \"#utility.yul\":22216:22230   */\n      sub\n        /* \"#utility.yul\":22209:22213   */\n      0x80\n        /* \"#utility.yul\":22204:22207   */\n      dup7\n        /* \"#utility.yul\":22200:22214   */\n      add\n        /* \"#utility.yul\":22193:22231   */\n      mstore\n        /* \"#utility.yul\":22252:22375   */\n      tag_527\n        /* \"#utility.yul\":22370:22374   */\n      dup3\n        /* \"#utility.yul\":22356:22368   */\n      dup3\n        /* \"#utility.yul\":22252:22375   */\n      tag_369\n      jump\t// in\n    tag_527:\n        /* \"#utility.yul\":22244:22375   */\n      swap2\n      pop\n        /* \"#utility.yul\":22092:22386   */\n      pop\n        /* \"#utility.yul\":22478:22482   */\n      0xa0\n        /* \"#utility.yul\":22471:22476   */\n      dup4\n        /* \"#utility.yul\":22467:22483   */\n      add\n        /* \"#utility.yul\":22461:22484   */\n      mload\n        /* \"#utility.yul\":22531:22534   */\n      dup5\n        /* \"#utility.yul\":22525:22529   */\n      dup3\n        /* \"#utility.yul\":22521:22535   */\n      sub\n        /* \"#utility.yul\":22514:22518   */\n      0xa0\n        /* \"#utility.yul\":22509:22512   */\n      dup7\n        /* \"#utility.yul\":22505:22519   */\n      add\n        /* \"#utility.yul\":22498:22536   */\n      mstore\n        /* \"#utility.yul\":22557:22682   */\n      tag_528\n        /* \"#utility.yul\":22677:22681   */\n      dup3\n        /* \"#utility.yul\":22663:22675   */\n      dup3\n        /* \"#utility.yul\":22557:22682   */\n      tag_370\n      jump\t// in\n    tag_528:\n        /* \"#utility.yul\":22549:22682   */\n      swap2\n      pop\n        /* \"#utility.yul\":22396:22693   */\n      pop\n        /* \"#utility.yul\":22785:22789   */\n      0xc0\n        /* \"#utility.yul\":22778:22783   */\n      dup4\n        /* \"#utility.yul\":22774:22790   */\n      add\n        /* \"#utility.yul\":22768:22791   */\n      mload\n        /* \"#utility.yul\":22838:22841   */\n      dup5\n        /* \"#utility.yul\":22832:22836   */\n      dup3\n        /* \"#utility.yul\":22828:22842   */\n      sub\n        /* \"#utility.yul\":22821:22825   */\n      0xc0\n        /* \"#utility.yul\":22816:22819   */\n      dup7\n        /* \"#utility.yul\":22812:22826   */\n      add\n        /* \"#utility.yul\":22805:22843   */\n      mstore\n        /* \"#utility.yul\":22864:22989   */\n      tag_529\n        /* \"#utility.yul\":22984:22988   */\n      dup3\n        /* \"#utility.yul\":22970:22982   */\n      dup3\n        /* \"#utility.yul\":22864:22989   */\n      tag_371\n      jump\t// in\n    tag_529:\n        /* \"#utility.yul\":22856:22989   */\n      swap2\n      pop\n        /* \"#utility.yul\":22703:23000   */\n      pop\n        /* \"#utility.yul\":23092:23096   */\n      0xe0\n        /* \"#utility.yul\":23085:23090   */\n      dup4\n        /* \"#utility.yul\":23081:23097   */\n      add\n        /* \"#utility.yul\":23075:23098   */\n      mload\n        /* \"#utility.yul\":23145:23148   */\n      dup5\n        /* \"#utility.yul\":23139:23143   */\n      dup3\n        /* \"#utility.yul\":23135:23149   */\n      sub\n        /* \"#utility.yul\":23128:23132   */\n      0xe0\n        /* \"#utility.yul\":23123:23126   */\n      dup7\n        /* \"#utility.yul\":23119:23133   */\n      add\n        /* \"#utility.yul\":23112:23150   */\n      mstore\n        /* \"#utility.yul\":23171:23296   */\n      tag_530\n        /* \"#utility.yul\":23291:23295   */\n      dup3\n        /* \"#utility.yul\":23277:23289   */\n      dup3\n        /* \"#utility.yul\":23171:23296   */\n      tag_372\n      jump\t// in\n    tag_530:\n        /* \"#utility.yul\":23163:23296   */\n      swap2\n      pop\n        /* \"#utility.yul\":23010:23307   */\n      pop\n        /* \"#utility.yul\":23324:23328   */\n      dup1\n        /* \"#utility.yul\":23317:23328   */\n      swap2\n      pop\n        /* \"#utility.yul\":21101:23334   */\n      pop\n        /* \"#utility.yul\":20969:23334   */\n      swap3\n      swap2\n      pop\n      pop\n      jump\t// out\n        /* \"#utility.yul\":23340:23729   */\n    tag_22:\n        /* \"#utility.yul\":23491:23495   */\n      0x00\n        /* \"#utility.yul\":23529:23531   */\n      0x20\n        /* \"#utility.yul\":23518:23527   */\n      dup3\n        /* \"#utility.yul\":23514:23532   */\n      add\n        /* \"#utility.yul\":23506:23532   */\n      swap1\n      pop\n        /* \"#utility.yul\":23578:23587   */\n      dup2\n        /* \"#utility.yul\":23572:23576   */\n      dup2\n        /* \"#utility.yul\":23568:23588   */\n      sub\n        /* \"#utility.yul\":23564:23565   */\n      0x00\n        /* \"#utility.yul\":23553:23562   */\n      dup4\n        /* \"#utility.yul\":23549:23566   */\n      add\n        /* \"#utility.yul\":23542:23589   */\n      mstore\n        /* \"#utility.yul\":23606:23722   */\n      tag_532\n        /* \"#utility.yul\":23717:23721   */\n      dup2\n        /* \"#utility.yul\":23708:23714   */\n      dup5\n        /* \"#utility.yul\":23606:23722   */\n      tag_373\n      jump\t// in\n    tag_532:\n        /* \"#utility.yul\":23598:23722   */\n      swap1\n      pop\n        /* \"#utility.yul\":23340:23729   */\n      swap3\n      swap2\n      pop\n      pop\n      jump\t// out\n        /* \"#utility.yul\":23735:23852   */\n    tag_374:\n        /* \"#utility.yul\":23844:23845   */\n      0x00\n        /* \"#utility.yul\":23841:23842   */\n      dup1\n        /* \"#utility.yul\":23834:23846   */\n      revert\n        /* \"#utility.yul\":23858:23975   */\n    tag_375:\n        /* \"#utility.yul\":23967:23968   */\n      0x00\n        /* \"#utility.yul\":23964:23965   */\n      dup1\n        /* \"#utility.yul\":23957:23969   */\n      revert\n        /* \"#utility.yul\":23981:24161   */\n    tag_376:\n        /* \"#utility.yul\":24029:24106   */\n      0x4e487b7100000000000000000000000000000000000000000000000000000000\n        /* \"#utility.yul\":24026:24027   */\n      0x00\n        /* \"#utility.yul\":24019:24107   */\n      mstore\n        /* \"#utility.yul\":24126:24130   */\n      0x41\n        /* \"#utility.yul\":24123:24124   */\n      0x04\n        /* \"#utility.yul\":24116:24131   */\n      mstore\n        /* \"#utility.yul\":24150:24154   */\n      0x24\n        /* \"#utility.yul\":24147:24148   */\n      0x00\n        /* \"#utility.yul\":24140:24155   */\n      revert\n        /* \"#utility.yul\":24167:24448   */\n    tag_377:\n        /* \"#utility.yul\":24250:24277   */\n      tag_537\n        /* \"#utility.yul\":24272:24276   */\n      dup3\n        /* \"#utility.yul\":24250:24277   */\n      tag_356\n      jump\t// in\n    tag_537:\n        /* \"#utility.yul\":24242:24248   */\n      dup2\n        /* \"#utility.yul\":24238:24278   */\n      add\n        /* \"#utility.yul\":24380:24386   */\n      dup2\n        /* \"#utility.yul\":24368:24378   */\n      dup2\n        /* \"#utility.yul\":24365:24387   */\n      lt\n        /* \"#utility.yul\":24344:24362   */\n      0xffffffffffffffff\n        /* \"#utility.yul\":24332:24342   */\n      dup3\n        /* \"#utility.yul\":24329:24363   */\n      gt\n        /* \"#utility.yul\":24326:24388   */\n      or\n        /* \"#utility.yul\":24323:24411   */\n      iszero\n      tag_538\n      jumpi\n        /* \"#utility.yul\":24391:24409   */\n      tag_539\n      tag_376\n      jump\t// in\n    tag_539:\n        /* \"#utility.yul\":24323:24411   */\n    tag_538:\n        /* \"#utility.yul\":24431:24441   */\n      dup1\n        /* \"#utility.yul\":24427:24429   */\n      0x40\n        /* \"#utility.yul\":24420:24442   */\n      mstore\n        /* \"#utility.yul\":24210:24448   */\n      pop\n        /* \"#utility.yul\":24167:24448   */\n      pop\n      pop\n      jump\t// out\n        /* \"#utility.yul\":24454:24583   */\n    tag_378:\n        /* \"#utility.yul\":24488:24494   */\n      0x00\n        /* \"#utility.yul\":24515:24535   */\n      tag_541\n      tag_341\n      jump\t// in\n    tag_541:\n        /* \"#utility.yul\":24505:24535   */\n      swap1\n      pop\n        /* \"#utility.yul\":24544:24577   */\n      tag_542\n        /* \"#utility.yul\":24572:24576   */\n      dup3\n        /* \"#utility.yul\":24564:24570   */\n      dup3\n        /* \"#utility.yul\":24544:24577   */\n      tag_377\n      jump\t// in\n    tag_542:\n        /* \"#utility.yul\":24454:24583   */\n      swap2\n      swap1\n      pop\n      jump\t// out\n        /* \"#utility.yul\":24589:24897   */\n    tag_379:\n        /* \"#utility.yul\":24651:24655   */\n      0x00\n        /* \"#utility.yul\":24741:24759   */\n      0xffffffffffffffff\n        /* \"#utility.yul\":24733:24739   */\n      dup3\n        /* \"#utility.yul\":24730:24760   */\n      gt\n        /* \"#utility.yul\":24727:24783   */\n      iszero\n      tag_544\n      jumpi\n        /* \"#utility.yul\":24763:24781   */\n      tag_545\n      tag_376\n      jump\t// in\n    tag_545:\n        /* \"#utility.yul\":24727:24783   */\n    tag_544:\n        /* \"#utility.yul\":24801:24830   */\n      tag_546\n        /* \"#utility.yul\":24823:24829   */\n      dup3\n        /* \"#utility.yul\":24801:24830   */\n      tag_356\n      jump\t// in\n    tag_546:\n        /* \"#utility.yul\":24793:24830   */\n      swap1\n      pop\n        /* \"#utility.yul\":24885:24889   */\n      0x20\n        /* \"#utility.yul\":24879:24883   */\n      dup2\n        /* \"#utility.yul\":24875:24890   */\n      add\n        /* \"#utility.yul\":24867:24890   */\n      swap1\n      pop\n        /* \"#utility.yul\":24589:24897   */\n      swap2\n      swap1\n      pop\n      jump\t// out\n        /* \"#utility.yul\":24903:25049   */\n    tag_380:\n        /* \"#utility.yul\":25000:25006   */\n      dup3\n        /* \"#utility.yul\":24995:24998   */\n      dup2\n        /* \"#utility.yul\":24990:24993   */\n      dup4\n        /* \"#utility.yul\":24977:25007   */\n      calldatacopy\n        /* \"#utility.yul\":25041:25042   */\n      0x00\n        /* \"#utility.yul\":25032:25038   */\n      dup4\n        /* \"#utility.yul\":25027:25030   */\n      dup4\n        /* \"#utility.yul\":25023:25039   */\n      add\n        /* \"#utility.yul\":25016:25043   */\n      mstore\n        /* \"#utility.yul\":24903:25049   */\n      pop\n      pop\n      pop\n      jump\t// out\n        /* \"#utility.yul\":25055:25480   */\n    tag_381:\n        /* \"#utility.yul\":25133:25138   */\n      0x00\n        /* \"#utility.yul\":25158:25224   */\n      tag_549\n        /* \"#utility.yul\":25174:25223   */\n      tag_550\n        /* \"#utility.yul\":25216:25222   */\n      dup5\n        /* \"#utility.yul\":25174:25223   */\n      tag_379\n      jump\t// in\n    tag_550:\n        /* \"#utility.yul\":25158:25224   */\n      tag_378\n      jump\t// in\n    tag_549:\n        /* \"#utility.yul\":25149:25224   */\n      swap1\n      pop\n        /* \"#utility.yul\":25247:25253   */\n      dup3\n        /* \"#utility.yul\":25240:25245   */\n      dup2\n        /* \"#utility.yul\":25233:25254   */\n      mstore\n        /* \"#utility.yul\":25285:25289   */\n      0x20\n        /* \"#utility.yul\":25278:25283   */\n      dup2\n        /* \"#utility.yul\":25274:25290   */\n      add\n        /* \"#utility.yul\":25323:25326   */\n      dup5\n        /* \"#utility.yul\":25314:25320   */\n      dup5\n        /* \"#utility.yul\":25309:25312   */\n      dup5\n        /* \"#utility.yul\":25305:25321   */\n      add\n        /* \"#utility.yul\":25302:25327   */\n      gt\n        /* \"#utility.yul\":25299:25411   */\n      iszero\n      tag_551\n      jumpi\n        /* \"#utility.yul\":25330:25409   */\n      tag_552\n      tag_375\n      jump\t// in\n    tag_552:\n        /* \"#utility.yul\":25299:25411   */\n    tag_551:\n        /* \"#utility.yul\":25420:25474   */\n      tag_553\n        /* \"#utility.yul\":25467:25473   */\n      dup5\n        /* \"#utility.yul\":25462:25465   */\n      dup3\n        /* \"#utility.yul\":25457:25460   */\n      dup6\n        /* \"#utility.yul\":25420:25474   */\n      tag_380\n      jump\t// in\n    tag_553:\n        /* \"#utility.yul\":25139:25480   */\n      pop\n        /* \"#utility.yul\":25055:25480   */\n      swap4\n      swap3\n      pop\n      pop\n      pop\n      jump\t// out\n        /* \"#utility.yul\":25500:25840   */\n    tag_382:\n        /* \"#utility.yul\":25556:25561   */\n      0x00\n        /* \"#utility.yul\":25605:25608   */\n      dup3\n        /* \"#utility.yul\":25598:25602   */\n      0x1f\n        /* \"#utility.yul\":25590:25596   */\n      dup4\n        /* \"#utility.yul\":25586:25603   */\n      add\n        /* \"#utility.yul\":25582:25609   */\n      slt\n        /* \"#utility.yul\":25572:25694   */\n      tag_555\n      jumpi\n        /* \"#utility.yul\":25613:25692   */\n      tag_556\n      tag_374\n      jump\t// in\n    tag_556:\n        /* \"#utility.yul\":25572:25694   */\n    tag_555:\n        /* \"#utility.yul\":25730:25736   */\n      dup2\n        /* \"#utility.yul\":25717:25737   */\n      calldataload\n        /* \"#utility.yul\":25755:25834   */\n      tag_557\n        /* \"#utility.yul\":25830:25833   */\n      dup5\n        /* \"#utility.yul\":25822:25828   */\n      dup3\n        /* \"#utility.yul\":25815:25819   */\n      0x20\n        /* \"#utility.yul\":25807:25813   */\n      dup7\n        /* \"#utility.yul\":25803:25820   */\n      add\n        /* \"#utility.yul\":25755:25834   */\n      tag_381\n      jump\t// in\n    tag_557:\n        /* \"#utility.yul\":25746:25834   */\n      swap2\n      pop\n        /* \"#utility.yul\":25562:25840   */\n      pop\n        /* \"#utility.yul\":25500:25840   */\n      swap3\n      swap2\n      pop\n      pop\n      jump\t// out\n        /* \"#utility.yul\":25846:25964   */\n    tag_383:\n        /* \"#utility.yul\":25917:25939   */\n      tag_559\n        /* \"#utility.yul\":25933:25938   */\n      dup2\n        /* \"#utility.yul\":25917:25939   */\n      tag_358\n      jump\t// in\n    tag_559:\n        /* \"#utility.yul\":25910:25915   */\n      dup2\n        /* \"#utility.yul\":25907:25940   */\n      eq\n        /* \"#utility.yul\":25897:25958   */\n      tag_560\n      jumpi\n        /* \"#utility.yul\":25954:25955   */\n      0x00\n        /* \"#utility.yul\":25951:25952   */\n      dup1\n        /* \"#utility.yul\":25944:25956   */\n      revert\n        /* \"#utility.yul\":25897:25958   */\n    tag_560:\n        /* \"#utility.yul\":25846:25964   */\n      pop\n      jump\t// out\n        /* \"#utility.yul\":25970:26105   */\n    tag_384:\n        /* \"#utility.yul\":26014:26019   */\n      0x00\n        /* \"#utility.yul\":26052:26058   */\n      dup2\n        /* \"#utility.yul\":26039:26059   */\n      calldataload\n        /* \"#utility.yul\":26030:26059   */\n      swap1\n      pop\n        /* \"#utility.yul\":26068:26099   */\n      tag_562\n        /* \"#utility.yul\":26093:26098   */\n      dup2\n        /* \"#utility.yul\":26068:26099   */\n      tag_383\n      jump\t// in\n    tag_562:\n        /* \"#utility.yul\":25970:26105   */\n      swap3\n      swap2\n      pop\n      pop\n      jump\t// out\n        /* \"#utility.yul\":26111:28352   */\n    tag_25:\n        /* \"#utility.yul\":26279:26285   */\n      0x00\n        /* \"#utility.yul\":26287:26293   */\n      dup1\n        /* \"#utility.yul\":26295:26301   */\n      0x00\n        /* \"#utility.yul\":26303:26309   */\n      dup1\n        /* \"#utility.yul\":26311:26317   */\n      0x00\n        /* \"#utility.yul\":26319:26325   */\n      dup1\n        /* \"#utility.yul\":26327:26333   */\n      0x00\n        /* \"#utility.yul\":26335:26341   */\n      dup1\n        /* \"#utility.yul\":26384:26387   */\n      0x0100\n        /* \"#utility.yul\":26372:26381   */\n      dup10\n        /* \"#utility.yul\":26363:26370   */\n      dup12\n        /* \"#utility.yul\":26359:26382   */\n      sub\n        /* \"#utility.yul\":26355:26388   */\n      slt\n        /* \"#utility.yul\":26352:26472   */\n      iszero\n      tag_564\n      jumpi\n        /* \"#utility.yul\":26391:26470   */\n      tag_565\n      tag_342\n      jump\t// in\n    tag_565:\n        /* \"#utility.yul\":26352:26472   */\n    tag_564:\n        /* \"#utility.yul\":26539:26540   */\n      0x00\n        /* \"#utility.yul\":26528:26537   */\n      dup10\n        /* \"#utility.yul\":26524:26541   */\n      add\n        /* \"#utility.yul\":26511:26542   */\n      calldataload\n        /* \"#utility.yul\":26569:26587   */\n      0xffffffffffffffff\n        /* \"#utility.yul\":26561:26567   */\n      dup2\n        /* \"#utility.yul\":26558:26588   */\n      gt\n        /* \"#utility.yul\":26555:26672   */\n      iszero\n      tag_566\n      jumpi\n        /* \"#utility.yul\":26591:26670   */\n      tag_567\n      tag_343\n      jump\t// in\n    tag_567:\n        /* \"#utility.yul\":26555:26672   */\n    tag_566:\n        /* \"#utility.yul\":26696:26759   */\n      tag_568\n        /* \"#utility.yul\":26751:26758   */\n      dup12\n        /* \"#utility.yul\":26742:26748   */\n      dup3\n        /* \"#utility.yul\":26731:26740   */\n      dup13\n        /* \"#utility.yul\":26727:26749   */\n      add\n        /* \"#utility.yul\":26696:26759   */\n      tag_382\n      jump\t// in\n    tag_568:\n        /* \"#utility.yul\":26686:26759   */\n      swap9\n      pop\n        /* \"#utility.yul\":26482:26769   */\n      pop\n        /* \"#utility.yul\":26808:26810   */\n      0x20\n        /* \"#utility.yul\":26834:26885   */\n      tag_569\n        /* \"#utility.yul\":26877:26884   */\n      dup12\n        /* \"#utility.yul\":26868:26874   */\n      dup3\n        /* \"#utility.yul\":26857:26866   */\n      dup13\n        /* \"#utility.yul\":26853:26875   */\n      add\n        /* \"#utility.yul\":26834:26885   */\n      tag_384\n      jump\t// in\n    tag_569:\n        /* \"#utility.yul\":26824:26885   */\n      swap8\n      pop\n        /* \"#utility.yul\":26779:26895   */\n      pop\n        /* \"#utility.yul\":26962:26964   */\n      0x40\n        /* \"#utility.yul\":26951:26960   */\n      dup10\n        /* \"#utility.yul\":26947:26965   */\n      add\n        /* \"#utility.yul\":26934:26966   */\n      calldataload\n        /* \"#utility.yul\":26993:27011   */\n      0xffffffffffffffff\n        /* \"#utility.yul\":26985:26991   */\n      dup2\n        /* \"#utility.yul\":26982:27012   */\n      gt\n        /* \"#utility.yul\":26979:27096   */\n      iszero\n      tag_570\n      jumpi\n        /* \"#utility.yul\":27015:27094   */\n      tag_571\n      tag_343\n      jump\t// in\n    tag_571:\n        /* \"#utility.yul\":26979:27096   */\n    tag_570:\n        /* \"#utility.yul\":27120:27183   */\n      tag_572\n        /* \"#utility.yul\":27175:27182   */\n      dup12\n        /* \"#utility.yul\":27166:27172   */\n      dup3\n        /* \"#utility.yul\":27155:27164   */\n      dup13\n        /* \"#utility.yul\":27151:27173   */\n      add\n        /* \"#utility.yul\":27120:27183   */\n      tag_382\n      jump\t// in\n    tag_572:\n        /* \"#utility.yul\":27110:27183   */\n      swap7\n      pop\n        /* \"#utility.yul\":26905:27193   */\n      pop\n        /* \"#utility.yul\":27260:27262   */\n      0x60\n        /* \"#utility.yul\":27249:27258   */\n      dup10\n        /* \"#utility.yul\":27245:27263   */\n      add\n        /* \"#utility.yul\":27232:27264   */\n      calldataload\n        /* \"#utility.yul\":27291:27309   */\n      0xffffffffffffffff\n        /* \"#utility.yul\":27283:27289   */\n      dup2\n        /* \"#utility.yul\":27280:27310   */\n      gt\n        /* \"#utility.yul\":27277:27394   */\n      iszero\n      tag_573\n      jumpi\n        /* \"#utility.yul\":27313:27392   */\n      tag_574\n      tag_343\n      jump\t// in\n    tag_574:\n        /* \"#utility.yul\":27277:27394   */\n    tag_573:\n        /* \"#utility.yul\":27418:27481   */\n      tag_575\n        /* \"#utility.yul\":27473:27480   */\n      dup12\n        /* \"#utility.yul\":27464:27470   */\n      dup3\n        /* \"#utility.yul\":27453:27462   */\n      dup13\n        /* \"#utility.yul\":27449:27471   */\n      add\n        /* \"#utility.yul\":27418:27481   */\n      tag_382\n      jump\t// in\n    tag_575:\n        /* \"#utility.yul\":27408:27481   */\n      swap6\n      pop\n        /* \"#utility.yul\":27203:27491   */\n      pop\n        /* \"#utility.yul\":27558:27561   */\n      0x80\n        /* \"#utility.yul\":27547:27556   */\n      dup10\n        /* \"#utility.yul\":27543:27562   */\n      add\n        /* \"#utility.yul\":27530:27563   */\n      calldataload\n        /* \"#utility.yul\":27590:27608   */\n      0xffffffffffffffff\n        /* \"#utility.yul\":27582:27588   */\n      dup2\n        /* \"#utility.yul\":27579:27609   */\n      gt\n        /* \"#utility.yul\":27576:27693   */\n      iszero\n      tag_576\n      jumpi\n        /* \"#utility.yul\":27612:27691   */\n      tag_577\n      tag_343\n      jump\t// in\n    tag_577:\n        /* \"#utility.yul\":27576:27693   */\n    tag_576:\n        /* \"#utility.yul\":27717:27780   */\n      tag_578\n        /* \"#utility.yul\":27772:27779   */\n      dup12\n        /* \"#utility.yul\":27763:27769   */\n      dup3\n        /* \"#utility.yul\":27752:27761   */\n      dup13\n        /* \"#utility.yul\":27748:27770   */\n      add\n        /* \"#utility.yul\":27717:27780   */\n      tag_382\n      jump\t// in\n    tag_578:\n        /* \"#utility.yul\":27707:27780   */\n      swap5\n      pop\n        /* \"#utility.yul\":27501:27790   */\n      pop\n        /* \"#utility.yul\":27857:27860   */\n      0xa0\n        /* \"#utility.yul\":27846:27855   */\n      dup10\n        /* \"#utility.yul\":27842:27861   */\n      add\n        /* \"#utility.yul\":27829:27862   */\n      calldataload\n        /* \"#utility.yul\":27889:27907   */\n      0xffffffffffffffff\n        /* \"#utility.yul\":27881:27887   */\n      dup2\n        /* \"#utility.yul\":27878:27908   */\n      gt\n        /* \"#utility.yul\":27875:27992   */\n      iszero\n      tag_579\n      jumpi\n        /* \"#utility.yul\":27911:27990   */\n      tag_580\n      tag_343\n      jump\t// in\n    tag_580:\n        /* \"#utility.yul\":27875:27992   */\n    tag_579:\n        /* \"#utility.yul\":28016:28079   */\n      tag_581\n        /* \"#utility.yul\":28071:28078   */\n      dup12\n        /* \"#utility.yul\":28062:28068   */\n      dup3\n        /* \"#utility.yul\":28051:28060   */\n      dup13\n        /* \"#utility.yul\":28047:28069   */\n      add\n        /* \"#utility.yul\":28016:28079   */\n      tag_382\n      jump\t// in\n    tag_581:\n        /* \"#utility.yul\":28006:28079   */\n      swap4\n      pop\n        /* \"#utility.yul\":27800:28089   */\n      pop\n        /* \"#utility.yul\":28128:28131   */\n      0xc0\n        /* \"#utility.yul\":28155:28208   */\n      tag_582\n        /* \"#utility.yul\":28200:28207   */\n      dup12\n        /* \"#utility.yul\":28191:28197   */\n      dup3\n        /* \"#utility.yul\":28180:28189   */\n      dup13\n        /* \"#utility.yul\":28176:28198   */\n      add\n        /* \"#utility.yul\":28155:28208   */\n      tag_346\n      jump\t// in\n    tag_582:\n        /* \"#utility.yul\":28145:28208   */\n      swap3\n      pop\n        /* \"#utility.yul\":28099:28218   */\n      pop\n        /* \"#utility.yul\":28257:28260   */\n      0xe0\n        /* \"#utility.yul\":28284:28335   */\n      tag_583\n        /* \"#utility.yul\":28327:28334   */\n      dup12\n        /* \"#utility.yul\":28318:28324   */\n      dup3\n        /* \"#utility.yul\":28307:28316   */\n      dup13\n        /* \"#utility.yul\":28303:28325   */\n      add\n        /* \"#utility.yul\":28284:28335   */\n      tag_384\n      jump\t// in\n    tag_583:\n        /* \"#utility.yul\":28274:28335   */\n      swap2\n      pop\n        /* \"#utility.yul\":28228:28345   */\n      pop\n        /* \"#utility.yul\":26111:28352   */\n      swap3\n      swap6\n      swap9\n      pop\n      swap3\n      swap6\n      swap9\n      swap1\n      swap4\n      swap7\n      pop\n      jump\t// out\n        /* \"#utility.yul\":28358:28580   */\n    tag_30:\n        /* \"#utility.yul\":28451:28455   */\n      0x00\n        /* \"#utility.yul\":28489:28491   */\n      0x20\n        /* \"#utility.yul\":28478:28487   */\n      dup3\n        /* \"#utility.yul\":28474:28492   */\n      add\n        /* \"#utility.yul\":28466:28492   */\n      swap1\n      pop\n        /* \"#utility.yul\":28502:28573   */\n      tag_585\n        /* \"#utility.yul\":28570:28571   */\n      0x00\n        /* \"#utility.yul\":28559:28568   */\n      dup4\n        /* \"#utility.yul\":28555:28572   */\n      add\n        /* \"#utility.yul\":28546:28552   */\n      dup5\n        /* \"#utility.yul\":28502:28573   */\n      tag_347\n      jump\t// in\n    tag_585:\n        /* \"#utility.yul\":28358:28580   */\n      swap3\n      swap2\n      pop\n      pop\n      jump\t// out\n        /* \"#utility.yul\":28586:30501   */\n    tag_33:\n        /* \"#utility.yul\":28735:28741   */\n      0x00\n        /* \"#utility.yul\":28743:28749   */\n      dup1\n        /* \"#utility.yul\":28751:28757   */\n      0x00\n        /* \"#utility.yul\":28759:28765   */\n      dup1\n        /* \"#utility.yul\":28767:28773   */\n      0x00\n        /* \"#utility.yul\":28775:28781   */\n      dup1\n        /* \"#utility.yul\":28783:28789   */\n      0x00\n        /* \"#utility.yul\":28832:28835   */\n      0xe0\n        /* \"#utility.yul\":28820:28829   */\n      dup9\n        /* \"#utility.yul\":28811:28818   */\n      dup11\n        /* \"#utility.yul\":28807:28830   */\n      sub\n        /* \"#utility.yul\":28803:28836   */\n      slt\n        /* \"#utility.yul\":28800:28920   */\n      iszero\n      tag_587\n      jumpi\n        /* \"#utility.yul\":28839:28918   */\n      tag_588\n      tag_342\n      jump\t// in\n    tag_588:\n        /* \"#utility.yul\":28800:28920   */\n    tag_587:\n        /* \"#utility.yul\":28987:28988   */\n      0x00\n        /* \"#utility.yul\":28976:28985   */\n      dup9\n        /* \"#utility.yul\":28972:28989   */\n      add\n        /* \"#utility.yul\":28959:28990   */\n      calldataload\n        /* \"#utility.yul\":29017:29035   */\n      0xffffffffffffffff\n        /* \"#utility.yul\":29009:29015   */\n      dup2\n        /* \"#utility.yul\":29006:29036   */\n      gt\n        /* \"#utility.yul\":29003:29120   */\n      iszero\n      tag_589\n      jumpi\n        /* \"#utility.yul\":29039:29118   */\n      tag_590\n      tag_343\n      jump\t// in\n    tag_590:\n        /* \"#utility.yul\":29003:29120   */\n    tag_589:\n        /* \"#utility.yul\":29144:29207   */\n      tag_591\n        /* \"#utility.yul\":29199:29206   */\n      dup11\n        /* \"#utility.yul\":29190:29196   */\n      dup3\n        /* \"#utility.yul\":29179:29188   */\n      dup12\n        /* \"#utility.yul\":29175:29197   */\n      add\n        /* \"#utility.yul\":29144:29207   */\n      tag_382\n      jump\t// in\n    tag_591:\n        /* \"#utility.yul\":29134:29207   */\n      swap8\n      pop\n        /* \"#utility.yul\":28930:29217   */\n      pop\n        /* \"#utility.yul\":29256:29258   */\n      0x20\n        /* \"#utility.yul\":29282:29333   */\n      tag_592\n        /* \"#utility.yul\":29325:29332   */\n      dup11\n        /* \"#utility.yul\":29316:29322   */\n      dup3\n        /* \"#utility.yul\":29305:29314   */\n      dup12\n        /* \"#utility.yul\":29301:29323   */\n      add\n        /* \"#utility.yul\":29282:29333   */\n      tag_384\n      jump\t// in\n    tag_592:\n        /* \"#utility.yul\":29272:29333   */\n      swap7\n      pop\n        /* \"#utility.yul\":29227:29343   */\n      pop\n        /* \"#utility.yul\":29410:29412   */\n      0x40\n        /* \"#utility.yul\":29399:29408   */\n      dup9\n        /* \"#utility.yul\":29395:29413   */\n      add\n        /* \"#utility.yul\":29382:29414   */\n      calldataload\n        /* \"#utility.yul\":29441:29459   */\n      0xffffffffffffffff\n        /* \"#utility.yul\":29433:29439   */\n      dup2\n        /* \"#utility.yul\":29430:29460   */\n      gt\n        /* \"#utility.yul\":29427:29544   */\n      iszero\n      tag_593\n      jumpi\n        /* \"#utility.yul\":29463:29542   */\n      tag_594\n      tag_343\n      jump\t// in\n    tag_594:\n        /* \"#utility.yul\":29427:29544   */\n    tag_593:\n        /* \"#utility.yul\":29568:29631   */\n      tag_595\n        /* \"#utility.yul\":29623:29630   */\n      dup11\n        /* \"#utility.yul\":29614:29620   */\n      dup3\n        /* \"#utility.yul\":29603:29612   */\n      dup12\n        /* \"#utility.yul\":29599:29621   */\n      add\n        /* \"#utility.yul\":29568:29631   */\n      tag_382\n      jump\t// in\n    tag_595:\n        /* \"#utility.yul\":29558:29631   */\n      swap6\n      pop\n        /* \"#utility.yul\":29353:29641   */\n      pop\n        /* \"#utility.yul\":29708:29710   */\n      0x60\n        /* \"#utility.yul\":29697:29706   */\n      dup9\n        /* \"#utility.yul\":29693:29711   */\n      add\n        /* \"#utility.yul\":29680:29712   */\n      calldataload\n        /* \"#utility.yul\":29739:29757   */\n      0xffffffffffffffff\n        /* \"#utility.yul\":29731:29737   */\n      dup2\n        /* \"#utility.yul\":29728:29758   */\n      gt\n        /* \"#utility.yul\":29725:29842   */\n      iszero\n      tag_596\n      jumpi\n        /* \"#utility.yul\":29761:29840   */\n      tag_597\n      tag_343\n      jump\t// in\n    tag_597:\n        /* \"#utility.yul\":29725:29842   */\n    tag_596:\n        /* \"#utility.yul\":29866:29929   */\n      tag_598\n        /* \"#utility.yul\":29921:29928   */\n      dup11\n        /* \"#utility.yul\":29912:29918   */\n      dup3\n        /* \"#utility.yul\":29901:29910   */\n      dup12\n        /* \"#utility.yul\":29897:29919   */\n      add\n        /* \"#utility.yul\":29866:29929   */\n      tag_382\n      jump\t// in\n    tag_598:\n        /* \"#utility.yul\":29856:29929   */\n      swap5\n      pop\n        /* \"#utility.yul\":29651:29939   */\n      pop\n        /* \"#utility.yul\":30006:30009   */\n      0x80\n        /* \"#utility.yul\":29995:30004   */\n      dup9\n        /* \"#utility.yul\":29991:30010   */\n      add\n        /* \"#utility.yul\":29978:30011   */\n      calldataload\n        /* \"#utility.yul\":30038:30056   */\n      0xffffffffffffffff\n        /* \"#utility.yul\":30030:30036   */\n      dup2\n        /* \"#utility.yul\":30027:30057   */\n      gt\n        /* \"#utility.yul\":30024:30141   */\n      iszero\n      tag_599\n      jumpi\n        /* \"#utility.yul\":30060:30139   */\n      tag_600\n      tag_343\n      jump\t// in\n    tag_600:\n        /* \"#utility.yul\":30024:30141   */\n    tag_599:\n        /* \"#utility.yul\":30165:30228   */\n      tag_601\n        /* \"#utility.yul\":30220:30227   */\n      dup11\n        /* \"#utility.yul\":30211:30217   */\n      dup3\n        /* \"#utility.yul\":30200:30209   */\n      dup12\n        /* \"#utility.yul\":30196:30218   */\n      add\n        /* \"#utility.yul\":30165:30228   */\n      tag_382\n      jump\t// in\n    tag_601:\n        /* \"#utility.yul\":30155:30228   */\n      swap4\n      pop\n        /* \"#utility.yul\":29949:30238   */\n      pop\n        /* \"#utility.yul\":30277:30280   */\n      0xa0\n        /* \"#utility.yul\":30304:30357   */\n      tag_602\n        /* \"#utility.yul\":30349:30356   */\n      dup11\n        /* \"#utility.yul\":30340:30346   */\n      dup3\n        /* \"#utility.yul\":30329:30338   */\n      dup12\n        /* \"#utility.yul\":30325:30347   */\n      add\n        /* \"#utility.yul\":30304:30357   */\n      tag_346\n      jump\t// in\n    tag_602:\n        /* \"#utility.yul\":30294:30357   */\n      swap3\n      pop\n        /* \"#utility.yul\":30248:30367   */\n      pop\n        /* \"#utility.yul\":30406:30409   */\n      0xc0\n        /* \"#utility.yul\":30433:30484   */\n      tag_603\n        /* \"#utility.yul\":30476:30483   */\n      dup11\n        /* \"#utility.yul\":30467:30473   */\n      dup3\n        /* \"#utility.yul\":30456:30465   */\n      dup12\n        /* \"#utility.yul\":30452:30474   */\n      add\n        /* \"#utility.yul\":30433:30484   */\n      tag_384\n      jump\t// in\n    tag_603:\n        /* \"#utility.yul\":30423:30484   */\n      swap2\n      pop\n        /* \"#utility.yul\":30377:30494   */\n      pop\n        /* \"#utility.yul\":28586:30501   */\n      swap3\n      swap6\n      swap9\n      swap2\n      swap5\n      swap8\n      pop\n      swap3\n      swap6\n      pop\n      jump\t// out\n        /* \"#utility.yul\":30507:32932   */\n    tag_40:\n        /* \"#utility.yul\":30687:30693   */\n      0x00\n        /* \"#utility.yul\":30695:30701   */\n      dup1\n        /* \"#utility.yul\":30703:30709   */\n      0x00\n        /* \"#utility.yul\":30711:30717   */\n      dup1\n        /* \"#utility.yul\":30719:30725   */\n      0x00\n        /* \"#utility.yul\":30727:30733   */\n      dup1\n        /* \"#utility.yul\":30735:30741   */\n      0x00\n        /* \"#utility.yul\":30743:30749   */\n      dup1\n        /* \"#utility.yul\":30792:30795   */\n      0x0100\n        /* \"#utility.yul\":30780:30789   */\n      dup10\n        /* \"#utility.yul\":30771:30778   */\n      dup12\n        /* \"#utility.yul\":30767:30790   */\n      sub\n        /* \"#utility.yul\":30763:30796   */\n      slt\n        /* \"#utility.yul\":30760:30880   */\n      iszero\n      tag_605\n      jumpi\n        /* \"#utility.yul\":30799:30878   */\n      tag_606\n      tag_342\n      jump\t// in\n    tag_606:\n        /* \"#utility.yul\":30760:30880   */\n    tag_605:\n        /* \"#utility.yul\":30947:30948   */\n      0x00\n        /* \"#utility.yul\":30936:30945   */\n      dup10\n        /* \"#utility.yul\":30932:30949   */\n      add\n        /* \"#utility.yul\":30919:30950   */\n      calldataload\n        /* \"#utility.yul\":30977:30995   */\n      0xffffffffffffffff\n        /* \"#utility.yul\":30969:30975   */\n      dup2\n        /* \"#utility.yul\":30966:30996   */\n      gt\n        /* \"#utility.yul\":30963:31080   */\n      iszero\n      tag_607\n      jumpi\n        /* \"#utility.yul\":30999:31078   */\n      tag_608\n      tag_343\n      jump\t// in\n    tag_608:\n        /* \"#utility.yul\":30963:31080   */\n    tag_607:\n        /* \"#utility.yul\":31104:31167   */\n      tag_609\n        /* \"#utility.yul\":31159:31166   */\n      dup12\n        /* \"#utility.yul\":31150:31156   */\n      dup3\n        /* \"#utility.yul\":31139:31148   */\n      dup13\n        /* \"#utility.yul\":31135:31157   */\n      add\n        /* \"#utility.yul\":31104:31167   */\n      tag_382\n      jump\t// in\n    tag_609:\n        /* \"#utility.yul\":31094:31167   */\n      swap9\n      pop\n        /* \"#utility.yul\":30890:31177   */\n      pop\n        /* \"#utility.yul\":31216:31218   */\n      0x20\n        /* \"#utility.yul\":31242:31293   */\n      tag_610\n        /* \"#utility.yul\":31285:31292   */\n      dup12\n        /* \"#utility.yul\":31276:31282   */\n      dup3\n        /* \"#utility.yul\":31265:31274   */\n      dup13\n        /* \"#utility.yul\":31261:31283   */\n      add\n        /* \"#utility.yul\":31242:31293   */\n      tag_384\n      jump\t// in\n    tag_610:\n        /* \"#utility.yul\":31232:31293   */\n      swap8\n      pop\n        /* \"#utility.yul\":31187:31303   */\n      pop\n        /* \"#utility.yul\":31370:31372   */\n      0x40\n        /* \"#utility.yul\":31359:31368   */\n      dup10\n        /* \"#utility.yul\":31355:31373   */\n      add\n        /* \"#utility.yul\":31342:31374   */\n      calldataload\n        /* \"#utility.yul\":31401:31419   */\n      0xffffffffffffffff\n        /* \"#utility.yul\":31393:31399   */\n      dup2\n        /* \"#utility.yul\":31390:31420   */\n      gt\n        /* \"#utility.yul\":31387:31504   */\n      iszero\n      tag_611\n      jumpi\n        /* \"#utility.yul\":31423:31502   */\n      tag_612\n      tag_343\n      jump\t// in\n    tag_612:\n        /* \"#utility.yul\":31387:31504   */\n    tag_611:\n        /* \"#utility.yul\":31528:31591   */\n      tag_613\n        /* \"#utility.yul\":31583:31590   */\n      dup12\n        /* \"#utility.yul\":31574:31580   */\n      dup3\n        /* \"#utility.yul\":31563:31572   */\n      dup13\n        /* \"#utility.yul\":31559:31581   */\n      add\n        /* \"#utility.yul\":31528:31591   */\n      tag_382\n      jump\t// in\n    tag_613:\n        /* \"#utility.yul\":31518:31591   */\n      swap7\n      pop\n        /* \"#utility.yul\":31313:31601   */\n      pop\n        /* \"#utility.yul\":31668:31670   */\n      0x60\n        /* \"#utility.yul\":31657:31666   */\n      dup10\n        /* \"#utility.yul\":31653:31671   */\n      add\n        /* \"#utility.yul\":31640:31672   */\n      calldataload\n        /* \"#utility.yul\":31699:31717   */\n      0xffffffffffffffff\n        /* \"#utility.yul\":31691:31697   */\n      dup2\n        /* \"#utility.yul\":31688:31718   */\n      gt\n        /* \"#utility.yul\":31685:31802   */\n      iszero\n      tag_614\n      jumpi\n        /* \"#utility.yul\":31721:31800   */\n      tag_615\n      tag_343\n      jump\t// in\n    tag_615:\n        /* \"#utility.yul\":31685:31802   */\n    tag_614:\n        /* \"#utility.yul\":31826:31889   */\n      tag_616\n        /* \"#utility.yul\":31881:31888   */\n      dup12\n        /* \"#utility.yul\":31872:31878   */\n      dup3\n        /* \"#utility.yul\":31861:31870   */\n      dup13\n        /* \"#utility.yul\":31857:31879   */\n      add\n        /* \"#utility.yul\":31826:31889   */\n      tag_382\n      jump\t// in\n    tag_616:\n        /* \"#utility.yul\":31816:31889   */\n      swap6\n      pop\n        /* \"#utility.yul\":31611:31899   */\n      pop\n        /* \"#utility.yul\":31966:31969   */\n      0x80\n        /* \"#utility.yul\":31955:31964   */\n      dup10\n        /* \"#utility.yul\":31951:31970   */\n      add\n        /* \"#utility.yul\":31938:31971   */\n      calldataload\n        /* \"#utility.yul\":31998:32016   */\n      0xffffffffffffffff\n        /* \"#utility.yul\":31990:31996   */\n      dup2\n        /* \"#utility.yul\":31987:32017   */\n      gt\n        /* \"#utility.yul\":31984:32101   */\n      iszero\n      tag_617\n      jumpi\n        /* \"#utility.yul\":32020:32099   */\n      tag_618\n      tag_343\n      jump\t// in\n    tag_618:\n        /* \"#utility.yul\":31984:32101   */\n    tag_617:\n        /* \"#utility.yul\":32125:32188   */\n      tag_619\n        /* \"#utility.yul\":32180:32187   */\n      dup12\n        /* \"#utility.yul\":32171:32177   */\n      dup3\n        /* \"#utility.yul\":32160:32169   */\n      dup13\n        /* \"#utility.yul\":32156:32178   */\n      add\n        /* \"#utility.yul\":32125:32188   */\n      tag_382\n      jump\t// in\n    tag_619:\n        /* \"#utility.yul\":32115:32188   */\n      swap5\n      pop\n        /* \"#utility.yul\":31909:32198   */\n      pop\n        /* \"#utility.yul\":32265:32268   */\n      0xa0\n        /* \"#utility.yul\":32254:32263   */\n      dup10\n        /* \"#utility.yul\":32250:32269   */\n      add\n        /* \"#utility.yul\":32237:32270   */\n      calldataload\n        /* \"#utility.yul\":32297:32315   */\n      0xffffffffffffffff\n        /* \"#utility.yul\":32289:32295   */\n      dup2\n        /* \"#utility.yul\":32286:32316   */\n      gt\n        /* \"#utility.yul\":32283:32400   */\n      iszero\n      tag_620\n      jumpi\n        /* \"#utility.yul\":32319:32398   */\n      tag_621\n      tag_343\n      jump\t// in\n    tag_621:\n        /* \"#utility.yul\":32283:32400   */\n    tag_620:\n        /* \"#utility.yul\":32424:32487   */\n      tag_622\n        /* \"#utility.yul\":32479:32486   */\n      dup12\n        /* \"#utility.yul\":32470:32476   */\n      dup3\n        /* \"#utility.yul\":32459:32468   */\n      dup13\n        /* \"#utility.yul\":32455:32477   */\n      add\n        /* \"#utility.yul\":32424:32487   */\n      tag_382\n      jump\t// in\n    tag_622:\n        /* \"#utility.yul\":32414:32487   */\n      swap4\n      pop\n        /* \"#utility.yul\":32208:32497   */\n      pop\n        /* \"#utility.yul\":32536:32539   */\n      0xc0\n        /* \"#utility.yul\":32563:32616   */\n      tag_623\n        /* \"#utility.yul\":32608:32615   */\n      dup12\n        /* \"#utility.yul\":32599:32605   */\n      dup3\n        /* \"#utility.yul\":32588:32597   */\n      dup13\n        /* \"#utility.yul\":32584:32606   */\n      add\n        /* \"#utility.yul\":32563:32616   */\n      tag_346\n      jump\t// in\n    tag_623:\n        /* \"#utility.yul\":32553:32616   */\n      swap3\n      pop\n        /* \"#utility.yul\":32507:32626   */\n      pop\n        /* \"#utility.yul\":32693:32696   */\n      0xe0\n        /* \"#utility.yul\":32682:32691   */\n      dup10\n        /* \"#utility.yul\":32678:32697   */\n      add\n        /* \"#utility.yul\":32665:32698   */\n      calldataload\n        /* \"#utility.yul\":32725:32743   */\n      0xffffffffffffffff\n        /* \"#utility.yul\":32717:32723   */\n      dup2\n        /* \"#utility.yul\":32714:32744   */\n      gt\n        /* \"#utility.yul\":32711:32828   */\n      iszero\n      tag_624\n      jumpi\n        /* \"#utility.yul\":32747:32826   */\n      tag_625\n      tag_343\n      jump\t// in\n    tag_625:\n        /* \"#utility.yul\":32711:32828   */\n    tag_624:\n        /* \"#utility.yul\":32852:32915   */\n      tag_626\n        /* \"#utility.yul\":32907:32914   */\n      dup12\n        /* \"#utility.yul\":32898:32904   */\n      dup3\n        /* \"#utility.yul\":32887:32896   */\n      dup13\n        /* \"#utility.yul\":32883:32905   */\n      add\n        /* \"#utility.yul\":32852:32915   */\n      tag_382\n      jump\t// in\n    tag_626:\n        /* \"#utility.yul\":32842:32915   */\n      swap2\n      pop\n        /* \"#utility.yul\":32636:32925   */\n      pop\n        /* \"#utility.yul\":30507:32932   */\n      swap3\n      swap6\n      swap9\n      pop\n      swap3\n      swap6\n      swap9\n      swap1\n      swap4\n      swap7\n      pop\n      jump\t// out\n        /* \"#utility.yul\":32938:33118   */\n    tag_385:\n        /* \"#utility.yul\":32986:33063   */\n      0x4e487b7100000000000000000000000000000000000000000000000000000000\n        /* \"#utility.yul\":32983:32984   */\n      0x00\n        /* \"#utility.yul\":32976:33064   */\n      mstore\n        /* \"#utility.yul\":33083:33087   */\n      0x22\n        /* \"#utility.yul\":33080:33081   */\n      0x04\n        /* \"#utility.yul\":33073:33088   */\n      mstore\n        /* \"#utility.yul\":33107:33111   */\n      0x24\n        /* \"#utility.yul\":33104:33105   */\n      0x00\n        /* \"#utility.yul\":33097:33112   */\n      revert\n        /* \"#utility.yul\":33124:33444   */\n    tag_46:\n        /* \"#utility.yul\":33168:33174   */\n      0x00\n        /* \"#utility.yul\":33205:33206   */\n      0x02\n        /* \"#utility.yul\":33199:33203   */\n      dup3\n        /* \"#utility.yul\":33195:33207   */\n      div\n        /* \"#utility.yul\":33185:33207   */\n      swap1\n      pop\n        /* \"#utility.yul\":33252:33253   */\n      0x01\n        /* \"#utility.yul\":33246:33250   */\n      dup3\n        /* \"#utility.yul\":33242:33254   */\n      and\n        /* \"#utility.yul\":33273:33291   */\n      dup1\n        /* \"#utility.yul\":33263:33344   */\n      tag_629\n      jumpi\n        /* \"#utility.yul\":33329:33333   */\n      0x7f\n        /* \"#utility.yul\":33321:33327   */\n      dup3\n        /* \"#utility.yul\":33317:33334   */\n      and\n        /* \"#utility.yul\":33307:33334   */\n      swap2\n      pop\n        /* \"#utility.yul\":33263:33344   */\n    tag_629:\n        /* \"#utility.yul\":33391:33393   */\n      0x20\n        /* \"#utility.yul\":33383:33389   */\n      dup3\n        /* \"#utility.yul\":33380:33394   */\n      lt\n        /* \"#utility.yul\":33360:33378   */\n      dup2\n        /* \"#utility.yul\":33357:33395   */\n      sub\n        /* \"#utility.yul\":33354:33438   */\n      tag_630\n      jumpi\n        /* \"#utility.yul\":33410:33428   */\n      tag_631\n      tag_385\n      jump\t// in\n    tag_631:\n        /* \"#utility.yul\":33354:33438   */\n    tag_630:\n        /* \"#utility.yul\":33175:33444   */\n      pop\n        /* \"#utility.yul\":33124:33444   */\n      swap2\n      swap1\n      pop\n      jump\t// out\n        /* \"#utility.yul\":33450:33630   */\n    tag_386:\n        /* \"#utility.yul\":33498:33575   */\n      0x4e487b7100000000000000000000000000000000000000000000000000000000\n        /* \"#utility.yul\":33495:33496   */\n      0x00\n        /* \"#utility.yul\":33488:33576   */\n      mstore\n        /* \"#utility.yul\":33595:33599   */\n      0x11\n        /* \"#utility.yul\":33592:33593   */\n      0x04\n        /* \"#utility.yul\":33585:33600   */\n      mstore\n        /* \"#utility.yul\":33619:33623   */\n      0x24\n        /* \"#utility.yul\":33616:33617   */\n      0x00\n        /* \"#utility.yul\":33609:33624   */\n      revert\n        /* \"#utility.yul\":33636:33869   */\n    tag_216:\n        /* \"#utility.yul\":33675:33678   */\n      0x00\n        /* \"#utility.yul\":33698:33722   */\n      tag_634\n        /* \"#utility.yul\":33716:33721   */\n      dup3\n        /* \"#utility.yul\":33698:33722   */\n      tag_344\n      jump\t// in\n    tag_634:\n        /* \"#utility.yul\":33689:33722   */\n      swap2\n      pop\n        /* \"#utility.yul\":33744:33810   */\n      0xffffffffffffffffffffffffffffffffffffffffffffffffffffffffffffffff\n        /* \"#utility.yul\":33737:33742   */\n      dup3\n        /* \"#utility.yul\":33734:33811   */\n      sub\n        /* \"#utility.yul\":33731:33834   */\n      tag_635\n      jumpi\n        /* \"#utility.yul\":33814:33832   */\n      tag_636\n      tag_386\n      jump\t// in\n    tag_636:\n        /* \"#utility.yul\":33731:33834   */\n    tag_635:\n        /* \"#utility.yul\":33861:33862   */\n      0x01\n        /* \"#utility.yul\":33854:33859   */\n      dup3\n        /* \"#utility.yul\":33850:33863   */\n      add\n        /* \"#utility.yul\":33843:33863   */\n      swap1\n      pop\n        /* \"#utility.yul\":33636:33869   */\n      swap2\n      swap1\n      pop\n      jump\t// out\n        /* \"#utility.yul\":33875:34016   */\n    tag_387:\n        /* \"#utility.yul\":33924:33928   */\n      0x00\n        /* \"#utility.yul\":33947:33950   */\n      dup2\n        /* \"#utility.yul\":33939:33950   */\n      swap1\n      pop\n        /* \"#utility.yul\":33970:33973   */\n      dup2\n        /* \"#utility.yul\":33967:33968   */\n      0x00\n        /* \"#utility.yul\":33960:33974   */\n      mstore\n        /* \"#utility.yul\":34004:34008   */\n      0x20\n        /* \"#utility.yul\":34001:34002   */\n      0x00\n        /* \"#utility.yul\":33991:34009   */\n      keccak256\n        /* \"#utility.yul\":33983:34009   */\n      swap1\n      pop\n        /* \"#utility.yul\":33875:34016   */\n      swap2\n      swap1\n      pop\n      jump\t// out\n        /* \"#utility.yul\":34022:34115   */\n    tag_388:\n        /* \"#utility.yul\":34059:34065   */\n      0x00\n        /* \"#utility.yul\":34106:34108   */\n      0x20\n        /* \"#utility.yul\":34101:34103   */\n      0x1f\n        /* \"#utility.yul\":34094:34099   */\n      dup4\n        /* \"#utility.yul\":34090:34104   */\n      add\n        /* \"#utility.yul\":34086:34109   */\n      div\n        /* \"#utility.yul\":34076:34109   */\n      swap1\n      pop\n        /* \"#utility.yul\":34022:34115   */\n      swap2\n      swap1\n      pop\n      jump\t// out\n        /* \"#utility.yul\":34121:34228   */\n    tag_389:\n        /* \"#utility.yul\":34165:34173   */\n      0x00\n        /* \"#utility.yul\":34215:34220   */\n      dup3\n        /* \"#utility.yul\":34209:34213   */\n      dup3\n        /* \"#utility.yul\":34205:34221   */\n      shl\n        /* \"#utility.yul\":34184:34221   */\n      swap1\n      pop\n        /* \"#utility.yul\":34121:34228   */\n      swap3\n      swap2\n      pop\n      pop\n      jump\t// out\n        /* \"#utility.yul\":34234:34627   */\n    tag_390:\n        /* \"#utility.yul\":34303:34309   */\n      0x00\n        /* \"#utility.yul\":34353:34354   */\n      0x08\n        /* \"#utility.yul\":34341:34351   */\n      dup4\n        /* \"#utility.yul\":34337:34355   */\n      mul\n        /* \"#utility.yul\":34376:34473   */\n      tag_641\n        /* \"#utility.yul\":34406:34472   */\n      0xffffffffffffffffffffffffffffffffffffffffffffffffffffffffffffffff\n        /* \"#utility.yul\":34395:34404   */\n      dup3\n        /* \"#utility.yul\":34376:34473   */\n      tag_389\n      jump\t// in\n    tag_641:\n        /* \"#utility.yul\":34494:34533   */\n      tag_642\n        /* \"#utility.yul\":34524:34532   */\n      dup7\n        /* \"#utility.yul\":34513:34522   */\n      dup4\n        /* \"#utility.yul\":34494:34533   */\n      tag_389\n      jump\t// in\n    tag_642:\n        /* \"#utility.yul\":34482:34533   */\n      swap6\n      pop\n        /* \"#utility.yul\":34566:34570   */\n      dup1\n        /* \"#utility.yul\":34562:34571   */\n      not\n        /* \"#utility.yul\":34555:34560   */\n      dup5\n        /* \"#utility.yul\":34551:34572   */\n      and\n        /* \"#utility.yul\":34542:34572   */\n      swap4\n      pop\n        /* \"#utility.yul\":34615:34619   */\n      dup1\n        /* \"#utility.yul\":34605:34613   */\n      dup7\n        /* \"#utility.yul\":34601:34620   */\n      and\n        /* \"#utility.yul\":34594:34599   */\n      dup5\n        /* \"#utility.yul\":34591:34621   */\n      or\n        /* \"#utility.yul\":34581:34621   */\n      swap3\n      pop\n        /* \"#utility.yul\":34310:34627   */\n      pop\n      pop\n        /* \"#utility.yul\":34234:34627   */\n      swap4\n      swap3\n      pop\n      pop\n      pop\n      jump\t// out\n        /* \"#utility.yul\":34633:34693   */\n    tag_391:\n        /* \"#utility.yul\":34661:34664   */\n      0x00\n        /* \"#utility.yul\":34682:34687   */\n      dup2\n        /* \"#utility.yul\":34675:34687   */\n      swap1\n      pop\n        /* \"#utility.yul\":34633:34693   */\n      swap2\n      swap1\n      pop\n      jump\t// out\n        /* \"#utility.yul\":34699:34841   */\n    tag_392:\n        /* \"#utility.yul\":34749:34758   */\n      0x00\n        /* \"#utility.yul\":34782:34835   */\n      tag_645\n        /* \"#utility.yul\":34800:34834   */\n      tag_646\n        /* \"#utility.yul\":34809:34833   */\n      tag_647\n        /* \"#utility.yul\":34827:34832   */\n      dup5\n        /* \"#utility.yul\":34809:34833   */\n      tag_344\n      jump\t// in\n    tag_647:\n        /* \"#utility.yul\":34800:34834   */\n      tag_391\n      jump\t// in\n    tag_646:\n        /* \"#utility.yul\":34782:34835   */\n      tag_344\n      jump\t// in\n    tag_645:\n        /* \"#utility.yul\":34769:34835   */\n      swap1\n      pop\n        /* \"#utility.yul\":34699:34841   */\n      swap2\n      swap1\n      pop\n      jump\t// out\n        /* \"#utility.yul\":34847:34922   */\n    tag_393:\n        /* \"#utility.yul\":34890:34893   */\n      0x00\n        /* \"#utility.yul\":34911:34916   */\n      dup2\n        /* \"#utility.yul\":34904:34916   */\n      swap1\n      pop\n        /* \"#utility.yul\":34847:34922   */\n      swap2\n      swap1\n      pop\n      jump\t// out\n        /* \"#utility.yul\":34928:35197   */\n    tag_394:\n        /* \"#utility.yul\":35038:35077   */\n      tag_650\n        /* \"#utility.yul\":35069:35076   */\n      dup4\n        /* \"#utility.yul\":35038:35077   */\n      tag_392\n      jump\t// in\n    tag_650:\n        /* \"#utility.yul\":35099:35190   */\n      tag_651\n        /* \"#utility.yul\":35148:35189   */\n      tag_652\n        /* \"#utility.yul\":35172:35188   */\n      dup3\n        /* \"#utility.yul\":35148:35189   */\n      tag_393\n      jump\t// in\n    tag_652:\n        /* \"#utility.yul\":35140:35146   */\n      dup5\n        /* \"#utility.yul\":35133:35137   */\n      dup5\n        /* \"#utility.yul\":35127:35138   */\n      sload\n        /* \"#utility.yul\":35099:35190   */\n      tag_390\n      jump\t// in\n    tag_651:\n        /* \"#utility.yul\":35093:35097   */\n      dup3\n        /* \"#utility.yul\":35086:35191   */\n      sstore\n        /* \"#utility.yul\":35004:35197   */\n      pop\n        /* \"#utility.yul\":34928:35197   */\n      pop\n      pop\n      pop\n      jump\t// out\n        /* \"#utility.yul\":35203:35276   */\n    tag_395:\n        /* \"#utility.yul\":35248:35251   */\n      0x00\n        /* \"#utility.yul\":35203:35276   */\n      swap1\n      jump\t// out\n        /* \"#utility.yul\":35282:35471   */\n    tag_396:\n        /* \"#utility.yul\":35359:35391   */\n      tag_655\n      tag_395\n      jump\t// in\n    tag_655:\n        /* \"#utility.yul\":35400:35465   */\n      tag_656\n        /* \"#utility.yul\":35458:35464   */\n      dup2\n        /* \"#utility.yul\":35450:35456   */\n      dup5\n        /* \"#utility.yul\":35444:35448   */\n      dup5\n        /* \"#utility.yul\":35400:35465   */\n      tag_394\n      jump\t// in\n    tag_656:\n        /* \"#utility.yul\":35335:35471   */\n      pop\n        /* \"#utility.yul\":35282:35471   */\n      pop\n      pop\n      jump\t// out\n        /* \"#utility.yul\":35477:35663   */\n    tag_397:\n        /* \"#utility.yul\":35537:35657   */\n    tag_658:\n        /* \"#utility.yul\":35554:35557   */\n      dup2\n        /* \"#utility.yul\":35547:35552   */\n      dup2\n        /* \"#utility.yul\":35544:35558   */\n      lt\n        /* \"#utility.yul\":35537:35657   */\n      iszero\n      tag_660\n      jumpi\n        /* \"#utility.yul\":35608:35647   */\n      tag_661\n        /* \"#utility.yul\":35645:35646   */\n      0x00\n        /* \"#utility.yul\":35638:35643   */\n      dup3\n        /* \"#utility.yul\":35608:35647   */\n      tag_396\n      jump\t// in\n    tag_661:\n        /* \"#utility.yul\":35581:35582   */\n      0x01\n        /* \"#utility.yul\":35574:35579   */\n      dup2\n        /* \"#utility.yul\":35570:35583   */\n      add\n        /* \"#utility.yul\":35561:35583   */\n      swap1\n      pop\n        /* \"#utility.yul\":35537:35657   */\n      jump(tag_658)\n    tag_660:\n        /* \"#utility.yul\":35477:35663   */\n      pop\n      pop\n      jump\t// out\n        /* \"#utility.yul\":35669:36212   */\n    tag_398:\n        /* \"#utility.yul\":35770:35772   */\n      0x1f\n        /* \"#utility.yul\":35765:35768   */\n      dup3\n        /* \"#utility.yul\":35762:35773   */\n      gt\n        /* \"#utility.yul\":35759:36205   */\n      iszero\n      tag_663\n      jumpi\n        /* \"#utility.yul\":35804:35842   */\n      tag_664\n        /* \"#utility.yul\":35836:35841   */\n      dup2\n        /* \"#utility.yul\":35804:35842   */\n      tag_387\n      jump\t// in\n    tag_664:\n        /* \"#utility.yul\":35888:35917   */\n      tag_665\n        /* \"#utility.yul\":35906:35916   */\n      dup5\n        /* \"#utility.yul\":35888:35917   */\n      tag_388\n      jump\t// in\n    tag_665:\n        /* \"#utility.yul\":35878:35886   */\n      dup2\n        /* \"#utility.yul\":35874:35918   */\n      add\n        /* \"#utility.yul\":36071:36073   */\n      0x20\n        /* \"#utility.yul\":36059:36069   */\n      dup6\n        /* \"#utility.yul\":36056:36074   */\n      lt\n        /* \"#utility.yul\":36053:36102   */\n      iszero\n      tag_666\n      jumpi\n        /* \"#utility.yul\":36092:36100   */\n      dup2\n        /* \"#utility.yul\":36077:36100   */\n      swap1\n      pop\n        /* \"#utility.yul\":36053:36102   */\n    tag_666:\n        /* \"#utility.yul\":36115:36195   */\n      tag_667\n        /* \"#utility.yul\":36171:36193   */\n      tag_668\n        /* \"#utility.yul\":36189:36192   */\n      dup6\n        /* \"#utility.yul\":36171:36193   */\n      tag_388\n      jump\t// in\n    tag_668:\n        /* \"#utility.yul\":36161:36169   */\n      dup4\n        /* \"#utility.yul\":36157:36194   */\n      add\n        /* \"#utility.yul\":36144:36155   */\n      dup3\n        /* \"#utility.yul\":36115:36195   */\n      tag_397\n      jump\t// in\n    tag_667:\n        /* \"#utility.yul\":35774:36205   */\n      pop\n      pop\n        /* \"#utility.yul\":35759:36205   */\n    tag_663:\n        /* \"#utility.yul\":35669:36212   */\n      pop\n      pop\n      pop\n      jump\t// out\n        /* \"#utility.yul\":36218:36335   */\n    tag_399:\n        /* \"#utility.yul\":36272:36280   */\n      0x00\n        /* \"#utility.yul\":36322:36327   */\n      dup3\n        /* \"#utility.yul\":36316:36320   */\n      dup3\n        /* \"#utility.yul\":36312:36328   */\n      shr\n        /* \"#utility.yul\":36291:36328   */\n      swap1\n      pop\n        /* \"#utility.yul\":36218:36335   */\n      swap3\n      swap2\n      pop\n      pop\n      jump\t// out\n        /* \"#utility.yul\":36341:36510   */\n    tag_400:\n        /* \"#utility.yul\":36385:36391   */\n      0x00\n        /* \"#utility.yul\":36418:36469   */\n      tag_671\n        /* \"#utility.yul\":36466:36467   */\n      0x00\n        /* \"#utility.yul\":36462:36468   */\n      not\n        /* \"#utility.yul\":36454:36459   */\n      dup5\n        /* \"#utility.yul\":36451:36452   */\n      0x08\n        /* \"#utility.yul\":36447:36460   */\n      mul\n        /* \"#utility.yul\":36418:36469   */\n      tag_399\n      jump\t// in\n    tag_671:\n        /* \"#utility.yul\":36414:36470   */\n      not\n        /* \"#utility.yul\":36499:36503   */\n      dup1\n        /* \"#utility.yul\":36493:36497   */\n      dup4\n        /* \"#utility.yul\":36489:36504   */\n      and\n        /* \"#utility.yul\":36479:36504   */\n      swap2\n      pop\n        /* \"#utility.yul\":36392:36510   */\n      pop\n        /* \"#utility.yul\":36341:36510   */\n      swap3\n      swap2\n      pop\n      pop\n      jump\t// out\n        /* \"#utility.yul\":36515:36810   */\n    tag_401:\n        /* \"#utility.yul\":36591:36595   */\n      0x00\n        /* \"#utility.yul\":36737:36766   */\n      tag_673\n        /* \"#utility.yul\":36762:36765   */\n      dup4\n        /* \"#utility.yul\":36756:36760   */\n      dup4\n        /* \"#utility.yul\":36737:36766   */\n      tag_400\n      jump\t// in\n    tag_673:\n        /* \"#utility.yul\":36729:36766   */\n      swap2\n      pop\n        /* \"#utility.yul\":36799:36802   */\n      dup3\n        /* \"#utility.yul\":36796:36797   */\n      0x02\n        /* \"#utility.yul\":36792:36803   */\n      mul\n        /* \"#utility.yul\":36786:36790   */\n      dup3\n        /* \"#utility.yul\":36783:36804   */\n      or\n        /* \"#utility.yul\":36775:36804   */\n      swap1\n      pop\n        /* \"#utility.yul\":36515:36810   */\n      swap3\n      swap2\n      pop\n      pop\n      jump\t// out\n        /* \"#utility.yul\":36815:38210   */\n    tag_222:\n        /* \"#utility.yul\":36932:36969   */\n      tag_675\n        /* \"#utility.yul\":36965:36968   */\n      dup3\n        /* \"#utility.yul\":36932:36969   */\n      tag_353\n      jump\t// in\n    tag_675:\n        /* \"#utility.yul\":37034:37052   */\n      0xffffffffffffffff\n        /* \"#utility.yul\":37026:37032   */\n      dup2\n        /* \"#utility.yul\":37023:37053   */\n      gt\n        /* \"#utility.yul\":37020:37076   */\n      iszero\n      tag_676\n      jumpi\n        /* \"#utility.yul\":37056:37074   */\n      tag_677\n      tag_376\n      jump\t// in\n    tag_677:\n        /* \"#utility.yul\":37020:37076   */\n    tag_676:\n        /* \"#utility.yul\":37100:37138   */\n      tag_678\n        /* \"#utility.yul\":37132:37136   */\n      dup3\n        /* \"#utility.yul\":37126:37137   */\n      sload\n        /* \"#utility.yul\":37100:37138   */\n      tag_46\n      jump\t// in\n    tag_678:\n        /* \"#utility.yul\":37185:37252   */\n      tag_679\n        /* \"#utility.yul\":37245:37251   */\n      dup3\n        /* \"#utility.yul\":37237:37243   */\n      dup3\n        /* \"#utility.yul\":37231:37235   */\n      dup6\n        /* \"#utility.yul\":37185:37252   */\n      tag_398\n      jump\t// in\n    tag_679:\n        /* \"#utility.yul\":37279:37280   */\n      0x00\n        /* \"#utility.yul\":37303:37307   */\n      0x20\n        /* \"#utility.yul\":37290:37307   */\n      swap1\n      pop\n        /* \"#utility.yul\":37335:37337   */\n      0x1f\n        /* \"#utility.yul\":37327:37333   */\n      dup4\n        /* \"#utility.yul\":37324:37338   */\n      gt\n        /* \"#utility.yul\":37352:37353   */\n      0x01\n        /* \"#utility.yul\":37347:37965   */\n      dup2\n      eq\n      tag_681\n      jumpi\n        /* \"#utility.yul\":38009:38010   */\n      0x00\n        /* \"#utility.yul\":38026:38032   */\n      dup5\n        /* \"#utility.yul\":38023:38100   */\n      iszero\n      tag_682\n      jumpi\n        /* \"#utility.yul\":38075:38084   */\n      dup3\n        /* \"#utility.yul\":38070:38073   */\n      dup8\n        /* \"#utility.yul\":38066:38085   */\n      add\n        /* \"#utility.yul\":38060:38086   */\n      mload\n        /* \"#utility.yul\":38051:38086   */\n      swap1\n      pop\n        /* \"#utility.yul\":38023:38100   */\n    tag_682:\n        /* \"#utility.yul\":38126:38193   */\n      tag_683\n        /* \"#utility.yul\":38186:38192   */\n      dup6\n        /* \"#utility.yul\":38179:38184   */\n      dup3\n        /* \"#utility.yul\":38126:38193   */\n      tag_401\n      jump\t// in\n    tag_683:\n        /* \"#utility.yul\":38120:38124   */\n      dup7\n        /* \"#utility.yul\":38113:38194   */\n      sstore\n        /* \"#utility.yul\":37982:38204   */\n      pop\n        /* \"#utility.yul\":37317:38204   */\n      jump(tag_680)\n        /* \"#utility.yul\":37347:37965   */\n    tag_681:\n        /* \"#utility.yul\":37399:37403   */\n      0x1f\n        /* \"#utility.yul\":37395:37404   */\n      not\n        /* \"#utility.yul\":37387:37393   */\n      dup5\n        /* \"#utility.yul\":37383:37405   */\n      and\n        /* \"#utility.yul\":37433:37470   */\n      tag_684\n        /* \"#utility.yul\":37465:37469   */\n      dup7\n        /* \"#utility.yul\":37433:37470   */\n      tag_387\n      jump\t// in\n    tag_684:\n        /* \"#utility.yul\":37492:37493   */\n      0x00\n        /* \"#utility.yul\":37506:37714   */\n    tag_685:\n        /* \"#utility.yul\":37520:37527   */\n      dup3\n        /* \"#utility.yul\":37517:37518   */\n      dup2\n        /* \"#utility.yul\":37514:37528   */\n      lt\n        /* \"#utility.yul\":37506:37714   */\n      iszero\n      tag_687\n      jumpi\n        /* \"#utility.yul\":37599:37608   */\n      dup5\n        /* \"#utility.yul\":37594:37597   */\n      dup10\n        /* \"#utility.yul\":37590:37609   */\n      add\n        /* \"#utility.yul\":37584:37610   */\n      mload\n        /* \"#utility.yul\":37576:37582   */\n      dup3\n        /* \"#utility.yul\":37569:37611   */\n      sstore\n        /* \"#utility.yul\":37650:37651   */\n      0x01\n        /* \"#utility.yul\":37642:37648   */\n      dup3\n        /* \"#utility.yul\":37638:37652   */\n      add\n        /* \"#utility.yul\":37628:37652   */\n      swap2\n      pop\n        /* \"#utility.yul\":37697:37699   */\n      0x20\n        /* \"#utility.yul\":37686:37695   */\n      dup6\n        /* \"#utility.yul\":37682:37700   */\n      add\n        /* \"#utility.yul\":37669:37700   */\n      swap5\n      pop\n        /* \"#utility.yul\":37543:37547   */\n      0x20\n        /* \"#utility.yul\":37540:37541   */\n      dup2\n        /* \"#utility.yul\":37536:37548   */\n      add\n        /* \"#utility.yul\":37531:37548   */\n      swap1\n      pop\n        /* \"#utility.yul\":37506:37714   */\n      jump(tag_685)\n    tag_687:\n        /* \"#utility.yul\":37742:37748   */\n      dup7\n        /* \"#utility.yul\":37733:37740   */\n      dup4\n        /* \"#utility.yul\":37730:37749   */\n      lt\n        /* \"#utility.yul\":37727:37906   */\n      iszero\n      tag_688\n      jumpi\n        /* \"#utility.yul\":37800:37809   */\n      dup5\n        /* \"#utility.yul\":37795:37798   */\n      dup10\n        /* \"#utility.yul\":37791:37810   */\n      add\n        /* \"#utility.yul\":37785:37811   */\n      mload\n        /* \"#utility.yul\":37843:37891   */\n      tag_689\n        /* \"#utility.yul\":37885:37889   */\n      0x1f\n        /* \"#utility.yul\":37877:37883   */\n      dup10\n        /* \"#utility.yul\":37873:37890   */\n      and\n        /* \"#utility.yul\":37862:37871   */\n      dup3\n        /* \"#utility.yul\":37843:37891   */\n      tag_400\n      jump\t// in\n    tag_689:\n        /* \"#utility.yul\":37835:37841   */\n      dup4\n        /* \"#utility.yul\":37828:37892   */\n      sstore\n        /* \"#utility.yul\":37750:37906   */\n      pop\n        /* \"#utility.yul\":37727:37906   */\n    tag_688:\n        /* \"#utility.yul\":37952:37953   */\n      0x01\n        /* \"#utility.yul\":37948:37949   */\n      0x02\n        /* \"#utility.yul\":37940:37946   */\n      dup9\n        /* \"#utility.yul\":37936:37950   */\n      mul\n        /* \"#utility.yul\":37932:37954   */\n      add\n        /* \"#utility.yul\":37926:37930   */\n      dup9\n        /* \"#utility.yul\":37919:37955   */\n      sstore\n        /* \"#utility.yul\":37354:37965   */\n      pop\n      pop\n      pop\n        /* \"#utility.yul\":37317:38204   */\n    tag_680:\n      pop\n        /* \"#utility.yul\":36907:38210   */\n      pop\n      pop\n      pop\n        /* \"#utility.yul\":36815:38210   */\n      pop\n      pop\n      jump\t// out\n\n    auxdata: 0xa2646970667358221220a20f9956fef3b37d85ca015708bf5b030335bd71aa2a77244066559d7131db5b64736f6c63430008140033\n}\n",
				"bytecode": {
					"linkReferences": {},
					"object": "608060405234801561000f575f80fd5b506141068061001d5f395ff3fe608060405234801561000f575f80fd5b5060043610610086575f3560e01c80637d13d926116100595780637d13d9261461012b578063a21e0a6314610147578063e73f50ac14610163578063f99e7b701461017f57610086565b80631dab301e1461008a5780636a5c841a146100c15780636f1dcff2146100f15780637b9f84201461010d575b5f80fd5b6100a4600480360381019061009f9190612ffd565b61019b565b6040516100b898979695949392919061341d565b60405180910390f35b6100db60048036038101906100d69190612ffd565b610be9565b6040516100e89190613861565b60405180910390f35b61010b600480360381019061010691906139d7565b611692565b005b610115611b48565b6040516101229190613b14565b60405180910390f35b61014560048036038101906101409190613b2d565b611b50565b005b610161600480360381019061015c91906139d7565b612014565b005b61017d60048036038101906101789190613c3a565b6124cb565b005b61019960048036038101906101949190613b2d565b612974565b005b6001602052805f5260405f205f91509050805f015490806001015f9054906101000a900460ff1690806002016040518060800160405290815f82015481526020016001820180546101eb90613dc0565b80601f016020809104026020016040519081016040528092919081815260200182805461021790613dc0565b80156102625780601f1061023957610100808354040283529160200191610262565b820191905f5260205f20905b81548152906001019060200180831161024557829003601f168201915b50505050508152602001600282015f9054906101000a900460ff1660ff1660ff16815260200160038201805461029790613dc0565b80601f01602080910402602001604051908101604052809291908181526020018280546102c390613dc0565b801561030e5780601f106102e55761010080835404028352916020019161030e565b820191905f5260205f20905b8154815290600101906020018083116102f157829003601f168201915b50505050508152505090806006016040518060a00160405290815f8201805461033690613dc0565b80601f016020809104026020016040519081016040528092919081815260200182805461036290613dc0565b80156103ad5780601f10610384576101008083540402835291602001916103ad565b820191905f5260205f20905b81548152906001019060200180831161039057829003601f168201915b505050505081526020016001820180546103c690613dc0565b80601f01602080910402602001604051908101604052809291908181526020018280546103f290613dc0565b801561043d5780601f106104145761010080835404028352916020019161043d565b820191905f5260205f20905b81548152906001019060200180831161042057829003601f168201915b5050505050815260200160028201805461045690613dc0565b80601f016020809104026020016040519081016040528092919081815260200182805461048290613dc0565b80156104cd5780601f106104a4576101008083540402835291602001916104cd565b820191905f5260205f20905b8154815290600101906020018083116104b057829003601f168201915b5050505050815260200160038201548152602001600482015f9054906101000a900460ff1660ff1660ff16815250509080600b016040518060800160405290815f8201805461051b90613dc0565b80601f016020809104026020016040519081016040528092919081815260200182805461054790613dc0565b80156105925780601f1061056957610100808354040283529160200191610592565b820191905f5260205f20905b81548152906001019060200180831161057557829003601f168201915b505050505081526020016001820180546105ab90613dc0565b80601f01602080910402602001604051908101604052809291908181526020018280546105d790613dc0565b80156106225780601f106105f957610100808354040283529160200191610622565b820191905f5260205f20905b81548152906001019060200180831161060557829003601f168201915b5050505050815260200160028201548152602001600382015f9054906101000a900460ff1660ff1660ff16815250509080600f016040518060a00160405290815f8201805461067090613dc0565b80601f016020809104026020016040519081016040528092919081815260200182805461069c90613dc0565b80156106e75780601f106106be576101008083540402835291602001916106e7565b820191905f5260205f20905b8154815290600101906020018083116106ca57829003601f168201915b5050505050815260200160018201805461070090613dc0565b80601f016020809104026020016040519081016040528092919081815260200182805461072c90613dc0565b80156107775780601f1061074e57610100808354040283529160200191610777565b820191905f5260205f20905b81548152906001019060200180831161075a57829003601f168201915b5050505050815260200160028201805461079090613dc0565b80601f01602080910402602001604051908101604052809291908181526020018280546107bc90613dc0565b80156108075780601f106107de57610100808354040283529160200191610807565b820191905f5260205f20905b8154815290600101906020018083116107ea57829003601f168201915b505050505081526020016003820154815260200160048201805461082a90613dc0565b80601f016020809104026020016040519081016040528092919081815260200182805461085690613dc0565b80156108a15780601f10610878576101008083540402835291602001916108a1565b820191905f5260205f20905b81548152906001019060200180831161088457829003601f168201915b50505050508152505090806014016040518060a00160405290815f820180546108c990613dc0565b80601f01602080910402602001604051908101604052809291908181526020018280546108f590613dc0565b80156109405780601f1061091757610100808354040283529160200191610940565b820191905f5260205f20905b81548152906001019060200180831161092357829003601f168201915b5050505050815260200160018201805461095990613dc0565b80601f016020809104026020016040519081016040528092919081815260200182805461098590613dc0565b80156109d05780601f106109a7576101008083540402835291602001916109d0565b820191905f5260205f20905b8154815290600101906020018083116109b357829003601f168201915b505050505081526020016002820180546109e990613dc0565b80601f0160208091040260200160405190810160405280929190818152602001828054610a1590613dc0565b8015610a605780601f10610a3757610100808354040283529160200191610a60565b820191905f5260205f20905b815481529060010190602001808311610a4357829003601f168201915b5050505050815260200160038201548152602001600482015f9054906101000a900460ff1660ff1660ff168152505090806019016040518060800160405290815f82018054610aae90613dc0565b80601f0160208091040260200160405190810160405280929190818152602001828054610ada90613dc0565b8015610b255780601f10610afc57610100808354040283529160200191610b25565b820191905f5260205f20905b815481529060010190602001808311610b0857829003601f168201915b50505050508152602001600182018054610b3e90613dc0565b80601f0160208091040260200160405190810160405280929190818152602001828054610b6a90613dc0565b8015610bb55780601f10610b8c57610100808354040283529160200191610bb5565b820191905f5260205f20905b815481529060010190602001808311610b9857829003601f168201915b5050505050815260200160028201548152602001600382015f9054906101000a900460ff1660ff1660ff1681525050905088565b610bf1612e37565b60015f8381526020019081526020015f20604051806101000160405290815f8201548152602001600182015f9054906101000a900460ff166004811115610c3b57610c3a613037565b5b6004811115610c4d57610c4c613037565b5b8152602001600282016040518060800160405290815f8201548152602001600182018054610c7a90613dc0565b80601f0160208091040260200160405190810160405280929190818152602001828054610ca690613dc0565b8015610cf15780601f10610cc857610100808354040283529160200191610cf1565b820191905f5260205f20905b815481529060010190602001808311610cd457829003601f168201915b50505050508152602001600282015f9054906101000a900460ff1660ff1660ff168152602001600382018054610d2690613dc0565b80601f0160208091040260200160405190810160405280929190818152602001828054610d5290613dc0565b8015610d9d5780601f10610d7457610100808354040283529160200191610d9d565b820191905f5260205f20905b815481529060010190602001808311610d8057829003601f168201915b5050505050815250508152602001600682016040518060a00160405290815f82018054610dc990613dc0565b80601f0160208091040260200160405190810160405280929190818152602001828054610df590613dc0565b8015610e405780601f10610e1757610100808354040283529160200191610e40565b820191905f5260205f20905b815481529060010190602001808311610e2357829003601f168201915b50505050508152602001600182018054610e5990613dc0565b80601f0160208091040260200160405190810160405280929190818152602001828054610e8590613dc0565b8015610ed05780601f10610ea757610100808354040283529160200191610ed0565b820191905f5260205f20905b815481529060010190602001808311610eb357829003601f168201915b50505050508152602001600282018054610ee990613dc0565b80601f0160208091040260200160405190810160405280929190818152602001828054610f1590613dc0565b8015610f605780601f10610f3757610100808354040283529160200191610f60565b820191905f5260205f20905b815481529060010190602001808311610f4357829003601f168201915b5050505050815260200160038201548152602001600482015f9054906101000a900460ff1660ff1660ff16815250508152602001600b82016040518060800160405290815f82018054610fb290613dc0565b80601f0160208091040260200160405190810160405280929190818152602001828054610fde90613dc0565b80156110295780601f1061100057610100808354040283529160200191611029565b820191905f5260205f20905b81548152906001019060200180831161100c57829003601f168201915b5050505050815260200160018201805461104290613dc0565b80601f016020809104026020016040519081016040528092919081815260200182805461106e90613dc0565b80156110b95780601f10611090576101008083540402835291602001916110b9565b820191905f5260205f20905b81548152906001019060200180831161109c57829003601f168201915b5050505050815260200160028201548152602001600382015f9054906101000a900460ff1660ff1660ff16815250508152602001600f82016040518060a00160405290815f8201805461110b90613dc0565b80601f016020809104026020016040519081016040528092919081815260200182805461113790613dc0565b80156111825780601f1061115957610100808354040283529160200191611182565b820191905f5260205f20905b81548152906001019060200180831161116557829003601f168201915b5050505050815260200160018201805461119b90613dc0565b80601f01602080910402602001604051908101604052809291908181526020018280546111c790613dc0565b80156112125780601f106111e957610100808354040283529160200191611212565b820191905f5260205f20905b8154815290600101906020018083116111f557829003601f168201915b5050505050815260200160028201805461122b90613dc0565b80601f016020809104026020016040519081016040528092919081815260200182805461125790613dc0565b80156112a25780601f10611279576101008083540402835291602001916112a2565b820191905f5260205f20905b81548152906001019060200180831161128557829003601f168201915b50505050508152602001600382015481526020016004820180546112c590613dc0565b80601f01602080910402602001604051908101604052809291908181526020018280546112f190613dc0565b801561133c5780601f106113135761010080835404028352916020019161133c565b820191905f5260205f20905b81548152906001019060200180831161131f57829003601f168201915b5050505050815250508152602001601482016040518060a00160405290815f8201805461136890613dc0565b80601f016020809104026020016040519081016040528092919081815260200182805461139490613dc0565b80156113df5780601f106113b6576101008083540402835291602001916113df565b820191905f5260205f20905b8154815290600101906020018083116113c257829003601f168201915b505050505081526020016001820180546113f890613dc0565b80601f016020809104026020016040519081016040528092919081815260200182805461142490613dc0565b801561146f5780601f106114465761010080835404028352916020019161146f565b820191905f5260205f20905b81548152906001019060200180831161145257829003601f168201915b5050505050815260200160028201805461148890613dc0565b80601f01602080910402602001604051908101604052809291908181526020018280546114b490613dc0565b80156114ff5780601f106114d6576101008083540402835291602001916114ff565b820191905f5260205f20905b8154815290600101906020018083116114e257829003601f168201915b5050505050815260200160038201548152602001600482015f9054906101000a900460ff1660ff1660ff16815250508152602001601982016040518060800160405290815f8201805461155190613dc0565b80601f016020809104026020016040519081016040528092919081815260200182805461157d90613dc0565b80156115c85780601f1061159f576101008083540402835291602001916115c8565b820191905f5260205f20905b8154815290600101906020018083116115ab57829003601f168201915b505050505081526020016001820180546115e190613dc0565b80601f016020809104026020016040519081016040528092919081815260200182805461160d90613dc0565b80156116585780601f1061162f57610100808354040283529160200191611658565b820191905f5260205f20905b81548152906001019060200180831161163b57829003601f168201915b5050505050815260200160028201548152602001600382015f9054906101000a900460ff1660ff1660ff1681525050815250509050919050565b5f808154809291906116a390613e1d565b91905055505f60405180608001604052805f5481526020018a81526020018960ff1681526020018881525090505f6040518060a001604052808881526020018781526020018681526020018581526020018460ff1681525090505f6040518061010001604052805f5481526020015f600481111561172457611723613037565b5b8152602001848152602001838152602001604051806080016040528060405180602001604052805f815250815260200160405180602001604052805f81525081526020015f81526020015f60ff1681525081526020016040518060a0016040528060405180602001604052805f815250815260200160405180602001604052805f815250815260200160405180602001604052805f81525081526020015f815260200160405180602001604052805f81525081525081526020016040518060a0016040528060405180602001604052805f815250815260200160405180602001604052805f815250815260200160405180602001604052805f81525081526020015f81526020015f60ff168152508152602001604051806080016040528060405180602001604052805f815250815260200160405180602001604052805f81525081526020015f81526020015f60ff1681525081525090508060015f805481526020019081526020015f205f820151815f01556020820151816001015f6101000a81548160ff021916908360048111156118c1576118c0613037565b5b02179055506040820151816002015f820151815f015560208201518160010190816118ec9190614001565b506040820151816002015f6101000a81548160ff021916908360ff16021790555060608201518160030190816119229190614001565b5050506060820151816006015f820151815f0190816119419190614001565b5060208201518160010190816119579190614001565b50604082015181600201908161196d9190614001565b50606082015181600301556080820151816004015f6101000a81548160ff021916908360ff1602179055505050608082015181600b015f820151815f0190816119b69190614001565b5060208201518160010190816119cc9190614001565b50604082015181600201556060820151816003015f6101000a81548160ff021916908360ff160217905550505060a082015181600f015f820151815f019081611a159190614001565b506020820151816001019081611a2b9190614001565b506040820151816002019081611a419190614001565b50606082015181600301556080820151816004019081611a619190614001565b50505060c0820151816014015f820151815f019081611a809190614001565b506020820151816001019081611a969190614001565b506040820151816002019081611aac9190614001565b50606082015181600301556080820151816004015f6101000a81548160ff021916908360ff160217905550505060e0820151816019015f820151815f019081611af59190614001565b506020820151816001019081611b0b9190614001565b50604082015181600201556060820151816003015f6101000a81548160ff021916908360ff16021790555050509050505050505050505050505050565b5f8054905090565b5f80815480929190611b6190613e1d565b91905055505f60405180608001604052805f5481526020018981526020018860ff1681526020018781525090505f60405180608001604052808781526020018681526020018581526020018460ff1681525090505f6040518061010001604052805f54815260200160016004811115611bdd57611bdc613037565b5b81526020018481526020016040518060a0016040528060405180602001604052805f815250815260200160405180602001604052805f815250815260200160405180602001604052805f81525081526020015f81526020015f60ff1681525081526020018381526020016040518060a0016040528060405180602001604052805f815250815260200160405180602001604052805f815250815260200160405180602001604052805f81525081526020015f815260200160405180602001604052805f81525081525081526020016040518060a0016040528060405180602001604052805f815250815260200160405180602001604052805f815250815260200160405180602001604052805f81525081526020015f81526020015f60ff168152508152602001604051806080016040528060405180602001604052805f815250815260200160405180602001604052805f81525081526020015f81526020015f60ff1681525081525090508060015f805481526020019081526020015f205f820151815f01556020820151816001015f6101000a81548160ff02191690836004811115611d8e57611d8d613037565b5b02179055506040820151816002015f820151815f01556020820151816001019081611db99190614001565b506040820151816002015f6101000a81548160ff021916908360ff1602179055506060820151816003019081611def9190614001565b5050506060820151816006015f820151815f019081611e0e9190614001565b506020820151816001019081611e249190614001565b506040820151816002019081611e3a9190614001565b50606082015181600301556080820151816004015f6101000a81548160ff021916908360ff1602179055505050608082015181600b015f820151815f019081611e839190614001565b506020820151816001019081611e999190614001565b50604082015181600201556060820151816003015f6101000a81548160ff021916908360ff160217905550505060a082015181600f015f820151815f019081611ee29190614001565b506020820151816001019081611ef89190614001565b506040820151816002019081611f0e9190614001565b50606082015181600301556080820151816004019081611f2e9190614001565b50505060c0820151816014015f820151815f019081611f4d9190614001565b506020820151816001019081611f639190614001565b506040820151816002019081611f799190614001565b50606082015181600301556080820151816004015f6101000a81548160ff021916908360ff160217905550505060e0820151816019015f820151815f019081611fc29190614001565b506020820151816001019081611fd89190614001565b50604082015181600201556060820151816003015f6101000a81548160ff021916908360ff160217905550505090505050505050505050505050565b5f8081548092919061202590613e1d565b91905055505f60405180608001604052805f5481526020018a81526020018960ff1681526020018881525090505f6040518060a001604052808881526020018781526020018681526020018581526020018460ff1681525090505f6040518061010001604052805f548152602001600360048111156120a7576120a6613037565b5b81526020018481526020016040518060a0016040528060405180602001604052805f815250815260200160405180602001604052805f815250815260200160405180602001604052805f81525081526020015f81526020015f60ff168152508152602001604051806080016040528060405180602001604052805f815250815260200160405180602001604052805f81525081526020015f81526020015f60ff1681525081526020016040518060a0016040528060405180602001604052805f815250815260200160405180602001604052805f815250815260200160405180602001604052805f81525081526020015f815260200160405180602001604052805f8152508152508152602001838152602001604051806080016040528060405180602001604052805f815250815260200160405180602001604052805f81525081526020015f81526020015f60ff1681525081525090508060015f805481526020019081526020015f205f820151815f01556020820151816001015f6101000a81548160ff0219169083600481111561224457612243613037565b5b02179055506040820151816002015f820151815f0155602082015181600101908161226f9190614001565b506040820151816002015f6101000a81548160ff021916908360ff16021790555060608201518160030190816122a59190614001565b5050506060820151816006015f820151815f0190816122c49190614001565b5060208201518160010190816122da9190614001565b5060408201518160020190816122f09190614001565b50606082015181600301556080820151816004015f6101000a81548160ff021916908360ff1602179055505050608082015181600b015f820151815f0190816123399190614001565b50602082015181600101908161234f9190614001565b50604082015181600201556060820151816003015f6101000a81548160ff021916908360ff160217905550505060a082015181600f015f820151815f0190816123989190614001565b5060208201518160010190816123ae9190614001565b5060408201518160020190816123c49190614001565b506060820151816003015560808201518160040190816123e49190614001565b50505060c0820151816014015f820151815f0190816124039190614001565b5060208201518160010190816124199190614001565b50604082015181600201908161242f9190614001565b50606082015181600301556080820151816004015f6101000a81548160ff021916908360ff160217905550505060e0820151816019015f820151815f0190816124789190614001565b50602082015181600101908161248e9190614001565b50604082015181600201556060820151816003015f6101000a81548160ff021916908360ff16021790555050509050505050505050505050505050565b5f808154809291906124dc90613e1d565b91905055505f60405180608001604052805f5481526020018a81526020018960ff1681526020018881525090505f6040518060a001604052808881526020018781526020018681526020018581526020018481525090505f6040518061010001604052805f5481526020016002600481111561255b5761255a613037565b5b81526020018481526020016040518060a0016040528060405180602001604052805f815250815260200160405180602001604052805f815250815260200160405180602001604052805f81525081526020015f81526020015f60ff168152508152602001604051806080016040528060405180602001604052805f815250815260200160405180602001604052805f81525081526020015f81526020015f60ff1681525081526020018381526020016040518060a0016040528060405180602001604052805f815250815260200160405180602001604052805f815250815260200160405180602001604052805f81525081526020015f81526020015f60ff168152508152602001604051806080016040528060405180602001604052805f815250815260200160405180602001604052805f81525081526020015f81526020015f60ff1681525081525090508060015f805481526020019081526020015f205f820151815f01556020820151816001015f6101000a81548160ff021916908360048111156126ed576126ec613037565b5b02179055506040820151816002015f820151815f015560208201518160010190816127189190614001565b506040820151816002015f6101000a81548160ff021916908360ff160217905550606082015181600301908161274e9190614001565b5050506060820151816006015f820151815f01908161276d9190614001565b5060208201518160010190816127839190614001565b5060408201518160020190816127999190614001565b50606082015181600301556080820151816004015f6101000a81548160ff021916908360ff1602179055505050608082015181600b015f820151815f0190816127e29190614001565b5060208201518160010190816127f89190614001565b50604082015181600201556060820151816003015f6101000a81548160ff021916908360ff160217905550505060a082015181600f015f820151815f0190816128419190614001565b5060208201518160010190816128579190614001565b50604082015181600201908161286d9190614001565b5060608201518160030155608082015181600401908161288d9190614001565b50505060c0820151816014015f820151815f0190816128ac9190614001565b5060208201518160010190816128c29190614001565b5060408201518160020190816128d89190614001565b50606082015181600301556080820151816004015f6101000a81548160ff021916908360ff160217905550505060e0820151816019015f820151815f0190816129219190614001565b5060208201518160010190816129379190614001565b50604082015181600201556060820151816003015f6101000a81548160ff021916908360ff16021790555050509050505050505050505050505050565b5f8081548092919061298590613e1d565b91905055505f60405180608001604052805f5481526020018981526020018860ff1681526020018781525090505f60405180608001604052808781526020018681526020018581526020018460ff1681525090505f6040518061010001604052805f548152602001600480811115612a00576129ff613037565b5b81526020018481526020016040518060a0016040528060405180602001604052805f815250815260200160405180602001604052805f815250815260200160405180602001604052805f81525081526020015f81526020015f60ff168152508152602001604051806080016040528060405180602001604052805f815250815260200160405180602001604052805f81525081526020015f81526020015f60ff1681525081526020016040518060a0016040528060405180602001604052805f815250815260200160405180602001604052805f815250815260200160405180602001604052805f81525081526020015f815260200160405180602001604052805f81525081525081526020016040518060a0016040528060405180602001604052805f815250815260200160405180602001604052805f815250815260200160405180602001604052805f81525081526020015f81526020015f60ff1681525081526020018381525090508060015f805481526020019081526020015f205f820151815f01556020820151816001015f6101000a81548160ff02191690836004811115612bb157612bb0613037565b5b02179055506040820151816002015f820151815f01556020820151816001019081612bdc9190614001565b506040820151816002015f6101000a81548160ff021916908360ff1602179055506060820151816003019081612c129190614001565b5050506060820151816006015f820151815f019081612c319190614001565b506020820151816001019081612c479190614001565b506040820151816002019081612c5d9190614001565b50606082015181600301556080820151816004015f6101000a81548160ff021916908360ff1602179055505050608082015181600b015f820151815f019081612ca69190614001565b506020820151816001019081612cbc9190614001565b50604082015181600201556060820151816003015f6101000a81548160ff021916908360ff160217905550505060a082015181600f015f820151815f019081612d059190614001565b506020820151816001019081612d1b9190614001565b506040820151816002019081612d319190614001565b50606082015181600301556080820151816004019081612d519190614001565b50505060c0820151816014015f820151815f019081612d709190614001565b506020820151816001019081612d869190614001565b506040820151816002019081612d9c9190614001565b50606082015181600301556080820151816004015f6101000a81548160ff021916908360ff160217905550505060e0820151816019015f820151815f019081612de59190614001565b506020820151816001019081612dfb9190614001565b50604082015181600201556060820151816003015f6101000a81548160ff021916908360ff160217905550505090505050505050505050505050565b6040518061010001604052805f81526020015f6004811115612e5c57612e5b613037565b5b8152602001612e69612eb0565b8152602001612e76612ed9565b8152602001612e83612f09565b8152602001612e90612f32565b8152602001612e9d612f60565b8152602001612eaa612f90565b81525090565b60405180608001604052805f8152602001606081526020015f60ff168152602001606081525090565b6040518060a001604052806060815260200160608152602001606081526020015f81526020015f60ff1681525090565b604051806080016040528060608152602001606081526020015f81526020015f60ff1681525090565b6040518060a001604052806060815260200160608152602001606081526020015f8152602001606081525090565b6040518060a001604052806060815260200160608152602001606081526020015f81526020015f60ff1681525090565b604051806080016040528060608152602001606081526020015f81526020015f60ff1681525090565b5f604051905090565b5f80fd5b5f80fd5b5f819050919050565b612fdc81612fca565b8114612fe6575f80fd5b50565b5f81359050612ff781612fd3565b92915050565b5f6020828403121561301257613011612fc2565b5b5f61301f84828501612fe9565b91505092915050565b61303181612fca565b82525050565b7f4e487b71000000000000000000000000000000000000000000000000000000005f52602160045260245ffd5b6005811061307557613074613037565b5b50565b5f81905061308582613064565b919050565b5f61309482613078565b9050919050565b6130a48161308a565b82525050565b6130b381612fca565b82525050565b5f81519050919050565b5f82825260208201905092915050565b5f5b838110156130f05780820151818401526020810190506130d5565b5f8484015250505050565b5f601f19601f8301169050919050565b5f613115826130b9565b61311f81856130c3565b935061312f8185602086016130d3565b613138816130fb565b840191505092915050565b5f60ff82169050919050565b61315881613143565b82525050565b5f608083015f8301516131735f8601826130aa565b506020830151848203602086015261318b828261310b565b91505060408301516131a0604086018261314f565b50606083015184820360608601526131b8828261310b565b9150508091505092915050565b5f60a083015f8301518482035f8601526131df828261310b565b915050602083015184820360208601526131f9828261310b565b91505060408301518482036040860152613213828261310b565b915050606083015161322860608601826130aa565b50608083015161323b608086018261314f565b508091505092915050565b5f608083015f8301518482035f860152613260828261310b565b9150506020830151848203602086015261327a828261310b565b915050604083015161328f60408601826130aa565b5060608301516132a2606086018261314f565b508091505092915050565b5f60a083015f8301518482035f8601526132c7828261310b565b915050602083015184820360208601526132e1828261310b565b915050604083015184820360408601526132fb828261310b565b915050606083015161331060608601826130aa565b5060808301518482036080860152613328828261310b565b9150508091505092915050565b5f60a083015f8301518482035f86015261334f828261310b565b91505060208301518482036020860152613369828261310b565b91505060408301518482036040860152613383828261310b565b915050606083015161339860608601826130aa565b5060808301516133ab608086018261314f565b508091505092915050565b5f608083015f8301518482035f8601526133d0828261310b565b915050602083015184820360208601526133ea828261310b565b91505060408301516133ff60408601826130aa565b506060830151613412606086018261314f565b508091505092915050565b5f610100820190506134315f83018b613028565b61343e602083018a61309b565b8181036040830152613450818961315e565b9050818103606083015261346481886131c5565b905081810360808301526134788187613246565b905081810360a083015261348c81866132ad565b905081810360c08301526134a08185613335565b905081810360e08301526134b481846133b6565b90509998505050505050505050565b6134cc8161308a565b82525050565b5f608083015f8301516134e75f8601826130aa565b50602083015184820360208601526134ff828261310b565b9150506040830151613514604086018261314f565b506060830151848203606086015261352c828261310b565b9150508091505092915050565b5f60a083015f8301518482035f860152613553828261310b565b9150506020830151848203602086015261356d828261310b565b91505060408301518482036040860152613587828261310b565b915050606083015161359c60608601826130aa565b5060808301516135af608086018261314f565b508091505092915050565b5f608083015f8301518482035f8601526135d4828261310b565b915050602083015184820360208601526135ee828261310b565b915050604083015161360360408601826130aa565b506060830151613616606086018261314f565b508091505092915050565b5f60a083015f8301518482035f86015261363b828261310b565b91505060208301518482036020860152613655828261310b565b9150506040830151848203604086015261366f828261310b565b915050606083015161368460608601826130aa565b506080830151848203608086015261369c828261310b565b9150508091505092915050565b5f60a083015f8301518482035f8601526136c3828261310b565b915050602083015184820360208601526136dd828261310b565b915050604083015184820360408601526136f7828261310b565b915050606083015161370c60608601826130aa565b50608083015161371f608086018261314f565b508091505092915050565b5f608083015f8301518482035f860152613744828261310b565b9150506020830151848203602086015261375e828261310b565b915050604083015161377360408601826130aa565b506060830151613786606086018261314f565b508091505092915050565b5f61010083015f8301516137a75f8601826130aa565b5060208301516137ba60208601826134c3565b50604083015184820360408601526137d282826134d2565b915050606083015184820360608601526137ec8282613539565b9150506080830151848203608086015261380682826135ba565b91505060a083015184820360a08601526138208282613621565b91505060c083015184820360c086015261383a82826136a9565b91505060e083015184820360e0860152613854828261372a565b9150508091505092915050565b5f6020820190508181035f8301526138798184613791565b905092915050565b5f80fd5b5f80fd5b7f4e487b71000000000000000000000000000000000000000000000000000000005f52604160045260245ffd5b6138bf826130fb565b810181811067ffffffffffffffff821117156138de576138dd613889565b5b80604052505050565b5f6138f0612fb9565b90506138fc82826138b6565b919050565b5f67ffffffffffffffff82111561391b5761391a613889565b5b613924826130fb565b9050602081019050919050565b828183375f83830152505050565b5f61395161394c84613901565b6138e7565b90508281526020810184848401111561396d5761396c613885565b5b613978848285613931565b509392505050565b5f82601f83011261399457613993613881565b5b81356139a484826020860161393f565b91505092915050565b6139b681613143565b81146139c0575f80fd5b50565b5f813590506139d1816139ad565b92915050565b5f805f805f805f80610100898b0312156139f4576139f3612fc2565b5b5f89013567ffffffffffffffff811115613a1157613a10612fc6565b5b613a1d8b828c01613980565b9850506020613a2e8b828c016139c3565b975050604089013567ffffffffffffffff811115613a4f57613a4e612fc6565b5b613a5b8b828c01613980565b965050606089013567ffffffffffffffff811115613a7c57613a7b612fc6565b5b613a888b828c01613980565b955050608089013567ffffffffffffffff811115613aa957613aa8612fc6565b5b613ab58b828c01613980565b94505060a089013567ffffffffffffffff811115613ad657613ad5612fc6565b5b613ae28b828c01613980565b93505060c0613af38b828c01612fe9565b92505060e0613b048b828c016139c3565b9150509295985092959890939650565b5f602082019050613b275f830184613028565b92915050565b5f805f805f805f60e0888a031215613b4857613b47612fc2565b5b5f88013567ffffffffffffffff811115613b6557613b64612fc6565b5b613b718a828b01613980565b9750506020613b828a828b016139c3565b965050604088013567ffffffffffffffff811115613ba357613ba2612fc6565b5b613baf8a828b01613980565b955050606088013567ffffffffffffffff811115613bd057613bcf612fc6565b5b613bdc8a828b01613980565b945050608088013567ffffffffffffffff811115613bfd57613bfc612fc6565b5b613c098a828b01613980565b93505060a0613c1a8a828b01612fe9565b92505060c0613c2b8a828b016139c3565b91505092959891949750929550565b5f805f805f805f80610100898b031215613c5757613c56612fc2565b5b5f89013567ffffffffffffffff811115613c7457613c73612fc6565b5b613c808b828c01613980565b9850506020613c918b828c016139c3565b975050604089013567ffffffffffffffff811115613cb257613cb1612fc6565b5b613cbe8b828c01613980565b965050606089013567ffffffffffffffff811115613cdf57613cde612fc6565b5b613ceb8b828c01613980565b955050608089013567ffffffffffffffff811115613d0c57613d0b612fc6565b5b613d188b828c01613980565b94505060a089013567ffffffffffffffff811115613d3957613d38612fc6565b5b613d458b828c01613980565b93505060c0613d568b828c01612fe9565b92505060e089013567ffffffffffffffff811115613d7757613d76612fc6565b5b613d838b828c01613980565b9150509295985092959890939650565b7f4e487b71000000000000000000000000000000000000000000000000000000005f52602260045260245ffd5b5f6002820490506001821680613dd757607f821691505b602082108103613dea57613de9613d93565b5b50919050565b7f4e487b71000000000000000000000000000000000000000000000000000000005f52601160045260245ffd5b5f613e2782612fca565b91507fffffffffffffffffffffffffffffffffffffffffffffffffffffffffffffffff8203613e5957613e58613df0565b5b600182019050919050565b5f819050815f5260205f209050919050565b5f6020601f8301049050919050565b5f82821b905092915050565b5f60088302613ec07fffffffffffffffffffffffffffffffffffffffffffffffffffffffffffffffff82613e85565b613eca8683613e85565b95508019841693508086168417925050509392505050565b5f819050919050565b5f613f05613f00613efb84612fca565b613ee2565b612fca565b9050919050565b5f819050919050565b613f1e83613eeb565b613f32613f2a82613f0c565b848454613e91565b825550505050565b5f90565b613f46613f3a565b613f51818484613f15565b505050565b5b81811015613f7457613f695f82613f3e565b600181019050613f57565b5050565b601f821115613fb957613f8a81613e64565b613f9384613e76565b81016020851015613fa2578190505b613fb6613fae85613e76565b830182613f56565b50505b505050565b5f82821c905092915050565b5f613fd95f1984600802613fbe565b1980831691505092915050565b5f613ff18383613fca565b9150826002028217905092915050565b61400a826130b9565b67ffffffffffffffff81111561402357614022613889565b5b61402d8254613dc0565b614038828285613f78565b5f60209050601f831160018114614069575f8415614057578287015190505b6140618582613fe6565b8655506140c8565b601f19841661407786613e64565b5f5b8281101561409e57848901518255600182019150602085019450602081019050614079565b868310156140bb57848901516140b7601f891682613fca565b8355505b6001600288020188555050505b50505050505056fea2646970667358221220a20f9956fef3b37d85ca015708bf5b030335bd71aa2a77244066559d7131db5b64736f6c63430008140033",
					"opcodes": "PUSH1 0x80 PUSH1 0x40 MSTORE CALLVALUE DUP1 ISZERO PUSH2 0xF JUMPI PUSH0 DUP1 REVERT JUMPDEST POP PUSH2 0x4106 DUP1 PUSH2 0x1D PUSH0 CODECOPY PUSH0 RETURN INVALID PUSH1 0x80 PUSH1 0x40 MSTORE CALLVALUE DUP1 ISZERO PUSH2 0xF JUMPI PUSH0 DUP1 REVERT JUMPDEST POP PUSH1 0x4 CALLDATASIZE LT PUSH2 0x86 JUMPI PUSH0 CALLDATALOAD PUSH1 0xE0 SHR DUP1 PUSH4 0x7D13D926 GT PUSH2 0x59 JUMPI DUP1 PUSH4 0x7D13D926 EQ PUSH2 0x12B JUMPI DUP1 PUSH4 0xA21E0A63 EQ PUSH2 0x147 JUMPI DUP1 PUSH4 0xE73F50AC EQ PUSH2 0x163 JUMPI DUP1 PUSH4 0xF99E7B70 EQ PUSH2 0x17F JUMPI PUSH2 0x86 JUMP JUMPDEST DUP1 PUSH4 0x1DAB301E EQ PUSH2 0x8A JUMPI DUP1 PUSH4 0x6A5C841A EQ PUSH2 0xC1 JUMPI DUP1 PUSH4 0x6F1DCFF2 EQ PUSH2 0xF1 JUMPI DUP1 PUSH4 0x7B9F8420 EQ PUSH2 0x10D JUMPI JUMPDEST PUSH0 DUP1 REVERT JUMPDEST PUSH2 0xA4 PUSH1 0x4 DUP1 CALLDATASIZE SUB DUP2 ADD SWAP1 PUSH2 0x9F SWAP2 SWAP1 PUSH2 0x2FFD JUMP JUMPDEST PUSH2 0x19B JUMP JUMPDEST PUSH1 0x40 MLOAD PUSH2 0xB8 SWAP9 SWAP8 SWAP7 SWAP6 SWAP5 SWAP4 SWAP3 SWAP2 SWAP1 PUSH2 0x341D JUMP JUMPDEST PUSH1 0x40 MLOAD DUP1 SWAP2 SUB SWAP1 RETURN JUMPDEST PUSH2 0xDB PUSH1 0x4 DUP1 CALLDATASIZE SUB DUP2 ADD SWAP1 PUSH2 0xD6 SWAP2 SWAP1 PUSH2 0x2FFD JUMP JUMPDEST PUSH2 0xBE9 JUMP JUMPDEST PUSH1 0x40 MLOAD PUSH2 0xE8 SWAP2 SWAP1 PUSH2 0x3861 JUMP JUMPDEST PUSH1 0x40 MLOAD DUP1 SWAP2 SUB SWAP1 RETURN JUMPDEST PUSH2 0x10B PUSH1 0x4 DUP1 CALLDATASIZE SUB DUP2 ADD SWAP1 PUSH2 0x106 SWAP2 SWAP1 PUSH2 0x39D7 JUMP JUMPDEST PUSH2 0x1692 JUMP JUMPDEST STOP JUMPDEST PUSH2 0x115 PUSH2 0x1B48 JUMP JUMPDEST PUSH1 0x40 MLOAD PUSH2 0x122 SWAP2 SWAP1 PUSH2 0x3B14 JUMP JUMPDEST PUSH1 0x40 MLOAD DUP1 SWAP2 SUB SWAP1 RETURN JUMPDEST PUSH2 0x145 PUSH1 0x4 DUP1 CALLDATASIZE SUB DUP2 ADD SWAP1 PUSH2 0x140 SWAP2 SWAP1 PUSH2 0x3B2D JUMP JUMPDEST PUSH2 0x1B50 JUMP JUMPDEST STOP JUMPDEST PUSH2 0x161 PUSH1 0x4 DUP1 CALLDATASIZE SUB DUP2 ADD SWAP1 PUSH2 0x15C SWAP2 SWAP1 PUSH2 0x39D7 JUMP JUMPDEST PUSH2 0x2014 JUMP JUMPDEST STOP JUMPDEST PUSH2 0x17D PUSH1 0x4 DUP1 CALLDATASIZE SUB DUP2 ADD SWAP1 PUSH2 0x178 SWAP2 SWAP1 PUSH2 0x3C3A JUMP JUMPDEST PUSH2 0x24CB JUMP JUMPDEST STOP JUMPDEST PUSH2 0x199 PUSH1 0x4 DUP1 CALLDATASIZE SUB DUP2 ADD SWAP1 PUSH2 0x194 SWAP2 SWAP1 PUSH2 0x3B2D JUMP JUMPDEST PUSH2 0x2974 JUMP JUMPDEST STOP JUMPDEST PUSH1 0x1 PUSH1 0x20 MSTORE DUP1 PUSH0 MSTORE PUSH1 0x40 PUSH0 KECCAK256 PUSH0 SWAP2 POP SWAP1 POP DUP1 PUSH0 ADD SLOAD SWAP1 DUP1 PUSH1 0x1 ADD PUSH0 SWAP1 SLOAD SWAP1 PUSH2 0x100 EXP SWAP1 DIV PUSH1 0xFF AND SWAP1 DUP1 PUSH1 0x2 ADD PUSH1 0x40 MLOAD DUP1 PUSH1 0x80 ADD PUSH1 0x40 MSTORE SWAP1 DUP2 PUSH0 DUP3 ADD SLOAD DUP2 MSTORE PUSH1 0x20 ADD PUSH1 0x1 DUP3 ADD DUP1 SLOAD PUSH2 0x1EB SWAP1 PUSH2 0x3DC0 JUMP JUMPDEST DUP1 PUSH1 0x1F ADD PUSH1 0x20 DUP1 SWAP2 DIV MUL PUSH1 0x20 ADD PUSH1 0x40 MLOAD SWAP1 DUP2 ADD PUSH1 0x40 MSTORE DUP1 SWAP3 SWAP2 SWAP1 DUP2 DUP2 MSTORE PUSH1 0x20 ADD DUP3 DUP1 SLOAD PUSH2 0x217 SWAP1 PUSH2 0x3DC0 JUMP JUMPDEST DUP1 ISZERO PUSH2 0x262 JUMPI DUP1 PUSH1 0x1F LT PUSH2 0x239 JUMPI PUSH2 0x100 DUP1 DUP4 SLOAD DIV MUL DUP4 MSTORE SWAP2 PUSH1 0x20 ADD SWAP2 PUSH2 0x262 JUMP JUMPDEST DUP3 ADD SWAP2 SWAP1 PUSH0 MSTORE PUSH1 0x20 PUSH0 KECCAK256 SWAP1 JUMPDEST DUP2 SLOAD DUP2 MSTORE SWAP1 PUSH1 0x1 ADD SWAP1 PUSH1 0x20 ADD DUP1 DUP4 GT PUSH2 0x245 JUMPI DUP3 SWAP1 SUB PUSH1 0x1F AND DUP3 ADD SWAP2 JUMPDEST POP POP POP POP POP DUP2 MSTORE PUSH1 0x20 ADD PUSH1 0x2 DUP3 ADD PUSH0 SWAP1 SLOAD SWAP1 PUSH2 0x100 EXP SWAP1 DIV PUSH1 0xFF AND PUSH1 0xFF AND PUSH1 0xFF AND DUP2 MSTORE PUSH1 0x20 ADD PUSH1 0x3 DUP3 ADD DUP1 SLOAD PUSH2 0x297 SWAP1 PUSH2 0x3DC0 JUMP JUMPDEST DUP1 PUSH1 0x1F ADD PUSH1 0x20 DUP1 SWAP2 DIV MUL PUSH1 0x20 ADD PUSH1 0x40 MLOAD SWAP1 DUP2 ADD PUSH1 0x40 MSTORE DUP1 SWAP3 SWAP2 SWAP1 DUP2 DUP2 MSTORE PUSH1 0x20 ADD DUP3 DUP1 SLOAD PUSH2 0x2C3 SWAP1 PUSH2 0x3DC0 JUMP JUMPDEST DUP1 ISZERO PUSH2 0x30E JUMPI DUP1 PUSH1 0x1F LT PUSH2 0x2E5 JUMPI PUSH2 0x100 DUP1 DUP4 SLOAD DIV MUL DUP4 MSTORE SWAP2 PUSH1 0x20 ADD SWAP2 PUSH2 0x30E JUMP JUMPDEST DUP3 ADD SWAP2 SWAP1 PUSH0 MSTORE PUSH1 0x20 PUSH0 KECCAK256 SWAP1 JUMPDEST DUP2 SLOAD DUP2 MSTORE SWAP1 PUSH1 0x1 ADD SWAP1 PUSH1 0x20 ADD DUP1 DUP4 GT PUSH2 0x2F1 JUMPI DUP3 SWAP1 SUB PUSH1 0x1F AND DUP3 ADD SWAP2 JUMPDEST POP POP POP POP POP DUP2 MSTORE POP POP SWAP1 DUP1 PUSH1 0x6 ADD PUSH1 0x40 MLOAD DUP1 PUSH1 0xA0 ADD PUSH1 0x40 MSTORE SWAP1 DUP2 PUSH0 DUP3 ADD DUP1 SLOAD PUSH2 0x336 SWAP1 PUSH2 0x3DC0 JUMP JUMPDEST DUP1 PUSH1 0x1F ADD PUSH1 0x20 DUP1 SWAP2 DIV MUL PUSH1 0x20 ADD PUSH1 0x40 MLOAD SWAP1 DUP2 ADD PUSH1 0x40 MSTORE DUP1 SWAP3 SWAP2 SWAP1 DUP2 DUP2 MSTORE PUSH1 0x20 ADD DUP3 DUP1 SLOAD PUSH2 0x362 SWAP1 PUSH2 0x3DC0 JUMP JUMPDEST DUP1 ISZERO PUSH2 0x3AD JUMPI DUP1 PUSH1 0x1F LT PUSH2 0x384 JUMPI PUSH2 0x100 DUP1 DUP4 SLOAD DIV MUL DUP4 MSTORE SWAP2 PUSH1 0x20 ADD SWAP2 PUSH2 0x3AD JUMP JUMPDEST DUP3 ADD SWAP2 SWAP1 PUSH0 MSTORE PUSH1 0x20 PUSH0 KECCAK256 SWAP1 JUMPDEST DUP2 SLOAD DUP2 MSTORE SWAP1 PUSH1 0x1 ADD SWAP1 PUSH1 0x20 ADD DUP1 DUP4 GT PUSH2 0x390 JUMPI DUP3 SWAP1 SUB PUSH1 0x1F AND DUP3 ADD SWAP2 JUMPDEST POP POP POP POP POP DUP2 MSTORE PUSH1 0x20 ADD PUSH1 0x1 DUP3 ADD DUP1 SLOAD PUSH2 0x3C6 SWAP1 PUSH2 0x3DC0 JUMP JUMPDEST DUP1 PUSH1 0x1F ADD PUSH1 0x20 DUP1 SWAP2 DIV MUL PUSH1 0x20 ADD PUSH1 0x40 MLOAD SWAP1 DUP2 ADD PUSH1 0x40 MSTORE DUP1 SWAP3 SWAP2 SWAP1 DUP2 DUP2 MSTORE PUSH1 0x20 ADD DUP3 DUP1 SLOAD PUSH2 0x3F2 SWAP1 PUSH2 0x3DC0 JUMP JUMPDEST DUP1 ISZERO PUSH2 0x43D JUMPI DUP1 PUSH1 0x1F LT PUSH2 0x414 JUMPI PUSH2 0x100 DUP1 DUP4 SLOAD DIV MUL DUP4 MSTORE SWAP2 PUSH1 0x20 ADD SWAP2 PUSH2 0x43D JUMP JUMPDEST DUP3 ADD SWAP2 SWAP1 PUSH0 MSTORE PUSH1 0x20 PUSH0 KECCAK256 SWAP1 JUMPDEST DUP2 SLOAD DUP2 MSTORE SWAP1 PUSH1 0x1 ADD SWAP1 PUSH1 0x20 ADD DUP1 DUP4 GT PUSH2 0x420 JUMPI DUP3 SWAP1 SUB PUSH1 0x1F AND DUP3 ADD SWAP2 JUMPDEST POP POP POP POP POP DUP2 MSTORE PUSH1 0x20 ADD PUSH1 0x2 DUP3 ADD DUP1 SLOAD PUSH2 0x456 SWAP1 PUSH2 0x3DC0 JUMP JUMPDEST DUP1 PUSH1 0x1F ADD PUSH1 0x20 DUP1 SWAP2 DIV MUL PUSH1 0x20 ADD PUSH1 0x40 MLOAD SWAP1 DUP2 ADD PUSH1 0x40 MSTORE DUP1 SWAP3 SWAP2 SWAP1 DUP2 DUP2 MSTORE PUSH1 0x20 ADD DUP3 DUP1 SLOAD PUSH2 0x482 SWAP1 PUSH2 0x3DC0 JUMP JUMPDEST DUP1 ISZERO PUSH2 0x4CD JUMPI DUP1 PUSH1 0x1F LT PUSH2 0x4A4 JUMPI PUSH2 0x100 DUP1 DUP4 SLOAD DIV MUL DUP4 MSTORE SWAP2 PUSH1 0x20 ADD SWAP2 PUSH2 0x4CD JUMP JUMPDEST DUP3 ADD SWAP2 SWAP1 PUSH0 MSTORE PUSH1 0x20 PUSH0 KECCAK256 SWAP1 JUMPDEST DUP2 SLOAD DUP2 MSTORE SWAP1 PUSH1 0x1 ADD SWAP1 PUSH1 0x20 ADD DUP1 DUP4 GT PUSH2 0x4B0 JUMPI DUP3 SWAP1 SUB PUSH1 0x1F AND DUP3 ADD SWAP2 JUMPDEST POP POP POP POP POP DUP2 MSTORE PUSH1 0x20 ADD PUSH1 0x3 DUP3 ADD SLOAD DUP2 MSTORE PUSH1 0x20 ADD PUSH1 0x4 DUP3 ADD PUSH0 SWAP1 SLOAD SWAP1 PUSH2 0x100 EXP SWAP1 DIV PUSH1 0xFF AND PUSH1 0xFF AND PUSH1 0xFF AND DUP2 MSTORE POP POP SWAP1 DUP1 PUSH1 0xB ADD PUSH1 0x40 MLOAD DUP1 PUSH1 0x80 ADD PUSH1 0x40 MSTORE SWAP1 DUP2 PUSH0 DUP3 ADD DUP1 SLOAD PUSH2 0x51B SWAP1 PUSH2 0x3DC0 JUMP JUMPDEST DUP1 PUSH1 0x1F ADD PUSH1 0x20 DUP1 SWAP2 DIV MUL PUSH1 0x20 ADD PUSH1 0x40 MLOAD SWAP1 DUP2 ADD PUSH1 0x40 MSTORE DUP1 SWAP3 SWAP2 SWAP1 DUP2 DUP2 MSTORE PUSH1 0x20 ADD DUP3 DUP1 SLOAD PUSH2 0x547 SWAP1 PUSH2 0x3DC0 JUMP JUMPDEST DUP1 ISZERO PUSH2 0x592 JUMPI DUP1 PUSH1 0x1F LT PUSH2 0x569 JUMPI PUSH2 0x100 DUP1 DUP4 SLOAD DIV MUL DUP4 MSTORE SWAP2 PUSH1 0x20 ADD SWAP2 PUSH2 0x592 JUMP JUMPDEST DUP3 ADD SWAP2 SWAP1 PUSH0 MSTORE PUSH1 0x20 PUSH0 KECCAK256 SWAP1 JUMPDEST DUP2 SLOAD DUP2 MSTORE SWAP1 PUSH1 0x1 ADD SWAP1 PUSH1 0x20 ADD DUP1 DUP4 GT PUSH2 0x575 JUMPI DUP3 SWAP1 SUB PUSH1 0x1F AND DUP3 ADD SWAP2 JUMPDEST POP POP POP POP POP DUP2 MSTORE PUSH1 0x20 ADD PUSH1 0x1 DUP3 ADD DUP1 SLOAD PUSH2 0x5AB SWAP1 PUSH2 0x3DC0 JUMP JUMPDEST DUP1 PUSH1 0x1F ADD PUSH1 0x20 DUP1 SWAP2 DIV MUL PUSH1 0x20 ADD PUSH1 0x40 MLOAD SWAP1 DUP2 ADD PUSH1 0x40 MSTORE DUP1 SWAP3 SWAP2 SWAP1 DUP2 DUP2 MSTORE PUSH1 0x20 ADD DUP3 DUP1 SLOAD PUSH2 0x5D7 SWAP1 PUSH2 0x3DC0 JUMP JUMPDEST DUP1 ISZERO PUSH2 0x622 JUMPI DUP1 PUSH1 0x1F LT PUSH2 0x5F9 JUMPI PUSH2 0x100 DUP1 DUP4 SLOAD DIV MUL DUP4 MSTORE SWAP2 PUSH1 0x20 ADD SWAP2 PUSH2 0x622 JUMP JUMPDEST DUP3 ADD SWAP2 SWAP1 PUSH0 MSTORE PUSH1 0x20 PUSH0 KECCAK256 SWAP1 JUMPDEST DUP2 SLOAD DUP2 MSTORE SWAP1 PUSH1 0x1 ADD SWAP1 PUSH1 0x20 ADD DUP1 DUP4 GT PUSH2 0x605 JUMPI DUP3 SWAP1 SUB PUSH1 0x1F AND DUP3 ADD SWAP2 JUMPDEST POP POP POP POP POP DUP2 MSTORE PUSH1 0x20 ADD PUSH1 0x2 DUP3 ADD SLOAD DUP2 MSTORE PUSH1 0x20 ADD PUSH1 0x3 DUP3 ADD PUSH0 SWAP1 SLOAD SWAP1 PUSH2 0x100 EXP SWAP1 DIV PUSH1 0xFF AND PUSH1 0xFF AND PUSH1 0xFF AND DUP2 MSTORE POP POP SWAP1 DUP1 PUSH1 0xF ADD PUSH1 0x40 MLOAD DUP1 PUSH1 0xA0 ADD PUSH1 0x40 MSTORE SWAP1 DUP2 PUSH0 DUP3 ADD DUP1 SLOAD PUSH2 0x670 SWAP1 PUSH2 0x3DC0 JUMP JUMPDEST DUP1 PUSH1 0x1F ADD PUSH1 0x20 DUP1 SWAP2 DIV MUL PUSH1 0x20 ADD PUSH1 0x40 MLOAD SWAP1 DUP2 ADD PUSH1 0x40 MSTORE DUP1 SWAP3 SWAP2 SWAP1 DUP2 DUP2 MSTORE PUSH1 0x20 ADD DUP3 DUP1 SLOAD PUSH2 0x69C SWAP1 PUSH2 0x3DC0 JUMP JUMPDEST DUP1 ISZERO PUSH2 0x6E7 JUMPI DUP1 PUSH1 0x1F LT PUSH2 0x6BE JUMPI PUSH2 0x100 DUP1 DUP4 SLOAD DIV MUL DUP4 MSTORE SWAP2 PUSH1 0x20 ADD SWAP2 PUSH2 0x6E7 JUMP JUMPDEST DUP3 ADD SWAP2 SWAP1 PUSH0 MSTORE PUSH1 0x20 PUSH0 KECCAK256 SWAP1 JUMPDEST DUP2 SLOAD DUP2 MSTORE SWAP1 PUSH1 0x1 ADD SWAP1 PUSH1 0x20 ADD DUP1 DUP4 GT PUSH2 0x6CA JUMPI DUP3 SWAP1 SUB PUSH1 0x1F AND DUP3 ADD SWAP2 JUMPDEST POP POP POP POP POP DUP2 MSTORE PUSH1 0x20 ADD PUSH1 0x1 DUP3 ADD DUP1 SLOAD PUSH2 0x700 SWAP1 PUSH2 0x3DC0 JUMP JUMPDEST DUP1 PUSH1 0x1F ADD PUSH1 0x20 DUP1 SWAP2 DIV MUL PUSH1 0x20 ADD PUSH1 0x40 MLOAD SWAP1 DUP2 ADD PUSH1 0x40 MSTORE DUP1 SWAP3 SWAP2 SWAP1 DUP2 DUP2 MSTORE PUSH1 0x20 ADD DUP3 DUP1 SLOAD PUSH2 0x72C SWAP1 PUSH2 0x3DC0 JUMP JUMPDEST DUP1 ISZERO PUSH2 0x777 JUMPI DUP1 PUSH1 0x1F LT PUSH2 0x74E JUMPI PUSH2 0x100 DUP1 DUP4 SLOAD DIV MUL DUP4 MSTORE SWAP2 PUSH1 0x20 ADD SWAP2 PUSH2 0x777 JUMP JUMPDEST DUP3 ADD SWAP2 SWAP1 PUSH0 MSTORE PUSH1 0x20 PUSH0 KECCAK256 SWAP1 JUMPDEST DUP2 SLOAD DUP2 MSTORE SWAP1 PUSH1 0x1 ADD SWAP1 PUSH1 0x20 ADD DUP1 DUP4 GT PUSH2 0x75A JUMPI DUP3 SWAP1 SUB PUSH1 0x1F AND DUP3 ADD SWAP2 JUMPDEST POP POP POP POP POP DUP2 MSTORE PUSH1 0x20 ADD PUSH1 0x2 DUP3 ADD DUP1 SLOAD PUSH2 0x790 SWAP1 PUSH2 0x3DC0 JUMP JUMPDEST DUP1 PUSH1 0x1F ADD PUSH1 0x20 DUP1 SWAP2 DIV MUL PUSH1 0x20 ADD PUSH1 0x40 MLOAD SWAP1 DUP2 ADD PUSH1 0x40 MSTORE DUP1 SWAP3 SWAP2 SWAP1 DUP2 DUP2 MSTORE PUSH1 0x20 ADD DUP3 DUP1 SLOAD PUSH2 0x7BC SWAP1 PUSH2 0x3DC0 JUMP JUMPDEST DUP1 ISZERO PUSH2 0x807 JUMPI DUP1 PUSH1 0x1F LT PUSH2 0x7DE JUMPI PUSH2 0x100 DUP1 DUP4 SLOAD DIV MUL DUP4 MSTORE SWAP2 PUSH1 0x20 ADD SWAP2 PUSH2 0x807 JUMP JUMPDEST DUP3 ADD SWAP2 SWAP1 PUSH0 MSTORE PUSH1 0x20 PUSH0 KECCAK256 SWAP1 JUMPDEST DUP2 SLOAD DUP2 MSTORE SWAP1 PUSH1 0x1 ADD SWAP1 PUSH1 0x20 ADD DUP1 DUP4 GT PUSH2 0x7EA JUMPI DUP3 SWAP1 SUB PUSH1 0x1F AND DUP3 ADD SWAP2 JUMPDEST POP POP POP POP POP DUP2 MSTORE PUSH1 0x20 ADD PUSH1 0x3 DUP3 ADD SLOAD DUP2 MSTORE PUSH1 0x20 ADD PUSH1 0x4 DUP3 ADD DUP1 SLOAD PUSH2 0x82A SWAP1 PUSH2 0x3DC0 JUMP JUMPDEST DUP1 PUSH1 0x1F ADD PUSH1 0x20 DUP1 SWAP2 DIV MUL PUSH1 0x20 ADD PUSH1 0x40 MLOAD SWAP1 DUP2 ADD PUSH1 0x40 MSTORE DUP1 SWAP3 SWAP2 SWAP1 DUP2 DUP2 MSTORE PUSH1 0x20 ADD DUP3 DUP1 SLOAD PUSH2 0x856 SWAP1 PUSH2 0x3DC0 JUMP JUMPDEST DUP1 ISZERO PUSH2 0x8A1 JUMPI DUP1 PUSH1 0x1F LT PUSH2 0x878 JUMPI PUSH2 0x100 DUP1 DUP4 SLOAD DIV MUL DUP4 MSTORE SWAP2 PUSH1 0x20 ADD SWAP2 PUSH2 0x8A1 JUMP JUMPDEST DUP3 ADD SWAP2 SWAP1 PUSH0 MSTORE PUSH1 0x20 PUSH0 KECCAK256 SWAP1 JUMPDEST DUP2 SLOAD DUP2 MSTORE SWAP1 PUSH1 0x1 ADD SWAP1 PUSH1 0x20 ADD DUP1 DUP4 GT PUSH2 0x884 JUMPI DUP3 SWAP1 SUB PUSH1 0x1F AND DUP3 ADD SWAP2 JUMPDEST POP POP POP POP POP DUP2 MSTORE POP POP SWAP1 DUP1 PUSH1 0x14 ADD PUSH1 0x40 MLOAD DUP1 PUSH1 0xA0 ADD PUSH1 0x40 MSTORE SWAP1 DUP2 PUSH0 DUP3 ADD DUP1 SLOAD PUSH2 0x8C9 SWAP1 PUSH2 0x3DC0 JUMP JUMPDEST DUP1 PUSH1 0x1F ADD PUSH1 0x20 DUP1 SWAP2 DIV MUL PUSH1 0x20 ADD PUSH1 0x40 MLOAD SWAP1 DUP2 ADD PUSH1 0x40 MSTORE DUP1 SWAP3 SWAP2 SWAP1 DUP2 DUP2 MSTORE PUSH1 0x20 ADD DUP3 DUP1 SLOAD PUSH2 0x8F5 SWAP1 PUSH2 0x3DC0 JUMP JUMPDEST DUP1 ISZERO PUSH2 0x940 JUMPI DUP1 PUSH1 0x1F LT PUSH2 0x917 JUMPI PUSH2 0x100 DUP1 DUP4 SLOAD DIV MUL DUP4 MSTORE SWAP2 PUSH1 0x20 ADD SWAP2 PUSH2 0x940 JUMP JUMPDEST DUP3 ADD SWAP2 SWAP1 PUSH0 MSTORE PUSH1 0x20 PUSH0 KECCAK256 SWAP1 JUMPDEST DUP2 SLOAD DUP2 MSTORE SWAP1 PUSH1 0x1 ADD SWAP1 PUSH1 0x20 ADD DUP1 DUP4 GT PUSH2 0x923 JUMPI DUP3 SWAP1 SUB PUSH1 0x1F AND DUP3 ADD SWAP2 JUMPDEST POP POP POP POP POP DUP2 MSTORE PUSH1 0x20 ADD PUSH1 0x1 DUP3 ADD DUP1 SLOAD PUSH2 0x959 SWAP1 PUSH2 0x3DC0 JUMP JUMPDEST DUP1 PUSH1 0x1F ADD PUSH1 0x20 DUP1 SWAP2 DIV MUL PUSH1 0x20 ADD PUSH1 0x40 MLOAD SWAP1 DUP2 ADD PUSH1 0x40 MSTORE DUP1 SWAP3 SWAP2 SWAP1 DUP2 DUP2 MSTORE PUSH1 0x20 ADD DUP3 DUP1 SLOAD PUSH2 0x985 SWAP1 PUSH2 0x3DC0 JUMP JUMPDEST DUP1 ISZERO PUSH2 0x9D0 JUMPI DUP1 PUSH1 0x1F LT PUSH2 0x9A7 JUMPI PUSH2 0x100 DUP1 DUP4 SLOAD DIV MUL DUP4 MSTORE SWAP2 PUSH1 0x20 ADD SWAP2 PUSH2 0x9D0 JUMP JUMPDEST DUP3 ADD SWAP2 SWAP1 PUSH0 MSTORE PUSH1 0x20 PUSH0 KECCAK256 SWAP1 JUMPDEST DUP2 SLOAD DUP2 MSTORE SWAP1 PUSH1 0x1 ADD SWAP1 PUSH1 0x20 ADD DUP1 DUP4 GT PUSH2 0x9B3 JUMPI DUP3 SWAP1 SUB PUSH1 0x1F AND DUP3 ADD SWAP2 JUMPDEST POP POP POP POP POP DUP2 MSTORE PUSH1 0x20 ADD PUSH1 0x2 DUP3 ADD DUP1 SLOAD PUSH2 0x9E9 SWAP1 PUSH2 0x3DC0 JUMP JUMPDEST DUP1 PUSH1 0x1F ADD PUSH1 0x20 DUP1 SWAP2 DIV MUL PUSH1 0x20 ADD PUSH1 0x40 MLOAD SWAP1 DUP2 ADD PUSH1 0x40 MSTORE DUP1 SWAP3 SWAP2 SWAP1 DUP2 DUP2 MSTORE PUSH1 0x20 ADD DUP3 DUP1 SLOAD PUSH2 0xA15 SWAP1 PUSH2 0x3DC0 JUMP JUMPDEST DUP1 ISZERO PUSH2 0xA60 JUMPI DUP1 PUSH1 0x1F LT PUSH2 0xA37 JUMPI PUSH2 0x100 DUP1 DUP4 SLOAD DIV MUL DUP4 MSTORE SWAP2 PUSH1 0x20 ADD SWAP2 PUSH2 0xA60 JUMP JUMPDEST DUP3 ADD SWAP2 SWAP1 PUSH0 MSTORE PUSH1 0x20 PUSH0 KECCAK256 SWAP1 JUMPDEST DUP2 SLOAD DUP2 MSTORE SWAP1 PUSH1 0x1 ADD SWAP1 PUSH1 0x20 ADD DUP1 DUP4 GT PUSH2 0xA43 JUMPI DUP3 SWAP1 SUB PUSH1 0x1F AND DUP3 ADD SWAP2 JUMPDEST POP POP POP POP POP DUP2 MSTORE PUSH1 0x20 ADD PUSH1 0x3 DUP3 ADD SLOAD DUP2 MSTORE PUSH1 0x20 ADD PUSH1 0x4 DUP3 ADD PUSH0 SWAP1 SLOAD SWAP1 PUSH2 0x100 EXP SWAP1 DIV PUSH1 0xFF AND PUSH1 0xFF AND PUSH1 0xFF AND DUP2 MSTORE POP POP SWAP1 DUP1 PUSH1 0x19 ADD PUSH1 0x40 MLOAD DUP1 PUSH1 0x80 ADD PUSH1 0x40 MSTORE SWAP1 DUP2 PUSH0 DUP3 ADD DUP1 SLOAD PUSH2 0xAAE SWAP1 PUSH2 0x3DC0 JUMP JUMPDEST DUP1 PUSH1 0x1F ADD PUSH1 0x20 DUP1 SWAP2 DIV MUL PUSH1 0x20 ADD PUSH1 0x40 MLOAD SWAP1 DUP2 ADD PUSH1 0x40 MSTORE DUP1 SWAP3 SWAP2 SWAP1 DUP2 DUP2 MSTORE PUSH1 0x20 ADD DUP3 DUP1 SLOAD PUSH2 0xADA SWAP1 PUSH2 0x3DC0 JUMP JUMPDEST DUP1 ISZERO PUSH2 0xB25 JUMPI DUP1 PUSH1 0x1F LT PUSH2 0xAFC JUMPI PUSH2 0x100 DUP1 DUP4 SLOAD DIV MUL DUP4 MSTORE SWAP2 PUSH1 0x20 ADD SWAP2 PUSH2 0xB25 JUMP JUMPDEST DUP3 ADD SWAP2 SWAP1 PUSH0 MSTORE PUSH1 0x20 PUSH0 KECCAK256 SWAP1 JUMPDEST DUP2 SLOAD DUP2 MSTORE SWAP1 PUSH1 0x1 ADD SWAP1 PUSH1 0x20 ADD DUP1 DUP4 GT PUSH2 0xB08 JUMPI DUP3 SWAP1 SUB PUSH1 0x1F AND DUP3 ADD SWAP2 JUMPDEST POP POP POP POP POP DUP2 MSTORE PUSH1 0x20 ADD PUSH1 0x1 DUP3 ADD DUP1 SLOAD PUSH2 0xB3E SWAP1 PUSH2 0x3DC0 JUMP JUMPDEST DUP1 PUSH1 0x1F ADD PUSH1 0x20 DUP1 SWAP2 DIV MUL PUSH1 0x20 ADD PUSH1 0x40 MLOAD SWAP1 DUP2 ADD PUSH1 0x40 MSTORE DUP1 SWAP3 SWAP2 SWAP1 DUP2 DUP2 MSTORE PUSH1 0x20 ADD DUP3 DUP1 SLOAD PUSH2 0xB6A SWAP1 PUSH2 0x3DC0 JUMP JUMPDEST DUP1 ISZERO PUSH2 0xBB5 JUMPI DUP1 PUSH1 0x1F LT PUSH2 0xB8C JUMPI PUSH2 0x100 DUP1 DUP4 SLOAD DIV MUL DUP4 MSTORE SWAP2 PUSH1 0x20 ADD SWAP2 PUSH2 0xBB5 JUMP JUMPDEST DUP3 ADD SWAP2 SWAP1 PUSH0 MSTORE PUSH1 0x20 PUSH0 KECCAK256 SWAP1 JUMPDEST DUP2 SLOAD DUP2 MSTORE SWAP1 PUSH1 0x1 ADD SWAP1 PUSH1 0x20 ADD DUP1 DUP4 GT PUSH2 0xB98 JUMPI DUP3 SWAP1 SUB PUSH1 0x1F AND DUP3 ADD SWAP2 JUMPDEST POP POP POP POP POP DUP2 MSTORE PUSH1 0x20 ADD PUSH1 0x2 DUP3 ADD SLOAD DUP2 MSTORE PUSH1 0x20 ADD PUSH1 0x3 DUP3 ADD PUSH0 SWAP1 SLOAD SWAP1 PUSH2 0x100 EXP SWAP1 DIV PUSH1 0xFF AND PUSH1 0xFF AND PUSH1 0xFF AND DUP2 MSTORE POP POP SWAP1 POP DUP9 JUMP JUMPDEST PUSH2 0xBF1 PUSH2 0x2E37 JUMP JUMPDEST PUSH1 0x1 PUSH0 DUP4 DUP2 MSTORE PUSH1 0x20 ADD SWAP1 DUP2 MSTORE PUSH1 0x20 ADD PUSH0 KECCAK256 PUSH1 0x40 MLOAD DUP1 PUSH2 0x100 ADD PUSH1 0x40 MSTORE SWAP1 DUP2 PUSH0 DUP3 ADD SLOAD DUP2 MSTORE PUSH1 0x20 ADD PUSH1 0x1 DUP3 ADD PUSH0 SWAP1 SLOAD SWAP1 PUSH2 0x100 EXP SWAP1 DIV PUSH1 0xFF AND PUSH1 0x4 DUP2 GT ISZERO PUSH2 0xC3B JUMPI PUSH2 0xC3A PUSH2 0x3037 JUMP JUMPDEST JUMPDEST PUSH1 0x4 DUP2 GT ISZERO PUSH2 0xC4D JUMPI PUSH2 0xC4C PUSH2 0x3037 JUMP JUMPDEST JUMPDEST DUP2 MSTORE PUSH1 0x20 ADD PUSH1 0x2 DUP3 ADD PUSH1 0x40 MLOAD DUP1 PUSH1 0x80 ADD PUSH1 0x40 MSTORE SWAP1 DUP2 PUSH0 DUP3 ADD SLOAD DUP2 MSTORE PUSH1 0x20 ADD PUSH1 0x1 DUP3 ADD DUP1 SLOAD PUSH2 0xC7A SWAP1 PUSH2 0x3DC0 JUMP JUMPDEST DUP1 PUSH1 0x1F ADD PUSH1 0x20 DUP1 SWAP2 DIV MUL PUSH1 0x20 ADD PUSH1 0x40 MLOAD SWAP1 DUP2 ADD PUSH1 0x40 MSTORE DUP1 SWAP3 SWAP2 SWAP1 DUP2 DUP2 MSTORE PUSH1 0x20 ADD DUP3 DUP1 SLOAD PUSH2 0xCA6 SWAP1 PUSH2 0x3DC0 JUMP JUMPDEST DUP1 ISZERO PUSH2 0xCF1 JUMPI DUP1 PUSH1 0x1F LT PUSH2 0xCC8 JUMPI PUSH2 0x100 DUP1 DUP4 SLOAD DIV MUL DUP4 MSTORE SWAP2 PUSH1 0x20 ADD SWAP2 PUSH2 0xCF1 JUMP JUMPDEST DUP3 ADD SWAP2 SWAP1 PUSH0 MSTORE PUSH1 0x20 PUSH0 KECCAK256 SWAP1 JUMPDEST DUP2 SLOAD DUP2 MSTORE SWAP1 PUSH1 0x1 ADD SWAP1 PUSH1 0x20 ADD DUP1 DUP4 GT PUSH2 0xCD4 JUMPI DUP3 SWAP1 SUB PUSH1 0x1F AND DUP3 ADD SWAP2 JUMPDEST POP POP POP POP POP DUP2 MSTORE PUSH1 0x20 ADD PUSH1 0x2 DUP3 ADD PUSH0 SWAP1 SLOAD SWAP1 PUSH2 0x100 EXP SWAP1 DIV PUSH1 0xFF AND PUSH1 0xFF AND PUSH1 0xFF AND DUP2 MSTORE PUSH1 0x20 ADD PUSH1 0x3 DUP3 ADD DUP1 SLOAD PUSH2 0xD26 SWAP1 PUSH2 0x3DC0 JUMP JUMPDEST DUP1 PUSH1 0x1F ADD PUSH1 0x20 DUP1 SWAP2 DIV MUL PUSH1 0x20 ADD PUSH1 0x40 MLOAD SWAP1 DUP2 ADD PUSH1 0x40 MSTORE DUP1 SWAP3 SWAP2 SWAP1 DUP2 DUP2 MSTORE PUSH1 0x20 ADD DUP3 DUP1 SLOAD PUSH2 0xD52 SWAP1 PUSH2 0x3DC0 JUMP JUMPDEST DUP1 ISZERO PUSH2 0xD9D JUMPI DUP1 PUSH1 0x1F LT PUSH2 0xD74 JUMPI PUSH2 0x100 DUP1 DUP4 SLOAD DIV MUL DUP4 MSTORE SWAP2 PUSH1 0x20 ADD SWAP2 PUSH2 0xD9D JUMP JUMPDEST DUP3 ADD SWAP2 SWAP1 PUSH0 MSTORE PUSH1 0x20 PUSH0 KECCAK256 SWAP1 JUMPDEST DUP2 SLOAD DUP2 MSTORE SWAP1 PUSH1 0x1 ADD SWAP1 PUSH1 0x20 ADD DUP1 DUP4 GT PUSH2 0xD80 JUMPI DUP3 SWAP1 SUB PUSH1 0x1F AND DUP3 ADD SWAP2 JUMPDEST POP POP POP POP POP DUP2 MSTORE POP POP DUP2 MSTORE PUSH1 0x20 ADD PUSH1 0x6 DUP3 ADD PUSH1 0x40 MLOAD DUP1 PUSH1 0xA0 ADD PUSH1 0x40 MSTORE SWAP1 DUP2 PUSH0 DUP3 ADD DUP1 SLOAD PUSH2 0xDC9 SWAP1 PUSH2 0x3DC0 JUMP JUMPDEST DUP1 PUSH1 0x1F ADD PUSH1 0x20 DUP1 SWAP2 DIV MUL PUSH1 0x20 ADD PUSH1 0x40 MLOAD SWAP1 DUP2 ADD PUSH1 0x40 MSTORE DUP1 SWAP3 SWAP2 SWAP1 DUP2 DUP2 MSTORE PUSH1 0x20 ADD DUP3 DUP1 SLOAD PUSH2 0xDF5 SWAP1 PUSH2 0x3DC0 JUMP JUMPDEST DUP1 ISZERO PUSH2 0xE40 JUMPI DUP1 PUSH1 0x1F LT PUSH2 0xE17 JUMPI PUSH2 0x100 DUP1 DUP4 SLOAD DIV MUL DUP4 MSTORE SWAP2 PUSH1 0x20 ADD SWAP2 PUSH2 0xE40 JUMP JUMPDEST DUP3 ADD SWAP2 SWAP1 PUSH0 MSTORE PUSH1 0x20 PUSH0 KECCAK256 SWAP1 JUMPDEST DUP2 SLOAD DUP2 MSTORE SWAP1 PUSH1 0x1 ADD SWAP1 PUSH1 0x20 ADD DUP1 DUP4 GT PUSH2 0xE23 JUMPI DUP3 SWAP1 SUB PUSH1 0x1F AND DUP3 ADD SWAP2 JUMPDEST POP POP POP POP POP DUP2 MSTORE PUSH1 0x20 ADD PUSH1 0x1 DUP3 ADD DUP1 SLOAD PUSH2 0xE59 SWAP1 PUSH2 0x3DC0 JUMP JUMPDEST DUP1 PUSH1 0x1F ADD PUSH1 0x20 DUP1 SWAP2 DIV MUL PUSH1 0x20 ADD PUSH1 0x40 MLOAD SWAP1 DUP2 ADD PUSH1 0x40 MSTORE DUP1 SWAP3 SWAP2 SWAP1 DUP2 DUP2 MSTORE PUSH1 0x20 ADD DUP3 DUP1 SLOAD PUSH2 0xE85 SWAP1 PUSH2 0x3DC0 JUMP JUMPDEST DUP1 ISZERO PUSH2 0xED0 JUMPI DUP1 PUSH1 0x1F LT PUSH2 0xEA7 JUMPI PUSH2 0x100 DUP1 DUP4 SLOAD DIV MUL DUP4 MSTORE SWAP2 PUSH1 0x20 ADD SWAP2 PUSH2 0xED0 JUMP JUMPDEST DUP3 ADD SWAP2 SWAP1 PUSH0 MSTORE PUSH1 0x20 PUSH0 KECCAK256 SWAP1 JUMPDEST DUP2 SLOAD DUP2 MSTORE SWAP1 PUSH1 0x1 ADD SWAP1 PUSH1 0x20 ADD DUP1 DUP4 GT PUSH2 0xEB3 JUMPI DUP3 SWAP1 SUB PUSH1 0x1F AND DUP3 ADD SWAP2 JUMPDEST POP POP POP POP POP DUP2 MSTORE PUSH1 0x20 ADD PUSH1 0x2 DUP3 ADD DUP1 SLOAD PUSH2 0xEE9 SWAP1 PUSH2 0x3DC0 JUMP JUMPDEST DUP1 PUSH1 0x1F ADD PUSH1 0x20 DUP1 SWAP2 DIV MUL PUSH1 0x20 ADD PUSH1 0x40 MLOAD SWAP1 DUP2 ADD PUSH1 0x40 MSTORE DUP1 SWAP3 SWAP2 SWAP1 DUP2 DUP2 MSTORE PUSH1 0x20 ADD DUP3 DUP1 SLOAD PUSH2 0xF15 SWAP1 PUSH2 0x3DC0 JUMP JUMPDEST DUP1 ISZERO PUSH2 0xF60 JUMPI DUP1 PUSH1 0x1F LT PUSH2 0xF37 JUMPI PUSH2 0x100 DUP1 DUP4 SLOAD DIV MUL DUP4 MSTORE SWAP2 PUSH1 0x20 ADD SWAP2 PUSH2 0xF60 JUMP JUMPDEST DUP3 ADD SWAP2 SWAP1 PUSH0 MSTORE PUSH1 0x20 PUSH0 KECCAK256 SWAP1 JUMPDEST DUP2 SLOAD DUP2 MSTORE SWAP1 PUSH1 0x1 ADD SWAP1 PUSH1 0x20 ADD DUP1 DUP4 GT PUSH2 0xF43 JUMPI DUP3 SWAP1 SUB PUSH1 0x1F AND DUP3 ADD SWAP2 JUMPDEST POP POP POP POP POP DUP2 MSTORE PUSH1 0x20 ADD PUSH1 0x3 DUP3 ADD SLOAD DUP2 MSTORE PUSH1 0x20 ADD PUSH1 0x4 DUP3 ADD PUSH0 SWAP1 SLOAD SWAP1 PUSH2 0x100 EXP SWAP1 DIV PUSH1 0xFF AND PUSH1 0xFF AND PUSH1 0xFF AND DUP2 MSTORE POP POP DUP2 MSTORE PUSH1 0x20 ADD PUSH1 0xB DUP3 ADD PUSH1 0x40 MLOAD DUP1 PUSH1 0x80 ADD PUSH1 0x40 MSTORE SWAP1 DUP2 PUSH0 DUP3 ADD DUP1 SLOAD PUSH2 0xFB2 SWAP1 PUSH2 0x3DC0 JUMP JUMPDEST DUP1 PUSH1 0x1F ADD PUSH1 0x20 DUP1 SWAP2 DIV MUL PUSH1 0x20 ADD PUSH1 0x40 MLOAD SWAP1 DUP2 ADD PUSH1 0x40 MSTORE DUP1 SWAP3 SWAP2 SWAP1 DUP2 DUP2 MSTORE PUSH1 0x20 ADD DUP3 DUP1 SLOAD PUSH2 0xFDE SWAP1 PUSH2 0x3DC0 JUMP JUMPDEST DUP1 ISZERO PUSH2 0x1029 JUMPI DUP1 PUSH1 0x1F LT PUSH2 0x1000 JUMPI PUSH2 0x100 DUP1 DUP4 SLOAD DIV MUL DUP4 MSTORE SWAP2 PUSH1 0x20 ADD SWAP2 PUSH2 0x1029 JUMP JUMPDEST DUP3 ADD SWAP2 SWAP1 PUSH0 MSTORE PUSH1 0x20 PUSH0 KECCAK256 SWAP1 JUMPDEST DUP2 SLOAD DUP2 MSTORE SWAP1 PUSH1 0x1 ADD SWAP1 PUSH1 0x20 ADD DUP1 DUP4 GT PUSH2 0x100C JUMPI DUP3 SWAP1 SUB PUSH1 0x1F AND DUP3 ADD SWAP2 JUMPDEST POP POP POP POP POP DUP2 MSTORE PUSH1 0x20 ADD PUSH1 0x1 DUP3 ADD DUP1 SLOAD PUSH2 0x1042 SWAP1 PUSH2 0x3DC0 JUMP JUMPDEST DUP1 PUSH1 0x1F ADD PUSH1 0x20 DUP1 SWAP2 DIV MUL PUSH1 0x20 ADD PUSH1 0x40 MLOAD SWAP1 DUP2 ADD PUSH1 0x40 MSTORE DUP1 SWAP3 SWAP2 SWAP1 DUP2 DUP2 MSTORE PUSH1 0x20 ADD DUP3 DUP1 SLOAD PUSH2 0x106E SWAP1 PUSH2 0x3DC0 JUMP JUMPDEST DUP1 ISZERO PUSH2 0x10B9 JUMPI DUP1 PUSH1 0x1F LT PUSH2 0x1090 JUMPI PUSH2 0x100 DUP1 DUP4 SLOAD DIV MUL DUP4 MSTORE SWAP2 PUSH1 0x20 ADD SWAP2 PUSH2 0x10B9 JUMP JUMPDEST DUP3 ADD SWAP2 SWAP1 PUSH0 MSTORE PUSH1 0x20 PUSH0 KECCAK256 SWAP1 JUMPDEST DUP2 SLOAD DUP2 MSTORE SWAP1 PUSH1 0x1 ADD SWAP1 PUSH1 0x20 ADD DUP1 DUP4 GT PUSH2 0x109C JUMPI DUP3 SWAP1 SUB PUSH1 0x1F AND DUP3 ADD SWAP2 JUMPDEST POP POP POP POP POP DUP2 MSTORE PUSH1 0x20 ADD PUSH1 0x2 DUP3 ADD SLOAD DUP2 MSTORE PUSH1 0x20 ADD PUSH1 0x3 DUP3 ADD PUSH0 SWAP1 SLOAD SWAP1 PUSH2 0x100 EXP SWAP1 DIV PUSH1 0xFF AND PUSH1 0xFF AND PUSH1 0xFF AND DUP2 MSTORE POP POP DUP2 MSTORE PUSH1 0x20 ADD PUSH1 0xF DUP3 ADD PUSH1 0x40 MLOAD DUP1 PUSH1 0xA0 ADD PUSH1 0x40 MSTORE SWAP1 DUP2 PUSH0 DUP3 ADD DUP1 SLOAD PUSH2 0x110B SWAP1 PUSH2 0x3DC0 JUMP JUMPDEST DUP1 PUSH1 0x1F ADD PUSH1 0x20 DUP1 SWAP2 DIV MUL PUSH1 0x20 ADD PUSH1 0x40 MLOAD SWAP1 DUP2 ADD PUSH1 0x40 MSTORE DUP1 SWAP3 SWAP2 SWAP1 DUP2 DUP2 MSTORE PUSH1 0x20 ADD DUP3 DUP1 SLOAD PUSH2 0x1137 SWAP1 PUSH2 0x3DC0 JUMP JUMPDEST DUP1 ISZERO PUSH2 0x1182 JUMPI DUP1 PUSH1 0x1F LT PUSH2 0x1159 JUMPI PUSH2 0x100 DUP1 DUP4 SLOAD DIV MUL DUP4 MSTORE SWAP2 PUSH1 0x20 ADD SWAP2 PUSH2 0x1182 JUMP JUMPDEST DUP3 ADD SWAP2 SWAP1 PUSH0 MSTORE PUSH1 0x20 PUSH0 KECCAK256 SWAP1 JUMPDEST DUP2 SLOAD DUP2 MSTORE SWAP1 PUSH1 0x1 ADD SWAP1 PUSH1 0x20 ADD DUP1 DUP4 GT PUSH2 0x1165 JUMPI DUP3 SWAP1 SUB PUSH1 0x1F AND DUP3 ADD SWAP2 JUMPDEST POP POP POP POP POP DUP2 MSTORE PUSH1 0x20 ADD PUSH1 0x1 DUP3 ADD DUP1 SLOAD PUSH2 0x119B SWAP1 PUSH2 0x3DC0 JUMP JUMPDEST DUP1 PUSH1 0x1F ADD PUSH1 0x20 DUP1 SWAP2 DIV MUL PUSH1 0x20 ADD PUSH1 0x40 MLOAD SWAP1 DUP2 ADD PUSH1 0x40 MSTORE DUP1 SWAP3 SWAP2 SWAP1 DUP2 DUP2 MSTORE PUSH1 0x20 ADD DUP3 DUP1 SLOAD PUSH2 0x11C7 SWAP1 PUSH2 0x3DC0 JUMP JUMPDEST DUP1 ISZERO PUSH2 0x1212 JUMPI DUP1 PUSH1 0x1F LT PUSH2 0x11E9 JUMPI PUSH2 0x100 DUP1 DUP4 SLOAD DIV MUL DUP4 MSTORE SWAP2 PUSH1 0x20 ADD SWAP2 PUSH2 0x1212 JUMP JUMPDEST DUP3 ADD SWAP2 SWAP1 PUSH0 MSTORE PUSH1 0x20 PUSH0 KECCAK256 SWAP1 JUMPDEST DUP2 SLOAD DUP2 MSTORE SWAP1 PUSH1 0x1 ADD SWAP1 PUSH1 0x20 ADD DUP1 DUP4 GT PUSH2 0x11F5 JUMPI DUP3 SWAP1 SUB PUSH1 0x1F AND DUP3 ADD SWAP2 JUMPDEST POP POP POP POP POP DUP2 MSTORE PUSH1 0x20 ADD PUSH1 0x2 DUP3 ADD DUP1 SLOAD PUSH2 0x122B SWAP1 PUSH2 0x3DC0 JUMP JUMPDEST DUP1 PUSH1 0x1F ADD PUSH1 0x20 DUP1 SWAP2 DIV MUL PUSH1 0x20 ADD PUSH1 0x40 MLOAD SWAP1 DUP2 ADD PUSH1 0x40 MSTORE DUP1 SWAP3 SWAP2 SWAP1 DUP2 DUP2 MSTORE PUSH1 0x20 ADD DUP3 DUP1 SLOAD PUSH2 0x1257 SWAP1 PUSH2 0x3DC0 JUMP JUMPDEST DUP1 ISZERO PUSH2 0x12A2 JUMPI DUP1 PUSH1 0x1F LT PUSH2 0x1279 JUMPI PUSH2 0x100 DUP1 DUP4 SLOAD DIV MUL DUP4 MSTORE SWAP2 PUSH1 0x20 ADD SWAP2 PUSH2 0x12A2 JUMP JUMPDEST DUP3 ADD SWAP2 SWAP1 PUSH0 MSTORE PUSH1 0x20 PUSH0 KECCAK256 SWAP1 JUMPDEST DUP2 SLOAD DUP2 MSTORE SWAP1 PUSH1 0x1 ADD SWAP1 PUSH1 0x20 ADD DUP1 DUP4 GT PUSH2 0x1285 JUMPI DUP3 SWAP1 SUB PUSH1 0x1F AND DUP3 ADD SWAP2 JUMPDEST POP POP POP POP POP DUP2 MSTORE PUSH1 0x20 ADD PUSH1 0x3 DUP3 ADD SLOAD DUP2 MSTORE PUSH1 0x20 ADD PUSH1 0x4 DUP3 ADD DUP1 SLOAD PUSH2 0x12C5 SWAP1 PUSH2 0x3DC0 JUMP JUMPDEST DUP1 PUSH1 0x1F ADD PUSH1 0x20 DUP1 SWAP2 DIV MUL PUSH1 0x20 ADD PUSH1 0x40 MLOAD SWAP1 DUP2 ADD PUSH1 0x40 MSTORE DUP1 SWAP3 SWAP2 SWAP1 DUP2 DUP2 MSTORE PUSH1 0x20 ADD DUP3 DUP1 SLOAD PUSH2 0x12F1 SWAP1 PUSH2 0x3DC0 JUMP JUMPDEST DUP1 ISZERO PUSH2 0x133C JUMPI DUP1 PUSH1 0x1F LT PUSH2 0x1313 JUMPI PUSH2 0x100 DUP1 DUP4 SLOAD DIV MUL DUP4 MSTORE SWAP2 PUSH1 0x20 ADD SWAP2 PUSH2 0x133C JUMP JUMPDEST DUP3 ADD SWAP2 SWAP1 PUSH0 MSTORE PUSH1 0x20 PUSH0 KECCAK256 SWAP1 JUMPDEST DUP2 SLOAD DUP2 MSTORE SWAP1 PUSH1 0x1 ADD SWAP1 PUSH1 0x20 ADD DUP1 DUP4 GT PUSH2 0x131F JUMPI DUP3 SWAP1 SUB PUSH1 0x1F AND DUP3 ADD SWAP2 JUMPDEST POP POP POP POP POP DUP2 MSTORE POP POP DUP2 MSTORE PUSH1 0x20 ADD PUSH1 0x14 DUP3 ADD PUSH1 0x40 MLOAD DUP1 PUSH1 0xA0 ADD PUSH1 0x40 MSTORE SWAP1 DUP2 PUSH0 DUP3 ADD DUP1 SLOAD PUSH2 0x1368 SWAP1 PUSH2 0x3DC0 JUMP JUMPDEST DUP1 PUSH1 0x1F ADD PUSH1 0x20 DUP1 SWAP2 DIV MUL PUSH1 0x20 ADD PUSH1 0x40 MLOAD SWAP1 DUP2 ADD PUSH1 0x40 MSTORE DUP1 SWAP3 SWAP2 SWAP1 DUP2 DUP2 MSTORE PUSH1 0x20 ADD DUP3 DUP1 SLOAD PUSH2 0x1394 SWAP1 PUSH2 0x3DC0 JUMP JUMPDEST DUP1 ISZERO PUSH2 0x13DF JUMPI DUP1 PUSH1 0x1F LT PUSH2 0x13B6 JUMPI PUSH2 0x100 DUP1 DUP4 SLOAD DIV MUL DUP4 MSTORE SWAP2 PUSH1 0x20 ADD SWAP2 PUSH2 0x13DF JUMP JUMPDEST DUP3 ADD SWAP2 SWAP1 PUSH0 MSTORE PUSH1 0x20 PUSH0 KECCAK256 SWAP1 JUMPDEST DUP2 SLOAD DUP2 MSTORE SWAP1 PUSH1 0x1 ADD SWAP1 PUSH1 0x20 ADD DUP1 DUP4 GT PUSH2 0x13C2 JUMPI DUP3 SWAP1 SUB PUSH1 0x1F AND DUP3 ADD SWAP2 JUMPDEST POP POP POP POP POP DUP2 MSTORE PUSH1 0x20 ADD PUSH1 0x1 DUP3 ADD DUP1 SLOAD PUSH2 0x13F8 SWAP1 PUSH2 0x3DC0 JUMP JUMPDEST DUP1 PUSH1 0x1F ADD PUSH1 0x20 DUP1 SWAP2 DIV MUL PUSH1 0x20 ADD PUSH1 0x40 MLOAD SWAP1 DUP2 ADD PUSH1 0x40 MSTORE DUP1 SWAP3 SWAP2 SWAP1 DUP2 DUP2 MSTORE PUSH1 0x20 ADD DUP3 DUP1 SLOAD PUSH2 0x1424 SWAP1 PUSH2 0x3DC0 JUMP JUMPDEST DUP1 ISZERO PUSH2 0x146F JUMPI DUP1 PUSH1 0x1F LT PUSH2 0x1446 JUMPI PUSH2 0x100 DUP1 DUP4 SLOAD DIV MUL DUP4 MSTORE SWAP2 PUSH1 0x20 ADD SWAP2 PUSH2 0x146F JUMP JUMPDEST DUP3 ADD SWAP2 SWAP1 PUSH0 MSTORE PUSH1 0x20 PUSH0 KECCAK256 SWAP1 JUMPDEST DUP2 SLOAD DUP2 MSTORE SWAP1 PUSH1 0x1 ADD SWAP1 PUSH1 0x20 ADD DUP1 DUP4 GT PUSH2 0x1452 JUMPI DUP3 SWAP1 SUB PUSH1 0x1F AND DUP3 ADD SWAP2 JUMPDEST POP POP POP POP POP DUP2 MSTORE PUSH1 0x20 ADD PUSH1 0x2 DUP3 ADD DUP1 SLOAD PUSH2 0x1488 SWAP1 PUSH2 0x3DC0 JUMP JUMPDEST DUP1 PUSH1 0x1F ADD PUSH1 0x20 DUP1 SWAP2 DIV MUL PUSH1 0x20 ADD PUSH1 0x40 MLOAD SWAP1 DUP2 ADD PUSH1 0x40 MSTORE DUP1 SWAP3 SWAP2 SWAP1 DUP2 DUP2 MSTORE PUSH1 0x20 ADD DUP3 DUP1 SLOAD PUSH2 0x14B4 SWAP1 PUSH2 0x3DC0 JUMP JUMPDEST DUP1 ISZERO PUSH2 0x14FF JUMPI DUP1 PUSH1 0x1F LT PUSH2 0x14D6 JUMPI PUSH2 0x100 DUP1 DUP4 SLOAD DIV MUL DUP4 MSTORE SWAP2 PUSH1 0x20 ADD SWAP2 PUSH2 0x14FF JUMP JUMPDEST DUP3 ADD SWAP2 SWAP1 PUSH0 MSTORE PUSH1 0x20 PUSH0 KECCAK256 SWAP1 JUMPDEST DUP2 SLOAD DUP2 MSTORE SWAP1 PUSH1 0x1 ADD SWAP1 PUSH1 0x20 ADD DUP1 DUP4 GT PUSH2 0x14E2 JUMPI DUP3 SWAP1 SUB PUSH1 0x1F AND DUP3 ADD SWAP2 JUMPDEST POP POP POP POP POP DUP2 MSTORE PUSH1 0x20 ADD PUSH1 0x3 DUP3 ADD SLOAD DUP2 MSTORE PUSH1 0x20 ADD PUSH1 0x4 DUP3 ADD PUSH0 SWAP1 SLOAD SWAP1 PUSH2 0x100 EXP SWAP1 DIV PUSH1 0xFF AND PUSH1 0xFF AND PUSH1 0xFF AND DUP2 MSTORE POP POP DUP2 MSTORE PUSH1 0x20 ADD PUSH1 0x19 DUP3 ADD PUSH1 0x40 MLOAD DUP1 PUSH1 0x80 ADD PUSH1 0x40 MSTORE SWAP1 DUP2 PUSH0 DUP3 ADD DUP1 SLOAD PUSH2 0x1551 SWAP1 PUSH2 0x3DC0 JUMP JUMPDEST DUP1 PUSH1 0x1F ADD PUSH1 0x20 DUP1 SWAP2 DIV MUL PUSH1 0x20 ADD PUSH1 0x40 MLOAD SWAP1 DUP2 ADD PUSH1 0x40 MSTORE DUP1 SWAP3 SWAP2 SWAP1 DUP2 DUP2 MSTORE PUSH1 0x20 ADD DUP3 DUP1 SLOAD PUSH2 0x157D SWAP1 PUSH2 0x3DC0 JUMP JUMPDEST DUP1 ISZERO PUSH2 0x15C8 JUMPI DUP1 PUSH1 0x1F LT PUSH2 0x159F JUMPI PUSH2 0x100 DUP1 DUP4 SLOAD DIV MUL DUP4 MSTORE SWAP2 PUSH1 0x20 ADD SWAP2 PUSH2 0x15C8 JUMP JUMPDEST DUP3 ADD SWAP2 SWAP1 PUSH0 MSTORE PUSH1 0x20 PUSH0 KECCAK256 SWAP1 JUMPDEST DUP2 SLOAD DUP2 MSTORE SWAP1 PUSH1 0x1 ADD SWAP1 PUSH1 0x20 ADD DUP1 DUP4 GT PUSH2 0x15AB JUMPI DUP3 SWAP1 SUB PUSH1 0x1F AND DUP3 ADD SWAP2 JUMPDEST POP POP POP POP POP DUP2 MSTORE PUSH1 0x20 ADD PUSH1 0x1 DUP3 ADD DUP1 SLOAD PUSH2 0x15E1 SWAP1 PUSH2 0x3DC0 JUMP JUMPDEST DUP1 PUSH1 0x1F ADD PUSH1 0x20 DUP1 SWAP2 DIV MUL PUSH1 0x20 ADD PUSH1 0x40 MLOAD SWAP1 DUP2 ADD PUSH1 0x40 MSTORE DUP1 SWAP3 SWAP2 SWAP1 DUP2 DUP2 MSTORE PUSH1 0x20 ADD DUP3 DUP1 SLOAD PUSH2 0x160D SWAP1 PUSH2 0x3DC0 JUMP JUMPDEST DUP1 ISZERO PUSH2 0x1658 JUMPI DUP1 PUSH1 0x1F LT PUSH2 0x162F JUMPI PUSH2 0x100 DUP1 DUP4 SLOAD DIV MUL DUP4 MSTORE SWAP2 PUSH1 0x20 ADD SWAP2 PUSH2 0x1658 JUMP JUMPDEST DUP3 ADD SWAP2 SWAP1 PUSH0 MSTORE PUSH1 0x20 PUSH0 KECCAK256 SWAP1 JUMPDEST DUP2 SLOAD DUP2 MSTORE SWAP1 PUSH1 0x1 ADD SWAP1 PUSH1 0x20 ADD DUP1 DUP4 GT PUSH2 0x163B JUMPI DUP3 SWAP1 SUB PUSH1 0x1F AND DUP3 ADD SWAP2 JUMPDEST POP POP POP POP POP DUP2 MSTORE PUSH1 0x20 ADD PUSH1 0x2 DUP3 ADD SLOAD DUP2 MSTORE PUSH1 0x20 ADD PUSH1 0x3 DUP3 ADD PUSH0 SWAP1 SLOAD SWAP1 PUSH2 0x100 EXP SWAP1 DIV PUSH1 0xFF AND PUSH1 0xFF AND PUSH1 0xFF AND DUP2 MSTORE POP POP DUP2 MSTORE POP POP SWAP1 POP SWAP2 SWAP1 POP JUMP JUMPDEST PUSH0 DUP1 DUP2 SLOAD DUP1 SWAP3 SWAP2 SWAP1 PUSH2 0x16A3 SWAP1 PUSH2 0x3E1D JUMP JUMPDEST SWAP2 SWAP1 POP SSTORE POP PUSH0 PUSH1 0x40 MLOAD DUP1 PUSH1 0x80 ADD PUSH1 0x40 MSTORE DUP1 PUSH0 SLOAD DUP2 MSTORE PUSH1 0x20 ADD DUP11 DUP2 MSTORE PUSH1 0x20 ADD DUP10 PUSH1 0xFF AND DUP2 MSTORE PUSH1 0x20 ADD DUP9 DUP2 MSTORE POP SWAP1 POP PUSH0 PUSH1 0x40 MLOAD DUP1 PUSH1 0xA0 ADD PUSH1 0x40 MSTORE DUP1 DUP9 DUP2 MSTORE PUSH1 0x20 ADD DUP8 DUP2 MSTORE PUSH1 0x20 ADD DUP7 DUP2 MSTORE PUSH1 0x20 ADD DUP6 DUP2 MSTORE PUSH1 0x20 ADD DUP5 PUSH1 0xFF AND DUP2 MSTORE POP SWAP1 POP PUSH0 PUSH1 0x40 MLOAD DUP1 PUSH2 0x100 ADD PUSH1 0x40 MSTORE DUP1 PUSH0 SLOAD DUP2 MSTORE PUSH1 0x20 ADD PUSH0 PUSH1 0x4 DUP2 GT ISZERO PUSH2 0x1724 JUMPI PUSH2 0x1723 PUSH2 0x3037 JUMP JUMPDEST JUMPDEST DUP2 MSTORE PUSH1 0x20 ADD DUP5 DUP2 MSTORE PUSH1 0x20 ADD DUP4 DUP2 MSTORE PUSH1 0x20 ADD PUSH1 0x40 MLOAD DUP1 PUSH1 0x80 ADD PUSH1 0x40 MSTORE DUP1 PUSH1 0x40 MLOAD DUP1 PUSH1 0x20 ADD PUSH1 0x40 MSTORE DUP1 PUSH0 DUP2 MSTORE POP DUP2 MSTORE PUSH1 0x20 ADD PUSH1 0x40 MLOAD DUP1 PUSH1 0x20 ADD PUSH1 0x40 MSTORE DUP1 PUSH0 DUP2 MSTORE POP DUP2 MSTORE PUSH1 0x20 ADD PUSH0 DUP2 MSTORE PUSH1 0x20 ADD PUSH0 PUSH1 0xFF AND DUP2 MSTORE POP DUP2 MSTORE PUSH1 0x20 ADD PUSH1 0x40 MLOAD DUP1 PUSH1 0xA0 ADD PUSH1 0x40 MSTORE DUP1 PUSH1 0x40 MLOAD DUP1 PUSH1 0x20 ADD PUSH1 0x40 MSTORE DUP1 PUSH0 DUP2 MSTORE POP DUP2 MSTORE PUSH1 0x20 ADD PUSH1 0x40 MLOAD DUP1 PUSH1 0x20 ADD PUSH1 0x40 MSTORE DUP1 PUSH0 DUP2 MSTORE POP DUP2 MSTORE PUSH1 0x20 ADD PUSH1 0x40 MLOAD DUP1 PUSH1 0x20 ADD PUSH1 0x40 MSTORE DUP1 PUSH0 DUP2 MSTORE POP DUP2 MSTORE PUSH1 0x20 ADD PUSH0 DUP2 MSTORE PUSH1 0x20 ADD PUSH1 0x40 MLOAD DUP1 PUSH1 0x20 ADD PUSH1 0x40 MSTORE DUP1 PUSH0 DUP2 MSTORE POP DUP2 MSTORE POP DUP2 MSTORE PUSH1 0x20 ADD PUSH1 0x40 MLOAD DUP1 PUSH1 0xA0 ADD PUSH1 0x40 MSTORE DUP1 PUSH1 0x40 MLOAD DUP1 PUSH1 0x20 ADD PUSH1 0x40 MSTORE DUP1 PUSH0 DUP2 MSTORE POP DUP2 MSTORE PUSH1 0x20 ADD PUSH1 0x40 MLOAD DUP1 PUSH1 0x20 ADD PUSH1 0x40 MSTORE DUP1 PUSH0 DUP2 MSTORE POP DUP2 MSTORE PUSH1 0x20 ADD PUSH1 0x40 MLOAD DUP1 PUSH1 0x20 ADD PUSH1 0x40 MSTORE DUP1 PUSH0 DUP2 MSTORE POP DUP2 MSTORE PUSH1 0x20 ADD PUSH0 DUP2 MSTORE PUSH1 0x20 ADD PUSH0 PUSH1 0xFF AND DUP2 MSTORE POP DUP2 MSTORE PUSH1 0x20 ADD PUSH1 0x40 MLOAD DUP1 PUSH1 0x80 ADD PUSH1 0x40 MSTORE DUP1 PUSH1 0x40 MLOAD DUP1 PUSH1 0x20 ADD PUSH1 0x40 MSTORE DUP1 PUSH0 DUP2 MSTORE POP DUP2 MSTORE PUSH1 0x20 ADD PUSH1 0x40 MLOAD DUP1 PUSH1 0x20 ADD PUSH1 0x40 MSTORE DUP1 PUSH0 DUP2 MSTORE POP DUP2 MSTORE PUSH1 0x20 ADD PUSH0 DUP2 MSTORE PUSH1 0x20 ADD PUSH0 PUSH1 0xFF AND DUP2 MSTORE POP DUP2 MSTORE POP SWAP1 POP DUP1 PUSH1 0x1 PUSH0 DUP1 SLOAD DUP2 MSTORE PUSH1 0x20 ADD SWAP1 DUP2 MSTORE PUSH1 0x20 ADD PUSH0 KECCAK256 PUSH0 DUP3 ADD MLOAD DUP2 PUSH0 ADD SSTORE PUSH1 0x20 DUP3 ADD MLOAD DUP2 PUSH1 0x1 ADD PUSH0 PUSH2 0x100 EXP DUP2 SLOAD DUP2 PUSH1 0xFF MUL NOT AND SWAP1 DUP4 PUSH1 0x4 DUP2 GT ISZERO PUSH2 0x18C1 JUMPI PUSH2 0x18C0 PUSH2 0x3037 JUMP JUMPDEST JUMPDEST MUL OR SWAP1 SSTORE POP PUSH1 0x40 DUP3 ADD MLOAD DUP2 PUSH1 0x2 ADD PUSH0 DUP3 ADD MLOAD DUP2 PUSH0 ADD SSTORE PUSH1 0x20 DUP3 ADD MLOAD DUP2 PUSH1 0x1 ADD SWAP1 DUP2 PUSH2 0x18EC SWAP2 SWAP1 PUSH2 0x4001 JUMP JUMPDEST POP PUSH1 0x40 DUP3 ADD MLOAD DUP2 PUSH1 0x2 ADD PUSH0 PUSH2 0x100 EXP DUP2 SLOAD DUP2 PUSH1 0xFF MUL NOT AND SWAP1 DUP4 PUSH1 0xFF AND MUL OR SWAP1 SSTORE POP PUSH1 0x60 DUP3 ADD MLOAD DUP2 PUSH1 0x3 ADD SWAP1 DUP2 PUSH2 0x1922 SWAP2 SWAP1 PUSH2 0x4001 JUMP JUMPDEST POP POP POP PUSH1 0x60 DUP3 ADD MLOAD DUP2 PUSH1 0x6 ADD PUSH0 DUP3 ADD MLOAD DUP2 PUSH0 ADD SWAP1 DUP2 PUSH2 0x1941 SWAP2 SWAP1 PUSH2 0x4001 JUMP JUMPDEST POP PUSH1 0x20 DUP3 ADD MLOAD DUP2 PUSH1 0x1 ADD SWAP1 DUP2 PUSH2 0x1957 SWAP2 SWAP1 PUSH2 0x4001 JUMP JUMPDEST POP PUSH1 0x40 DUP3 ADD MLOAD DUP2 PUSH1 0x2 ADD SWAP1 DUP2 PUSH2 0x196D SWAP2 SWAP1 PUSH2 0x4001 JUMP JUMPDEST POP PUSH1 0x60 DUP3 ADD MLOAD DUP2 PUSH1 0x3 ADD SSTORE PUSH1 0x80 DUP3 ADD MLOAD DUP2 PUSH1 0x4 ADD PUSH0 PUSH2 0x100 EXP DUP2 SLOAD DUP2 PUSH1 0xFF MUL NOT AND SWAP1 DUP4 PUSH1 0xFF AND MUL OR SWAP1 SSTORE POP POP POP PUSH1 0x80 DUP3 ADD MLOAD DUP2 PUSH1 0xB ADD PUSH0 DUP3 ADD MLOAD DUP2 PUSH0 ADD SWAP1 DUP2 PUSH2 0x19B6 SWAP2 SWAP1 PUSH2 0x4001 JUMP JUMPDEST POP PUSH1 0x20 DUP3 ADD MLOAD DUP2 PUSH1 0x1 ADD SWAP1 DUP2 PUSH2 0x19CC SWAP2 SWAP1 PUSH2 0x4001 JUMP JUMPDEST POP PUSH1 0x40 DUP3 ADD MLOAD DUP2 PUSH1 0x2 ADD SSTORE PUSH1 0x60 DUP3 ADD MLOAD DUP2 PUSH1 0x3 ADD PUSH0 PUSH2 0x100 EXP DUP2 SLOAD DUP2 PUSH1 0xFF MUL NOT AND SWAP1 DUP4 PUSH1 0xFF AND MUL OR SWAP1 SSTORE POP POP POP PUSH1 0xA0 DUP3 ADD MLOAD DUP2 PUSH1 0xF ADD PUSH0 DUP3 ADD MLOAD DUP2 PUSH0 ADD SWAP1 DUP2 PUSH2 0x1A15 SWAP2 SWAP1 PUSH2 0x4001 JUMP JUMPDEST POP PUSH1 0x20 DUP3 ADD MLOAD DUP2 PUSH1 0x1 ADD SWAP1 DUP2 PUSH2 0x1A2B SWAP2 SWAP1 PUSH2 0x4001 JUMP JUMPDEST POP PUSH1 0x40 DUP3 ADD MLOAD DUP2 PUSH1 0x2 ADD SWAP1 DUP2 PUSH2 0x1A41 SWAP2 SWAP1 PUSH2 0x4001 JUMP JUMPDEST POP PUSH1 0x60 DUP3 ADD MLOAD DUP2 PUSH1 0x3 ADD SSTORE PUSH1 0x80 DUP3 ADD MLOAD DUP2 PUSH1 0x4 ADD SWAP1 DUP2 PUSH2 0x1A61 SWAP2 SWAP1 PUSH2 0x4001 JUMP JUMPDEST POP POP POP PUSH1 0xC0 DUP3 ADD MLOAD DUP2 PUSH1 0x14 ADD PUSH0 DUP3 ADD MLOAD DUP2 PUSH0 ADD SWAP1 DUP2 PUSH2 0x1A80 SWAP2 SWAP1 PUSH2 0x4001 JUMP JUMPDEST POP PUSH1 0x20 DUP3 ADD MLOAD DUP2 PUSH1 0x1 ADD SWAP1 DUP2 PUSH2 0x1A96 SWAP2 SWAP1 PUSH2 0x4001 JUMP JUMPDEST POP PUSH1 0x40 DUP3 ADD MLOAD DUP2 PUSH1 0x2 ADD SWAP1 DUP2 PUSH2 0x1AAC SWAP2 SWAP1 PUSH2 0x4001 JUMP JUMPDEST POP PUSH1 0x60 DUP3 ADD MLOAD DUP2 PUSH1 0x3 ADD SSTORE PUSH1 0x80 DUP3 ADD MLOAD DUP2 PUSH1 0x4 ADD PUSH0 PUSH2 0x100 EXP DUP2 SLOAD DUP2 PUSH1 0xFF MUL NOT AND SWAP1 DUP4 PUSH1 0xFF AND MUL OR SWAP1 SSTORE POP POP POP PUSH1 0xE0 DUP3 ADD MLOAD DUP2 PUSH1 0x19 ADD PUSH0 DUP3 ADD MLOAD DUP2 PUSH0 ADD SWAP1 DUP2 PUSH2 0x1AF5 SWAP2 SWAP1 PUSH2 0x4001 JUMP JUMPDEST POP PUSH1 0x20 DUP3 ADD MLOAD DUP2 PUSH1 0x1 ADD SWAP1 DUP2 PUSH2 0x1B0B SWAP2 SWAP1 PUSH2 0x4001 JUMP JUMPDEST POP PUSH1 0x40 DUP3 ADD MLOAD DUP2 PUSH1 0x2 ADD SSTORE PUSH1 0x60 DUP3 ADD MLOAD DUP2 PUSH1 0x3 ADD PUSH0 PUSH2 0x100 EXP DUP2 SLOAD DUP2 PUSH1 0xFF MUL NOT AND SWAP1 DUP4 PUSH1 0xFF AND MUL OR SWAP1 SSTORE POP POP POP SWAP1 POP POP POP POP POP POP POP POP POP POP POP POP POP JUMP JUMPDEST PUSH0 DUP1 SLOAD SWAP1 POP SWAP1 JUMP JUMPDEST PUSH0 DUP1 DUP2 SLOAD DUP1 SWAP3 SWAP2 SWAP1 PUSH2 0x1B61 SWAP1 PUSH2 0x3E1D JUMP JUMPDEST SWAP2 SWAP1 POP SSTORE POP PUSH0 PUSH1 0x40 MLOAD DUP1 PUSH1 0x80 ADD PUSH1 0x40 MSTORE DUP1 PUSH0 SLOAD DUP2 MSTORE PUSH1 0x20 ADD DUP10 DUP2 MSTORE PUSH1 0x20 ADD DUP9 PUSH1 0xFF AND DUP2 MSTORE PUSH1 0x20 ADD DUP8 DUP2 MSTORE POP SWAP1 POP PUSH0 PUSH1 0x40 MLOAD DUP1 PUSH1 0x80 ADD PUSH1 0x40 MSTORE DUP1 DUP8 DUP2 MSTORE PUSH1 0x20 ADD DUP7 DUP2 MSTORE PUSH1 0x20 ADD DUP6 DUP2 MSTORE PUSH1 0x20 ADD DUP5 PUSH1 0xFF AND DUP2 MSTORE POP SWAP1 POP PUSH0 PUSH1 0x40 MLOAD DUP1 PUSH2 0x100 ADD PUSH1 0x40 MSTORE DUP1 PUSH0 SLOAD DUP2 MSTORE PUSH1 0x20 ADD PUSH1 0x1 PUSH1 0x4 DUP2 GT ISZERO PUSH2 0x1BDD JUMPI PUSH2 0x1BDC PUSH2 0x3037 JUMP JUMPDEST JUMPDEST DUP2 MSTORE PUSH1 0x20 ADD DUP5 DUP2 MSTORE PUSH1 0x20 ADD PUSH1 0x40 MLOAD DUP1 PUSH1 0xA0 ADD PUSH1 0x40 MSTORE DUP1 PUSH1 0x40 MLOAD DUP1 PUSH1 0x20 ADD PUSH1 0x40 MSTORE DUP1 PUSH0 DUP2 MSTORE POP DUP2 MSTORE PUSH1 0x20 ADD PUSH1 0x40 MLOAD DUP1 PUSH1 0x20 ADD PUSH1 0x40 MSTORE DUP1 PUSH0 DUP2 MSTORE POP DUP2 MSTORE PUSH1 0x20 ADD PUSH1 0x40 MLOAD DUP1 PUSH1 0x20 ADD PUSH1 0x40 MSTORE DUP1 PUSH0 DUP2 MSTORE POP DUP2 MSTORE PUSH1 0x20 ADD PUSH0 DUP2 MSTORE PUSH1 0x20 ADD PUSH0 PUSH1 0xFF AND DUP2 MSTORE POP DUP2 MSTORE PUSH1 0x20 ADD DUP4 DUP2 MSTORE PUSH1 0x20 ADD PUSH1 0x40 MLOAD DUP1 PUSH1 0xA0 ADD PUSH1 0x40 MSTORE DUP1 PUSH1 0x40 MLOAD DUP1 PUSH1 0x20 ADD PUSH1 0x40 MSTORE DUP1 PUSH0 DUP2 MSTORE POP DUP2 MSTORE PUSH1 0x20 ADD PUSH1 0x40 MLOAD DUP1 PUSH1 0x20 ADD PUSH1 0x40 MSTORE DUP1 PUSH0 DUP2 MSTORE POP DUP2 MSTORE PUSH1 0x20 ADD PUSH1 0x40 MLOAD DUP1 PUSH1 0x20 ADD PUSH1 0x40 MSTORE DUP1 PUSH0 DUP2 MSTORE POP DUP2 MSTORE PUSH1 0x20 ADD PUSH0 DUP2 MSTORE PUSH1 0x20 ADD PUSH1 0x40 MLOAD DUP1 PUSH1 0x20 ADD PUSH1 0x40 MSTORE DUP1 PUSH0 DUP2 MSTORE POP DUP2 MSTORE POP DUP2 MSTORE PUSH1 0x20 ADD PUSH1 0x40 MLOAD DUP1 PUSH1 0xA0 ADD PUSH1 0x40 MSTORE DUP1 PUSH1 0x40 MLOAD DUP1 PUSH1 0x20 ADD PUSH1 0x40 MSTORE DUP1 PUSH0 DUP2 MSTORE POP DUP2 MSTORE PUSH1 0x20 ADD PUSH1 0x40 MLOAD DUP1 PUSH1 0x20 ADD PUSH1 0x40 MSTORE DUP1 PUSH0 DUP2 MSTORE POP DUP2 MSTORE PUSH1 0x20 ADD PUSH1 0x40 MLOAD DUP1 PUSH1 0x20 ADD PUSH1 0x40 MSTORE DUP1 PUSH0 DUP2 MSTORE POP DUP2 MSTORE PUSH1 0x20 ADD PUSH0 DUP2 MSTORE PUSH1 0x20 ADD PUSH0 PUSH1 0xFF AND DUP2 MSTORE POP DUP2 MSTORE PUSH1 0x20 ADD PUSH1 0x40 MLOAD DUP1 PUSH1 0x80 ADD PUSH1 0x40 MSTORE DUP1 PUSH1 0x40 MLOAD DUP1 PUSH1 0x20 ADD PUSH1 0x40 MSTORE DUP1 PUSH0 DUP2 MSTORE POP DUP2 MSTORE PUSH1 0x20 ADD PUSH1 0x40 MLOAD DUP1 PUSH1 0x20 ADD PUSH1 0x40 MSTORE DUP1 PUSH0 DUP2 MSTORE POP DUP2 MSTORE PUSH1 0x20 ADD PUSH0 DUP2 MSTORE PUSH1 0x20 ADD PUSH0 PUSH1 0xFF AND DUP2 MSTORE POP DUP2 MSTORE POP SWAP1 POP DUP1 PUSH1 0x1 PUSH0 DUP1 SLOAD DUP2 MSTORE PUSH1 0x20 ADD SWAP1 DUP2 MSTORE PUSH1 0x20 ADD PUSH0 KECCAK256 PUSH0 DUP3 ADD MLOAD DUP2 PUSH0 ADD SSTORE PUSH1 0x20 DUP3 ADD MLOAD DUP2 PUSH1 0x1 ADD PUSH0 PUSH2 0x100 EXP DUP2 SLOAD DUP2 PUSH1 0xFF MUL NOT AND SWAP1 DUP4 PUSH1 0x4 DUP2 GT ISZERO PUSH2 0x1D8E JUMPI PUSH2 0x1D8D PUSH2 0x3037 JUMP JUMPDEST JUMPDEST MUL OR SWAP1 SSTORE POP PUSH1 0x40 DUP3 ADD MLOAD DUP2 PUSH1 0x2 ADD PUSH0 DUP3 ADD MLOAD DUP2 PUSH0 ADD SSTORE PUSH1 0x20 DUP3 ADD MLOAD DUP2 PUSH1 0x1 ADD SWAP1 DUP2 PUSH2 0x1DB9 SWAP2 SWAP1 PUSH2 0x4001 JUMP JUMPDEST POP PUSH1 0x40 DUP3 ADD MLOAD DUP2 PUSH1 0x2 ADD PUSH0 PUSH2 0x100 EXP DUP2 SLOAD DUP2 PUSH1 0xFF MUL NOT AND SWAP1 DUP4 PUSH1 0xFF AND MUL OR SWAP1 SSTORE POP PUSH1 0x60 DUP3 ADD MLOAD DUP2 PUSH1 0x3 ADD SWAP1 DUP2 PUSH2 0x1DEF SWAP2 SWAP1 PUSH2 0x4001 JUMP JUMPDEST POP POP POP PUSH1 0x60 DUP3 ADD MLOAD DUP2 PUSH1 0x6 ADD PUSH0 DUP3 ADD MLOAD DUP2 PUSH0 ADD SWAP1 DUP2 PUSH2 0x1E0E SWAP2 SWAP1 PUSH2 0x4001 JUMP JUMPDEST POP PUSH1 0x20 DUP3 ADD MLOAD DUP2 PUSH1 0x1 ADD SWAP1 DUP2 PUSH2 0x1E24 SWAP2 SWAP1 PUSH2 0x4001 JUMP JUMPDEST POP PUSH1 0x40 DUP3 ADD MLOAD DUP2 PUSH1 0x2 ADD SWAP1 DUP2 PUSH2 0x1E3A SWAP2 SWAP1 PUSH2 0x4001 JUMP JUMPDEST POP PUSH1 0x60 DUP3 ADD MLOAD DUP2 PUSH1 0x3 ADD SSTORE PUSH1 0x80 DUP3 ADD MLOAD DUP2 PUSH1 0x4 ADD PUSH0 PUSH2 0x100 EXP DUP2 SLOAD DUP2 PUSH1 0xFF MUL NOT AND SWAP1 DUP4 PUSH1 0xFF AND MUL OR SWAP1 SSTORE POP POP POP PUSH1 0x80 DUP3 ADD MLOAD DUP2 PUSH1 0xB ADD PUSH0 DUP3 ADD MLOAD DUP2 PUSH0 ADD SWAP1 DUP2 PUSH2 0x1E83 SWAP2 SWAP1 PUSH2 0x4001 JUMP JUMPDEST POP PUSH1 0x20 DUP3 ADD MLOAD DUP2 PUSH1 0x1 ADD SWAP1 DUP2 PUSH2 0x1E99 SWAP2 SWAP1 PUSH2 0x4001 JUMP JUMPDEST POP PUSH1 0x40 DUP3 ADD MLOAD DUP2 PUSH1 0x2 ADD SSTORE PUSH1 0x60 DUP3 ADD MLOAD DUP2 PUSH1 0x3 ADD PUSH0 PUSH2 0x100 EXP DUP2 SLOAD DUP2 PUSH1 0xFF MUL NOT AND SWAP1 DUP4 PUSH1 0xFF AND MUL OR SWAP1 SSTORE POP POP POP PUSH1 0xA0 DUP3 ADD MLOAD DUP2 PUSH1 0xF ADD PUSH0 DUP3 ADD MLOAD DUP2 PUSH0 ADD SWAP1 DUP2 PUSH2 0x1EE2 SWAP2 SWAP1 PUSH2 0x4001 JUMP JUMPDEST POP PUSH1 0x20 DUP3 ADD MLOAD DUP2 PUSH1 0x1 ADD SWAP1 DUP2 PUSH2 0x1EF8 SWAP2 SWAP1 PUSH2 0x4001 JUMP JUMPDEST POP PUSH1 0x40 DUP3 ADD MLOAD DUP2 PUSH1 0x2 ADD SWAP1 DUP2 PUSH2 0x1F0E SWAP2 SWAP1 PUSH2 0x4001 JUMP JUMPDEST POP PUSH1 0x60 DUP3 ADD MLOAD DUP2 PUSH1 0x3 ADD SSTORE PUSH1 0x80 DUP3 ADD MLOAD DUP2 PUSH1 0x4 ADD SWAP1 DUP2 PUSH2 0x1F2E SWAP2 SWAP1 PUSH2 0x4001 JUMP JUMPDEST POP POP POP PUSH1 0xC0 DUP3 ADD MLOAD DUP2 PUSH1 0x14 ADD PUSH0 DUP3 ADD MLOAD DUP2 PUSH0 ADD SWAP1 DUP2 PUSH2 0x1F4D SWAP2 SWAP1 PUSH2 0x4001 JUMP JUMPDEST POP PUSH1 0x20 DUP3 ADD MLOAD DUP2 PUSH1 0x1 ADD SWAP1 DUP2 PUSH2 0x1F63 SWAP2 SWAP1 PUSH2 0x4001 JUMP JUMPDEST POP PUSH1 0x40 DUP3 ADD MLOAD DUP2 PUSH1 0x2 ADD SWAP1 DUP2 PUSH2 0x1F79 SWAP2 SWAP1 PUSH2 0x4001 JUMP JUMPDEST POP PUSH1 0x60 DUP3 ADD MLOAD DUP2 PUSH1 0x3 ADD SSTORE PUSH1 0x80 DUP3 ADD MLOAD DUP2 PUSH1 0x4 ADD PUSH0 PUSH2 0x100 EXP DUP2 SLOAD DUP2 PUSH1 0xFF MUL NOT AND SWAP1 DUP4 PUSH1 0xFF AND MUL OR SWAP1 SSTORE POP POP POP PUSH1 0xE0 DUP3 ADD MLOAD DUP2 PUSH1 0x19 ADD PUSH0 DUP3 ADD MLOAD DUP2 PUSH0 ADD SWAP1 DUP2 PUSH2 0x1FC2 SWAP2 SWAP1 PUSH2 0x4001 JUMP JUMPDEST POP PUSH1 0x20 DUP3 ADD MLOAD DUP2 PUSH1 0x1 ADD SWAP1 DUP2 PUSH2 0x1FD8 SWAP2 SWAP1 PUSH2 0x4001 JUMP JUMPDEST POP PUSH1 0x40 DUP3 ADD MLOAD DUP2 PUSH1 0x2 ADD SSTORE PUSH1 0x60 DUP3 ADD MLOAD DUP2 PUSH1 0x3 ADD PUSH0 PUSH2 0x100 EXP DUP2 SLOAD DUP2 PUSH1 0xFF MUL NOT AND SWAP1 DUP4 PUSH1 0xFF AND MUL OR SWAP1 SSTORE POP POP POP SWAP1 POP POP POP POP POP POP POP POP POP POP POP POP JUMP JUMPDEST PUSH0 DUP1 DUP2 SLOAD DUP1 SWAP3 SWAP2 SWAP1 PUSH2 0x2025 SWAP1 PUSH2 0x3E1D JUMP JUMPDEST SWAP2 SWAP1 POP SSTORE POP PUSH0 PUSH1 0x40 MLOAD DUP1 PUSH1 0x80 ADD PUSH1 0x40 MSTORE DUP1 PUSH0 SLOAD DUP2 MSTORE PUSH1 0x20 ADD DUP11 DUP2 MSTORE PUSH1 0x20 ADD DUP10 PUSH1 0xFF AND DUP2 MSTORE PUSH1 0x20 ADD DUP9 DUP2 MSTORE POP SWAP1 POP PUSH0 PUSH1 0x40 MLOAD DUP1 PUSH1 0xA0 ADD PUSH1 0x40 MSTORE DUP1 DUP9 DUP2 MSTORE PUSH1 0x20 ADD DUP8 DUP2 MSTORE PUSH1 0x20 ADD DUP7 DUP2 MSTORE PUSH1 0x20 ADD DUP6 DUP2 MSTORE PUSH1 0x20 ADD DUP5 PUSH1 0xFF AND DUP2 MSTORE POP SWAP1 POP PUSH0 PUSH1 0x40 MLOAD DUP1 PUSH2 0x100 ADD PUSH1 0x40 MSTORE DUP1 PUSH0 SLOAD DUP2 MSTORE PUSH1 0x20 ADD PUSH1 0x3 PUSH1 0x4 DUP2 GT ISZERO PUSH2 0x20A7 JUMPI PUSH2 0x20A6 PUSH2 0x3037 JUMP JUMPDEST JUMPDEST DUP2 MSTORE PUSH1 0x20 ADD DUP5 DUP2 MSTORE PUSH1 0x20 ADD PUSH1 0x40 MLOAD DUP1 PUSH1 0xA0 ADD PUSH1 0x40 MSTORE DUP1 PUSH1 0x40 MLOAD DUP1 PUSH1 0x20 ADD PUSH1 0x40 MSTORE DUP1 PUSH0 DUP2 MSTORE POP DUP2 MSTORE PUSH1 0x20 ADD PUSH1 0x40 MLOAD DUP1 PUSH1 0x20 ADD PUSH1 0x40 MSTORE DUP1 PUSH0 DUP2 MSTORE POP DUP2 MSTORE PUSH1 0x20 ADD PUSH1 0x40 MLOAD DUP1 PUSH1 0x20 ADD PUSH1 0x40 MSTORE DUP1 PUSH0 DUP2 MSTORE POP DUP2 MSTORE PUSH1 0x20 ADD PUSH0 DUP2 MSTORE PUSH1 0x20 ADD PUSH0 PUSH1 0xFF AND DUP2 MSTORE POP DUP2 MSTORE PUSH1 0x20 ADD PUSH1 0x40 MLOAD DUP1 PUSH1 0x80 ADD PUSH1 0x40 MSTORE DUP1 PUSH1 0x40 MLOAD DUP1 PUSH1 0x20 ADD PUSH1 0x40 MSTORE DUP1 PUSH0 DUP2 MSTORE POP DUP2 MSTORE PUSH1 0x20 ADD PUSH1 0x40 MLOAD DUP1 PUSH1 0x20 ADD PUSH1 0x40 MSTORE DUP1 PUSH0 DUP2 MSTORE POP DUP2 MSTORE PUSH1 0x20 ADD PUSH0 DUP2 MSTORE PUSH1 0x20 ADD PUSH0 PUSH1 0xFF AND DUP2 MSTORE POP DUP2 MSTORE PUSH1 0x20 ADD PUSH1 0x40 MLOAD DUP1 PUSH1 0xA0 ADD PUSH1 0x40 MSTORE DUP1 PUSH1 0x40 MLOAD DUP1 PUSH1 0x20 ADD PUSH1 0x40 MSTORE DUP1 PUSH0 DUP2 MSTORE POP DUP2 MSTORE PUSH1 0x20 ADD PUSH1 0x40 MLOAD DUP1 PUSH1 0x20 ADD PUSH1 0x40 MSTORE DUP1 PUSH0 DUP2 MSTORE POP DUP2 MSTORE PUSH1 0x20 ADD PUSH1 0x40 MLOAD DUP1 PUSH1 0x20 ADD PUSH1 0x40 MSTORE DUP1 PUSH0 DUP2 MSTORE POP DUP2 MSTORE PUSH1 0x20 ADD PUSH0 DUP2 MSTORE PUSH1 0x20 ADD PUSH1 0x40 MLOAD DUP1 PUSH1 0x20 ADD PUSH1 0x40 MSTORE DUP1 PUSH0 DUP2 MSTORE POP DUP2 MSTORE POP DUP2 MSTORE PUSH1 0x20 ADD DUP4 DUP2 MSTORE PUSH1 0x20 ADD PUSH1 0x40 MLOAD DUP1 PUSH1 0x80 ADD PUSH1 0x40 MSTORE DUP1 PUSH1 0x40 MLOAD DUP1 PUSH1 0x20 ADD PUSH1 0x40 MSTORE DUP1 PUSH0 DUP2 MSTORE POP DUP2 MSTORE PUSH1 0x20 ADD PUSH1 0x40 MLOAD DUP1 PUSH1 0x20 ADD PUSH1 0x40 MSTORE DUP1 PUSH0 DUP2 MSTORE POP DUP2 MSTORE PUSH1 0x20 ADD PUSH0 DUP2 MSTORE PUSH1 0x20 ADD PUSH0 PUSH1 0xFF AND DUP2 MSTORE POP DUP2 MSTORE POP SWAP1 POP DUP1 PUSH1 0x1 PUSH0 DUP1 SLOAD DUP2 MSTORE PUSH1 0x20 ADD SWAP1 DUP2 MSTORE PUSH1 0x20 ADD PUSH0 KECCAK256 PUSH0 DUP3 ADD MLOAD DUP2 PUSH0 ADD SSTORE PUSH1 0x20 DUP3 ADD MLOAD DUP2 PUSH1 0x1 ADD PUSH0 PUSH2 0x100 EXP DUP2 SLOAD DUP2 PUSH1 0xFF MUL NOT AND SWAP1 DUP4 PUSH1 0x4 DUP2 GT ISZERO PUSH2 0x2244 JUMPI PUSH2 0x2243 PUSH2 0x3037 JUMP JUMPDEST JUMPDEST MUL OR SWAP1 SSTORE POP PUSH1 0x40 DUP3 ADD MLOAD DUP2 PUSH1 0x2 ADD PUSH0 DUP3 ADD MLOAD DUP2 PUSH0 ADD SSTORE PUSH1 0x20 DUP3 ADD MLOAD DUP2 PUSH1 0x1 ADD SWAP1 DUP2 PUSH2 0x226F SWAP2 SWAP1 PUSH2 0x4001 JUMP JUMPDEST POP PUSH1 0x40 DUP3 ADD MLOAD DUP2 PUSH1 0x2 ADD PUSH0 PUSH2 0x100 EXP DUP2 SLOAD DUP2 PUSH1 0xFF MUL NOT AND SWAP1 DUP4 PUSH1 0xFF AND MUL OR SWAP1 SSTORE POP PUSH1 0x60 DUP3 ADD MLOAD DUP2 PUSH1 0x3 ADD SWAP1 DUP2 PUSH2 0x22A5 SWAP2 SWAP1 PUSH2 0x4001 JUMP JUMPDEST POP POP POP PUSH1 0x60 DUP3 ADD MLOAD DUP2 PUSH1 0x6 ADD PUSH0 DUP3 ADD MLOAD DUP2 PUSH0 ADD SWAP1 DUP2 PUSH2 0x22C4 SWAP2 SWAP1 PUSH2 0x4001 JUMP JUMPDEST POP PUSH1 0x20 DUP3 ADD MLOAD DUP2 PUSH1 0x1 ADD SWAP1 DUP2 PUSH2 0x22DA SWAP2 SWAP1 PUSH2 0x4001 JUMP JUMPDEST POP PUSH1 0x40 DUP3 ADD MLOAD DUP2 PUSH1 0x2 ADD SWAP1 DUP2 PUSH2 0x22F0 SWAP2 SWAP1 PUSH2 0x4001 JUMP JUMPDEST POP PUSH1 0x60 DUP3 ADD MLOAD DUP2 PUSH1 0x3 ADD SSTORE PUSH1 0x80 DUP3 ADD MLOAD DUP2 PUSH1 0x4 ADD PUSH0 PUSH2 0x100 EXP DUP2 SLOAD DUP2 PUSH1 0xFF MUL NOT AND SWAP1 DUP4 PUSH1 0xFF AND MUL OR SWAP1 SSTORE POP POP POP PUSH1 0x80 DUP3 ADD MLOAD DUP2 PUSH1 0xB ADD PUSH0 DUP3 ADD MLOAD DUP2 PUSH0 ADD SWAP1 DUP2 PUSH2 0x2339 SWAP2 SWAP1 PUSH2 0x4001 JUMP JUMPDEST POP PUSH1 0x20 DUP3 ADD MLOAD DUP2 PUSH1 0x1 ADD SWAP1 DUP2 PUSH2 0x234F SWAP2 SWAP1 PUSH2 0x4001 JUMP JUMPDEST POP PUSH1 0x40 DUP3 ADD MLOAD DUP2 PUSH1 0x2 ADD SSTORE PUSH1 0x60 DUP3 ADD MLOAD DUP2 PUSH1 0x3 ADD PUSH0 PUSH2 0x100 EXP DUP2 SLOAD DUP2 PUSH1 0xFF MUL NOT AND SWAP1 DUP4 PUSH1 0xFF AND MUL OR SWAP1 SSTORE POP POP POP PUSH1 0xA0 DUP3 ADD MLOAD DUP2 PUSH1 0xF ADD PUSH0 DUP3 ADD MLOAD DUP2 PUSH0 ADD SWAP1 DUP2 PUSH2 0x2398 SWAP2 SWAP1 PUSH2 0x4001 JUMP JUMPDEST POP PUSH1 0x20 DUP3 ADD MLOAD DUP2 PUSH1 0x1 ADD SWAP1 DUP2 PUSH2 0x23AE SWAP2 SWAP1 PUSH2 0x4001 JUMP JUMPDEST POP PUSH1 0x40 DUP3 ADD MLOAD DUP2 PUSH1 0x2 ADD SWAP1 DUP2 PUSH2 0x23C4 SWAP2 SWAP1 PUSH2 0x4001 JUMP JUMPDEST POP PUSH1 0x60 DUP3 ADD MLOAD DUP2 PUSH1 0x3 ADD SSTORE PUSH1 0x80 DUP3 ADD MLOAD DUP2 PUSH1 0x4 ADD SWAP1 DUP2 PUSH2 0x23E4 SWAP2 SWAP1 PUSH2 0x4001 JUMP JUMPDEST POP POP POP PUSH1 0xC0 DUP3 ADD MLOAD DUP2 PUSH1 0x14 ADD PUSH0 DUP3 ADD MLOAD DUP2 PUSH0 ADD SWAP1 DUP2 PUSH2 0x2403 SWAP2 SWAP1 PUSH2 0x4001 JUMP JUMPDEST POP PUSH1 0x20 DUP3 ADD MLOAD DUP2 PUSH1 0x1 ADD SWAP1 DUP2 PUSH2 0x2419 SWAP2 SWAP1 PUSH2 0x4001 JUMP JUMPDEST POP PUSH1 0x40 DUP3 ADD MLOAD DUP2 PUSH1 0x2 ADD SWAP1 DUP2 PUSH2 0x242F SWAP2 SWAP1 PUSH2 0x4001 JUMP JUMPDEST POP PUSH1 0x60 DUP3 ADD MLOAD DUP2 PUSH1 0x3 ADD SSTORE PUSH1 0x80 DUP3 ADD MLOAD DUP2 PUSH1 0x4 ADD PUSH0 PUSH2 0x100 EXP DUP2 SLOAD DUP2 PUSH1 0xFF MUL NOT AND SWAP1 DUP4 PUSH1 0xFF AND MUL OR SWAP1 SSTORE POP POP POP PUSH1 0xE0 DUP3 ADD MLOAD DUP2 PUSH1 0x19 ADD PUSH0 DUP3 ADD MLOAD DUP2 PUSH0 ADD SWAP1 DUP2 PUSH2 0x2478 SWAP2 SWAP1 PUSH2 0x4001 JUMP JUMPDEST POP PUSH1 0x20 DUP3 ADD MLOAD DUP2 PUSH1 0x1 ADD SWAP1 DUP2 PUSH2 0x248E SWAP2 SWAP1 PUSH2 0x4001 JUMP JUMPDEST POP PUSH1 0x40 DUP3 ADD MLOAD DUP2 PUSH1 0x2 ADD SSTORE PUSH1 0x60 DUP3 ADD MLOAD DUP2 PUSH1 0x3 ADD PUSH0 PUSH2 0x100 EXP DUP2 SLOAD DUP2 PUSH1 0xFF MUL NOT AND SWAP1 DUP4 PUSH1 0xFF AND MUL OR SWAP1 SSTORE POP POP POP SWAP1 POP POP POP POP POP POP POP POP POP POP POP POP POP JUMP JUMPDEST PUSH0 DUP1 DUP2 SLOAD DUP1 SWAP3 SWAP2 SWAP1 PUSH2 0x24DC SWAP1 PUSH2 0x3E1D JUMP JUMPDEST SWAP2 SWAP1 POP SSTORE POP PUSH0 PUSH1 0x40 MLOAD DUP1 PUSH1 0x80 ADD PUSH1 0x40 MSTORE DUP1 PUSH0 SLOAD DUP2 MSTORE PUSH1 0x20 ADD DUP11 DUP2 MSTORE PUSH1 0x20 ADD DUP10 PUSH1 0xFF AND DUP2 MSTORE PUSH1 0x20 ADD DUP9 DUP2 MSTORE POP SWAP1 POP PUSH0 PUSH1 0x40 MLOAD DUP1 PUSH1 0xA0 ADD PUSH1 0x40 MSTORE DUP1 DUP9 DUP2 MSTORE PUSH1 0x20 ADD DUP8 DUP2 MSTORE PUSH1 0x20 ADD DUP7 DUP2 MSTORE PUSH1 0x20 ADD DUP6 DUP2 MSTORE PUSH1 0x20 ADD DUP5 DUP2 MSTORE POP SWAP1 POP PUSH0 PUSH1 0x40 MLOAD DUP1 PUSH2 0x100 ADD PUSH1 0x40 MSTORE DUP1 PUSH0 SLOAD DUP2 MSTORE PUSH1 0x20 ADD PUSH1 0x2 PUSH1 0x4 DUP2 GT ISZERO PUSH2 0x255B JUMPI PUSH2 0x255A PUSH2 0x3037 JUMP JUMPDEST JUMPDEST DUP2 MSTORE PUSH1 0x20 ADD DUP5 DUP2 MSTORE PUSH1 0x20 ADD PUSH1 0x40 MLOAD DUP1 PUSH1 0xA0 ADD PUSH1 0x40 MSTORE DUP1 PUSH1 0x40 MLOAD DUP1 PUSH1 0x20 ADD PUSH1 0x40 MSTORE DUP1 PUSH0 DUP2 MSTORE POP DUP2 MSTORE PUSH1 0x20 ADD PUSH1 0x40 MLOAD DUP1 PUSH1 0x20 ADD PUSH1 0x40 MSTORE DUP1 PUSH0 DUP2 MSTORE POP DUP2 MSTORE PUSH1 0x20 ADD PUSH1 0x40 MLOAD DUP1 PUSH1 0x20 ADD PUSH1 0x40 MSTORE DUP1 PUSH0 DUP2 MSTORE POP DUP2 MSTORE PUSH1 0x20 ADD PUSH0 DUP2 MSTORE PUSH1 0x20 ADD PUSH0 PUSH1 0xFF AND DUP2 MSTORE POP DUP2 MSTORE PUSH1 0x20 ADD PUSH1 0x40 MLOAD DUP1 PUSH1 0x80 ADD PUSH1 0x40 MSTORE DUP1 PUSH1 0x40 MLOAD DUP1 PUSH1 0x20 ADD PUSH1 0x40 MSTORE DUP1 PUSH0 DUP2 MSTORE POP DUP2 MSTORE PUSH1 0x20 ADD PUSH1 0x40 MLOAD DUP1 PUSH1 0x20 ADD PUSH1 0x40 MSTORE DUP1 PUSH0 DUP2 MSTORE POP DUP2 MSTORE PUSH1 0x20 ADD PUSH0 DUP2 MSTORE PUSH1 0x20 ADD PUSH0 PUSH1 0xFF AND DUP2 MSTORE POP DUP2 MSTORE PUSH1 0x20 ADD DUP4 DUP2 MSTORE PUSH1 0x20 ADD PUSH1 0x40 MLOAD DUP1 PUSH1 0xA0 ADD PUSH1 0x40 MSTORE DUP1 PUSH1 0x40 MLOAD DUP1 PUSH1 0x20 ADD PUSH1 0x40 MSTORE DUP1 PUSH0 DUP2 MSTORE POP DUP2 MSTORE PUSH1 0x20 ADD PUSH1 0x40 MLOAD DUP1 PUSH1 0x20 ADD PUSH1 0x40 MSTORE DUP1 PUSH0 DUP2 MSTORE POP DUP2 MSTORE PUSH1 0x20 ADD PUSH1 0x40 MLOAD DUP1 PUSH1 0x20 ADD PUSH1 0x40 MSTORE DUP1 PUSH0 DUP2 MSTORE POP DUP2 MSTORE PUSH1 0x20 ADD PUSH0 DUP2 MSTORE PUSH1 0x20 ADD PUSH0 PUSH1 0xFF AND DUP2 MSTORE POP DUP2 MSTORE PUSH1 0x20 ADD PUSH1 0x40 MLOAD DUP1 PUSH1 0x80 ADD PUSH1 0x40 MSTORE DUP1 PUSH1 0x40 MLOAD DUP1 PUSH1 0x20 ADD PUSH1 0x40 MSTORE DUP1 PUSH0 DUP2 MSTORE POP DUP2 MSTORE PUSH1 0x20 ADD PUSH1 0x40 MLOAD DUP1 PUSH1 0x20 ADD PUSH1 0x40 MSTORE DUP1 PUSH0 DUP2 MSTORE POP DUP2 MSTORE PUSH1 0x20 ADD PUSH0 DUP2 MSTORE PUSH1 0x20 ADD PUSH0 PUSH1 0xFF AND DUP2 MSTORE POP DUP2 MSTORE POP SWAP1 POP DUP1 PUSH1 0x1 PUSH0 DUP1 SLOAD DUP2 MSTORE PUSH1 0x20 ADD SWAP1 DUP2 MSTORE PUSH1 0x20 ADD PUSH0 KECCAK256 PUSH0 DUP3 ADD MLOAD DUP2 PUSH0 ADD SSTORE PUSH1 0x20 DUP3 ADD MLOAD DUP2 PUSH1 0x1 ADD PUSH0 PUSH2 0x100 EXP DUP2 SLOAD DUP2 PUSH1 0xFF MUL NOT AND SWAP1 DUP4 PUSH1 0x4 DUP2 GT ISZERO PUSH2 0x26ED JUMPI PUSH2 0x26EC PUSH2 0x3037 JUMP JUMPDEST JUMPDEST MUL OR SWAP1 SSTORE POP PUSH1 0x40 DUP3 ADD MLOAD DUP2 PUSH1 0x2 ADD PUSH0 DUP3 ADD MLOAD DUP2 PUSH0 ADD SSTORE PUSH1 0x20 DUP3 ADD MLOAD DUP2 PUSH1 0x1 ADD SWAP1 DUP2 PUSH2 0x2718 SWAP2 SWAP1 PUSH2 0x4001 JUMP JUMPDEST POP PUSH1 0x40 DUP3 ADD MLOAD DUP2 PUSH1 0x2 ADD PUSH0 PUSH2 0x100 EXP DUP2 SLOAD DUP2 PUSH1 0xFF MUL NOT AND SWAP1 DUP4 PUSH1 0xFF AND MUL OR SWAP1 SSTORE POP PUSH1 0x60 DUP3 ADD MLOAD DUP2 PUSH1 0x3 ADD SWAP1 DUP2 PUSH2 0x274E SWAP2 SWAP1 PUSH2 0x4001 JUMP JUMPDEST POP POP POP PUSH1 0x60 DUP3 ADD MLOAD DUP2 PUSH1 0x6 ADD PUSH0 DUP3 ADD MLOAD DUP2 PUSH0 ADD SWAP1 DUP2 PUSH2 0x276D SWAP2 SWAP1 PUSH2 0x4001 JUMP JUMPDEST POP PUSH1 0x20 DUP3 ADD MLOAD DUP2 PUSH1 0x1 ADD SWAP1 DUP2 PUSH2 0x2783 SWAP2 SWAP1 PUSH2 0x4001 JUMP JUMPDEST POP PUSH1 0x40 DUP3 ADD MLOAD DUP2 PUSH1 0x2 ADD SWAP1 DUP2 PUSH2 0x2799 SWAP2 SWAP1 PUSH2 0x4001 JUMP JUMPDEST POP PUSH1 0x60 DUP3 ADD MLOAD DUP2 PUSH1 0x3 ADD SSTORE PUSH1 0x80 DUP3 ADD MLOAD DUP2 PUSH1 0x4 ADD PUSH0 PUSH2 0x100 EXP DUP2 SLOAD DUP2 PUSH1 0xFF MUL NOT AND SWAP1 DUP4 PUSH1 0xFF AND MUL OR SWAP1 SSTORE POP POP POP PUSH1 0x80 DUP3 ADD MLOAD DUP2 PUSH1 0xB ADD PUSH0 DUP3 ADD MLOAD DUP2 PUSH0 ADD SWAP1 DUP2 PUSH2 0x27E2 SWAP2 SWAP1 PUSH2 0x4001 JUMP JUMPDEST POP PUSH1 0x20 DUP3 ADD MLOAD DUP2 PUSH1 0x1 ADD SWAP1 DUP2 PUSH2 0x27F8 SWAP2 SWAP1 PUSH2 0x4001 JUMP JUMPDEST POP PUSH1 0x40 DUP3 ADD MLOAD DUP2 PUSH1 0x2 ADD SSTORE PUSH1 0x60 DUP3 ADD MLOAD DUP2 PUSH1 0x3 ADD PUSH0 PUSH2 0x100 EXP DUP2 SLOAD DUP2 PUSH1 0xFF MUL NOT AND SWAP1 DUP4 PUSH1 0xFF AND MUL OR SWAP1 SSTORE POP POP POP PUSH1 0xA0 DUP3 ADD MLOAD DUP2 PUSH1 0xF ADD PUSH0 DUP3 ADD MLOAD DUP2 PUSH0 ADD SWAP1 DUP2 PUSH2 0x2841 SWAP2 SWAP1 PUSH2 0x4001 JUMP JUMPDEST POP PUSH1 0x20 DUP3 ADD MLOAD DUP2 PUSH1 0x1 ADD SWAP1 DUP2 PUSH2 0x2857 SWAP2 SWAP1 PUSH2 0x4001 JUMP JUMPDEST POP PUSH1 0x40 DUP3 ADD MLOAD DUP2 PUSH1 0x2 ADD SWAP1 DUP2 PUSH2 0x286D SWAP2 SWAP1 PUSH2 0x4001 JUMP JUMPDEST POP PUSH1 0x60 DUP3 ADD MLOAD DUP2 PUSH1 0x3 ADD SSTORE PUSH1 0x80 DUP3 ADD MLOAD DUP2 PUSH1 0x4 ADD SWAP1 DUP2 PUSH2 0x288D SWAP2 SWAP1 PUSH2 0x4001 JUMP JUMPDEST POP POP POP PUSH1 0xC0 DUP3 ADD MLOAD DUP2 PUSH1 0x14 ADD PUSH0 DUP3 ADD MLOAD DUP2 PUSH0 ADD SWAP1 DUP2 PUSH2 0x28AC SWAP2 SWAP1 PUSH2 0x4001 JUMP JUMPDEST POP PUSH1 0x20 DUP3 ADD MLOAD DUP2 PUSH1 0x1 ADD SWAP1 DUP2 PUSH2 0x28C2 SWAP2 SWAP1 PUSH2 0x4001 JUMP JUMPDEST POP PUSH1 0x40 DUP3 ADD MLOAD DUP2 PUSH1 0x2 ADD SWAP1 DUP2 PUSH2 0x28D8 SWAP2 SWAP1 PUSH2 0x4001 JUMP JUMPDEST POP PUSH1 0x60 DUP3 ADD MLOAD DUP2 PUSH1 0x3 ADD SSTORE PUSH1 0x80 DUP3 ADD MLOAD DUP2 PUSH1 0x4 ADD PUSH0 PUSH2 0x100 EXP DUP2 SLOAD DUP2 PUSH1 0xFF MUL NOT AND SWAP1 DUP4 PUSH1 0xFF AND MUL OR SWAP1 SSTORE POP POP POP PUSH1 0xE0 DUP3 ADD MLOAD DUP2 PUSH1 0x19 ADD PUSH0 DUP3 ADD MLOAD DUP2 PUSH0 ADD SWAP1 DUP2 PUSH2 0x2921 SWAP2 SWAP1 PUSH2 0x4001 JUMP JUMPDEST POP PUSH1 0x20 DUP3 ADD MLOAD DUP2 PUSH1 0x1 ADD SWAP1 DUP2 PUSH2 0x2937 SWAP2 SWAP1 PUSH2 0x4001 JUMP JUMPDEST POP PUSH1 0x40 DUP3 ADD MLOAD DUP2 PUSH1 0x2 ADD SSTORE PUSH1 0x60 DUP3 ADD MLOAD DUP2 PUSH1 0x3 ADD PUSH0 PUSH2 0x100 EXP DUP2 SLOAD DUP2 PUSH1 0xFF MUL NOT AND SWAP1 DUP4 PUSH1 0xFF AND MUL OR SWAP1 SSTORE POP POP POP SWAP1 POP POP POP POP POP POP POP POP POP POP POP POP POP JUMP JUMPDEST PUSH0 DUP1 DUP2 SLOAD DUP1 SWAP3 SWAP2 SWAP1 PUSH2 0x2985 SWAP1 PUSH2 0x3E1D JUMP JUMPDEST SWAP2 SWAP1 POP SSTORE POP PUSH0 PUSH1 0x40 MLOAD DUP1 PUSH1 0x80 ADD PUSH1 0x40 MSTORE DUP1 PUSH0 SLOAD DUP2 MSTORE PUSH1 0x20 ADD DUP10 DUP2 MSTORE PUSH1 0x20 ADD DUP9 PUSH1 0xFF AND DUP2 MSTORE PUSH1 0x20 ADD DUP8 DUP2 MSTORE POP SWAP1 POP PUSH0 PUSH1 0x40 MLOAD DUP1 PUSH1 0x80 ADD PUSH1 0x40 MSTORE DUP1 DUP8 DUP2 MSTORE PUSH1 0x20 ADD DUP7 DUP2 MSTORE PUSH1 0x20 ADD DUP6 DUP2 MSTORE PUSH1 0x20 ADD DUP5 PUSH1 0xFF AND DUP2 MSTORE POP SWAP1 POP PUSH0 PUSH1 0x40 MLOAD DUP1 PUSH2 0x100 ADD PUSH1 0x40 MSTORE DUP1 PUSH0 SLOAD DUP2 MSTORE PUSH1 0x20 ADD PUSH1 0x4 DUP1 DUP2 GT ISZERO PUSH2 0x2A00 JUMPI PUSH2 0x29FF PUSH2 0x3037 JUMP JUMPDEST JUMPDEST DUP2 MSTORE PUSH1 0x20 ADD DUP5 DUP2 MSTORE PUSH1 0x20 ADD PUSH1 0x40 MLOAD DUP1 PUSH1 0xA0 ADD PUSH1 0x40 MSTORE DUP1 PUSH1 0x40 MLOAD DUP1 PUSH1 0x20 ADD PUSH1 0x40 MSTORE DUP1 PUSH0 DUP2 MSTORE POP DUP2 MSTORE PUSH1 0x20 ADD PUSH1 0x40 MLOAD DUP1 PUSH1 0x20 ADD PUSH1 0x40 MSTORE DUP1 PUSH0 DUP2 MSTORE POP DUP2 MSTORE PUSH1 0x20 ADD PUSH1 0x40 MLOAD DUP1 PUSH1 0x20 ADD PUSH1 0x40 MSTORE DUP1 PUSH0 DUP2 MSTORE POP DUP2 MSTORE PUSH1 0x20 ADD PUSH0 DUP2 MSTORE PUSH1 0x20 ADD PUSH0 PUSH1 0xFF AND DUP2 MSTORE POP DUP2 MSTORE PUSH1 0x20 ADD PUSH1 0x40 MLOAD DUP1 PUSH1 0x80 ADD PUSH1 0x40 MSTORE DUP1 PUSH1 0x40 MLOAD DUP1 PUSH1 0x20 ADD PUSH1 0x40 MSTORE DUP1 PUSH0 DUP2 MSTORE POP DUP2 MSTORE PUSH1 0x20 ADD PUSH1 0x40 MLOAD DUP1 PUSH1 0x20 ADD PUSH1 0x40 MSTORE DUP1 PUSH0 DUP2 MSTORE POP DUP2 MSTORE PUSH1 0x20 ADD PUSH0 DUP2 MSTORE PUSH1 0x20 ADD PUSH0 PUSH1 0xFF AND DUP2 MSTORE POP DUP2 MSTORE PUSH1 0x20 ADD PUSH1 0x40 MLOAD DUP1 PUSH1 0xA0 ADD PUSH1 0x40 MSTORE DUP1 PUSH1 0x40 MLOAD DUP1 PUSH1 0x20 ADD PUSH1 0x40 MSTORE DUP1 PUSH0 DUP2 MSTORE POP DUP2 MSTORE PUSH1 0x20 ADD PUSH1 0x40 MLOAD DUP1 PUSH1 0x20 ADD PUSH1 0x40 MSTORE DUP1 PUSH0 DUP2 MSTORE POP DUP2 MSTORE PUSH1 0x20 ADD PUSH1 0x40 MLOAD DUP1 PUSH1 0x20 ADD PUSH1 0x40 MSTORE DUP1 PUSH0 DUP2 MSTORE POP DUP2 MSTORE PUSH1 0x20 ADD PUSH0 DUP2 MSTORE PUSH1 0x20 ADD PUSH1 0x40 MLOAD DUP1 PUSH1 0x20 ADD PUSH1 0x40 MSTORE DUP1 PUSH0 DUP2 MSTORE POP DUP2 MSTORE POP DUP2 MSTORE PUSH1 0x20 ADD PUSH1 0x40 MLOAD DUP1 PUSH1 0xA0 ADD PUSH1 0x40 MSTORE DUP1 PUSH1 0x40 MLOAD DUP1 PUSH1 0x20 ADD PUSH1 0x40 MSTORE DUP1 PUSH0 DUP2 MSTORE POP DUP2 MSTORE PUSH1 0x20 ADD PUSH1 0x40 MLOAD DUP1 PUSH1 0x20 ADD PUSH1 0x40 MSTORE DUP1 PUSH0 DUP2 MSTORE POP DUP2 MSTORE PUSH1 0x20 ADD PUSH1 0x40 MLOAD DUP1 PUSH1 0x20 ADD PUSH1 0x40 MSTORE DUP1 PUSH0 DUP2 MSTORE POP DUP2 MSTORE PUSH1 0x20 ADD PUSH0 DUP2 MSTORE PUSH1 0x20 ADD PUSH0 PUSH1 0xFF AND DUP2 MSTORE POP DUP2 MSTORE PUSH1 0x20 ADD DUP4 DUP2 MSTORE POP SWAP1 POP DUP1 PUSH1 0x1 PUSH0 DUP1 SLOAD DUP2 MSTORE PUSH1 0x20 ADD SWAP1 DUP2 MSTORE PUSH1 0x20 ADD PUSH0 KECCAK256 PUSH0 DUP3 ADD MLOAD DUP2 PUSH0 ADD SSTORE PUSH1 0x20 DUP3 ADD MLOAD DUP2 PUSH1 0x1 ADD PUSH0 PUSH2 0x100 EXP DUP2 SLOAD DUP2 PUSH1 0xFF MUL NOT AND SWAP1 DUP4 PUSH1 0x4 DUP2 GT ISZERO PUSH2 0x2BB1 JUMPI PUSH2 0x2BB0 PUSH2 0x3037 JUMP JUMPDEST JUMPDEST MUL OR SWAP1 SSTORE POP PUSH1 0x40 DUP3 ADD MLOAD DUP2 PUSH1 0x2 ADD PUSH0 DUP3 ADD MLOAD DUP2 PUSH0 ADD SSTORE PUSH1 0x20 DUP3 ADD MLOAD DUP2 PUSH1 0x1 ADD SWAP1 DUP2 PUSH2 0x2BDC SWAP2 SWAP1 PUSH2 0x4001 JUMP JUMPDEST POP PUSH1 0x40 DUP3 ADD MLOAD DUP2 PUSH1 0x2 ADD PUSH0 PUSH2 0x100 EXP DUP2 SLOAD DUP2 PUSH1 0xFF MUL NOT AND SWAP1 DUP4 PUSH1 0xFF AND MUL OR SWAP1 SSTORE POP PUSH1 0x60 DUP3 ADD MLOAD DUP2 PUSH1 0x3 ADD SWAP1 DUP2 PUSH2 0x2C12 SWAP2 SWAP1 PUSH2 0x4001 JUMP JUMPDEST POP POP POP PUSH1 0x60 DUP3 ADD MLOAD DUP2 PUSH1 0x6 ADD PUSH0 DUP3 ADD MLOAD DUP2 PUSH0 ADD SWAP1 DUP2 PUSH2 0x2C31 SWAP2 SWAP1 PUSH2 0x4001 JUMP JUMPDEST POP PUSH1 0x20 DUP3 ADD MLOAD DUP2 PUSH1 0x1 ADD SWAP1 DUP2 PUSH2 0x2C47 SWAP2 SWAP1 PUSH2 0x4001 JUMP JUMPDEST POP PUSH1 0x40 DUP3 ADD MLOAD DUP2 PUSH1 0x2 ADD SWAP1 DUP2 PUSH2 0x2C5D SWAP2 SWAP1 PUSH2 0x4001 JUMP JUMPDEST POP PUSH1 0x60 DUP3 ADD MLOAD DUP2 PUSH1 0x3 ADD SSTORE PUSH1 0x80 DUP3 ADD MLOAD DUP2 PUSH1 0x4 ADD PUSH0 PUSH2 0x100 EXP DUP2 SLOAD DUP2 PUSH1 0xFF MUL NOT AND SWAP1 DUP4 PUSH1 0xFF AND MUL OR SWAP1 SSTORE POP POP POP PUSH1 0x80 DUP3 ADD MLOAD DUP2 PUSH1 0xB ADD PUSH0 DUP3 ADD MLOAD DUP2 PUSH0 ADD SWAP1 DUP2 PUSH2 0x2CA6 SWAP2 SWAP1 PUSH2 0x4001 JUMP JUMPDEST POP PUSH1 0x20 DUP3 ADD MLOAD DUP2 PUSH1 0x1 ADD SWAP1 DUP2 PUSH2 0x2CBC SWAP2 SWAP1 PUSH2 0x4001 JUMP JUMPDEST POP PUSH1 0x40 DUP3 ADD MLOAD DUP2 PUSH1 0x2 ADD SSTORE PUSH1 0x60 DUP3 ADD MLOAD DUP2 PUSH1 0x3 ADD PUSH0 PUSH2 0x100 EXP DUP2 SLOAD DUP2 PUSH1 0xFF MUL NOT AND SWAP1 DUP4 PUSH1 0xFF AND MUL OR SWAP1 SSTORE POP POP POP PUSH1 0xA0 DUP3 ADD MLOAD DUP2 PUSH1 0xF ADD PUSH0 DUP3 ADD MLOAD DUP2 PUSH0 ADD SWAP1 DUP2 PUSH2 0x2D05 SWAP2 SWAP1 PUSH2 0x4001 JUMP JUMPDEST POP PUSH1 0x20 DUP3 ADD MLOAD DUP2 PUSH1 0x1 ADD SWAP1 DUP2 PUSH2 0x2D1B SWAP2 SWAP1 PUSH2 0x4001 JUMP JUMPDEST POP PUSH1 0x40 DUP3 ADD MLOAD DUP2 PUSH1 0x2 ADD SWAP1 DUP2 PUSH2 0x2D31 SWAP2 SWAP1 PUSH2 0x4001 JUMP JUMPDEST POP PUSH1 0x60 DUP3 ADD MLOAD DUP2 PUSH1 0x3 ADD SSTORE PUSH1 0x80 DUP3 ADD MLOAD DUP2 PUSH1 0x4 ADD SWAP1 DUP2 PUSH2 0x2D51 SWAP2 SWAP1 PUSH2 0x4001 JUMP JUMPDEST POP POP POP PUSH1 0xC0 DUP3 ADD MLOAD DUP2 PUSH1 0x14 ADD PUSH0 DUP3 ADD MLOAD DUP2 PUSH0 ADD SWAP1 DUP2 PUSH2 0x2D70 SWAP2 SWAP1 PUSH2 0x4001 JUMP JUMPDEST POP PUSH1 0x20 DUP3 ADD MLOAD DUP2 PUSH1 0x1 ADD SWAP1 DUP2 PUSH2 0x2D86 SWAP2 SWAP1 PUSH2 0x4001 JUMP JUMPDEST POP PUSH1 0x40 DUP3 ADD MLOAD DUP2 PUSH1 0x2 ADD SWAP1 DUP2 PUSH2 0x2D9C SWAP2 SWAP1 PUSH2 0x4001 JUMP JUMPDEST POP PUSH1 0x60 DUP3 ADD MLOAD DUP2 PUSH1 0x3 ADD SSTORE PUSH1 0x80 DUP3 ADD MLOAD DUP2 PUSH1 0x4 ADD PUSH0 PUSH2 0x100 EXP DUP2 SLOAD DUP2 PUSH1 0xFF MUL NOT AND SWAP1 DUP4 PUSH1 0xFF AND MUL OR SWAP1 SSTORE POP POP POP PUSH1 0xE0 DUP3 ADD MLOAD DUP2 PUSH1 0x19 ADD PUSH0 DUP3 ADD MLOAD DUP2 PUSH0 ADD SWAP1 DUP2 PUSH2 0x2DE5 SWAP2 SWAP1 PUSH2 0x4001 JUMP JUMPDEST POP PUSH1 0x20 DUP3 ADD MLOAD DUP2 PUSH1 0x1 ADD SWAP1 DUP2 PUSH2 0x2DFB SWAP2 SWAP1 PUSH2 0x4001 JUMP JUMPDEST POP PUSH1 0x40 DUP3 ADD MLOAD DUP2 PUSH1 0x2 ADD SSTORE PUSH1 0x60 DUP3 ADD MLOAD DUP2 PUSH1 0x3 ADD PUSH0 PUSH2 0x100 EXP DUP2 SLOAD DUP2 PUSH1 0xFF MUL NOT AND SWAP1 DUP4 PUSH1 0xFF AND MUL OR SWAP1 SSTORE POP POP POP SWAP1 POP POP POP POP POP POP POP POP POP POP POP POP JUMP JUMPDEST PUSH1 0x40 MLOAD DUP1 PUSH2 0x100 ADD PUSH1 0x40 MSTORE DUP1 PUSH0 DUP2 MSTORE PUSH1 0x20 ADD PUSH0 PUSH1 0x4 DUP2 GT ISZERO PUSH2 0x2E5C JUMPI PUSH2 0x2E5B PUSH2 0x3037 JUMP JUMPDEST JUMPDEST DUP2 MSTORE PUSH1 0x20 ADD PUSH2 0x2E69 PUSH2 0x2EB0 JUMP JUMPDEST DUP2 MSTORE PUSH1 0x20 ADD PUSH2 0x2E76 PUSH2 0x2ED9 JUMP JUMPDEST DUP2 MSTORE PUSH1 0x20 ADD PUSH2 0x2E83 PUSH2 0x2F09 JUMP JUMPDEST DUP2 MSTORE PUSH1 0x20 ADD PUSH2 0x2E90 PUSH2 0x2F32 JUMP JUMPDEST DUP2 MSTORE PUSH1 0x20 ADD PUSH2 0x2E9D PUSH2 0x2F60 JUMP JUMPDEST DUP2 MSTORE PUSH1 0x20 ADD PUSH2 0x2EAA PUSH2 0x2F90 JUMP JUMPDEST DUP2 MSTORE POP SWAP1 JUMP JUMPDEST PUSH1 0x40 MLOAD DUP1 PUSH1 0x80 ADD PUSH1 0x40 MSTORE DUP1 PUSH0 DUP2 MSTORE PUSH1 0x20 ADD PUSH1 0x60 DUP2 MSTORE PUSH1 0x20 ADD PUSH0 PUSH1 0xFF AND DUP2 MSTORE PUSH1 0x20 ADD PUSH1 0x60 DUP2 MSTORE POP SWAP1 JUMP JUMPDEST PUSH1 0x40 MLOAD DUP1 PUSH1 0xA0 ADD PUSH1 0x40 MSTORE DUP1 PUSH1 0x60 DUP2 MSTORE PUSH1 0x20 ADD PUSH1 0x60 DUP2 MSTORE PUSH1 0x20 ADD PUSH1 0x60 DUP2 MSTORE PUSH1 0x20 ADD PUSH0 DUP2 MSTORE PUSH1 0x20 ADD PUSH0 PUSH1 0xFF AND DUP2 MSTORE POP SWAP1 JUMP JUMPDEST PUSH1 0x40 MLOAD DUP1 PUSH1 0x80 ADD PUSH1 0x40 MSTORE DUP1 PUSH1 0x60 DUP2 MSTORE PUSH1 0x20 ADD PUSH1 0x60 DUP2 MSTORE PUSH1 0x20 ADD PUSH0 DUP2 MSTORE PUSH1 0x20 ADD PUSH0 PUSH1 0xFF AND DUP2 MSTORE POP SWAP1 JUMP JUMPDEST PUSH1 0x40 MLOAD DUP1 PUSH1 0xA0 ADD PUSH1 0x40 MSTORE DUP1 PUSH1 0x60 DUP2 MSTORE PUSH1 0x20 ADD PUSH1 0x60 DUP2 MSTORE PUSH1 0x20 ADD PUSH1 0x60 DUP2 MSTORE PUSH1 0x20 ADD PUSH0 DUP2 MSTORE PUSH1 0x20 ADD PUSH1 0x60 DUP2 MSTORE POP SWAP1 JUMP JUMPDEST PUSH1 0x40 MLOAD DUP1 PUSH1 0xA0 ADD PUSH1 0x40 MSTORE DUP1 PUSH1 0x60 DUP2 MSTORE PUSH1 0x20 ADD PUSH1 0x60 DUP2 MSTORE PUSH1 0x20 ADD PUSH1 0x60 DUP2 MSTORE PUSH1 0x20 ADD PUSH0 DUP2 MSTORE PUSH1 0x20 ADD PUSH0 PUSH1 0xFF AND DUP2 MSTORE POP SWAP1 JUMP JUMPDEST PUSH1 0x40 MLOAD DUP1 PUSH1 0x80 ADD PUSH1 0x40 MSTORE DUP1 PUSH1 0x60 DUP2 MSTORE PUSH1 0x20 ADD PUSH1 0x60 DUP2 MSTORE PUSH1 0x20 ADD PUSH0 DUP2 MSTORE PUSH1 0x20 ADD PUSH0 PUSH1 0xFF AND DUP2 MSTORE POP SWAP1 JUMP JUMPDEST PUSH0 PUSH1 0x40 MLOAD SWAP1 POP SWAP1 JUMP JUMPDEST PUSH0 DUP1 REVERT JUMPDEST PUSH0 DUP1 REVERT JUMPDEST PUSH0 DUP2 SWAP1 POP SWAP2 SWAP1 POP JUMP JUMPDEST PUSH2 0x2FDC DUP2 PUSH2 0x2FCA JUMP JUMPDEST DUP2 EQ PUSH2 0x2FE6 JUMPI PUSH0 DUP1 REVERT JUMPDEST POP JUMP JUMPDEST PUSH0 DUP2 CALLDATALOAD SWAP1 POP PUSH2 0x2FF7 DUP2 PUSH2 0x2FD3 JUMP JUMPDEST SWAP3 SWAP2 POP POP JUMP JUMPDEST PUSH0 PUSH1 0x20 DUP3 DUP5 SUB SLT ISZERO PUSH2 0x3012 JUMPI PUSH2 0x3011 PUSH2 0x2FC2 JUMP JUMPDEST JUMPDEST PUSH0 PUSH2 0x301F DUP5 DUP3 DUP6 ADD PUSH2 0x2FE9 JUMP JUMPDEST SWAP2 POP POP SWAP3 SWAP2 POP POP JUMP JUMPDEST PUSH2 0x3031 DUP2 PUSH2 0x2FCA JUMP JUMPDEST DUP3 MSTORE POP POP JUMP JUMPDEST PUSH32 0x4E487B7100000000000000000000000000000000000000000000000000000000 PUSH0 MSTORE PUSH1 0x21 PUSH1 0x4 MSTORE PUSH1 0x24 PUSH0 REVERT JUMPDEST PUSH1 0x5 DUP2 LT PUSH2 0x3075 JUMPI PUSH2 0x3074 PUSH2 0x3037 JUMP JUMPDEST JUMPDEST POP JUMP JUMPDEST PUSH0 DUP2 SWAP1 POP PUSH2 0x3085 DUP3 PUSH2 0x3064 JUMP JUMPDEST SWAP2 SWAP1 POP JUMP JUMPDEST PUSH0 PUSH2 0x3094 DUP3 PUSH2 0x3078 JUMP JUMPDEST SWAP1 POP SWAP2 SWAP1 POP JUMP JUMPDEST PUSH2 0x30A4 DUP2 PUSH2 0x308A JUMP JUMPDEST DUP3 MSTORE POP POP JUMP JUMPDEST PUSH2 0x30B3 DUP2 PUSH2 0x2FCA JUMP JUMPDEST DUP3 MSTORE POP POP JUMP JUMPDEST PUSH0 DUP2 MLOAD SWAP1 POP SWAP2 SWAP1 POP JUMP JUMPDEST PUSH0 DUP3 DUP3 MSTORE PUSH1 0x20 DUP3 ADD SWAP1 POP SWAP3 SWAP2 POP POP JUMP JUMPDEST PUSH0 JUMPDEST DUP4 DUP2 LT ISZERO PUSH2 0x30F0 JUMPI DUP1 DUP3 ADD MLOAD DUP2 DUP5 ADD MSTORE PUSH1 0x20 DUP2 ADD SWAP1 POP PUSH2 0x30D5 JUMP JUMPDEST PUSH0 DUP5 DUP5 ADD MSTORE POP POP POP POP JUMP JUMPDEST PUSH0 PUSH1 0x1F NOT PUSH1 0x1F DUP4 ADD AND SWAP1 POP SWAP2 SWAP1 POP JUMP JUMPDEST PUSH0 PUSH2 0x3115 DUP3 PUSH2 0x30B9 JUMP JUMPDEST PUSH2 0x311F DUP2 DUP6 PUSH2 0x30C3 JUMP JUMPDEST SWAP4 POP PUSH2 0x312F DUP2 DUP6 PUSH1 0x20 DUP7 ADD PUSH2 0x30D3 JUMP JUMPDEST PUSH2 0x3138 DUP2 PUSH2 0x30FB JUMP JUMPDEST DUP5 ADD SWAP2 POP POP SWAP3 SWAP2 POP POP JUMP JUMPDEST PUSH0 PUSH1 0xFF DUP3 AND SWAP1 POP SWAP2 SWAP1 POP JUMP JUMPDEST PUSH2 0x3158 DUP2 PUSH2 0x3143 JUMP JUMPDEST DUP3 MSTORE POP POP JUMP JUMPDEST PUSH0 PUSH1 0x80 DUP4 ADD PUSH0 DUP4 ADD MLOAD PUSH2 0x3173 PUSH0 DUP7 ADD DUP3 PUSH2 0x30AA JUMP JUMPDEST POP PUSH1 0x20 DUP4 ADD MLOAD DUP5 DUP3 SUB PUSH1 0x20 DUP7 ADD MSTORE PUSH2 0x318B DUP3 DUP3 PUSH2 0x310B JUMP JUMPDEST SWAP2 POP POP PUSH1 0x40 DUP4 ADD MLOAD PUSH2 0x31A0 PUSH1 0x40 DUP7 ADD DUP3 PUSH2 0x314F JUMP JUMPDEST POP PUSH1 0x60 DUP4 ADD MLOAD DUP5 DUP3 SUB PUSH1 0x60 DUP7 ADD MSTORE PUSH2 0x31B8 DUP3 DUP3 PUSH2 0x310B JUMP JUMPDEST SWAP2 POP POP DUP1 SWAP2 POP POP SWAP3 SWAP2 POP POP JUMP JUMPDEST PUSH0 PUSH1 0xA0 DUP4 ADD PUSH0 DUP4 ADD MLOAD DUP5 DUP3 SUB PUSH0 DUP7 ADD MSTORE PUSH2 0x31DF DUP3 DUP3 PUSH2 0x310B JUMP JUMPDEST SWAP2 POP POP PUSH1 0x20 DUP4 ADD MLOAD DUP5 DUP3 SUB PUSH1 0x20 DUP7 ADD MSTORE PUSH2 0x31F9 DUP3 DUP3 PUSH2 0x310B JUMP JUMPDEST SWAP2 POP POP PUSH1 0x40 DUP4 ADD MLOAD DUP5 DUP3 SUB PUSH1 0x40 DUP7 ADD MSTORE PUSH2 0x3213 DUP3 DUP3 PUSH2 0x310B JUMP JUMPDEST SWAP2 POP POP PUSH1 0x60 DUP4 ADD MLOAD PUSH2 0x3228 PUSH1 0x60 DUP7 ADD DUP3 PUSH2 0x30AA JUMP JUMPDEST POP PUSH1 0x80 DUP4 ADD MLOAD PUSH2 0x323B PUSH1 0x80 DUP7 ADD DUP3 PUSH2 0x314F JUMP JUMPDEST POP DUP1 SWAP2 POP POP SWAP3 SWAP2 POP POP JUMP JUMPDEST PUSH0 PUSH1 0x80 DUP4 ADD PUSH0 DUP4 ADD MLOAD DUP5 DUP3 SUB PUSH0 DUP7 ADD MSTORE PUSH2 0x3260 DUP3 DUP3 PUSH2 0x310B JUMP JUMPDEST SWAP2 POP POP PUSH1 0x20 DUP4 ADD MLOAD DUP5 DUP3 SUB PUSH1 0x20 DUP7 ADD MSTORE PUSH2 0x327A DUP3 DUP3 PUSH2 0x310B JUMP JUMPDEST SWAP2 POP POP PUSH1 0x40 DUP4 ADD MLOAD PUSH2 0x328F PUSH1 0x40 DUP7 ADD DUP3 PUSH2 0x30AA JUMP JUMPDEST POP PUSH1 0x60 DUP4 ADD MLOAD PUSH2 0x32A2 PUSH1 0x60 DUP7 ADD DUP3 PUSH2 0x314F JUMP JUMPDEST POP DUP1 SWAP2 POP POP SWAP3 SWAP2 POP POP JUMP JUMPDEST PUSH0 PUSH1 0xA0 DUP4 ADD PUSH0 DUP4 ADD MLOAD DUP5 DUP3 SUB PUSH0 DUP7 ADD MSTORE PUSH2 0x32C7 DUP3 DUP3 PUSH2 0x310B JUMP JUMPDEST SWAP2 POP POP PUSH1 0x20 DUP4 ADD MLOAD DUP5 DUP3 SUB PUSH1 0x20 DUP7 ADD MSTORE PUSH2 0x32E1 DUP3 DUP3 PUSH2 0x310B JUMP JUMPDEST SWAP2 POP POP PUSH1 0x40 DUP4 ADD MLOAD DUP5 DUP3 SUB PUSH1 0x40 DUP7 ADD MSTORE PUSH2 0x32FB DUP3 DUP3 PUSH2 0x310B JUMP JUMPDEST SWAP2 POP POP PUSH1 0x60 DUP4 ADD MLOAD PUSH2 0x3310 PUSH1 0x60 DUP7 ADD DUP3 PUSH2 0x30AA JUMP JUMPDEST POP PUSH1 0x80 DUP4 ADD MLOAD DUP5 DUP3 SUB PUSH1 0x80 DUP7 ADD MSTORE PUSH2 0x3328 DUP3 DUP3 PUSH2 0x310B JUMP JUMPDEST SWAP2 POP POP DUP1 SWAP2 POP POP SWAP3 SWAP2 POP POP JUMP JUMPDEST PUSH0 PUSH1 0xA0 DUP4 ADD PUSH0 DUP4 ADD MLOAD DUP5 DUP3 SUB PUSH0 DUP7 ADD MSTORE PUSH2 0x334F DUP3 DUP3 PUSH2 0x310B JUMP JUMPDEST SWAP2 POP POP PUSH1 0x20 DUP4 ADD MLOAD DUP5 DUP3 SUB PUSH1 0x20 DUP7 ADD MSTORE PUSH2 0x3369 DUP3 DUP3 PUSH2 0x310B JUMP JUMPDEST SWAP2 POP POP PUSH1 0x40 DUP4 ADD MLOAD DUP5 DUP3 SUB PUSH1 0x40 DUP7 ADD MSTORE PUSH2 0x3383 DUP3 DUP3 PUSH2 0x310B JUMP JUMPDEST SWAP2 POP POP PUSH1 0x60 DUP4 ADD MLOAD PUSH2 0x3398 PUSH1 0x60 DUP7 ADD DUP3 PUSH2 0x30AA JUMP JUMPDEST POP PUSH1 0x80 DUP4 ADD MLOAD PUSH2 0x33AB PUSH1 0x80 DUP7 ADD DUP3 PUSH2 0x314F JUMP JUMPDEST POP DUP1 SWAP2 POP POP SWAP3 SWAP2 POP POP JUMP JUMPDEST PUSH0 PUSH1 0x80 DUP4 ADD PUSH0 DUP4 ADD MLOAD DUP5 DUP3 SUB PUSH0 DUP7 ADD MSTORE PUSH2 0x33D0 DUP3 DUP3 PUSH2 0x310B JUMP JUMPDEST SWAP2 POP POP PUSH1 0x20 DUP4 ADD MLOAD DUP5 DUP3 SUB PUSH1 0x20 DUP7 ADD MSTORE PUSH2 0x33EA DUP3 DUP3 PUSH2 0x310B JUMP JUMPDEST SWAP2 POP POP PUSH1 0x40 DUP4 ADD MLOAD PUSH2 0x33FF PUSH1 0x40 DUP7 ADD DUP3 PUSH2 0x30AA JUMP JUMPDEST POP PUSH1 0x60 DUP4 ADD MLOAD PUSH2 0x3412 PUSH1 0x60 DUP7 ADD DUP3 PUSH2 0x314F JUMP JUMPDEST POP DUP1 SWAP2 POP POP SWAP3 SWAP2 POP POP JUMP JUMPDEST PUSH0 PUSH2 0x100 DUP3 ADD SWAP1 POP PUSH2 0x3431 PUSH0 DUP4 ADD DUP12 PUSH2 0x3028 JUMP JUMPDEST PUSH2 0x343E PUSH1 0x20 DUP4 ADD DUP11 PUSH2 0x309B JUMP JUMPDEST DUP2 DUP2 SUB PUSH1 0x40 DUP4 ADD MSTORE PUSH2 0x3450 DUP2 DUP10 PUSH2 0x315E JUMP JUMPDEST SWAP1 POP DUP2 DUP2 SUB PUSH1 0x60 DUP4 ADD MSTORE PUSH2 0x3464 DUP2 DUP9 PUSH2 0x31C5 JUMP JUMPDEST SWAP1 POP DUP2 DUP2 SUB PUSH1 0x80 DUP4 ADD MSTORE PUSH2 0x3478 DUP2 DUP8 PUSH2 0x3246 JUMP JUMPDEST SWAP1 POP DUP2 DUP2 SUB PUSH1 0xA0 DUP4 ADD MSTORE PUSH2 0x348C DUP2 DUP7 PUSH2 0x32AD JUMP JUMPDEST SWAP1 POP DUP2 DUP2 SUB PUSH1 0xC0 DUP4 ADD MSTORE PUSH2 0x34A0 DUP2 DUP6 PUSH2 0x3335 JUMP JUMPDEST SWAP1 POP DUP2 DUP2 SUB PUSH1 0xE0 DUP4 ADD MSTORE PUSH2 0x34B4 DUP2 DUP5 PUSH2 0x33B6 JUMP JUMPDEST SWAP1 POP SWAP10 SWAP9 POP POP POP POP POP POP POP POP POP JUMP JUMPDEST PUSH2 0x34CC DUP2 PUSH2 0x308A JUMP JUMPDEST DUP3 MSTORE POP POP JUMP JUMPDEST PUSH0 PUSH1 0x80 DUP4 ADD PUSH0 DUP4 ADD MLOAD PUSH2 0x34E7 PUSH0 DUP7 ADD DUP3 PUSH2 0x30AA JUMP JUMPDEST POP PUSH1 0x20 DUP4 ADD MLOAD DUP5 DUP3 SUB PUSH1 0x20 DUP7 ADD MSTORE PUSH2 0x34FF DUP3 DUP3 PUSH2 0x310B JUMP JUMPDEST SWAP2 POP POP PUSH1 0x40 DUP4 ADD MLOAD PUSH2 0x3514 PUSH1 0x40 DUP7 ADD DUP3 PUSH2 0x314F JUMP JUMPDEST POP PUSH1 0x60 DUP4 ADD MLOAD DUP5 DUP3 SUB PUSH1 0x60 DUP7 ADD MSTORE PUSH2 0x352C DUP3 DUP3 PUSH2 0x310B JUMP JUMPDEST SWAP2 POP POP DUP1 SWAP2 POP POP SWAP3 SWAP2 POP POP JUMP JUMPDEST PUSH0 PUSH1 0xA0 DUP4 ADD PUSH0 DUP4 ADD MLOAD DUP5 DUP3 SUB PUSH0 DUP7 ADD MSTORE PUSH2 0x3553 DUP3 DUP3 PUSH2 0x310B JUMP JUMPDEST SWAP2 POP POP PUSH1 0x20 DUP4 ADD MLOAD DUP5 DUP3 SUB PUSH1 0x20 DUP7 ADD MSTORE PUSH2 0x356D DUP3 DUP3 PUSH2 0x310B JUMP JUMPDEST SWAP2 POP POP PUSH1 0x40 DUP4 ADD MLOAD DUP5 DUP3 SUB PUSH1 0x40 DUP7 ADD MSTORE PUSH2 0x3587 DUP3 DUP3 PUSH2 0x310B JUMP JUMPDEST SWAP2 POP POP PUSH1 0x60 DUP4 ADD MLOAD PUSH2 0x359C PUSH1 0x60 DUP7 ADD DUP3 PUSH2 0x30AA JUMP JUMPDEST POP PUSH1 0x80 DUP4 ADD MLOAD PUSH2 0x35AF PUSH1 0x80 DUP7 ADD DUP3 PUSH2 0x314F JUMP JUMPDEST POP DUP1 SWAP2 POP POP SWAP3 SWAP2 POP POP JUMP JUMPDEST PUSH0 PUSH1 0x80 DUP4 ADD PUSH0 DUP4 ADD MLOAD DUP5 DUP3 SUB PUSH0 DUP7 ADD MSTORE PUSH2 0x35D4 DUP3 DUP3 PUSH2 0x310B JUMP JUMPDEST SWAP2 POP POP PUSH1 0x20 DUP4 ADD MLOAD DUP5 DUP3 SUB PUSH1 0x20 DUP7 ADD MSTORE PUSH2 0x35EE DUP3 DUP3 PUSH2 0x310B JUMP JUMPDEST SWAP2 POP POP PUSH1 0x40 DUP4 ADD MLOAD PUSH2 0x3603 PUSH1 0x40 DUP7 ADD DUP3 PUSH2 0x30AA JUMP JUMPDEST POP PUSH1 0x60 DUP4 ADD MLOAD PUSH2 0x3616 PUSH1 0x60 DUP7 ADD DUP3 PUSH2 0x314F JUMP JUMPDEST POP DUP1 SWAP2 POP POP SWAP3 SWAP2 POP POP JUMP JUMPDEST PUSH0 PUSH1 0xA0 DUP4 ADD PUSH0 DUP4 ADD MLOAD DUP5 DUP3 SUB PUSH0 DUP7 ADD MSTORE PUSH2 0x363B DUP3 DUP3 PUSH2 0x310B JUMP JUMPDEST SWAP2 POP POP PUSH1 0x20 DUP4 ADD MLOAD DUP5 DUP3 SUB PUSH1 0x20 DUP7 ADD MSTORE PUSH2 0x3655 DUP3 DUP3 PUSH2 0x310B JUMP JUMPDEST SWAP2 POP POP PUSH1 0x40 DUP4 ADD MLOAD DUP5 DUP3 SUB PUSH1 0x40 DUP7 ADD MSTORE PUSH2 0x366F DUP3 DUP3 PUSH2 0x310B JUMP JUMPDEST SWAP2 POP POP PUSH1 0x60 DUP4 ADD MLOAD PUSH2 0x3684 PUSH1 0x60 DUP7 ADD DUP3 PUSH2 0x30AA JUMP JUMPDEST POP PUSH1 0x80 DUP4 ADD MLOAD DUP5 DUP3 SUB PUSH1 0x80 DUP7 ADD MSTORE PUSH2 0x369C DUP3 DUP3 PUSH2 0x310B JUMP JUMPDEST SWAP2 POP POP DUP1 SWAP2 POP POP SWAP3 SWAP2 POP POP JUMP JUMPDEST PUSH0 PUSH1 0xA0 DUP4 ADD PUSH0 DUP4 ADD MLOAD DUP5 DUP3 SUB PUSH0 DUP7 ADD MSTORE PUSH2 0x36C3 DUP3 DUP3 PUSH2 0x310B JUMP JUMPDEST SWAP2 POP POP PUSH1 0x20 DUP4 ADD MLOAD DUP5 DUP3 SUB PUSH1 0x20 DUP7 ADD MSTORE PUSH2 0x36DD DUP3 DUP3 PUSH2 0x310B JUMP JUMPDEST SWAP2 POP POP PUSH1 0x40 DUP4 ADD MLOAD DUP5 DUP3 SUB PUSH1 0x40 DUP7 ADD MSTORE PUSH2 0x36F7 DUP3 DUP3 PUSH2 0x310B JUMP JUMPDEST SWAP2 POP POP PUSH1 0x60 DUP4 ADD MLOAD PUSH2 0x370C PUSH1 0x60 DUP7 ADD DUP3 PUSH2 0x30AA JUMP JUMPDEST POP PUSH1 0x80 DUP4 ADD MLOAD PUSH2 0x371F PUSH1 0x80 DUP7 ADD DUP3 PUSH2 0x314F JUMP JUMPDEST POP DUP1 SWAP2 POP POP SWAP3 SWAP2 POP POP JUMP JUMPDEST PUSH0 PUSH1 0x80 DUP4 ADD PUSH0 DUP4 ADD MLOAD DUP5 DUP3 SUB PUSH0 DUP7 ADD MSTORE PUSH2 0x3744 DUP3 DUP3 PUSH2 0x310B JUMP JUMPDEST SWAP2 POP POP PUSH1 0x20 DUP4 ADD MLOAD DUP5 DUP3 SUB PUSH1 0x20 DUP7 ADD MSTORE PUSH2 0x375E DUP3 DUP3 PUSH2 0x310B JUMP JUMPDEST SWAP2 POP POP PUSH1 0x40 DUP4 ADD MLOAD PUSH2 0x3773 PUSH1 0x40 DUP7 ADD DUP3 PUSH2 0x30AA JUMP JUMPDEST POP PUSH1 0x60 DUP4 ADD MLOAD PUSH2 0x3786 PUSH1 0x60 DUP7 ADD DUP3 PUSH2 0x314F JUMP JUMPDEST POP DUP1 SWAP2 POP POP SWAP3 SWAP2 POP POP JUMP JUMPDEST PUSH0 PUSH2 0x100 DUP4 ADD PUSH0 DUP4 ADD MLOAD PUSH2 0x37A7 PUSH0 DUP7 ADD DUP3 PUSH2 0x30AA JUMP JUMPDEST POP PUSH1 0x20 DUP4 ADD MLOAD PUSH2 0x37BA PUSH1 0x20 DUP7 ADD DUP3 PUSH2 0x34C3 JUMP JUMPDEST POP PUSH1 0x40 DUP4 ADD MLOAD DUP5 DUP3 SUB PUSH1 0x40 DUP7 ADD MSTORE PUSH2 0x37D2 DUP3 DUP3 PUSH2 0x34D2 JUMP JUMPDEST SWAP2 POP POP PUSH1 0x60 DUP4 ADD MLOAD DUP5 DUP3 SUB PUSH1 0x60 DUP7 ADD MSTORE PUSH2 0x37EC DUP3 DUP3 PUSH2 0x3539 JUMP JUMPDEST SWAP2 POP POP PUSH1 0x80 DUP4 ADD MLOAD DUP5 DUP3 SUB PUSH1 0x80 DUP7 ADD MSTORE PUSH2 0x3806 DUP3 DUP3 PUSH2 0x35BA JUMP JUMPDEST SWAP2 POP POP PUSH1 0xA0 DUP4 ADD MLOAD DUP5 DUP3 SUB PUSH1 0xA0 DUP7 ADD MSTORE PUSH2 0x3820 DUP3 DUP3 PUSH2 0x3621 JUMP JUMPDEST SWAP2 POP POP PUSH1 0xC0 DUP4 ADD MLOAD DUP5 DUP3 SUB PUSH1 0xC0 DUP7 ADD MSTORE PUSH2 0x383A DUP3 DUP3 PUSH2 0x36A9 JUMP JUMPDEST SWAP2 POP POP PUSH1 0xE0 DUP4 ADD MLOAD DUP5 DUP3 SUB PUSH1 0xE0 DUP7 ADD MSTORE PUSH2 0x3854 DUP3 DUP3 PUSH2 0x372A JUMP JUMPDEST SWAP2 POP POP DUP1 SWAP2 POP POP SWAP3 SWAP2 POP POP JUMP JUMPDEST PUSH0 PUSH1 0x20 DUP3 ADD SWAP1 POP DUP2 DUP2 SUB PUSH0 DUP4 ADD MSTORE PUSH2 0x3879 DUP2 DUP5 PUSH2 0x3791 JUMP JUMPDEST SWAP1 POP SWAP3 SWAP2 POP POP JUMP JUMPDEST PUSH0 DUP1 REVERT JUMPDEST PUSH0 DUP1 REVERT JUMPDEST PUSH32 0x4E487B7100000000000000000000000000000000000000000000000000000000 PUSH0 MSTORE PUSH1 0x41 PUSH1 0x4 MSTORE PUSH1 0x24 PUSH0 REVERT JUMPDEST PUSH2 0x38BF DUP3 PUSH2 0x30FB JUMP JUMPDEST DUP2 ADD DUP2 DUP2 LT PUSH8 0xFFFFFFFFFFFFFFFF DUP3 GT OR ISZERO PUSH2 0x38DE JUMPI PUSH2 0x38DD PUSH2 0x3889 JUMP JUMPDEST JUMPDEST DUP1 PUSH1 0x40 MSTORE POP POP POP JUMP JUMPDEST PUSH0 PUSH2 0x38F0 PUSH2 0x2FB9 JUMP JUMPDEST SWAP1 POP PUSH2 0x38FC DUP3 DUP3 PUSH2 0x38B6 JUMP JUMPDEST SWAP2 SWAP1 POP JUMP JUMPDEST PUSH0 PUSH8 0xFFFFFFFFFFFFFFFF DUP3 GT ISZERO PUSH2 0x391B JUMPI PUSH2 0x391A PUSH2 0x3889 JUMP JUMPDEST JUMPDEST PUSH2 0x3924 DUP3 PUSH2 0x30FB JUMP JUMPDEST SWAP1 POP PUSH1 0x20 DUP2 ADD SWAP1 POP SWAP2 SWAP1 POP JUMP JUMPDEST DUP3 DUP2 DUP4 CALLDATACOPY PUSH0 DUP4 DUP4 ADD MSTORE POP POP POP JUMP JUMPDEST PUSH0 PUSH2 0x3951 PUSH2 0x394C DUP5 PUSH2 0x3901 JUMP JUMPDEST PUSH2 0x38E7 JUMP JUMPDEST SWAP1 POP DUP3 DUP2 MSTORE PUSH1 0x20 DUP2 ADD DUP5 DUP5 DUP5 ADD GT ISZERO PUSH2 0x396D JUMPI PUSH2 0x396C PUSH2 0x3885 JUMP JUMPDEST JUMPDEST PUSH2 0x3978 DUP5 DUP3 DUP6 PUSH2 0x3931 JUMP JUMPDEST POP SWAP4 SWAP3 POP POP POP JUMP JUMPDEST PUSH0 DUP3 PUSH1 0x1F DUP4 ADD SLT PUSH2 0x3994 JUMPI PUSH2 0x3993 PUSH2 0x3881 JUMP JUMPDEST JUMPDEST DUP2 CALLDATALOAD PUSH2 0x39A4 DUP5 DUP3 PUSH1 0x20 DUP7 ADD PUSH2 0x393F JUMP JUMPDEST SWAP2 POP POP SWAP3 SWAP2 POP POP JUMP JUMPDEST PUSH2 0x39B6 DUP2 PUSH2 0x3143 JUMP JUMPDEST DUP2 EQ PUSH2 0x39C0 JUMPI PUSH0 DUP1 REVERT JUMPDEST POP JUMP JUMPDEST PUSH0 DUP2 CALLDATALOAD SWAP1 POP PUSH2 0x39D1 DUP2 PUSH2 0x39AD JUMP JUMPDEST SWAP3 SWAP2 POP POP JUMP JUMPDEST PUSH0 DUP1 PUSH0 DUP1 PUSH0 DUP1 PUSH0 DUP1 PUSH2 0x100 DUP10 DUP12 SUB SLT ISZERO PUSH2 0x39F4 JUMPI PUSH2 0x39F3 PUSH2 0x2FC2 JUMP JUMPDEST JUMPDEST PUSH0 DUP10 ADD CALLDATALOAD PUSH8 0xFFFFFFFFFFFFFFFF DUP2 GT ISZERO PUSH2 0x3A11 JUMPI PUSH2 0x3A10 PUSH2 0x2FC6 JUMP JUMPDEST JUMPDEST PUSH2 0x3A1D DUP12 DUP3 DUP13 ADD PUSH2 0x3980 JUMP JUMPDEST SWAP9 POP POP PUSH1 0x20 PUSH2 0x3A2E DUP12 DUP3 DUP13 ADD PUSH2 0x39C3 JUMP JUMPDEST SWAP8 POP POP PUSH1 0x40 DUP10 ADD CALLDATALOAD PUSH8 0xFFFFFFFFFFFFFFFF DUP2 GT ISZERO PUSH2 0x3A4F JUMPI PUSH2 0x3A4E PUSH2 0x2FC6 JUMP JUMPDEST JUMPDEST PUSH2 0x3A5B DUP12 DUP3 DUP13 ADD PUSH2 0x3980 JUMP JUMPDEST SWAP7 POP POP PUSH1 0x60 DUP10 ADD CALLDATALOAD PUSH8 0xFFFFFFFFFFFFFFFF DUP2 GT ISZERO PUSH2 0x3A7C JUMPI PUSH2 0x3A7B PUSH2 0x2FC6 JUMP JUMPDEST JUMPDEST PUSH2 0x3A88 DUP12 DUP3 DUP13 ADD PUSH2 0x3980 JUMP JUMPDEST SWAP6 POP POP PUSH1 0x80 DUP10 ADD CALLDATALOAD PUSH8 0xFFFFFFFFFFFFFFFF DUP2 GT ISZERO PUSH2 0x3AA9 JUMPI PUSH2 0x3AA8 PUSH2 0x2FC6 JUMP JUMPDEST JUMPDEST PUSH2 0x3AB5 DUP12 DUP3 DUP13 ADD PUSH2 0x3980 JUMP JUMPDEST SWAP5 POP POP PUSH1 0xA0 DUP10 ADD CALLDATALOAD PUSH8 0xFFFFFFFFFFFFFFFF DUP2 GT ISZERO PUSH2 0x3AD6 JUMPI PUSH2 0x3AD5 PUSH2 0x2FC6 JUMP JUMPDEST JUMPDEST PUSH2 0x3AE2 DUP12 DUP3 DUP13 ADD PUSH2 0x3980 JUMP JUMPDEST SWAP4 POP POP PUSH1 0xC0 PUSH2 0x3AF3 DUP12 DUP3 DUP13 ADD PUSH2 0x2FE9 JUMP JUMPDEST SWAP3 POP POP PUSH1 0xE0 PUSH2 0x3B04 DUP12 DUP3 DUP13 ADD PUSH2 0x39C3 JUMP JUMPDEST SWAP2 POP POP SWAP3 SWAP6 SWAP9 POP SWAP3 SWAP6 SWAP9 SWAP1 SWAP4 SWAP7 POP JUMP JUMPDEST PUSH0 PUSH1 0x20 DUP3 ADD SWAP1 POP PUSH2 0x3B27 PUSH0 DUP4 ADD DUP5 PUSH2 0x3028 JUMP JUMPDEST SWAP3 SWAP2 POP POP JUMP JUMPDEST PUSH0 DUP1 PUSH0 DUP1 PUSH0 DUP1 PUSH0 PUSH1 0xE0 DUP9 DUP11 SUB SLT ISZERO PUSH2 0x3B48 JUMPI PUSH2 0x3B47 PUSH2 0x2FC2 JUMP JUMPDEST JUMPDEST PUSH0 DUP9 ADD CALLDATALOAD PUSH8 0xFFFFFFFFFFFFFFFF DUP2 GT ISZERO PUSH2 0x3B65 JUMPI PUSH2 0x3B64 PUSH2 0x2FC6 JUMP JUMPDEST JUMPDEST PUSH2 0x3B71 DUP11 DUP3 DUP12 ADD PUSH2 0x3980 JUMP JUMPDEST SWAP8 POP POP PUSH1 0x20 PUSH2 0x3B82 DUP11 DUP3 DUP12 ADD PUSH2 0x39C3 JUMP JUMPDEST SWAP7 POP POP PUSH1 0x40 DUP9 ADD CALLDATALOAD PUSH8 0xFFFFFFFFFFFFFFFF DUP2 GT ISZERO PUSH2 0x3BA3 JUMPI PUSH2 0x3BA2 PUSH2 0x2FC6 JUMP JUMPDEST JUMPDEST PUSH2 0x3BAF DUP11 DUP3 DUP12 ADD PUSH2 0x3980 JUMP JUMPDEST SWAP6 POP POP PUSH1 0x60 DUP9 ADD CALLDATALOAD PUSH8 0xFFFFFFFFFFFFFFFF DUP2 GT ISZERO PUSH2 0x3BD0 JUMPI PUSH2 0x3BCF PUSH2 0x2FC6 JUMP JUMPDEST JUMPDEST PUSH2 0x3BDC DUP11 DUP3 DUP12 ADD PUSH2 0x3980 JUMP JUMPDEST SWAP5 POP POP PUSH1 0x80 DUP9 ADD CALLDATALOAD PUSH8 0xFFFFFFFFFFFFFFFF DUP2 GT ISZERO PUSH2 0x3BFD JUMPI PUSH2 0x3BFC PUSH2 0x2FC6 JUMP JUMPDEST JUMPDEST PUSH2 0x3C09 DUP11 DUP3 DUP12 ADD PUSH2 0x3980 JUMP JUMPDEST SWAP4 POP POP PUSH1 0xA0 PUSH2 0x3C1A DUP11 DUP3 DUP12 ADD PUSH2 0x2FE9 JUMP JUMPDEST SWAP3 POP POP PUSH1 0xC0 PUSH2 0x3C2B DUP11 DUP3 DUP12 ADD PUSH2 0x39C3 JUMP JUMPDEST SWAP2 POP POP SWAP3 SWAP6 SWAP9 SWAP2 SWAP5 SWAP8 POP SWAP3 SWAP6 POP JUMP JUMPDEST PUSH0 DUP1 PUSH0 DUP1 PUSH0 DUP1 PUSH0 DUP1 PUSH2 0x100 DUP10 DUP12 SUB SLT ISZERO PUSH2 0x3C57 JUMPI PUSH2 0x3C56 PUSH2 0x2FC2 JUMP JUMPDEST JUMPDEST PUSH0 DUP10 ADD CALLDATALOAD PUSH8 0xFFFFFFFFFFFFFFFF DUP2 GT ISZERO PUSH2 0x3C74 JUMPI PUSH2 0x3C73 PUSH2 0x2FC6 JUMP JUMPDEST JUMPDEST PUSH2 0x3C80 DUP12 DUP3 DUP13 ADD PUSH2 0x3980 JUMP JUMPDEST SWAP9 POP POP PUSH1 0x20 PUSH2 0x3C91 DUP12 DUP3 DUP13 ADD PUSH2 0x39C3 JUMP JUMPDEST SWAP8 POP POP PUSH1 0x40 DUP10 ADD CALLDATALOAD PUSH8 0xFFFFFFFFFFFFFFFF DUP2 GT ISZERO PUSH2 0x3CB2 JUMPI PUSH2 0x3CB1 PUSH2 0x2FC6 JUMP JUMPDEST JUMPDEST PUSH2 0x3CBE DUP12 DUP3 DUP13 ADD PUSH2 0x3980 JUMP JUMPDEST SWAP7 POP POP PUSH1 0x60 DUP10 ADD CALLDATALOAD PUSH8 0xFFFFFFFFFFFFFFFF DUP2 GT ISZERO PUSH2 0x3CDF JUMPI PUSH2 0x3CDE PUSH2 0x2FC6 JUMP JUMPDEST JUMPDEST PUSH2 0x3CEB DUP12 DUP3 DUP13 ADD PUSH2 0x3980 JUMP JUMPDEST SWAP6 POP POP PUSH1 0x80 DUP10 ADD CALLDATALOAD PUSH8 0xFFFFFFFFFFFFFFFF DUP2 GT ISZERO PUSH2 0x3D0C JUMPI PUSH2 0x3D0B PUSH2 0x2FC6 JUMP JUMPDEST JUMPDEST PUSH2 0x3D18 DUP12 DUP3 DUP13 ADD PUSH2 0x3980 JUMP JUMPDEST SWAP5 POP POP PUSH1 0xA0 DUP10 ADD CALLDATALOAD PUSH8 0xFFFFFFFFFFFFFFFF DUP2 GT ISZERO PUSH2 0x3D39 JUMPI PUSH2 0x3D38 PUSH2 0x2FC6 JUMP JUMPDEST JUMPDEST PUSH2 0x3D45 DUP12 DUP3 DUP13 ADD PUSH2 0x3980 JUMP JUMPDEST SWAP4 POP POP PUSH1 0xC0 PUSH2 0x3D56 DUP12 DUP3 DUP13 ADD PUSH2 0x2FE9 JUMP JUMPDEST SWAP3 POP POP PUSH1 0xE0 DUP10 ADD CALLDATALOAD PUSH8 0xFFFFFFFFFFFFFFFF DUP2 GT ISZERO PUSH2 0x3D77 JUMPI PUSH2 0x3D76 PUSH2 0x2FC6 JUMP JUMPDEST JUMPDEST PUSH2 0x3D83 DUP12 DUP3 DUP13 ADD PUSH2 0x3980 JUMP JUMPDEST SWAP2 POP POP SWAP3 SWAP6 SWAP9 POP SWAP3 SWAP6 SWAP9 SWAP1 SWAP4 SWAP7 POP JUMP JUMPDEST PUSH32 0x4E487B7100000000000000000000000000000000000000000000000000000000 PUSH0 MSTORE PUSH1 0x22 PUSH1 0x4 MSTORE PUSH1 0x24 PUSH0 REVERT JUMPDEST PUSH0 PUSH1 0x2 DUP3 DIV SWAP1 POP PUSH1 0x1 DUP3 AND DUP1 PUSH2 0x3DD7 JUMPI PUSH1 0x7F DUP3 AND SWAP2 POP JUMPDEST PUSH1 0x20 DUP3 LT DUP2 SUB PUSH2 0x3DEA JUMPI PUSH2 0x3DE9 PUSH2 0x3D93 JUMP JUMPDEST JUMPDEST POP SWAP2 SWAP1 POP JUMP JUMPDEST PUSH32 0x4E487B7100000000000000000000000000000000000000000000000000000000 PUSH0 MSTORE PUSH1 0x11 PUSH1 0x4 MSTORE PUSH1 0x24 PUSH0 REVERT JUMPDEST PUSH0 PUSH2 0x3E27 DUP3 PUSH2 0x2FCA JUMP JUMPDEST SWAP2 POP PUSH32 0xFFFFFFFFFFFFFFFFFFFFFFFFFFFFFFFFFFFFFFFFFFFFFFFFFFFFFFFFFFFFFFFF DUP3 SUB PUSH2 0x3E59 JUMPI PUSH2 0x3E58 PUSH2 0x3DF0 JUMP JUMPDEST JUMPDEST PUSH1 0x1 DUP3 ADD SWAP1 POP SWAP2 SWAP1 POP JUMP JUMPDEST PUSH0 DUP2 SWAP1 POP DUP2 PUSH0 MSTORE PUSH1 0x20 PUSH0 KECCAK256 SWAP1 POP SWAP2 SWAP1 POP JUMP JUMPDEST PUSH0 PUSH1 0x20 PUSH1 0x1F DUP4 ADD DIV SWAP1 POP SWAP2 SWAP1 POP JUMP JUMPDEST PUSH0 DUP3 DUP3 SHL SWAP1 POP SWAP3 SWAP2 POP POP JUMP JUMPDEST PUSH0 PUSH1 0x8 DUP4 MUL PUSH2 0x3EC0 PUSH32 0xFFFFFFFFFFFFFFFFFFFFFFFFFFFFFFFFFFFFFFFFFFFFFFFFFFFFFFFFFFFFFFFF DUP3 PUSH2 0x3E85 JUMP JUMPDEST PUSH2 0x3ECA DUP7 DUP4 PUSH2 0x3E85 JUMP JUMPDEST SWAP6 POP DUP1 NOT DUP5 AND SWAP4 POP DUP1 DUP7 AND DUP5 OR SWAP3 POP POP POP SWAP4 SWAP3 POP POP POP JUMP JUMPDEST PUSH0 DUP2 SWAP1 POP SWAP2 SWAP1 POP JUMP JUMPDEST PUSH0 PUSH2 0x3F05 PUSH2 0x3F00 PUSH2 0x3EFB DUP5 PUSH2 0x2FCA JUMP JUMPDEST PUSH2 0x3EE2 JUMP JUMPDEST PUSH2 0x2FCA JUMP JUMPDEST SWAP1 POP SWAP2 SWAP1 POP JUMP JUMPDEST PUSH0 DUP2 SWAP1 POP SWAP2 SWAP1 POP JUMP JUMPDEST PUSH2 0x3F1E DUP4 PUSH2 0x3EEB JUMP JUMPDEST PUSH2 0x3F32 PUSH2 0x3F2A DUP3 PUSH2 0x3F0C JUMP JUMPDEST DUP5 DUP5 SLOAD PUSH2 0x3E91 JUMP JUMPDEST DUP3 SSTORE POP POP POP POP JUMP JUMPDEST PUSH0 SWAP1 JUMP JUMPDEST PUSH2 0x3F46 PUSH2 0x3F3A JUMP JUMPDEST PUSH2 0x3F51 DUP2 DUP5 DUP5 PUSH2 0x3F15 JUMP JUMPDEST POP POP POP JUMP JUMPDEST JUMPDEST DUP2 DUP2 LT ISZERO PUSH2 0x3F74 JUMPI PUSH2 0x3F69 PUSH0 DUP3 PUSH2 0x3F3E JUMP JUMPDEST PUSH1 0x1 DUP2 ADD SWAP1 POP PUSH2 0x3F57 JUMP JUMPDEST POP POP JUMP JUMPDEST PUSH1 0x1F DUP3 GT ISZERO PUSH2 0x3FB9 JUMPI PUSH2 0x3F8A DUP2 PUSH2 0x3E64 JUMP JUMPDEST PUSH2 0x3F93 DUP5 PUSH2 0x3E76 JUMP JUMPDEST DUP2 ADD PUSH1 0x20 DUP6 LT ISZERO PUSH2 0x3FA2 JUMPI DUP2 SWAP1 POP JUMPDEST PUSH2 0x3FB6 PUSH2 0x3FAE DUP6 PUSH2 0x3E76 JUMP JUMPDEST DUP4 ADD DUP3 PUSH2 0x3F56 JUMP JUMPDEST POP POP JUMPDEST POP POP POP JUMP JUMPDEST PUSH0 DUP3 DUP3 SHR SWAP1 POP SWAP3 SWAP2 POP POP JUMP JUMPDEST PUSH0 PUSH2 0x3FD9 PUSH0 NOT DUP5 PUSH1 0x8 MUL PUSH2 0x3FBE JUMP JUMPDEST NOT DUP1 DUP4 AND SWAP2 POP POP SWAP3 SWAP2 POP POP JUMP JUMPDEST PUSH0 PUSH2 0x3FF1 DUP4 DUP4 PUSH2 0x3FCA JUMP JUMPDEST SWAP2 POP DUP3 PUSH1 0x2 MUL DUP3 OR SWAP1 POP SWAP3 SWAP2 POP POP JUMP JUMPDEST PUSH2 0x400A DUP3 PUSH2 0x30B9 JUMP JUMPDEST PUSH8 0xFFFFFFFFFFFFFFFF DUP2 GT ISZERO PUSH2 0x4023 JUMPI PUSH2 0x4022 PUSH2 0x3889 JUMP JUMPDEST JUMPDEST PUSH2 0x402D DUP3 SLOAD PUSH2 0x3DC0 JUMP JUMPDEST PUSH2 0x4038 DUP3 DUP3 DUP6 PUSH2 0x3F78 JUMP JUMPDEST PUSH0 PUSH1 0x20 SWAP1 POP PUSH1 0x1F DUP4 GT PUSH1 0x1 DUP2 EQ PUSH2 0x4069 JUMPI PUSH0 DUP5 ISZERO PUSH2 0x4057 JUMPI DUP3 DUP8 ADD MLOAD SWAP1 POP JUMPDEST PUSH2 0x4061 DUP6 DUP3 PUSH2 0x3FE6 JUMP JUMPDEST DUP7 SSTORE POP PUSH2 0x40C8 JUMP JUMPDEST PUSH1 0x1F NOT DUP5 AND PUSH2 0x4077 DUP7 PUSH2 0x3E64 JUMP JUMPDEST PUSH0 JUMPDEST DUP3 DUP2 LT ISZERO PUSH2 0x409E JUMPI DUP5 DUP10 ADD MLOAD DUP3 SSTORE PUSH1 0x1 DUP3 ADD SWAP2 POP PUSH1 0x20 DUP6 ADD SWAP5 POP PUSH1 0x20 DUP2 ADD SWAP1 POP PUSH2 0x4079 JUMP JUMPDEST DUP7 DUP4 LT ISZERO PUSH2 0x40BB JUMPI DUP5 DUP10 ADD MLOAD PUSH2 0x40B7 PUSH1 0x1F DUP10 AND DUP3 PUSH2 0x3FCA JUMP JUMPDEST DUP4 SSTORE POP JUMPDEST PUSH1 0x1 PUSH1 0x2 DUP9 MUL ADD DUP9 SSTORE POP POP POP JUMPDEST POP POP POP POP POP POP JUMP INVALID LOG2 PUSH5 0x6970667358 0x22 SLT KECCAK256 LOG2 0xF SWAP10 JUMP INVALID RETURN 0xB3 PUSH30 0x85CA015708BF5B030335BD71AA2A77244066559D7131DB5B64736F6C6343 STOP ADDMOD EQ STOP CALLER "
				},
				"gasEstimates": {
					"creation": {
						"codeDepositCost": "3329200",
						"executionCost": "3705",
						"totalCost": "3332905"
					},
					"external": {
						"bookAirlineTicket(string,uint8,string,string,string,string,uint256,string)": "infinite",
						"bookBusTicket(string,uint8,string,string,string,string,uint256,uint8)": "infinite",
						"bookCinemaTicket(string,uint8,string,string,string,uint256,uint8)": "infinite",
						"bookCricketTicket(string,uint8,string,string,string,uint256,uint8)": "infinite",
						"bookRailwayTicket(string,uint8,string,string,string,string,uint256,uint8)": "infinite",
						"bookings(uint256)": "infinite",
						"getBooking(uint256)": "infinite",
						"getTotalBookings()": "2499"
					}
				},
				"methodIdentifiers": {
					"bookAirlineTicket(string,uint8,string,string,string,string,uint256,string)": "e73f50ac",
					"bookBusTicket(string,uint8,string,string,string,string,uint256,uint8)": "6f1dcff2",
					"bookCinemaTicket(string,uint8,string,string,string,uint256,uint8)": "7d13d926",
					"bookCricketTicket(string,uint8,string,string,string,uint256,uint8)": "f99e7b70",
					"bookRailwayTicket(string,uint8,string,string,string,string,uint256,uint8)": "a21e0a63",
					"bookings(uint256)": "1dab301e",
					"getBooking(uint256)": "6a5c841a",
					"getTotalBookings()": "7b9f8420"
				}
			},
			"storageLayout": {
				"storage": [
					{
						"astId": 93,
						"contract": "ticket_booking_contract/ticket_booking.sol:BookingSite",
						"label": "bookingCounter",
						"offset": 0,
						"slot": "0",
						"type": "t_uint256"
					},
					{
						"astId": 98,
						"contract": "ticket_booking_contract/ticket_booking.sol:BookingSite",
						"label": "bookings",
						"offset": 0,
						"slot": "1",
						"type": "t_mapping(t_uint256,t_struct(BookingStruct)91_storage)"
					}
				],
				"types": {
					"t_enum(BookingType)7": {
						"encoding": "inplace",
						"label": "enum BookingSite.BookingType",
						"numberOfBytes": "1"
					},
					"t_mapping(t_uint256,t_struct(BookingStruct)91_storage)": {
						"encoding": "mapping",
						"key": "t_uint256",
						"label": "mapping(uint256 => struct BookingSite.BookingStruct)",
						"numberOfBytes": "32",
						"value": "t_struct(BookingStruct)91_storage"
					},
					"t_string_storage": {
						"encoding": "bytes",
						"label": "string",
						"numberOfBytes": "32"
					},
					"t_struct(AirlineBookingStruct)47_storage": {
						"encoding": "inplace",
						"label": "struct BookingSite.AirlineBookingStruct",
						"members": [
							{
								"astId": 38,
								"contract": "ticket_booking_contract/ticket_booking.sol:BookingSite",
								"label": "flightNumber",
								"offset": 0,
								"slot": "0",
								"type": "t_string_storage"
							},
							{
								"astId": 40,
								"contract": "ticket_booking_contract/ticket_booking.sol:BookingSite",
								"label": "origin",
								"offset": 0,
								"slot": "1",
								"type": "t_string_storage"
							},
							{
								"astId": 42,
								"contract": "ticket_booking_contract/ticket_booking.sol:BookingSite",
								"label": "destination",
								"offset": 0,
								"slot": "2",
								"type": "t_string_storage"
							},
							{
								"astId": 44,
								"contract": "ticket_booking_contract/ticket_booking.sol:BookingSite",
								"label": "dateOfJourney",
								"offset": 0,
								"slot": "3",
								"type": "t_uint256"
							},
							{
								"astId": 46,
								"contract": "ticket_booking_contract/ticket_booking.sol:BookingSite",
								"label": "seatClass",
								"offset": 0,
								"slot": "4",
								"type": "t_string_storage"
							}
						],
						"numberOfBytes": "160"
					},
					"t_struct(BookingStruct)91_storage": {
						"encoding": "inplace",
						"label": "struct BookingSite.BookingStruct",
						"members": [
							{
								"astId": 69,
								"contract": "ticket_booking_contract/ticket_booking.sol:BookingSite",
								"label": "bookingID",
								"offset": 0,
								"slot": "0",
								"type": "t_uint256"
							},
							{
								"astId": 72,
								"contract": "ticket_booking_contract/ticket_booking.sol:BookingSite",
								"label": "bookingType",
								"offset": 0,
								"slot": "1",
								"type": "t_enum(BookingType)7"
							},
							{
								"astId": 75,
								"contract": "ticket_booking_contract/ticket_booking.sol:BookingSite",
								"label": "user",
								"offset": 0,
								"slot": "2",
								"type": "t_struct(UserStruct)16_storage"
							},
							{
								"astId": 78,
								"contract": "ticket_booking_contract/ticket_booking.sol:BookingSite",
								"label": "busBooking",
								"offset": 0,
								"slot": "6",
								"type": "t_struct(BusBookingStruct)27_storage"
							},
							{
								"astId": 81,
								"contract": "ticket_booking_contract/ticket_booking.sol:BookingSite",
								"label": "cinemaBooking",
								"offset": 0,
								"slot": "11",
								"type": "t_struct(CinemaBookingStruct)36_storage"
							},
							{
								"astId": 84,
								"contract": "ticket_booking_contract/ticket_booking.sol:BookingSite",
								"label": "airlineBooking",
								"offset": 0,
								"slot": "15",
								"type": "t_struct(AirlineBookingStruct)47_storage"
							},
							{
								"astId": 87,
								"contract": "ticket_booking_contract/ticket_booking.sol:BookingSite",
								"label": "railwayBooking",
								"offset": 0,
								"slot": "20",
								"type": "t_struct(RailwayBookingStruct)58_storage"
							},
							{
								"astId": 90,
								"contract": "ticket_booking_contract/ticket_booking.sol:BookingSite",
								"label": "cricketBooking",
								"offset": 0,
								"slot": "25",
								"type": "t_struct(CricketBookingStruct)67_storage"
							}
						],
						"numberOfBytes": "928"
					},
					"t_struct(BusBookingStruct)27_storage": {
						"encoding": "inplace",
						"label": "struct BookingSite.BusBookingStruct",
						"members": [
							{
								"astId": 18,
								"contract": "ticket_booking_contract/ticket_booking.sol:BookingSite",
								"label": "busNumber",
								"offset": 0,
								"slot": "0",
								"type": "t_string_storage"
							},
							{
								"astId": 20,
								"contract": "ticket_booking_contract/ticket_booking.sol:BookingSite",
								"label": "origin",
								"offset": 0,
								"slot": "1",
								"type": "t_string_storage"
							},
							{
								"astId": 22,
								"contract": "ticket_booking_contract/ticket_booking.sol:BookingSite",
								"label": "destination",
								"offset": 0,
								"slot": "2",
								"type": "t_string_storage"
							},
							{
								"astId": 24,
								"contract": "ticket_booking_contract/ticket_booking.sol:BookingSite",
								"label": "dateOfJourney",
								"offset": 0,
								"slot": "3",
								"type": "t_uint256"
							},
							{
								"astId": 26,
								"contract": "ticket_booking_contract/ticket_booking.sol:BookingSite",
								"label": "seatNumber",
								"offset": 0,
								"slot": "4",
								"type": "t_uint8"
							}
						],
						"numberOfBytes": "160"
					},
					"t_struct(CinemaBookingStruct)36_storage": {
						"encoding": "inplace",
						"label": "struct BookingSite.CinemaBookingStruct",
						"members": [
							{
								"astId": 29,
								"contract": "ticket_booking_contract/ticket_booking.sol:BookingSite",
								"label": "movieName",
								"offset": 0,
								"slot": "0",
								"type": "t_string_storage"
							},
							{
								"astId": 31,
								"contract": "ticket_booking_contract/ticket_booking.sol:BookingSite",
								"label": "cinemaHall",
								"offset": 0,
								"slot": "1",
								"type": "t_string_storage"
							},
							{
								"astId": 33,
								"contract": "ticket_booking_contract/ticket_booking.sol:BookingSite",
								"label": "showTime",
								"offset": 0,
								"slot": "2",
								"type": "t_uint256"
							},
							{
								"astId": 35,
								"contract": "ticket_booking_contract/ticket_booking.sol:BookingSite",
								"label": "seatNumber",
								"offset": 0,
								"slot": "3",
								"type": "t_uint8"
							}
						],
						"numberOfBytes": "128"
					},
					"t_struct(CricketBookingStruct)67_storage": {
						"encoding": "inplace",
						"label": "struct BookingSite.CricketBookingStruct",
						"members": [
							{
								"astId": 60,
								"contract": "ticket_booking_contract/ticket_booking.sol:BookingSite",
								"label": "matchDetails",
								"offset": 0,
								"slot": "0",
								"type": "t_string_storage"
							},
							{
								"astId": 62,
								"contract": "ticket_booking_contract/ticket_booking.sol:BookingSite",
								"label": "stadium",
								"offset": 0,
								"slot": "1",
								"type": "t_string_storage"
							},
							{
								"astId": 64,
								"contract": "ticket_booking_contract/ticket_booking.sol:BookingSite",
								"label": "matchDate",
								"offset": 0,
								"slot": "2",
								"type": "t_uint256"
							},
							{
								"astId": 66,
								"contract": "ticket_booking_contract/ticket_booking.sol:BookingSite",
								"label": "seatNumber",
								"offset": 0,
								"slot": "3",
								"type": "t_uint8"
							}
						],
						"numberOfBytes": "128"
					},
					"t_struct(RailwayBookingStruct)58_storage": {
						"encoding": "inplace",
						"label": "struct BookingSite.RailwayBookingStruct",
						"members": [
							{
								"astId": 49,
								"contract": "ticket_booking_contract/ticket_booking.sol:BookingSite",
								"label": "trainNumber",
								"offset": 0,
								"slot": "0",
								"type": "t_string_storage"
							},
							{
								"astId": 51,
								"contract": "ticket_booking_contract/ticket_booking.sol:BookingSite",
								"label": "origin",
								"offset": 0,
								"slot": "1",
								"type": "t_string_storage"
							},
							{
								"astId": 53,
								"contract": "ticket_booking_contract/ticket_booking.sol:BookingSite",
								"label": "destination",
								"offset": 0,
								"slot": "2",
								"type": "t_string_storage"
							},
							{
								"astId": 55,
								"contract": "ticket_booking_contract/ticket_booking.sol:BookingSite",
								"label": "dateOfJourney",
								"offset": 0,
								"slot": "3",
								"type": "t_uint256"
							},
							{
								"astId": 57,
								"contract": "ticket_booking_contract/ticket_booking.sol:BookingSite",
								"label": "seatNumber",
								"offset": 0,
								"slot": "4",
								"type": "t_uint8"
							}
						],
						"numberOfBytes": "160"
					},
					"t_struct(UserStruct)16_storage": {
						"encoding": "inplace",
						"label": "struct BookingSite.UserStruct",
						"members": [
							{
								"astId": 9,
								"contract": "ticket_booking_contract/ticket_booking.sol:BookingSite",
								"label": "userID",
								"offset": 0,
								"slot": "0",
								"type": "t_uint256"
							},
							{
								"astId": 11,
								"contract": "ticket_booking_contract/ticket_booking.sol:BookingSite",
								"label": "name",
								"offset": 0,
								"slot": "1",
								"type": "t_string_storage"
							},
							{
								"astId": 13,
								"contract": "ticket_booking_contract/ticket_booking.sol:BookingSite",
								"label": "age",
								"offset": 0,
								"slot": "2",
								"type": "t_uint8"
							},
							{
								"astId": 15,
								"contract": "ticket_booking_contract/ticket_booking.sol:BookingSite",
								"label": "contactDetails",
								"offset": 0,
								"slot": "3",
								"type": "t_string_storage"
							}
						],
						"numberOfBytes": "128"
					},
					"t_uint256": {
						"encoding": "inplace",
						"label": "uint256",
						"numberOfBytes": "32"
					},
					"t_uint8": {
						"encoding": "inplace",
						"label": "uint8",
						"numberOfBytes": "1"
					}
				}
			},
			"userdoc": {
				"kind": "user",
				"methods": {},
				"version": 1
			}
		}
	}
}