{
	"data": {
		"bytecode": {
			"linkReferences": {},
			"object": "6080604052348015600e575f80fd5b506126dd8061001c5f395ff3fe608060405234801561000f575f80fd5b5060043610610086575f3560e01c806398851f111161005957806398851f111461014b578063b051e7181461017b578063ca3aa589146101ab578063d851bbbc146101db57610086565b80630c52e2851461008a5780632292c804146100bb5780635522ed14146100eb578063913347321461011b575b5f80fd5b6100a4600480360381019061009f9190611aae565b61020b565b6040516100b2929190611b29565b60405180910390f35b6100d560048036038101906100d09190611b50565b61035d565b6040516100e29190611ba8565b60405180910390f35b61010560048036038101906101009190611b50565b61039b565b6040516101129190611ffc565b60405180910390f35b61013560048036038101906101309190612062565b6107fb565b6040516101429190612133565b60405180910390f35b61016560048036038101906101609190612176565b6108d9565b6040516101729190612133565b60405180910390f35b61019560048036038101906101909190612222565b61099a565b6040516101a29190612133565b60405180910390f35b6101c560048036038101906101c09190612176565b610a78565b6040516101d29190612133565b60405180910390f35b6101f560048036038101906101f09190612176565b610b39565b6040516102029190612133565b60405180910390f35b5f805f5460015f5481548110610224576102236122ab565b5b905f5260205f2090601402015f01819055508460015f548154811061024c5761024b6122ab565b5b905f5260205f209060140201600201908161026791906124d2565b508360015f548154811061027e5761027d6122ab565b5b905f5260205f209060140201600301819055508260015f54815481106102a7576102a66122ab565b5b905f5260205f2090601402016004015f6101000a81548173ffffffffffffffffffffffffffffffffffffffff021916908373ffffffffffffffffffffffffffffffffffffffff160217905550600a5f5461030191906125ce565b60015f5481548110610316576103156122ab565b5b905f5260205f2090601402016001018190555060015f8082825461033a919061260f565b925050819055505f54600a5f5461035191906125ce565b91509150935093915050565b5f60018381548110610372576103716122ab565b5b905f5260205f2090601402016001015482036103915760019050610395565b5f90505b92915050565b6103a36116e9565b5f15156103b0848461035d565b151503156107f457600183815481106103cc576103cb6122ab565b5b905f5260205f209060140201604051806101400160405290815f82015481526020016001820154815260200160028201805461040790612305565b80601f016020809104026020016040519081016040528092919081815260200182805461043390612305565b801561047e5780601f106104555761010080835404028352916020019161047e565b820191905f5260205f20905b81548152906001019060200180831161046157829003601f168201915b5050505050815260200160038201548152602001600482015f9054906101000a900473ffffffffffffffffffffffffffffffffffffffff1673ffffffffffffffffffffffffffffffffffffffff1673ffffffffffffffffffffffffffffffffffffffff168152602001600582016040518060800160405290815f82015f9054906101000a900460ff16600281111561051957610518611c3f565b5b600281111561052b5761052a611c3f565b5b81526020015f820160019054906101000a900460ff16600281111561055357610552611c3f565b5b600281111561056557610564611c3f565b5b8152602001600182015481526020016002820154815250508152602001600882016040518060800160405290815f82015f9054906101000a900460ff1660028111156105b4576105b3611c3f565b5b60028111156105c6576105c5611c3f565b5b81526020015f820160019054906101000a900460ff1660028111156105ee576105ed611c3f565b5b6002811115610600576105ff611c3f565b5b8152602001600182015481526020016002820154815250508152602001600b82016040518060800160405290815f82015f9054906101000a900460ff16600281111561064f5761064e611c3f565b5b600281111561066157610660611c3f565b5b81526020015f820160019054906101000a900460ff16600281111561068957610688611c3f565b5b600281111561069b5761069a611c3f565b5b8152602001600182015481526020016002820154815250508152602001600e82016040518060800160405290815f82015f9054906101000a900460ff1660028111156106ea576106e9611c3f565b5b60028111156106fc576106fb611c3f565b5b81526020015f820160019054906101000a900460ff16600281111561072457610723611c3f565b5b600281111561073657610735611c3f565b5b8152602001600182015481526020016002820154815250508152602001601182016040518060800160405290815f82015f9054906101000a900460ff16600281111561078557610784611c3f565b5b600281111561079757610796611c3f565b5b81526020015f820160019054906101000a900460ff1660028111156107bf576107be611c3f565b5b60028111156107d1576107d0611c3f565b5b8152602001600182015481526020016002820154815250508152505090506107f5565b5b92915050565b6060805f610809898961035d565b90505f151581151503610853576040518060400160405280601b81526020017f20596f7520617265206e6f7420746865207265616c204f776e6572000000000081525091506108ca565b5f6108618a89898989610c17565b905060011515811515036108ac576040518060400160405280601e81526020017f427573205469636b657420426f6f6b6564205375636365737366756c6c79000081525092506108c8565b6040518060600160405280602181526020016126436021913992505b505b81925050509695505050505050565b6060805f6108e7898961035d565b90505f151581151503610931576040518060400160405280601b81526020017f20596f7520617265206e6f7420746865207265616c204f776e65720000000000815250915061098b565b5f61093f8a89898989610e41565b9050600115158115150361096d57604051806060016040528060228152602001612664602291399250610989565b6040518060600160405280602181526020016126436021913992505b505b81925050509695505050505050565b6060805f6109a8898961035d565b90505f1515811515036109f2576040518060400160405280601b81526020017f20596f7520617265206e6f7420746865207265616c204f776e657200000000008152509150610a69565b5f610a008a8989898961106b565b90506001151581151503610a4b576040518060400160405280601e81526020017f427573205469636b657420426f6f6b6564205375636365737366756c6c7900008152509250610a67565b6040518060600160405280602181526020016126436021913992505b505b81925050509695505050505050565b6060805f610a86898961035d565b90505f151581151503610ad0576040518060400160405280601b81526020017f20596f7520617265206e6f7420746865207265616c204f776e657200000000008152509150610b2a565b5f610ade8a89898989611295565b90506001151581151503610b0c57604051806060016040528060228152602001612686602291399250610b28565b6040518060600160405280602181526020016126436021913992505b505b81925050509695505050505050565b6060805f610b47898961035d565b90505f151581151503610b91576040518060400160405280601b81526020017f20596f7520617265206e6f7420746865207265616c204f776e657200000000008152509150610c08565b5f610b9f8a898989896114bf565b90506001151581151503610bea576040518060400160405280601e81526020017f427573205469636b657420426f6f6b6564205375636365737366756c6c7900008152509250610c06565b6040518060600160405280602181526020016126436021913992505b505b81925050509695505050505050565b5f806002811115610c2b57610c2a611c3f565b5b856002811115610c3e57610c3d611c3f565b5b14158015610c71575060016002811115610c5b57610c5a611c3f565b5b856002811115610c6e57610c6d611c3f565b5b14155b8015610ca15750600280811115610c8b57610c8a611c3f565b5b856002811115610c9e57610c9d611c3f565b5b14155b15610cae575f9050610e38565b5f6002811115610cc157610cc0611c3f565b5b846002811115610cd457610cd3611c3f565b5b14158015610d07575060016002811115610cf157610cf0611c3f565b5b846002811115610d0457610d03611c3f565b5b14155b8015610d375750600280811115610d2157610d20611c3f565b5b846002811115610d3457610d33611c3f565b5b14155b15610d44575f9050610e38565b8460018781548110610d5957610d586122ab565b5b905f5260205f209060140201600e015f015f6101000a81548160ff02191690836002811115610d8b57610d8a611c3f565b5b02179055508360018781548110610da557610da46122ab565b5b905f5260205f209060140201600e015f0160016101000a81548160ff02191690836002811115610dd857610dd7611c3f565b5b02179055508260018781548110610df257610df16122ab565b5b905f5260205f209060140201600e01600101819055508160018781548110610e1d57610e1c6122ab565b5b905f5260205f209060140201600e0160020181905550600190505b95945050505050565b5f806002811115610e5557610e54611c3f565b5b856002811115610e6857610e67611c3f565b5b14158015610e9b575060016002811115610e8557610e84611c3f565b5b856002811115610e9857610e97611c3f565b5b14155b8015610ecb5750600280811115610eb557610eb4611c3f565b5b856002811115610ec857610ec7611c3f565b5b14155b15610ed8575f9050611062565b5f6002811115610eeb57610eea611c3f565b5b846002811115610efe57610efd611c3f565b5b14158015610f31575060016002811115610f1b57610f1a611c3f565b5b846002811115610f2e57610f2d611c3f565b5b14155b8015610f615750600280811115610f4b57610f4a611c3f565b5b846002811115610f5e57610f5d611c3f565b5b14155b15610f6e575f9050611062565b8460018781548110610f8357610f826122ab565b5b905f5260205f2090601402016008015f015f6101000a81548160ff02191690836002811115610fb557610fb4611c3f565b5b02179055508360018781548110610fcf57610fce6122ab565b5b905f5260205f2090601402016008015f0160016101000a81548160ff0219169083600281111561100257611001611c3f565b5b0217905550826001878154811061101c5761101b6122ab565b5b905f5260205f209060140201600801600101819055508160018781548110611047576110466122ab565b5b905f5260205f20906014020160080160020181905550600190505b95945050505050565b5f80600281111561107f5761107e611c3f565b5b85600281111561109257611091611c3f565b5b141580156110c55750600160028111156110af576110ae611c3f565b5b8560028111156110c2576110c1611c3f565b5b14155b80156110f557506002808111156110df576110de611c3f565b5b8560028111156110f2576110f1611c3f565b5b14155b15611102575f905061128c565b5f600281111561111557611114611c3f565b5b84600281111561112857611127611c3f565b5b1415801561115b57506001600281111561114557611144611c3f565b5b84600281111561115857611157611c3f565b5b14155b801561118b575060028081111561117557611174611c3f565b5b84600281111561118857611187611c3f565b5b14155b15611198575f905061128c565b84600187815481106111ad576111ac6122ab565b5b905f5260205f209060140201600b015f015f6101000a81548160ff021916908360028111156111df576111de611c3f565b5b021790555083600187815481106111f9576111f86122ab565b5b905f5260205f209060140201600b015f0160016101000a81548160ff0219169083600281111561122c5761122b611c3f565b5b02179055508260018781548110611246576112456122ab565b5b905f5260205f209060140201600b01600101819055508160018781548110611271576112706122ab565b5b905f5260205f209060140201600b0160020181905550600190505b95945050505050565b5f8060028111156112a9576112a8611c3f565b5b8560028111156112bc576112bb611c3f565b5b141580156112ef5750600160028111156112d9576112d8611c3f565b5b8560028111156112ec576112eb611c3f565b5b14155b801561131f575060028081111561130957611308611c3f565b5b85600281111561131c5761131b611c3f565b5b14155b1561132c575f90506114b6565b5f600281111561133f5761133e611c3f565b5b84600281111561135257611351611c3f565b5b1415801561138557506001600281111561136f5761136e611c3f565b5b84600281111561138257611381611c3f565b5b14155b80156113b5575060028081111561139f5761139e611c3f565b5b8460028111156113b2576113b1611c3f565b5b14155b156113c2575f90506114b6565b84600187815481106113d7576113d66122ab565b5b905f5260205f2090601402016011015f015f6101000a81548160ff0219169083600281111561140957611408611c3f565b5b02179055508360018781548110611423576114226122ab565b5b905f5260205f2090601402016011015f0160016101000a81548160ff0219169083600281111561145657611455611c3f565b5b021790555082600187815481106114705761146f6122ab565b5b905f5260205f20906014020160110160010181905550816001878154811061149b5761149a6122ab565b5b905f5260205f20906014020160110160020181905550600190505b95945050505050565b5f8060028111156114d3576114d2611c3f565b5b8560028111156114e6576114e5611c3f565b5b1415801561151957506001600281111561150357611502611c3f565b5b85600281111561151657611515611c3f565b5b14155b8015611549575060028081111561153357611532611c3f565b5b85600281111561154657611545611c3f565b5b14155b15611556575f90506116e0565b5f600281111561156957611568611c3f565b5b84600281111561157c5761157b611c3f565b5b141580156115af57506001600281111561159957611598611c3f565b5b8460028111156115ac576115ab611c3f565b5b14155b80156115df57506002808111156115c9576115c8611c3f565b5b8460028111156115dc576115db611c3f565b5b14155b156115ec575f90506116e0565b8460018781548110611601576116006122ab565b5b905f5260205f2090601402016005015f015f6101000a81548160ff0219169083600281111561163357611632611c3f565b5b0217905550836001878154811061164d5761164c6122ab565b5b905f5260205f2090601402016005015f0160016101000a81548160ff021916908360028111156116805761167f611c3f565b5b0217905550826001878154811061169a576116996122ab565b5b905f5260205f2090601402016005016001018190555081600187815481106116c5576116c46122ab565b5b905f5260205f20906014020160050160020181905550600190505b95945050505050565b6040518061014001604052805f81526020015f8152602001606081526020015f81526020015f73ffffffffffffffffffffffffffffffffffffffff16815260200161173261176c565b815260200161173f6117b4565b815260200161174c6117fc565b8152602001611759611844565b815260200161176661188c565b81525090565b60405180608001604052805f600281111561178a57611789611c3f565b5b81526020015f60028111156117a2576117a1611c3f565b5b81526020015f81526020015f81525090565b60405180608001604052805f60028111156117d2576117d1611c3f565b5b81526020015f60028111156117ea576117e9611c3f565b5b81526020015f81526020015f81525090565b60405180608001604052805f600281111561181a57611819611c3f565b5b81526020015f600281111561183257611831611c3f565b5b81526020015f81526020015f81525090565b60405180608001604052805f600281111561186257611861611c3f565b5b81526020015f600281111561187a57611879611c3f565b5b81526020015f81526020015f81525090565b60405180608001604052805f60028111156118aa576118a9611c3f565b5b81526020015f60028111156118c2576118c1611c3f565b5b81526020015f81526020015f81525090565b5f604051905090565b5f80fd5b5f80fd5b5f80fd5b5f80fd5b5f601f19601f8301169050919050565b7f4e487b71000000000000000000000000000000000000000000000000000000005f52604160045260245ffd5b611933826118ed565b810181811067ffffffffffffffff82111715611952576119516118fd565b5b80604052505050565b5f6119646118d4565b9050611970828261192a565b919050565b5f67ffffffffffffffff82111561198f5761198e6118fd565b5b611998826118ed565b9050602081019050919050565b828183375f83830152505050565b5f6119c56119c084611975565b61195b565b9050828152602081018484840111156119e1576119e06118e9565b5b6119ec8482856119a5565b509392505050565b5f82601f830112611a0857611a076118e5565b5b8135611a188482602086016119b3565b91505092915050565b5f819050919050565b611a3381611a21565b8114611a3d575f80fd5b50565b5f81359050611a4e81611a2a565b92915050565b5f73ffffffffffffffffffffffffffffffffffffffff82169050919050565b5f611a7d82611a54565b9050919050565b611a8d81611a73565b8114611a97575f80fd5b50565b5f81359050611aa881611a84565b92915050565b5f805f60608486031215611ac557611ac46118dd565b5b5f84013567ffffffffffffffff811115611ae257611ae16118e1565b5b611aee868287016119f4565b9350506020611aff86828701611a40565b9250506040611b1086828701611a9a565b9150509250925092565b611b2381611a21565b82525050565b5f604082019050611b3c5f830185611b1a565b611b496020830184611b1a565b9392505050565b5f8060408385031215611b6657611b656118dd565b5b5f611b7385828601611a40565b9250506020611b8485828601611a40565b9150509250929050565b5f8115159050919050565b611ba281611b8e565b82525050565b5f602082019050611bbb5f830184611b99565b92915050565b611bca81611a21565b82525050565b5f81519050919050565b5f82825260208201905092915050565b8281835e5f83830152505050565b5f611c0282611bd0565b611c0c8185611bda565b9350611c1c818560208601611bea565b611c25816118ed565b840191505092915050565b611c3981611a73565b82525050565b7f4e487b71000000000000000000000000000000000000000000000000000000005f52602160045260245ffd5b60038110611c7d57611c7c611c3f565b5b50565b5f819050611c8d82611c6c565b919050565b5f611c9c82611c80565b9050919050565b611cac81611c92565b82525050565b60038110611cc357611cc2611c3f565b5b50565b5f819050611cd382611cb2565b919050565b5f611ce282611cc6565b9050919050565b611cf281611cd8565b82525050565b608082015f820151611d0c5f850182611ca3565b506020820151611d1f6020850182611ce9565b506040820151611d326040850182611bc1565b506060820151611d456060850182611bc1565b50505050565b608082015f820151611d5f5f850182611ca3565b506020820151611d726020850182611ce9565b506040820151611d856040850182611bc1565b506060820151611d986060850182611bc1565b50505050565b60038110611daf57611dae611c3f565b5b50565b5f819050611dbf82611d9e565b919050565b5f611dce82611db2565b9050919050565b611dde81611dc4565b82525050565b608082015f820151611df85f850182611ca3565b506020820151611e0b6020850182611dd5565b506040820151611e1e6040850182611bc1565b506060820151611e316060850182611bc1565b50505050565b60038110611e4857611e47611c3f565b5b50565b5f819050611e5882611e37565b919050565b5f611e6782611e4b565b9050919050565b611e7781611e5d565b82525050565b608082015f820151611e915f850182611e6e565b506020820151611ea46020850182611ce9565b506040820151611eb76040850182611bc1565b506060820151611eca6060850182611bc1565b50505050565b608082015f820151611ee45f850182611ca3565b506020820151611ef76020850182611ce9565b506040820151611f0a6040850182611bc1565b506060820151611f1d6060850182611bc1565b50505050565b5f61032083015f830151611f395f860182611bc1565b506020830151611f4c6020860182611bc1565b5060408301518482036040860152611f648282611bf8565b9150506060830151611f796060860182611bc1565b506080830151611f8c6080860182611c30565b5060a0830151611f9f60a0860182611cf8565b5060c0830151611fb3610120860182611d4b565b5060e0830151611fc76101a0860182611de4565b50610100830151611fdc610220860182611e7d565b50610120830151611ff16102a0860182611ed0565b508091505092915050565b5f6020820190508181035f8301526120148184611f23565b905092915050565b60038110612028575f80fd5b50565b5f813590506120398161201c565b92915050565b6003811061204b575f80fd5b50565b5f8135905061205c8161203f565b92915050565b5f805f805f8060c0878903121561207c5761207b6118dd565b5b5f61208989828a01611a40565b965050602061209a89828a01611a40565b95505060406120ab89828a0161202b565b94505060606120bc89828a0161204e565b93505060806120cd89828a01611a40565b92505060a06120de89828a01611a40565b9150509295509295509295565b5f82825260208201905092915050565b5f61210582611bd0565b61210f81856120eb565b935061211f818560208601611bea565b612128816118ed565b840191505092915050565b5f6020820190508181035f83015261214b81846120fb565b905092915050565b6003811061215f575f80fd5b50565b5f8135905061217081612153565b92915050565b5f805f805f8060c087890312156121905761218f6118dd565b5b5f61219d89828a01611a40565b96505060206121ae89828a01611a40565b95505060406121bf89828a01612162565b94505060606121d089828a0161204e565b93505060806121e189828a01611a40565b92505060a06121f289828a01611a40565b9150509295509295509295565b6003811061220b575f80fd5b50565b5f8135905061221c816121ff565b92915050565b5f805f805f8060c0878903121561223c5761223b6118dd565b5b5f61224989828a01611a40565b965050602061225a89828a01611a40565b955050604061226b89828a01612162565b945050606061227c89828a0161220e565b935050608061228d89828a01611a40565b92505060a061229e89828a01611a40565b9150509295509295509295565b7f4e487b71000000000000000000000000000000000000000000000000000000005f52603260045260245ffd5b7f4e487b71000000000000000000000000000000000000000000000000000000005f52602260045260245ffd5b5f600282049050600182168061231c57607f821691505b60208210810361232f5761232e6122d8565b5b50919050565b5f819050815f5260205f209050919050565b5f6020601f8301049050919050565b5f82821b905092915050565b5f600883026123917fffffffffffffffffffffffffffffffffffffffffffffffffffffffffffffffff82612356565b61239b8683612356565b95508019841693508086168417925050509392505050565b5f819050919050565b5f6123d66123d16123cc84611a21565b6123b3565b611a21565b9050919050565b5f819050919050565b6123ef836123bc565b6124036123fb826123dd565b848454612362565b825550505050565b5f90565b61241761240b565b6124228184846123e6565b505050565b5b818110156124455761243a5f8261240f565b600181019050612428565b5050565b601f82111561248a5761245b81612335565b61246484612347565b81016020851015612473578190505b61248761247f85612347565b830182612427565b50505b505050565b5f82821c905092915050565b5f6124aa5f198460080261248f565b1980831691505092915050565b5f6124c2838361249b565b9150826002028217905092915050565b6124db82611bd0565b67ffffffffffffffff8111156124f4576124f36118fd565b5b6124fe8254612305565b612509828285612449565b5f60209050601f83116001811461253a575f8415612528578287015190505b61253285826124b7565b865550612599565b601f19841661254886612335565b5f5b8281101561256f5784890151825560018201915060208501945060208101905061254a565b8683101561258c5784890151612588601f89168261249b565b8355505b6001600288020188555050505b505050505050565b7f4e487b71000000000000000000000000000000000000000000000000000000005f52601160045260245ffd5b5f6125d882611a21565b91506125e383611a21565b92508282026125f181611a21565b91508282048414831517612608576126076125a1565b5b5092915050565b5f61261982611a21565b915061262483611a21565b925082820190508082111561263c5761263b6125a1565b5b9291505056fe496e76616c696420496e7075742021205469636b6574204e6f7420426f6f6b65644169724c696e65205469636b657420426f6f6b6564205375636365737366756c6c795261696c776179205469636b657420426f6f6b6564205375636365737366756c6c79a2646970667358221220a9fa0602001a818cba826f07275e42d08436238b020aeec8a8c9e3c7d7380d9b64736f6c634300081a0033",
			"opcodes": "PUSH1 0x80 PUSH1 0x40 MSTORE CALLVALUE DUP1 ISZERO PUSH1 0xE JUMPI PUSH0 DUP1 REVERT JUMPDEST POP PUSH2 0x26DD DUP1 PUSH2 0x1C PUSH0 CODECOPY PUSH0 RETURN INVALID PUSH1 0x80 PUSH1 0x40 MSTORE CALLVALUE DUP1 ISZERO PUSH2 0xF JUMPI PUSH0 DUP1 REVERT JUMPDEST POP PUSH1 0x4 CALLDATASIZE LT PUSH2 0x86 JUMPI PUSH0 CALLDATALOAD PUSH1 0xE0 SHR DUP1 PUSH4 0x98851F11 GT PUSH2 0x59 JUMPI DUP1 PUSH4 0x98851F11 EQ PUSH2 0x14B JUMPI DUP1 PUSH4 0xB051E718 EQ PUSH2 0x17B JUMPI DUP1 PUSH4 0xCA3AA589 EQ PUSH2 0x1AB JUMPI DUP1 PUSH4 0xD851BBBC EQ PUSH2 0x1DB JUMPI PUSH2 0x86 JUMP JUMPDEST DUP1 PUSH4 0xC52E285 EQ PUSH2 0x8A JUMPI DUP1 PUSH4 0x2292C804 EQ PUSH2 0xBB JUMPI DUP1 PUSH4 0x5522ED14 EQ PUSH2 0xEB JUMPI DUP1 PUSH4 0x91334732 EQ PUSH2 0x11B JUMPI JUMPDEST PUSH0 DUP1 REVERT JUMPDEST PUSH2 0xA4 PUSH1 0x4 DUP1 CALLDATASIZE SUB DUP2 ADD SWAP1 PUSH2 0x9F SWAP2 SWAP1 PUSH2 0x1AAE JUMP JUMPDEST PUSH2 0x20B JUMP JUMPDEST PUSH1 0x40 MLOAD PUSH2 0xB2 SWAP3 SWAP2 SWAP1 PUSH2 0x1B29 JUMP JUMPDEST PUSH1 0x40 MLOAD DUP1 SWAP2 SUB SWAP1 RETURN JUMPDEST PUSH2 0xD5 PUSH1 0x4 DUP1 CALLDATASIZE SUB DUP2 ADD SWAP1 PUSH2 0xD0 SWAP2 SWAP1 PUSH2 0x1B50 JUMP JUMPDEST PUSH2 0x35D JUMP JUMPDEST PUSH1 0x40 MLOAD PUSH2 0xE2 SWAP2 SWAP1 PUSH2 0x1BA8 JUMP JUMPDEST PUSH1 0x40 MLOAD DUP1 SWAP2 SUB SWAP1 RETURN JUMPDEST PUSH2 0x105 PUSH1 0x4 DUP1 CALLDATASIZE SUB DUP2 ADD SWAP1 PUSH2 0x100 SWAP2 SWAP1 PUSH2 0x1B50 JUMP JUMPDEST PUSH2 0x39B JUMP JUMPDEST PUSH1 0x40 MLOAD PUSH2 0x112 SWAP2 SWAP1 PUSH2 0x1FFC JUMP JUMPDEST PUSH1 0x40 MLOAD DUP1 SWAP2 SUB SWAP1 RETURN JUMPDEST PUSH2 0x135 PUSH1 0x4 DUP1 CALLDATASIZE SUB DUP2 ADD SWAP1 PUSH2 0x130 SWAP2 SWAP1 PUSH2 0x2062 JUMP JUMPDEST PUSH2 0x7FB JUMP JUMPDEST PUSH1 0x40 MLOAD PUSH2 0x142 SWAP2 SWAP1 PUSH2 0x2133 JUMP JUMPDEST PUSH1 0x40 MLOAD DUP1 SWAP2 SUB SWAP1 RETURN JUMPDEST PUSH2 0x165 PUSH1 0x4 DUP1 CALLDATASIZE SUB DUP2 ADD SWAP1 PUSH2 0x160 SWAP2 SWAP1 PUSH2 0x2176 JUMP JUMPDEST PUSH2 0x8D9 JUMP JUMPDEST PUSH1 0x40 MLOAD PUSH2 0x172 SWAP2 SWAP1 PUSH2 0x2133 JUMP JUMPDEST PUSH1 0x40 MLOAD DUP1 SWAP2 SUB SWAP1 RETURN JUMPDEST PUSH2 0x195 PUSH1 0x4 DUP1 CALLDATASIZE SUB DUP2 ADD SWAP1 PUSH2 0x190 SWAP2 SWAP1 PUSH2 0x2222 JUMP JUMPDEST PUSH2 0x99A JUMP JUMPDEST PUSH1 0x40 MLOAD PUSH2 0x1A2 SWAP2 SWAP1 PUSH2 0x2133 JUMP JUMPDEST PUSH1 0x40 MLOAD DUP1 SWAP2 SUB SWAP1 RETURN JUMPDEST PUSH2 0x1C5 PUSH1 0x4 DUP1 CALLDATASIZE SUB DUP2 ADD SWAP1 PUSH2 0x1C0 SWAP2 SWAP1 PUSH2 0x2176 JUMP JUMPDEST PUSH2 0xA78 JUMP JUMPDEST PUSH1 0x40 MLOAD PUSH2 0x1D2 SWAP2 SWAP1 PUSH2 0x2133 JUMP JUMPDEST PUSH1 0x40 MLOAD DUP1 SWAP2 SUB SWAP1 RETURN JUMPDEST PUSH2 0x1F5 PUSH1 0x4 DUP1 CALLDATASIZE SUB DUP2 ADD SWAP1 PUSH2 0x1F0 SWAP2 SWAP1 PUSH2 0x2176 JUMP JUMPDEST PUSH2 0xB39 JUMP JUMPDEST PUSH1 0x40 MLOAD PUSH2 0x202 SWAP2 SWAP1 PUSH2 0x2133 JUMP JUMPDEST PUSH1 0x40 MLOAD DUP1 SWAP2 SUB SWAP1 RETURN JUMPDEST PUSH0 DUP1 PUSH0 SLOAD PUSH1 0x1 PUSH0 SLOAD DUP2 SLOAD DUP2 LT PUSH2 0x224 JUMPI PUSH2 0x223 PUSH2 0x22AB JUMP JUMPDEST JUMPDEST SWAP1 PUSH0 MSTORE PUSH1 0x20 PUSH0 KECCAK256 SWAP1 PUSH1 0x14 MUL ADD PUSH0 ADD DUP2 SWAP1 SSTORE POP DUP5 PUSH1 0x1 PUSH0 SLOAD DUP2 SLOAD DUP2 LT PUSH2 0x24C JUMPI PUSH2 0x24B PUSH2 0x22AB JUMP JUMPDEST JUMPDEST SWAP1 PUSH0 MSTORE PUSH1 0x20 PUSH0 KECCAK256 SWAP1 PUSH1 0x14 MUL ADD PUSH1 0x2 ADD SWAP1 DUP2 PUSH2 0x267 SWAP2 SWAP1 PUSH2 0x24D2 JUMP JUMPDEST POP DUP4 PUSH1 0x1 PUSH0 SLOAD DUP2 SLOAD DUP2 LT PUSH2 0x27E JUMPI PUSH2 0x27D PUSH2 0x22AB JUMP JUMPDEST JUMPDEST SWAP1 PUSH0 MSTORE PUSH1 0x20 PUSH0 KECCAK256 SWAP1 PUSH1 0x14 MUL ADD PUSH1 0x3 ADD DUP2 SWAP1 SSTORE POP DUP3 PUSH1 0x1 PUSH0 SLOAD DUP2 SLOAD DUP2 LT PUSH2 0x2A7 JUMPI PUSH2 0x2A6 PUSH2 0x22AB JUMP JUMPDEST JUMPDEST SWAP1 PUSH0 MSTORE PUSH1 0x20 PUSH0 KECCAK256 SWAP1 PUSH1 0x14 MUL ADD PUSH1 0x4 ADD PUSH0 PUSH2 0x100 EXP DUP2 SLOAD DUP2 PUSH20 0xFFFFFFFFFFFFFFFFFFFFFFFFFFFFFFFFFFFFFFFF MUL NOT AND SWAP1 DUP4 PUSH20 0xFFFFFFFFFFFFFFFFFFFFFFFFFFFFFFFFFFFFFFFF AND MUL OR SWAP1 SSTORE POP PUSH1 0xA PUSH0 SLOAD PUSH2 0x301 SWAP2 SWAP1 PUSH2 0x25CE JUMP JUMPDEST PUSH1 0x1 PUSH0 SLOAD DUP2 SLOAD DUP2 LT PUSH2 0x316 JUMPI PUSH2 0x315 PUSH2 0x22AB JUMP JUMPDEST JUMPDEST SWAP1 PUSH0 MSTORE PUSH1 0x20 PUSH0 KECCAK256 SWAP1 PUSH1 0x14 MUL ADD PUSH1 0x1 ADD DUP2 SWAP1 SSTORE POP PUSH1 0x1 PUSH0 DUP1 DUP3 DUP3 SLOAD PUSH2 0x33A SWAP2 SWAP1 PUSH2 0x260F JUMP JUMPDEST SWAP3 POP POP DUP2 SWAP1 SSTORE POP PUSH0 SLOAD PUSH1 0xA PUSH0 SLOAD PUSH2 0x351 SWAP2 SWAP1 PUSH2 0x25CE JUMP JUMPDEST SWAP2 POP SWAP2 POP SWAP4 POP SWAP4 SWAP2 POP POP JUMP JUMPDEST PUSH0 PUSH1 0x1 DUP4 DUP2 SLOAD DUP2 LT PUSH2 0x372 JUMPI PUSH2 0x371 PUSH2 0x22AB JUMP JUMPDEST JUMPDEST SWAP1 PUSH0 MSTORE PUSH1 0x20 PUSH0 KECCAK256 SWAP1 PUSH1 0x14 MUL ADD PUSH1 0x1 ADD SLOAD DUP3 SUB PUSH2 0x391 JUMPI PUSH1 0x1 SWAP1 POP PUSH2 0x395 JUMP JUMPDEST PUSH0 SWAP1 POP JUMPDEST SWAP3 SWAP2 POP POP JUMP JUMPDEST PUSH2 0x3A3 PUSH2 0x16E9 JUMP JUMPDEST PUSH0 ISZERO ISZERO PUSH2 0x3B0 DUP5 DUP5 PUSH2 0x35D JUMP JUMPDEST ISZERO ISZERO SUB ISZERO PUSH2 0x7F4 JUMPI PUSH1 0x1 DUP4 DUP2 SLOAD DUP2 LT PUSH2 0x3CC JUMPI PUSH2 0x3CB PUSH2 0x22AB JUMP JUMPDEST JUMPDEST SWAP1 PUSH0 MSTORE PUSH1 0x20 PUSH0 KECCAK256 SWAP1 PUSH1 0x14 MUL ADD PUSH1 0x40 MLOAD DUP1 PUSH2 0x140 ADD PUSH1 0x40 MSTORE SWAP1 DUP2 PUSH0 DUP3 ADD SLOAD DUP2 MSTORE PUSH1 0x20 ADD PUSH1 0x1 DUP3 ADD SLOAD DUP2 MSTORE PUSH1 0x20 ADD PUSH1 0x2 DUP3 ADD DUP1 SLOAD PUSH2 0x407 SWAP1 PUSH2 0x2305 JUMP JUMPDEST DUP1 PUSH1 0x1F ADD PUSH1 0x20 DUP1 SWAP2 DIV MUL PUSH1 0x20 ADD PUSH1 0x40 MLOAD SWAP1 DUP2 ADD PUSH1 0x40 MSTORE DUP1 SWAP3 SWAP2 SWAP1 DUP2 DUP2 MSTORE PUSH1 0x20 ADD DUP3 DUP1 SLOAD PUSH2 0x433 SWAP1 PUSH2 0x2305 JUMP JUMPDEST DUP1 ISZERO PUSH2 0x47E JUMPI DUP1 PUSH1 0x1F LT PUSH2 0x455 JUMPI PUSH2 0x100 DUP1 DUP4 SLOAD DIV MUL DUP4 MSTORE SWAP2 PUSH1 0x20 ADD SWAP2 PUSH2 0x47E JUMP JUMPDEST DUP3 ADD SWAP2 SWAP1 PUSH0 MSTORE PUSH1 0x20 PUSH0 KECCAK256 SWAP1 JUMPDEST DUP2 SLOAD DUP2 MSTORE SWAP1 PUSH1 0x1 ADD SWAP1 PUSH1 0x20 ADD DUP1 DUP4 GT PUSH2 0x461 JUMPI DUP3 SWAP1 SUB PUSH1 0x1F AND DUP3 ADD SWAP2 JUMPDEST POP POP POP POP POP DUP2 MSTORE PUSH1 0x20 ADD PUSH1 0x3 DUP3 ADD SLOAD DUP2 MSTORE PUSH1 0x20 ADD PUSH1 0x4 DUP3 ADD PUSH0 SWAP1 SLOAD SWAP1 PUSH2 0x100 EXP SWAP1 DIV PUSH20 0xFFFFFFFFFFFFFFFFFFFFFFFFFFFFFFFFFFFFFFFF AND PUSH20 0xFFFFFFFFFFFFFFFFFFFFFFFFFFFFFFFFFFFFFFFF AND PUSH20 0xFFFFFFFFFFFFFFFFFFFFFFFFFFFFFFFFFFFFFFFF AND DUP2 MSTORE PUSH1 0x20 ADD PUSH1 0x5 DUP3 ADD PUSH1 0x40 MLOAD DUP1 PUSH1 0x80 ADD PUSH1 0x40 MSTORE SWAP1 DUP2 PUSH0 DUP3 ADD PUSH0 SWAP1 SLOAD SWAP1 PUSH2 0x100 EXP SWAP1 DIV PUSH1 0xFF AND PUSH1 0x2 DUP2 GT ISZERO PUSH2 0x519 JUMPI PUSH2 0x518 PUSH2 0x1C3F JUMP JUMPDEST JUMPDEST PUSH1 0x2 DUP2 GT ISZERO PUSH2 0x52B JUMPI PUSH2 0x52A PUSH2 0x1C3F JUMP JUMPDEST JUMPDEST DUP2 MSTORE PUSH1 0x20 ADD PUSH0 DUP3 ADD PUSH1 0x1 SWAP1 SLOAD SWAP1 PUSH2 0x100 EXP SWAP1 DIV PUSH1 0xFF AND PUSH1 0x2 DUP2 GT ISZERO PUSH2 0x553 JUMPI PUSH2 0x552 PUSH2 0x1C3F JUMP JUMPDEST JUMPDEST PUSH1 0x2 DUP2 GT ISZERO PUSH2 0x565 JUMPI PUSH2 0x564 PUSH2 0x1C3F JUMP JUMPDEST JUMPDEST DUP2 MSTORE PUSH1 0x20 ADD PUSH1 0x1 DUP3 ADD SLOAD DUP2 MSTORE PUSH1 0x20 ADD PUSH1 0x2 DUP3 ADD SLOAD DUP2 MSTORE POP POP DUP2 MSTORE PUSH1 0x20 ADD PUSH1 0x8 DUP3 ADD PUSH1 0x40 MLOAD DUP1 PUSH1 0x80 ADD PUSH1 0x40 MSTORE SWAP1 DUP2 PUSH0 DUP3 ADD PUSH0 SWAP1 SLOAD SWAP1 PUSH2 0x100 EXP SWAP1 DIV PUSH1 0xFF AND PUSH1 0x2 DUP2 GT ISZERO PUSH2 0x5B4 JUMPI PUSH2 0x5B3 PUSH2 0x1C3F JUMP JUMPDEST JUMPDEST PUSH1 0x2 DUP2 GT ISZERO PUSH2 0x5C6 JUMPI PUSH2 0x5C5 PUSH2 0x1C3F JUMP JUMPDEST JUMPDEST DUP2 MSTORE PUSH1 0x20 ADD PUSH0 DUP3 ADD PUSH1 0x1 SWAP1 SLOAD SWAP1 PUSH2 0x100 EXP SWAP1 DIV PUSH1 0xFF AND PUSH1 0x2 DUP2 GT ISZERO PUSH2 0x5EE JUMPI PUSH2 0x5ED PUSH2 0x1C3F JUMP JUMPDEST JUMPDEST PUSH1 0x2 DUP2 GT ISZERO PUSH2 0x600 JUMPI PUSH2 0x5FF PUSH2 0x1C3F JUMP JUMPDEST JUMPDEST DUP2 MSTORE PUSH1 0x20 ADD PUSH1 0x1 DUP3 ADD SLOAD DUP2 MSTORE PUSH1 0x20 ADD PUSH1 0x2 DUP3 ADD SLOAD DUP2 MSTORE POP POP DUP2 MSTORE PUSH1 0x20 ADD PUSH1 0xB DUP3 ADD PUSH1 0x40 MLOAD DUP1 PUSH1 0x80 ADD PUSH1 0x40 MSTORE SWAP1 DUP2 PUSH0 DUP3 ADD PUSH0 SWAP1 SLOAD SWAP1 PUSH2 0x100 EXP SWAP1 DIV PUSH1 0xFF AND PUSH1 0x2 DUP2 GT ISZERO PUSH2 0x64F JUMPI PUSH2 0x64E PUSH2 0x1C3F JUMP JUMPDEST JUMPDEST PUSH1 0x2 DUP2 GT ISZERO PUSH2 0x661 JUMPI PUSH2 0x660 PUSH2 0x1C3F JUMP JUMPDEST JUMPDEST DUP2 MSTORE PUSH1 0x20 ADD PUSH0 DUP3 ADD PUSH1 0x1 SWAP1 SLOAD SWAP1 PUSH2 0x100 EXP SWAP1 DIV PUSH1 0xFF AND PUSH1 0x2 DUP2 GT ISZERO PUSH2 0x689 JUMPI PUSH2 0x688 PUSH2 0x1C3F JUMP JUMPDEST JUMPDEST PUSH1 0x2 DUP2 GT ISZERO PUSH2 0x69B JUMPI PUSH2 0x69A PUSH2 0x1C3F JUMP JUMPDEST JUMPDEST DUP2 MSTORE PUSH1 0x20 ADD PUSH1 0x1 DUP3 ADD SLOAD DUP2 MSTORE PUSH1 0x20 ADD PUSH1 0x2 DUP3 ADD SLOAD DUP2 MSTORE POP POP DUP2 MSTORE PUSH1 0x20 ADD PUSH1 0xE DUP3 ADD PUSH1 0x40 MLOAD DUP1 PUSH1 0x80 ADD PUSH1 0x40 MSTORE SWAP1 DUP2 PUSH0 DUP3 ADD PUSH0 SWAP1 SLOAD SWAP1 PUSH2 0x100 EXP SWAP1 DIV PUSH1 0xFF AND PUSH1 0x2 DUP2 GT ISZERO PUSH2 0x6EA JUMPI PUSH2 0x6E9 PUSH2 0x1C3F JUMP JUMPDEST JUMPDEST PUSH1 0x2 DUP2 GT ISZERO PUSH2 0x6FC JUMPI PUSH2 0x6FB PUSH2 0x1C3F JUMP JUMPDEST JUMPDEST DUP2 MSTORE PUSH1 0x20 ADD PUSH0 DUP3 ADD PUSH1 0x1 SWAP1 SLOAD SWAP1 PUSH2 0x100 EXP SWAP1 DIV PUSH1 0xFF AND PUSH1 0x2 DUP2 GT ISZERO PUSH2 0x724 JUMPI PUSH2 0x723 PUSH2 0x1C3F JUMP JUMPDEST JUMPDEST PUSH1 0x2 DUP2 GT ISZERO PUSH2 0x736 JUMPI PUSH2 0x735 PUSH2 0x1C3F JUMP JUMPDEST JUMPDEST DUP2 MSTORE PUSH1 0x20 ADD PUSH1 0x1 DUP3 ADD SLOAD DUP2 MSTORE PUSH1 0x20 ADD PUSH1 0x2 DUP3 ADD SLOAD DUP2 MSTORE POP POP DUP2 MSTORE PUSH1 0x20 ADD PUSH1 0x11 DUP3 ADD PUSH1 0x40 MLOAD DUP1 PUSH1 0x80 ADD PUSH1 0x40 MSTORE SWAP1 DUP2 PUSH0 DUP3 ADD PUSH0 SWAP1 SLOAD SWAP1 PUSH2 0x100 EXP SWAP1 DIV PUSH1 0xFF AND PUSH1 0x2 DUP2 GT ISZERO PUSH2 0x785 JUMPI PUSH2 0x784 PUSH2 0x1C3F JUMP JUMPDEST JUMPDEST PUSH1 0x2 DUP2 GT ISZERO PUSH2 0x797 JUMPI PUSH2 0x796 PUSH2 0x1C3F JUMP JUMPDEST JUMPDEST DUP2 MSTORE PUSH1 0x20 ADD PUSH0 DUP3 ADD PUSH1 0x1 SWAP1 SLOAD SWAP1 PUSH2 0x100 EXP SWAP1 DIV PUSH1 0xFF AND PUSH1 0x2 DUP2 GT ISZERO PUSH2 0x7BF JUMPI PUSH2 0x7BE PUSH2 0x1C3F JUMP JUMPDEST JUMPDEST PUSH1 0x2 DUP2 GT ISZERO PUSH2 0x7D1 JUMPI PUSH2 0x7D0 PUSH2 0x1C3F JUMP JUMPDEST JUMPDEST DUP2 MSTORE PUSH1 0x20 ADD PUSH1 0x1 DUP3 ADD SLOAD DUP2 MSTORE PUSH1 0x20 ADD PUSH1 0x2 DUP3 ADD SLOAD DUP2 MSTORE POP POP DUP2 MSTORE POP POP SWAP1 POP PUSH2 0x7F5 JUMP JUMPDEST JUMPDEST SWAP3 SWAP2 POP POP JUMP JUMPDEST PUSH1 0x60 DUP1 PUSH0 PUSH2 0x809 DUP10 DUP10 PUSH2 0x35D JUMP JUMPDEST SWAP1 POP PUSH0 ISZERO ISZERO DUP2 ISZERO ISZERO SUB PUSH2 0x853 JUMPI PUSH1 0x40 MLOAD DUP1 PUSH1 0x40 ADD PUSH1 0x40 MSTORE DUP1 PUSH1 0x1B DUP2 MSTORE PUSH1 0x20 ADD PUSH32 0x20596F7520617265206E6F7420746865207265616C204F776E65720000000000 DUP2 MSTORE POP SWAP2 POP PUSH2 0x8CA JUMP JUMPDEST PUSH0 PUSH2 0x861 DUP11 DUP10 DUP10 DUP10 DUP10 PUSH2 0xC17 JUMP JUMPDEST SWAP1 POP PUSH1 0x1 ISZERO ISZERO DUP2 ISZERO ISZERO SUB PUSH2 0x8AC JUMPI PUSH1 0x40 MLOAD DUP1 PUSH1 0x40 ADD PUSH1 0x40 MSTORE DUP1 PUSH1 0x1E DUP2 MSTORE PUSH1 0x20 ADD PUSH32 0x427573205469636B657420426F6F6B6564205375636365737366756C6C790000 DUP2 MSTORE POP SWAP3 POP PUSH2 0x8C8 JUMP JUMPDEST PUSH1 0x40 MLOAD DUP1 PUSH1 0x60 ADD PUSH1 0x40 MSTORE DUP1 PUSH1 0x21 DUP2 MSTORE PUSH1 0x20 ADD PUSH2 0x2643 PUSH1 0x21 SWAP2 CODECOPY SWAP3 POP JUMPDEST POP JUMPDEST DUP2 SWAP3 POP POP POP SWAP7 SWAP6 POP POP POP POP POP POP JUMP JUMPDEST PUSH1 0x60 DUP1 PUSH0 PUSH2 0x8E7 DUP10 DUP10 PUSH2 0x35D JUMP JUMPDEST SWAP1 POP PUSH0 ISZERO ISZERO DUP2 ISZERO ISZERO SUB PUSH2 0x931 JUMPI PUSH1 0x40 MLOAD DUP1 PUSH1 0x40 ADD PUSH1 0x40 MSTORE DUP1 PUSH1 0x1B DUP2 MSTORE PUSH1 0x20 ADD PUSH32 0x20596F7520617265206E6F7420746865207265616C204F776E65720000000000 DUP2 MSTORE POP SWAP2 POP PUSH2 0x98B JUMP JUMPDEST PUSH0 PUSH2 0x93F DUP11 DUP10 DUP10 DUP10 DUP10 PUSH2 0xE41 JUMP JUMPDEST SWAP1 POP PUSH1 0x1 ISZERO ISZERO DUP2 ISZERO ISZERO SUB PUSH2 0x96D JUMPI PUSH1 0x40 MLOAD DUP1 PUSH1 0x60 ADD PUSH1 0x40 MSTORE DUP1 PUSH1 0x22 DUP2 MSTORE PUSH1 0x20 ADD PUSH2 0x2664 PUSH1 0x22 SWAP2 CODECOPY SWAP3 POP PUSH2 0x989 JUMP JUMPDEST PUSH1 0x40 MLOAD DUP1 PUSH1 0x60 ADD PUSH1 0x40 MSTORE DUP1 PUSH1 0x21 DUP2 MSTORE PUSH1 0x20 ADD PUSH2 0x2643 PUSH1 0x21 SWAP2 CODECOPY SWAP3 POP JUMPDEST POP JUMPDEST DUP2 SWAP3 POP POP POP SWAP7 SWAP6 POP POP POP POP POP POP JUMP JUMPDEST PUSH1 0x60 DUP1 PUSH0 PUSH2 0x9A8 DUP10 DUP10 PUSH2 0x35D JUMP JUMPDEST SWAP1 POP PUSH0 ISZERO ISZERO DUP2 ISZERO ISZERO SUB PUSH2 0x9F2 JUMPI PUSH1 0x40 MLOAD DUP1 PUSH1 0x40 ADD PUSH1 0x40 MSTORE DUP1 PUSH1 0x1B DUP2 MSTORE PUSH1 0x20 ADD PUSH32 0x20596F7520617265206E6F7420746865207265616C204F776E65720000000000 DUP2 MSTORE POP SWAP2 POP PUSH2 0xA69 JUMP JUMPDEST PUSH0 PUSH2 0xA00 DUP11 DUP10 DUP10 DUP10 DUP10 PUSH2 0x106B JUMP JUMPDEST SWAP1 POP PUSH1 0x1 ISZERO ISZERO DUP2 ISZERO ISZERO SUB PUSH2 0xA4B JUMPI PUSH1 0x40 MLOAD DUP1 PUSH1 0x40 ADD PUSH1 0x40 MSTORE DUP1 PUSH1 0x1E DUP2 MSTORE PUSH1 0x20 ADD PUSH32 0x427573205469636B657420426F6F6B6564205375636365737366756C6C790000 DUP2 MSTORE POP SWAP3 POP PUSH2 0xA67 JUMP JUMPDEST PUSH1 0x40 MLOAD DUP1 PUSH1 0x60 ADD PUSH1 0x40 MSTORE DUP1 PUSH1 0x21 DUP2 MSTORE PUSH1 0x20 ADD PUSH2 0x2643 PUSH1 0x21 SWAP2 CODECOPY SWAP3 POP JUMPDEST POP JUMPDEST DUP2 SWAP3 POP POP POP SWAP7 SWAP6 POP POP POP POP POP POP JUMP JUMPDEST PUSH1 0x60 DUP1 PUSH0 PUSH2 0xA86 DUP10 DUP10 PUSH2 0x35D JUMP JUMPDEST SWAP1 POP PUSH0 ISZERO ISZERO DUP2 ISZERO ISZERO SUB PUSH2 0xAD0 JUMPI PUSH1 0x40 MLOAD DUP1 PUSH1 0x40 ADD PUSH1 0x40 MSTORE DUP1 PUSH1 0x1B DUP2 MSTORE PUSH1 0x20 ADD PUSH32 0x20596F7520617265206E6F7420746865207265616C204F776E65720000000000 DUP2 MSTORE POP SWAP2 POP PUSH2 0xB2A JUMP JUMPDEST PUSH0 PUSH2 0xADE DUP11 DUP10 DUP10 DUP10 DUP10 PUSH2 0x1295 JUMP JUMPDEST SWAP1 POP PUSH1 0x1 ISZERO ISZERO DUP2 ISZERO ISZERO SUB PUSH2 0xB0C JUMPI PUSH1 0x40 MLOAD DUP1 PUSH1 0x60 ADD PUSH1 0x40 MSTORE DUP1 PUSH1 0x22 DUP2 MSTORE PUSH1 0x20 ADD PUSH2 0x2686 PUSH1 0x22 SWAP2 CODECOPY SWAP3 POP PUSH2 0xB28 JUMP JUMPDEST PUSH1 0x40 MLOAD DUP1 PUSH1 0x60 ADD PUSH1 0x40 MSTORE DUP1 PUSH1 0x21 DUP2 MSTORE PUSH1 0x20 ADD PUSH2 0x2643 PUSH1 0x21 SWAP2 CODECOPY SWAP3 POP JUMPDEST POP JUMPDEST DUP2 SWAP3 POP POP POP SWAP7 SWAP6 POP POP POP POP POP POP JUMP JUMPDEST PUSH1 0x60 DUP1 PUSH0 PUSH2 0xB47 DUP10 DUP10 PUSH2 0x35D JUMP JUMPDEST SWAP1 POP PUSH0 ISZERO ISZERO DUP2 ISZERO ISZERO SUB PUSH2 0xB91 JUMPI PUSH1 0x40 MLOAD DUP1 PUSH1 0x40 ADD PUSH1 0x40 MSTORE DUP1 PUSH1 0x1B DUP2 MSTORE PUSH1 0x20 ADD PUSH32 0x20596F7520617265206E6F7420746865207265616C204F776E65720000000000 DUP2 MSTORE POP SWAP2 POP PUSH2 0xC08 JUMP JUMPDEST PUSH0 PUSH2 0xB9F DUP11 DUP10 DUP10 DUP10 DUP10 PUSH2 0x14BF JUMP JUMPDEST SWAP1 POP PUSH1 0x1 ISZERO ISZERO DUP2 ISZERO ISZERO SUB PUSH2 0xBEA JUMPI PUSH1 0x40 MLOAD DUP1 PUSH1 0x40 ADD PUSH1 0x40 MSTORE DUP1 PUSH1 0x1E DUP2 MSTORE PUSH1 0x20 ADD PUSH32 0x427573205469636B657420426F6F6B6564205375636365737366756C6C790000 DUP2 MSTORE POP SWAP3 POP PUSH2 0xC06 JUMP JUMPDEST PUSH1 0x40 MLOAD DUP1 PUSH1 0x60 ADD PUSH1 0x40 MSTORE DUP1 PUSH1 0x21 DUP2 MSTORE PUSH1 0x20 ADD PUSH2 0x2643 PUSH1 0x21 SWAP2 CODECOPY SWAP3 POP JUMPDEST POP JUMPDEST DUP2 SWAP3 POP POP POP SWAP7 SWAP6 POP POP POP POP POP POP JUMP JUMPDEST PUSH0 DUP1 PUSH1 0x2 DUP2 GT ISZERO PUSH2 0xC2B JUMPI PUSH2 0xC2A PUSH2 0x1C3F JUMP JUMPDEST JUMPDEST DUP6 PUSH1 0x2 DUP2 GT ISZERO PUSH2 0xC3E JUMPI PUSH2 0xC3D PUSH2 0x1C3F JUMP JUMPDEST JUMPDEST EQ ISZERO DUP1 ISZERO PUSH2 0xC71 JUMPI POP PUSH1 0x1 PUSH1 0x2 DUP2 GT ISZERO PUSH2 0xC5B JUMPI PUSH2 0xC5A PUSH2 0x1C3F JUMP JUMPDEST JUMPDEST DUP6 PUSH1 0x2 DUP2 GT ISZERO PUSH2 0xC6E JUMPI PUSH2 0xC6D PUSH2 0x1C3F JUMP JUMPDEST JUMPDEST EQ ISZERO JUMPDEST DUP1 ISZERO PUSH2 0xCA1 JUMPI POP PUSH1 0x2 DUP1 DUP2 GT ISZERO PUSH2 0xC8B JUMPI PUSH2 0xC8A PUSH2 0x1C3F JUMP JUMPDEST JUMPDEST DUP6 PUSH1 0x2 DUP2 GT ISZERO PUSH2 0xC9E JUMPI PUSH2 0xC9D PUSH2 0x1C3F JUMP JUMPDEST JUMPDEST EQ ISZERO JUMPDEST ISZERO PUSH2 0xCAE JUMPI PUSH0 SWAP1 POP PUSH2 0xE38 JUMP JUMPDEST PUSH0 PUSH1 0x2 DUP2 GT ISZERO PUSH2 0xCC1 JUMPI PUSH2 0xCC0 PUSH2 0x1C3F JUMP JUMPDEST JUMPDEST DUP5 PUSH1 0x2 DUP2 GT ISZERO PUSH2 0xCD4 JUMPI PUSH2 0xCD3 PUSH2 0x1C3F JUMP JUMPDEST JUMPDEST EQ ISZERO DUP1 ISZERO PUSH2 0xD07 JUMPI POP PUSH1 0x1 PUSH1 0x2 DUP2 GT ISZERO PUSH2 0xCF1 JUMPI PUSH2 0xCF0 PUSH2 0x1C3F JUMP JUMPDEST JUMPDEST DUP5 PUSH1 0x2 DUP2 GT ISZERO PUSH2 0xD04 JUMPI PUSH2 0xD03 PUSH2 0x1C3F JUMP JUMPDEST JUMPDEST EQ ISZERO JUMPDEST DUP1 ISZERO PUSH2 0xD37 JUMPI POP PUSH1 0x2 DUP1 DUP2 GT ISZERO PUSH2 0xD21 JUMPI PUSH2 0xD20 PUSH2 0x1C3F JUMP JUMPDEST JUMPDEST DUP5 PUSH1 0x2 DUP2 GT ISZERO PUSH2 0xD34 JUMPI PUSH2 0xD33 PUSH2 0x1C3F JUMP JUMPDEST JUMPDEST EQ ISZERO JUMPDEST ISZERO PUSH2 0xD44 JUMPI PUSH0 SWAP1 POP PUSH2 0xE38 JUMP JUMPDEST DUP5 PUSH1 0x1 DUP8 DUP2 SLOAD DUP2 LT PUSH2 0xD59 JUMPI PUSH2 0xD58 PUSH2 0x22AB JUMP JUMPDEST JUMPDEST SWAP1 PUSH0 MSTORE PUSH1 0x20 PUSH0 KECCAK256 SWAP1 PUSH1 0x14 MUL ADD PUSH1 0xE ADD PUSH0 ADD PUSH0 PUSH2 0x100 EXP DUP2 SLOAD DUP2 PUSH1 0xFF MUL NOT AND SWAP1 DUP4 PUSH1 0x2 DUP2 GT ISZERO PUSH2 0xD8B JUMPI PUSH2 0xD8A PUSH2 0x1C3F JUMP JUMPDEST JUMPDEST MUL OR SWAP1 SSTORE POP DUP4 PUSH1 0x1 DUP8 DUP2 SLOAD DUP2 LT PUSH2 0xDA5 JUMPI PUSH2 0xDA4 PUSH2 0x22AB JUMP JUMPDEST JUMPDEST SWAP1 PUSH0 MSTORE PUSH1 0x20 PUSH0 KECCAK256 SWAP1 PUSH1 0x14 MUL ADD PUSH1 0xE ADD PUSH0 ADD PUSH1 0x1 PUSH2 0x100 EXP DUP2 SLOAD DUP2 PUSH1 0xFF MUL NOT AND SWAP1 DUP4 PUSH1 0x2 DUP2 GT ISZERO PUSH2 0xDD8 JUMPI PUSH2 0xDD7 PUSH2 0x1C3F JUMP JUMPDEST JUMPDEST MUL OR SWAP1 SSTORE POP DUP3 PUSH1 0x1 DUP8 DUP2 SLOAD DUP2 LT PUSH2 0xDF2 JUMPI PUSH2 0xDF1 PUSH2 0x22AB JUMP JUMPDEST JUMPDEST SWAP1 PUSH0 MSTORE PUSH1 0x20 PUSH0 KECCAK256 SWAP1 PUSH1 0x14 MUL ADD PUSH1 0xE ADD PUSH1 0x1 ADD DUP2 SWAP1 SSTORE POP DUP2 PUSH1 0x1 DUP8 DUP2 SLOAD DUP2 LT PUSH2 0xE1D JUMPI PUSH2 0xE1C PUSH2 0x22AB JUMP JUMPDEST JUMPDEST SWAP1 PUSH0 MSTORE PUSH1 0x20 PUSH0 KECCAK256 SWAP1 PUSH1 0x14 MUL ADD PUSH1 0xE ADD PUSH1 0x2 ADD DUP2 SWAP1 SSTORE POP PUSH1 0x1 SWAP1 POP JUMPDEST SWAP6 SWAP5 POP POP POP POP POP JUMP JUMPDEST PUSH0 DUP1 PUSH1 0x2 DUP2 GT ISZERO PUSH2 0xE55 JUMPI PUSH2 0xE54 PUSH2 0x1C3F JUMP JUMPDEST JUMPDEST DUP6 PUSH1 0x2 DUP2 GT ISZERO PUSH2 0xE68 JUMPI PUSH2 0xE67 PUSH2 0x1C3F JUMP JUMPDEST JUMPDEST EQ ISZERO DUP1 ISZERO PUSH2 0xE9B JUMPI POP PUSH1 0x1 PUSH1 0x2 DUP2 GT ISZERO PUSH2 0xE85 JUMPI PUSH2 0xE84 PUSH2 0x1C3F JUMP JUMPDEST JUMPDEST DUP6 PUSH1 0x2 DUP2 GT ISZERO PUSH2 0xE98 JUMPI PUSH2 0xE97 PUSH2 0x1C3F JUMP JUMPDEST JUMPDEST EQ ISZERO JUMPDEST DUP1 ISZERO PUSH2 0xECB JUMPI POP PUSH1 0x2 DUP1 DUP2 GT ISZERO PUSH2 0xEB5 JUMPI PUSH2 0xEB4 PUSH2 0x1C3F JUMP JUMPDEST JUMPDEST DUP6 PUSH1 0x2 DUP2 GT ISZERO PUSH2 0xEC8 JUMPI PUSH2 0xEC7 PUSH2 0x1C3F JUMP JUMPDEST JUMPDEST EQ ISZERO JUMPDEST ISZERO PUSH2 0xED8 JUMPI PUSH0 SWAP1 POP PUSH2 0x1062 JUMP JUMPDEST PUSH0 PUSH1 0x2 DUP2 GT ISZERO PUSH2 0xEEB JUMPI PUSH2 0xEEA PUSH2 0x1C3F JUMP JUMPDEST JUMPDEST DUP5 PUSH1 0x2 DUP2 GT ISZERO PUSH2 0xEFE JUMPI PUSH2 0xEFD PUSH2 0x1C3F JUMP JUMPDEST JUMPDEST EQ ISZERO DUP1 ISZERO PUSH2 0xF31 JUMPI POP PUSH1 0x1 PUSH1 0x2 DUP2 GT ISZERO PUSH2 0xF1B JUMPI PUSH2 0xF1A PUSH2 0x1C3F JUMP JUMPDEST JUMPDEST DUP5 PUSH1 0x2 DUP2 GT ISZERO PUSH2 0xF2E JUMPI PUSH2 0xF2D PUSH2 0x1C3F JUMP JUMPDEST JUMPDEST EQ ISZERO JUMPDEST DUP1 ISZERO PUSH2 0xF61 JUMPI POP PUSH1 0x2 DUP1 DUP2 GT ISZERO PUSH2 0xF4B JUMPI PUSH2 0xF4A PUSH2 0x1C3F JUMP JUMPDEST JUMPDEST DUP5 PUSH1 0x2 DUP2 GT ISZERO PUSH2 0xF5E JUMPI PUSH2 0xF5D PUSH2 0x1C3F JUMP JUMPDEST JUMPDEST EQ ISZERO JUMPDEST ISZERO PUSH2 0xF6E JUMPI PUSH0 SWAP1 POP PUSH2 0x1062 JUMP JUMPDEST DUP5 PUSH1 0x1 DUP8 DUP2 SLOAD DUP2 LT PUSH2 0xF83 JUMPI PUSH2 0xF82 PUSH2 0x22AB JUMP JUMPDEST JUMPDEST SWAP1 PUSH0 MSTORE PUSH1 0x20 PUSH0 KECCAK256 SWAP1 PUSH1 0x14 MUL ADD PUSH1 0x8 ADD PUSH0 ADD PUSH0 PUSH2 0x100 EXP DUP2 SLOAD DUP2 PUSH1 0xFF MUL NOT AND SWAP1 DUP4 PUSH1 0x2 DUP2 GT ISZERO PUSH2 0xFB5 JUMPI PUSH2 0xFB4 PUSH2 0x1C3F JUMP JUMPDEST JUMPDEST MUL OR SWAP1 SSTORE POP DUP4 PUSH1 0x1 DUP8 DUP2 SLOAD DUP2 LT PUSH2 0xFCF JUMPI PUSH2 0xFCE PUSH2 0x22AB JUMP JUMPDEST JUMPDEST SWAP1 PUSH0 MSTORE PUSH1 0x20 PUSH0 KECCAK256 SWAP1 PUSH1 0x14 MUL ADD PUSH1 0x8 ADD PUSH0 ADD PUSH1 0x1 PUSH2 0x100 EXP DUP2 SLOAD DUP2 PUSH1 0xFF MUL NOT AND SWAP1 DUP4 PUSH1 0x2 DUP2 GT ISZERO PUSH2 0x1002 JUMPI PUSH2 0x1001 PUSH2 0x1C3F JUMP JUMPDEST JUMPDEST MUL OR SWAP1 SSTORE POP DUP3 PUSH1 0x1 DUP8 DUP2 SLOAD DUP2 LT PUSH2 0x101C JUMPI PUSH2 0x101B PUSH2 0x22AB JUMP JUMPDEST JUMPDEST SWAP1 PUSH0 MSTORE PUSH1 0x20 PUSH0 KECCAK256 SWAP1 PUSH1 0x14 MUL ADD PUSH1 0x8 ADD PUSH1 0x1 ADD DUP2 SWAP1 SSTORE POP DUP2 PUSH1 0x1 DUP8 DUP2 SLOAD DUP2 LT PUSH2 0x1047 JUMPI PUSH2 0x1046 PUSH2 0x22AB JUMP JUMPDEST JUMPDEST SWAP1 PUSH0 MSTORE PUSH1 0x20 PUSH0 KECCAK256 SWAP1 PUSH1 0x14 MUL ADD PUSH1 0x8 ADD PUSH1 0x2 ADD DUP2 SWAP1 SSTORE POP PUSH1 0x1 SWAP1 POP JUMPDEST SWAP6 SWAP5 POP POP POP POP POP JUMP JUMPDEST PUSH0 DUP1 PUSH1 0x2 DUP2 GT ISZERO PUSH2 0x107F JUMPI PUSH2 0x107E PUSH2 0x1C3F JUMP JUMPDEST JUMPDEST DUP6 PUSH1 0x2 DUP2 GT ISZERO PUSH2 0x1092 JUMPI PUSH2 0x1091 PUSH2 0x1C3F JUMP JUMPDEST JUMPDEST EQ ISZERO DUP1 ISZERO PUSH2 0x10C5 JUMPI POP PUSH1 0x1 PUSH1 0x2 DUP2 GT ISZERO PUSH2 0x10AF JUMPI PUSH2 0x10AE PUSH2 0x1C3F JUMP JUMPDEST JUMPDEST DUP6 PUSH1 0x2 DUP2 GT ISZERO PUSH2 0x10C2 JUMPI PUSH2 0x10C1 PUSH2 0x1C3F JUMP JUMPDEST JUMPDEST EQ ISZERO JUMPDEST DUP1 ISZERO PUSH2 0x10F5 JUMPI POP PUSH1 0x2 DUP1 DUP2 GT ISZERO PUSH2 0x10DF JUMPI PUSH2 0x10DE PUSH2 0x1C3F JUMP JUMPDEST JUMPDEST DUP6 PUSH1 0x2 DUP2 GT ISZERO PUSH2 0x10F2 JUMPI PUSH2 0x10F1 PUSH2 0x1C3F JUMP JUMPDEST JUMPDEST EQ ISZERO JUMPDEST ISZERO PUSH2 0x1102 JUMPI PUSH0 SWAP1 POP PUSH2 0x128C JUMP JUMPDEST PUSH0 PUSH1 0x2 DUP2 GT ISZERO PUSH2 0x1115 JUMPI PUSH2 0x1114 PUSH2 0x1C3F JUMP JUMPDEST JUMPDEST DUP5 PUSH1 0x2 DUP2 GT ISZERO PUSH2 0x1128 JUMPI PUSH2 0x1127 PUSH2 0x1C3F JUMP JUMPDEST JUMPDEST EQ ISZERO DUP1 ISZERO PUSH2 0x115B JUMPI POP PUSH1 0x1 PUSH1 0x2 DUP2 GT ISZERO PUSH2 0x1145 JUMPI PUSH2 0x1144 PUSH2 0x1C3F JUMP JUMPDEST JUMPDEST DUP5 PUSH1 0x2 DUP2 GT ISZERO PUSH2 0x1158 JUMPI PUSH2 0x1157 PUSH2 0x1C3F JUMP JUMPDEST JUMPDEST EQ ISZERO JUMPDEST DUP1 ISZERO PUSH2 0x118B JUMPI POP PUSH1 0x2 DUP1 DUP2 GT ISZERO PUSH2 0x1175 JUMPI PUSH2 0x1174 PUSH2 0x1C3F JUMP JUMPDEST JUMPDEST DUP5 PUSH1 0x2 DUP2 GT ISZERO PUSH2 0x1188 JUMPI PUSH2 0x1187 PUSH2 0x1C3F JUMP JUMPDEST JUMPDEST EQ ISZERO JUMPDEST ISZERO PUSH2 0x1198 JUMPI PUSH0 SWAP1 POP PUSH2 0x128C JUMP JUMPDEST DUP5 PUSH1 0x1 DUP8 DUP2 SLOAD DUP2 LT PUSH2 0x11AD JUMPI PUSH2 0x11AC PUSH2 0x22AB JUMP JUMPDEST JUMPDEST SWAP1 PUSH0 MSTORE PUSH1 0x20 PUSH0 KECCAK256 SWAP1 PUSH1 0x14 MUL ADD PUSH1 0xB ADD PUSH0 ADD PUSH0 PUSH2 0x100 EXP DUP2 SLOAD DUP2 PUSH1 0xFF MUL NOT AND SWAP1 DUP4 PUSH1 0x2 DUP2 GT ISZERO PUSH2 0x11DF JUMPI PUSH2 0x11DE PUSH2 0x1C3F JUMP JUMPDEST JUMPDEST MUL OR SWAP1 SSTORE POP DUP4 PUSH1 0x1 DUP8 DUP2 SLOAD DUP2 LT PUSH2 0x11F9 JUMPI PUSH2 0x11F8 PUSH2 0x22AB JUMP JUMPDEST JUMPDEST SWAP1 PUSH0 MSTORE PUSH1 0x20 PUSH0 KECCAK256 SWAP1 PUSH1 0x14 MUL ADD PUSH1 0xB ADD PUSH0 ADD PUSH1 0x1 PUSH2 0x100 EXP DUP2 SLOAD DUP2 PUSH1 0xFF MUL NOT AND SWAP1 DUP4 PUSH1 0x2 DUP2 GT ISZERO PUSH2 0x122C JUMPI PUSH2 0x122B PUSH2 0x1C3F JUMP JUMPDEST JUMPDEST MUL OR SWAP1 SSTORE POP DUP3 PUSH1 0x1 DUP8 DUP2 SLOAD DUP2 LT PUSH2 0x1246 JUMPI PUSH2 0x1245 PUSH2 0x22AB JUMP JUMPDEST JUMPDEST SWAP1 PUSH0 MSTORE PUSH1 0x20 PUSH0 KECCAK256 SWAP1 PUSH1 0x14 MUL ADD PUSH1 0xB ADD PUSH1 0x1 ADD DUP2 SWAP1 SSTORE POP DUP2 PUSH1 0x1 DUP8 DUP2 SLOAD DUP2 LT PUSH2 0x1271 JUMPI PUSH2 0x1270 PUSH2 0x22AB JUMP JUMPDEST JUMPDEST SWAP1 PUSH0 MSTORE PUSH1 0x20 PUSH0 KECCAK256 SWAP1 PUSH1 0x14 MUL ADD PUSH1 0xB ADD PUSH1 0x2 ADD DUP2 SWAP1 SSTORE POP PUSH1 0x1 SWAP1 POP JUMPDEST SWAP6 SWAP5 POP POP POP POP POP JUMP JUMPDEST PUSH0 DUP1 PUSH1 0x2 DUP2 GT ISZERO PUSH2 0x12A9 JUMPI PUSH2 0x12A8 PUSH2 0x1C3F JUMP JUMPDEST JUMPDEST DUP6 PUSH1 0x2 DUP2 GT ISZERO PUSH2 0x12BC JUMPI PUSH2 0x12BB PUSH2 0x1C3F JUMP JUMPDEST JUMPDEST EQ ISZERO DUP1 ISZERO PUSH2 0x12EF JUMPI POP PUSH1 0x1 PUSH1 0x2 DUP2 GT ISZERO PUSH2 0x12D9 JUMPI PUSH2 0x12D8 PUSH2 0x1C3F JUMP JUMPDEST JUMPDEST DUP6 PUSH1 0x2 DUP2 GT ISZERO PUSH2 0x12EC JUMPI PUSH2 0x12EB PUSH2 0x1C3F JUMP JUMPDEST JUMPDEST EQ ISZERO JUMPDEST DUP1 ISZERO PUSH2 0x131F JUMPI POP PUSH1 0x2 DUP1 DUP2 GT ISZERO PUSH2 0x1309 JUMPI PUSH2 0x1308 PUSH2 0x1C3F JUMP JUMPDEST JUMPDEST DUP6 PUSH1 0x2 DUP2 GT ISZERO PUSH2 0x131C JUMPI PUSH2 0x131B PUSH2 0x1C3F JUMP JUMPDEST JUMPDEST EQ ISZERO JUMPDEST ISZERO PUSH2 0x132C JUMPI PUSH0 SWAP1 POP PUSH2 0x14B6 JUMP JUMPDEST PUSH0 PUSH1 0x2 DUP2 GT ISZERO PUSH2 0x133F JUMPI PUSH2 0x133E PUSH2 0x1C3F JUMP JUMPDEST JUMPDEST DUP5 PUSH1 0x2 DUP2 GT ISZERO PUSH2 0x1352 JUMPI PUSH2 0x1351 PUSH2 0x1C3F JUMP JUMPDEST JUMPDEST EQ ISZERO DUP1 ISZERO PUSH2 0x1385 JUMPI POP PUSH1 0x1 PUSH1 0x2 DUP2 GT ISZERO PUSH2 0x136F JUMPI PUSH2 0x136E PUSH2 0x1C3F JUMP JUMPDEST JUMPDEST DUP5 PUSH1 0x2 DUP2 GT ISZERO PUSH2 0x1382 JUMPI PUSH2 0x1381 PUSH2 0x1C3F JUMP JUMPDEST JUMPDEST EQ ISZERO JUMPDEST DUP1 ISZERO PUSH2 0x13B5 JUMPI POP PUSH1 0x2 DUP1 DUP2 GT ISZERO PUSH2 0x139F JUMPI PUSH2 0x139E PUSH2 0x1C3F JUMP JUMPDEST JUMPDEST DUP5 PUSH1 0x2 DUP2 GT ISZERO PUSH2 0x13B2 JUMPI PUSH2 0x13B1 PUSH2 0x1C3F JUMP JUMPDEST JUMPDEST EQ ISZERO JUMPDEST ISZERO PUSH2 0x13C2 JUMPI PUSH0 SWAP1 POP PUSH2 0x14B6 JUMP JUMPDEST DUP5 PUSH1 0x1 DUP8 DUP2 SLOAD DUP2 LT PUSH2 0x13D7 JUMPI PUSH2 0x13D6 PUSH2 0x22AB JUMP JUMPDEST JUMPDEST SWAP1 PUSH0 MSTORE PUSH1 0x20 PUSH0 KECCAK256 SWAP1 PUSH1 0x14 MUL ADD PUSH1 0x11 ADD PUSH0 ADD PUSH0 PUSH2 0x100 EXP DUP2 SLOAD DUP2 PUSH1 0xFF MUL NOT AND SWAP1 DUP4 PUSH1 0x2 DUP2 GT ISZERO PUSH2 0x1409 JUMPI PUSH2 0x1408 PUSH2 0x1C3F JUMP JUMPDEST JUMPDEST MUL OR SWAP1 SSTORE POP DUP4 PUSH1 0x1 DUP8 DUP2 SLOAD DUP2 LT PUSH2 0x1423 JUMPI PUSH2 0x1422 PUSH2 0x22AB JUMP JUMPDEST JUMPDEST SWAP1 PUSH0 MSTORE PUSH1 0x20 PUSH0 KECCAK256 SWAP1 PUSH1 0x14 MUL ADD PUSH1 0x11 ADD PUSH0 ADD PUSH1 0x1 PUSH2 0x100 EXP DUP2 SLOAD DUP2 PUSH1 0xFF MUL NOT AND SWAP1 DUP4 PUSH1 0x2 DUP2 GT ISZERO PUSH2 0x1456 JUMPI PUSH2 0x1455 PUSH2 0x1C3F JUMP JUMPDEST JUMPDEST MUL OR SWAP1 SSTORE POP DUP3 PUSH1 0x1 DUP8 DUP2 SLOAD DUP2 LT PUSH2 0x1470 JUMPI PUSH2 0x146F PUSH2 0x22AB JUMP JUMPDEST JUMPDEST SWAP1 PUSH0 MSTORE PUSH1 0x20 PUSH0 KECCAK256 SWAP1 PUSH1 0x14 MUL ADD PUSH1 0x11 ADD PUSH1 0x1 ADD DUP2 SWAP1 SSTORE POP DUP2 PUSH1 0x1 DUP8 DUP2 SLOAD DUP2 LT PUSH2 0x149B JUMPI PUSH2 0x149A PUSH2 0x22AB JUMP JUMPDEST JUMPDEST SWAP1 PUSH0 MSTORE PUSH1 0x20 PUSH0 KECCAK256 SWAP1 PUSH1 0x14 MUL ADD PUSH1 0x11 ADD PUSH1 0x2 ADD DUP2 SWAP1 SSTORE POP PUSH1 0x1 SWAP1 POP JUMPDEST SWAP6 SWAP5 POP POP POP POP POP JUMP JUMPDEST PUSH0 DUP1 PUSH1 0x2 DUP2 GT ISZERO PUSH2 0x14D3 JUMPI PUSH2 0x14D2 PUSH2 0x1C3F JUMP JUMPDEST JUMPDEST DUP6 PUSH1 0x2 DUP2 GT ISZERO PUSH2 0x14E6 JUMPI PUSH2 0x14E5 PUSH2 0x1C3F JUMP JUMPDEST JUMPDEST EQ ISZERO DUP1 ISZERO PUSH2 0x1519 JUMPI POP PUSH1 0x1 PUSH1 0x2 DUP2 GT ISZERO PUSH2 0x1503 JUMPI PUSH2 0x1502 PUSH2 0x1C3F JUMP JUMPDEST JUMPDEST DUP6 PUSH1 0x2 DUP2 GT ISZERO PUSH2 0x1516 JUMPI PUSH2 0x1515 PUSH2 0x1C3F JUMP JUMPDEST JUMPDEST EQ ISZERO JUMPDEST DUP1 ISZERO PUSH2 0x1549 JUMPI POP PUSH1 0x2 DUP1 DUP2 GT ISZERO PUSH2 0x1533 JUMPI PUSH2 0x1532 PUSH2 0x1C3F JUMP JUMPDEST JUMPDEST DUP6 PUSH1 0x2 DUP2 GT ISZERO PUSH2 0x1546 JUMPI PUSH2 0x1545 PUSH2 0x1C3F JUMP JUMPDEST JUMPDEST EQ ISZERO JUMPDEST ISZERO PUSH2 0x1556 JUMPI PUSH0 SWAP1 POP PUSH2 0x16E0 JUMP JUMPDEST PUSH0 PUSH1 0x2 DUP2 GT ISZERO PUSH2 0x1569 JUMPI PUSH2 0x1568 PUSH2 0x1C3F JUMP JUMPDEST JUMPDEST DUP5 PUSH1 0x2 DUP2 GT ISZERO PUSH2 0x157C JUMPI PUSH2 0x157B PUSH2 0x1C3F JUMP JUMPDEST JUMPDEST EQ ISZERO DUP1 ISZERO PUSH2 0x15AF JUMPI POP PUSH1 0x1 PUSH1 0x2 DUP2 GT ISZERO PUSH2 0x1599 JUMPI PUSH2 0x1598 PUSH2 0x1C3F JUMP JUMPDEST JUMPDEST DUP5 PUSH1 0x2 DUP2 GT ISZERO PUSH2 0x15AC JUMPI PUSH2 0x15AB PUSH2 0x1C3F JUMP JUMPDEST JUMPDEST EQ ISZERO JUMPDEST DUP1 ISZERO PUSH2 0x15DF JUMPI POP PUSH1 0x2 DUP1 DUP2 GT ISZERO PUSH2 0x15C9 JUMPI PUSH2 0x15C8 PUSH2 0x1C3F JUMP JUMPDEST JUMPDEST DUP5 PUSH1 0x2 DUP2 GT ISZERO PUSH2 0x15DC JUMPI PUSH2 0x15DB PUSH2 0x1C3F JUMP JUMPDEST JUMPDEST EQ ISZERO JUMPDEST ISZERO PUSH2 0x15EC JUMPI PUSH0 SWAP1 POP PUSH2 0x16E0 JUMP JUMPDEST DUP5 PUSH1 0x1 DUP8 DUP2 SLOAD DUP2 LT PUSH2 0x1601 JUMPI PUSH2 0x1600 PUSH2 0x22AB JUMP JUMPDEST JUMPDEST SWAP1 PUSH0 MSTORE PUSH1 0x20 PUSH0 KECCAK256 SWAP1 PUSH1 0x14 MUL ADD PUSH1 0x5 ADD PUSH0 ADD PUSH0 PUSH2 0x100 EXP DUP2 SLOAD DUP2 PUSH1 0xFF MUL NOT AND SWAP1 DUP4 PUSH1 0x2 DUP2 GT ISZERO PUSH2 0x1633 JUMPI PUSH2 0x1632 PUSH2 0x1C3F JUMP JUMPDEST JUMPDEST MUL OR SWAP1 SSTORE POP DUP4 PUSH1 0x1 DUP8 DUP2 SLOAD DUP2 LT PUSH2 0x164D JUMPI PUSH2 0x164C PUSH2 0x22AB JUMP JUMPDEST JUMPDEST SWAP1 PUSH0 MSTORE PUSH1 0x20 PUSH0 KECCAK256 SWAP1 PUSH1 0x14 MUL ADD PUSH1 0x5 ADD PUSH0 ADD PUSH1 0x1 PUSH2 0x100 EXP DUP2 SLOAD DUP2 PUSH1 0xFF MUL NOT AND SWAP1 DUP4 PUSH1 0x2 DUP2 GT ISZERO PUSH2 0x1680 JUMPI PUSH2 0x167F PUSH2 0x1C3F JUMP JUMPDEST JUMPDEST MUL OR SWAP1 SSTORE POP DUP3 PUSH1 0x1 DUP8 DUP2 SLOAD DUP2 LT PUSH2 0x169A JUMPI PUSH2 0x1699 PUSH2 0x22AB JUMP JUMPDEST JUMPDEST SWAP1 PUSH0 MSTORE PUSH1 0x20 PUSH0 KECCAK256 SWAP1 PUSH1 0x14 MUL ADD PUSH1 0x5 ADD PUSH1 0x1 ADD DUP2 SWAP1 SSTORE POP DUP2 PUSH1 0x1 DUP8 DUP2 SLOAD DUP2 LT PUSH2 0x16C5 JUMPI PUSH2 0x16C4 PUSH2 0x22AB JUMP JUMPDEST JUMPDEST SWAP1 PUSH0 MSTORE PUSH1 0x20 PUSH0 KECCAK256 SWAP1 PUSH1 0x14 MUL ADD PUSH1 0x5 ADD PUSH1 0x2 ADD DUP2 SWAP1 SSTORE POP PUSH1 0x1 SWAP1 POP JUMPDEST SWAP6 SWAP5 POP POP POP POP POP JUMP JUMPDEST PUSH1 0x40 MLOAD DUP1 PUSH2 0x140 ADD PUSH1 0x40 MSTORE DUP1 PUSH0 DUP2 MSTORE PUSH1 0x20 ADD PUSH0 DUP2 MSTORE PUSH1 0x20 ADD PUSH1 0x60 DUP2 MSTORE PUSH1 0x20 ADD PUSH0 DUP2 MSTORE PUSH1 0x20 ADD PUSH0 PUSH20 0xFFFFFFFFFFFFFFFFFFFFFFFFFFFFFFFFFFFFFFFF AND DUP2 MSTORE PUSH1 0x20 ADD PUSH2 0x1732 PUSH2 0x176C JUMP JUMPDEST DUP2 MSTORE PUSH1 0x20 ADD PUSH2 0x173F PUSH2 0x17B4 JUMP JUMPDEST DUP2 MSTORE PUSH1 0x20 ADD PUSH2 0x174C PUSH2 0x17FC JUMP JUMPDEST DUP2 MSTORE PUSH1 0x20 ADD PUSH2 0x1759 PUSH2 0x1844 JUMP JUMPDEST DUP2 MSTORE PUSH1 0x20 ADD PUSH2 0x1766 PUSH2 0x188C JUMP JUMPDEST DUP2 MSTORE POP SWAP1 JUMP JUMPDEST PUSH1 0x40 MLOAD DUP1 PUSH1 0x80 ADD PUSH1 0x40 MSTORE DUP1 PUSH0 PUSH1 0x2 DUP2 GT ISZERO PUSH2 0x178A JUMPI PUSH2 0x1789 PUSH2 0x1C3F JUMP JUMPDEST JUMPDEST DUP2 MSTORE PUSH1 0x20 ADD PUSH0 PUSH1 0x2 DUP2 GT ISZERO PUSH2 0x17A2 JUMPI PUSH2 0x17A1 PUSH2 0x1C3F JUMP JUMPDEST JUMPDEST DUP2 MSTORE PUSH1 0x20 ADD PUSH0 DUP2 MSTORE PUSH1 0x20 ADD PUSH0 DUP2 MSTORE POP SWAP1 JUMP JUMPDEST PUSH1 0x40 MLOAD DUP1 PUSH1 0x80 ADD PUSH1 0x40 MSTORE DUP1 PUSH0 PUSH1 0x2 DUP2 GT ISZERO PUSH2 0x17D2 JUMPI PUSH2 0x17D1 PUSH2 0x1C3F JUMP JUMPDEST JUMPDEST DUP2 MSTORE PUSH1 0x20 ADD PUSH0 PUSH1 0x2 DUP2 GT ISZERO PUSH2 0x17EA JUMPI PUSH2 0x17E9 PUSH2 0x1C3F JUMP JUMPDEST JUMPDEST DUP2 MSTORE PUSH1 0x20 ADD PUSH0 DUP2 MSTORE PUSH1 0x20 ADD PUSH0 DUP2 MSTORE POP SWAP1 JUMP JUMPDEST PUSH1 0x40 MLOAD DUP1 PUSH1 0x80 ADD PUSH1 0x40 MSTORE DUP1 PUSH0 PUSH1 0x2 DUP2 GT ISZERO PUSH2 0x181A JUMPI PUSH2 0x1819 PUSH2 0x1C3F JUMP JUMPDEST JUMPDEST DUP2 MSTORE PUSH1 0x20 ADD PUSH0 PUSH1 0x2 DUP2 GT ISZERO PUSH2 0x1832 JUMPI PUSH2 0x1831 PUSH2 0x1C3F JUMP JUMPDEST JUMPDEST DUP2 MSTORE PUSH1 0x20 ADD PUSH0 DUP2 MSTORE PUSH1 0x20 ADD PUSH0 DUP2 MSTORE POP SWAP1 JUMP JUMPDEST PUSH1 0x40 MLOAD DUP1 PUSH1 0x80 ADD PUSH1 0x40 MSTORE DUP1 PUSH0 PUSH1 0x2 DUP2 GT ISZERO PUSH2 0x1862 JUMPI PUSH2 0x1861 PUSH2 0x1C3F JUMP JUMPDEST JUMPDEST DUP2 MSTORE PUSH1 0x20 ADD PUSH0 PUSH1 0x2 DUP2 GT ISZERO PUSH2 0x187A JUMPI PUSH2 0x1879 PUSH2 0x1C3F JUMP JUMPDEST JUMPDEST DUP2 MSTORE PUSH1 0x20 ADD PUSH0 DUP2 MSTORE PUSH1 0x20 ADD PUSH0 DUP2 MSTORE POP SWAP1 JUMP JUMPDEST PUSH1 0x40 MLOAD DUP1 PUSH1 0x80 ADD PUSH1 0x40 MSTORE DUP1 PUSH0 PUSH1 0x2 DUP2 GT ISZERO PUSH2 0x18AA JUMPI PUSH2 0x18A9 PUSH2 0x1C3F JUMP JUMPDEST JUMPDEST DUP2 MSTORE PUSH1 0x20 ADD PUSH0 PUSH1 0x2 DUP2 GT ISZERO PUSH2 0x18C2 JUMPI PUSH2 0x18C1 PUSH2 0x1C3F JUMP JUMPDEST JUMPDEST DUP2 MSTORE PUSH1 0x20 ADD PUSH0 DUP2 MSTORE PUSH1 0x20 ADD PUSH0 DUP2 MSTORE POP SWAP1 JUMP JUMPDEST PUSH0 PUSH1 0x40 MLOAD SWAP1 POP SWAP1 JUMP JUMPDEST PUSH0 DUP1 REVERT JUMPDEST PUSH0 DUP1 REVERT JUMPDEST PUSH0 DUP1 REVERT JUMPDEST PUSH0 DUP1 REVERT JUMPDEST PUSH0 PUSH1 0x1F NOT PUSH1 0x1F DUP4 ADD AND SWAP1 POP SWAP2 SWAP1 POP JUMP JUMPDEST PUSH32 0x4E487B7100000000000000000000000000000000000000000000000000000000 PUSH0 MSTORE PUSH1 0x41 PUSH1 0x4 MSTORE PUSH1 0x24 PUSH0 REVERT JUMPDEST PUSH2 0x1933 DUP3 PUSH2 0x18ED JUMP JUMPDEST DUP2 ADD DUP2 DUP2 LT PUSH8 0xFFFFFFFFFFFFFFFF DUP3 GT OR ISZERO PUSH2 0x1952 JUMPI PUSH2 0x1951 PUSH2 0x18FD JUMP JUMPDEST JUMPDEST DUP1 PUSH1 0x40 MSTORE POP POP POP JUMP JUMPDEST PUSH0 PUSH2 0x1964 PUSH2 0x18D4 JUMP JUMPDEST SWAP1 POP PUSH2 0x1970 DUP3 DUP3 PUSH2 0x192A JUMP JUMPDEST SWAP2 SWAP1 POP JUMP JUMPDEST PUSH0 PUSH8 0xFFFFFFFFFFFFFFFF DUP3 GT ISZERO PUSH2 0x198F JUMPI PUSH2 0x198E PUSH2 0x18FD JUMP JUMPDEST JUMPDEST PUSH2 0x1998 DUP3 PUSH2 0x18ED JUMP JUMPDEST SWAP1 POP PUSH1 0x20 DUP2 ADD SWAP1 POP SWAP2 SWAP1 POP JUMP JUMPDEST DUP3 DUP2 DUP4 CALLDATACOPY PUSH0 DUP4 DUP4 ADD MSTORE POP POP POP JUMP JUMPDEST PUSH0 PUSH2 0x19C5 PUSH2 0x19C0 DUP5 PUSH2 0x1975 JUMP JUMPDEST PUSH2 0x195B JUMP JUMPDEST SWAP1 POP DUP3 DUP2 MSTORE PUSH1 0x20 DUP2 ADD DUP5 DUP5 DUP5 ADD GT ISZERO PUSH2 0x19E1 JUMPI PUSH2 0x19E0 PUSH2 0x18E9 JUMP JUMPDEST JUMPDEST PUSH2 0x19EC DUP5 DUP3 DUP6 PUSH2 0x19A5 JUMP JUMPDEST POP SWAP4 SWAP3 POP POP POP JUMP JUMPDEST PUSH0 DUP3 PUSH1 0x1F DUP4 ADD SLT PUSH2 0x1A08 JUMPI PUSH2 0x1A07 PUSH2 0x18E5 JUMP JUMPDEST JUMPDEST DUP2 CALLDATALOAD PUSH2 0x1A18 DUP5 DUP3 PUSH1 0x20 DUP7 ADD PUSH2 0x19B3 JUMP JUMPDEST SWAP2 POP POP SWAP3 SWAP2 POP POP JUMP JUMPDEST PUSH0 DUP2 SWAP1 POP SWAP2 SWAP1 POP JUMP JUMPDEST PUSH2 0x1A33 DUP2 PUSH2 0x1A21 JUMP JUMPDEST DUP2 EQ PUSH2 0x1A3D JUMPI PUSH0 DUP1 REVERT JUMPDEST POP JUMP JUMPDEST PUSH0 DUP2 CALLDATALOAD SWAP1 POP PUSH2 0x1A4E DUP2 PUSH2 0x1A2A JUMP JUMPDEST SWAP3 SWAP2 POP POP JUMP JUMPDEST PUSH0 PUSH20 0xFFFFFFFFFFFFFFFFFFFFFFFFFFFFFFFFFFFFFFFF DUP3 AND SWAP1 POP SWAP2 SWAP1 POP JUMP JUMPDEST PUSH0 PUSH2 0x1A7D DUP3 PUSH2 0x1A54 JUMP JUMPDEST SWAP1 POP SWAP2 SWAP1 POP JUMP JUMPDEST PUSH2 0x1A8D DUP2 PUSH2 0x1A73 JUMP JUMPDEST DUP2 EQ PUSH2 0x1A97 JUMPI PUSH0 DUP1 REVERT JUMPDEST POP JUMP JUMPDEST PUSH0 DUP2 CALLDATALOAD SWAP1 POP PUSH2 0x1AA8 DUP2 PUSH2 0x1A84 JUMP JUMPDEST SWAP3 SWAP2 POP POP JUMP JUMPDEST PUSH0 DUP1 PUSH0 PUSH1 0x60 DUP5 DUP7 SUB SLT ISZERO PUSH2 0x1AC5 JUMPI PUSH2 0x1AC4 PUSH2 0x18DD JUMP JUMPDEST JUMPDEST PUSH0 DUP5 ADD CALLDATALOAD PUSH8 0xFFFFFFFFFFFFFFFF DUP2 GT ISZERO PUSH2 0x1AE2 JUMPI PUSH2 0x1AE1 PUSH2 0x18E1 JUMP JUMPDEST JUMPDEST PUSH2 0x1AEE DUP7 DUP3 DUP8 ADD PUSH2 0x19F4 JUMP JUMPDEST SWAP4 POP POP PUSH1 0x20 PUSH2 0x1AFF DUP7 DUP3 DUP8 ADD PUSH2 0x1A40 JUMP JUMPDEST SWAP3 POP POP PUSH1 0x40 PUSH2 0x1B10 DUP7 DUP3 DUP8 ADD PUSH2 0x1A9A JUMP JUMPDEST SWAP2 POP POP SWAP3 POP SWAP3 POP SWAP3 JUMP JUMPDEST PUSH2 0x1B23 DUP2 PUSH2 0x1A21 JUMP JUMPDEST DUP3 MSTORE POP POP JUMP JUMPDEST PUSH0 PUSH1 0x40 DUP3 ADD SWAP1 POP PUSH2 0x1B3C PUSH0 DUP4 ADD DUP6 PUSH2 0x1B1A JUMP JUMPDEST PUSH2 0x1B49 PUSH1 0x20 DUP4 ADD DUP5 PUSH2 0x1B1A JUMP JUMPDEST SWAP4 SWAP3 POP POP POP JUMP JUMPDEST PUSH0 DUP1 PUSH1 0x40 DUP4 DUP6 SUB SLT ISZERO PUSH2 0x1B66 JUMPI PUSH2 0x1B65 PUSH2 0x18DD JUMP JUMPDEST JUMPDEST PUSH0 PUSH2 0x1B73 DUP6 DUP3 DUP7 ADD PUSH2 0x1A40 JUMP JUMPDEST SWAP3 POP POP PUSH1 0x20 PUSH2 0x1B84 DUP6 DUP3 DUP7 ADD PUSH2 0x1A40 JUMP JUMPDEST SWAP2 POP POP SWAP3 POP SWAP3 SWAP1 POP JUMP JUMPDEST PUSH0 DUP2 ISZERO ISZERO SWAP1 POP SWAP2 SWAP1 POP JUMP JUMPDEST PUSH2 0x1BA2 DUP2 PUSH2 0x1B8E JUMP JUMPDEST DUP3 MSTORE POP POP JUMP JUMPDEST PUSH0 PUSH1 0x20 DUP3 ADD SWAP1 POP PUSH2 0x1BBB PUSH0 DUP4 ADD DUP5 PUSH2 0x1B99 JUMP JUMPDEST SWAP3 SWAP2 POP POP JUMP JUMPDEST PUSH2 0x1BCA DUP2 PUSH2 0x1A21 JUMP JUMPDEST DUP3 MSTORE POP POP JUMP JUMPDEST PUSH0 DUP2 MLOAD SWAP1 POP SWAP2 SWAP1 POP JUMP JUMPDEST PUSH0 DUP3 DUP3 MSTORE PUSH1 0x20 DUP3 ADD SWAP1 POP SWAP3 SWAP2 POP POP JUMP JUMPDEST DUP3 DUP2 DUP4 MCOPY PUSH0 DUP4 DUP4 ADD MSTORE POP POP POP JUMP JUMPDEST PUSH0 PUSH2 0x1C02 DUP3 PUSH2 0x1BD0 JUMP JUMPDEST PUSH2 0x1C0C DUP2 DUP6 PUSH2 0x1BDA JUMP JUMPDEST SWAP4 POP PUSH2 0x1C1C DUP2 DUP6 PUSH1 0x20 DUP7 ADD PUSH2 0x1BEA JUMP JUMPDEST PUSH2 0x1C25 DUP2 PUSH2 0x18ED JUMP JUMPDEST DUP5 ADD SWAP2 POP POP SWAP3 SWAP2 POP POP JUMP JUMPDEST PUSH2 0x1C39 DUP2 PUSH2 0x1A73 JUMP JUMPDEST DUP3 MSTORE POP POP JUMP JUMPDEST PUSH32 0x4E487B7100000000000000000000000000000000000000000000000000000000 PUSH0 MSTORE PUSH1 0x21 PUSH1 0x4 MSTORE PUSH1 0x24 PUSH0 REVERT JUMPDEST PUSH1 0x3 DUP2 LT PUSH2 0x1C7D JUMPI PUSH2 0x1C7C PUSH2 0x1C3F JUMP JUMPDEST JUMPDEST POP JUMP JUMPDEST PUSH0 DUP2 SWAP1 POP PUSH2 0x1C8D DUP3 PUSH2 0x1C6C JUMP JUMPDEST SWAP2 SWAP1 POP JUMP JUMPDEST PUSH0 PUSH2 0x1C9C DUP3 PUSH2 0x1C80 JUMP JUMPDEST SWAP1 POP SWAP2 SWAP1 POP JUMP JUMPDEST PUSH2 0x1CAC DUP2 PUSH2 0x1C92 JUMP JUMPDEST DUP3 MSTORE POP POP JUMP JUMPDEST PUSH1 0x3 DUP2 LT PUSH2 0x1CC3 JUMPI PUSH2 0x1CC2 PUSH2 0x1C3F JUMP JUMPDEST JUMPDEST POP JUMP JUMPDEST PUSH0 DUP2 SWAP1 POP PUSH2 0x1CD3 DUP3 PUSH2 0x1CB2 JUMP JUMPDEST SWAP2 SWAP1 POP JUMP JUMPDEST PUSH0 PUSH2 0x1CE2 DUP3 PUSH2 0x1CC6 JUMP JUMPDEST SWAP1 POP SWAP2 SWAP1 POP JUMP JUMPDEST PUSH2 0x1CF2 DUP2 PUSH2 0x1CD8 JUMP JUMPDEST DUP3 MSTORE POP POP JUMP JUMPDEST PUSH1 0x80 DUP3 ADD PUSH0 DUP3 ADD MLOAD PUSH2 0x1D0C PUSH0 DUP6 ADD DUP3 PUSH2 0x1CA3 JUMP JUMPDEST POP PUSH1 0x20 DUP3 ADD MLOAD PUSH2 0x1D1F PUSH1 0x20 DUP6 ADD DUP3 PUSH2 0x1CE9 JUMP JUMPDEST POP PUSH1 0x40 DUP3 ADD MLOAD PUSH2 0x1D32 PUSH1 0x40 DUP6 ADD DUP3 PUSH2 0x1BC1 JUMP JUMPDEST POP PUSH1 0x60 DUP3 ADD MLOAD PUSH2 0x1D45 PUSH1 0x60 DUP6 ADD DUP3 PUSH2 0x1BC1 JUMP JUMPDEST POP POP POP POP JUMP JUMPDEST PUSH1 0x80 DUP3 ADD PUSH0 DUP3 ADD MLOAD PUSH2 0x1D5F PUSH0 DUP6 ADD DUP3 PUSH2 0x1CA3 JUMP JUMPDEST POP PUSH1 0x20 DUP3 ADD MLOAD PUSH2 0x1D72 PUSH1 0x20 DUP6 ADD DUP3 PUSH2 0x1CE9 JUMP JUMPDEST POP PUSH1 0x40 DUP3 ADD MLOAD PUSH2 0x1D85 PUSH1 0x40 DUP6 ADD DUP3 PUSH2 0x1BC1 JUMP JUMPDEST POP PUSH1 0x60 DUP3 ADD MLOAD PUSH2 0x1D98 PUSH1 0x60 DUP6 ADD DUP3 PUSH2 0x1BC1 JUMP JUMPDEST POP POP POP POP JUMP JUMPDEST PUSH1 0x3 DUP2 LT PUSH2 0x1DAF JUMPI PUSH2 0x1DAE PUSH2 0x1C3F JUMP JUMPDEST JUMPDEST POP JUMP JUMPDEST PUSH0 DUP2 SWAP1 POP PUSH2 0x1DBF DUP3 PUSH2 0x1D9E JUMP JUMPDEST SWAP2 SWAP1 POP JUMP JUMPDEST PUSH0 PUSH2 0x1DCE DUP3 PUSH2 0x1DB2 JUMP JUMPDEST SWAP1 POP SWAP2 SWAP1 POP JUMP JUMPDEST PUSH2 0x1DDE DUP2 PUSH2 0x1DC4 JUMP JUMPDEST DUP3 MSTORE POP POP JUMP JUMPDEST PUSH1 0x80 DUP3 ADD PUSH0 DUP3 ADD MLOAD PUSH2 0x1DF8 PUSH0 DUP6 ADD DUP3 PUSH2 0x1CA3 JUMP JUMPDEST POP PUSH1 0x20 DUP3 ADD MLOAD PUSH2 0x1E0B PUSH1 0x20 DUP6 ADD DUP3 PUSH2 0x1DD5 JUMP JUMPDEST POP PUSH1 0x40 DUP3 ADD MLOAD PUSH2 0x1E1E PUSH1 0x40 DUP6 ADD DUP3 PUSH2 0x1BC1 JUMP JUMPDEST POP PUSH1 0x60 DUP3 ADD MLOAD PUSH2 0x1E31 PUSH1 0x60 DUP6 ADD DUP3 PUSH2 0x1BC1 JUMP JUMPDEST POP POP POP POP JUMP JUMPDEST PUSH1 0x3 DUP2 LT PUSH2 0x1E48 JUMPI PUSH2 0x1E47 PUSH2 0x1C3F JUMP JUMPDEST JUMPDEST POP JUMP JUMPDEST PUSH0 DUP2 SWAP1 POP PUSH2 0x1E58 DUP3 PUSH2 0x1E37 JUMP JUMPDEST SWAP2 SWAP1 POP JUMP JUMPDEST PUSH0 PUSH2 0x1E67 DUP3 PUSH2 0x1E4B JUMP JUMPDEST SWAP1 POP SWAP2 SWAP1 POP JUMP JUMPDEST PUSH2 0x1E77 DUP2 PUSH2 0x1E5D JUMP JUMPDEST DUP3 MSTORE POP POP JUMP JUMPDEST PUSH1 0x80 DUP3 ADD PUSH0 DUP3 ADD MLOAD PUSH2 0x1E91 PUSH0 DUP6 ADD DUP3 PUSH2 0x1E6E JUMP JUMPDEST POP PUSH1 0x20 DUP3 ADD MLOAD PUSH2 0x1EA4 PUSH1 0x20 DUP6 ADD DUP3 PUSH2 0x1CE9 JUMP JUMPDEST POP PUSH1 0x40 DUP3 ADD MLOAD PUSH2 0x1EB7 PUSH1 0x40 DUP6 ADD DUP3 PUSH2 0x1BC1 JUMP JUMPDEST POP PUSH1 0x60 DUP3 ADD MLOAD PUSH2 0x1ECA PUSH1 0x60 DUP6 ADD DUP3 PUSH2 0x1BC1 JUMP JUMPDEST POP POP POP POP JUMP JUMPDEST PUSH1 0x80 DUP3 ADD PUSH0 DUP3 ADD MLOAD PUSH2 0x1EE4 PUSH0 DUP6 ADD DUP3 PUSH2 0x1CA3 JUMP JUMPDEST POP PUSH1 0x20 DUP3 ADD MLOAD PUSH2 0x1EF7 PUSH1 0x20 DUP6 ADD DUP3 PUSH2 0x1CE9 JUMP JUMPDEST POP PUSH1 0x40 DUP3 ADD MLOAD PUSH2 0x1F0A PUSH1 0x40 DUP6 ADD DUP3 PUSH2 0x1BC1 JUMP JUMPDEST POP PUSH1 0x60 DUP3 ADD MLOAD PUSH2 0x1F1D PUSH1 0x60 DUP6 ADD DUP3 PUSH2 0x1BC1 JUMP JUMPDEST POP POP POP POP JUMP JUMPDEST PUSH0 PUSH2 0x320 DUP4 ADD PUSH0 DUP4 ADD MLOAD PUSH2 0x1F39 PUSH0 DUP7 ADD DUP3 PUSH2 0x1BC1 JUMP JUMPDEST POP PUSH1 0x20 DUP4 ADD MLOAD PUSH2 0x1F4C PUSH1 0x20 DUP7 ADD DUP3 PUSH2 0x1BC1 JUMP JUMPDEST POP PUSH1 0x40 DUP4 ADD MLOAD DUP5 DUP3 SUB PUSH1 0x40 DUP7 ADD MSTORE PUSH2 0x1F64 DUP3 DUP3 PUSH2 0x1BF8 JUMP JUMPDEST SWAP2 POP POP PUSH1 0x60 DUP4 ADD MLOAD PUSH2 0x1F79 PUSH1 0x60 DUP7 ADD DUP3 PUSH2 0x1BC1 JUMP JUMPDEST POP PUSH1 0x80 DUP4 ADD MLOAD PUSH2 0x1F8C PUSH1 0x80 DUP7 ADD DUP3 PUSH2 0x1C30 JUMP JUMPDEST POP PUSH1 0xA0 DUP4 ADD MLOAD PUSH2 0x1F9F PUSH1 0xA0 DUP7 ADD DUP3 PUSH2 0x1CF8 JUMP JUMPDEST POP PUSH1 0xC0 DUP4 ADD MLOAD PUSH2 0x1FB3 PUSH2 0x120 DUP7 ADD DUP3 PUSH2 0x1D4B JUMP JUMPDEST POP PUSH1 0xE0 DUP4 ADD MLOAD PUSH2 0x1FC7 PUSH2 0x1A0 DUP7 ADD DUP3 PUSH2 0x1DE4 JUMP JUMPDEST POP PUSH2 0x100 DUP4 ADD MLOAD PUSH2 0x1FDC PUSH2 0x220 DUP7 ADD DUP3 PUSH2 0x1E7D JUMP JUMPDEST POP PUSH2 0x120 DUP4 ADD MLOAD PUSH2 0x1FF1 PUSH2 0x2A0 DUP7 ADD DUP3 PUSH2 0x1ED0 JUMP JUMPDEST POP DUP1 SWAP2 POP POP SWAP3 SWAP2 POP POP JUMP JUMPDEST PUSH0 PUSH1 0x20 DUP3 ADD SWAP1 POP DUP2 DUP2 SUB PUSH0 DUP4 ADD MSTORE PUSH2 0x2014 DUP2 DUP5 PUSH2 0x1F23 JUMP JUMPDEST SWAP1 POP SWAP3 SWAP2 POP POP JUMP JUMPDEST PUSH1 0x3 DUP2 LT PUSH2 0x2028 JUMPI PUSH0 DUP1 REVERT JUMPDEST POP JUMP JUMPDEST PUSH0 DUP2 CALLDATALOAD SWAP1 POP PUSH2 0x2039 DUP2 PUSH2 0x201C JUMP JUMPDEST SWAP3 SWAP2 POP POP JUMP JUMPDEST PUSH1 0x3 DUP2 LT PUSH2 0x204B JUMPI PUSH0 DUP1 REVERT JUMPDEST POP JUMP JUMPDEST PUSH0 DUP2 CALLDATALOAD SWAP1 POP PUSH2 0x205C DUP2 PUSH2 0x203F JUMP JUMPDEST SWAP3 SWAP2 POP POP JUMP JUMPDEST PUSH0 DUP1 PUSH0 DUP1 PUSH0 DUP1 PUSH1 0xC0 DUP8 DUP10 SUB SLT ISZERO PUSH2 0x207C JUMPI PUSH2 0x207B PUSH2 0x18DD JUMP JUMPDEST JUMPDEST PUSH0 PUSH2 0x2089 DUP10 DUP3 DUP11 ADD PUSH2 0x1A40 JUMP JUMPDEST SWAP7 POP POP PUSH1 0x20 PUSH2 0x209A DUP10 DUP3 DUP11 ADD PUSH2 0x1A40 JUMP JUMPDEST SWAP6 POP POP PUSH1 0x40 PUSH2 0x20AB DUP10 DUP3 DUP11 ADD PUSH2 0x202B JUMP JUMPDEST SWAP5 POP POP PUSH1 0x60 PUSH2 0x20BC DUP10 DUP3 DUP11 ADD PUSH2 0x204E JUMP JUMPDEST SWAP4 POP POP PUSH1 0x80 PUSH2 0x20CD DUP10 DUP3 DUP11 ADD PUSH2 0x1A40 JUMP JUMPDEST SWAP3 POP POP PUSH1 0xA0 PUSH2 0x20DE DUP10 DUP3 DUP11 ADD PUSH2 0x1A40 JUMP JUMPDEST SWAP2 POP POP SWAP3 SWAP6 POP SWAP3 SWAP6 POP SWAP3 SWAP6 JUMP JUMPDEST PUSH0 DUP3 DUP3 MSTORE PUSH1 0x20 DUP3 ADD SWAP1 POP SWAP3 SWAP2 POP POP JUMP JUMPDEST PUSH0 PUSH2 0x2105 DUP3 PUSH2 0x1BD0 JUMP JUMPDEST PUSH2 0x210F DUP2 DUP6 PUSH2 0x20EB JUMP JUMPDEST SWAP4 POP PUSH2 0x211F DUP2 DUP6 PUSH1 0x20 DUP7 ADD PUSH2 0x1BEA JUMP JUMPDEST PUSH2 0x2128 DUP2 PUSH2 0x18ED JUMP JUMPDEST DUP5 ADD SWAP2 POP POP SWAP3 SWAP2 POP POP JUMP JUMPDEST PUSH0 PUSH1 0x20 DUP3 ADD SWAP1 POP DUP2 DUP2 SUB PUSH0 DUP4 ADD MSTORE PUSH2 0x214B DUP2 DUP5 PUSH2 0x20FB JUMP JUMPDEST SWAP1 POP SWAP3 SWAP2 POP POP JUMP JUMPDEST PUSH1 0x3 DUP2 LT PUSH2 0x215F JUMPI PUSH0 DUP1 REVERT JUMPDEST POP JUMP JUMPDEST PUSH0 DUP2 CALLDATALOAD SWAP1 POP PUSH2 0x2170 DUP2 PUSH2 0x2153 JUMP JUMPDEST SWAP3 SWAP2 POP POP JUMP JUMPDEST PUSH0 DUP1 PUSH0 DUP1 PUSH0 DUP1 PUSH1 0xC0 DUP8 DUP10 SUB SLT ISZERO PUSH2 0x2190 JUMPI PUSH2 0x218F PUSH2 0x18DD JUMP JUMPDEST JUMPDEST PUSH0 PUSH2 0x219D DUP10 DUP3 DUP11 ADD PUSH2 0x1A40 JUMP JUMPDEST SWAP7 POP POP PUSH1 0x20 PUSH2 0x21AE DUP10 DUP3 DUP11 ADD PUSH2 0x1A40 JUMP JUMPDEST SWAP6 POP POP PUSH1 0x40 PUSH2 0x21BF DUP10 DUP3 DUP11 ADD PUSH2 0x2162 JUMP JUMPDEST SWAP5 POP POP PUSH1 0x60 PUSH2 0x21D0 DUP10 DUP3 DUP11 ADD PUSH2 0x204E JUMP JUMPDEST SWAP4 POP POP PUSH1 0x80 PUSH2 0x21E1 DUP10 DUP3 DUP11 ADD PUSH2 0x1A40 JUMP JUMPDEST SWAP3 POP POP PUSH1 0xA0 PUSH2 0x21F2 DUP10 DUP3 DUP11 ADD PUSH2 0x1A40 JUMP JUMPDEST SWAP2 POP POP SWAP3 SWAP6 POP SWAP3 SWAP6 POP SWAP3 SWAP6 JUMP JUMPDEST PUSH1 0x3 DUP2 LT PUSH2 0x220B JUMPI PUSH0 DUP1 REVERT JUMPDEST POP JUMP JUMPDEST PUSH0 DUP2 CALLDATALOAD SWAP1 POP PUSH2 0x221C DUP2 PUSH2 0x21FF JUMP JUMPDEST SWAP3 SWAP2 POP POP JUMP JUMPDEST PUSH0 DUP1 PUSH0 DUP1 PUSH0 DUP1 PUSH1 0xC0 DUP8 DUP10 SUB SLT ISZERO PUSH2 0x223C JUMPI PUSH2 0x223B PUSH2 0x18DD JUMP JUMPDEST JUMPDEST PUSH0 PUSH2 0x2249 DUP10 DUP3 DUP11 ADD PUSH2 0x1A40 JUMP JUMPDEST SWAP7 POP POP PUSH1 0x20 PUSH2 0x225A DUP10 DUP3 DUP11 ADD PUSH2 0x1A40 JUMP JUMPDEST SWAP6 POP POP PUSH1 0x40 PUSH2 0x226B DUP10 DUP3 DUP11 ADD PUSH2 0x2162 JUMP JUMPDEST SWAP5 POP POP PUSH1 0x60 PUSH2 0x227C DUP10 DUP3 DUP11 ADD PUSH2 0x220E JUMP JUMPDEST SWAP4 POP POP PUSH1 0x80 PUSH2 0x228D DUP10 DUP3 DUP11 ADD PUSH2 0x1A40 JUMP JUMPDEST SWAP3 POP POP PUSH1 0xA0 PUSH2 0x229E DUP10 DUP3 DUP11 ADD PUSH2 0x1A40 JUMP JUMPDEST SWAP2 POP POP SWAP3 SWAP6 POP SWAP3 SWAP6 POP SWAP3 SWAP6 JUMP JUMPDEST PUSH32 0x4E487B7100000000000000000000000000000000000000000000000000000000 PUSH0 MSTORE PUSH1 0x32 PUSH1 0x4 MSTORE PUSH1 0x24 PUSH0 REVERT JUMPDEST PUSH32 0x4E487B7100000000000000000000000000000000000000000000000000000000 PUSH0 MSTORE PUSH1 0x22 PUSH1 0x4 MSTORE PUSH1 0x24 PUSH0 REVERT JUMPDEST PUSH0 PUSH1 0x2 DUP3 DIV SWAP1 POP PUSH1 0x1 DUP3 AND DUP1 PUSH2 0x231C JUMPI PUSH1 0x7F DUP3 AND SWAP2 POP JUMPDEST PUSH1 0x20 DUP3 LT DUP2 SUB PUSH2 0x232F JUMPI PUSH2 0x232E PUSH2 0x22D8 JUMP JUMPDEST JUMPDEST POP SWAP2 SWAP1 POP JUMP JUMPDEST PUSH0 DUP2 SWAP1 POP DUP2 PUSH0 MSTORE PUSH1 0x20 PUSH0 KECCAK256 SWAP1 POP SWAP2 SWAP1 POP JUMP JUMPDEST PUSH0 PUSH1 0x20 PUSH1 0x1F DUP4 ADD DIV SWAP1 POP SWAP2 SWAP1 POP JUMP JUMPDEST PUSH0 DUP3 DUP3 SHL SWAP1 POP SWAP3 SWAP2 POP POP JUMP JUMPDEST PUSH0 PUSH1 0x8 DUP4 MUL PUSH2 0x2391 PUSH32 0xFFFFFFFFFFFFFFFFFFFFFFFFFFFFFFFFFFFFFFFFFFFFFFFFFFFFFFFFFFFFFFFF DUP3 PUSH2 0x2356 JUMP JUMPDEST PUSH2 0x239B DUP7 DUP4 PUSH2 0x2356 JUMP JUMPDEST SWAP6 POP DUP1 NOT DUP5 AND SWAP4 POP DUP1 DUP7 AND DUP5 OR SWAP3 POP POP POP SWAP4 SWAP3 POP POP POP JUMP JUMPDEST PUSH0 DUP2 SWAP1 POP SWAP2 SWAP1 POP JUMP JUMPDEST PUSH0 PUSH2 0x23D6 PUSH2 0x23D1 PUSH2 0x23CC DUP5 PUSH2 0x1A21 JUMP JUMPDEST PUSH2 0x23B3 JUMP JUMPDEST PUSH2 0x1A21 JUMP JUMPDEST SWAP1 POP SWAP2 SWAP1 POP JUMP JUMPDEST PUSH0 DUP2 SWAP1 POP SWAP2 SWAP1 POP JUMP JUMPDEST PUSH2 0x23EF DUP4 PUSH2 0x23BC JUMP JUMPDEST PUSH2 0x2403 PUSH2 0x23FB DUP3 PUSH2 0x23DD JUMP JUMPDEST DUP5 DUP5 SLOAD PUSH2 0x2362 JUMP JUMPDEST DUP3 SSTORE POP POP POP POP JUMP JUMPDEST PUSH0 SWAP1 JUMP JUMPDEST PUSH2 0x2417 PUSH2 0x240B JUMP JUMPDEST PUSH2 0x2422 DUP2 DUP5 DUP5 PUSH2 0x23E6 JUMP JUMPDEST POP POP POP JUMP JUMPDEST JUMPDEST DUP2 DUP2 LT ISZERO PUSH2 0x2445 JUMPI PUSH2 0x243A PUSH0 DUP3 PUSH2 0x240F JUMP JUMPDEST PUSH1 0x1 DUP2 ADD SWAP1 POP PUSH2 0x2428 JUMP JUMPDEST POP POP JUMP JUMPDEST PUSH1 0x1F DUP3 GT ISZERO PUSH2 0x248A JUMPI PUSH2 0x245B DUP2 PUSH2 0x2335 JUMP JUMPDEST PUSH2 0x2464 DUP5 PUSH2 0x2347 JUMP JUMPDEST DUP2 ADD PUSH1 0x20 DUP6 LT ISZERO PUSH2 0x2473 JUMPI DUP2 SWAP1 POP JUMPDEST PUSH2 0x2487 PUSH2 0x247F DUP6 PUSH2 0x2347 JUMP JUMPDEST DUP4 ADD DUP3 PUSH2 0x2427 JUMP JUMPDEST POP POP JUMPDEST POP POP POP JUMP JUMPDEST PUSH0 DUP3 DUP3 SHR SWAP1 POP SWAP3 SWAP2 POP POP JUMP JUMPDEST PUSH0 PUSH2 0x24AA PUSH0 NOT DUP5 PUSH1 0x8 MUL PUSH2 0x248F JUMP JUMPDEST NOT DUP1 DUP4 AND SWAP2 POP POP SWAP3 SWAP2 POP POP JUMP JUMPDEST PUSH0 PUSH2 0x24C2 DUP4 DUP4 PUSH2 0x249B JUMP JUMPDEST SWAP2 POP DUP3 PUSH1 0x2 MUL DUP3 OR SWAP1 POP SWAP3 SWAP2 POP POP JUMP JUMPDEST PUSH2 0x24DB DUP3 PUSH2 0x1BD0 JUMP JUMPDEST PUSH8 0xFFFFFFFFFFFFFFFF DUP2 GT ISZERO PUSH2 0x24F4 JUMPI PUSH2 0x24F3 PUSH2 0x18FD JUMP JUMPDEST JUMPDEST PUSH2 0x24FE DUP3 SLOAD PUSH2 0x2305 JUMP JUMPDEST PUSH2 0x2509 DUP3 DUP3 DUP6 PUSH2 0x2449 JUMP JUMPDEST PUSH0 PUSH1 0x20 SWAP1 POP PUSH1 0x1F DUP4 GT PUSH1 0x1 DUP2 EQ PUSH2 0x253A JUMPI PUSH0 DUP5 ISZERO PUSH2 0x2528 JUMPI DUP3 DUP8 ADD MLOAD SWAP1 POP JUMPDEST PUSH2 0x2532 DUP6 DUP3 PUSH2 0x24B7 JUMP JUMPDEST DUP7 SSTORE POP PUSH2 0x2599 JUMP JUMPDEST PUSH1 0x1F NOT DUP5 AND PUSH2 0x2548 DUP7 PUSH2 0x2335 JUMP JUMPDEST PUSH0 JUMPDEST DUP3 DUP2 LT ISZERO PUSH2 0x256F JUMPI DUP5 DUP10 ADD MLOAD DUP3 SSTORE PUSH1 0x1 DUP3 ADD SWAP2 POP PUSH1 0x20 DUP6 ADD SWAP5 POP PUSH1 0x20 DUP2 ADD SWAP1 POP PUSH2 0x254A JUMP JUMPDEST DUP7 DUP4 LT ISZERO PUSH2 0x258C JUMPI DUP5 DUP10 ADD MLOAD PUSH2 0x2588 PUSH1 0x1F DUP10 AND DUP3 PUSH2 0x249B JUMP JUMPDEST DUP4 SSTORE POP JUMPDEST PUSH1 0x1 PUSH1 0x2 DUP9 MUL ADD DUP9 SSTORE POP POP POP JUMPDEST POP POP POP POP POP POP JUMP JUMPDEST PUSH32 0x4E487B7100000000000000000000000000000000000000000000000000000000 PUSH0 MSTORE PUSH1 0x11 PUSH1 0x4 MSTORE PUSH1 0x24 PUSH0 REVERT JUMPDEST PUSH0 PUSH2 0x25D8 DUP3 PUSH2 0x1A21 JUMP JUMPDEST SWAP2 POP PUSH2 0x25E3 DUP4 PUSH2 0x1A21 JUMP JUMPDEST SWAP3 POP DUP3 DUP3 MUL PUSH2 0x25F1 DUP2 PUSH2 0x1A21 JUMP JUMPDEST SWAP2 POP DUP3 DUP3 DIV DUP5 EQ DUP4 ISZERO OR PUSH2 0x2608 JUMPI PUSH2 0x2607 PUSH2 0x25A1 JUMP JUMPDEST JUMPDEST POP SWAP3 SWAP2 POP POP JUMP JUMPDEST PUSH0 PUSH2 0x2619 DUP3 PUSH2 0x1A21 JUMP JUMPDEST SWAP2 POP PUSH2 0x2624 DUP4 PUSH2 0x1A21 JUMP JUMPDEST SWAP3 POP DUP3 DUP3 ADD SWAP1 POP DUP1 DUP3 GT ISZERO PUSH2 0x263C JUMPI PUSH2 0x263B PUSH2 0x25A1 JUMP JUMPDEST JUMPDEST SWAP3 SWAP2 POP POP JUMP INVALID BLOBHASH PUSH15 0x76616C696420496E70757420212054 PUSH10 0x636B6574204E6F742042 PUSH16 0x6F6B65644169724C696E65205469636B PUSH6 0x7420426F6F6B PUSH6 0x642053756363 PUSH6 0x737366756C6C PUSH26 0x5261696C776179205469636B657420426F6F6B65642053756363 PUSH6 0x737366756C6C PUSH26 0xA2646970667358221220A9FA0602001A818CBA826F07275E42D0 DUP5 CALLDATASIZE 0x23 DUP12 MUL EXP 0xEE 0xC8 0xA8 0xC9 0xE3 0xC7 0xD7 CODESIZE 0xD SWAP12 PUSH5 0x736F6C6343 STOP ADDMOD BYTE STOP CALLER "
		},
		"gasEstimates": {
			"creation": {
				"codeDepositCost": "1989800",
				"executionCost": "2103",
				"totalCost": "1991903"
			},
			"external": {
				"Book_AirLine_Ticket(uint256,uint256,uint8,uint8,uint256,uint256)": "infinite",
				"Book_Bus_Ticket(uint256,uint256,uint8,uint8,uint256,uint256)": "infinite",
				"Book_Cinema_Ticket(uint256,uint256,uint8,uint8,uint256,uint256)": "infinite",
				"Book_Cricket_Ticket(uint256,uint256,uint8,uint8,uint256,uint256)": "infinite",
				"Book_Railway_Ticket(uint256,uint256,uint8,uint8,uint256,uint256)": "infinite",
				"Check_AnonomusID(uint256,uint256)": "infinite",
				"Chekck_My_Tickets(uint256,uint256)": "infinite",
				"Creat_Account(string,uint256,address)": "infinite"
			},
			"internal": {
				"Book_airLine_Ticket(uint256,enum Tickets_Booking.Time,enum Tickets_Booking.Type,uint256,uint256)": "102197",
				"Book_bus_Ticket(uint256,enum Tickets_Booking.Time,enum Tickets_Booking.Type,uint256,uint256)": "102197",
				"Book_cinema_Ticket(uint256,enum Tickets_Booking.Time,enum Tickets_Booking.Movie,uint256,uint256)": "102197",
				"Book_cricket_Ticket(uint256,enum Tickets_Booking.Date,enum Tickets_Booking.Type,uint256,uint256)": "102197",
				"Book_railway_Ticket(uint256,enum Tickets_Booking.Time,enum Tickets_Booking.Type,uint256,uint256)": "102197"
			}
		},
		"methodIdentifiers": {
			"Book_AirLine_Ticket(uint256,uint256,uint8,uint8,uint256,uint256)": "98851f11",
			"Book_Bus_Ticket(uint256,uint256,uint8,uint8,uint256,uint256)": "d851bbbc",
			"Book_Cinema_Ticket(uint256,uint256,uint8,uint8,uint256,uint256)": "b051e718",
			"Book_Cricket_Ticket(uint256,uint256,uint8,uint8,uint256,uint256)": "91334732",
			"Book_Railway_Ticket(uint256,uint256,uint8,uint8,uint256,uint256)": "ca3aa589",
			"Check_AnonomusID(uint256,uint256)": "2292c804",
			"Chekck_My_Tickets(uint256,uint256)": "5522ed14",
			"Creat_Account(string,uint256,address)": "0c52e285"
		}
	},
	"abi": [
		{
			"inputs": [
				{
					"internalType": "uint256",
					"name": "id",
					"type": "uint256"
				},
				{
					"internalType": "uint256",
					"name": "anonomus_id",
					"type": "uint256"
				},
				{
					"internalType": "enum Tickets_Booking.Time",
					"name": "Select_Time",
					"type": "uint8"
				},
				{
					"internalType": "enum Tickets_Booking.Type",
					"name": "Select_Type",
					"type": "uint8"
				},
				{
					"internalType": "uint256",
					"name": "Select_Seat_Number",
					"type": "uint256"
				},
				{
					"internalType": "uint256",
					"name": "Select_No_Of_seats",
					"type": "uint256"
				}
			],
			"name": "Book_AirLine_Ticket",
			"outputs": [
				{
					"internalType": "string",
					"name": "",
					"type": "string"
				}
			],
			"stateMutability": "nonpayable",
			"type": "function"
		},
		{
			"inputs": [
				{
					"internalType": "uint256",
					"name": "id",
					"type": "uint256"
				},
				{
					"internalType": "uint256",
					"name": "anonomus_id",
					"type": "uint256"
				},
				{
					"internalType": "enum Tickets_Booking.Time",
					"name": "Select_Time",
					"type": "uint8"
				},
				{
					"internalType": "enum Tickets_Booking.Type",
					"name": "Select_Type",
					"type": "uint8"
				},
				{
					"internalType": "uint256",
					"name": "Select_Seat_Number",
					"type": "uint256"
				},
				{
					"internalType": "uint256",
					"name": "Select_No_Of_seats",
					"type": "uint256"
				}
			],
			"name": "Book_Bus_Ticket",
			"outputs": [
				{
					"internalType": "string",
					"name": "",
					"type": "string"
				}
			],
			"stateMutability": "nonpayable",
			"type": "function"
		},
		{
			"inputs": [
				{
					"internalType": "uint256",
					"name": "id",
					"type": "uint256"
				},
				{
					"internalType": "uint256",
					"name": "anonomus_id",
					"type": "uint256"
				},
				{
					"internalType": "enum Tickets_Booking.Time",
					"name": "Select_Time",
					"type": "uint8"
				},
				{
					"internalType": "enum Tickets_Booking.Movie",
					"name": "Select_Movie_Name",
					"type": "uint8"
				},
				{
					"internalType": "uint256",
					"name": "Select_Seat_Number",
					"type": "uint256"
				},
				{
					"internalType": "uint256",
					"name": "Select_No_Of_seats",
					"type": "uint256"
				}
			],
			"name": "Book_Cinema_Ticket",
			"outputs": [
				{
					"internalType": "string",
					"name": "",
					"type": "string"
				}
			],
			"stateMutability": "nonpayable",
			"type": "function"
		},
		{
			"inputs": [
				{
					"internalType": "uint256",
					"name": "id",
					"type": "uint256"
				},
				{
					"internalType": "uint256",
					"name": "anonomus_id",
					"type": "uint256"
				},
				{
					"internalType": "enum Tickets_Booking.Date",
					"name": "dates",
					"type": "uint8"
				},
				{
					"internalType": "enum Tickets_Booking.Type",
					"name": "Select_Type",
					"type": "uint8"
				},
				{
					"internalType": "uint256",
					"name": "Select_Seat_Number",
					"type": "uint256"
				},
				{
					"internalType": "uint256",
					"name": "Select_No_Of_seats",
					"type": "uint256"
				}
			],
			"name": "Book_Cricket_Ticket",
			"outputs": [
				{
					"internalType": "string",
					"name": "",
					"type": "string"
				}
			],
			"stateMutability": "nonpayable",
			"type": "function"
		},
		{
			"inputs": [
				{
					"internalType": "uint256",
					"name": "id",
					"type": "uint256"
				},
				{
					"internalType": "uint256",
					"name": "anonomus_id",
					"type": "uint256"
				},
				{
					"internalType": "enum Tickets_Booking.Time",
					"name": "Select_Time",
					"type": "uint8"
				},
				{
					"internalType": "enum Tickets_Booking.Type",
					"name": "Select_Type",
					"type": "uint8"
				},
				{
					"internalType": "uint256",
					"name": "Select_Seat_Number",
					"type": "uint256"
				},
				{
					"internalType": "uint256",
					"name": "Select_No_Of_seats",
					"type": "uint256"
				}
			],
			"name": "Book_Railway_Ticket",
			"outputs": [
				{
					"internalType": "string",
					"name": "",
					"type": "string"
				}
			],
			"stateMutability": "nonpayable",
			"type": "function"
		},
		{
			"inputs": [
				{
					"internalType": "uint256",
					"name": "Id_Number",
					"type": "uint256"
				},
				{
					"internalType": "uint256",
					"name": "Anonomus_id",
					"type": "uint256"
				}
			],
			"name": "Check_AnonomusID",
			"outputs": [
				{
					"internalType": "bool",
					"name": "",
					"type": "bool"
				}
			],
			"stateMutability": "view",
			"type": "function"
		},
		{
			"inputs": [
				{
					"internalType": "uint256",
					"name": "id",
					"type": "uint256"
				},
				{
					"internalType": "uint256",
					"name": "password",
					"type": "uint256"
				}
			],
			"name": "Chekck_My_Tickets",
			"outputs": [
				{
					"components": [
						{
							"internalType": "uint256",
							"name": "ID",
							"type": "uint256"
						},
						{
							"internalType": "uint256",
							"name": "Anonomus_ID",
							"type": "uint256"
						},
						{
							"internalType": "string",
							"name": "Name",
							"type": "string"
						},
						{
							"internalType": "uint256",
							"name": "Age",
							"type": "uint256"
						},
						{
							"internalType": "address",
							"name": "Address",
							"type": "address"
						},
						{
							"components": [
								{
									"internalType": "enum Tickets_Booking.Time",
									"name": "time",
									"type": "uint8"
								},
								{
									"internalType": "enum Tickets_Booking.Type",
									"name": "types",
									"type": "uint8"
								},
								{
									"internalType": "uint256",
									"name": "Seat_Number",
									"type": "uint256"
								},
								{
									"internalType": "uint256",
									"name": "Book_n_Seats",
									"type": "uint256"
								}
							],
							"internalType": "struct Tickets_Booking.Bus_Ticket",
							"name": "bus_ticket",
							"type": "tuple"
						},
						{
							"components": [
								{
									"internalType": "enum Tickets_Booking.Time",
									"name": "time",
									"type": "uint8"
								},
								{
									"internalType": "enum Tickets_Booking.Type",
									"name": "types",
									"type": "uint8"
								},
								{
									"internalType": "uint256",
									"name": "Seat_Number",
									"type": "uint256"
								},
								{
									"internalType": "uint256",
									"name": "Book_n_Seats",
									"type": "uint256"
								}
							],
							"internalType": "struct Tickets_Booking.AirLine_Ticket",
							"name": "airLine_ticket",
							"type": "tuple"
						},
						{
							"components": [
								{
									"internalType": "enum Tickets_Booking.Time",
									"name": "time",
									"type": "uint8"
								},
								{
									"internalType": "enum Tickets_Booking.Movie",
									"name": "Movie_Name",
									"type": "uint8"
								},
								{
									"internalType": "uint256",
									"name": "Seat_Number",
									"type": "uint256"
								},
								{
									"internalType": "uint256",
									"name": "Book_n_Seats",
									"type": "uint256"
								}
							],
							"internalType": "struct Tickets_Booking.Cinema_Ticket",
							"name": "cinema_ticket",
							"type": "tuple"
						},
						{
							"components": [
								{
									"internalType": "enum Tickets_Booking.Date",
									"name": "date",
									"type": "uint8"
								},
								{
									"internalType": "enum Tickets_Booking.Type",
									"name": "types",
									"type": "uint8"
								},
								{
									"internalType": "uint256",
									"name": "Seat_Number",
									"type": "uint256"
								},
								{
									"internalType": "uint256",
									"name": "Book_n_Seats",
									"type": "uint256"
								}
							],
							"internalType": "struct Tickets_Booking.Cricket_Ticket",
							"name": "cricket_ticket",
							"type": "tuple"
						},
						{
							"components": [
								{
									"internalType": "enum Tickets_Booking.Time",
									"name": "time",
									"type": "uint8"
								},
								{
									"internalType": "enum Tickets_Booking.Type",
									"name": "types",
									"type": "uint8"
								},
								{
									"internalType": "uint256",
									"name": "Seat_Number",
									"type": "uint256"
								},
								{
									"internalType": "uint256",
									"name": "Book_n_Seats",
									"type": "uint256"
								}
							],
							"internalType": "struct Tickets_Booking.Railway_Ticket",
							"name": "railway_ticket",
							"type": "tuple"
						}
					],
					"internalType": "struct Tickets_Booking.Client",
					"name": "A",
					"type": "tuple"
				}
			],
			"stateMutability": "view",
			"type": "function"
		},
		{
			"inputs": [
				{
					"internalType": "string",
					"name": "name",
					"type": "string"
				},
				{
					"internalType": "uint256",
					"name": "age",
					"type": "uint256"
				},
				{
					"internalType": "address",
					"name": "addr",
					"type": "address"
				}
			],
			"name": "Creat_Account",
			"outputs": [
				{
					"internalType": "uint256",
					"name": "",
					"type": "uint256"
				},
				{
					"internalType": "uint256",
					"name": "",
					"type": "uint256"
				}
			],
			"stateMutability": "nonpayable",
			"type": "function"
		}
	]
}